:100000000C9440000C9495430C9472430C943E0065
:100010000C943E000C94E5430C943E000C94B843C1
:100020000C943E000C943E000C943E000C9438411D
:100030000C943E000C94F83E0C942D3F0C943E0022
:100040000C943E000C943E000C944C180C943E0012
:100050000C94E3010C943E000C943E000C943E0082
:100060000C943E000C943E000C943E000C943E0018
:100070000C943E000C943E000C943E00189508959C
:100080000FEF0DBF00E10EBF0E942C5EB715D3032A
:10009000B107140C140C112700910308002329F058
:1000A000E0EFFAE60E947A3508951F930E947D479B
:1000B0001F9100918E050093460500918F050093D6
:1000C000470500919005009348050E948F4D02E27C
:1000D00000933F0701E00093400500E900934105CC
:1000E00000E000934205309146054091470550914C
:1000F000480560914005709141058091420558176F
:100100004707360734F400903F0706E0000E0092E0
:100110003F071F930E943C2A1F9101E00093440770
:1001200001E10093400704E0ECEFF2E00E94184C7C
:100130000E94BD4BECEEF2E004E0019FE00DF11DEA
:100140000E940F4B0E942C4D0E94F4420E94AF4E21
:10015000002309F4AACF0E94D31D083009F40895A2
:10016000043029F41A9513700E94CD4E9ECF0230B0
:1001700011F41395F8CF0130B1F7103019F4AAE05B
:10018000FAD093CF113019F4A2E0F5D08ECF12300F
:1001900089F0E5D0C1E0DCEFEFEFF3E00E94A4339B
:1001A000A02DB12DDD27B0939105A0939205D0939A
:1001B00093056FC000918E050093400500918F0557
:1001C0000093410500919005009342056091400520
:1001D000709141058091420502E00E942B4F60938F
:1001E00040057093410580934205B0914005A09170
:1001F0004105D0914205C4E1D0E0E4E0F1E00E9485
:10020000A433A02DB12DDD27B0934005A093410567
:10021000D09342056091400570914105809142055F
:1002200002E00E94344F6093400570934105809333
:100230004205309140054091410550914205609141
:100240008E0570918F0580919005581B470B360BDA
:1002500030934005409341055093420530919105FC
:100260004091920550919305609140057091410530
:1002700080914205580F471F361F309391054093D8
:10028000920550939305B0919105A0919205D0915C
:100290009305E5E7F0E00E94E84E65CF55736520D1
:1002A0004B4B322E31204F666673657400005573D8
:1002B00065204B4B322E312E35204F6666736574A8
:1002C00000004D6F6469667920566F6C74616765D4
:1002D0002028312F3130290041646A757374204F12
:1002E00066667365742056616C75650000107F1931
:1002F00000197F2200227F2B002B7F349C02AE024C
:10030000C202D802546865206261747465727920F3
:10031000766F6C74616765006F66667365742068DC
:100320006173206265656E20736574006163636F3D
:100330007264696E6720746F2073656C65637465A1
:1003400064004B4B3220626F617264207665727379
:10035000696F6E2E0000040318032C034203E5E7C7
:10036000F0E00E94DF4EDD27B0939105A093920547
:10037000D09393050895BB27DD27B0939105A093F3
:100380009205D0939305E5E7F0E00E94E84E0E94C5
:100390008F4D02E200933F07E4E4FBE90E94904B9B
:1003A00004E0E6E5F3E00E94184C0E94F34B0E9443
:1003B0002C4D0E94D84E0895A2E0B0E0E5E7F0E0B1
:1003C0000E94E84E0895FFB69F93FF93EF93E0904D
:1003D000C600E091F607F091F707E192E090DC07A4
:1003E0009091F80793959E151CF0EDEDF7E0992795
:1003F0009093F807E093F607F093F707EF91FF91DA
:100400009F91FFBE189509E1A0E0EDEDF7E0A19303
:100410000A95E9F7089500914D07023011F40E9402
:10042000F7090091DB0700231AF00E9440030895AA
:100430000E9434440091FA07033041F0C9E10E9460
:10044000A14E0091DB0700230AF46BC00E94FB421F
:100450000E94814D05E0EEE2FDE90E94184C01E0AA
:1004600000934007B0914C05A0914D05D0914E05E9
:10047000E0E3F5E8CFEF0E94B442B0914F05A091C0
:100480005005D0915105E6E3F5E8CFEF0E94B44264
:100490000E94E242B0915205A0915305D0915405BB
:1004A0000E94474B05E500933F0700917307002327
:1004B00012F4AA2708C0EAE5F0E00E94F14214F421
:1004C000A1E001C0A2E0ECE3F5E80E94D942B091BE
:1004D0005505A0915605D0915705E2E4F5E8CFEF18
:1004E0000E94B4420E94E242B0915805A091590581
:1004F000D0915A050E94474B05E500933F070091B4
:100500008107EEE0FDE90E940F4C00E000933F07F9
:1005100009E300934007ECEAFBE90E942E4C0E949D
:100520002C4D0E94AF4E083009F40895043019F4A0
:100530000E94D31D01D07CCF0E94344400914D070E
:10054000023011F40E94F7090091FA07033041F0DC
:10055000C9E10E94A14E0091DB0700230AF45EC0AE
:100560000E94360710916105209162053091630564
:100570004091400550914105609142050E943A4FDB
:100580007093610580936205209263050E94814DFE
:10059000BB270E94A44201E000934007B0915B0595
:1005A000A0915C05D0915D05EAE2F5E8CFEF0E94ED
:1005B000B442B0915E05A0915F05D0916005EAE27A
:1005C000F5E8CFEF0E94B4420E94E242B09161058B
:1005D000A0916205D09163050E94474B05E5009309
:1005E0003F0700918E07E8E2FDE90E940F4C009161
:1005F0004D07023079F4A091D607E0E3F6E0C8E3B6
:10060000D6E01ED0A091D707E4E3F6E0CCE3D6E035
:100610000E9420030E94DB4B0E942C4D0E94AF4E93
:10062000083029F40E94D31D0E94CD4E089584CF36
:100630004447310044473200F49B0A9CF49BF89BEA
:10064000CF93DF93AF9300E000933F070E94894B65
:100650000E942E4C00E300933F070E94A74B09E342
:1006600000933F0700E3AF910A0F0E94354C05E568
:1006700000933F070A2FFF91EF910E940F4C0895BE
:100680000E948F4D06E100933F07EEECF6E00E94DA
:10069000904B00E000933F0700914D07023019F4A2
:1006A000E8EEF6E002C0E6EDF6E00E942E4C0E9475
:1006B000894B02E0EEE1F7E00E94184C0E94DB4B10
:1006C0000E942C4D0E94D14E0830E1F708954E4F04
:1006D000204441544100506C65617365207375700E
:1006E000706C792053617400506C65617365207380
:1006F0007570706C7920532E42757300646174615B
:1007000020746F20746865207468726F74746C65EF
:100710000000696E7075742070696E2E0000FC0612
:1007200012070E9403020E9434440E94814DF5E0AA
:10073000E5E0CDEDD7E01FD0EA95E9F70E94894BBF
:1007400000E000933F07E5E0FA95A9F70E94DB4B34
:100750000E942C4D0E94F4420E94AF4E083019F7BF
:100760000E94D31D0895303132333435363738394D
:10077000414243444546EF93FF9300E20E94354CCB
:10078000088102950F7006D009910F7003D0FF9178
:10079000EF910895E6E6F7E0E00F0027F01F0491DF
:1007A0000E94354C0895A4E6B0E00E949C4E0E9441
:1007B000F0040E942C4D0E94704D0E942C4D0E940E
:1007C0005C2500E00093450700E00093460700E049
:1007D0000093470700E00093480703E00093970564
:1007E0000FEF0093980500E00093990501E0009356
:1007F0009C060EE800939D0600E000939E060027ED
:100800000093A4070093A5070093A60700936E0723
:100810000093790700937607AFEAA0938007A2E0E0
:10082000A0938107A1E0A0938E07A0938307009374
:100830007407009375070093B0070093B107009306
:10084000B2070093B3070093B4070093B507009372
:10085000B6070093B7070093B8070093B907009352
:10086000BA070093BB070093BC070093BD07009332
:10087000BE070093BF070093DB070093A807009310
:10088000AB070093A907E0EBF7E0E093AE07F09326
:10089000AF07A3E0A093FA0700E100939D070E9431
:1008A000C14A0E9456287894E4E7F0E00E94154F70
:1008B000002351F00E94272503B1009502950F7087
:1008C00089F00E9431240EC00FEF009396070E941A
:1008D000AF4E083011F40E94B36D013019F40FEFE0
:1008E000009379070E94192D06E006BB0E94D53EB1
:1008F0000E9455060E9468070E94292C0E948A1FA8
:100900000E9471210E94DF360E94AB350E946C115B
:100910000E94B41C0E947E1E0E943B3F0090700704
:100920001090710701240092930700919307002310
:1009300032F40E94571F00917007009371070091D5
:10094000780700232AF40027009378070E944A2999
:100950000091700700230AF4C9CF03B100950295F6
:100960000F7039F400270093960700E0009390077A
:10097000BDCF0091900703950093900700919007D9
:10098000023309F0B3CF00919607002372F300E021
:1009900000936F000E94AF4E0F7039F3013029F0C1
:1009A000083061F00E941D189DCF0E94D31D0E9447
:1009B0008A1548F40FEF0093960794CF0E94D31D39
:1009C0000E94A115F7CF29982A980E9431180E94F9
:1009D00012410E9429050E9426410E94471882CF99
:1009E00002E301B90EE004B90CEF07B902EF0AB94E
:1009F0000FEF00937E0001EF05B903E008B90DE0A9
:100A00000BB900E00093800002E00093810000E059
:100A10000093820008E00093680001E000937300F7
:100A20000091B9000C7F0093B90001E10093B80078
:100A30005D9A5C9A5E982B9A299AA4EFB1E00E9485
:100A40009C4E2B9829985E9AA4E6B0E00E949C4E9A
:100A50000895CAE9DAE0A0914607B091450702E19E
:100A60000A950E94E91DC0934607D093450708F0F8
:100A70000895AA0FEEEEFBE0EA0F0027F01FA59104
:100A8000B491FD0109950E94D31D0E94704D0E94F2
:100A90002C4D0E94CD4E0C94290550492045646987
:100AA000746F7220202020202020202020205365D9
:100AB0006C662D6C6576656C2053657474696E6721
:100AC0007320537469636B205363616C696E672094
:100AD0002020202020204D6F6465205365747469A8
:100AE0006E6773202020202020204D6973632E2004
:100AF00053657474696E6773202020202020476935
:100B00006D62616C2053657474696E677320202078
:100B10002020416476616E63656420536574746956
:100B20006E6773202020415558205377697463689D
:100B300020536574757020202020496E69746961A6
:100B40006C20536574757020202020202020526571
:100B500063656976657220546573742020202020B7
:100B6000202053656E736F722054657374202020AB
:100B700020202020202053686F77204D6F746F72E3
:100B8000204C61796F757420202055736572205058
:100B9000726F66696C652020202020202020457817
:100BA000747261204665617475726573202020201F
:100BB00020204553432043616C6962726174696F00
:100BC0006E202020202056657273696F6E20496E5A
:100BD000666F726D6174696F6E204C434420436F81
:100BE0006E74726173742020202020202020FC323B
:100BF000F358385969587D59351084574820E65ABA
:100C00006E418D46075ADA16245892561B57C9571B
:100C1000AF93BF93EF93FF93A0918400B0918500B1
:100C2000E091AC07F091AD07A093AC07B093AD078E
:100C3000AE1BBF0B2AF4E0E0F0E0EA1BFB0BDF0188
:100C4000EAE6F8E1AE17BF0790F0E0EBF7E090912D
:100C5000AB07EE24E092AB079093A90794300CF415
:100C600019C09FEF9093DB07E092A80713C0909103
:100C7000AB0793959093AB07E091AE07F091AF0768
:100C8000A193B193A0ECB7E0EA17FB0718F011F0BD
:100C9000E0ECF7E0E093AE07F093AF07FF91EF9140
:100CA000BF91AF919F91FFBE18950090C2070E941F
:100CB00067450E9472450E948E45DD27B0934C0522
:100CC000A0934D05D0934E050E94A045C093740794
:100CD0000090C3070E9467450E9472450E948E459E
:100CE000DD27B0934F05A0935005D09351050E9486
:100CF000A045C09375070090C4070E946745002770
:100D0000009373070E948545EBE3FBE0AE1BBF0B2E
:100D1000E0E0F0E0AE17BF070CF405C0E5E3FCE04F
:100D2000AE17BF072CF0A0E0B0E00FEF0093730701
:100D3000DD27B0935205A0935305D093540500903E
:100D4000C5070E9467450E9472450E948E45DD27B7
:100D5000B0935505A0935605D09357050090C6074C
:100D60000E9467450E947245CC27E8EAFDEFAE1766
:100D7000BF079CF0C395E8E3FFEFAE17BF076CF029
:100D8000C395E8ECF0E0AE17BF073CF0C395E8E58B
:100D9000F2E0AE17BF070CF0C395C0938107DD27C3
:100DA000B0935805A0935905D0935A050090C707F2
:100DB0000E9467450E947245DD27B0935B05A093B2
:100DC0005C05D0935D050090C8070E9467450E94AE
:100DD0007245DD27B0935E05A0935F05D093600553
:100DE0000090C9070E9467450E947245CC27E0E742
:100DF000FEEFAE17BF073CF0C395E0E9F1E0AE1798
:100E0000BF070CF0C395C0938E07DD27B093610533
:100E1000A0936205D09363050091DB07002322F5C0
:100E200010C00093A8070091700700234AF40091B6
:100E3000A907A091AA070A1719F0A4E00E94731548
:100E400008950091A8070395A09167070A1748F332
:100E500000917007002342F400919D070360009306
:100E60009D070FEF00937E070C94B60B00E00093F4
:100E7000400500E00093410509E10093420510910F
:100E80005B0520915C0530915D05409140055091D6
:100E90004105609142050E943A4F70935B05809333
:100EA0005C0520925D0510915E0520915F053091F3
:100EB00060054091400550914105609142050E94B6
:100EC0003A4F70935E0580935F0520926005089508
:100ED0000091DB0700950071A0919D07AF7E0A2B62
:100EE00000939D0708954E4F205349474E414C00B3
:100EF000506C6561736520737570706C792061202A
:100F00004350504D00002850504D29207369676EA2
:100F1000616C20746F20746865007468726F7474FB
:100F20006C6520696E7075742070696E2E00F00E0D
:100F3000060F1A0F0E948F4D0AE000933F07E6EE5E
:100F4000FEE00E94904B03E0EEE2FFE00E94184CAE
:100F50000E94DB4B0E942C4D0E94D14E0830E1F7DD
:100F60000895A4E6B0E00E949C4E0E94BF080E9433
:100F70002C4D0E94704D0E942C4D0E945C2500E07B
:100F80000093450700E00093460700E00093470701
:100F900000E00093480703E0009397050FEF0093EC
:100FA000980500E00093990501E000939C060EE887
:100FB00000939D0600E000939E0600270093A4077F
:100FC0000093A5070093A60700936E070093790787
:100FD00000937607AFEAA0938007A2E0A093810771
:100FE000A1E0A0938E07A09383070093740700935A
:100FF0007507A9E1A093DC070093DB070093A8071E
:101000000093D6070093D7070093D8070093F807FB
:101010000093F9070093FA070093DD07EDEDF7E081
:10102000E093F607F093F70700E100939D070E9415
:10103000C14A0E9456287894E4E7F0E00E94154FD8
:10104000002351F00E94272503B1009502950F70EF
:1010500089F00E9431240EC00FEF009396070E9482
:10106000AF4E083011F40E94B36D013019F40FEF48
:10107000009379070E94192D00919D070F7D009321
:101080009D0706E006BB0E94D53E0E943C0A0E94D6
:10109000F7090E942B0A0E94292C0E948A1F0E9495
:1010A00071210E94DF360E94AB350E946C110E94B4
:1010B000B41C0E947E1E0E943B3F0090700710905F
:1010C000710701240092930700919307002332F4E3
:1010D0000E94571F009170070093710700917807D5
:1010E00000232AF40027009378070E944A290091E0
:1010F000700700230AF4C7CF03B1009502950F7063
:1011000039F400270093960700E000939007BBCFC7
:101110000091900703950093900700919007023388
:1011200009F0B1CF00919607002372F300E000931D
:101130006F000E94AF4E0F7039F3013029F0083074
:1011400061F00E941D1896CF0E94D31D0E948A153F
:1011500048F40FEF009396078DCF0E94D31D0E9495
:10116000A115F7CF29982A980E9431180E941241A0
:101170000E940D090E9426410E9447187BCF02E37E
:1011800001B90FE004B90CEF07B902EF0AB90FEF8C
:1011900000937E0000EF05B903E008B90DE00BB93C
:1011A00000E00093800002E00093810000E00093E3
:1011B00082000091C000007819F00091C600F9CFBC
:1011C00002E00093C00000270093C50008E10093EF
:1011D000C40000E10093C1000EE20093C200009140
:1011E000C10000680093C1000091B9000C7F00931A
:1011F000B90001E10093B8005D9A5C9A5E982B9A61
:10120000299AA4EFB1E00E949C4E2B9829985E9AEF
:10121000A4E6B0E00E949C4E0895C2E6D2E1A091FF
:101220004607B091450703E10A950E94E91DC09366
:101230004607D093450708F00895AA0FEAECF3E1BA
:10124000EA0F0027F01FA591B491FD0109950E94B6
:10125000D31D0E94704D0E942C4D0E94CD4E0C94C7
:101260000D09504920456469746F722020202020A8
:1012700020202020202053656C662D6C6576656CDF
:101280002053657474696E677320537469636B20AF
:101290005363616C696E67202020202020204D6FF1
:1012A00064652053657474696E6773202020202064
:1012B00020204D6973632E2053657474696E6773C3
:1012C00020202020202047696D62616C20536574C6
:1012D00074696E67732020202020416476616E63FC
:1012E00065642053657474696E67732020204155CE
:1012F0005820537769746368205365747570202093
:101300002020444732205377697463682053657402
:10131000757020202020496E697469616C205365C6
:101320007475702020202020202052656365697626
:10133000657220546573742020202020202053657E
:101340006E736F722054657374202020202020203B
:10135000202053686F77204D6F746F72204C617935
:101360006F7574202020557365722050726F666906
:101370006C65202020202020202045787472612078
:1013800046656174757265732020202020204553C6
:10139000432043616C6962726174696F6E20202022
:1013A000202056657273696F6E20496E666F726D8C
:1013B0006174696F6E204C434420436F6E74726198
:1013C00073742020202020202020FC32F35838592C
:1013D00069587D59351084574820C259E65A0B0286
:1013E0008D46075ADA16245892561B57C957A091B2
:1013F000D507B091DB07BB2331F400919D07006155
:1014000000939D07089500919D070F7E00939D070F
:101410000A2F01700093D6070A95009500937E0766
:10142000A6950A2F01700093D707A695A695A170DF
:1014300089F0A093D80700919D07006200939D0753
:101440000FEF00937E070091700700231AF4A2E0CB
:101450000E94731508950091D707002311F4289A6C
:101460000AC0C091D907C69518F4002700937307E6
:10147000C69508F428980895A091F807B091F90747
:10148000AB1759F0A093F90701E00093FA07009118
:10149000DB0700230AF44BC069C10091FA07023050
:1014A00059F00395043608F00A950093FA07009165
:1014B000DB0700238AF73BC0A091F807AA2391F02D
:1014C00000270093FA070093F907F8940093F807B0
:1014D0000093DD07EDEDF7E0E093F607F093F707F3
:1014E000789444C1EDEDF7E000810F3009F03EC182
:1014F000E5EFF7E00081002321F000810F7C04304C
:10150000B1F70FEF0093DB07319700810093D50708
:10151000EEEDF7E0AAECB7E0CAE001910D93CA95B1
:10152000E2F703E00093FA0700270093A807A091D1
:10153000CA07B091CB07B770A093B007B093B107BB
:10154000A091CB07B091CC07B795A795B795A79574
:10155000B795A795B770A093B207B093B307D09192
:10156000CC07A091CD07B091CE07DD1FAA1FBB1FEE
:10157000DD1FAA1FBB1FB770A093B407B093B507B8
:10158000A091CE07B091CF07B795A795B770A0935C
:10159000B607B093B707A091CF07B091D007B79522
:1015A000A795B795A795B795A795B795A795B77040
:1015B000A093B807B093B907D091D007A091D107F5
:1015C000B091D207DD1FAA1FBB1FB770A093BA0747
:1015D000B093BB07A091D207B091D307B795A79559
:1015E000B795A795B770A093BC07B093BD07A0911E
:1015F000D307B091D40705E0B695A7950A95E1F712
:10160000A093BE07B093BF070090C207F8D001D1E6
:101610000E948E45B0934C05A0934D05D0934E0586
:101620000E94A045C09374070090C307E8D0F1D092
:101630000E948E45B0934F05A0935005D09351055D
:101640000E94A045C09375070090C407D8D000271A
:1016500000937307E0E9F1E0AE1BBF0BDED0E0E0E2
:10166000F0E0AE17BF072CF4A0E0B0E00FEF00935E
:101670007307B0935205A0935305D093540500907F
:10168000C507BDD0C6D00E948E45B0935505A09326
:101690005605D09357050090C607B1D0BAD0B09385
:1016A0005805A0935905D0935A05CC27E8EAFDEFD9
:1016B000AE17BF079CF0C395E8E3FFEFAE17BF0777
:1016C0006CF0C395E8ECF0E0AE17BF073CF0C395B3
:1016D000E8E5F2E0AE17BF070CF0C395C0938107B1
:1016E0000090C7078CD095D0B0935B05A0935C05A4
:1016F000D0935D050090C80782D08BD0B0935E0573
:10170000A0935F05D09360050090C90778D081D081
:10171000B0936105A0936205D0936305CC27E0E701
:10172000FEEFAE17BF073CF0C395E0E9F1E0AE175E
:10173000BF070CF0C395C0938E070091DB07002311
:10174000AAF403C00093A80708950091A807039581
:101750000A3FC0F300917007002342F400919D07F7
:10176000036000939D070FEF00937E07002700930F
:10177000DB0700E000934C0500934D0500934E05F8
:1017800000934F05009350050093510500935205B7
:101790000093530500935405009355050093560597
:1017A00000935705009358050093590500935A0577
:1017B00000935B0500935C0500935D0500935E0557
:1017C00000935F0500936005009361050093620537
:1017D000009363050FEF00937307009181070230B8
:1017E00031F002E0009381070FEF00938207009130
:1017F000700700231AF4A1E00E9473150895E0EB2E
:10180000F7E002E0009DE00DF11DA191B081DD2720
:101810000895E0E0F4E0AE1BBF0BEA2FFB2FF59537
:10182000E795AE0FBF1F08950027009396070E940B
:10183000390D0E942C4D0E94704D0E942C4D0E942B
:101840005C2500E00093450700E00093460700E0B8
:101850000093470700E00093480703E000939705D3
:101860000FEF0093980500E00093990501E00093C5
:101870009C060EE800939D0600E000939E0600275C
:101880000093A4070093A5070093A60700936E0793
:101890000093790700937607AFEAA0938007A2E050
:1018A000A0938107A1E0A0938E07A09383070093E4
:1018B000740700937507A0E1A093DC070093DB0792
:1018C0000093A8070093F8070093F9070093FA071D
:1018D000EDEDF7E0E093F607F093F7070093B0071C
:1018E0000093B1070093B2070093B3070093B407C6
:1018F0000093B5070093B6070093B7070093B807A6
:101900000093B9070093BA070093BB070093BC0785
:101910000093BD0700E100939D070E94C14A0E9409
:1019200056280E94830D7894E4E7F0E00E94154F5A
:10193000002371F00E942725009196070023B2F042
:1019400003B1009502950F7089F00E9431240EC0FA
:101950000FEF009396070E94AF4E083011F40E94DB
:10196000B36D013019F40FEF009379070E94192D20
:1019700000919D070F7D00939D0706E006BB0E9426
:10198000D53E0E94880E0E942A100E94292C0E9497
:101990008A1F0E9471210E94DF360E94AB350E948F
:1019A0006C110E94B41C0E947E1E0E943B3F00905E
:1019B000700710907107012400929307009193071C
:1019C000002332F40E94571F0091700700937107A3
:1019D0000091780700232AF40027009378070E94DB
:1019E0004A290091700700230AF4C9CF03B100957A
:1019F00002950F7039F400270093960700E00093DA
:101A00009007BDCF00919007039500939007009138
:101A10009007023309F0B3CF00919607002372F3C9
:101A200000E000936F000E94AF4E0F7039F3013059
:101A300029F0083061F00E941D1898CF0E94D31D34
:101A40000E948A1548F40FEF009396078FCF0E94EB
:101A5000D31D0E94A115F7CF29982A980E9431180A
:101A60000E9412410E94920D0E9426410E94471836
:101A70007DCF02E301B90EE004B90CEF07B902EF24
:101A80000AB90FEF00937E0001EF05B903E008B932
:101A90000DE00BB9ACE3B0E00E949C4E0E94AF4E4B
:101AA000063079F4A3E000914D07043009F4A7E073
:101AB00003EF0AB90E94710E02EF0AB90FEF00930B
:101AC000960700E00093800002E00093810000E0B0
:101AD000009382000091B9000C7F0093B90001E1EE
:101AE0000093B8005D9A5C9A5E982B9A299AA4EFAD
:101AF000B1E00E949C4E2B9829985E9AA4E6B0E033
:101B00000E949C4E089500270093C0000093C500DA
:101B10000AE00093C40000E90093C10006E00093CE
:101B2000C2000895CCE6DBE1A0914607B0914507DD
:101B300002E10A950E94E91DC0934607D09345072C
:101B400008F00895AA0FE0ECFCE1EA0F0027F01F6F
:101B5000A591B491FD0109950E94D31D0E94704D7D
:101B60000E942C4D0E94CD4E0C94920D5049204560
:101B70006469746F722020202020202020202020E3
:101B800053656C662D6C6576656C2053657474695D
:101B90006E677320537469636B205363616C696E65
:101BA00067202020202020204D6F6465205365741D
:101BB00074696E6773202020202020204D69736394
:101BC0002E2053657474696E6773202020202020B6
:101BD00047696D62616C2053657474696E67732028
:101BE00020202020416476616E6365642053657413
:101BF00074696E67732020204155582053776974AB
:101C0000636820536574757020202020496E6974C4
:101C100069616C205365747570202020202020207D
:101C2000526563656976657220546573742020205F
:101C30002020202053656E736F72205465737420CA
:101C4000202020202020202053686F77204D6F74A3
:101C50006F72204C61796F75742020205573657206
:101C60002050726F66696C65202020202020202083
:101C700045787472612046656174757265732020C1
:101C8000202020204553432043616C6962726174B7
:101C9000696F6E202020202056657273696F6E2058
:101CA000496E666F726D6174696F6E204C4344209B
:101CB000436F6E74726173742020202020202020D6
:101CC000FC32F358385969587D59351084574820EB
:101CD000E65A0B028D46075ADA16245892561B57BD
:101CE000C9575898C6E70E947C0E589ACAE70E94C6
:101CF0007C0EAA95B1F7089500C000C000C000C0D6
:101D000000C000C000C000C00000CA95A9F7089537
:101D1000442700914D070430F1F02CE133E002E05C
:101D20000093490500E000934A0500E000934B054D
:101D300000E00093400502E0009341050EEE0093A1
:101D4000420500E0009343050DEC0093440500E0DC
:101D5000009345051DC028E337E004E000934905E2
:101D600000E000934A0500E000934B0500E000937B
:101D7000400501E00093410507E70093420501E0BB
:101D8000009343050AE90093440500E000934505EC
:101D90003093DA07A091F807B091F907AB1759F023
:101DA000A093F90701E00093FA070091DB070023F5
:101DB0000AF45DC015C10091FA07023069F00023F2
:101DC000C9F30395043608F00A950093FA070091C9
:101DD000DB0700237AF74BC0A091F807AA2381F014
:101DE00000270093FA070093F907F8940093F80787
:101DF000EDEDF7E0E093F607F093F7077894F0C085
:101E00000FEF0093DB07AFEDB7E012E0E0EBF7E098
:101E1000DD91CD91DF3F79F04D2B0D2F06952833C5
:101E200009F406950E700395E00F08F4F395D3239B
:101E3000D0833197C0831395139510313CF3032F52
:101E400000954023421769F000919D0700620093BE
:101E50009D070091700700231AF4A3E00E947315F8
:101E6000BFC003E00093FA0700270093A8070027EC
:101E70000093BE070093BF070090C207B3D0BFD046
:101E80000E948E45B0934C05A0934D05D0934E050E
:101E90000E94A045C09374070090C307A3D0AFD0A1
:101EA0000E948E45B0934F05A0935005D0935105E5
:101EB0000E94A045C09375070090C40793D00027E7
:101EC00000937307F0914305E0914405AE1BBF0BEF
:101ED000A0D0E0E0F0E0AE17BF072CF4A0E0B0E047
:101EE0000FEF00937307B0935205A0935305D0935F
:101EF00054050090C50776D082D00E948E45B093DD
:101F00005505A0935605D09357050090C6076AD093
:101F100076D0B0935805A0935905D0935A05CC2795
:101F2000E8EAFDEFAE17BF079CF0C395E8E3FFEFCB
:101F3000AE17BF076CF0C395E8ECF0E0AE17BF0733
:101F40003CF0C395E8E5F2E0AE17BF070CF0C3958F
:101F5000C09381070090C70745D051D0B0935B056F
:101F6000A0935C05D0935D050090C8073BD047D097
:101F7000B0935E05A0935F05D09360050090C907FC
:101F800031D03DD0B0936105A0936205D093630535
:101F9000CC27E0E7FEEFAE17BF073CF0C395E0E9C2
:101FA000F1E0AE17BF070CF0C395C0938E07009108
:101FB000DB070023AAF403C00093A807089500914B
:101FC000A80703950A3FC0F300917007002342F46D
:101FD00000919D07036000939D070FEF00937E071C
:101FE0000C94B60BE0EBF7E002E0009DE00DF11D74
:101FF000A191B081DD270091DA07B0230895AD17D4
:10200000BD0709F40895F0914905E0914A05AE1B1A
:10201000BF0BB0934605A0934705D0934805109198
:102020004605209147053091480540914005509163
:102030004105609142050E943A4F70934605809396
:10204000470520924805B0914605A0914705D091DB
:10205000480508950091DB0700950071A0919D0748
:10206000AF7E0A2B00939D0708950E94B6300E9410
:10207000DA3200916907007C09F01ED10E94814D7F
:1020800005E0E6EEF1E20E94184C01E00093400703
:1020900028E4E1EBF0E007D106D105D104D120938B
:1020A0003F070E94A74BE9EBF0E00E94EF4E009340
:1020B000A2070170ECEFF1E20E940F4C00E00093E8
:1020C0003F0709E300934007ECEAFBE90E942E4C2E
:1020D000E6EBFBE90E942E4CE2E2F2E204E0019F13
:1020E000E00DF11D0E940F4B0E942C4D0E94D14E1D
:1020F000083009F40895043011F422D0BFCF023023
:1021000029F4139515300CF01127B8CF0130E9F7F9
:10211000143051F4A091A207A095A093A207E9EB77
:10212000F0E00E94F54EAACFE1EBF0E002E0019F63
:10213000E00DF11DC8EDDCEDA8E2B3E2A3D09ECF27
:10214000112724E50E94814D02E0EEE1F2E20E94B7
:10215000184C01E000934007EAEBF0E0A4D0A3D0D4
:102160000E94CA4BE6E3F2E204E0019FE00DF11D9C
:102170000E940F4B0E942C4D0E94D14E083011F44A
:1021800011270895043019F41A951170DBCF02302D
:10219000D9F30130D9F7EAEBF0E002E0019FE00D5E
:1021A000F11DC8E1DCEFA8EEB3E06CD0CBCF526FED
:1021B0006C6C204761696E00526F6C6C204F6666D4
:1021C000736574005069746368204761696E00002C
:1021D0005069746368204F666673657400004D69CA
:1021E00078696E670000AE21B821C421D021DE21BC
:1021F0004E6F6E650000446966660000F021F621AE
:10220000486F6D6520506F7320526F6C6C00486F83
:102210006D6520506F732050697463680000002260
:102220000E2253007309530973125312731B531B6D
:1022300073245324732D5F007F095F097F124F754C
:102240007470757420747970652069732073657477
:1022500020746F0045534320666F72204D37206114
:102260006E642F6F72204D382E00436865636B20BB
:102270004D6978657220456469746F722E003E2244
:1022800054226A22EF93FF93AF93BF930E94DD4ED7
:10229000FF91EF910E94A433A02DB12DFF91EF91FA
:1022A0000E94E64E089520933F070E94A74B0E948C
:1022B000DD4E0E94884B08950E948F4D0E94984BDE
:1022C00003E0EEE7F2E20E94184C0E94F34B0E94FA
:1022D0002C4D0E94D84E089500E0009340050093D5
:1022E0004105009342053091B1064091B2065091EC
:1022F000B3066091400570914105809142055817E1
:102300004707360709F011C03091B7064091B8066B
:102310005091B90660914005709141058091420548
:1023200058174707360709F408950091A6070023B8
:1023300069F000E000935B0500935C0500935D0588
:1023400000935E0500935F050093600500918E0782
:10235000023029F50091C60600935B050091C7067F
:1023600000935C050091C80600935D050091C306CB
:1023700000935E050091C40600935F050091C506B9
:102380000093600500E00093C0060093C10600932F
:10239000C2060093BD060093BE060093BF063091AF
:1023A0005B0540915C0550915D056091BA067091A6
:1023B000BB068091BC06580F471F361F30935B0544
:1023C00040935C0550935D0530915E0540915F053B
:1023D000509160056091B4067091B5068091B60683
:1023E000580F471F361F30935E0540935F0550938B
:1023F000600503E00093400508EE0093410500E00E
:102400000093420530915B0540915C0550915D055C
:10241000609140057091410580914205580F471F1A
:10242000361F30935B0540935C0550935D053091FA
:102430005E0540915F055091600560914005709187
:10244000410580914205580F471F361F30935E05A6
:1024500040935F055093600500E00093400502E063
:102460000093410500E80093420510915B0520911F
:102470005C0530915D0540914005509141056091AA
:1024800042050E943A4F7093CC068093CD0620926D
:10249000CE0610915E0520915F0530916005409158
:1024A000400550914105609142050E943A4F70935A
:1024B000C9068093CA062092CB0600918E07013090
:1024C00041F510919F062091A0063091A106409100
:1024D000B1065091B2066091B3060E943A4F7093D4
:1024E000BD068093BE062092BF061091A2062091E1
:1024F000A3063091A4064091B7065091B8066091AA
:10250000B9060E943A4F7093C0068093C10620928C
:10251000C2060091A20700230AF09FC00091BD06E9
:10252000009340050091BE06009341050091BF064F
:10253000009342053091BD064091BE065091BF0602
:102540006091C0067091C1068091C206581B470B6E
:10255000360B3093BD064093BE065093BF063091B4
:10256000C0064091C1065091C2066091400570912D
:10257000410580914205580F471F361F3093C00612
:102580004093C1065093C2060091C90600934005CE
:102590000091CA06009341050091CB0600934205C5
:1025A0003091C9064091CA065091CB066091CC0685
:1025B0007091CD068091CE06581B470B360B309399
:1025C000C9064093CA065093CB063091CC06409181
:1025D000CD065091CE0660914005709141058091E5
:1025E0004205580F471F361F3093CC064093CD0647
:1025F0005093CE0609E00093400504EC009341059A
:1026000000E0009342053091C9064091CA065091FE
:10261000CB06609140057091410580914205580FAD
:10262000471F361F3093C9064093CA065093CB0606
:102630003091CC064091CD065091CE066091400578
:102640007091410580914205581B470B360B309322
:10265000CC064093CD065093CE063091BD064091F6
:10266000BE065091BF066091C9067091CA0680915E
:10267000CB06580F471F361F309321064093220682
:10268000509323063091C0064091C1065091C20676
:102690006091CC067091CD068091CE06580F471FF1
:1026A000361F30932406409325065093260600914A
:1026B00021060093510600912206009352060091D4
:1026C00023060093530600912406009354060091BC
:1026D0002506009355060091260600935606089598
:1026E000EFEBF0E00E94154F00232AF0ECEEFAE643
:1026F0000E947A3508954AD108F408950E94A932BB
:102700000E94B6300E94DA3250916907222711E008
:102710000E9432290E94CD4E0E94264100E0009383
:10272000680700E00093690701E000936B0708E089
:1027300000936A070FEF0093700700270093730759
:1027400000E000937B0601E000937C0600E000932C
:102750007D0606E006BB01E00093430500E9009317
:10276000440500E000934505052F012321F423953E
:10277000110FD0F75DC00E948F4D04E300933F0717
:1027800006E1009340070DE40E94354C00E32395D9
:10279000020F0E94354CECE0F6E50E940F4B0E94C0
:1027A0002C4D1F935F932F930E94D53E0091EE0511
:1027B000009340050091EF05009341050091F0055D
:1027C0000093420541D00E943B3F2F913091430539
:1027D00040914405415030403093430540934405B7
:1027E00011F700E00093430508EC0093440500E076
:1027F000009345052F930E94D53E00E000934005CD
:1028000000934105009342051FD00E943B3F2F914A
:102810003091430540914405415030403093430589
:102820004093440539F75F911F91110F08F093CF42
:102830000027009370070FEF0093730790E09093C9
:102840006F000E9412410895213069F40091400503
:1028500000930F0600914105009310060091420578
:10286000009311060895223069F400914005009309
:102870001206009141050093130600914205009352
:1028800014060895233069F400914005009315065D
:10289000009141050093160600914205009317062A
:1028A0000895243069F400914005009318060091C2
:1028B0004105009319060091420500931A060895F8
:1028C000253069F40091400500931B0600914105F5
:1028D00000931C060091420500931D0608952630C2
:1028E00069F40091400500931E0600914105009394
:1028F0001F0600914205009320060895273069F4D1
:1029000000914005009321060091410500932206A5
:10291000009142050093230608950091400500931D
:10292000240600914105009325060091420500937D
:10293000260608954D6F746F72732077696C6C2052
:102940007370696E20696E0073657175656E63657D
:10295000204D31202D204D380000616674657220B5
:1029600074686520636F756E74646F776E2E0000F7
:10297000504C454153452042452043415245465520
:102980004C210000342948295A2970290E948F4D72
:102990000E94984B00E000933F0704E0E4E8F9E26E
:1029A0000E94184C0E94DB4B0E94F34B0E942C4D5E
:1029B0000E94D14E083011F4089408950130C1F7F7
:1029C00088940895EBE7F0E00E94154F002339F456
:1029D0000091790700230AF432C0889408951B9A65
:1029E000102F13700AE000933F07E2E9FAE20E9419
:1029F000904B00E000933F07012FEEEDFAE20E94BA
:102A00000F4C0E94894B00E000933F07E2EAFAE294
:102A10000E942E4CECE7F0E00E94F14ECA2F0E947B
:102A2000F14E0E94B12A00E600933F0709E30093AC
:102A30004007E6E9FBE90E942E4C089408950AE05D
:102A400000933F07E2E9FAE20E94904B00E0009316
:102A50003F07EAEAFAE20E942E4CEAE7F0E00E9421
:102A6000154F0170E6ECFAE20E940F4C00E0009373
:102A70003F0709E300934007E2EDFBE90E942E4C7B
:102A800000E600933F07ECE9FAE20E942E4C08941E
:102A900008954552524F52204C4F470041424F52E9
:102AA000540054696D653A20000053746174757365
:102AB0003A200000454E41424C45440044495341B0
:102AC000424C45440000BC2AB42A4350504D207368
:102AD000796E6320776173206C6F73742100CA2A4A
:102AE000CA562A574857EAE7F0E00E94154F0023DC
:102AF00082F4EBE7F0E00E94154F002351F40E94AE
:102B0000F74EA091A4070E94F74EA091A5070E943E
:102B1000F74E0895EBE7F0E00E94154F002331F4E3
:102B20000091790700233AF0889408950027EBE795
:102B3000F0E00E941F4F0027009379072B9808941C
:102B4000089500917907002352F4EAE7F0E00E942B
:102B5000154F00950E941F4F002700937907089595
:102B60000FEFEAE7F0E00E941F4FD4DF0895A4E6DC
:102B7000B0E00E949C4E0E94731C0E942C4D0E944B
:102B8000704D0E942C4D0E945C2500E0009345078B
:102B900000E00093460700E00093470700E0009341
:102BA000480703E0009397050FEF0093980500E0B6
:102BB0000093990501E000939C060EE800939D06A2
:102BC00000E000939E0600270093A4070093A5074A
:102BD0000093A6070093970700936E070093790769
:102BE00000937607AFEAA0938007A2E0A093810745
:102BF000A1E0A0938E07A09383070093740700932E
:102C000075070093B0070093B1070093B2070093D4
:102C1000B3070093B4070093B5070093B60700937A
:102C2000B7070093B8070093B9070093BA0700935A
:102C3000BB070093BC070093BD070093BE0700933A
:102C4000BF070093580700935907AAEFA0935A07AC
:102C5000A0935B07A0935C07A0935D07A0935E071A
:102C6000A0935F07A0936007A0936107A3E0A093E0
:102C7000FA07A0EFA0939D070E94C14A0E94562820
:102C80007894E4E7F0E00E94154F002351F00E9491
:102C9000272503B1009502950F7089F00E94312419
:102CA0000EC00FEF009396070E94AF4E083011F44C
:102CB0000E94B36D013019F40FEF009379070E9461
:102CC000192D06E006BB0E94D53E0E9443440E9497
:102CD000292C0E948A1F0E9471210E94DF360E94C7
:102CE000AB350E946C110E94B41C0E947E1E0E9493
:102CF0003B3F0090700710907107012400929307EA
:102D000000919307002332F40E94571F009170072F
:102D1000009371070091780700232AF4002700939D
:102D200078070E944A290091700700230AF4CBCF4C
:102D300003B1009502950F7039F4002700939607B0
:102D400000E000939007BFCF009190070395009398
:102D5000900700919007023309F0B5CF00919607D4
:102D6000002372F300E000936F000E94AF4E0F70DB
:102D700039F3013029F0083061F00E941D189FCF0F
:102D80000E94D31D0E948A1548F40FEF0093960706
:102D900096CF0E94D31D0E94A115F7CF29980E94BB
:102DA00031180E9412410E94AE450E9426410E94A5
:102DB000471885CF2227E3E7F0E00E94154F102F38
:102DC0000E94814D05E0E4E4FFE20E94184C06E613
:102DD00000933F0701E000934007BB27A12FA39575
:102DE000DD270E94474B222319F40E94CA4B02C0E0
:102DF0000E94BD4BE8E3FFE204E0029FE00DF11DFD
:102E00000E940F4B0E942C4D0E94D14E083009F4B5
:102E10000895043021F42A9542F422E0CCCF023008
:102E200029F4239523300CF02227C5CF0130E9F790
:102E3000203091F4A12FA395BB27C1E0D0E0E4E0BE
:102E4000F0E00E94A433A02DAA951A2FE3E7F0E04A
:102E50000E94F74E2227AFCF213029F4C0D00E9424
:102E6000C14A21E0A8CFE2E2FFE20E94D75601303A
:102E700011F022E0A0CF0E94A3250E94C14A0E9427
:102E8000E65A08950E948F4DAA2341F408E2009368
:102E90003F07EEE4FFE20E942E4C07C002E20093DF
:102EA0003F07EEE3FBE90E942E4C01E0009344074C
:102EB000B2E000E000933F0701E1009340070A2FD2
:102EC000BF930F93E2EDFFE20E940F4C00E00093EE
:102ED0003F070E94894B0F910395BF91BA9581F7E7
:102EE0000E94F34B0E942C4D0E94D84E08954465D9
:102EF0006661756C742050726F66696C653A20006B
:102F000046756E6374696F6E733A0000496D706F39
:102F1000727420757365722070726F66696C652EAD
:102F20000000526573657420616374697665207072
:102F3000726F66696C652E0065006D09001B7F2449
:102F400000247F2DEE2EFA84002F0C2F222F444FC9
:102F50004E450000416C6C206461746120636F70A9
:102F60006965642066726F6D000074686520736522
:102F70006C65637465642070726F66696C652E00A1
:102F80005468652073656C65637465642070726F46
:102F900066696C6573006D75737420626520646981
:102FA00066666572656E742E000050726F66696C9D
:102FB000652023312063616E206F6E6C790062653D
:102FC00020656469746564206D616E75616C6C79EF
:102FD0002E00542F6A2F802F962FAA2FBE2F0091DC
:102FE0000308002311F4A4E00FC0A1E0BB27C1E057
:102FF000D0E0E4E0F0E00E94A433A02DAA95009177
:1030000003080A1719F4A2E03DDF0895AF93ECE03E
:10301000FFE20E94D756013011F0AF910895EE27DC
:10302000CF91299AFC2F0E94154FA02F0E94F54E98
:10303000EE23C1F72998AA27E7CF023019F0043010
:1030400009F008950695017009F40FEFA0910308A7
:103050000A0F0370009303080E945C250E94C14A76
:10306000089500910308002309F40895039500933F
:10307000050804E60093040800270093060800E012
:1030800004BD05E005BD01E000936E00089500E079
:1030900000936E002B9808959F93FFB690910408BB
:1030A0009A95C9F4E0900608EE2019F42B9A9FE057
:1030B0000FC02B98909105089A9521F090930508E0
:1030C0009FE006C09091030893959093050898ECB3
:1030D000E094E0920608909304089F91FFBE189533
:1030E0000091ED060093F2060091EE060093F306C0
:1030F0000091EF060093F4060091F0060093F506A8
:103100000091F1060093F60608953090ED06409088
:10311000EE065090EF066090F0067090F106209158
:10312000ED063091EE064091EF065091F006609169
:10313000F1060E94AB4FB0931A07C0931B07D093C0
:103140001C07E0931D07F0931E0730901A0740906C
:103150001B0750901C0760901D0770901E0701E030
:103160000E94445030921A0740921B0750921C074D
:1031700060921D0770921E0701E000931F0700E098
:103180000093200700E00093210700E0009322074E
:1031900000E00093230730901F07409020075090D5
:1031A0002107609022077090230720911A07309121
:1031B0001B0740911C0750911D0760911E07761A4E
:1031C000650A540A430A320A3092F7064092F8061A
:1031D0005092F9066092FA067092FB060895B09339
:1031E000ED06A093EE06D093EF06C093F006F093A1
:1031F000F1063090ED064090EE065090EF0660909C
:10320000F0067090F1062091DE063091DF064091C5
:10321000E0065091E1066091E2060E94AB4FB09348
:10322000ED06C093EE06D093EF06E093F006F09320
:10323000F1060895FF27CD2FDA2FAB2FBB2312F411
:10324000BFEF0895BB2708954BDF5FDF3090100775
:103250004090110750901207609013077090140768
:103260002091F7063091F8064091F9065091FA0640
:103270006091FB060E94AB4FB0932E07C0932F07BF
:10328000D0933007E0933107F09332073090150761
:103290004090160750901707609018077090190714
:1032A0002091F2063091F3064091F4065091F50614
:1032B0006091F6060E94AB4FB0931A07C0931B07AC
:1032C000D0931C07E0931D07F0931E0730902E0744
:1032D00040902F0750903007609031077090320770
:1032E00020911A0730911B0740911C0750911D0730
:1032F00060911E07761A650A540A430A320A309210
:103300002E0740922F07509230076092310770923B
:1033100032073090100740901107509012076090CC
:103320001307709014072091F2063091F306409134
:10333000F4065091F5066091F6060E94AB4FB093EB
:103340003307C0933407D0933507E0933607F093E3
:103350003707309015074090160750901707609078
:103360001807709019072091F7063091F8064091E0
:10337000F9065091FA066091FB060E94AB4FB0939C
:103380001A07C0931B07D0931C07E0931D07F09307
:103390001E073090330740903407509035076090F7
:1033A00036077090370720911A0730911B0740911C
:1033B0001C0750911D0760911E07760E651E541E56
:1033C000431E321E30923307409234075092350725
:1033D00060923607709237070895F894A0918400A0
:1033E000B09185007894E0914A07F0914B07A09343
:1033F0004A07B0934B07AE1BBF0B2AF4E0E0F0E0A6
:10340000EA1BFB0BDF01DD27B695A795D795B6958F
:10341000A795D795B695A795D795B695A795D7951E
:10342000CC27FF27B093E806A093E906D093EA06DD
:10343000C093EB06F093EC063090E8064090E90666
:103440005090EA066090EB067090EC062091E3063F
:103450003091E4064091E5065091E6066091E7065A
:103460000E94AB4FB093DE06C093DF06D093E00618
:10347000E093E106F093E206B0917905A0917A0518
:10348000D0917B05D7DEABDE0091010700931007DA
:1034900000910207009311070091030700931207A0
:1034A0000091040700931307009105070093140788
:1034B0000091060700931507009107070093160770
:1034C0000091080700931707009109070093180758
:1034D00000910A0700931907B7DE00912E070093A9
:1034E000010700912F070093020700913007009316
:1034F00003070091310700930407009132070093FE
:1035000005070091330700930607009134070093E5
:1035100007070091350700930807009136070093CD
:1035200009070091370700930A07B0917605A0912B
:103530007705D09178057EDE52DE0091FC0600937F
:1035400010070091FD06009311070091FE060093FD
:1035500012070091FF0600931307009100070093E4
:1035600014070091060700931507009107070093C1
:1035700016070091080700931707009109070093A9
:10358000180700910A07009319075EDE00912E07C5
:103590000093FC0600912F070093FD060091300771
:1035A0000093FE06009131070093FF060091320759
:1035B000009300070091330700930607009134073A
:1035C000009307070091350700930807009136071D
:1035D000009309070091370700930A07B0916A0525
:1035E000A0916B05D0916C0525DEF9DD0091FC06FC
:1035F000009310070091FD06009311070091FE064D
:10360000009312070091FF06009313070091000733
:10361000009314070091010700931507009102071A
:103620000093160700910307009317070091040702
:1036300000931807009105070093190705DE009114
:103640002E070093FC0600912F070093FD060091C2
:1036500030070093FE06009131070093FF060091AA
:103660003207009300070091330700930107009190
:103670003407009302070091350700930307009178
:103680003607009304070091370700930507089554
:103690003090FC064090FD065090FE066090FF06BC
:1036A000709000072091FC063091FD064091FE06C7
:1036B0005091FF06609100070E94AB4FB0931A072C
:1036C000C0931B07D0931C07E0931D07F0931E07C0
:1036D0003090010740900207509003076090040764
:1036E0007090050720910107309102074091030770
:1036F00050910407609105070E94AB4FB0931F07DC
:10370000C0932007D0932107E0932207F09323076B
:1037100030901A0740901B0750901C0760901D07BF
:1037200070901E0720911F073091200740912107BC
:103730005091220760912307760E651E541E431E8A
:10374000321E30921A0740921B0750921C0760925B
:103750001D0770921E073090060740900707509093
:1037600008076090090770900A07209106073091BA
:103770000707409108075091090760910A070E94C6
:10378000AB4FB0931F07C0932007D0932107E0935E
:103790002207F093230730901A0740901B075090A0
:1037A0001C0760901D0770901E0720911F07309125
:1037B0002007409121075091220760912307760E40
:1037C000651E541E431E321E30920B0740920C079A
:1037D00050920D0760920E0770920F0708950091A6
:1037E000FC06009329070091FD0600932A0700912B
:1037F000FE0600932B070091FF0600932C07009113
:10380000000700932D072ED00091A50600939F0678
:103810000091A6060093A0060091A7060093A106BA
:1038200000910107009329070091020700932A07DE
:103830000091030700932B070091040700932C07C6
:103840000091050700932D070DD00091A506009368
:10385000A2060091A6060093A3060091A706009376
:10386000A40608950AE500931F0700E000932007CF
:1038700000E00093210700E00093220700E000939E
:1038800023073090290740902A0750902B0760901B
:103890002C0770902D0720911F0730912007409131
:1038A000210750912207609123070E94AB4FB093EC
:1038B0001A07C0931B07D0931C07E0931D07F093D2
:1038C0001E07B0911A07A0911B07D0911C07C09149
:1038D0001D07F0911E07AFDCB093A506A093A606C6
:1038E000D093A706089502E301B90AE004B90CEFEA
:1038F00007B902EF0AB90FEF00937E0005EF05B993
:1039000003E008B90DE00BB900E00093800002E08D
:103910000093810000E00093820005E100936900BC
:1039200003E00DBB0AE00093680001E00093730020
:1039300005E000936C000091B9000C7F0093B90082
:1039400001E10093B8005D9A5C9A5E982B9A299ADF
:10395000A4EFB1E00E949C4E2B9829985E9AA4E6B1
:10396000B0E00E949C4E089500E000934005009353
:1039700041050093420530918106409182065091A5
:10398000830660914005709141058091420558176A
:103990004707360759F03091810640918206415021
:1039A0003040309381064093820603C00027009385
:1039B0009C070091A10700236AF4009180070A95F3
:1039C00000938007002331F400270093A107AFEA9A
:1039D000A093800700907007109073070120009259
:1039E000930700919307002322F500917E0700239F
:1039F00002F130917E0640917F0641503040309375
:103A00007E0640937F06ACF403E000937E0600E25E
:103A100000937F0600E0009380060FEF00939C0761
:103A200000E00093810604E10093820600E0009329
:103A3000830600907007109071070124009293078D
:103A40000091930700233AF400E00093930600935B
:103A500094060093950600E00093400500E0009373
:103A6000410501E000934205309193064091940690
:103A700050919506609140057091410580914205F5
:103A8000580F471F361F3093930640939406509368
:103A900095060DE70093400500E00093410500E026
:103AA00000934205309193064091940650919506FB
:103AB0006091400570914105809142055817470774
:103AC000360764F00091400500939306009141058C
:103AD00000939406009142050093950600917E079D
:103AE000002322F000917D07002372F400917F07EC
:103AF000002319F10A9500937F0700E000939606D2
:103B000000939706009398060AE0009340050CEF97
:103B10000093410500E800934205309193064091DF
:103B200094065091950660914005709141058091F1
:103B3000420558174707360704F130919606409121
:103B40009706415030403093960640939706ACF468
:103B500007E00093960600ED0093970600E00093BF
:103B600098060FEF00939C0701E00093810600E99F
:103B70000093820600E00093830600909C0710905B
:103B80009B07012800929307009093071090A107CC
:103B900001280092930700919307002312F02998BF
:103BA0000895299A08950F93EF93FF93EEEAF0E0BA
:103BB0000E94134FFF91EF91002312F00F9108958F
:103BC000CF93299AC2E30E94A14E2998CF910F91D9
:103BD0000895402F2A2F3B2F0E94704D01E0009343
:103BE000430704E000934407203049F00AE30093C0
:103BF0003F0700E00093400700E00E94354C022F91
:103C00000B5F041749F00AE300933F0702E30093B8
:103C1000400701E00E94354C01E00093440708E0B2
:103C20000093400715E0FE0104E1029FE00DF11D45
:103C300000E000933F07A4E105910E94354CAA954E
:103C4000D9F70090400708E0000E009240071A954F
:103C500079F708E0039F002D095F00934007075F95
:103C60000093420700E000933F070FE700934107EE
:103C700000E0009343070E94FD4A0E94B34B0E945C
:103C80002C4DAEE10E94AF4E003021F00970D1F70B
:103C9000AA95C1F70E94D24E083019F4AA27889439
:103CA00029C0043061F4303019F03A950C947D1E2F
:103CB000203019F02A950C947D1E0C947D1E023044
:103CC00071F4343019F033950C947D1E042F055097
:103CD000201719F023950C947D1E0C947D1E013045
:103CE00061F40E94704D0E942C4D0E94CD4EA22F77
:103CF000A30F0894C22FD32F08956ECF30918E0555
:103D000040918F05509190056091970570919805AD
:103D10008091990558174707360764F400918E057E
:103D20000093970500918F050093980500919005E9
:103D30000093990530918E0540918F055091900523
:103D4000609194057091950580919605581B470BDD
:103D5000360B3093AF054093B0055093B105609199
:103D6000AF057091B0058091B10508E00E942B4F1E
:103D70006093AF057093B0058093B10530919405C1
:103D800040919505509196056091AF057091B005F1
:103D90008091B105580F471F361F3093940540930B
:103DA00095055093960530916306409164065091B5
:103DB0006506609194057091950580919605581B54
:103DC000470B360B3093AF054093B0055093B105C8
:103DD0000AF461C06091AF057091B0058091B105A2
:103DE00002E00E942B4F6093AF057093B005809363
:103DF000B10500E00093400500E10093410500E0BB
:103E0000009342053091AF054091B0055091B10546
:103E10006091400570914105809142055817470710
:103E2000360764F0009140050093AF05009141050D
:103E30000093B005009142050093B10530917506DD
:103E400040917606509177066091AF057091B0056C
:103E50008091B105580F471F361F30937506409368
:103E6000760650937706B0917506A0917606D091AC
:103E70007706AA2382F000919A07002379F00A9529
:103E800000939A070FEF00939B0700914D070030B6
:103E900009F02A9A089504E600939A0700270093F0
:103EA0009B0700914D07003009F02A98089500E023
:103EB0000093460501E00093470508E30093480599
:103EC0001091630620916406309165064091460585
:103ED00050914705609148050E943A4F7093400504
:103EE0008093410520924205309140054091410563
:103EF0005091420560918E0570918F0580919005DB
:103F00005817470736072CF400919D070860009367
:103F10009D070895009170070023CAF0309199061B
:103F200040919A06415030403093990640939A064A
:103F30000CF054C00FEF0093780701E0009399064E
:103F400000E900939A0600E000939B0647C00091A9
:103F5000730700230AF130919C0640919D06415061
:103F6000304030939C0640939D06B1F401E00093ED
:103F70009C060EE800939D0600E000939E06A0912B
:103F8000A407A395AC3331F4B091A507B395B093D2
:103F9000A507AA27A093A40700919D070023F1F08D
:103FA00000917607002311F0AAF00EC008E22B9AC8
:103FB000E0917707EA95E093770771F4E0919D0728
:103FC000E77FE0939D0708C00A9509F005C004EC5F
:103FD0002B9802C0039551F3009376070091810757
:103FE000A09182070A1709F443C000938207A9E849
:103FF000B7E0A00F08F4B395EC91E370E0938F075E
:10400000A4E8B7E0A00F08F4B395002700937B075E
:1040100000937C0700937D070C91A0918307E295A4
:10402000E02BE0938307EA1719F0AFEFA093A10705
:104030000023F1F0033039F40FEF00937D070FEF09
:1040400000937F0712C0023081F40FEF00937B07CB
:1040500000915A060093570600915B06009358069C
:1040600000915C060093590603C0AFEFA0937C0754
:1040700000919B07002322F000917007002312F0AB
:104080002B98089500919D07002309F42B9A089519
:1040900002E00093670711272227DED01F932F939A
:1040A0000E9434442F911F910091FA07033041F090
:1040B000C9E10E94A14E0091DB0700230AF452C01F
:1040C0000E94814D00270F93A09181070A1711F4D8
:1040D00000E401C000E20E94354C0F910F93A1E370
:1040E0000A0F0E94354C00E000933F070E94894B65
:1040F0000F910395053039F701E0009340070091D7
:10410000840790D0009185078DD0009186078AD0D2
:104110000091870787D00091880784D001E0009341
:104120004007009189078CD000918A0789D00091BF
:104130008B0786D000918C0783D000918D0780D0AB
:104140000E94CA4BEEEAF2E404E0019FE00DF11D8B
:104150000E940F4B0E942C4D00914D07023014F429
:104160000E94F4420E94AF4E083091F5022F017078
:10417000B1F0A0918407E5ECF0E00E94F54EA0912B
:1041800085070E94F54EA09186070E94F54EA091EA
:1041900087070E94F54EA09188070E94F54E227075
:1041A000B1F0A0918907E0ECF0E00E94F54EA091FB
:1041B0008A070E94F54EA0918B070E94F54EA091B0
:1041C0008C070E94F54EA0918D070E94F54E089530
:1041D000043041F41A950AF419E00E94D31D0E949C
:1041E000CD4E5CCF023029F413951A30B1F7112768
:1041F000F4CF0130B1F4C12FC695D12FD17021F089
:10420000A9E8B7E0226003C0A4E8B7E02160AC0FE2
:1042100008F4B3950C91039504300CF000270C932F
:10422000DCCF3CCF0F930CE000933F070E94A74BDD
:104230000F91E8E1FDE90E940F4C0E94894B08951F
:104240000F930BE500933F070F91E0E2FDE90E9419
:104250000F4C0E94894B0895E0ECF0E00E94EF4E75
:10426000A09389070E94EF4EA0938A070E94EF4E09
:10427000A0938B070E94EF4EA0938C070E94EF4EF5
:10428000A0938D070E94EF4EA09384070E94EF4EEB
:10429000A09385070E94EF4EA09386070E94EF4EE1
:1042A000A09387070E94EF4EA093880708951700F8
:1042B0004F095A007F0917094F125A097F12171226
:1042C0004F1B5A127F1B171B4F245A1B7F24172486
:1042D0004F2D5A247F2D4175783200004175783377
:1042E0000000AA27BB27DD27C0918F07C69508F4D9
:1042F0005496C69508F45E96B0934005A093410588
:10430000D09342050E94292F30910006409101066A
:1043100050910206609140057091410580914205DF
:10432000580F471F361F3093F1054093F205509305
:10433000F305309103064091040650910506609103
:1043400040057091410580914205580F471F361F67
:104350003093F4054093F5055093F60508950091C8
:104360000308002329F0E0EFFAE60E947A35089569
:10437000C4E4D4E4A0914807B091470704E10E9447
:10438000E91DC0934807D093470708F00895E0E37C
:10439000F4E40E94D756013009F0EACF0E9426418A
:1043A000299AE2E8F6E408E10A9FE00DF11DDF0139
:1043B0007096CBEFD7E018E0059109931A95E1F7D5
:1043C000FD01C4E0D0E03327A591B591EF93FF93B1
:1043D000FD0116E0ABEFB7E0A30F0027B01F4C9133
:1043E000BF91AF912591042F007809F02195042FFA
:1043F000087009F02FEF022FEF93FF93FE010E9448
:104400001F4F2196FF91EF91440F1A9559F722966D
:10441000FD0133953830C4F20FEFA02FEFEBF0E041
:104420000E94F74E29980E9412410E94075AA0CF7D
:104430004C6F6164206D6F746F72206C61796F7561
:10444000742E000053696E676C65436F70746572FB
:1044500020314D203453202053696E676C65436FC3
:104460007074657220324D20325320204475616C87
:10447000436F70746572204949202020202020203D
:10448000547269436F70746572204949202020205E
:104490002020202051756164726F436F70746572C3
:1044A0002078206D6F64652051756164726F436F71
:1044B00070746572202B206D6F646520562D5461D9
:1044C000696C202020202020202020202020202057
:1044D000562D5461696C2048756E746572202020D9
:1044E000202020205934202020202020202020207F
:1044F000202020202020202048657861436F7074A0
:10450000657220202078206D6F6465204865786191
:10451000436F707465722020202B206D6F646520BE
:10452000483620202020202020202020202020204D
:10453000202020205636202020202020202020202F
:10454000202020202020202059362020202020201C
:104550002020202020202020202020204F63746F46
:10456000436F7074657220202078206D6F64652021
:104570004F63746F436F707465722020202B206D21
:104580006F64652048382020202020202020202013
:1045900020202020202020205638202020202020CD
:1045A00020202020202020202020202058382020BB
:1045B00020202020202020202078206D6F6465207E
:1045C000583820202020202020202020202B206D43
:1045D0006F646520000000000000000000643200ED
:1045E00000006400320000006464000000006464A5
:1045F0003200006400003200006400643200640095
:104600000000000364000064000364006400000311
:1046100064006464000364265C640003642A4764E5
:104620000003643257640003643D18640003644768
:1046300000640003644718640003644747000003F4
:1046400064474764000364511864000364573200F0
:104650000003645732640003645C266400036464EE
:1046600000000003646400640003646447640003A2
:1046700078005A6400036464642800035F00646483
:104680000003FE45F845EC45F845EC45D445D445D6
:10469000D445000000402000000004460446F245D6
:1046A000E045D445D445D445D44500100000000071
:1046B00000005E465E46E645E645D445D445E645FF
:1046C000E64501400020000000204C464C460A46CA
:1046D000DA45D445D445DA45D445400120000000F0
:1046E00010004046404640464046D445D445D44557
:1046F000D44540102070000000001046644610466B
:104700006446D445D445D445D4450010205000001B
:1047100000003A463A4670467046D445D445D445E2
:10472000D4454001203000000000764676467C46A5
:104730007C46D445D445D445D445500020300000B3
:1047400000004046404610461046D445D445D44566
:10475000D445401020300000000022466446224626
:10476000224664462246D445D4450010207040506D
:104770000000104652465246104652465246D44514
:10478000D445001020306050000040462E46404680
:1047900040462E464046D445D44500102070405037
:1047A00000006A462E461C461C462E466A46D445E4
:1047B000D4450010207040500000524652465246E8
:1047C000524610461046D445D44540500010203083
:1047D000000016465846584616461646584658464D
:1047E0001646001020306070405010464046644627
:1047F0004046104640466446404600100030207057
:10480000405040463446344640464046344634469E
:10481000404600102030607040506A4646462846A8
:104820001C461C46284646466A46001020306070EA
:10483000405040464046404640464046404640463E
:1048400040464050001020306070104610466446CC
:10485000644610461046644664460010001020303E
:1048600040500FEF0093960700270093A0070E9487
:10487000814D03E100933F07EAE5FAE40E942E4CE4
:1048800000E000933F0704E1009340070091960782
:10489000002392F002E0E4EBFAE40E94184C00E0FE
:1048A00000933F0709E300934007EAE6FAE40E9419
:1048B0002E4C0E942C4D2EC002E0E0EBFAE40E9448
:1048C000184C0E942C4D00E00093680700E0009314
:1048D000690701E000936B0708E000936A070FEF98
:1048E0000093700700E000937B0601E000937C06D4
:1048F00000E000937D062B9A06E006BB03E10093DF
:10490000400508E80093410500E0009342050027B8
:10491000009373070E94D53E39D00E943B3F03B1FC
:10492000009502950F70A0919607AA2361F00023CD
:10493000E1F003E10093400508E80093410500E041
:1049400000934205E7CFA8E0B0919107BB2309F09F
:10495000A1E00A17B9F000E00093400504E60093D7
:10496000410500E000934205D5CF00E000934005EB
:1049700004E60093410500E0009342050027009300
:10498000960775CF2B980E94D31D0895009140057E
:1049900000930F0600914105009310060091420517
:1049A0000093110600914005009312060091410505
:1049B00000931306009142050093140600914005F0
:1049C00000931506009141050093160600914205DB
:1049D00000931706009140050093180600914105C9
:1049E000009319060091420500931A0600914005B4
:1049F00000931B060091410500931C06009142059F
:104A000000931D060091400500931E06009141058C
:104A100000931F0600914205009320060091400577
:104A20000093210600914105009322060091420562
:104A30000093230600914005009324060091410550
:104A40000093250600914205009326060895AA27A3
:104A5000E4E7F0E00E94F74E0895455343204341B8
:104A60004C4942524154494F4E0045584954000068
:104A700052656C6561736520627574746F6E206138
:104A800074207468650045534320636F6E666972D5
:104A90006D6174696F6E206265657000576169743D
:104AA00020666F72207468652066696E616C000014
:104AB000704A864A9C4A864AE0E0F0E030D0A093F3
:104AC0004C07AA23A9F00027009303083CD0002735
:104AD000E2E7F0E00E941F4F0E9427250E94DC01C0
:104AE0000E94B0150E94C14A29D10E94E65A10C006
:104AF000E2E7F0E00E94154F00230AF01FD1F09189
:104B00000308FF2329F0EE270AD0AA2309F01BD0BF
:104B1000E8E7F0E00E94154F0093910708950E9486
:104B2000F14EA13271F40E94F14EA53051F40E9471
:104B3000F14EAA3A31F40E94F14EA43011F4AA27A2
:104B40000895AFEF0895E4E0F0E0A0E0B0E010E4F5
:104B50000E94F54E1A95E1F7EDE5F0E012E10E94B2
:104B6000F54E1A95E1F7A4E4B0E0C4E9DDE418E1FC
:104B7000FE010491FD010E941D4F119621961A9588
:104B8000B9F7AEE7B0E0CCEADDE41AE0FE0104914B
:104B9000FD010E941D4F119621961A95B9F7ACE3BD
:104BA000B0E0E8E8F0E00E94E64EA4E1B0E00E9448
:104BB000E64EA0E0B0E00E94E64E0E94E64EAAE07B
:104BC000B0E00E94E64E0E94E64EA0E0B0E00E94F7
:104BD000E64E0E94E64EA2E3B0E00E94E64EA0E060
:104BE000B0E00E94E64EA1E00E94F54EA2E00E94D5
:104BF000F54EA3E00E94F54EA4E00E94F54EA5E01C
:104C00000E94F54EA6E00E94F54EA7E00E94F54EE8
:104C1000A8E00E94F54EA2E00E94F54EA3E00E949B
:104C2000F54EA1E00E94F54EA4E00E94F54EA5E0ED
:104C30000E94F54EA6E00E94F54EA7E00E94F54EB8
:104C4000A8E00E94F54EAFEF0E94F54E0E94F54E8F
:104C50000E94F54E0E94F54E0E94F54EA0E0B0E095
:104C60000E94E64E0E94E64E0E94E64E0E94E64EEC
:104C70000E94F54E0E94E64E0E94E64EAA270E9430
:104C8000F54E0E94F54EAA270E94F54E0E94F54E61
:104C90000E94F54E0E94F54E0E94F54E0E94F54E80
:104CA000A3E00E94F54EA1E00E94F54EA3E00E9411
:104CB000F54EA2E00E94F54EAA270E94F54EA8E00C
:104CC0000E94F54E0E94F54EAA270E94F54E0E94C2
:104CD000F54EE0E0F0E0A1E20E94F54EA5E00E9472
:104CE000F54EAAEA0E94F54EA4E00E94F54E00910E
:104CF00003080023D1F4E3E7F0E00E941F4F0027F0
:104D0000E9E7F0E00E941F4F0E94B36D0E94232745
:104D10000E94292700914C07002321F40FD00E9404
:104D2000E65A85C0002700934C0715E00E94D31D6A
:104D3000C0E00E94A14E1A95C9F708950E948F4DB8
:104D400000E100933F07E6EBFDE40E94904B04E096
:104D5000E0E1FEE40E94184C0E94F34B0E942C4DAF
:104D60000027009391070E94D14E013011F40027D3
:104D700003C00830C1F70FEF00939107E8E7F0E0B8
:104D80000E941F4F0FEFE2E7F0E00E941F4F0E94CA
:104D9000CD4E089532006400190014003200640002
:104DA000190014003200140032000A001E001E0018
:104DB00032005A00640052454D494E4445520000AD
:104DC000594F552055534520544849532046495280
:104DD0004D5741524500415420594F5552204F578D
:104DE0004E205249534B21005265616420616C6C26
:104DF00020696E636C7564656400646F63756D65CE
:104E00006E7473206361726566756C6C792E000038
:104E1000C04DD64DE84DFA4D5265737461727420E1
:104E200069732072657175697265642100000E9462
:104E3000814D0CE100934007E8E1FEE40E942E4C16
:104E40000E942C4DFFCF0027E7E7F0E00E941F4FA4
:104E5000089500E000934D07E1E7F0E00E941F4F46
:104E600008950E948F4D0EE200933F07EEEBF1E5AF
:104E70000E94904B04E0E8E1F2E50E94184C0E9489
:104E8000014C0E942C4D0E94D84EECD10E94814DC5
:104E900009E100933F0709E100934007E0E2F2E5F2
:104EA0000E942E4C0E942C4DC0E00E94A14EE0E1D9
:104EB00000E0009385050093860500938705009325
:104EC00088050093890500938A0500938B0500935C
:104ED0008C0500938D050E947D473091850540919A
:104EE00086055091870560917C0570917D058091C4
:104EF0007E05580F471F361F309385054093860562
:104F000050938705309188054091890550918A0515
:104F100060917F057091800580918105580F471F32
:104F2000361F309388054093890550938A05309148
:104F30008B0540918C0550918D0560918205709193
:104F4000830580918405580F471F361F30938B05CA
:104F500040938C0550938D05C4E60E94A14EEA95BE
:104F600009F0B9CF6091850570918605809187051C
:104F700004E00E942B4F6093850570938605809313
:104F80008705609188057091890580918A0504E004
:104F90000E942B4F609388057093890580938A0542
:104FA00060918B0570918C0580918D0504E00E94C5
:104FB0002B4F60938B0570938C0580938D05D8E201
:104FC000C0E00E94A14EDA95D9F70FEF0093920747
:104FD0000E94814D0AE00093400703E0EEE5F2E510
:104FE0000E94184CE8940AE000934007B0918505B0
:104FF000A0918605D09187050E942447B09188052D
:10500000A0918905D0918A050E942447B0918B0513
:10501000A0918C05D0918D050E9424470E94014CDF
:105020000E942C4D0091920700230AF5EDE5F0E077
:10503000B0918505A0918605D09187050E94074F04
:10504000B0918805A0918905D0918A050E94074FEB
:10505000B0918B05A0918C05D0918D050E94074FD2
:10506000EEEBF0E00FEF002F0E941D4F0AC0EEEBB9
:10507000F0E000270E941D4F00919D070160009302
:105080009D070E94D84E0E94814D09E10093400780
:10509000009192070170EAE5F2E50E940F4C0E9430
:1050A000014C0E942C4D0E94D84E0895E0E100E092
:1050B00000936D0500936E0500936F0500937005D6
:1050C00000937105009372050093730500937405B6
:1050D000009375050E947D4730916D0540916E05E6
:1050E00050916F056091640570916505809166052A
:1050F000580F471F361F30936D0540936E05509330
:105100006F05309170054091710550917205609165
:1051100067057091680580916905580F471F361F14
:10512000309370054093710550937205309173056B
:10513000409174055091750560916A0570916B05F9
:1051400080916C05580F471F361F309373054093AD
:10515000740550937505C4E60E94A14EEA9509F0C6
:10516000B9CF60916D0570916E0580916F0504E077
:105170000E942B4F60936D0570936E0580936F05B1
:1051800060917005709171058091720504E00E9434
:105190002B4F609370057093710580937205609139
:1051A0007305709174058091750504E00E942B4F82
:1051B000609373057093740580937505089541435A
:1051C0004300506C61636520746865206169726397
:1051D00072616674206F6E0061206C6576656C206C
:1051E00073757266616365206E6F772E0000436190
:1051F0006C6962726174696F6E20626567696E7353
:10520000000061667465722074686520636F756E56
:1052100074646F776E2E0000C251D851EE51025265
:1052200043616C6962726174696E672E2E2E000094
:1052300043616C6962726174696F6E206661696C4A
:1052400065642E0043616C6962726174696F6E20DF
:105250007375636365656465640030524452BE8E45
:10526000C68ECE8EA5E30E948F4D0AE300933F07C2
:1052700006E1009340070A2F0E94354C0E942C4DF6
:10528000D4E6C4E60E94A14EDA95D9F7AA95AF32CA
:1052900051F708950FEF0093A0070E948F4D0E94D1
:1052A000E21408F4E3C0009170070023A2F402E2C4
:1052B00000933F0706E100934007E2EDF5E50E9409
:1052C000904BECE0F6E50E940F4B0DE20093400797
:1052D0000E949F4BCBC006E200933F07ECECF5E544
:1052E0000E942E4C06E600933F0700E50E94354CD5
:1052F00001E3A09103080A0F0E94354C01E00093DE
:10530000440700E000933F0700917A070023DAF496
:1053100001E10093400702E0EEEFF5E50E94184C32
:1053200001E000933F0700E00093400704E0009392
:10533000440704E00E94354C01E0009344070CE26E
:105340000093400775C001E000934007A091A507B6
:10535000C091A40706D100E000933F0701E100934C
:105360004007EAEDFBE9FAD10E942E4CD6F00091FD
:10537000A607002309F1E2E0F6E50E942E4C009119
:10538000A607013049F4A0916C07AA2329F0E0E4B4
:10539000FCE90E942E4C10C0E8EFFCE90E940F4C83
:1053A0000BC000919E07039500939E07017021F0AA
:1053B000E0E1F6E50E940F4B00E000933F070BE1B0
:1053C00000934007E4E1F6E5E0D004E500933F07F1
:1053D00000918F07002321F0E0E2FDE90E940F4CCD
:1053E00000E000933F070E94894BECE1F6E50E9444
:1053F0002E4C00918E050093460500918F05009379
:105400004705009190050093480536D004E50093C8
:105410003F0700919705009346050091980500937A
:105420004705009199050093480526D00E94894BB5
:1054300000E000933F07E4E2F6E50E942E4C009165
:1054400063060093460500916406009347050091AA
:1054500065060093480510D004E200933F0709E376
:1054600000934007ECEBF5E50E942E4C0E942C4D7A
:1054700000270093A0070895309146054091470505
:105480005091480560919105709192058091930526
:1054900058174707360739F400E000934605009394
:1054A00047050093480500E00093400502E00093A3
:1054B000410500E8009342051091460520914705FB
:1054C0003091480540914005509141056091420559
:1054D0000E943A4F70934005809341052092420507
:1054E0000E94392FB0914005A0914105D09142050D
:1054F0000E94474B04D006E50E94354C08950EE209
:105500000E94354CAD2FBB27DD27B0934305A093F8
:105510004405D093450500E00093460500E0009364
:1055200047050AE000934805109143052091440582
:1055300030914505409146055091470560914805D9
:105540000E943A4F7093430580934405209245058D
:10555000B0914305A0914405D09145050E94474B69
:105560000895AA301CF400E30E94354CBB270E942A
:10557000474B0AE30E94354CAC2FAA301CF400E3E1
:105580000E94354C0E94474B08950E942E4C00917A
:105590007B0700232AF4E4E3FCE90E942E4C0895E3
:1055A00000917C0700232AF4EAE1FCE90E942E4CDA
:1055B0000895E4E0FCE90E942E4C08953C50524FBF
:1055C00046494C453E20204D454E550053414645E9
:1055D000000041524D4544005374616E642D616C6E
:1055E0006F6E652047696D62616C0000436F6E7479
:1055F000726F6C6C6572206D6F64652E0000D855FB
:10560000EC552E2054756E696E67200000137F28BC
:1056100000107F194D6F64653A2000004261747478
:105620003A2000004C5641203A20000041434320DC
:105630006E6F742063616C696272617465642E00C0
:105640004E6F2061696C65726F6E20696E70757443
:105650002E004E6F20656C657661746F7220696EE6
:105660007075742E00004E6F207468726F74746CC5
:105670006520696E7075742E00004E6F207275641F
:1056800064657220696E7075742E000053616E69D6
:10569000747920636865636B206661696C65642E4C
:1056A00000004E6F206D6F746F72206C61796F75A2
:1056B00074210000436865636B207468726F7474B2
:1056C0006C65206C6576656C2E0052582073696796
:1056D0006E616C20776173206C6F73742100436876
:1056E00065636B2061696C65726F6E206C657665B1
:1056F0006C2E0000436865636B20656C6576617491
:105700006F72206C6576656C2E004E6F2043505092
:105710004D20696E7075742100004E6F20532E422B
:10572000757320696E70757421004641494C534170
:10573000464521004E6F20536174656C6C69746539
:1057400020696E70757421005361742070726F74DB
:105750006F636F6C206572726F72210068940091A4
:105760009D07077FB9F40091730700231AF0E4EB5B
:10577000F6E508950091740700231AF0EEEDF6E5C2
:1057800008950091750700231AF0E4EFF6E50895F7
:10579000E894089500919D070370033019F4EAEC32
:1057A000F6E5089500919D07047019F0E2EAF6E528
:1057B000089500919D07017019F0ECE2F6E5089557
:1057C00000919D07027019F0ECE8F6E5089500914C
:1057D0004D07003011F40ED00895013019F40E94E5
:1057E000122C0895023019F40E94152C08950E947D
:1057F0001F2C089500919D07007119F0E0E4F6E573
:10580000089500919D07007219F0E2E5F6E508950C
:1058100000919D07007419F0E6E6F6E50895EAE7C1
:10582000F6E50895EAE0F7E5089500919D07007117
:1058300019F0EAE1F7E50895EAE2F7E50895009145
:105840009D07007219F0E8E4F7E50895E4E3F7E551
:1058500008950090730710909F070120009293070E
:105860000090930710907007012000929307009119
:105870009307002342F000E0009390060093910606
:105880000093920639C0309190064091910601E054
:10589000400F0027301F30939006409391060FE190
:1058A0000093400500E40093410500E000934205A9
:1058B000309190064091910650919206609140057A
:1058C0007091410580914205581747073607A1F4AA
:1058D00000E0009390060093910600939206002743
:1058E000009370070FEF009378070FEF00937E0788
:1058F00001E000937F07089500917307002392F55C
:105900000EEF009340050CE00093410500E000938A
:1059100042053091550540915605509157056091CB
:105920004005709141058091420558174707360799
:10593000ECF001E00093400504EF0093410500E026
:1059400000934205309155054091560550915705F9
:1059500060914005709141058091420558174707B5
:10596000360724F400E0009372070895009172074F
:10597000039500937207009172070F3F09F058C01A
:10598000B0915505A0915605D0915705BB232AF536
:1059900000919D07077F09F0089500917407002387
:1059A000DAF7009175070023BAF70FEF009370073D
:1059B00001E0009381060CE20093820600E0009370
:1059C00083060E9456280E94032F0AE0009377075F
:1059D0000091A9070093AA070CC000270093700745
:1059E00000E00093810606E90093820600E0009340
:1059F0008306002700937E07EFEAF0E00E94EF4E57
:105A0000AA231AF40FEF00939C070FEF0093780777
:105A100003E000937E0600E200937F0600E000931F
:105A2000800600E000939006009391060093920692
:105A300008959CD3A7D3BED509E00093400504EC9C
:105A40000093410500E00093420500E000939507B4
:105A5000EF93FF93309140054091410550914205ED
:105A6000E7E2F6E06091950703E0609FE00DF11D2D
:105A7000319341935193FF91EF91009195070395D5
:105A80000093950700919507083011F7E9E7F0E0DA
:105A90000E94154F009349075BD45BD57BD524D278
:105AA00060914005709141058091420502E00E949D
:105AB000344F6093400570934105809342050091F7
:105AC0004005009363060091410500936406009130
:105AD00042050093650608D200E00093460504E6FF
