:020000020000FC
:100000000C943F000C9407570C94E7560C943E0058
:100010000C943E000C9450570C943E000C942757BF
:100020000C943E000C943E000C943E000C94AF5493
:100030000C943E000C9473520C94A6520C943E0007
:100040000C943E000C943E000C940E270C943E0041
:100050000C943D050C943E000C943E000C943E0024
:100060000C943E000C943E000C943E000C943E0018
:100070000C943E000C943E000C943E0018950FEF3B
:100080000DBF00E10EBFE3E7F0E00E94E6630370FE
:1000900000930508E1E7F0E00E94E66300934A0759
:1000A000003011F40C94971B013011F40C942B07C1
:1000B000023011F40C94900A0C94E50E009105089E
:1000C000002329F0E0E1F4E90E940A4A0895109122
:1000D0004A0722270E94456106E100933C07E8E7B2
:1000E000F1E00E94CA5F00E000933C070AE1009340
:1000F0003D0701E000934107E0E8F1E00E94CA5F9C
:10010000012FEAEDF1E00E94AB5F222371F0022F94
:10011000017069F003E000933C070CE200933D0797
:10012000E8E8F1E00E94CA5F02C00E94595F0E94A5
:10013000F460222341F0A8E5B2E00E946D632395AC
:1001400009F422E0C7CF0E94A263083009F40895A1
:10015000043021F41A957AF414E0BCCF023029F46B
:100160001395153044F01127B5CF21E0A12FE1E719
:10017000F0E00E94C863AECF5258204D4F44450076
:100180004D6F64653A20000052657374617274208B
:10019000697320726571756972656421000053741A
:1001A000616E64617264205258004350504D2F506C
:1001B000504D0000532E42757300536174656C6C92
:1001C0006974652044534D320000536174656C6C52
:1001D0006974652044534D5800009E01AA01B40182
:1001E000BA01CA0100E000934A07E1E7F0E00E948B
:1001F000F063089511271F930E944D5A1F9100919B
:100200008E050093460500918F05009347050091E8
:100210009005009348050E94456102E200933C0767
:1002200001E00093400500E90093410500E00093E0
:10023000420530914605409147055091480560912F
:1002400040057091410580914205581747073607D0
:1002500034F400903C0706E0000E00923C071F9328
:100260000E94353E1F9101E00093410701E1009398
:100270003D0704E0E8E4F4E00E94B45F0E94595FA7
:10028000E8E3F4E004E0019FE00DF11D0E94AA5EA6
:100290000E94F4600E9469560E948063002309F462
:1002A000AACF0E94C92C083009F40895043029F41B
:1002B0001A9513700E949E639ECF023011F413951D
:1002C000F8CF0130B1F7103019F4AAE010D193CF74
:1002D000113019F4A2E00BD18ECF123089F0E5D0A5
:1002E000C1E0DCEFEFEFF3E00E943948A02DB12D23
:1002F000DD27B0939105A0939205D09393056FC02D
:1003000000918E050093400500918F0500934105F3
:100310000091900500934205609140057091410560
:100320008091420502E00E94FC6360934005709357
:10033000410580934205B0914005A0914105D091BF
:100340004205C4E1D0E0E4E0F1E00E943948A02D8C
:10035000B12DDD27B0934005A0934105D093420510
:1003600060914005709141058091420502E00E9434
:100370000564609340057093410580934205309178
:100380004005409141055091420560918E05709164
:100390008F0580919005581B470B360B3093400515
:1003A000409341055093420530919105409192054B
:1003B00050919305609140057091410580914205EF
:1003C000580F471F361F3093910540939205509365
:1003D0009305B0919105A0919205D0919305E5E721
:1003E000F0E00E94B76365CF557365204B4B322E0A
:1003F00031204F66667365740000557365204B4B62
:10040000322E312E35204F666673657400004D6FB5
:100410006469667920566F6C746167652028312F96
:100420003130290041646A757374204F66667365C4
:10043000742056616C75650000107F1900197F22C9
:1004400000227F2B002B7F34E803FA030E042404E0
:10045000546865206261747465727920766F6C747B
:10046000616765006F6666736574206861732062FA
:1004700065656E20736574006163636F7264696E95
:100480006720746F2073656C6563746564004B4B03
:100490003220626F6172642076657273696F6E2EAE
:1004A00000005004640478048E04E5E7F0E00E9444
:1004B000AE63DD27B0939105A0939205D093930589
:1004C000F0919405E0919505AE17BF0779F003E030
:1004D00000939A050FEF00939B0500E000939C05A5
:1004E000B0939405A0939505D09396050895BB27E6
:1004F000DD27B0939105A0939205D0939305E5E78E
:10050000F0E00E94B7630E94456102E200933C075D
:10051000EAE4F3EC0E942B5F04E0E2EAF4E00E94DC
:10052000B45F0E948F5F0E94F4600E94A9630895E7
:1005300000917907002312F0889408950AE000934F
:100540003C07EAECF5E00E942B5F00E000933C07DB
:10055000E4EDF5E00E94CA5F00919A05009346051C
:1005600000919B050093470500919C050093480569
:100570000E94353E0E94245F00E000933C07EEE5B8
:10058000F6E30E94CA5FA0917B07C0917A070E94A0
:10059000AA3E00E000933C0703E200933D07E2E23D
:1005A000FEE70E94CA5F009166060093460500912F
:1005B00067060093470500916806009348050E946E
:1005C000353E0E94775F08940895424154542E208E
:1005D0004C4F47004C6F67203A200000112722271C
:1005E000C4D01F932F933F930E949D573F912F910B
:1005F0001F910091FC07033041F0C9E10E94726332
:100600000091DD0700230AF43DC00E94376107D244
:100610000695C4E0C01BD4E000E000933C0700E274
:10062000DC1709F400E40E94D05F0D2FE6EFF8E03C
:100630000E94AB5F0E94245FDA9572F701E000939D
:100640003D07A3E1B8E05DD05CD05BD05AD059D073
:1006500000E000933C0709E300933D07E0EEF8E07B
:100660000E94CA5FEAEEF6E004E0019FE00DF11D92
:100670000E94AA5E0E94F46000914A07023014F4BE
:100680000E9469560E948063083031F4222309F0E9
:1006900064D00E94C92C0895043041F4222309F04B
:1006A0005CD013951530E4F011271AC0023061F4C4
:1006B000A3E1B8E00027A10FB01F0E94D004D3959A
:1006C000D03174F440D00CC0013071F4A3E1B8E033
:1006D0000027A10FB01F0E94D004DA9509F033D093
:1006E0000E94C92C0E949E637CCF3B0061093B099C
:1006F00061123B12611B3B1B61243B24612D535350
:100700003D0000E300933C070E94435FEEEFF6E0FC
:100710000E94CA5F0E94D004119626F40FE30E9443
:10072000D05F0EC000E3DA3014F0DA5003950E9477
:10073000D05F0EE20E94D05F00E30D0F0E94D05FF9
:100740000E94245F0895E8E2F9E00027ED0FF00F22
:1007500004910C93302F2FEF0895E9EDF0E0E10FB5
:10076000A32F0E94C66322270895B5E0C3E1D8E015
:10077000E9EDF0E00E94C063A993BA95D9F7089516
:10078000A3E1B8E0C5E0E8940D91DFE0E8E3F9E02B
:100790001591011721F0DA95D9F768940895CA9553
:1007A00099F70895A0917307AA2321F4BB27A1E02C
:1007B000DD270AC0A3E1B8E0DD27A00FBD1FDC9153
:1007C000BB27AA27DD0FAA1FB093D506A093D60694
:1007D000D093D70608951127222704D11F932F9372
:1007E0003F930E949D573F912F911F910091FC07CD
:1007F000033041F0C9E10E9472630091DD070023DC
:100800000AF43DC00E9437610AD10695C4E0C01BBE
:10081000D4E000E000933C0700E2DC1709F400E4B8
:100820000E94D05F0D2FE6EFF8E00E94AB5F0E94C0
:10083000245FDA9572F701E000933D07A9E0B8E084
:1008400083D082D081D080D07FD000E000933C075D
:1008500009E300933D07E0EEF8E00E94CA5FE0E0A4
:10086000F9E004E0019FE00DF11D0E94AA5E0E94E4
:10087000F46000914A07023014F40E9469560E9405
:100880008063083031F4222309F0A4D00E94C92CDF
:100890000895043041F4222309F09CD013951A30B6
:1008A000D4F0112718C0023059F4A9E0B8E00027AD
:1008B000A10FB01F75D0D395D0316CF481D00BC08F
:1008C000013069F4A9E0B8E00027A10FB01F68D09B
:1008D000DA9509F075D00E94C92C0E949E637ECFE4
:1008E0004241434B204E455854202020494E43203E
:1008F00020444543000060C64EC652C65AC668C66C
:100900003B005B095F007F093B095B125F097F12B7
:100910003B125B1B5F127F1B3B1B5B245F1B7F2417
:100920003B245B2D5F247F2D000D1A2734404D5A48
:100930006774808D9AA7B4C08074675A4D408D9AB1
:10094000A7B4C034271A0D0000E300933C070E94AF
:10095000435F00E50E94D05F0AD000E600933C07A9
:1009600009E40E94D05F03D00E94245F08950DE344
:100970000E94D05F15D0119626F40FE30E94D05F3D
:10098000089500E3DA3014F0DA5003950E94D05F46
:100990000EE20E94D05F00E30D0F0E94D05F089529
:1009A000CC91CC2351F0DD27E8E2F9E0E894059101
:1009B0000C1729F0D395D031D4F3DAE06894089578
:1009C000E8E2F9E00027ED0FF00F04910C93302FCF
:1009D0002FEF0895EFECF0E0E10FA32F0E94C66324
:1009E00022270895BAE0C9E0D8E0EFECF0E00E94D9
:1009F000C063A993BA95D9F70895A9E0B8E0CAE011
:100A0000E8940D91DFE0E8E3F9E01591011721F09A
:100A1000DA95D9F768940895CA9599F70895B09131
:100A20005205A0915305D0915405E8E7F1E004E0A8
:100A3000AE1BBF0B12F00A95FBCF00230AF4002770
:100A4000A9E0B8E0000FDD27A00FBD1FDD91CC911C
:100A5000BB27AA27DD0FAA1FB093CF06A093D0060D
:100A6000D093D106AA27DC2FDD0FAA1FB093D206A0
:100A7000A093D306D093D4060895FFB6FF93EF93C7
:100A8000E090C600E091F807F091F907E192E0905C
:100A9000DE079091FA0793959E151CF0EFEDF7E0B5
:100AA00099279093FA07E093F807F093F907EF91ED
:100AB000FF91FFBE189509E1A0E0EFEDF7E0A193EB
:100AC0000A95E9F7089500914A07023011F40E944F
:100AD000550C0091DD0700231AF00E949806089536
:100AE0000E949D570091FC07033041F0C9E10E942C
:100AF00072630091DD0700230AF46BC00E947056F8
:100B00000E94376105E0E0EDF6EC0E94B45F01E081
:100B100000933D07B0914C05A0914D05D0914E0535
:100B2000EAE1FCEACFEF0E942956B0914F05A0916F
:100B30005005D0915105E0E2FCEACFEF0E94295622
:100B40000E945756B0915205A0915305D09154057B
:100B50000E94E25E05E500933C07009170070023C8
:100B600012F4AA2708C0EAE5F0E00E94665614F4E1
:100B7000A1E001C0A2E0E6E2FCEA0E944E56B0917C
:100B80005505A0915605D0915705ECE2FCEACFEF50
:100B90000E9429560E945756B0915805A0915905B8
:100BA000D0915A050E94E25E05E500933C07009152
:100BB0008307E0EBF6EC0E94AB5F00E000933C079C
:100BC00009E300933D07E0EDF3EC0E94CA5F0E9449
:100BD000F4600E948063083009F40895043019F429
:100BE0000E94C92C01D07CCF0E949D5700914A07DA
:100BF000023011F40E94550C0091FC07033041F0C3
:100C0000C9E10E9472630091DD0700230AF45EC00F
:100C10000E94150A109161052091620530916305CB
:100C20004091400550914105609142050E940B643E
:100C30007093610580936205209263050E9437617D
:100C4000BB270E94195601E000933D07B0915B0558
:100C5000A0915C05D0915D05E4E1FCEACFEF0E9434
:100C60002956B0915E05A0915F05D0916005E4E141
:100C7000FCEACFEF0E9429560E945756B0916105B9
:100C8000A0916205D09163050E94E25E05E50093A4
:100C90003C0700919007EAECF6EC0E94AB5F0091F4
:100CA0004A07023079F4A091D807E0EEFCE0C8EEE4
:100CB000DCE01ED0A091D907E4EEFCE0CCEEDCE055
:100CC0000E9478060E94775F0E94F4600E94806311
:100CD000083029F40E94C92C0E949E63089584CF95
:100CE00044473100444732007EC594C57EC582C565
:100CF000CF93DF93AF9300E000933C070E94245F03
:100D00000E94CA5F00E300933C070E94435F09E32F
:100D100000933C0700E3AF910A0F0E94D05F05E506
:100D200000933C070A2FFF91EF910E94AB5F08955B
:100D30000E94456106E100933C07EEE7FDE00E945A
:100D40002B5F00E000933C0700914A07023019F442
:100D5000E8E9FDE002C0E6E8FDE00E94CA5F0E940B
:100D6000245F02E0EEECFDE00E94B45F0E94775F3A
:100D70000E94F4600E94A2630830E1F708954E4F8C
:100D8000204441544100506C656173652073757057
:100D9000706C792053617400506C656173652073C9
:100DA0007570706C7920532E4275730064617461A4
:100DB00020746F20746865207468726F74746C6539
:100DC0000000696E7075742070696E2E0000AC0DA5
:100DD000C20D0E945B050E949D570E943761F5E09D
:100DE000E5E0CFEDD7E01FD0EA95E9F70E94245F58
:100DF00000E000933C07E5E0FA95A9F70E94775FD1
:100E00000E94F4600E9469560E948063083019F7BE
:100E10000E94C92C08953031323334353637383991
:100E2000414243444546EF93FF9300E20E94D05F66
:100E3000088102950F7006D009910F7003D0FF91C1
:100E4000EF910895E6E1FEE0E00F0027F01F049126
:100E50000E94D05F0895A4E6B0E00E946D630E94F6
:100E600067080E94AE2F0E94F4600E9426610E94D3
:100E7000F4600E94ED3600E00093420700E000932A
:100E8000430700E00093440700E00093450707E0B4
:100E90000093940500ED0093950500E000939605FE
:100EA00001E000939C060EE800939D0600E000938D
:100EB0009E0600270093A6070093A7070093A807A4
:100EC00000936B070093780700937407AFEAA09331
:100ED0008207A2E0A0938307A1E0A0939007A093CC
:100EE000850700937107009372070093B207009380
:100EF000B3070093B4070093B5070093B6070093B8
:100F0000B7070093B8070093B9070093BA07009397
:100F1000BB070093BC070093BD070093BE07009377
:100F2000BF070093C0070093C1070093DD0700933C
:100F3000AA070093AD070093AB07E2EBF7E0E0935D
:100F4000B007F093B107A3E0A093FC0700E1009382
:100F50009F070E94945D0E94853A0E94211600918D
:100F60007C07002312F40C942E167894E4E7F0E04A
:100F70000E94E663002351F00E946B3603B1009596
:100F800002950F7089F00E948F350EC00FEF00930D
:100F900098070E948063083011F40E94B52F013039
:100FA00019F40FEF009378070E94D24106E006BBC8
:100FB0000E9450520E9434090E94470A0E94D74062
:100FC0000E94872E0E94A5300E948F1F0E94394BDD
:100FD0000E943B4A0E94C4130E94AA2B0E946F2DBC
:100FE0000E94B25200906D0710906E07012400928B
:100FF000950700919507002332F40E94502E00912E
:101000006D0700936E070091760700232AF40027EE
:10101000009376070E94303D00916D07002342F255
:1010200003B1009502950F7039F4002700939807DB
:1010300000E000939207BCCF0091920703950093C4
:10104000920700919207023309F0B2CF00919807FE
:10105000002372F300E000936F000E9480630F7022
:1010600039F3013061F0083099F0C02F0E94C92C8B
:10107000009177070023B2F40E94DF2605C00E948A
:10108000C92C0E94681B90F40FEF009398078CCF37
:101090000E94C92C0E947F1B28F0009179070095BF
:1010A000009379070FEF0093980782CF009177079D
:1010B0000023C2F729982A980E94F3260E94895497
:1010C0000E94A0080E949D540E940927DDCF02E3E0
:1010D00001B90EE004B90CEF07B902EF0AB90FEF3E
:1010E00000937E0001EF05B903E008B90DE00BB9EC
:1010F00000E00093800002E00093810000E0009394
:10110000820008E00093680001E000937300009102
:10111000B9000C7F0093B90001E10093B8005D9A1B
:101120005C9A5E982B9A299AA4EFB1E00E946D63B5
:101130002B9829985E9AA4E6B0E00E946D6308950A
:10114000C4E8D1E1A0914307B091420703E10E94B6
:10115000DF2CC0934307D093420708F00895AA0FED
:10116000EAEAF1E1EA0F0027F01FA591B491FD0131
:1011700009950E94C92C0E9426610E94F4600E9479
:101180009E63DECF10C41EC428C43CC44AC458C4E5
:1011900068C48AC49CC4ACC4D0C4DEC4ECC4F8C463
:1011A0000AC518C528C538C54CC5D71C91471D337D
:1011B000D23C793B2C3C8E12D7164117BD2F0F39EC
:1011C000E3545D59A7339C258E177136742B4E2F2F
:1011D000AF93BF93EF93FF93A0918400B0918500EC
:1011E000E091AE07F091AF07A093AE07B093AF07C1
:1011F000AE1BBF0B2AF4E0E0F0E0EA1BFB0BDF01C3
:10120000EAE6F8E1AE17BF0790F0E2EBF7E0909165
:10121000AD07EE24E092AD079093AB0794300CF449
:1012200019C09FEF9093DD07E092AA0713C0909139
:10123000AD0793959093AD07E091B007F091B1079A
:10124000A193B193A2ECB7E0EA17FB0718F011F0F5
:10125000E2ECF7E0E093B007F093B107FF91EF9174
:10126000BF91AF91FFBE18950090C4070E94CE5861
:101270000E94D9580E94F558DD27B0934C05A093E1
:101280004D05D0934E050E940759C09371070090F9
:10129000C5070E94CE580E94D9580E94F558DD27F4
:1012A000B0934F05A0935005D09351050E94075964
:1012B000C09372070090C6070E94CE580027009383
:1012C00070070E94EC58EBE3FBE0AE1BBF0BE0E0C5
:1012D000F0E0AE17BF070CF405C0E5E3FCE0AE1785
:1012E000BF072CF0A0E0B0E00FEF00937007DD2700
:1012F000B0935205A0935305D09354050090C707AF
:101300000E94CE580E94D9580E94F558DD27B0930C
:101310005505A0935605D09357050090C8070E9425
:10132000CE580E94D958CC27E8EAFDEFAE17BF0788
:101330009CF0C395E8E3FFEFAE17BF076CF0C395D1
:10134000E8ECF0E0AE17BF073CF0C395E8E5F2E04B
:10135000AE17BF070CF0C395C0938307DD27B0938A
:101360005805A0935905D0935A050090C9070E94CB
:10137000CE580E94D958DD27B0935B05A0935C0539
:10138000D0935D050090CA070E94CE580E94D9589C
:10139000DD27B0935E05A0935F05D09360050090B4
:1013A000CB070E94CE580E94D958CC27E0E7FEEF29
:1013B000AE17BF073CF0C395E0E9F1E0AE17BF07F9
:1013C0000CF0C395C0939007DD27B0936105A093FF
:1013D0006205D09363050091DD07002322F510C05C
:1013E0000093AA0700916D0700234AF40091AB0710
:1013F000A091AC070A1719F0A4E00E94511B0895B0
:101400000091AA070395A09164070A1748F3009179
:101410006D07002342F400919F07036000939F072C
:101420000FEF009380070C941A0E00E00093400524
:1014300000E00093410509E10093420510915B052E
:1014400020915C0530915D0540914005509141052A
:10145000609142050E940B6470935B0580935C056C
:1014600020925D0510915E0520915F053091600529
:101470004091400550914105609142050E940B64E6
:1014800070935E0580935F0520926005089500913A
:10149000DD0700950071A0919F07AF7E0A2B009396
:1014A0009F0708954E4F205349474E414C00506CC2
:1014B0006561736520737570706C7920612043508D
:1014C000504D00002850504D29207369676E616CA3
:1014D00020746F20746865007468726F74746C6532
:1014E00020696E7075742070696E2E00AE14C4147D
:1014F000D8140E9445610AE000933C07E4EAF4E155
:101500000E942B5F03E0ECEEF4E10E94B45F0E94C6
:10151000775F0E94F4600E94A2630830E1F70895AB
:10152000A4E6B0E00E946D630E94BD0B0E94AE2F46
:101530000E94F4600E9426610E94F4600E94ED36D1
:1015400000E00093420700E00093430700E00093AF
:10155000440700E00093450707E00093940500ED81
:101560000093950500E00093960501E000939C062A
:101570000EE800939D0600E000939E06002700936E
:10158000A6070093A7070093A80700936B07009393
:10159000780700937407AFEAA0938207A2E0A093B4
:1015A0008307A1E0A0939007A0938507009371079C
:1015B00000937207A9E1A093DE070093DD07009373
:1015C000AA070093D8070093D9070093DA0700937E
:1015D000FA070093FB070093FC070093DF07EFED8A
:1015E000F7E0E093F807F093F90700E100939F0715
:1015F0000E94945D0E94853A0E94211600917C070A
:10160000002312F40C942E167894E4E7F0E00E9484
:10161000E663002351F00E946B3603B100950295FA
:101620000F7089F00E948F350EC00FEF009398075E
:101630000E948063083011F40E94B52F013019F424
:101640000FEF009378070E94D24100919F070F7D12
:1016500000939F0706E006BB0E9450520E949C0C1C
:101660000E94550C0E94D7400E94872E0E94890C30
:101670000E94A5300E948F1F0E94394B0E943B4A56
:101680000E94C4130E94AA2B0E946F2D0E94B25286
:1016900000906D0710906E0701240092950700914D
:1016A0009507002332F40E94502E00916D0700939D
:1016B0006E070091760700232AF40027009376072F
:1016C0000E94303D00916D07002332F203B1009576
:1016D00002950F7039F400270093980700E00093FB
:1016E0009207BACF00919207039500939207009159
:1016F0009207023309F0B0CF00919807002372F3EC
:1017000000E000936F000E9480630F7039F3013096
:1017100061F0083099F0C02F0E94C92C0091770722
:101720000023B2F40E94DF2605C00E94C92C0E944B
:10173000681B90F40FEF0093980785CF0E94C92C87
:101740000E947F1B28F0009179070095009379078C
:101750000FEF0093980780CF009177070023C2F71F
:1017600029982A980E94F3260E9489540E940B0C03
:101770000E949D540E940927DDCF02E301B90FE0CA
:1017800004B90CEF07B902EF0AB90FEF00937E001E
:1017900000EF05B903E008B90DE00BB900E00093D4
:1017A000800002E00093810000E00093820000913D
:1017B000C000007819F00091C600F9CF02E0009354
:1017C000C00000270093C50008E10093C40000E1B9
:1017D0000093C1000EE20093C2000091C1000068B6
:1017E0000093C1000091B9000C7F0093B90001E1A2
:1017F0000093B8005D9A5C9A5E982B9A299AA4EFA0
:10180000B1E00E946D632B9829985E9AA4E6B0E03F
:101810000E946D630895CAE5D8E1A0914307B09195
:10182000420704E10E94DF2CC0934307D093420794
:1018300008F00895AA0FE2E8F8E1EA0F0027F01F88
:10184000A591B491FD0109950E94C92C0E942661C1
:101850000E94F4600E949E63DECF10C41EC428C4A0
:101860003CC44AC458C468C48AC49CC4ACC4BEC482
:10187000D0C4DEC4ECC4F8C40AC518C528C538C530
:101880004CC5D71C91471D33D23C793B2C3C8E1262
:10189000D7164117BD2F780E0F3963055D59A73351
:1018A0009C258E177136742B4E2FA091D707B091BF
:1018B000DD07BB2331F400919F07006100939F0770
:1018C000089500919F070F7E00939F070A2F0170D4
:1018D0000093D8070A95009500938007A6950A2FD4
:1018E00001700093D907A695A695A17089F0A093E1
:1018F000DA0700919F07006200939F070FEF0093A4
:10190000800700916D0700231AF4A2E00E94511B8A
:101910000895D091D907D0FBC091DB07C69528F474
:1019200000270EF40FEF00937307C69520F416F40A
:1019300028980895289A0895A091FA07B091FB0776
:10194000AB1759F0A093FB0701E00093FC0700914F
:10195000DD0700230AF44BC06DC10091FC07023083
:1019600059F00395043608F00A950093FC0700919E
:10197000DD0700238AF73BC0A091FA07AA2391F064
:1019800000270093FC070093FB07F8940093FA07E5
:101990000093DF07EFEDF7E0E093F807F093F90726
:1019A000789448C1EFEDF7E000810F3009F042C1B3
:1019B000E7EFF7E00081002321F000810F7C043085
:1019C000B1F70FEF0093DD07319700810093D70740
:1019D000E0EEF7E0ACECB7E0CAE001910D93CA95F8
:1019E000E2F703E00093FC0700270093AA07A09109
:1019F000CC07B091CD07B770A093B207B093B307EF
:101A0000A091CD07B091CE07B795A795B795A795AB
:101A1000B795A795B770A093B407B093B507D091C9
:101A2000CE07A091CF07B091D007DD1FAA1FBB1F23
:101A3000DD1FAA1FBB1FB770A093B607B093B707EF
:101A4000A091D007B091D107B795A795B770A09393
:101A5000B807B093B907A091D107B091D207B79555
:101A6000A795B795A795B795A795B795A795B7707B
:101A7000A093BA07B093BB07D091D207A091D30728
:101A8000B091D407DD1FAA1FBB1FB770A093BC077E
:101A9000B093BD07A091D407B091D507B795A7958E
:101AA000B795A795B770A093BE07B093BF07A09155
:101AB000D507B091D607B695A795A295B2950B2FED
:101AC000007FAF70A02BB770A093C007B093C10781
:101AD0000090C407F8D001D10E94F558B0934C058E
:101AE000A0934D05D0934E050E940759C0937107EE
:101AF0000090C507E8D0F1D00E94F558B0934F058B
:101B0000A0935005D09351050E940759C0937207C6
:101B10000090C607D8D0002700937007E0E9F1E0F5
:101B2000AE1BBF0BDED0E0E0F0E0AE17BF072CF439
:101B3000A0E0B0E00FEF00937007B0935205A093C0
:101B40005305D09354050090C707BDD0C6D00E945E
:101B5000F558B0935505A0935605D09357050090BE
:101B6000C807B1D0BAD0B0935805A0935905D09307
:101B70005A05CC27E8EAFDEFAE17BF079CF0C395E6
:101B8000E8E3FFEFAE17BF076CF0C395E8ECF0E0B9
:101B9000AE17BF073CF0C395E8E5F2E0AE17BF070C
:101BA0000CF0C395C09383070090C9078CD095D0E3
:101BB000B0935B05A0935C05D0935D050090CA07C8
:101BC00082D08BD0B0935E05A0935F05D093600563
:101BD0000090CB0778D081D0B0936105A0936205C7
:101BE000D0936305CC27E0E7FEEFAE17BF073CF0CC
:101BF000C395E0E9F1E0AE17BF070CF0C395C093C1
:101C000090070091DD070023AAF403C00093AA0700
:101C100008950091AA0703950A3FC0F300916D074C
:101C2000002342F400919F07036000939F070FEF8A
:101C30000093800700270093DD0700E000934C0528
:101C400000934D0500934E0500934F0500935005FA
:101C500000935105009352050093530500935405DA
:101C600000935505009356050093570500935805BA
:101C70000093590500935A0500935B0500935C059A
:101C800000935D0500935E0500935F05009360057A
:101C90000093610500936205009363050FEF0093C5
:101CA000700700918307023031F002E00093830750
:101CB0000FEF0093840700916D0700231AF4A1E051
:101CC0000E94511B0895E2EBF7E002E0009DE00D59
:101CD000F11DA191B081DD270895E0E0F4E0AE1B95
:101CE000BF0BEA2FFB2FF595E795AE0FBF1F0895A9
:101CF000112764D03091DB0724E50E94376102E0B0
:101D0000E4E9FDE10E94B45F01E000933D07C0916A
:101D1000DB0746D045D00E94665FE8E9FDE104E0BC
:101D2000019FE00DF11D0E94AA5E0E94F4600E94D6
:101D3000A263083051F40091DB07031729F0EEECA1
:101D4000F0E0A02F0E94C6630895043019F41A959C
:101D50001170D3CF023011F41395FACF013059F43A
:101D6000012FAA270894AA1F0A95EAF70091DB071A
:101D70000A270093DB07C1CF4D6F746F7220537039
:101D8000696E00004469676974616C204F757470F6
:101D900075740000781D841D5F0073095F0973125C
:101DA00020933C070E94435F0C2F0170E6E9F6EC9C
:101DB0000E94AB5F0E94245FC6950895EEECF0E0B0
:101DC0000E94E4630093DB070895002700939807BF
:101DD0000E9429100E94AE2F0E94F4600E9426618A
:101DE0000E94F4600E94ED3600E00093420700E09C
:101DF0000093430700E00093440700E00093450789
:101E000007E00093940500ED0093950500E0009332
:101E1000960501E000939C060EE800939D0600E005
:101E200000939E0600270093A6070093A707009340
:101E3000A80700936B070093780700937407AFEA35
:101E4000A0938207A2E0A0938307A1E0A09390074C
:101E5000A09385070093710700937207A0E1A093F8
:101E6000DE070093DD070093AA070093FA070093AB
:101E7000FB070093FC07EFEDF7E0E093F807F09322
:101E8000F9070093B2070093B3070093B4070093D8
:101E9000B5070093B6070093B7070093B807009300
:101EA000B9070093BA070093BB070093BC070093E0
:101EB000BD070093BE070093BF0700E100939F0793
:101EC0000E94945D0E94853A0E9473100E94211620
:101ED00000917C07002312F40C942E167894E4E70A
:101EE000F0E00E94E663002371F00E946B360091DF
:101EF00098070023B2F003B1009502950F7089F0A6
:101F00000E948F350EC00FEF009398070E948063E8
:101F1000083011F40E94B52F013019F40FEF00932F
:101F200078070E94D24100919F070F7D00939F0781
:101F300006E006BB0E9450520E94E1100E948312EC
:101F40000E94D7400E94872E0E94A5300E948F1FBA
:101F50000E94394B0E943B4A0E94C4130E94AA2B44
:101F60000E946F2D0E94B25200906D0710906E0774
:101F700001240092950700919507002332F40E94F6
:101F8000502E00916D0700936E0700917607002395
:101F90002AF40027009376070E94303D00916D07D8
:101FA000002342F203B1009502950F7039F4002727
:101FB0000093980700E000939207BCCF009192072E
:101FC00003950093920700919207023309F0B2CF74
:101FD00000919807002372F300E000936F000E94C5
:101FE00080630F7039F3013061F0083099F0C02F31
:101FF0000E94C92C009177070023B2F40E94DF26CB
:1020000005C00E94C92C0E94681B90F40FEF00933A
:10201000980787CF0E94C92C0E947F1B28F000914F
:1020200079070095009379070FEF0093980782CF07
:10203000009177070023C2F729982A980E94F32677
:102040000E9489540E9482100E949D540E94092778
:10205000DDCF02E301B90EE004B90CEF07B902EFDE
:102060000AB90FEF00937E0001EF05B903E008B94C
:102070000DE00BB9ACE3B0E00E946D630E94806399
:10208000063079F4A3E000914A07043009F4A7E090
:1020900003EF0AB90E94CA1002EF0AB90FEF0093CA
:1020A000980700E00093800002E00093810000E0C8
:1020B000009382000091B9000C7F0093B90001E108
:1020C0000093B8005D9A5C9A5E982B9A299AA4EFC7
:1020D000B1E00E946D632B9829985E9AA4E6B0E067
:1020E0000E946D63089500270093C0000093C5000F
:1020F0000AE00093C40000E90093C10006E00093E9
:10210000C2000895C8E4D1E2A0914307B09142070C
:1021100003E10E94DF2CC0934307D093420708F0ED
:102120000895AA0FEEE6F1E2EA0F0027F01FA5914D
:10213000B491FD0109950E94C92C0E9426610E945C
:10214000F4600E949E63DECF10C41EC428C43CC449
:102150004AC458C468C48AC49CC4ACC4D0C4DEC4D5
:10216000ECC4F8C40AC518C528C538C54CC5D71C69
:1021700091471D33D23C793B2C3C8E12D716411728
:10218000BD2F0F3963055D59A7339C258E17713616
:10219000742B4E2F5898C6E70E94D510589ACAE75C
:1021A0000E94D510AA95B1F7089500C000C000C0E4
:1021B00000C000C000C000C000C00000CA95A9F760
:1021C0000895442700914A070430F1F02CE133E0F0
:1021D00002E00093490500E000934A0500E0009307
:1021E0004B0500E00093400502E0009341050EEE30
:1021F0000093420500E0009343050DEC0093440575
:1022000000E0009345051DC028E337E004E000939B
:10221000490500E000934A0500E000934B0500E00B
:102220000093400501E00093410507E70093420554
:1022300001E0009343050AE90093440500E00093A0
:1022400045053093DC07A091FA07B091FB07AB1767
:1022500059F0A093FB0701E00093FC070091DD0714
:1022600000230AF45DC015C10091FC07023069F03B
:102270000023C9F30395043608F00A950093FC0780
:102280000091DD0700237AF74BC0A091FA07AA233B
:1022900081F000270093FC070093FB07F89400935C
:1022A000FA07EFEDF7E0E093F807F093F907789479
:1022B000F0C00FEF0093DD07A1EEB7E012E0E2EB14
:1022C000F7E0DD91CD91DF3F79F04D2B0D2F069595
:1022D000283309F406950E700395E00F08F4F39582
:1022E000D323D0833197C0831395139510313CF3DA
:1022F000032F00954023421769F000919F07006269
:1023000000939F0700916D0700231AF4A3E00E9439
:10231000511BBFC003E00093FC0700270093AA07EE
:1023200000270093C0070093C1070090C407B3D0F3
:10233000BFD00E94F558B0934C05A0934D05D093A3
:102340004E050E940759C09371070090C507A3D09E
:10235000AFD00E94F558B0934F05A0935005D0938D
:1023600051050E940759C09372070090C60793D089
:10237000002700937007F0914305E0914405AE1BE0
:10238000BF0BA0D0E0E0F0E0AE17BF072CF4A0E058
:10239000B0E00FEF00937007B0935205A093530580
:1023A000D09354050090C70776D082D00E94F5588C
:1023B000B0935505A0935605D09357050090C807D4
:1023C0006AD076D0B0935805A0935905D0935A059A
:1023D000CC27E8EAFDEFAE17BF079CF0C395E8E312
:1023E000FFEFAE17BF076CF0C395E8ECF0E0AE1757
:1023F000BF073CF0C395E8E5F2E0AE17BF070CF06D
:10240000C395C09383070090C90745D051D0B093BE
:102410005B05A0935C05D0935D050090CA073BD097
:1024200047D0B0935E05A0935F05D0936005009000
:10243000CB0731D03DD0B0936105A0936205D09316
:102440006305CC27E0E7FEEFAE17BF073CF0C3956E
:10245000E0E9F1E0AE17BF070CF0C395C093900719
:102460000091DD070023AAF403C00093AA07089592
:102470000091AA0703950A3FC0F300916D0700235E
:1024800042F400919F07036000939F070FEF0093B2
:1024900080070C941A0EE2EBF7E002E0009DE00DDD
:1024A000F11DA191B081DD270091DC07B0230895D3
:1024B000AD17BD0709F40895F0914905E0914A056B
:1024C000AE1BBF0BB0934605A0934705D0934805BC
:1024D00010914605209147053091480540914005EF
:1024E00050914105609142050E940B64709346052E
:1024F0008093470520924805B0914605A091470575
:10250000D091480508950091DD0700950071A091D4
:102510009F07AF7E0A2B00939F07089511270E9403
:102520004F450E94674700916607007C09F01ED165
:102530000E94376105E0EAE9F6E20E94B45F01E03B
:1025400000933D0728E4E1EBF0E007D106D105D187
:1025500004D120933C070E94435FE9EBF0E00E9426
:10256000C0630093A4070170E0EBF6E20E94AB5F4A
:1025700000E000933C0709E300933D07E0EDF3EC36
:102580000E94CA5FEAEDF3EC0E94CA5FE6EDF6E254
:1025900004E0019FE00DF11D0E94AA5E0E94F4601C
:1025A0000E94A263083009F40895043011F422D087
:1025B000BFCF023029F4139515300CF01127B8CF96
:1025C0000130E9F7143051F4A091A407A095A0932D
:1025D000A407E9EBF0E00E94C663AACFE1EBF0E0CC
:1025E00002E0019FE00DF11DC8EDDCEDA8E2B3E2D1
:1025F000A3D09ECF112724E50E94376102E0E2EDCF
:10260000F6E20E94B45F01E000933D07EAEBF0E0E0
:10261000A4D0A3D00E94665FEAEEF6E204E0019F38
:10262000E00DF11D0E94AA5E0E94F4600E94A26368
:10263000083011F411270895043019F41A95117017
:10264000DBCF0230D9F30130D9F7EAEBF0E002E05A
:10265000019FE00DF11DC8E1DCEFA8EEB3E06CD006
:10266000CBCF526F6C6C204761696E00526F6C6CFF
:10267000204F666673657400506974636820476113
:10268000696E00005069746368204F6666736574F4
:1026900000004D6978696E67000062266C26782616
:1026A000842692264E6F6E650000446966660000BF
:1026B000A426AA26486F6D6520506F7320526F6C58
:1026C0006C00486F6D6520506F73205069746368AB
:1026D0000000B426C2265300730953097312531223
:1026E000731B531B73245324732D5F007F095F09F1
:1026F0007F124F75747075742074797065206973DA
:102700002073657420746F0045534320666F7220F8
:102710004D3720616E642F6F72204D382E00436854
:1027200065636B204D6978657220456469746F72CA
:102730002E00F22608271E27EF93FF93AF93BF9337
:102740000E94AE63FF91EF910E943948A02DB12DF8
:10275000FF91EF910E94B763089520933C070E9478
:10276000435F0E94AE630E94235F08950E94335F1F
:1027700003E0E2E3F7E20E94B45F0E948F5F0E94F1
:10278000F4600E94A9630895689400E000934005F6
:1027900000934105009342053091A8064091A90697
:1027A0005091AA06609140057091410580914205C3
:1027B00058174707360791F43091AE064091AF069F
:1027C0005091B0066091400570914105809142059D
:1027D00058174707360709F40895E8940091A807A9
:1027E000002369F000E000935B0500935C05009313
:1027F0005D0500935E0500935F0500936005009101
:102800009007023029F50091BD0600935B05009109
:10281000BE0600935C050091BF0600935D05009124
:10282000BA0600935E050091BB0600935F05009118
:10283000BC060093600500E00093B7060093B8065D
:102840000093B9060093B4060093B5060093B6064C
:1028500030915B0540915C0550915D056091B1063A
:102860007091B2068091B306580F471F361F309300
:102870005B0540935C0550935D0530915E0540918A
:102880005F05509160056091AB067091AC06809138
:10289000AD06580F471F361F30935E0540935F0506
:1028A0005093600503E00093400508EE0093410556
:1028B00000E00093420530915B0540915C0550912A
:1028C0005D05609140057091410580914205580F6A
:1028D000471F361F30935B0540935C0550935D05A1
:1028E00030915E0540915F05509160056091400513
:1028F0007091410580914205580F471F361F309354
:102900005E0540935F055093600500E0009340052D
:1029100002E00093410500E80093420510915B0539
:1029200020915C0530915D05409140055091410535
:10293000609142050E940B647093C3068093C406A5
:102940002092C50610915E0520915F0530916005CB
:102950004091400550914105609142050E940B64F1
:102960007093C0068093C1062092C2060091900722
:10297000013041F510919F062091A0063091A106EB
:102980004091A8065091A9066091AA060E940B6486
:102990007093B4068093B5062092B6061091A206F5
:1029A0002091A3063091A4064091AE065091AF0647
:1029B0006091B0060E940B647093B7068093B806CE
:1029C0002092B9060EF0C5C00091A40700230AF0BA
:1029D0009FC00091B406009340050091B506009396
:1029E00041050091B606009342053091B40640912E
:1029F000B5065091B6066091B7067091B806809101
:102A0000B906581B470B360B3093B4064093B506F6
:102A10005093B6063091B7064091B8065091B9066A
:102A2000609140057091410580914205580F471F04
:102A3000361F3093B7064093B8065093B9060091FD
:102A4000C006009340050091C10600934105009126
:102A5000C206009342053091C0064091C1065091D4
:102A6000C2066091C3067091C4068091C506581BCA
:102A7000470B360B3093C0064093C1065093C206F5
:102A80003091C3064091C4065091C506609140053F
:102A90007091410580914205580F471F361F3093B2
:102AA000C3064093C4065093C50609E00093400551
:102AB00004EC0093410500E0009342053091C0060C
:102AC0004091C1065091C206609140057091410548
:102AD00080914205580F471F361F3093C006409320
:102AE000C1065093C2063091C3064091C40650916E
:102AF000C506609140057091410580914205581BC3
:102B0000470B360B3093C3064093C4065093C5065B
:102B10003091B4064091B5065091B6066091C0065A
:102B20007091C1068091C206580F471F361F30931F
:102B30002406409325065093260600912406009310
:102B40005406009125060093550600912606009331
:102B500056063091B7064091B8065091B90660917B
:102B6000C3067091C4068091C506580F471F361FD3
:102B70003093270640932806509329060091270694
:102B800000935706009128060093580600912906E5
:102B9000009359060895E7E7F0E00E94E663102FDE
:102BA0000E9445610CE100933C07E8EFFBE20E94C4
:102BB0002B5F03E0ECE3FCE20E94B45F0AE20093C7
:102BC0003C0709E300933D07E8EBF3EC0E94CA5F82
:102BD0000E94F4600E94A263043011F40FEF03C05E
:102BE0000230C1F70027011731F0E7E7F0E00E945B
:102BF000F0630C945439089547494D42414C00000C
:102C0000557365207468697320626F617264206116
:102C1000732061007374616E642D616C6F6E65204A
:102C200028736572766F290067696D62616C206335
:102C30006F6E74726F6C6C65723F0000002C142C08
:102C4000282CE7E7F0E00E94E66300937C070895F4
:102C50000027E7E7F0E00E94F06308950027009363
:102C60007D0700937E0700937F0778940FEF009312
:102C700098070E948063083011F40E94B52F0E94CB
:102C8000D24106E006BB0E9450520E949D570E940E
:102C9000394B0E943B4A0E94C4130E94AA2B0E94F7
:102CA0006F2D0E94B25200E00093930600939406A9
:102CB000009395060091760700232AF400270093DD
:102CC00076070E94303D03B1009502950F7039F4EC
:102CD00000270093980700E000939207D4CF00915B
:102CE000920703950093920700919207023309F02F
:102CF000CACF00919807002372F300E000936F00A1
:102D00000E948063077039F3013049F0C02F0E94A0
:102D1000C92C0E94DF260FEF00939807B0CF0E94C6
:102D2000C92C29980E94472E0E94F3260E9489549C
:102D30000E949F160E949D540E940927A0CFC2E8BE
:102D4000DDE2A0914307B09142070BE00E94DF2C27
:102D5000C0934307D093420708F00895AA0FE8E90B
:102D6000FDE2EA0F0027F01FA591B491FD0109953E
:102D70000E94C92C0E9426610E94F4600E949E63FA
:102D8000DECF4AC458C468C48AC4D0C4DEC4ECC40C
:102D90000AC578C438C54CC5793B2C3C8E12D71671
:102DA0000F3983555D599C25CB15742B4E2F112758
:102DB0000E94456100E100933C07E0E3FEE20E94CF
:102DC0002B5F04E0EAE7FEE20E94B45F0E944F5FDF
:102DD000E6E0F2E704E0019FE00DF11D0E94AA5E2B
:102DE0000E94F4600E94A263083009F40895043040
:102DF00019F41A951370DCCF023011F41395FACF41
:102E00000130B1F60E949E631F93103019F40E94A6
:102E1000F8190CC0113019F40E94D05D07C01230AF
:102E200019F40E940A4902C00E9461191F91C0CF83
:102E3000414456414E43454400004368616E6E650F
:102E40006C204D617070696E670053656E736F72B0
:102E50002053657474696E6773004D6978657220DC
:102E6000456469746F720000426F617264204F7232
:102E700069656E746174696F6E003A2E4A2E5A2E1F
:102E8000682E11270E9445610CE100933C07E4EF96
:102E9000FEE20E942B5F02E0E8E1FFE20E94B45FE5
:102EA0000E944F5FE6E0F2E704E0019FE00DF11DB4
:102EB0000E94AA5E0E94F4600E94A263083009F496
:102EC0000895043019F41A951170DCCF023011F412
:102ED0001395FACF0130B1F60E949E631F93103014
:102EE00019F40E94EB0304C0113011F40E94EE02A9
:102EF0001F91C8CF455850455254000054504120AE
:102F000053657474696E67730000545353412053C2
:102F1000657474696E677300FC2E0A2F11270E9476
:102F2000456102E200933C07ECE9FFE20E942B5F5F
:102F300003E0ECEDFFE20E94B45F0E944F5FE6E029
:102F4000F2E704E0019FE00DF11D0E94AA5E0E94DD
:102F5000F4600E94A263083009F40895043021F45B
:102F60001A95EAF612E0DBCF023029F413951330FC
:102F7000B4F21127D4CF013091F60E949E631F93C3
:102F8000103019F40E94F11707C0113019F40E9493
:102F9000CB1502C00E94E9061F91C1CF455854527B
:102FA0004100436865636B204D6F746F72204F75ED
:102FB00074707574730047696D62616C20436F6E45
:102FC00074726F6C6C657200566965772053657218
:102FD00069616C205258204461746100A22FB62FA1
:102FE000C82FEFEBF0E00E94E66300232AF0ECE04C
:102FF000F4E90E940A4A08954AD108F408950E940B
:1030000036470E944F450E94674750916607222726
:1030100011E00E94613B0E949E630E949D5400E06B
:103020000093650700E00093660701E000936807DE
:1030300008E0009367070FEF00936D0700270093E8
:10304000700700E000937B0601E000937C0600E03F
:1030500000937D0606E006BB01E00093430500E90E
:103060000093440500E000934505052F012321F45A
:103070002395110FD0F75DC00E94456104E30093D2
:103080003C0706E100933D070DE40E94D05F00E39A
:103090002395020F0E94D05FEAE0FEE70E94AA5E3D
:1030A0000E94F4601F935F932F930E9450520091EF
:1030B000F105009340050091F20500934105009150
:1030C000F3050093420541D00E94B2522F913091F6
:1030D00043054091440541503040309343054093AF
:1030E000440511F700E00093430508EC0093440504
:1030F00000E0009345052F930E94505200E000939A
:10310000400500934105009342051FD00E94B25232
:103110002F91309143054091440541503040309308
:1031200043054093440539F75F911F91110F08F053
:1031300093CF002700936D070FEF0093700790E087
:1031400090936F000E9489540895213069F4009192
:10315000400500931206009141050093130600916B
:103160004205009314060895223069F40091400549
:103170000093150600914105009316060091420543
:10318000009317060895233069F4009140050093D9
:10319000180600914105009319060091420500931D
:1031A0001A060895243069F40091400500931B0627
:1031B0000091410500931C060091420500931D06F5
:1031C0000895253069F40091400500931E06009192
:1031D000410500931F0600914205009320060895C3
:1031E000263069F4009140050093210600914105C5
:1031F000009322060091420500932306089527308C
:1032000069F4009140050093240600914105009364
:103210002506009142050093260608950091400579
:10322000009327060091410500932806009142056E
:103230000093290608954D6F746F72732077696C3F
:103240006C207370696E20696E0073657175656EB0
:103250006365204D31202D204D3800006166746576
:10326000722074686520636F756E74646F776E2E5C
:103270000000504C454153452042452043415245B2
:1032800046554C21000036324A325C3272320E947E
:10329000335F00E000933C0704E0E6E8F2E30E94BD
:1032A000B45F0E94775F0E948F5F0E94F4600E946B
:1032B000A263083011F4089408950130C1F788948E
:1032C000089500910508002329F0E0E1F4E90E9447
:1032D0000A4A0895E9E7F0E00E94E6630370102FC0
:1032E0000E94456102E200933C0703E100933D0721
:1032F000E4E8F3E30E94CA5F04E000934107EAE8D0
:10330000F3E302E0019FE00DF11DA591C491A093AC
:103310003C07C0933D0705E0010F0E94D05F01E02C
:10332000009341070E94595F0E94F4600E94A263CB
:10333000083009F40895043019F413951370D0CFB0
:10334000023011F41A95FACF013051F61093460766
:10335000012FE9E7F0E00E94F0630E94456102E27C
:1033600000933C07EAE4F3EC0E942B5F04E0E8EEF4
:10337000F3E30E94B45F0E948F5F0E94F4600E949A
:10338000A963AECF46726F6E740038000014382601
:1033900070144D6F756E7420796F7572204B4B32BF
:1033A00020626F6172640000736F20746861742022
:1033B000746865206F6E2D73637265656E0061724F
:1033C000726F7720706F696E747320746F207468E9
:1033D000650066726F6E74206F6620796F7572205B
:1033E0006D6F64656C2E00009233A833BE33D23308
:1033F00011270E94376105E0E0EDF6EC0E94B45F12
:1034000001E000933D07BEE40E94195601E00093DD
:103410003D0720E3C4ECD7E00E94824788D087D0E4
:1034200086D085D084D001E000933D0726E67FD08A
:103430007ED07DD00E94665FE4EAF4E304E0019F61
:10344000E00DF11D0E94AA5E0E94F4600E94A2633A
:10345000083029F480D010F455D0CBCF0895043033
:1034600019F41A951770C5CF023011F41395FACFDD
:103470000130B9F40E948247BB27E10FFB1FEF9395
:10348000FF930E94C063AA95A770A395C1E0D0E006
:10349000E8E0F0E00E943948A02DFF91EF910E94F2
:1034A000C663A7CF39004509390945123912451BB2
:1034B000391B45243924452D6F007B096F097B1288
:1034C0006F127B1B4368616E6E656C206D6170705E
:1034D000696E672069730000696E76616C69642E9D
:1034E000204475706C696361746573006172652056
:1034F0006E6F7420616C6C6F7765642E0000C4344D
:10350000D834EC340E94456102E200933C07E4E4C5
:10351000F3EC0E942B5F03E0EEEFF4E30E94B45F54
:103520000E948F5F0E94F4600E94A9630895209317
:103530003C070E94435F0E94C0630A950993087F7D
:1035400031F00DE20E94D05F0E94245F0895BB27F6
:103550000E94235F0895C4ECD7E0EE27B8E00991FC
:10356000A02FA87F59F40894AA1F0A95EAF7EA2B1E
:10357000BA95A9F7E09511F48894089508940895F0
:10358000EBE7F0E00E94E663002339F4009178074E
:1035900000230AF432C0889408951B9A102F1370E8
:1035A0000AE000933C07EEE4F6E30E942B5F00E0A4
:1035B00000933C07012FEAE9F6E30E94AB5F0E940B
:1035C000245F00E000933C07EEE5F6E30E94CA5F4B
:1035D000ECE7F0E00E94C263CA2F0E94C2630E941F
:1035E000AA3E00E600933C0709E300933D07E2EBA7
:1035F000F3EC0E94CA5F089408950AE000933C0728
:10360000EEE4F6E30E942B5F00E000933C07E6E661
:10361000F6E30E94CA5FEAE7F0E00E94E663017009
:10362000E2E8F6E30E94AB5F00E000933C0709E3A9
:1036300000933D07E6EFF3EC0E94CA5F00E60093BB
:103640003C07E8E5F6E30E94CA5F089408954552F6
:10365000524F52204C4F470041424F525400546940
:103660006D653A2000005374617475733A20000050
:10367000454E41424C45440044495341424C454427
:103680000000783670364350504D2073796E6320B9
:10369000776173206C6F737421008636C87E3E7F1D
:1036A0005C7FEAE7F0E00E94E663002382F4EBE748
:1036B000F0E00E94E663002351F40E94C863A091E9
:1036C000A6070E94C863A091A7070E94C863089537
:1036D000EBE7F0E00E94E663002331F40091780705
:1036E00000233AF0889408950027EBE7F0E00E9469
:1036F000F0630027009378072B9808940895889426
:103700000091780700235AF4EAE7F0E00E94E663AC
:1037100000950E94F06300270093780708940895AD
:103720000FEFEAE7F0E00E94F063D2DF0895A4E62D
:10373000B0E00E946D630E94332B0E94AE2F0E9466
:10374000F4600E9426610E94F4600E94ED3600E061
:103750000093420700E00093430700E00093440712
:1037600000E00093450707E00093940500ED009307
:10377000950500E00093960501E000939C060EE895
:1037800000939D0600E000939E0600270093A60785
:103790000093A7070093A8070093990700936B076E
:1037A0000093780700937407AFEAA0938207A2E022
:1037B000A0938307A1E0A0939007A09385070093AF
:1037C0007107009372070093B2070093B307009349
:1037D000B4070093B5070093B6070093B7070093AB
:1037E000B8070093B9070093BA070093BB0700938B
:1037F000BC070093BD070093BE070093BF0700936B
:10380000C0070093C1070093550700935607AAEF1E
:10381000A0935707A0935807A0935907A0935A075E
:10382000A0935B07A0935C07A0935D07A0935E073E
:10383000A3E0A093FC07A0EFA0939F070E94945DD4
:103840000E94853A0E94211600917C07002312F401
:103850000C942E167894E4E7F0E00E94E6630023CF
:1038600051F00E946B3603B1009502950F7089F0FC
:103870000E948F350EC00FEF009398070E9480635F
:10388000083011F40E94B52F013019F40FEF0093A6
:1038900078070E94D24106E006BB0E9450520E9467
:1038A000AC570E94D7400E94872E0E94A5300E94EC
:1038B000394B0E943B4A0E94C4130E94AA2B0E94CB
:1038C0006F2D0E94B25200906D0710906E07012478
:1038D0000092950700919507002332F40E94502E24
:1038E00000916D0700936E070091760700232AF47C
:1038F0000027009376070E94303D00916D0700235A
:1039000062F203B1009502950F7039F4002700931D
:10391000980700E000939207C0CF009192070395AB
:103920000093920700919207023309F0B6CF0091FD
:103930009807002372F300E000936F000E948063F9
:103940000F7039F3013061F0083099F0C02F0E94F8
:10395000C92C009177070023B2F40E94DF2605C02E
:103960000E94C92C0E94681B90F40FEF00939807E7
:1039700090CF0E94C92C0E947F1B28F000917907EC
:103980000095009379070FEF0093980786CF009179
:1039900077070023C2F729980E94F3260E948954D2
:1039A0000E9415590E949D540E940927DECF0E9453
:1039B0005B450E9441460E94C746A9D1B6D40E94E9
:1039C0009D570091FC07033041F0C9E10E947263EA
:1039D0000091DD0700230AF48CC00091A8070023A2
:1039E00011F40E94150A10915B0520915C0530913D
:1039F0005D054091CC065091CD066091CE060E94A7
:103A00000B647093EB058093EC052092ED0510910B
:103A10005E0520915F05309160054091CC06509184
:103A2000CD066091CE060E940B647093EE058093E4
:103A3000EF052092F00573D20E943761E8E4FBE3C2
:103A40000E94CA5F0091A807002359F003304CF48C
:103A5000A0916907AA2329F0EAECF5EC0E94CA5F5D
:103A600004C0EAE9F6EC0E94AB5F00E000933C077B
:103A70000AE000933D070091A807E2E9FBE30E94FA
:103A8000AB5FEEE6FBE3B091EB05A091EC05D091C6
:103A9000ED05F3D00091A807E0EAFBE30E94AB5FDD
:103AA000E4E7FBE3B091EE05A091EF05D091F005BE
:103AB000E4D0E6E5FBE30E94CA5F0091A907E8EACB
:103AC000F6EC0E94AB5F00E000933C0709E3009333
:103AD0003D07E0E5F3EC0E94CA5FE4E6FBE30E94E9
:103AE000AA5E0E94F46000914A07023014F40E941A
:103AF00069560E948063083009F40895043021F467
:103B00000E94C92CCFD05BCF023039F452D10E9431
:103B1000C92CA091A80727D152CF013009F04FCF6F
:103B20000091A807039507300CF00027023029F414
:103B3000A0916907AA230AF403950093A8070E949D
:103B4000C92C0E949E633BCF54756E696E67204DF1
:103B50006F64653A2000496E707574205261746517
:103B6000203A20004C007F095465737400004175B1
:103B70007832000041757833000052204761696E49
:103B8000000050205472696D000052205472696D1B
:103B90000000683B02C602C602C602C6823B02C6DD
:103BA000683B12C612C612C6E4AB8A3B7A3B4E4F44
:103BB0005400506C656173652063656E7465722096
:103BC000796F75722054580074756E696E67206342
:103BD0006F6E74726F6C73206E6F772E00004120D1
:103BE00054756E696E67204D6F6465206D757374D2
:103BF0002062650073656C65637465642066697234
:103C000073742E00B23BC83BDE3BF43B534554205B
:103C1000494E5055542052415445000053656C653F
:103C2000637420696E707574207261746520666FAC
:103C30007200616C6C2074756E696E67206D6F64C4
:103C400065732E20557365004C4F5720666F7220A8
:103C500066696E652D74756E696E672E000042414F
:103C6000434B20204C4F57204D454449554D20484B
:103C7000494748001C3C323C483C00913C0700232B
:103C800009F408950FE20E94D05F0E94CA5F02E427
:103C900000933C070E94435F0E94235F00E0009373
:103CA0003C0708950E94376106E100933C07ECE071
:103CB000FCE30E94CA5F0DE000933D0703E0E4E7E8
:103CC000FCE30E94B45F00E000933C0709E300932B
:103CD0003D07EEE5FCE30E94CA5F0E94F4600E948B
:103CE000A263077089F0043011F4A1E008C002302B
:103CF00011F4A2E004C0013009F0D4CFA3E0EDEC50
:103D0000F0E00E94C66303D00E949E630895EDEC2C
:103D1000F0E00E94C063A370AA2309F4A2E0A130DE
:103D200051F400E00093CC0600E00093CD0606E2DB
:103D30000093CE0615C0A23051F400E00093CC06EB
:103D400000E00093CD0603E70093CE0609C000E033
:103D50000093CC0600E00093CD0600EC0093CE0665
:103D6000A093A90708950E9445610AE000933C07CB
:103D7000AA2341F4EEEAFBE30E94CA5F0AE3009340
:103D80003C0703C002E200933C07EAE4F3EC0E9424
:103D90002B5FE4E0FCE3AA2311F4E8E0FCE302E09B
:103DA0000E94B45F0E948F5F0E94F4600E94A9632A
:103DB00008950091A807002309F40895B091EB0538
:103DC000A091EC05D091ED050130C9F4B093D9056F
:103DD000A093DA05D093DB050027CC278BD00027F2
:103DE000C2E0B091EE05A091EF05D091F005B0933F
:103DF000E205A093E305D093E4057CD0089502305A
:103E0000C9F401E0CC27B093DC05A093DD05D09385
:103E1000DE0570D001E0C2E0B091EE05A091EF05A3
:103E2000D091F005B093E505A093E605D093E705A2
:103E300061D008950330C9F4B093DF05A093E00585
:103E4000D093E10502E0CC2755D002E0C2E0B0916A
:103E5000EE05A091EF05D091F005B093E805A09391
:103E6000E905D093EA0546D00895043059F4B0939B
:103E70005D06A0935E06D0935F06E8E8F0E00E943E
:103E8000B76308950530D9F4B0938D06A0938E06DC
:103E9000D0938F06EEE8F0E00E94B763B091EE0594
:103EA000A091EF05D091F005B0938A06A0938B0600
:103EB000D0938C06ECE8F0E00E94B7630895B093CD
:103EC000C906A093CA06D093CB06E5EBF0E00E94AA
:103ED000B763B091EE05A091EF05D091F005B093D6
:103EE000C606A093C706D093C806E1EBF0E00E9497
:103EF000B7630895E4E4F0E0000F000F000FE00F57
:103F00000027F01F0C2F000FE00F0027F01F0A2FD3
:103F10000E94EE6331960B2F0E94EE63089500918C
:103F2000A807002309F408950E94150A10915B0563
:103F300020915C0530915D054091CC065091CD06F5
:103F40006091CE060E940B6470935B0580935C05C4
:103F500020925D0510915E0520915F05309160050E
:103F60004091CC065091CD066091CE060E940B6424
:103F700070935E0580935F05209260050091A8070D
:103F80000130C1F50091D905009346050091DA058D
:103F9000009347050091DB05009348050091E20579
:103FA000009340050091E305009341050091E4056D
:103FB0000093420573D10E94C9430091EB05009321
:103FC000B5050091EC050093B6050091ED05009351
:103FD000B705009140050093C70500914105009386
:103FE000C805009142050093C905009169070023A7
:103FF000F2F008950230A1F50091DC05009346052A
:104000000091DD05009347050091DE05009348050A
:104010000091E505009340050091E60500934105F8
:104020000091E7050093420539D10E94C9430091F0
:10403000EB050093B8050091EC050093B9050091DC
:10404000ED050093BA05009140050093CA05009163
:1040500041050093CB05009142050093CC050895DE
:104060000330A1F50091DF05009346050091E005BE
:10407000009347050091E105009348050091E8058C
:10408000009340050091E905009341050091EA0580
:104090000093420503D10E94C9430091EB050093B0
:1040A000BB050091EC050093BC050091ED05009364
:1040B000BD05009140050093CD0500914105009399
:1040C000CE05009142050093CF050895043009F50F
:1040D00000915D060093460500915E06009347053A
:1040E00000915F0600934805D9D000E00093EE05EB
:1040F0000093EF050093F0050091EB0500935A063D
:104100000091EC0500935B060091ED0500935C06C1
:104110000895053009F061C030918A0640918B0600
:1041200050918C0660915E0570915F0580916005ED
:10413000580F471F361F3093EE054093EF055093FD
:10414000F00530918D0640918E0650918F0660915A
:104150005B0570915C0580915D05581B470B360B24
:104160003093EB054093EC055093ED050091EB0582
:10417000009387060091EC05009388060091ED05F9
:10418000009389060091EE05009384060091EF05E7
:10419000009385060091F0050093860660918706DE
:1041A000709188068091890602E00E94FC6360930A
:1041B00087067093880680938906609184067091C3
:1041C00085068091860602E00E94FC636093840667
:1041D000709385068093860608953091C6064091B7
:1041E000C7065091C80660915E0570915F05809189
:1041F0006005580F471F361F3093EE054093EF05BB
:104200005093F0053091C9064091CA065091CB06F3
:1042100060915B0570915C0580915D05580F471FAB
:10422000361F3093EB054093EC055093ED0500915C
:10423000EB050093AE060091EC050093AF060091EC
:10424000ED050093B0060091EE050093A8060091DD
:10425000EF050093A9060091F0050093AA0660916E
:10426000AE067091AF068091B00604E00E94FC6338
:104270006093AE067093AF068093B0066091A80677
:104280007091A9068091AA0604E00E94FC636093E5
:10429000A8067093A9068093AA0608953091460552
:1042A000409147055091480560915B0570915C0510
:1042B00080915D05580F471F361F3093EB054093E3
:1042C000EC055093ED053CF400E00093EB05009302
:1042D000EC050093ED05309140054091410550916A
:1042E000420560915E0570915F0580916005580FF1
:1042F000471F361F3093EE054093EF055093F005AE
:104300003CF400E00093EE050093EF050093F00508
:104310000091EE05009340050091EF0500934105E3
:104320000091F0050093420508950091A80702301E
:1043300039F40091690700231AF401E00093A807FB
:10434000089500E00093EE050093EF050093F0055B
:104350000E94D2410E94871E0E9409270E949D54FC
:104360000FEF0093A807002700937E0700937F07B5
:1043700000919907063014F00FEF01C00027009359
:104380007D070E94456100916D0700235AF402E207
:1043900000933C0706E100933D07E0EDFDE70E9436
:1043A000CA5F6FC00CE100933C07E2EDF5E40E94A8
:1043B0002B5F00E000933C0700919907043064F400
:1043C000A0916907AA2341F0017000939907EAECD4
:1043D000F5EC0E94CA5F04C0EAE0F6E40E94AB5F1D
:1043E00000E20E94D05F00919907E0E2F6E40E94AB
:1043F000AB5F0E94435FC09199073ED10E94AE63BC
:104400000E94235F00E000933C07E4EEFBEA0E9479
:10441000B83F0E94CA5F00919F07077FA091700775
:10442000A0950A2B59F00091A00703950170009305
:10443000A00721F0EAEFF5E40E94AA5E00E00093F5
:104440003C0703E200933D07EAEDF5E40E94CA5FF2
:10445000B091EE05A091EF05D091F0050E94235F89
:1044600000E000933C07EAEEF5E40E94BE3E00E067
:1044700000933C0709E300933D07E6E6F3EC0E9456
:10448000CA5F0E94F4600E9450520E94AC570E9482
:10449000D74003D3FDD00E94394B0E943B4A0E9473
:1044A000C4130E94AA2B0E946F2D0E94B25200904A
:1044B0006D0710906E0701240092950700919507F3
:1044C000002332F40E94502E00916D0700936E0776
:1044D00000917607002322F400270093760748CF47
:1044E00000916D0700237AF203B1009502950F70D9
:1044F00021F400E000939207C6CF00919207039544
:104500000093920700919207023309F0BCCF0E94FA
:104510008063083051F400E000936F000093A80717
:104520000E94F3260E9489540895043071F400E03B
:1045300000936F000E94F3260E9489540E94521E2D
:104540000E9409270E949D5413CF023089F4A09144
:104550009907A395AB3014F0AA2707C0009169070B
:1045600000231AF4A23009F4A4E0A093990700CF25
:10457000013061F600E000936F000E94F3260E9474
:104580008954B091EB05A091EC05D091ED05C09157
:104590009907ECE4F6E404E00C9FE00DF11DC591F1
:1045A000D59105901590E02DF12D0E943948A02D50
:1045B000B12DAF93BF93C09199075ED0BF91AF91DA
:1045C0000E94B7630E94D2410E9409270E949D5415
:1045D000CFCE54554E494E47000052656D6F7465FD
:1045E00020496E7075743A200000466C69676874E3
:1045F000204D6F6465203A20000000197F22526F21
:104600006C6C0000506974636800D2C5D2C5DAC50D
:10461000DAC5E4C5E4C5BEC5ACC5ACC5C2C5C2C536
:1046200002C612C602C612C602C612C602C6FE459F
:104630000446FE450446440048004C005000540027
:10464000580088008C008E00B100B5000000840383
:10465000000084030000840300008403000084033E
:1046600000008403000084037CFC84037CFC84033E
:10467000D8DC2823D8DC2823EBE1F3E201E00C9F0F
:10468000E00DF11DEE0FFF1FA591B491FD010895FE
:1046900000E00093400500E00093410509E100932C
:1046A000420510915B0520915C0530915D054091BC
:1046B000400550914105609142050E940B64709342
:1046C0005B0580935C0520925D0510915B05209150
:1046D0005C0530915D054091CC065091CD0660910E
:1046E000CE060E940B6470935B0580935C0520925C
:1046F0005D0500915B050093EE0500915C0500935C
:10470000EF0500915D050093F005009199070023E6
:10471000F1F40091D905009340050091DA0500936A
:1047200041050091DB05009342058DD100914005C4
:104730000093B505009141050093B605009142052F
:104740000093B70500916907002392F108950130A5
:1047500001F50091E205009340050091E305009307
:1047600041050091E405009342056DD10E94C943C3
:10477000009140050093C705009141050093C805CD
:10478000009142050093C90500916907002372F169
:1047900008950230D1F40091DC05009340050091AA
:1047A000DD05009341050091DE05009342054BD1E4
:1047B000009140050093B805009141050093B905AB
:1047C000009142050093BA0508950330E1F4009189
:1047D000E505009340050091E60500934105009131
:1047E000E705009342052FD10E94C943009140057F
:1047F0000093CA05009141050093CB050091420545
:104800000093CC0508950430D1F40091DF050093A6
:1048100040050091E005009341050091E1050093FA
:10482000420511D1009140050093BB05009141055F
:104830000093BC05009142050093BD050895053025
:10484000E1F40091E805009340050091E90500932B
:1048500041050091EA0500934205F5D00E94C94345
:10486000009140050093CD05009141050093CE05D0
:10487000009142050093CF0508950630D1F40091D0
:104880005D060093400500915E060093410500918E
:104890005F0600934205D7D00091400500935A0669
:1048A0000091410500935B060091420500935C0670
:1048B0000895073089F530918A0640918B06509112
:1048C0008C0660915B0570915C0580915D05580FC9
:1048D000471F361F3093EB054093EC055093ED05D1
:1048E0000091EB05009384060091EC05009385068A
:1048F0000091ED050093860660918406709185060F
:104900008091860602E00E94FC63609384067093A7
:104910008506809386060895083089F530918D06C6
:1049200040918E0650918F0660915B0570915C05F9
:1049300080915D05580F471F361F3093EB0540935C
:10494000EC055093ED050091EB050093870600916F
:10495000EC05009388060091ED05009389066091AF
:104960008706709188068091890602E00E94FC63A8
:1049700060938706709388068093890608950930AE
:1049800089F53091C6064091C7065091C8066091DE
:104990005B0570915C0580915D05580F471F361FC0
:1049A0003093EB054093EC055093ED050091EB053A
:1049B0000093A8060091EC050093A9060091ED056F
:1049C0000093AA066091A8067091A9068091AA0694
:1049D00004E00E94FC636093A8067093A90680938C
:1049E000AA0608953091C9064091CA065091CB0697
:1049F00060915B0570915C0580915D05580F471FC4
:104A0000361F3093EB054093EC055093ED05009174
:104A1000EB050093AE060091EC050093AF06009104
:104A2000ED050093B0066091AE067091AF068091DF
:104A3000B00604E00E94FC636093AE067093AF067C
:104A40008093B00608953091400540914105509102
:104A5000420560915B0570915C0580915D05580F82
:104A6000471F361F3093EB054093EC055093ED053F
:104A70003CF400E00093EB050093EC050093ED059A
:104A80000091EB05009340050091EC050093410572
:104A90000091ED0500934205089500916D070023F4
:104AA000CAF03091990640919A06415030403093B7
:104AB000990640939A060CF02FC00FEF00937607EB
:104AC00001E00093990600E900939A0600E0009344
:104AD0009B0622C000919F070023F1F0009174070C
:104AE000002311F0AAF00EC008E22B9AE09175079E
:104AF000EA95E093750771F4E0919F07E77FE093F3
:104B00009F0708C00A9509F005C004EC2B9802C065
:104B1000039551F30093740700919D07002322F041
:104B200000916D07002312F02B98089500919F07C4
:104B3000002309F42B9A08952227E3E7F0E00E946E
:104B4000E663102F0E94376105E0E4ECFCE40E946C
:104B5000B45F06E600933C0701E000933D07BB27E6
:104B6000A12FA395DD270E94E25E222319F40E9463
:104B7000665F02C00E94595FE8EBFCE404E0029F1C
:104B8000E00DF11D0E94AA5E0E94F4600E94A263E3
:104B9000083009F40895043021F42A9542F422E003
:104BA000CCCF023029F4239523300CF02227C5CF37
:104BB0000130E9F7203091F4A12FA395BB27C1E084
:104BC000D0E0E4E0F0E00E943948A02DAA951A2F29
:104BD000E3E7F0E00E94C8632227AFCF213019F449
:104BE000BED021E0AACFE2EAFCE40E946E6101306F
:104BF00011F022E0A2CF0E944A370E94945D0E94E9
:104C00000F3908950E944561AA2341F408E20093F8
:104C10003C07EEECFCE40E94CA5F07C002E200938E
:104C20003C07E4E4F3EC0E94CA5F01E00093410713
:104C3000B2E000E000933C0701E100933D070A2F3A
:104C4000BF930F93E2E5FDE40E94AB5F00E00093A9
:104C50003C070E94245F0F910395BF91BA9581F79D
:104C60000E948F5F0E94F4600E94A96308954465CA
:104C70006661756C742050726F66696C653A2000CD
:104C800046756E6374696F6E733A0000496D706F9C
:104C9000727420757365722070726F66696C652E10
:104CA00000005265736574206163746976652070D5
:104CB000726F66696C652E0065006D09001B7F24AC
:104CC00000247F2D6E4CE4AB804C8C4CA24C444FA6
:104CD0004E450000416C6C206461746120636F700C
:104CE0006965642066726F6D000074686520736585
:104CF0006C65637465642070726F66696C652E0004
:104D00005468652073656C65637465642070726FA8
:104D100066696C6573006D757374206265206469E3
:104D200066666572656E742E000050726F66696CFF
:104D3000652023312063616E206F6E6C790062659F
:104D400020656469746564206D616E75616C6C7951
:104D50002E00D44CEA4C004D164D2A4D3E4D00918C
:104D60000508002311F4A4E00FC0A1E0BB27C1E0B7
:104D7000D0E0E4E0F0E00E943948A02DAA9500912F
:104D800005080A1719F4A2E03DDF0895AF93ECE897
:104D9000FCE40E946E61013011F0AF910895EE279E
:104DA000CF91299AFC2F0E94E663A02F0E94C66330
:104DB000EE23C1F729980E94945DAA27E5CFC2305F
:104DC00019F0C43009F00895C695C17009F4CFEF09
:104DD000A0910508CA0FC370C09305080E94ED3664
:104DE0000E94945D089500910508002309F4089538
:104DF00003950093070804E6009306080027009334
:104E0000080800E004BD05E005BD01E000936E0068
:104E1000089500E000936E002B980895FFB69091DE
:104E200006089A95C9F4E0900808EE2019F42B9A28
:104E30009FE00FC02B98909107089A9521F09093CE
:104E400007089FE006C09091050893959093070886
:104E500098ECE094E092080890930608FFBE18953D
:104E60000091EA060093EF060091EB060093F0062E
:104E70000091EC060093F1060091ED060093F20616
:104E80000091EE060093F30608953090EA064090F4
:104E9000EB065090EC066090ED067090EE062091C7
:104EA000EA063091EB064091EC065091ED066091D8
:104EB000EE060E947C64B0931707C0931807D09346
:104EC0001907E0931A07F0931B07309017074090DB
:104ED00018075090190760901A0770901B0701E09F
:104EE0000E941565309217074092180750921907D3
:104EF00060921A0770921B0701E000931C0700E004
:104F000000931D0700E000931E0700E000931F07B9
:104F100000E00093200730901C0740901D07509040
:104F20001E0760901F07709020072091170730918F
:104F300018074091190750911A0760911B07761ABC
:104F4000650A540A430A320A3092F4064092F50682
:104F50005092F6066092F7067092F8060895B093A4
:104F6000EA06A093EB06D093EC06C093ED06F0930F
:104F7000EE063090EA064090EB065090EC0660900A
:104F8000ED067090EE062091DB063091DC06409134
:104F9000DD065091DE066091DF060E947C64B093CE
:104FA000EA06C093EB06D093EC06E093ED06F0938F
:104FB000EE060895FF27CD2FDA2FAB2FBB2312F477
:104FC000BFEF0895BB2708954BDF5FDF30900D07DB
:104FD00040900E0750900F076090100770901107D7
:104FE0002091F4063091F5064091F6065091F706AF
:104FF0006091F8060E947C64B0932B07C0932C0745
:10500000D0932D07E0932E07F0932F0730901207CF
:105010004090130750901407609015077090160782
:105020002091EF063091F0064091F1065091F20682
:105030006091F3060E947C64B0931707C093180731
:10504000D0931907E0931A07F0931B0730902B07B2
:1050500040902C0750902D0760902E0770902F07DE
:1050600020911707309118074091190750911A079E
:1050700060911B07761A650A540A430A320A309275
:105080002B0740922C0750922D0760922E077092AA
:105090002F0730900D0740900E0750900F0760903B
:1050A0001007709011072091EF063091F0064091A3
:1050B000F1065091F2066091F3060E947C64B09371
:1050C0003007C0933107D0933207E0933307F09352
:1050D00034073090120740901307509014076090E7
:1050E0001507709016072091F4063091F50640914F
:1050F000F6065091F7066091F8060E947C64B09322
:105100001707C0931807D0931907E0931A07F09375
:105110001B07309030074090310750903207609065
:10512000330770903407209117073091180740918A
:10513000190750911A0760911B07760E651E541EC1
:10514000431E321E30923007409231075092320790
:1051500060923307709234070895F894A091840008
:10516000B09185007894E0914707F0914807A093AB
:105170004707B0934807AE1BBF0B2AF4E0E0F0E00E
:10518000EA1BFB0BDF01DD27B695A795D795B695F2
:10519000A795D795B695A795D795B695A795D79581
:1051A000CC27FF27B093E506A093E606D093E70649
:1051B000C093E806F093E9063090E5064090E606D5
:1051C0005090E7066090E8067090E9062091E006AE
:1051D0003091E1064091E2065091E3066091E406C9
:1051E0000E947C64B093DB06C093DC06D093DD069E
:1051F000E093DE06F093DF06B0917905A0917A0581
:10520000D0917B05D7DEABDE0091FE0600930D0743
:105210000091FF0600930E070091000700930F070F
:1052200000910107009310070091020700931107F6
:1052300000910307009312070091040700931307DE
:1052400000910507009314070091060700931507C6
:105250000091070700931607B7DE00912B07009314
:10526000FE0600912C070093FF0600912D07009386
:10527000000700912E070093010700912F0700936C
:105280000207009130070093030700913107009354
:10529000040700913207009305070091330700933C
:1052A00006070091340700930707B0917605A09197
:1052B0007705D09178057EDE52DE0091F9060093E5
:1052C0000D070091FA0600930E070091FB0600936C
:1052D0000F070091FC06009310070091FD06009354
:1052E0001107009103070093120700910407009330
:1052F0001307009105070093140700910607009318
:10530000150700910707009316075EDE00912B0733
:105310000093F90600912C070093FA0600912D07DF
:105320000093FB0600912E070093FC0600912F07C7
:105330000093FD06009130070093030700913107A9
:10534000009304070091320700930507009133078B
:10535000009306070091340700930707B0916A0590
:10536000A0916B05D0916C0525DEF9DD0091F90661
:1053700000930D070091FA0600930E070091FB06BB
:1053800000930F070091FC06009310070091FD06A3
:10539000009311070091FE06009312070091FF068B
:1053A0000093130700910007009314070091010771
:1053B00000931507009102070093160705DE009180
:1053C0002B070093F90600912C070093FA06009131
:1053D0002D070093FB0600912E070093FC06009119
:1053E0002F070093FD06009130070093FE06009101
:1053F00031070093FF0600913207009300070091E8
:1054000033070093010700913407009302070895C2
:105410003090F9064090FA065090FB066090FC062A
:105420007090FD062091F9063091FA064091FB0636
:105430005091FC066091FD060E947C64B0931707B2
:10544000C0931807D0931907E0931A07F0931B072E
:105450003090FE064090FF065090000760900107D4
:10546000709002072091FE063091FF0640910007E0
:1054700050910107609102070E947C64B0931C0761
:10548000C0931D07D0931E07E0931F07F0932007DA
:1054900030901707409018075090190760901A072E
:1054A00070901B0720911C0730911D0740911E072B
:1054B00050911F0760912007760E651E541E431EF3
:1054C000321E3092170740921807509219076092C7
:1054D0001A0770921B073090030740900407509002
:1054E0000507609006077090070720910307309129
:1054F00004074091050750910607609107070E9435
:105500007C64B0931C07C0931D07D0931E07E093E3
:105510001F07F0932007309017074090180750900E
:10552000190760901A0770901B0720911C07309193
:105530001D0740911E0750911F0760912007760EAE
:10554000651E541E431E321E309208074092090702
:1055500050920A0760920B0770920C070895009111
:10556000F906009326070091FA0600932707009199
:10557000FB06009328070091FC0600932907009181
:10558000FD0600932A072ED00091A50600939F06E2
:105590000091A6060093A0060091A7060093A1061D
:1055A0000091FE06009326070091FF06009327074F
:1055B0000091000700932807009101070093290735
:1055C0000091020700932A070DD00091A5060093D1
:1055D000A2060091A6060093A3060091A7060093D9
:1055E000A40608950AE500931C0700E000931D0738
:1055F00000E000931E0700E000931F0700E0009307
:105600002007309026074090270750902807609089
:10561000290770902A0720911C0730911D0740919F
:105620001E0750911F07609120070E947C64B09371
:105630001707C0931807D0931907E0931A07F09340
:105640001B07B0911707A0911807D0911907C091B7
:105650001A07F0911B07AFDCB093A506A093A6062E
:10566000D093A706089502E301B90AE004B90CEF4C
:1056700007B902EF0AB90FEF00937E0005EF05B9F5
:1056800003E008B90DE00BB900E00093800002E0F0
:105690000093810000E00093820005E1009369001F
:1056A00003E00DBB0AE00093680001E00093730083
:1056B00005E000936C000091B9000C7F0093B900E5
:1056C00001E10093B8005D9A5C9A5E982B9A299A42
:1056D000A4EFB1E00E946D632B9829985E9AA4E62E
:1056E000B0E00E946D6308950E94456106E1009359
:1056F0003C07EEE2F7E50E942B5F04E0ECE4F7E5FF
:105700000E94B45F04E200933C070AE100933D0766
:1057100000914A07EAEDF1E00E94AB5F0E94775FDB
:105720000E94F4600E94A2630830E1F70895564594
:105730005253494F4E004B4B322E312B2B20416C94
:105740006C2D696E2D4F6E652052360036578001E4
:10575000E4AB5AC500E00093400500934105009377
:1057600042053091810640918206509183066091F6
:10577000400570914105809142055817470736074B
:1057800059F030918106409182064150304030936B
:1057900081064093820603C0002700939E07009174
:1057A000A30700236AF4009182070A9500938207F9
:1057B000002331F400270093A307AFEAA0938207E8
:1057C00000906D07109070070120009295070091DE
:1057D0009507002322F500918007002302F1309104
:1057E0007E0640917F064150304030937E064093C4
:1057F0007F06ACF403E000937E0600E200937F0690
:1058000000E0009380060FEF00939E0700E00093F6
:10581000810604E10093820600E000938306009075
:105820006D0710906E07012400929507009195076F
:1058300000233AF400E0009393060093940600934B
:10584000950600E00093400500E00093410501E06B
:10585000009342053091930640919406509195062D
:10586000609140057091410580914205580F471F96
:10587000361F3093930640939406509395060DE798
:105880000093400500E00093410500E000934205CD
:105890003091930640919406509195066091400591
:1058A000709141058091420558174707360764F00B
:1058B00000914005009393060091410500939406E2
:1058C000009142050093950600918007002322F085
:1058D00000917F07002372F400918107002319F1E2
:1058E0000A950093810700E00093960600939706BF
:1058F000009398060AE0009340050CEF00934105E1
:1059000000E800934205309193064091940650912F
:1059100095066091400570914105809142055817A8
:105920004707360704F1309196064091970641509B
:1059300030403093960640939706ACF407E000930E
:10594000960600ED0093970600E0009398060FEF8F
:1059500000939E0701E00093810600E90093820610
:1059600000E00093830600909E0710909D07012899
:1059700000929507009095071090A30701280092C8
:10598000950700919507002312F029980895299A08
:1059900008950F93EF93FF93EEEAF0E00E94E46323
:1059A000FF91EF91002312F00F910895CF93299A60
:1059B000C2E30E9472632998CF910F910895402FFE
:1059C0002A2F3B2F0E94266101E00093400704E04C
:1059D00000934107203049F00AE300933C0700E0C0
:1059E00000933D0700E00E94D05F022F0B5F041779
:1059F00049F00AE300933C0702E300933D0701E00E
:105A00000E94D05F01E00093410708E000933D074A
:105A1000112700E000933C07FE01022F010F0E94B6
:105A2000AB5F00903D0708E0000E00923D07139524
:105A3000153079F708E0039F002D095F00933D07BB
:105A4000075F00933F0700E000933C070FE70093D8
:105A50003E0700E0009340070E94985E0E944F5F5F
:105A60000E94F460AEE10E948063003021F0097072
:105A7000D1F7AA95C1F70E94A363083019F4AA27A9
:105A8000889429C0043061F4303019F03A950C94B0
:105A90006E2D203019F02A950C946E2D0C946E2DDD
:105AA000023071F4343019F033950C946E2D042FBC
:105AB0000550201719F023950C946E2D0C946E2D23
:105AC000013061F40E9426610E94F4600E949E638E
:105AD000A22FA30F0894C22FD32F089573CF309114
