:020000020000FC
:100000000C943F000C945E330C943E330C943E00F1
:100010000C943E000C949E330C943E000C947E3362
:100020000C943E000C943E000C943E000C94533112
:100030000C943E000C94042F0C94372F0C943E002B
:100040000C943E000C943E000C94E4060C943E008C
:100050000C943E000C943E000C943E000C943E0028
:100060000C943E000C943E000C943E000C943E0018
:100070000C943E000C943E000C943E0018950FEF3B
:100080000DBF08E00EBFA4E6B0E00E94093B0E944D
:10009000E60A0E940E0F0E9490390E94C2390E9407
:1000A0009039E0E7F0E00E94703B03700093550741
:1000B0000E94AA1600E00093E30600E00093E40625
:1000C00000E00093E50600E00093E60603E00093FD
:1000D0008E050FEF00938F0500E00093900501E07F
:1000E00000936C060EE800936D0600E000936E0628
:1000F00000270093330700933407009326070093EB
:10010000070700930E07AFEAA0931607A2E0A0939B
:100110001707A1E0A0931F07A093190700931407E6
:10012000009335070093360700933707009338078D
:100130000093390700933A0700933B0700933C076D
:1001400000933D0700933E0700933F07009340074D
:10015000009341070093420700934307009344072D
:100160000093F1060093F206AAEFA093F306A09382
:10017000F406A093F506A093F606A093F706A093C5
:10018000F806A093F906A093FA06A0EFA0932C0717
:100190000E9402197894E3E7F0E00E94703B00238C
:1001A00051F00E94261603B1009502950F7061F080
:1001B0000E94351509C00FEF009325070E941C3BD4
:1001C000083011F40E94150F0E94731E06E006BB52
:1001D0000E94E12E0E94EB330E948F1D0E94F40DBD
:1001E0000E94B2270E94D30F0E947E260E94F6032F
:1001F0000E944F0B0E940C0D0E94432F00900A0793
:1002000010900B070124009222070091220700237F
:1002100032F40E94C10D00910A0700930B07009170
:10022000100700232AF40027009310070E94981B50
:1002300000910A0700230AF4CBCF03B10095029581
:10024000077039F400270093250700E0009320078A
:10025000BFCF00912007039500932007009120074E
:10026000023309F0B5CF00912507002372F300E0B7
:1002700000936F000E941C3B077039F3013019F0A6
:100280000E94B706A1CF0E94610C29980E94C9065E
:100290000E9409310E9463350E9441310E94DF06AD
:1002A00093CF0E94731E0E94DF060E9441310E947C
:1002B000E13900910A0700235AF402E20093DD06B7
:1002C00006E10093DE06E0ECF9E30E945D385DC0D4
:1002D0000CE10093DD06ECEBF4E00E94CF3700E088
:1002E0000093DD0600912607043064F4A091050711
:1002F000AA2341F0017000932607E8E6F5E70E9483
:100300005D3804C0E0EFF4E00E943E3800E20E9455
:10031000633800912607E6E0F5E00E943E380E942F
:10032000E637C09126071BD10E94383B0E948637D2
:1003300000E00093DD060EE10093DE06E4ECF4E05D
:100340000E944F1D0E945D3800912C07077FA091ED
:100350000C07A0950A2B59F000912D0703950093E7
:100360002D07017021F0E0EEF4E00E944E3700E02E
:100370000093DD0607E20093DE06E8EDF4E00E945C
:100380005D380E94BE1C0E9406380E9490390E946F
:10039000E12E0E94EB330E948F1D0E94F40D0E94FB
:1003A000B2270E947E260E94F6030E944F0B0E94F5
:1003B0000C0D0E94432F00900A0710900B07012498
:1003C0000092220700912207002332F40E94C10DFF
:1003D00000910A0700930B0700911007002322F4F5
:1003E00000270093100763CF00910A0700230AF447
:1003F000CECF03B1009502950F7021F400E0009379
:100400002007C5CF00912007039500932007009196
:100410002007023309F0BBCF0E941C3B083041F497
:1004200000E000936F000E94C9060E940931089500
:10043000043031F4A0912607AA9592F4AAE010C0E6
:10044000023089F4A0912607A395AB3014F0AA27B7
:1004500007C00091050700231AF4A23009F4A4E0B4
:10046000A093260724CF0130B1F600E000936F007F
:100470000E94C9060E940931C091260770D0EF93EF
:10048000FF930E94383BE2E3F5E004E00C9FE00DAF
:10049000F11DC591D59105901590E02DF12D0E948B
:1004A0006A24A02DB12DFF91EF910E94413B0E9443
:1004B000731E0E94DF060E944131F9CE4849434035
:1004C000433F0000526561647920666F7220746159
:1004D0006B652D6F666621004D6F64653A200000E4
:1004E000001D7F26526F6C6C0000506974636800B9
:1004F0007075707578757875827582755C755275D2
:10050000527560756075A075B075A075B075A075F1
:10051000B075A075E404EA04E404EA044400480069
:100520004C005000540058007F0083008500990063
:100530009D00000084030000840300008403000089
:1005400084030000840300008403000084037CFC17
:1005500084037CFC8403D8DC2823D8DC2823EEE841
:10056000F2E001E00C9FE00DF11DEE0FFF1FA591E1
:10057000B491FD0108950E94C5220E94A22300911A
:100580000207007C09F01ED10E94D33905E0E2EF9A
:10059000F6E00E94473801E00093DE0628E4E9E92E
:1005A000F0E007D106D105D104D12093DD060E94E9
:1005B000E637E5EAF0E00E944A3B0093310701701C
:1005C000E8E0F7E00E943E3800E00093DD0609E332
:1005D0000093DE06E8EEF4E70E945D38E2EFF4E710
:1005E0000E945D38EEE2F7E004E0019FE00DF11DAE
:1005F0000E944E370E9490390E94313B083009F426
:100600000895043011F422D0BFCF023029F413959D
:1006100015300CF01127B8CF0130E9F7143051F440
:10062000A0913107A095A0933107E5EAF0E00E9480
:10063000503BAACFE9E9F0E002E0019FE00DF11D97
:10064000C8EDDCEDA8E2B3E2A3D09ECF112724E5EC
:100650000E94D33902E0EAE2F7E00E94473801E065
:100660000093DE06E1EAF0E0A4D0A3D00E940638B1
:10067000E2E4F7E004E0019FE00DF11D0E944E3737
:100680000E9490390E94313B083011F411270895DF
:10069000043019F41A951170DBCF0230D9F3013010
:1006A000D9F7E1EAF0E002E0019FE00DF11DC8E1B9
:1006B000DCEFA8EEB3E06CD0CBCF526F6C6C204770
:1006C00061696E00526F6C6C204F666673657400D2
:1006D0005069746368204761696E000050697463F3
:1006E00068204F666673657400004D6978696E67AF
:1006F0000000BA06C406D006DC06EA064E6F6E6538
:100700000000446966660000FC060207486F6D65DC
:1007100020506F7320526F6C6C00486F6D652050D5
:100720006F7320506974636800000C071A07530048
:100730007309530973125312731B531B73245324ED
:10074000732D5F007F095F097F124F757470757498
:1007500020747970652069732073657420746F004C
:1007600045534320666F72204D3720616E642F6FB2
:1007700072204D382E00436865636B204D697865A3
:100780007220456469746F722E004A07600776070D
:10079000EF93FF93AF93BF930E94383BFF91EF918C
:1007A0000E946A24A02DB12DFF91EF910E94413B40
:1007B00008952093DD060E94E6370E94383B0E9490
:1007C000C73708950E94E1390E94D73703E0EAE86D
:1007D000F7E00E9447380E9422380E9490390E9418
:1007E000313B0130E1F70E942D3B089500E000937A
:1007F00040050093410500934205309181064091E8
:100800008206509183066091400570914105809168
:10081000420558174707360709F011C0309187067F
:10082000409188065091890660914005709141057C
:100830008091420558174707360709F4089500913B
:100840001F07023029F50091960600935505009187
:10085000970600935605009198060093570500915E
:100860009306009358050091940600935905009152
:10087000950600935A0500E00093900600939106B8
:100880000093920600938D0600938E0600938F06C8
:10089000A5E5B5E0C5E5D5E0EAE8F6E00E94863BCF
:1008A000A8E5B5E0C8E5D5E0E4E8F6E00E94863BBF
:1008B00003E00093400508EE0093410500E000933B
:1008C0004205A5E5B5E0C5E5D5E0E0E4F5E00E9428
:1008D000863BA8E5B5E0C8E5D5E0E0E4F5E00E9498
:1008E000863B00E00093400502E00093410500E8EC
:1008F00000934205109155052091560530915705FA
:100900004091400550914105609142050E949C3BF9
:1009100070939C0680939D0620929E061091580528
:100920002091590530915A0540914005509141055B
:10093000609142050E949C3B7093990680939A06B1
:1009400020929B0600911F07013041F510916F0620
:100950002091700630917106409181065091820677
:10096000609183060E949C3B70938D0680938E0657
:1009700020928F06109172062091730630917406B2
:100980004091870650918806609189060E949C3BA1
:100990007093900680939106209292060091310701
:1009A00000230AF078C000918D0600934005009165
:1009B0008E060093410500918F0600934205309109
:1009C0008D0640918E0650918F0660919006709131
:1009D000910680919206581B470B360B30938D067B
:1009E00040938E0650938F06A0E9B6E0C0E9D6E0AA
:1009F000E0E4F5E00E94863B0091990600934005F3
:100A000000919A060093410500919B0600934205D0
:100A10003091990640919A0650919B0660919C06F0
:100A200070919D0680919E06581B470B360B3093A4
:100A3000990640939A0650939B06ACE9B6E0CCE940
:100A4000D6E0E0E4F5E00E94863B09E00093400533
:100A500004EC0093410500E000934205A9E9B6E0EB
:100A6000C9E9D6E0E0E4F5E00E94863B30919C06BF
:100A700040919D0650919E06609140057091410500
:100A800080914205581B470B360B30939C064093D0
:100A90009D0650939E06A4EFB5E0CDE8D6E0E9E9C7
:100AA000F6E00E94863BA7EFB5E0C0E9D6E0ECE9AE
:100AB000F6E00E94863B0091F40500932406009125
:100AC000F505009325060091F60500932606009192
:100AD000F705009327060091F8050093280600917A
:100AE000F9050093290608952227E0E7F0E00E9427
:100AF000703B102F0E94D33905E0E8E7FCE00E942C
:100B0000473806E60093DD0601E00093DE06BB27CA
:100B1000A12FA395DD270E948637222319F40E9476
:100B2000063802C00E94FC37ECE6FCE004E0029FBD
:100B3000E00DF11D0E944E370E9490390E94313B1A
:100B4000083009F40895043021F42A9542F422E093
:100B5000CCCF023029F4239523300CF02227C5CFC7
:100B60000130E9F7203091F4A12FA395BB27C1E014
:100B7000D0E0E4E0F0E00E946A24A02DAA951A2FAC
:100B8000E0E7F0E00E94523B2227AFCF213019F47A
:100B9000C0D021E0AACFE6E5FCE00E940A3A01308D
:100BA00011F022E0A2CF0E94E4160E94C11708951E
:100BB0000E94E139AA2341F408E20093DD06E2E84D
:100BC000FCE00E945D3807C002E20093DD06EAE720
:100BD000F4E70E945D3801E00093E206B2E000E035
:100BE0000093DD0601E10093DE060A2FBF930F9309
:100BF000E6E0FDE00E943E3800E00093DD060E9442
:100C0000C8370F910395BF91BA9581F70E9422389A
:100C10000E9490390E94313B0130E1F70E942D3B48
:100C2000089544656661756C742050726F66696CD6
:100C3000653A200046756E6374696F6E733A000002
:100C4000496D706F727420757365722070726F6673
:100C5000696C652E00005265736574206163746968
:100C600076652070726F66696C652E0065006D098F
:100C7000001B7F2400247F2D220C8065340C400C47
:100C8000560C3C44433D0000416C6C20646174612F
:100C900020636F706965642066726F6D0000746810
:100CA000652073656C65637465642070726F666936
:100CB0006C652E005468652073656C6563746564AB
:100CC0002070726F66696C6573006D757374206255
:100CD0006520646966666572656E742E00005072E8
:100CE0006F66696C652023312063616E206F6E6CC6
:100CF0007900626520656469746564206D616E7554
:100D0000616C6C792E00880C9E0CB40CCA0CDE0C45
:100D1000F20C00915507002311F4A4E00FC0A1E0EC
:100D2000BB27C1E0D0E0E4E0F0E00E946A24A02DFF
:100D3000AA95009155070A1719F4A2E039DF089522
:100D4000AF93E0E4FCE00E940A3A013011F0AF9169
:100D50000895EE27CF91299AFC2F0E94703BA02F77
:100D60000E94503BEE23C1F72998AA27E7CF023013
:100D700019F0043009F008950695017009F40FEF99
:100D8000A09155070A0F0370009355070E94AA16F9
:100D9000089500915507002309F4089503950093E1
:100DA000570704E60093560700270093580700E012
:100DB00004BD05E005BD01E000936E00089500E06C
:100DC00000936E002B980895FFB6909156079A9560
:100DD000C9F4E0905807EE2019F42B9A9FE00FC059
:100DE0002B98909157079A9521F0909357079FE081
:100DF00006C09091550793959093570798ECE0940F
:100E0000E092580790935607FFBE189500919F06F1
:100E10000093A3060091A0060093A4060091A106EA
:100E20000093A5060091A2060093A60608952090BF
:100E30009F063090A0064090A1065090A2066090B8
:100E40009F067090A0068090A1069090A2060E9436
:100E50000D3C1093C3062093C4063093C5064093FF
:100E6000C6065091C3066091C4067091C506809174
:100E7000C60601E00E94793C5093C3066093C40605
:100E80007093C5068093C60601E00093C70600E094
:100E90000093C80600E00093C90600E00093CA066C
:100EA0001091C7062091C8063091C9064091CA0624
:100EB0005091C3066091C4067091C5068091C60624
:100EC000481B370B260B150B1093A7062093A8067B
:100ED0003093A9064093AA060895B0939F06A09365
:100EE000A006D093A106C093A20603E00093C30618
:100EF00007E00093C4060EEA0093C50600E00093E5
:100F0000C60620909F063090A0064090A106509003
:100F1000A2066090C3067090C4068090C5069090AB
:100F2000C6060E940D3C10939F062093A0063093A6
:100F3000A1064093A2060895CD2FDA2FAB2FBB2335
:100F400012F4BFEF0895BB27089560DF70DF209093
:100F5000BB063090BC064090BD065090BE06609027
:100F6000A7067090A8068090A9069090AA060E94F5
:100F70000D3C1093D3062093D4063093D5064093AE
:100F8000D6062090BF063090C0064090C106509013
:100F9000C2066090A3067090A4068090A50690906B
:100FA000A6060E940D3C1093C3062093C4063093FE
:100FB000C5064093C6061091D3062091D406309101
:100FC000D5064091D6065091C3066091C406709133
:100FD000C5068091C606481B370B260B150B1093D0
:100FE000D3062093D4063093D5064093D60620909E
:100FF000BB063090BC064090BD065090BE06609087
:10100000A3067090A4068090A5069090A6060E9464
:101010000D3C1093D7062093D8063093D906409301
:10102000DA062090BF063090C0064090C10650906E
:10103000C2066090A7067090A8068090A9069090BE
:10104000AA060E940D3C1093C3062093C406309359
:10105000C5064093C6061091D7062091D806309158
:10106000D9064091DA065091C3066091C40670918A
:10107000C5068091C606480F371F261F151F1093FF
:10108000D7062093D8063093D9064093DA06089500
:10109000B0917305A0917405D09175054DDF1DDFEA
:1010A0000091AF060093BB060091B0060093BC060A
:1010B0000091B1060093BD060091B2060093BE06F2
:1010C0000091B3060093BF060091B4060093C006DA
:1010D0000091B5060093C1060091B6060093C206C2
:1010E00034DF0091D3060093AF060091D40600933D
:1010F000B0060091D5060093B1060091D606009384
:10110000B2060091D7060093B3060091D80600936B
:10111000B4060091D9060093B5060091DA06009353
:10112000B606B0917005A0917105D091720504DFEB
:10113000D4DE0091AB060093BB060091AC06009391
:10114000BC060091AD060093BD060091AE0600936B
:10115000BE060091B3060093BF060091B40600934B
:10116000C0060091B5060093C1060091B606009333
:10117000C206EBDE0091D3060093AB060091D406C5
:101180000093AC060091D5060093AD060091D606FB
:101190000093AE060091D7060093B3060091D806DF
:1011A0000093B4060091D9060093B5060091DA06C3
:1011B0000093B606B0916405A0916505D0916605CF
:1011C000BBDE8BDE0091AB060093BB060091AC0644
:1011D0000093BC060091AD060093BD060091AE06DB
:1011E0000093BE060091AF060093BF060091B006C3
:1011F0000093C0060091B1060093C1060091B206AB
:101200000093C206A2DE0091D3060093AB060091C4
:10121000D4060093AC060091D5060093AD0600916C
:10122000D6060093AE060091D7060093AF06009154
:10123000D8060093B0060091D9060093B10600913C
:10124000DA060093B20608952090AB063090AC0603
:101250004090AD065090AE066090AB067090AC0624
:101260008090AD069090AE060E940D3C1093C30690
:101270002093C4063093C5064093C6062090AF065F
:101280003090B0064090B1065090B2066090AF0624
:101290007090B0068090B1069090B2060E940D3C0E
:1012A0001093C7062093C8063093C9064093CA0618
:1012B0001091C3062091C4063091C5064091C60620
:1012C0005091C7066091C8067091C9068091CA0600
:1012D000480F371F261F151F1093C3062093C406FF
:1012E0003093C5064093C6062090B3063090B406EE
:1012F0004090B5065090B6066090B3067090B40664
:101300008090B5069090B6060E940D3C1093C706DB
:101310002093C8063093C9064093CA061091C306AD
:101320002091C4063091C5064091C6065091C7066B
:101330006091C8067091C9068091CA06480F371F90
:10134000261F151F1093B7062093B8063093B906D1
:101350004093BA0608950091AB060093CF06009122
:10136000AC060093D0060091AD060093D106009123
:10137000AE060093D2062AD00091750600936F0640
:10138000009176060093700600917706009371062F
:101390000091AF060093CF060091B0060093D006EF
:1013A0000091B1060093D1060091B2060093D206D7
:1013B0000DD0009175060093720600917606009399
:1013C0007306009177060093740608950AE500936A
:1013D000C70600E00093C80600E00093C90600E0DD
:1013E0000093CA062090CF063090D0064090D106D8
:1013F0005090D2066090C7067090C8068090C906CB
:101400009090CA060E940D3C1093C3062093C40618
:101410003093C5064093C606B091C306A091C4069A
:10142000D091C506C091C60687DDB0937506A0931E
:101430007606D0937706089511270E94D33905E0E8
:10144000E8E0F6E70E94473801E00093DE06BEE4DC
:101450000E94E73201E00093DE0620E3C5E4D7E016
:10146000EDEAF0E08AD089D088D087D086D001E03C
:101470000093DE0626E681D080D07FD00E94063819
:10148000ECEEF4E104E0019FE00DF11D0E944E3707
:101490000E9490390E94313B083029F482D010F428
:1014A00055D0CBCF0895043019F41A951770C5CFD5
:1014B000023011F41395FACF0130B9F4EDEAF0E0FF
:1014C000BB27E10FFB1FEF93FF930E944A3BAA95B6
:1014D000A770A395C1E0D0E0E8E0F0E00E946A24A4
:1014E000A02DFF91EF910E94503BA7CF39004509F5
:1014F000390945123912451B391B45243924452D1C
:101500006F007B096F097B126F127B1B4368616E52
:101510006E656C206D617070696E67206973000084
:10152000696E76616C69642E204475706C696361C4
:1015300074657300617265206E6F7420616C6C6FEE
:101540007765642E00000C15201534150E94E139D2
:1015500002E20093DD06EAE7F4E70E94CF3703E0FA
:10156000E6E4F5E10E9447380E9422380E94903953
:101570000E94313B0130E1F708952093DD060E947F
:10158000E6370E944A3B0A950993087F31F00DE245
:101590000E9463380E94C8370895BB270E94C7374E
:1015A0000895C5E4D7E0EE27B8E00991A02FA87F01
:1015B00059F40894AA1F0A95EAF7EA2BBA95A9F7F5
:1015C000E09511F4889408950894089500E001B915
:1015D0000AE004B90FEF07B902EF0AB90FEF009361
:1015E0007E0005EF05B90DE00BB900E00093800027
:1015F00002E00093810000E00093820005E1009387
:10160000690003E00DBB0AE00093680001E000936D
:10161000730005E000936C005D9A5C9A5E982B9ACB
:10162000299AA4EFB1E00E94093B2B9829985E9A71
:10163000A4E6B0E00E94093B08950E94E13906E16A
:101640000093DD06E8E6F6E10E94CF3704E0E6E924
:10165000F6E10E9447380E9414380E9490390E9497
:10166000313B0830E1F708954A3D46474044430086
:101670004B4B322E302076312E362B2B205234001D
:10168000666F72207374616E6461726420525820B8
:101690006F6E6C792E00701680168065047500E000
:1016A0000093400500934105009342053091570691
:1016B000409158065091590660914005709141053E
:1016C0008091420558174707360759F03091570661
:1016D0004091580641503040309357064093580689
:1016E00003C0002700932B070091300700236AF402
:1016F000009116070A9500931607002331F400277E
:1017000000933007AFEAA093160700900A071090E5
:101710000C0701200092220700912207002322F5E6
:1017200000911407002302F13091540640915506B0
:10173000415030403093540640935506ACF403E0DA
:101740000093540600E20093550600E0009356060D
:101750000FEF00932B0700E00093570604E100937E
:10176000580600E00093590600900A0710900B07F6
:101770000124009222070091220700233AF400E09E
:1017800000936306009364060093650600E00093EF
:10179000400500E00093410501E000934205A3E607
:1017A000B6E0C3E6D6E0E0E4F5E00E94863B0DE754
:1017B0000093400500E00093410500E000934205DE
:1017C0003091630640916406509165066091400532
:1017D000709141058091420558174707360764F01C
:1017E0000091400500936306009141050093640653
:1017F000009142050093650600911407002322F032
:1018000000911307002372F400911507002319F1CA
:101810000A950093150700E000936606009367069B
:10182000009368060AE0009340050CEF0093410521
:1018300000E80093420530916306409164065091A0
:1018400065066091400570914105809142055817E9
:101850004707360704F1309166064091670641500C
:1018600030403093660640936706ACF407E000937F
:10187000660600ED0093670600E0009368060FEF30
:1018800000932B0701E00093570600E900935806E8
:1018900000E00093590600902B0710902A070128BA
:1018A0000092220700902207109030070128009232
:1018B000220700912207002312F029980895299AFF
:1018C00008950F93EF93FF93E5E9F0E00E946E3BDC
:1018D000FF91EF91002312F00F910895CF93299A71
:1018E000C2E30E940E3B2998CF910F910895402F9B
:1018F0002A2F3B2F0E94C23901E00093E10604E049
:101900000093E206203049F00AE30093DD0600E090
:101910000093DE0600E00E946338022F0B5F04177D
:1019200049F00AE30093DD0602E30093DE0601E0DE
:101930000E94633801E00093E20608E00093DE06AF
:1019400015E0FE0104E1029FE00DF11D00E00093AF
:10195000DD06A4E105910E946338AA95D9F70090AD
:10196000DE0608E0000E0092DE061A9579F708E020
:10197000039F002D095F0093DE06075F0093E006DA
:1019800000E00093DD060FE70093DF0600E0009320
:10199000E1060E943C370E94F2370E949039AEE186
:1019A0000E941C3B003021F00970D1F7AA95C1F7C5
:1019B0000E94323B083019F4AA27889429C00430C9
:1019C00061F4303019F03A950C940B0D203019F079
:1019D0002A950C940B0D0C940B0D023071F43430DD
:1019E00019F033950C940B0D042F0550201719F0A6
:1019F00023950C940B0D0C940B0D013061F40E9497
:101A0000C2390E9490390E942D3BA22FA30F089447
:101A1000C22FD32F08956ECF30918805409189054C
:101A200050918A0560918E0570918F058091900587
:101A300058174707360764F40091880500938E0510
:101A40000091890500938F0500918A050093900508
:101A5000309188054091890550918A0560918B05E8
:101A600070918C0580918D05581B470B360B309378
:101A7000A3054093A4055093A5056091A30570911B
:101A8000A4058091A50508E00E94933B6093A305FF
:101A90007093A4058093A505ABE8B5E0CBE8D5E04D
:101AA000E3EAF5E00E94863B30913C0640913D061A
:101AB00050913E0660918B0570918C0580918D054B
:101AC000581B470B360B3093A3054093A405509346
:101AD000A5050AF44FC06091A3057091A4058091FB
:101AE000A50502E00E94933B6093A3057093A405B3
:101AF0008093A50500E00093400500E100934105B7
:101B000000E0009342053091A3054091A405509157
:101B1000A5056091400570914105809142055817D7
:101B20004707360764F0009140050093A305009134
:101B300041050093A405009142050093A505ABE47F
:101B4000B6E0CBE4D6E0E3EAF5E00E94863BB09154
:101B50004B06A0914C06D0914D06AA235AF0009155
:101B60002907002351F00A95009329070FEF0093EE
:101B70002A07089504E600932907002700932A07FF
:101B8000089500E00093430501E00093440508E355
:101B90000093450510913C0620913D0630913E068C
:101BA0004091430550914405609145050E949C3B3E
:101BB0007093400580934105209242053091400585
:101BC00040914105509142056091880570918905C9
:101BD00080918A055817470736072CF400912C0787
:101BE000086000932C07089500910A070023CAF0AB
:101BF0003091690640916A06415030403093690641
:101C000040936A060CF054C00FEF0093100701E0F8
:101C10000093690600E900936A0600E000936B06F2
:101C200047C000910C0700230AF130916C064091E7
:101C30006D064150304030936C0640936D06B1F410
:101C400001E000936C060EE800936D0600E000933F
:101C50006E06A0913307A395AC3331F4B0913407ED
:101C6000B395B0933407AA27A093330700912C07AC
:101C70000023F1F000910E07002311F0AAF00EC02E
:101C800008E22B9AE0910F07EA95E0930F0771F4B1
:101C9000E0912C07E77FE0932C0708C00A9509F034
:101CA00005C004EC2B9802C0039551F300930E0776
:101CB00000911707A09118070A1709F438C000937C
:101CC0001807AAE1B7E0A00F08F4B3950027009326
:101CD000110700931207009313070C91A0911907A5
:101CE000009319070A1719F0AFEFA09330070023EC
:101CF000F1F0033039F40FEF009313070FEF009367
:101D0000150712C0023081F40FEF00931107009104
:101D10002D0600932A0600912E0600932B060091B3
:101D20002F0600932C0603C0AFEFA093120700917B
:101D30002A07002322F000910A07002312F02B98B3
:101D4000089500912C07002309F42B9A089500911F
:101D50005507002329F0EEE7FCE40E944126089590
:101D60000E94E1390EE20093DD06E2EFFDE10E9400
:101D7000CF3700E00093DD060AE10093DE06E6EFD0
:101D8000FDE10E945D38BB27A0913207DD270E944C
:101D9000863700E00093DD0609E30093DE06E6E007
:101DA000FEE10E945D380E9490390E94313B08306C
:101DB00011F434D00895043041F4009132070E320A
:101DC000BCF4039500933207CBCF023041F400916D
:101DD000320709316CF00A9500933207C1CF013008
:101DE00039F4A0913207E2E7F0E00E94523B0895F7
:101DF000B7CF413B3C004C434420636F6E7472612B
:101E000073743A2000004241434B2020555020205B
:101E100020444F574E20205341564500E2E7F0E062
:101E20000E94703B00933207089504E2009332074A
:101E3000E2E7F0E00E947A3B089502E00093000799
:101E4000112722278FD01F932F930E94EB332F91BE
:101E50001F910E94D33900270F93A09117070A17EB
:101E600011F400E401C000E20E9463380F910F9367
:101E7000E0EFF5E70E943E3800E00093DD060E94A7
:101E8000C8370F910395053039F701E00093DE065E
:101E900000911A0759D000911B0756D000911C07DA
:101EA00053D000911D0750D000911E074DD00E94C5
:101EB0000638E2E9FFE104E0019FE00DF11D0E9418
:101EC0004E370E9490390E9437330E941C3B0830E5
:101ED000D1F4222309F40895A0911A07E7EAF0E06B
:101EE0000E94503BA0911B070E94503BA0911C07F1
:101EF0000E94503BA0911D070E94503BA0911E07DD
:101F00000E94503B0895043041F41A950AF414E0FD
:101F10000E94610C0E942D3B96CF023029F413954C
:101F20001530B1F71127F4CF013069F42FEFAAE192
:101F3000B7E0A10F08F4B3950C91039504300CF0B1
:101F400000270C93E5CF7FCF0F9304E20093DD06CB
:101F50000E94E6370F91EAEFF5E70E943E380E94B3
:101F6000C8370895E7EAF0E00E944A3BA0931A07B9
:101F70000E944A3BA0931B070E944A3BA0931C0768
:101F80000E944A3BA0931D070E944A3BA0931E0754
:101F900008952F007F092F097F122F127F1B2F1BFF
:101FA0007F242F247F2D10917E0620917F06309173
:101FB00080064091360650913706609138060E949F
:101FC0009C3B70934005809341052092420500910F
:101FD00039060093430500913A06009344050091A9
:101FE0003B060093450530914005409141055091D5
:101FF000420560914305709144058091450558174D
:102000004707360764F000914305009340050091AF
:1020100044050093410500914505009342056091F8
:102020004305709144058091450555274427332782
:10203000581B470B360B3093430540934405509390
:102040004505309140054091410550914205609110
:102050004305709144058091450558174707360799
:1020600064F40091430500934005009144050093FA
:102070004105009145050093420530914C05409182
:102080004D0550914E05609140057091410580913C
:102090004205581B470B360B30934C0540934D05BA
:1020A00050934E05089500915507002329F0EEE75F
:1020B000FCE40E9441260895CCE8D1E2A091E60616
:1020C000B091E50604E10E94770CC093E606D09338
:1020D000E50608F00895E8E7F1E20E940A3A0130C7
:1020E00009F0EACF0E944131299AEAECF3E208E1D3
:1020F0000A9FE00DF11DDF017096CDE4D7E018E0F6
:10210000059109931A95E1F7FD01C4E0D0E033276A
:10211000A591B591EF93FF93FD0116E0ADE4B7E013
:10212000A30F0027B01F4C91BF91AF912591042FB1
:10213000007809F02195042F087009F02FEF022F85
:10214000EF93FF93FE010E947A3B2196FF91EF915E
:10215000440F1A9559F72296FD0133953830C4F291
:102160000FEFA02FE6EBF0E00E94523B29980E946F
:1021700009310E945F13A0CF4C6F6164206D6F74B2
:102180006F72206C61796F75742E000053696E67F1
:102190006C65436F7074657220314D20345320207C
:1021A00053696E676C65436F7074657220324D20A1
:1021B000325320204475616C436F707465722049FE
:1021C0004920202020202020547269436F707465BC
:1021D0007220494920202020202020205175616450
:1021E000726F436F707465722078206D6F64652024
:1021F00051756164726F436F70746572202B206D2E
:102200006F646520562D5461696C202020202020A9
:102210002020202020202020562D5461696C204849
:10222000756E7465722020202020202059342020D3
:10223000202020202020202020202020202020209E
:1022400048657861436F7074657220202078206D36
:102250006F64652048657861436F707465722020F3
:10226000202B206D6F646520483620202020202000
:102270002020202020202020202020205636202012
:10228000202020202020202020202020202020204E
:1022900059362020202020202020202020202020EF
:1022A000202020204F63746F436F7074657220206C
:1022B0002078206D6F6465204F63746F436F707476
:1022C00065722020202B206D6F6465204838202007
:1022D00020202020202020202020202020202020FE
:1022E00056382020202020202020202020202020A0
:1022F000202020205838202020202020202020208E
:102300002078206D6F646520583820202020202000
:1023100020202020202B206D6F646520000000000D
:102320000000000000643200000064003200000081
:102330006464000000006464320000640000320045
:102340000064006432006400000000036400006464
:1023500000036400640000036400646400036426F6
:102360005C640003642A476400036432576400031A
:10237000643D186400036447006400036447186404
:102380000003644747000003644747640003645147
:10239000186400036457320000036457326400037A
:1023A000645C2664000364640000000364640064E9
:1023B000000364644764000378005A6400036464A3
:1023C000642800035F006464000346234023342331
:1023D000402334231C231C231C2300000040200026
:1023E00000004C234C233A2328231C231C231C23AA
:1023F0001C230010000000000000A623A6232E23AB
:102400002E231C231C232E232E23014000200000FA
:10241000002094239423522322231C231C232223B1
:102420001C234001200000001000882388238823FB
:1024300088231C231C231C231C2340102070000015
:1024400000005823AC235823AC231C231C231C233B
:102450001C23001020500000000082238223B82398
:10246000B8231C231C231C231C2340012030000004
:102470000000BE23BE23C423C4231C231C231C230F
:102480001C2350002030000000008823882358239C
:1024900058231C231C231C231C2340102030000025
:1024A00000006A23AC236A236A23AC236A231C231B
:1024B0001C23001020704050000058239A239A23B8
:1024C00058239A239A231C231C2300102030605089
:1024D00000008823762388238823762388231C23DF
:1024E0001C230010207040500000B2237623642388
:1024F00064237623B2231C231C2300102070405039
:1025000000009A239A239A239A23582358231C23A2
:102510001C2340500010203000005E23A023A02385
:102520005E235E23A023A0235E2300102030607072
:10253000405058238823AC23882358238823AC2376
:102540008823001000302070405088237C237C2397
:10255000882388237C237C2388230010203060700C
:102560004050B2238E2370236423642370238E2370
:10257000B2230010203060704050882388238823C5
:102580008823882388238823882340500010203004
:10259000607058235823AC23AC2358235823AC2312
:1025A000AC23001000102030405011270E94D33976
:1025B00005E0ECE8F6E20E94473801E00093DE0611
:1025C000EFE7F0E005E00F9304E50093DD060E94DD
:1025D000E6370E94383B0E94C7370F910A9599F75A
:1025E0000E940638E6E9F6E204E0019FE00DF11DE5
:1025F0000E944E370E9490390E94313B083009F406
:102600000895043021F41A950AF414E0CFCF023073
:1026100029F41395153009F410E0C8CF0130F1F416
:10262000EFE7F0E002E0019FE00DF11DEF93FF9373
:102630000E94383BEAEAF6E204E0019FE00DF11D5A
:10264000C591D59105901590E02DF12D0E946A2439
:10265000A02DB12DFF91EF910E94413BA7CF4143A7
:1026600043205472696D20526F6C6C0041434320CB
:102670005472696D2050697463680000534C204D9A
:102680006978696E6720526174650000A075A8754D
:102690005E266C267C265F0079095F0979125F123D
:1026A000791B5F1B79245F24792D000084030000CF
:1026B00084037CFC84037CFC840305003200E6EB8D
:1026C000F0E00E94703B00232AF0EAE7FCE40E945D
:1026D000412608950E94C52244240E94D339E8E28D
:1026E000FAE20E945D38442081F4E0E3FAE20E94BD
:1026F0005D380FEF602E08E0802E55240E94AD1348
:1027000053948A948820D1F709C0542C5A94A42D4C
:10271000BB270E94863766240E94AD1301E0009318
:10272000E20601E00093E10600E00093DD0609E324
:102730000093DE06ECE3FAE20E945D380E949039D5
:102740000E94313B083009F40895043029F4439481
:1027500009E0401609F44424C0CFE0E0F5E008E0C9
:10276000059DE00DF11D01E00093E1060FEF702ED5
:10277000DD27A181BB27AA2312F4DFEFBFEFB093BF
:10278000DC05A093DD05D093DE0500E00093400555
:1027900000934105009342053091DC054091DD0531
:1027A0005091DE0560914005709141058091420590
:1027B00058174707360709F0772400E000934005D3
:1027C00000E00093410500E4009342051091DC0510
:1027D0002091DD053091DE05409140055091410585
:1027E000609142050E949C3B7093DC058093DD055F
:1027F0002092DE0500E00093400500E600934105CD
:1028000000E000934205EF93FF93ACEDB5E0CCED13
:10281000D5E0E0E4F5E00E94863BFF91EF91B091B6
:10282000DC05A091DD05D091DE05A093DD06DD2756
:10283000A281BB27AA2312F4DFEFBFEFB093DC0520
:10284000A093DD05D093DE0500E0009340050093E2
:102850004105009342053091DC054091DD05509122
:10286000DE05609140057091410580914205581741
:102870004707360709F077240FEF009340050FEF65
:102880000093410500EC009342051091DC05209176
:10289000DD053091DE054091400550914105609184
:1028A00042050E949C3B7093DC058093DD052092DD
:1028B000DE0500E00093400500E20093410500E0E2
:1028C00000934205EF93FF93ACEDB5E0CCEDD5E07E
:1028D000E0E4F5E00E94863BFF91EF91B091DC05CA
:1028E000A091DD05D091DE05A093DE06DD27A08155
:1028F000BB27AA2312F4DFEFBFEFB093DC05A09350
:10290000DD05D093DE0500E000934005009341050E
:10291000009342053091DC054091DD055091DE05C4
:102920006091400570914105809142055817470715
:10293000360709F07724A381AA2309F077247720AA
:1029400072F466200AF4089502E40093DD060BE1B8
:102950000093DE06E0E2FAE20E945D380895A58168
:10296000A0FD0DC0662052F002E40093DD060BE1ED
:102970000093DE06E4E3FAE20E945D38089500E683
:102980000093DF0600E20093E0060E94E038009129
:10299000DD0604500093DD060091DE06075000932B
:1029A000DE0604E00093E20602E0A381AA230AF017
:1029B00003E00E9463380091DD060E500093DD06AF
:1029C0000090DE0605E0000E0092DE0600E00093B7
:1029D000E20600E00093E106052D0E9463386620C0
:1029E0000AF41DC001E00093E20601E00093E10655
:1029F0000FE00093DE0603E0EF93FF93E4E6FAE2D4
:102A00000E944738FF91EF9101E20093DE06A38117
:102A1000AA231AF00E94ED3702C00E94EB370895F6
:102A2000556E757365642E004D6F746F723A200099
:102A3000414C4C00536572766F2E00004241434B6F
:102A400020204E4558540000446972656374696FD4
:102A50006E007365656E2066726F6D0061626F76E1
:102A6000653A0000482A522A5C2A0FEF0093250796
:102A7000002700932F070E94D33903E10093DD065E
:102A8000E8E8FCE20E945D3800E00093DD0604E126
:102A90000093DE0600912507002392F002E0E2EEAB
:102AA000FCE20E94473800E00093DD0609E3009352
:102AB000DE06E8E9FCE20E945D380E9490392EC0F3
:102AC00002E0EEEDFCE20E9447380E94903900E0FF
:102AD0000093010700E00093020701E00093040760
:102AE00008E0009303070FEF00930A0700E000934C
:102AF000510601E00093520600E0009353062B9A22
:102B000006E006BB03E10093400508E80093410599
:102B100000E000934205002700930C070E94E12E7D
:102B2000009140050093E205009141050093E30503
:102B3000009142050093E405009140050093E505EE
:102B4000009141050093E605009142050093E705D9
:102B5000009140050093E805009141050093E905C7
:102B6000009142050093EA05009140050093EB05B2
:102B7000009141050093EC05009142050093ED059D
:102B8000009140050093EE05009141050093EF058B
:102B9000009142050093F005009140050093F10576
:102BA000009141050093F205009142050093F30561
:102BB000009140050093F405009141050093F5054F
:102BC000009142050093F605009140050093F7053A
:102BD000009141050093F805009142050093F90525
:102BE0000E94432F03B1009502950F700F9300913F
:102BF000250700236AF40F910023B9F003E1009345
:102C0000400508E80093410500E00093420586CFA7
:102C10000F910830B9F000E00093400504E60093FE
:102C2000410500E00093420579CF00E000934005A4
:102C300004E60093410500E000934205002700935D
:102C4000250719CF2B980E94610C0895AA27E3E766
:102C5000F0E00E94523B0895E8E3FDE20E940A3A48
:102C6000013009F008950E94E1390E94D73704E04D
:102C7000ECE4FDE20E9447380E949039AFEFE3E7B1
:102C8000F0E00E94523BFFCF4553432043414C4963
:102C900042524154494F4E00455849540000526534
:102CA0006C6561736520627574746F6E2061742049
:102CB0007468650045534320636F6E6669726D6189
:102CC00074696F6E20626565700057616974206673
:102CD0006F72207468652066696E616C00009E2CBE
:102CE000B42CCA2CB42C4553432063616C696272C6
:102CF0006174696F6E2077696C6C00006265206199
:102D00007661696C61626C65206F6E207468650025
:102D10006E6578742073746172742D7570206F6E97
:102D20006C792E0052454D4F56452050524F50530E
:102D30002046495253542100446F20455343206399
:102D4000616C6962726174696F6E2E00E62CFC2CF6
:102D5000102D242DA0E0B0E023D090F400270093A4
:102D6000550732D00027E0E7F0E00E94523B0E9476
:102D7000523B0E9426160E94150F8ED002D1089554
:102D8000E1E7F0E00E94703B00230AF085D0B091AB
:102D90005507BB2321F0AA2703D008F415D00895C6
:102DA000C0E8DEE214E0FE0104910F93FD010E94F1
:102DB000703BEF910E1731F4119621961A9599F701
:102DC0008894089508940895E4E0F0E0A0E0B0E06D
:102DD00010E40E94503B1A95E1F7A4E4B0E0C4E28D
:102DE000DEE218E14FD0A5E7B0E01AE04BD01AE0E0
:102DF00049D01AE047D016E045D01EE043D016E097
:102E000041D018E03FD014E03DD0A0E0B0E014E0A5
:102E100039D015E00E94610CC0E00E940E3B1A956B
:102E2000C9F70895320064001900140032006400EC
:102E3000190014003200140032000A001E001E00A7
:102E400032005A0064003C001400000000000A0038
:102E50000A0000001E0000003200FFFFFFFF00001C
:102E6000000000000000000000000000000000035F
:102E70000103020001020304050607080000000028
:102E8000190373B4FE010491FD010E94783B119671
:102E900021961A95B9F708950E94E13900E100934F
:102EA000DD06E4EDFEE20E94CF3704E0EEE2FFE251
:102EB0000E9447380E9422380E9490390E94313B7C
:102EC0000130E1F70FEFE1E7F0E00E947A3B0E946A
:102ED0002D3B0895463D4240433C3D460000594F3E
:102EE00055205553452054484953204649524D5783
:102EF00041524500415420594F5552204F574E20C2
:102F00005249534B21005265616420616C6C206909
:102F10006E636C7564656400646F63756D656E7473
:102F200073206361726566756C6C792E0000DE2E0D
:102F3000F42E062F182F473D484945004C6F616419
:102F4000204D6F746F72204C61796F75740041432E
:102F5000432043616C6962726174696F6E005265EF
:102F600063656976657220546573740000107F197B
:102F700000197F2200227F2B002B7F343C2F4E2F05
:102F80005E2F11270E94E13902E20093DD06E6E39D
:102F9000FFE20E94CF3703E0ECE7FFE20E944738F0
:102FA0000E94F237ECE6FFE204E0019FE00DF11D24
:102FB0000E944E370E9490390E94313B083009F43C
:102FC0000895043021F41A950AF41127DBCF02305A
:102FD00029F4139513300CF012E0D4CF0130E9F747
:102FE0000E942D3B1F93103019F40E9453100AC009
:102FF000113019F40E94041805C0123019F40E940F
:10300000663100C01F91BECF0E94D33906E0E8E4CC
:10301000F3E30E9447380E9430380E9490390E94A2
:10302000313B0130E1F7B8D10E94D33909E1009377
:10303000DD0609E10093DE06E4E5F3E30E945D3876
:103040000E949039C0E00E940E3BE0E100E0009356
:103050007F0500938005009381050093820500930E
:1030600083050093840500938505009386050093EE
:1030700087050E94ED36EF93AFE7B5E0CFE7D5E0E7
:10308000E6E7F5E00E94863BA2E8B5E0C2E8D5E0BD
:10309000E9E7F5E00E94863BA5E8B5E0C5E8D5E0A4
:1030A000ECE7F5E00E94863BEF91C4E60E940E3B00
:1030B000EA9509F0DECF60917F05709180058091DF
:1030C000810504E00E94933B60937F057093800527
:1030D00080938105609182057091830580918405BC
:1030E00004E00E94933B6093820570938305809374
:1030F000840560918505709186058091870504E0BF
:103100000E94933B609385057093860580938705A5
:10311000D8E2C0E00E940E3BDA95D9F70FEF00939A
:1031200021070E94D3390AE00093DE0603E0E2E9BA
:10313000F3E30E9447380AE00093DE06B0917F0572
:10314000A0918005D09181050E94C036B091820582
:10315000A0918305D09184050E94C036B091850569
:10316000A0918605D09187050E94C0360E94303814
:103170000E9490390091210700230AF5EDE5F0E067
:10318000B0917F05A0918005D09181050E94623B9E
:10319000B0918205A0918305D09184050E94623B85
:1031A000B0918505A0918605D09187050E94623B6C
:1031B000E5EBF0E00FEF002F0E94783B0AC0E5EB53
:1031C000F0E000270E94783B00912C0701600093FB
:1031D0002C070E94313B0130E1F70E94D33909E10D
:1031E0000093DE06009121070170EEE8F3E30E94F0
:1031F0003E380E9430380E9490390E94313B0130A5
:10320000E1F70895E0E100E00093670500936805A9
:103210000093690500936A0500936B0500936C05A4
:1032200000936D0500936E0500936F050E94ED36C7
:10323000EF93A7E6B5E0C7E6D5E0EEE5F5E00E943E
:10324000863BAAE6B5E0CAE6D5E0E1E6F5E00E94F5
:10325000863BADE6B5E0CDE6D5E0E4E6F5E00E94DC
:10326000863BEF91C4E60E940E3BEA9509F0DECF63
:1032700060916705709168058091690504E00E947E
:10328000933B60936705709368058093690560912F
:103290006A0570916B0580916C0504E00E94933B78
:1032A00060936A0570936B0580936C0560916D0562
:1032B00070916E0580916F0504E00E94933B6093CE
:1032C0006D0570936E0580936F050895506C616372
:1032D0006520746865206169726372616674206F2D
:1032E0006E0061206C6576656C2073757266616333
:1032F0006520616E6400707265737320434F4E5495
:10330000494E55452E005468652046432077696C28
:103310006C207468656E2077616974006120666551
:10332000772073656320746F206C65742074686502
:103330000000616972637261667420736574746CF5
:103340006520646F776E2E00CC32E232F63206339F
:103350001C33323343616C6962726174696E672E2B
:103360002E2E000043616C6962726174696F6E2079
:103370006661696C65642E0043616C696272617498
:10338000696F6E207375636365656465640064339B
:103390007833AA6DB26DBA6DA5E30E94E1390AE3F4
:1033A0000093DD0606E10093DE060A2F0E946338D3
:1033B0000E949039D4E6C4E60E940E3BDA95D9F714
:1033C000AA95AF3251F708951127209105070E9461
:1033D000D33905E0E8EEF4E30E94473801E00093BA
:1033E000DE06E3E9F0E04BD04AD049D048D047D0E0
:1033F0000E940638E2EFF4E304E0019FE00DF11DC6
:103400000E944E370E9490390E94313B0830B1F43F
:103410000E94B62320178CF4E4E4F0E0CCE4D0E082
:1034200014E00E94383BEF93FF93FE010E94413B62
:10343000EF01FF91EF911A95A1F70895043029F457
:103440001A950CF0C4CF14E0C2CF023031F41395BA
:10345000153009F0BCCF1127BACF013079F40E94A2
:103460004131E3E9F0E001E0019FE00DF11D0E9430
:103470006E3B00950E94783B0E940931A8CF0AE577
:103480000093DD060E94E6370E944A3B0A2F017036
:10349000EF93FF93ECEEF5E70E943E38FF91EF913A
:1034A0000E94C83708954C696E6B20526F6C6C2077
:1034B0005069746368004175746F20446973617268
:1034C0006D00427574746F6E2042656570004172C4
:1034D0006D696E672042656570730000517569659E
:1034E0007420455343730000A634B634C234CE343E
:1034F000DC3464007A0964097A1264127A1B641B52
:103500007A2464247A2D11270E94D33905E0EAE158
:10351000F6E30E94473801E00093DE06E9E8F0E0B8
:1035200005E00F930CE60093DD060E94383B0E94F5
:10353000C7370F910A95A9F70E940638E4E2F6E32F
:1035400004E0019FE00DF11D0E944E370E9490396A
:103550000E94313B083009F40895043021F41A9593
:103560000AF414E0D1CF023029F41395153009F490
:1035700010E0CACF0130F1F4E9E8F0E002E0019F89
:10358000E00DF11DEF93FF930E94383BE8E3F6E373
:1035900004E0019FE00DF11DC591D59105901590B6
:1035A000E02DF12D0E946A24A02DB12DFF91EF9105
:1035B0000E94413BA9CF4D696E696D756D205468BD
:1035C000726F74746C653A200000486569676874AE
:1035D0002044616D70656E696E673A200000486531
:1035E0006967687420442E204C696D6974203A2004
:1035F0000000416C61726D20312F313020566F6CAC
:1036000074733A200000536572766F2046696C74BB
:103610006572202020203A200000B635CA35DE35FC
:10362000F23506366B007F096B097F126B127F1B28
:103630006B1B7F246B247F2D000014000000F4011D
:1036400000001E0000008403000064000E94D339C3
:103650000027E5E7F0E00F93EF93FF93E2E1F7E354
:103660000E943E38FF91EF910E94383B06E30093A1
:10367000DD060E94E6370E94C737A091DD0600E014
:103680000093DD060F910395053029F7A093DD0621
:103690000091DE0609500093DE0605E20E946338C1
:1036A0000E940638ECE1F7E304E0019FE00DF11D14
:1036B0000E944E370E9490390E94313B083009F435
:1036C0000895043021F41A950AF414E0BFCF0230B3
:1036D00029F41395153009F410E0B8CF0130C1F486
:1036E000E5E7F0E002E0019FE00DF11D0E94383BAC
:1036F000C0E0D0E0E4EFF1E00E946A24A02DB12DFB
:10370000E5E7F0E002E0019FE00DF11D0E94413B82
:103710009DCF7075787582758A754A7541005C0910
:1037200041095C1241125C1B411B5C2441245C2D4D
:103730000FEF00932F070E94E13900910A07002341
:10374000A2F402E20093DD0606E10093DE06E0EC5F
:10375000F9E30E94CF37E6ECF9E30E944E370DE221
:103760000093DE060E94DE3781C006E20093DD068C
:10377000EAEBF9E30E945D3806E60093DD0605E416
:103780000E94633801E3A09155070A0F0E94633835
:1037900001E00093E20600E00093DD0601E0009303
:1037A000DE06A0913407C0913307D4D000E0009327
:1037B000DD0601E10093DE06E0E0F5E770D10E944E
:1037C0005D3800912C07077FA0910C07A0950A2B6C
:1037D00059F000912D07039500932D07017021F0FA
:1037E000EAECF9E30E944E3700E00093DD060BE1BE
:1037F0000093DE06EEECF9E30E945D38BFD0009145
:10380000130700233AF40BE20E946338EAE3F5E77A
:103810000E945D380E94C837E8EDF9E30091880501
:1038200000934305009189050093440500918A05A2
:103830000093450521D00E94C837E2EEF9E30091DC
:103840008E050093430500918F0500934405009178
:1038500090050093450510D004E20093DD0609E3CE
:103860000093DE06EAEAF9E30E945D380E9490398F
:10387000002700932F07089500E00093DD060E94C3
:103880005D3800E00093400506E00093410500EE3E
:103890000093420510914305209144053091450560
:1038A0004091400550914105609142050E949C3B2A
:1038B0007093400580934105209242056091400538
:1038C000709141058091420508E00E94933B60930E
:1038D00040057093410580934205B0914005A09149
:1038E0004105D09142050E9486370EE20E9463385E
:1038F000AD2FBB27DD27B0934005A0934105D093A2
:10390000420500E00093430500E0009344050AE00F
:1039100000934505109140052091410530914205E5
:103920004091430550914405609145050E949C3BA0
:10393000709340058093410520924205B091400567
:10394000A0914105D09142050E94863706E50E946C
:1039500063380895AA301CF400E30E946338BB2743
:103960000E9486370AE30E946338AC2FAA301CF409
:1039700000E30E9463380E94863708950091110782
:1039800000232AF4E0E4F5E70E945D3808950091F1
:10399000120700232AF4EAE4F5E70E945D3808954F
:1039A000E4E3F5E70E945D3808953C50524F4649E4
:1039B0004C453E20204D454E5500473A3E3D0000C7
:1039C0003A46423D3C0000137F2800107F194D6F9E
:1039D00064652020203A2000426174746572793A4F
:1039E00020004C6F67676564203A20004143432004
:1039F0006E6F742063616C696272617465642E001D
:103A00004E6F2061696C65726F6E20696E7075749F
:103A10002E004E6F20656C657661746F7220696E42
:103A20007075742E00004E6F207468726F74746C21
:103A30006520696E7075742E00004E6F207275647B
:103A400064657220696E7075742E000053616E6932
:103A5000747920636865636B206661696C65642EA8
:103A600000004E6F206D6F746F72206C61796F75FE
:103A700074210000436865636B207468726F74740E
:103A80006C65206C6576656C2E00525820736967F2
:103A90006E616C20776173206C6F737421000091EC
:103AA0002C07077F39F400910C07002312F0E4E79C
:103AB000FAE3089500912C070370033019F4EAE843
:103AC000FAE3089500912C07047019F0E2E6FAE396
:103AD000089500912C07017019F0ECEEF9E30895B8
:103AE00000912C07027019F0ECE4FAE308950091BC
:103AF0002C07007119F0E0E0FAE3089500912C071B
:103B0000007219F0E2E1FAE3089500912C070074C5
:103B100019F0E6E2FAE30895EAE3FAE30895009083
:103B20000C0710902E070120009222070090220718
:103B300010900A070120009222070091220700231B
:103B400042F000E000936006009361060093620675
:103B500039C0309160064091610601E0400F0027B6
:103B6000301F30936006409361060FE100934005DB
:103B700000E40093410500E00093420530916006A7
:103B80004091610650916206609140057091410537
:103B900080914205581747073607A1F400E00093CB
:103BA00060060093610600936206002700930A07EF
:103BB0000FEF009310070FEF0093140701E000933D
:103BC0001507089500910C07002392F50EEF00935E
:103BD00040050CE00093410500E000934205309160
:103BE0004F054091500550915105609140057091ED
:103BF000410580914205581747073607ECF001E070
:103C00000093400504EF0093410500E00093420556
:103C100030914F05409150055091510560914005FC
:103C2000709141058091420558174707360724F4E3
:103C300000E000930D07089500910D070395009390
:103C40000D0700910D070F3F09F04CC0B0914F05D3
:103C5000A0915005D0915105BB23CAF400912C07C7
:103C6000077F09F008950FEF00930A0701E0009322
:103C700057060CE20093580600E0009359060E9494
:103C800002190E94E2200AE000930F070CC00027EF
:103C900000930A0700E00093570606E900935806D0
:103CA00000E000935906002700931407E6E9F0E0CE
:103CB0000E944A3BAA231AF40FEF00932B070FEF41
:103CC0000093100703E00093540600E200935506AA
:103CD00000E00093560600E0009360060093610642
:103CE00000936206089551D45CD42CD509E000936A
:103CF000400504EC0093410500E00093420500E01C
:103D000000932407EF93FF933091400540914105C4
:103D100050914205EAEFF5E06091240703E0609FCF
:103D2000E00DF11D319341935193FF91EF9100917B
:103D3000240703950093240700912407083011F706
:103D4000EFE7F0E0A9D20091400500932A06009128
:103D5000410500932B060091420500932C0600912B
:103D6000400500932D060091410500932E06009119
:103D7000420500932F0690D200E0009343050AE02D
:103D80000093440500E00093450510914005209103
:103D900041053091420540914305509144056091A1
:103DA00045050E949C3B7093330680933406209215
:103DB000350672D2609140057091410580914205AF
:103DC00003E00E94933B609340057093410580930C
:103DD00042050091400500935A0600914105009369
:103DE0005B060091420500935C0656D26091400547
:103DF000709141058091420503E00E94933B6093DE
:103E00004005709341058093420500914005009361
:103E10005D060091410500935E0600914205009306
:103E20005F063AD2FED10091400500933006009122
:103E3000410500933106009142050093320661D49A
:103E40002BD2009140050093360600914105009366
:103E5000370600914205009338061ED227D2009102
:103E60004005009339060091410500933A06009100
:103E7000420500933B0610D200E00093430503E0A7
:103E80000093440509EB00934505109140052091EE
:103E900041053091420540914305509144056091A0
:103EA00045050E949C3B70933C0680933D06209202
:103EB0003E06F2D100E00093430504E6009344057A
:103EC00000E0009345053091430540914405509131
:103ED0004505609140057091410580914205581B50
:103EE000470B360B309351064093520650935306BE
:103EF00060915106709152068091530607E00E942E
:103F0000933B609351067093520680935306E5E706
:103F1000F0E0C2D176D1009140050093CD0500912B
:103F200041050093CE05009142050093CF05B4D121
:103F300068D1009140050093D005009141050093A0
:103F4000D105009142050093D205A6D15AD1009126
:103F500040050093D305009141050093D4050091DD
:103F600042050093D50598D14CD1009140050093AE
:103F7000D605009141050093D705009142050093B5
:103F8000D8058AD14ED1009140050093D905009102
:103F900041050093DA05009142050093DB05C5E475
:103FA000D7E0EDEAF0E0E9D3E8D3E7D3E6D3E5D311
:103FB000E4D3E3D3E2D30E94D10A20F40E94A60AFC
:103FC0000E941C0AE9E9F0E067D11BD1009140058D
:103FD00000938106009141050093820600914205FD
:103FE0000093830659D10091400500938406009107
:103FF00041050093850600914205009386064CD149
:1040000000D100914005009387060091410500937F
:10401000880600914205009389063ED10091400533
:1040200000938A060091410500938B06009142059A
:1040300000938C0631D100914005009393060091C6
:10404000410500939406009142050093950624D102
:104050000091400500939606009141050093970654
:1040600000914205009398060E944A3BA0933107B5
:10407000EDE5F0E00E94563BB0937F05A0938005EC
:10408000D09381050E94563BB0938205A09383058F
:10409000D09384050E94563BB0938505A093860576
:1040A000D093870563D30E94B20FE4E9F0E00E9449
:1040B0006E3B00932E070FEF009318070093100735
:1040C00001E00093040705E0009303070AEF009363
:1040D0000007002700932F0700930A0700930B07A0
:1040E0000093200700931107009313070093140710
:1040F00000932B0700932A07009330070093600674
:1041000000936106009362060093570600935806D9
:1041100000935906009354060093550600935606E3
:104120000093630600936406009365060093660699
:1041300000936706009368060093690600936A0679
:1041400000936B0600938D0600938E0600938F06F6
:1041500000939006009391060093920600936F06D9
:104160000093700600937106009372060093730625
:104170000093740627D003E000938B050FEF0093A4
:104180008C0500E000938D0500912C07007F0093C3
:104190002C07E6EBF0E00E94703B00232AF0009130
:1041A0002C07046000932C07E5EBF0E00E946E3BC7
:1041B000002332F000912C07016000932C07089532
:1041C000CAD0089500E00093AB060093AC060093BC
:1041D000AD060093AE0600E00093AF060093B00674
:1041E0000093B1060093B20601E00093B30600E02D
:1041F0000093B40600E00093B50600E00093B60615
:10420000089560914005709141058091420504E058
:104210000E94933B60934005709341058093420553
:10422000089500E00093430500E00093440502E593
:1042300000934505109140052091410530914205BC
:104240004091430550914405609145050E949C3B77
:1042500070934005809341052092420500E0009351
:10426000430500E00093440508E0009345051091E4
:104270004005209141053091420540914305509100
:104280004405609145050E949C3B709340058093D6
:1042900041052092420508950E94383BDD27B093E6
:1042A0004005A0934105D0934205089500E0009396
:1042B000430500E80093440500E000934505109194
:1042C00040052091410530914205409143055091B0
:1042D0004405609145050E949C3B70934005809386
:1042E00041052092420508954F6E65206F72206D42
:1042F0006F72652073657474696E67730000617214
:1043000065206F7574206F66206C696D6974732108
:10431000000053656E736F722063616C6962726135
:1043200074696F6E000064617461206F7574206F32
:1043300066206C696D697473210053656E736F72CA
:1043400020726177206461746100E842FE4212438A
:1043500026433A43FE420E94D33900E00093DD0633
:1043600001E10093DE06B091CA05A091CB05D09182
:10437000CC05C0E0D0E0E9EEF3E00E94BB2208F4F7
:10438000C9C0B0913606A0913706D0913806C0E07A
:10439000D0E0E5EFF1E00E94BB2208F4BBC0B09191
:1043A0003906A0913A06D0913B06C0E0D0E0E1E0AA
:1043B000FFE00E94BB2208F4ADC0B0916705A09158
:1043C0006805D0916905C0E9D1E0EAEDF2E00E940C
:1043D000BB2208F4A5C0B0916A05A0916B05D091ED
:1043E0006C05C0E9D1E0EAEDF2E00E94BB2208F4DE
:1043F00097C0B0916D05A0916E05D0916F05C0E991
:10440000D1E0EAEDF2E00E94BB2208F489C0B0914D
:104410007F05A0918005D0918105C2ECD1E0E2E555
:10442000F3E00E94BB2208F47BC0B0918205A0910A
:104430008305D0918405C2ECD1E0E2E5F3E00E946F
:10444000BB2208F46DC0B0918505A0918605D0917E
:104450008705C2ECD1E0E2E5F3E00E94BB2208F45C
:104460005FC00E94ED360E94ED36B0915E05A091CE
:104470005F05D0916005C4E6D0E0E4E8F3E00E9477
:10448000BB2208F453C0B0916105A0916205D091A0
:104490006305C4E6D0E0E4E8F3E00E94BB2208F440
:1044A00045C0B0916405A0916505D0916605C4E64C
:1044B000D0E0E4E8F3E00E94BB2208F437C0B091FA
:1044C0007605A0917705D0917805C4E6D0E0E4E8C0
:1044D000F3E00E94BB2208F429C0B0917905A091B5
:1044E0007A05D0917B05C4E6D0E0E4E8F3E00E94D1
:1044F000BB2208F41BC0B0917C05A0917D05D09132
:104500007E05C4E6D0E0E4E8F3E00E94BB2208F4B4
:104510000DC0089502E0EAE4F3E40E9447380BC0BE
:1045200002E0EEE4F3E40E94473805C002E0E2E571
:10453000F3E40E94473800912C07026000932C0797
:104540000E94303800E00093DE0603E00093E206AC
:104550000E94D7370E949039299AD7E2C0E00E9482
:104560000E3BDA95D9F729980E94313B0130E1F7EB
:104570000E942D3B0895AC17BD072CF0AE17BF0766
:1045800014F48894089508940895C0E4A0E0B5E078
:10459000E4E0F0E00E94703B0D933196CA95D1F7AC
:1045A0000895E4E4F0E078DE009140050093A6056C
:1045B000009141050093A705009142050093A805CD
:1045C0006BDE74DE009140050093AF05009141055C
:1045D0000093B005009142050093B1055DDE11DE48
:1045E000009140050093B805009141050093B9057D
:1045F000009142050093BA054FDE58DE0091400558
:104600000093C105009141050093C2050091420548
:104610000093C30500910507002312F4E4E4F0E0E1
:104620003BDE009140050093A905009141050093F0
:10463000AA05009142050093AB052EDE37DE0091FE
:1046400040050093B205009141050093B305009128
:1046500042050093B40520DED4DD009140050093AF
:10466000BB05009141050093BC05009142050093F4
:10467000BD0512DE1BDE009140050093C4050091CC
:1046800041050093C505009142050093C605E4E588
:10469000F0E002DE009140050093AC050091410579
:1046A0000093AD05009142050093AE05F5DDFEDDFA
:1046B000009140050093B505009141050093B605B2
:1046C000009142050093B705E7DD9BDD00914005B1
:1046D0000093BE05009141050093BF05009142057E
:1046E0000093C005D9DDE2DD009140050093C705C8
:1046F000009141050093C805009142050093C9054A
:104700000895E9E8F0E0C8DD00E00093430502E326
:104710000093440500E00093450510914005209169
:104720004105309142054091430550914405609107
:1047300045050E949C3B7093CA058093CB0520924F
:10474000CC050895C8E0E0E0F5E00581889401FD1E
:104750000894A795889400FD0894B7953896CA9553
:10476000A1F7A0930107B09302070895E3E9F0E0F1
:104770000E946E3B0093050708950E944A3BAA954C
:10478000A9930895112722270E94D339E6E6F8E479
:104790000E945D380091050700233AF4223029F089
:1047A000E8E6F5E70E945D3805C0022FECE8F8E482
:1047B0000E943E3800E00093DD060AE00093DE062A
:1047C00000270F93E4E8F8E40E943E380AE20093E1
:1047D000DD060E94E6370F910F93302F5AD00E94CA
:1047E000C73700E00093DD060F91039504304CF3CA
:1047F0000E940638E0E7F8E404E0019FE00DF11DB7
:104800000E944E370E9490390E94313B083009F4D3
:104810000895043021F41A950AF414E0B5CF02305B
:1048200029F41395153009F410E0AECF0130E9F703
:10483000103061F42395233009F42227213029F424
:104840000091050700230AF422E09ECF312F3A950C
:1048500020D0C0E0D0E0E0E0FDE70E946A24A02D77
:10486000B12D20D091CF417869732020203A2000CB
:104870003400670934094F1234124F1B341B4F2484
:1048800034244F2DA075A875B075B87570757875FE
:10489000827511D00E946E3BA02F31960E946E3B14
:1048A000B02F089508D00A2F0E94783B31960B2F25
:1048B0000E94783B0895E4E4F0E0022F000F000F1F
:1048C000000FE00F0027F01F032F000FE00F00275D
:1048D000F01F08952F923F924F925F926F927F92B6
:1048E0008F921F932F933F934F935F936F937F9379
:1048F0008F939F93AF93BF93CF93DF93EF93FF93E8
:1049000011E002E00093E10601E00093E20600E01E
:104910000093DD0608E30093DE060FE70093DF0651
:1049200000E40093E0060E943C3701E00093E106BA
:1049300000E00093DD0609E30093DE06EF93FF93AA
:10494000E0E6FAE40E945D38FF91EF910EE10093FA
:10495000DD0603E10093DE0602E60093DF060AE2CD
:104960000093E00602E00093E1060E943C370EE16E
:104970000093DD0603E10093DE0602E60093DF0606
:104980000AE20093E00601E00093E1060E945F372F
:104990000FE10093DD0604E10093DE0601E60093DB
:1049A000DF0609E20093E0060E945F3702E200930F
:1049B000DD0608E10093DE0603E00093E2060E94B4
:1049C00086370E9490392EE10E941C3B003011F086
:1049D0002A95D1F7003009F411E00E941C3B003009
:1049E000C9F30E94610C083039F4A0E0B0E0AC17C4
:1049F000BD070CF4DE01AACF043061F4A11B00272F
:104A0000B00BAC17BD070CF4DE0113951F3F08F087
:104A10001FEF9CCF023041F4A10F0027B01FAE174B
:104A2000BF070CF0DF01F1CF0130C9F40A2E1B2EB5
:104A3000FF91EF91DF91CF91BF91AF919F918F91B6
:104A40007F916F915F914F913F912F911F918F9027
:104A50007F906F905F904F903F902F90089576CF0A
:104A6000434C522020444F574E20202055502020A8
:104A700020444F4E4500E6EBF0E00E94703B0023DF
:104A800022F0EAE7FCE4FDD00895009155070023E9
:104A900021F0EEE7FCE4F5D0089510E022270E9413
:104AA000D33906E60093DD06E8EEFBE40E945D38AC
:104AB000A22FA395BB270E94863700E00093DD0656
:104AC00001E00093DE0600270F93ECE0FCE40E9477
:104AD0003E380F910F93302FF7D00AD100E30093A7
:104AE000DD060E94E6370E94C73700E00093DD062E
:104AF0000F910395053044F300E00093DD06ECEEE2
:104B0000FBE40E945D3835E0DFD00F930170E6E1F1
:104B1000FCE40E943E3808E40093DD06E2EFFBE48B
:104B20000E945D380F9106950170EAE1FCE40E9455
:104B30003E380E940638E8ECFBE404E0019FE00DFB
:104B4000F11D0E944E370E9490390E94313B08307F
:104B500009F40895043019F41A951770A0CF0230A3
:104B600019F4139517709BCF013069F5103019F4C3
:104B70002395277094CF113078F0163068F4312FD8
:104B80003A95A2D0B5D0C1E8DFEFEFE7F0E00E94A0
:104B90006A24002D9CD083CF163061F40E944131ED
:104BA00035E092D0A1E00A2700FD026090D00E947B
:104BB000093175CF173039F435E086D0A2E00A27E5
:104BC00000FD026084D06BCF78007F093A0056095F
:104BD0003A0956123A12561B3A1B56243A24562DBD
:104BE0001D2D3D36662D7E3643683A00547970653A
:104BF0003A00526174653A00536572766F0045530E
:104C000043004869676800004C6F77008A757075CB
:104C1000787582759875F84BFE4B084C024C4344EE
:104C200000003A3B3B3D4747000041204D6F746F09
:104C300072204C61796F7574206D757374006265B4
:104C4000206C6F616465642066697273742E000065
:104C5000557365722070726F66696C652023312010
:104C60006D757374000062652073656C65637465AF
:104C7000642066697273742E00002A4C3E4C504CBE
:104C8000664CEF93FF930E94E1390AE00093DD0642
:104C9000EEE1FCE40E945D380090DD060CE0000EC1
:104CA0000092DD06E2E2FCE40E94CF3702E0FF91D1
:104CB000EF910E9447380E9422380E9490390E944A
:104CC000313B0130E1F7089507D00C94703B0F930E
:104CD00003D00F910C947A3BE4E0F0E0022F000F38
:104CE000000F000FE00F0027F01FE30FF01F0895E3
:104CF000A02FBB27AA230AF4BFEF089500E000937A
:104D0000DF0502E30093E00500E00093E105E0E049
:104D1000F5E0D6D00091DC05009312060091DD0588
:104D2000009313060091DE050093140600914005E0
:104D30000093E205009141050093E30500914205CF
:104D40000093E405E8E0F5E0BBD00091DC050093BA
:104D500015060091DD05009316060091DE0500930F
:104D60001706009140050093E50500914105009369
:104D7000E605009142050093E705E0E1F5E0A0D0EB
:104D80000091DC05009318060091DD0500931906DB
:104D90000091DE0500931A06009140050093E80596
:104DA000009141050093E905009142050093EA0551
:104DB000E8E1F5E085D00091DC0500931B06009149
:104DC000DD0500931C060091DE0500931D06009191
:104DD00040050093EB05009141050093EC0500911F
:104DE00042050093ED05E0E2F5E06AD00091DC05B4
:104DF00000931E060091DD0500931F060091DE055D
:104E000000932006009140050093EE0500914105B6
:104E10000093EF05009142050093F005E8E2F5E00C
:104E20004FD00091DC05009321060091DD05009331
:104E300022060091DE0500932306009140050093B1
:104E4000F105009141050093F205009142050093A0
:104E5000F305E0E3F5E034D00091DC05009324068F
:104E60000091DD05009325060091DE0500932606DE
:104E7000009140050093F405009141050093F5056C
:104E8000009142050093F605E8E3F5E019D00091A2
:104E9000DC05009327060091DD05009328060091AC
:104EA000DE0500932906009140050093F705009167
:104EB00041050093F805009142050093F905089516
:104EC000DD27A481BB27AA2312F4DFEFBFEFB09345
:104ED000DC05A093DD05D093DE051091DC05209163
:104EE000DD053091DE054091DF055091E0056091D0
:104EF000E1050E949C3B7093DC058093DD052092C8
:104F0000DE05B091DC05A091DD05D091DE050081C4
:104F100030914C0540914D0550914E050E94E23B69
:104F200001813091910540919205509193050E9425
:104F3000E23B028130919405409195055091960590
:104F40000E94E23B03813091970540919805509172
:104F500099050E94E23BB0934005A0934105D09390
:104F6000420508950091120700230AF0BDC000E039
:104F700000934005009341050093420500914605CA
:104F800000934305009147050093440500914805AF
:104F900000934505309143054091440550914505E6
:104FA000609140057091410580914205581747076F
:104FB000360794F46091430570914405809145054E
:104FC000552744273327581B470B360B309343058F
:104FD00040934405509345053091490540914A0559
:104FE00050914B05609140057091410580914205BB
:104FF0005817470736076CF00091490500934005A4
:1050000000914A050093410500914B05009342052C
:105010001EC0009149050093400500914A05009388
:10502000410500914B050093420560914005709148
:10503000410580914205552744273327581B470BCC
:10504000360B309340054093410550934205309113
:10505000430540914405509145056091400570918C
:1050600041058091420558174707360764F40091BF
:1050700040050093430500914105009344050091CC
:105080004205009345051091430520914405309158
:1050900045054091300650913106609132060E94DC
:1050A0009C3B7093400580934105209242053091CE
:1050B0002D0640912E0650912F066091400570916B
:1050C000410580914205581B470B360B30932A0649
:1050D00040932B0650932C063CF400E000932A06E4
:1050E00000932B0600932C060E94ED3630915E054E
:1050F00040915F055091600560916705709168056A
:1051000080916905581B470B360B30935E05409321
:105110005F055093600530916105409162055091A3
:10512000630560916A0570916B0580916C05581B51
:10513000470B360B3093610540936205509363052E
:1051400030916405409165055091660560916D054B
:1051500070916E0580916F05581B470B360B30938D
:10516000640540936505509366053091760540913E
:1051700077055091780560917F0570918005809149
:105180008105581B470B360B309376054093770506
:10519000509378053091790540917A0550917B05BF
:1051A000609182057091830580918405581B470B9F
:1051B000360B3093790540937A0550937B053091F7
:1051C0007C0540917D0550917E056091850570912B
:1051D000860580918705581B470B360B30937C055D
:1051E00040937D0550937E05A6E7B5E0C6E7D5E080
:1051F000EDE5F6E00E94863BA9E7B5E0C9E7D5E01A
:10520000EAE5F6E00E94863B00E00093430500E0FB
:105210000093440507E000934505309176054091E1
:1052200077055091780560917806709179068091A4
:105230007A06581B470B360B3093A3054093A40501
:105240005093A5051091A3052091A4053091A505C3
:105250004091430550914405609145050E949C3B57
:105260007093A3058093A4052092A505A8E7B6E056
:10527000C8E7D6E0E3EAF5E00E94863B3091790585
:1052800040917A0550917B0560917B0670917C0678
:1052900080917D06581B470B360B3093A305409336
:1052A000A4055093A5051091A3052091A405309164
:1052B000A5054091430550914405609145050E9424
:1052C0009C3B7093A3058093A4052092A505ABE7B2
:1052D000B6E0CBE7D6E0E3EAF5E00E94863B30910A
:1052E0007C0540917D0550917E0560917E06709110
:1052F0007F0680918006581B470B360B3093A30521
:105300004093A4055093A5051091A3052091A405F1
:105310003091A505409143055091440560914505A4
:105320000E949C3B7093A3058093A4052092A50541
:10533000AEE7B6E0CEE7D6E0E3EAF5E00E94863BD2
:1053400000E00093400500E00093410503EB00936B
:10535000420510917B0620917C0630917D0640919C
:10536000400550914105609142050E949C3B70931D
:105370003F068093400620924106109178062091C6
:10538000790630917A06409140055091410560912F
:1053900042050E949C3B70934206809343062092F4
:1053A000440600915E050093700500915F0500932F
:1053B00071050091600500937205009161050093ED
:1053C00073050091620500937405009163050093D5
:1053D000750500E00093400504E10093410500E0FD
:1053E0000093420530914206409143065091440695
:1053F000609140057091410580914205581747071B
:1054000036070CF0DAC030913F06409140065091CB
:105410004106609140057091410580914205581701
:10542000470736070CF0C9C06091400570914105EF
:1054300080914205552744273327581B470B360BCD
:105440003093400540934105509342053091420608
:10545000409143065091440660914005709141058A
:10546000809142055817470736070CF4A6C03091C3
:105470003F06409140065091410660914005709171
:105480004105809142055817470736070CF495C02F
:1054900000E0009340050CE30093410500E0009319
:1054A000420530917E0640917F06509180066091C2
:1054B000400570914105809142055817470736070E
:1054C0000CF07BC0609140057091410580914205D0
:1054D000552744273327581B470B360B309340057D
:1054E000409341055093420530917E0640917F06DE
:1054F0005091800660914005709141058091420570
:105500005817470736070CF458C030916F06409182
:1055100070065091710660913F067091400680912F
:105520004106581B470B360B30934005409341050D
:10553000509342056091400570914105809142056C
:1055400002E00E94933B6093400570934105809375
:105550004205A0E7B5E0C0E7D5E0E0E4F5E00E9451
:10556000863B3091720640917306509174066091AB
:1055700042067091430680914406581B470B360B38
:10558000309340054093410550934205609140059A
:10559000709141058091420502E00E94933B609327
:1055A00040057093410580934205A3E7B5E0C3E74A
:1055B000D5E0E0E4F5E00E94863B0E9448080E94A6
:1055C00024090E94AB0900910C0700239AF400E023
:1055D00000939A0500939B0500939C0500939D05FD
:1055E00000939E0500939F050093A0050093A105DD
:1055F0000093A2056091460570914705809148058A
:1056000004E00E94933B60934605709347058093A6
:1056100048056091490570914A0580914B0504E069
:105620000E94933B6093490570934A0580934B0514
:1056300060914F05709150058091510504E00E94E2
:10564000933B60934F0570935005809351051091E3
:10565000460520914705309148054091CD05509170
:10566000CE056091CF050E949C3B709346058093C8
:105670004705209248051091490520914A0530912F
:105680004B054091D0055091D1056091D2050E9403
:105690009C3B7093490580934A0520924B051091DD
:1056A0004F0520915005309151054091D3055091FF
:1056B000D4056091D5050E949C3B70934F05809363
:1056C00050052092510510914C0520914D053091C7
:1056D0004E054091D6055091D7056091D8050E949E
:1056E0009C3B70934C0580934D0520924E05009194
:1056F000110700236AF10091120700230AF03EC14E
:105700001091460520914705309148054091D905F3
:105710005091DA056091DB050E949C3B70939105E6
:1057200080939205209293051091490520914A0596
:1057300030914B054091D9055091DA056091DB0518
:105740000E949C3B7093940580939505209296054A
:10575000609146057091470580914805552744277B
:105760003327581B470B360B3093460540934705AC
:105770005093480560914605709147058091480512
:1057800001E00E94933B6093460570934705809328
:10579000480530916F0640917006509171066091F6
:1057A00046057091470580914805581B470B360BFD
:1057B0003093A3054093A4055093A5056091A305DC
:1057C0007091A4058091A50504E00E94933B60932D
:1057D000A3057093A4058093A5051091A3052091BE
:1057E000A4053091A50540912A0650912B066091A1
:1057F0002C060E949C3B7093480680934906209299
:105800004A06009133060093450600913406009342
:105810004606009135060093470688D20091480657
:1058200000934605009149060093470500914A06FA
:1058300000934805609146057091470580914805A1
:1058400001E00E94933B6093460570934705809367
:1058500048056091490570914A0580914B0555278F
:1058600044273327581B470B360B30934905409389
:105870004A0550934B056091490570914A05809106
:105880004B0501E00E94933B6093490570934A05E4
:1058900080934B05309172064091730650917406C7
:1058A0006091490570914A0580914B05581B470B43
:1058B000360B3093A3054093A4055093A505609142
:1058C000A3057091A4058091A50504E00E94933B77
:1058D0006093A3057093A4058093A5051091A3057B
:1058E0002091A4053091A50540912A0650912B06E0
:1058F00060912C060E949C3B709348068093490659
:1059000020924A0600913306009345060091340622
:1059100000934606009135060093470607D2009192
:105920004806009349050091490600934A050091F5
:105930004A0600934B056091490570914A05809194
:105940004B0501E00E94933B6093490570934A0523
:1059500080934B0500911207002382F4A6E4B5E082
:10596000C6E4D5E0E1E9F5E00E94863BA9E4B5E0B4
:10597000C9E4D5E0E4E9F5E00E94863B30915E059C
:1059800040915F0550916005609146057091470513
:1059900080914805581B470B360B3093A305409365
:1059A000A4055093A5056091A3057091A40580916D
:1059B000A50501E00E94933B6093A3057093A405A5
:1059C0008093A5051091A3052091A4053091A5050C
:1059D0004091A6055091A7056091A8050E949C3BA7
:1059E000709348068093490620924A060091AF05BD
:1059F000009345060091B005009346060091B1055D
:105A00000093470693D100914806009391050091B9
:105A100049060093920500914A0600939305609110
:105A2000A3057091A4058091A50503E00E94933B16
:105A30006093A3057093A4058093A5051091A30519
:105A40002091A4053091A5054091B8055091B90564
:105A50006091BA050E949C3B70934005809341057C
:105A600020924205A8E4B6E0CAE9D5E0E0E4F5E01A
:105A70000E94863B0091C105009345060091C20536
:105A8000009346060091C305009347064FD100914D
:105A9000480600939A050091490600939B050091E2
:105AA0004A0600939C05A1E9B5E0C1E9D5E0EAE921
:105AB000F5E00E94863B3091490540914A0550919E
:105AC0004B05609161057091620580916305581BDB
:105AD000470B360B3093A3054093A4055093A505BF
