:020000020000FC
:100000000C943F000C940F570C94EF560C943E0048
:100010000C943E000C9458570C943E000C942F57AF
:100020000C943E000C943E000C943E000C94B7548B
:100030000C943E000C947B520C94AE520C943E00F7
:100040000C943E000C943E000C9481250C943E00D0
:100050000C9495020C943E000C943E000C943E00CF
:100060000C943E000C943E000C943E000C943E0018
:100070000C943E000C943E000C943E0018950FEF3B
:100080000DBF00E10EBFE3E7F0E00E9400640370E3
:1000900000930108E1E7F0E00E94006400934D073F
:1000A000003011F40C94101A013011F40C9439043E
:1000B000023011F40C9422080C94F40C0091010805
:1000C000002329F0E6EFF1E90E94FD480895109120
:1000D0004D0722270E94176206E100933F07E8E7D9
:1000E000F1E00E949C6000E000933F070AE100936A
:1000F000400701E000934407E0E8F1E00E949C60C3
:10010000012FE0EEF1E00E947D60222371F0022FCA
:10011000017069F003E000933F070CE20093400791
:10012000E8E8F1E00E949C6002C00E942B600E94FF
:10013000C661222341F0A8E5B2E00E9487632395BF
:1001400009F422E0C7CF0E94BC63083009F4089587
:10015000043021F41A957AF414E0BCCF023029F46B
:100160001395153044F01127B5CF21E0A12FE1E719
:10017000F0E00E94E263AECF5258204D4F4445005C
:100180004D6F64653A20000052657374617274208B
:10019000697320726571756972656421000053741A
:1001A000616E64617264205258004350504D2028A3
:1001B000616B612E2050504D2900532E4275730003
:1001C000536174656C6C6974652044534D32000052
:1001D000536174656C6C6974652044534D5800001C
:1001E0009E01AA01BA01C001D00100E000934D07B1
:1001F000E1E7F0E00E940A640895112700910108E8
:10020000002329F0E6EFF1E90E94FD4808951F93CD
:100210000E94E45A1F9100918E05009346050091BB
:100220008F050093470500919005009348050E94B3
:10023000176202E200933F0701E00093400500E9E6
:100240000093410500E0009342053091460540913E
:100250004705509148056091400570914105809196
:10026000420558174707360734F400903F0706E069
:10027000000E00923F071F930E947F3D1F9101E0F7
:100280000093440701E10093400704E0E0E6F4E056
:100290000E9486600E942B60E0E5F4E004E0019F8C
:1002A000E00DF11D0E947D5F0E94C6610E947156A3
:1002B0000E949A63002309F4AACF0E943C2B0830C5
:1002C00009F40895043029F41A9513700E94B86354
:1002D0009ECF023011F41395F8CF0130B1F71030F2
:1002E00019F4AAE0FAD093CF113019F4A2E0F5D0B6
:1002F0008ECF123089F0E5D0C1E0DCEFEFEFF3E014
:100300000E942747A02DB12DDD27B0939105A09322
:100310009205D09393056FC000918E050093400520
:1003200000918F05009341050091900500934205CF
:1003300060914005709141058091420502E00E9464
:100340001664609340057093410580934205B09117
:100350004005A0914105D0914205C4E1D0E0E4E020
:10036000F1E00E942747A02DB12DDD27B093400575
:10037000A0934105D09342056091400570914105DD
:100380008091420502E00E941F64609340057093D3
:1003900041058093420530914005409141055091BF
:1003A000420560918E0570918F0580919005581BD4
:1003B000470B360B3093400540934105509342055F
:1003C00030919105409192055091930560914005BF
:1003D0007091410580914205580F471F361F309399
:1003E00091054093920550939305B0919105A0918A
:1003F0009205D0919305E5E7F0E00E94D36365CFC5
:10040000557365204B4B322E31204F6666736574F1
:100410000000557365204B4B322E312E35204F6630
:100420006673657400004D6F6469667920566F6C61
:10043000746167652028312F3130290041646A7565
:100440007374204F66667365742056616C75650021
:1004500000107F1900197F2200227F2B002B7F3490
:100460000004120426043C0454686520626174741C
:1004700065727920766F6C74616765006F6666736C
:10048000657420686173206265656E207365740011
:100490006163636F7264696E6720746F2073656C4B
:1004A0006563746564004B4B3220626F6172642037
:1004B00076657273696F6E2E000068047C04900488
:1004C000A604E5E7F0E00E94CA63DD27B09391053A
:1004D000A0939205D09393050895BB27DD27B09391
:1004E0009105A0939205D0939305E5E7F0E00E9473
:1004F000D3630E94176202E200933F07EEEEF4EC32
:100500000E94FE5F04E0EAEBF4E00E9486600E9435
:1005100061600E94C6610E94C3630895A2E0B0E0DA
:10052000E5E7F0E00E94D3630895FFB6FF93EF93F1
:10053000E090C600E091F407F091F507E192E090B9
:10054000DA079091F60793959E151CF0EBEDF7E016
:1005500099279093F607E093F407F093F507EF914E
:10056000FF91FFBE189500914D07023011F40E94D3
:100570007A0A0091D90700231AF00E94E80308952F
:100580000E94A5570091F807033041F0C9E10E948D
:100590008C630091D90700230AF46BC00E9478563F
:1005A0000E94096205E0E4E0F7EC0E94866001E049
:1005B00000934007B0914C05A0914D05D0914E0598
:1005C000EAE2FCEACFEF0E943156B0914F05A091CC
:1005D0005005D0915105E0E3FCEACFEF0E9431567F
:1005E0000E945F56B0915205A0915305D0915405D9
:1005F0000E94B55F05E500933F0700917207002355
:1006000012F4AA2708C0EAE5F0E00E946E5614F43E
:10061000A1E001C0A2E0E6E3FCEA0E945656B091D8
:100620005505A0915605D0915705ECE3FCEACFEFB4
:100630000E9431560E945F56B0915805A09159050D
:10064000D0915A050E94B55F05E500933F070091E0
:100650007F07E4EEF6EC0E947D6000E000933F0728
:1006600009E300934007E4E7F5EC0E949C600E94D8
:10067000C6610E949A63083009F40895043019F4A1
:100680000E943C2B01D07CCF0E94A55700914D07C2
:10069000023011F40E947A0A0091F807033041F009
:1006A000C9E10E948C630091D90700230AF45EC05F
:1006B0000E94A707109161052091620530916305A2
:1006C0004091400550914105609142050E9425648A
:1006D0007093610580936205209263050E94096210
:1006E000BB270E94215601E000934007B0915B05B3
:1006F000A0915C05D0915D05E4E2FCEACFEF0E9499
:100700003156B0915E05A0915F05D0916005E4E29D
:10071000FCEACFEF0E9431560E945F56B09161050E
:10072000A0916205D09163050E94B55F05E5009335
:100730003F0700918C07EEEFF6EC0E947D60009180
:100740004D07023079F4A091D407E0E8F7E0C8E85B
:10075000D7E01ED0A091D507E4E8F7E0CCE8D7E0D9
:100760000E94C8030E9449600E94C6610E949A6369
:10077000083029F40E943C2B0E94B863089584CF6E
:100780004447310044473200CAC5E0C5CAC5CEC59A
:10079000CF93DF93AF9300E000933F070E94F75F92
:1007A0000E949C6000E300933F070E94156009E3EC
:1007B00000933F0700E3AF910A0F0E94A26005E596
:1007C00000933F070A2FFF91EF910E947D600895EB
:1007D0000E94176206E100933F07EEE1F8E00E94F5
:1007E000FE5F00E000933F0700914D07023019F4CF
:1007F000E8E3F8E002C0E6E2F8E00E949C600E94B4
:10080000F75F02E0EEE6F8E00E9486600E94496031
:100810000E94C6610E94BC630830E1F708954E4F04
:10082000204441544100506C6561736520737570BC
:10083000706C792053617400506C6561736520732E
:100840007570706C7920532E427573006461746109
:1008500020746F20746865207468726F74746C659E
:100860000000696E7075742070696E2E00004C086F
:100870006208A4E6B0E00E9487630E9460050E94BF
:10088000182E0E94C6610E94F8610E94C6610E94F3
:10089000F63500E00093450700E00093460700E0CE
:1008A0000093470700E00093480703E00093970593
:1008B0000FEF0093980500E00093990501E0009385
:1008C0009C060EE800939D0600E000939E0600271C
:1008D0000093A2070093A3070093A40700936E0759
:1008E0000093770700937407AFEAA0937E07A2E016
:1008F000A0937F07A1E0A0938C07A09381070093AA
:10090000AE070093AF070093B0070093B1070093C1
:10091000B2070093B3070093B4070093B5070093A1
:10092000B6070093B7070093B8070093B907009381
:10093000BA070093BB070093BC070093BD07009361
:10094000D4070093D9070093A6070093A907009343
:10095000A707EEEAF7E0E093AC07F093AD07A3E05A
:10096000A093F80700E100939B070E94675E0E9436
:1009700045390E94961400917807002312F40C94D4
:10098000A3147894E4E7F0E00E940064002351F09F
:100990000E94723503B1009502950F7089F00E9494
:1009A0007C340EC00FEF009394070E949A630830C6
:1009B00011F40E941F2E013019F40FEF00937707F6
:1009C0000E943A4006E006BB0E9458520E94CE06A2
:1009D0000E94D9070E94523F0E94F32C0E944A2F86
:1009E0000E94FF1D0E94624A0E942E490E943C12F2
:1009F0000E941D2A0E94E72B0E94BA5200907007A5
:100A00001090710701240092910700919107002333
:100A100032F40E94C02C009170070093710700917E
:100A2000760700232AF40027009376070E94103CE3
:100A30000091700700230AF4C7CF03B10095029517
:100A40000F7039F400270093940700E000938E079D
:100A5000BBCF00918E07039500938E0700918E0700
:100A6000023309F0B1CF00919407002372F300E044
:100A700000936F000E949A630F7039F3013029F0E0
:100A8000083061F00E9452259BCF0E943C2B0E94AF
:100A9000E31948F40FEF0093940792CF0E943C2B88
:100AA0000E94FA19F7CF29982A980E9466250E9479
:100AB00091540E9499050E94A5540E947C2580CFE4
:100AC00002E301B90EE004B90CEF07B902EF0AB96D
:100AD0000FEF00937E0001EF05B903E008B90DE0C8
:100AE0000BB900E00093800002E00093810000E079
:100AF0000093820008E00093680001E00093730017
:100B00000091B9000C7F0093B90001E10093B80097
:100B10005D9A5C9A5E982B9A299AA4EFB1E00E94A4
:100B200087632B9829985E9AA4E6B0E00E948763B9
:100B30000895C8E7DBE0A0914607B091450702E1C0
:100B40000E94522BC0934607D093450708F00895A2
:100B5000AA0FE0EEFCE0EA0F0027F01FA591B49188
:100B6000FD0109950E943C2B0E94F8610E94C6611C
:100B70000E94B8630C94990552656D6F746520549A
:100B8000756E696E67202020202020205049204566
:100B90006469746F722020202020202020202020D3
:100BA00053656C662D6C6576656C2053657474694D
:100BB0006E677320537469636B205363616C696E55
:100BC00067202020202020204D6F6465205365740D
:100BD00074696E6773202020202020204D69736384
:100BE0002E2053657474696E6773202020202020A6
:100BF00047696D62616C2053657474696E67732018
:100C000020202020416476616E6365642053657402
:100C100074696E677320202041555820537769749A
:100C2000636820536574757020202020496E6974B4
:100C300069616C205365747570202020202020206D
:100C4000526563656976657220546573742020204F
:100C50002020202053656E736F72205465737420BA
:100C6000202020202020202053686F77204D6F7493
:100C70006F72204C61796F757420202055736572F6
:100C80002050726F66696C65202020202020202073
:100C900045787472612046656174757265732020B1
:100CA000202020204553432043616C6962726174A7
:100CB000696F6E202020202056657273696F6E2048
:100CC000496E666F726D6174696F6E204C4344208B
:100CD000436F6E74726173742020202020202020C6
:100CE0003B1B7F460A329E3B4C3AF33A0511AD1549
:100CF000272ED437EB54F45994320F241716783535
:100D0000E729B12DAF93BF93EF93FF93A091840098
:100D1000B0918500E091AA07F091AB07A093AA07D4
:100D2000B093AB07AE1BBF0B2AF4E0E0F0E0EA1B88
:100D3000FB0BDF01EAE6F8E1AE17BF0790F0EEEA41
:100D4000F7E09091A907EE24E092A9079093A707F6
:100D500094300CF419C09FEF9093D907E092A60746
:100D600013C09091A90793959093A907E091AC07C0
:100D7000F091AD07A193B193AEEBB7E0EA17FB0793
:100D800018F011F0EEEBF7E0E093AC07F093AD074D
:100D9000FF91EF91BF91AF91FFBE18950090C007F2
:100DA0000E94D2580E94DD580E94F958DD27B09366
:100DB0004C05A0934D05D0934E050090C1070E94AD
:100DC000D2580E94DD580E94F958DD27B0934F0594
:100DD000A0935005D09351050090C2070E94D258AD
:100DE0000027009372070E94F058EBE3FBE0AE1B74
:100DF000BF0BE0E0F0E0AE17BF070CF405C0E5E381
:100E0000FCE0AE17BF072CF0A0E0B0E00FEF0093BE
:100E10007207DD27B0935205A0935305D093540574
:100E20000090C3070E94D2580E94DD580E94F958D2
:100E3000DD27B0935505A0935605D0935705009034
:100E4000C4070E94D2580E94DD58CC27E8EAFDEF83
:100E5000AE17BF079CF0C395E8E3FFEFAE17BF07DF
:100E60006CF0C395E8ECF0E0AE17BF073CF0C3951B
:100E7000E8E5F2E0AE17BF070CF0C395C0937F071B
:100E8000DD27B0935805A0935905D0935A050090DB
:100E9000C5070E94D2580E94DD58DD27B0935B053C
:100EA000A0935C05D0935D050090C6070E94D258C0
:100EB0000E94DD58DD27B0935E05A0935F05D093B7
:100EC00060050090C7070E94D2580E94DD58CC27C9
:100ED000E0E7FEEFAE17BF073CF0C395E0E9F1E0B5
:100EE000AE17BF070CF0C395C0938C07DD27B093F6
:100EF0006105A0936205D09363050091D907002393
:100F000022F510C00093A6070091700700234AF451
:100F10000091A707A091A8070A1719F0A4E00E9462
:100F2000CC1908950091A6070395A09167070A17A9
:100F300048F300917007002342F400919B0703607F
:100F400000939B070FEF00937C070C94310C00E09B
:100F50000093400500E00093410509E1009342053C
:100F600010915B0520915C0530915D054091400535
:100F700050914105609142050E94256470935B0584
:100F800080935C0520925D0510915E0520915F05C0
:100F900030916005409140055091410560914205B6
:100FA0000E94256470935E0580935F052092600522
:100FB00008950091D90700950071A0919B07AF7E1D
:100FC0000A2B00939B0708954E4F205349474E41EB
:100FD0004C00506C6561736520737570706C79207E
:100FE00061204350504D00002850504D2920736916
:100FF000676E616C20746F20746865007468726F2E
:1010000074746C6520696E7075742070696E2E0042
:10101000D20FE80FFC0F0E9417620AE000933F070F
:10102000E8ECFFE00E94FE5F03E0E0E1F0E10E94F7
:1010300086600E9449600E94C6610E94BC630830BD
:10104000E1F70895A4E6B0E00E9487630E943809A2
:101050000E94182E0E94C6610E94F8610E94C6611B
:101060000E94F63500E00093450700E00093460734
:1010700000E00093470700E00093480703E0009377
:1010800097050FEF0093980500E00093990501E0A4
:1010900000939C060EE800939D0600E000939E06D8
:1010A00000270093A2070093A3070093A4070093CF
:1010B0006E070093770700937407AFEAA0937E074B
:1010C000A2E0A0937F07A1E0A0938C07A0938107E3
:1010D000A9E1A093DA070093D9070093A60700932C
:1010E000D4070093D5070093D6070093F607009323
:1010F000F7070093F8070093DB07EBEDF7E0E093C9
:10110000F407F093F50700E100939B070E94675EE8
:101110000E9445390E94961400917807002312F42A
:101120000C94A3147894E4E7F0E00E940064002398
:1011300051F00E94723503B1009502950F7089F04D
:101140000E947C340EC00FEF009394070E949A63B4
:10115000083011F40E941F2E013019F40FEF009394
:1011600077070E943A4000919B070F7D00939B07F1
:1011700006E006BB0E9458520E94BF0A0E947A0AEB
:101180000E94AE0A0E94523F0E94F32C0E944A2FF6
:101190000E94FF1D0E94624A0E942E490E943C123A
:1011A0000E941D2A0E94E72B0E94BA5200907007ED
:1011B000109071070124009291070091910700237C
:1011C00032F40E94C02C00917007009371070091C7
:1011D000760700232AF40027009376070E94103C2C
:1011E0000091700700230AF4C5CF03B10095029562
:1011F0000F7039F400270093940700E000938E07E6
:10120000B9CF00918E07039500938E0700918E074A
:10121000023309F0AFCF00919407002372F300E08E
:1012200000936F000E949A630F7039F3013029F028
:10123000083061F00E94522594CF0E943C2B0E94FE
:10124000E31948F40FEF009394078BCF0E943C2BD7
:101250000E94FA19F7CF29982A980E9466250E94C1
:1012600091540E9486090E94A5540E947C2579CF42
:1012700002E301B90FE004B90CEF07B902EF0AB9B4
:101280000FEF00937E0000EF05B903E008B90DE011
:101290000BB900E00093800002E00093810000E0C1
:1012A000009382000091C000007819F00091C60000
:1012B000F9CF02E00093C00000270093C50008E1C9
:1012C0000093C40000E10093C1000EE20093C2004D
:1012D0000091C10000680093C1000091B9000C7F2B
:1012E0000093B90001E10093B8005D9A5C9A5E98A2
:1012F0002B9A299AA4EFB1E00E9487632B98299832
:101300005E9AA4E6B0E00E9487630895C2E5D3E147
:10131000A0914607B091450703E10E94522BC0936C
:101320004607D093450708F00895AA0FEEECF4E1C4
:10133000EA0F0027F01FA591B491FD0109950E94C5
:101340003C2B0E94F8610E94C6610E94B8630C9415
:10135000860952656D6F74652054756E696E6720DD
:10136000202020202020504920456469746F72207D
:101370002020202020202020202053656C662D6C0A
:101380006576656C2053657474696E677320537459
:1013900069636B205363616C696E67202020202095
:1013A00020204D6F64652053657474696E677320E7
:1013B0002020202020204D6973632E2053657474F3
:1013C000696E677320202020202047696D62616C60
:1013D0002053657474696E67732020202020416457
:1013E00076616E6365642053657474696E677320FB
:1013F00020204155582053776974636820536574E1
:101400007570202020204447322053776974636828
:1014100020536574757020202020496E69746961BD
:101420006C20536574757020202020202020526588
:1014300063656976657220546573742020202020CE
:10144000202053656E736F722054657374202020C2
:1014500020202020202053686F77204D6F746F72FA
:10146000204C61796F75742020205573657220506F
:10147000726F66696C65202020202020202045782E
:101480007472612046656174757265732020202036
:1014900020204553432043616C6962726174696F17
:1014A0006E202020202056657273696F6E20496E71
:1014B000666F726D6174696F6E204C434420436F98
:1014C0006E747261737420202020202020203B1B2A
:1014D0007F460A329E3B4C3AF33A0511AD15272E52
:1014E0008F0CD437B302F45994320F241716783581
:1014F000E729B12DA091D307B091D907BB2331F4CF
:1015000000919B07006100939B07089500919B0742
:101510000F7E00939B070A2F01700093D4070A9552
:10152000009500937C07A6950A2F01700093D507BC
:10153000A695A695A17089F0A093D60700919B0768
:10154000006200939B070FEF00937C0700917007E8
:1015500000231AF4A2E00E94CC1908950091D50747
:10156000002311F4289A0AC0C091D707C69518F431
:10157000002700937207C69508F428980895A09153
:10158000F607B091F707AB1759F0A093F70701E002
:101590000093F8070091D90700230AF44BC061C1FA
:1015A0000091F807023059F00395043608F00A95C7
:1015B0000093F8070091D90700238AF73BC0A09158
:1015C000F607AA2391F000270093F8070093F70786
:1015D000F8940093F6070093DB07EBEDF7E0E09358
:1015E000F407F093F50778943CC1EBEDF7E0008148
:1015F0000F3009F036C1E3EFF7E00081002321F05E
:1016000000810F7C0430B1F70FEF0093D9073197B9
:1016100000810093D307ECEDF7E0A8ECB7E0CAE057
:1016200001910D93CA95E2F703E00093F8070027B4
:101630000093A607A091C807B091C907B770A093FF
:10164000AE07B093AF07A091C907B091CA07B7958D
:10165000A795B795A795B795A795B770A093B0072D
:10166000B093B107D091CA07A091CB07B091CC0736
:10167000DD1FAA1FBB1FDD1FAA1FBB1FB770A093D2
:10168000B207B093B307A091CC07B091CD07B7953F
:10169000A795B770A093B407B093B507A091CD07F5
:1016A000B091CE07B795A795B795A795B795A7958C
:1016B000B795A795B770A093B607B093B707D09129
:1016C000CE07A091CF07B091D007DD1FAA1FBB1F87
:1016D000B770A093B807B093B907A091D007B091A5
:1016E000D107B795A795B795A795B770A093BA07F7
:1016F000B093BB07A091D107B091D20705E0B69592
:10170000A7950A95E1F7A093BC07B093BD07009099
:10171000C007F0D0F9D00E94F958B0934C05A093BF
:101720004D05D0934E050090C107E4D0EDD00E9446
:10173000F958B0934F05A0935005D09351050090F0
:10174000C207D8D0002700937207E0E9F1E0AE1B92
:10175000BF0BDED0E0E0F0E0AE17BF072CF4A0E056
:10176000B0E00FEF00937207B0935205A0935305BA
:10177000D09354050090C307BDD0C6D00E94F9583D
:10178000B0935505A0935605D09357050090C40714
:10179000B1D0BAD0B0935805A0935905D0935A054B
:1017A000CC27E8EAFDEFAE17BF079CF0C395E8E34E
:1017B000FFEFAE17BF076CF0C395E8ECF0E0AE1793
:1017C000BF073CF0C395E8E5F2E0AE17BF070CF0A9
:1017D000C395C0937F070090C5078CD095D0B09378
:1017E0005B05A0935C05D0935D050090C60782D091
:1017F0008BD0B0935E05A0935F05D09360050090F9
:10180000C70778D081D0B0936105A0936205D093CB
:101810006305CC27E0E7FEEFAE17BF073CF0C395AA
:10182000E0E9F1E0AE17BF070CF0C395C0938C0759
:101830000091D9070023AAF403C00093A6070895D6
:101840000091A60703950A3FC0F30091700700239B
:1018500042F400919B07036000939B070FEF0093F6
:101860007C0700270093D90700E000934C05009304
:101870004D0500934E0500934F05009350050093CE
:1018800051050093520500935305009354050093AE
:10189000550500935605009357050093580500938E
:1018A000590500935A0500935B0500935C0500936E
:1018B0005D0500935E0500935F050093600500934E
:1018C000610500936205009363050FEF00937207B3
:1018D00000917F07023031F002E000937F070FEFA5
:1018E000009380070091700700231AF4A1E00E9482
:1018F000CC190895EEEAF7E002E0009DE00DF11D3D
:10190000A191B081DD270895E0E0F4E0AE1BBF0BAC
:10191000EA2FFB2FF595E795AE0FBF1F089511270E
:101920000E9469463091D70720E60E94096202E0D2
:10193000E8ECF9E10E94866001E000934007C09165
:10194000D70744D043D00E943860ECE1F7E704E0C9
:10195000019FE00DF11D0E947D5F0E94C6610E9403
:10196000BC63083051F40091D707031729F0EEEC5F
:10197000F0E0A02F0E94E0630895043019F41A9556
:101980001170D3CF023011F41395FACF013059F40E
:10199000012FAA270894AA1F0A95EAF70091D707F2
:1019A0000A270093D707C1CF537461792041726D24
:1019B00065642F5370696E004469676974616C20B7
:1019C0004F75747075740000A819B81920933F07FB
:1019D0000E9415600C2FEAECF6EC01700E947D600D
:1019E0000E94F75FC69508950027009394070E9410
:1019F000090E0E94182E0E94C6610E94F8610E9482
:101A0000C6610E94F63500E00093450700E00093B0
:101A1000460700E00093470700E00093480703E013
:101A2000009397050FEF0093980500E00093990548
:101A300001E000939C060EE800939D0600E00093F1
:101A40009E0600270093A2070093A3070093A40714
:101A500000936E070093770700937407AFEAA09393
:101A60007E07A2E0A0937F07A1E0A0938C07A0933C
:101A70008107A0E1A093DA070093D9070093A60796
:101A80000093D4070093F6070093F7070093F80735
:101A90000093DD07EBEDF7E0E093F407F093F50733
:101AA00000E100939B070E94675E0E9445390E94F7
:101AB000530E0E94961400917807002312F40C94A0
:101AC000A3147894E4E7F0E00E940064002371F02E
:101AD0000E947235009194070023B2F003B1009583
:101AE00002950F7089F00E947C340EC00FEF0093B6
:101AF00094070E949A63083011F40E941F2E01304F
:101B000019F40FEF009377070E943A4000919B076A
:101B10000F7D00939B0706E006BB0E9458520E946F
:101B2000620F0E94FA100E94523F0E94F32C0E9402
:101B30004A2F0E94FF1D0E94624A0E942E490E9465
:101B40003C120E941D2A0E94E72B0E94BA5200906C
:101B5000700710907107012400929107009191077E
:101B6000002332F40E94C02C00917007009371078B
:101B70000091760700232AF40027009376070E943D
:101B8000103C0091700700230AF4C7CF03B1009501
:101B900002950F7039F400270093940700E000933A
:101BA0008E07BBCF00918E07039500938E0700919F
:101BB0008E07023309F0B1CF00919407002372F32E
:101BC00000E000936F000E949A630F7039F30130B8
:101BD00029F0083061F00E94522596CF0E943C2BDC
:101BE0000E94E31948F40FEF009394078DCF0E94F1
:101BF0003C2B0E94FA19F7CF29982A980E94662553
:101C00000E9491540E94620E0E94A5540E947C255D
:101C10007BCF02E301B90EE004B90CEF07B902EF84
:101C20000AB90FEF00937E0001EF05B903E008B990
:101C30000DE00BB9ACE3B0E00E9487630E949A63A9
:101C4000063079F4A3E000914D07043009F4A7E0D1
:101C500003EF0AB90E944B0F02EF0AB90FEF00938E
:101C6000940700E00093800002E00093810000E010
:101C7000009382000091B9000C7F0093B90001E14C
:101C80000093B8005D9A5C9A5E982B9A299AA4EF0B
:101C9000B1E00E9487632B9829985E9AA4E6B0E091
:101CA0000E948763089500270093C0000093C50039
:101CB0000AE00093C40000E90093C10006E000932D
:101CC000C2000895CAE0DDE1A0914607B091450742
:101CD00002E10E94522BC0934607D093450708F0BB
:101CE0000895AA0FE2E7FEE1EA0F0027F01FA59191
:101CF000B491FD0109950E943C2B0E94F8610E945D
:101D0000C6610E94B8630C94620E52656D6F746573
:101D10002054756E696E67202020202020205049B5
:101D200020456469746F722020202020202020200C
:101D3000202053656C662D6C6576656C2053657448
:101D400074696E677320537469636B205363616CAD
:101D5000696E67202020202020204D6F646520536D
:101D6000657474696E6773202020202020204D69DF
:101D700073632E2053657474696E6773202020206E
:101D8000202047696D62616C2053657474696E67C9
:101D9000732020202020416476616E6365642053A7
:101DA000657474696E6773202020415558205377FD
:101DB0006974636820536574757020202020496E13
:101DC000697469616C20536574757020202020202F
:101DD00020205265636569766572205465737420AE
:101DE00020202020202053656E736F72205465736D
:101DF0007420202020202020202053686F77204D41
:101E00006F746F72204C61796F7574202020557348
:101E100065722050726F66696C652020202020203A
:101E2000202045787472612046656174757265730F
:101E30002020202020204553432043616C6962729A
:101E40006174696F6E202020202056657273696F5F
:101E50006E20496E666F726D6174696F6E204C43BF
:101E60004420436F6E747261737420202020202000
:101E700020203B1B7F460A329E3B4C3AF33A051129
:101E8000AD15272ED437B302F45994320F24171608
:101E90007835E729B12D5898C6E70E94560F589A11
:101EA000CAE70E94560FAA95B1F7089500C000C076
:101EB00000C000C000C000C000C000C00000CA9543
:101EC000A9F70895442700914D070430F1F02CE163
:101ED00033E002E00093490500E000934A0500E08A
:101EE00000934B0500E00093400502E0009341059C
:101EF0000EEE0093420500E0009343050DEC0093C5
:101F0000440500E0009345051DC028E337E004E0E8
:101F10000093490500E000934A0500E000934B055B
:101F200000E00093400501E00093410507E70093BE
:101F3000420501E0009343050AE90093440500E0EF
:101F4000009345053093D807A091F607B091F707A5
:101F5000AB1759F0A093F70701E00093F807009141
:101F6000D90700230AF45BC00BC10091F8070230C7
:101F700069F00023C9F30395043608F00A9500932D
:101F8000F8070091D90700237AF749C0A091F60716
:101F9000AA2381F000270093F8070093F707F8942D
:101FA0000093F607EBEDF7E0E093F407F093F50705
:101FB0007894E6C00FEF0093D907ADEDB7E012E0DB
:101FC000EEEAF7E0DD91CD914D2B0D2F06952833EC
:101FD00009F406950E700395E00F08F4F395D323EA
:101FE000D0833197C0831395139510314CF3032F91
:101FF00000954023421769F000919B07006200930F
:102000009B070091700700231AF4A3E00E94CC19EB
:10201000B7C003E00093F80700270093A607002746
:102020000093BC070093BD070090C007ABD0B7D0AA
:102030000E94F958B0934C05A0934D05D0934E05DE
:102040000090C1079FD0ABD00E94F958B0934F05C4
:10205000A0935005D09351050090C20793D000275C
:1020600000937207F0914305E0914405AE1BBF0B4E
:10207000A0D0E0E0F0E0AE17BF072CF4A0E0B0E0A5
:102080000FEF00937207B0935205A0935305D093BE
:1020900054050090C30776D082D00E94F958B093BF
:1020A0005505A0935605D09357050090C4076AD0F4
:1020B00076D0B0935805A0935905D0935A05CC27F4
:1020C000E8EAFDEFAE17BF079CF0C395E8E3FFEF2A
:1020D000AE17BF076CF0C395E8ECF0E0AE17BF0792
:1020E0003CF0C395E8E5F2E0AE17BF070CF0C395EE
:1020F000C0937F070090C50745D051D0B0935B05D2
:10210000A0935C05D0935D050090C6073BD047D0F7
:10211000B0935E05A0935F05D09360050090C7075C
:1021200031D03DD0B0936105A0936205D093630593
:10213000CC27E0E7FEEFAE17BF073CF0C395E0E920
:10214000F1E0AE17BF070CF0C395C0938C07009168
:10215000D9070023AAF403C00093A60708950091AD
:10216000A60703950A3FC0F300917007002342F4CD
:1021700000919B07036000939B070FEF00937C0780
:102180000C94310CEEEAF7E002E0009DE00DF11D49
:10219000A191B081DD270091D807B0230895AD1734
:1021A000BD0709F40895F0914905E0914A05AE1B79
:1021B000BF0BB0934605A0934705D09348051091F7
:1021C00046052091470530914805409140055091C2
:1021D0004105609142050E942564709346058093F5
:1021E000470520924805B0914605A0914705D0913A
:1021F000480508950091D90700950071A0919B07AB
:10220000AF7E0A2B00939B0708950E9412440E9400
:102210004E4600916907007C09F01ED10E940962B8
:1022200005E0E6E8F3E20E94866001E000934007E3
:1022300028E4E1EBF0E007D106D105D104D12093E9
:102240003F070E941560E9EBF0E00E94DA6300931B
:10225000A0070170ECE9F3E20E947D6000E00093CA
:102260003F0709E300934007E4E7F5EC0E949C6018
:10227000EEE7F5EC0E949C60E2ECF3E204E0019FE3
:10228000E00DF11D0E947D5F0E94C6610E94BC634B
:10229000083009F40895043011F422D0BFCF023081
:1022A00029F4139515300CF01127B8CF0130E9F758
:1022B000143051F4A091A007A095A093A007E9EBDA
:1022C000F0E00E94E063AACFE1EBF0E002E0019FC2
:1022D000E00DF11DC8EDDCEDA8E2B3E2A3D09ECF86
:1022E000112724E50E94096202E0EEEBF3E20E946E
:1022F000866001E000934007EAEBF0E0A4D0A3D0B1
:102300000E943860E6EDF3E204E0019FE00DF11D6C
:102310000E947D5F0E94C6610E94BC63083011F478
:1023200011270895043019F41A951170DBCF02308B
:10233000D9F30130D9F7EAEBF0E002E0019FE00DBC
:10234000F11DC8E1DCEFA8EEB3E06CD0CBCF526F4B
:102350006C6C204761696E00526F6C6C204F666632
:10236000736574005069746368204761696E00008A
:102370005069746368204F666673657400004D6928
:1023800078696E6700004E235823642370237E23F0
:102390004E6F6E65000044696666000090239623C8
:1023A000486F6D6520506F7320526F6C6C00486FE2
:1023B0006D6520506F732050697463680000A0231E
:1023C000AE2353007309530973125312731B531B2B
:1023D00073245324732D5F007F095F097F124F75AB
:1023E00074707574207479706520697320736574D6
:1023F00020746F0045534320666F72204D37206173
:102400006E642F6F72204D382E00436865636B2019
:102410004D6978657220456469746F722E00DE2301
:10242000F4230A24EF93FF93AF93BF930E94C863F2
:10243000FF91EF910E942747A02DB12DFF91EF91C1
:102440000E94D163089520933F070E9415600E9467
:10245000C8630E94F65F08950E9417620E9406609A
:1024600003E0EEE1F4E20E9486600E9461600E9457
:10247000C6610E94C363089500E000934005009385
:102480004105009342053091B1064091B20650914A
:10249000B30660914005709141058091420558173F
:1024A0004707360709F011C03091B7064091B806CA
:1024B0005091B906609140057091410580914205A7
:1024C00058174707360709F408950091A407002319
:1024D00069F000E000935B0500935C0500935D05E7
:1024E00000935E0500935F050093600500918C07E3
:1024F000023029F50091C60600935B050091C706DE
:1025000000935C050091C80600935D050091C30629
:1025100000935E050091C40600935F050091C50617
:102520000093600500E00093C0060093C10600938D
:10253000C2060093BD060093BE060093BF0630910D
:102540005B0540915C0550915D056091BA06709104
:10255000BB068091BC06580F471F361F30935B05A2
:1025600040935C0550935D0530915E0540915F0599
:10257000509160056091B4067091B5068091B606E1
:10258000580F471F361F30935E0540935F055093E9
:10259000600503E00093400508EE0093410500E06C
:1025A0000093420530915B0540915C0550915D05BB
:1025B000609140057091410580914205580F471F79
:1025C000361F30935B0540935C0550935D05309159
:1025D0005E0540915F0550916005609140057091E6
:1025E000410580914205580F471F361F30935E0505
:1025F00040935F055093600500E00093400502E0C2
:102600000093410500E80093420510915B0520917D
:102610005C0530915D054091400550914105609108
:1026200042050E9425647093CC068093CD062092CB
:10263000CE0610915E0520915F05309160054091B6
:10264000400550914105609142050E9425647093B8
:10265000C9068093CA062092CB0600918C070130F0
:1026600041F510919F062091A0063091A10640915E
:10267000B1065091B2066091B3060E942564709332
:10268000BD068093BE062092BF061091A20620913F
:10269000A3063091A4064091B7065091B806609108
:1026A000B9060E9425647093C0068093C1062092EB
:1026B000C2060091A00700230AF09FC00091BD064A
:1026C000009340050091BE06009341050091BF06AE
:1026D000009342053091BD064091BE065091BF0661
:1026E0006091C0067091C1068091C206581B470BCD
:1026F000360B3093BD064093BE065093BF06309113
:10270000C0064091C1065091C2066091400570918B
:10271000410580914205580F471F361F3093C00670
:102720004093C1065093C2060091C906009340052C
:102730000091CA06009341050091CB060093420523
:102740003091C9064091CA065091CB066091CC06E3
:102750007091CD068091CE06581B470B360B3093F7
:10276000C9064093CA065093CB063091CC064091DF
:10277000CD065091CE066091400570914105809143
:102780004205580F471F361F3093CC064093CD06A5
:102790005093CE0609E00093400504EC00934105F8
:1027A00000E0009342053091C9064091CA0650915D
:1027B000CB06609140057091410580914205580F0C
:1027C000471F361F3093C9064093CA065093CB0665
:1027D0003091CC064091CD065091CE0660914005D7
:1027E0007091410580914205581B470B360B309381
:1027F000CC064093CD065093CE063091BD06409155
:10280000BE065091BF066091C9067091CA068091BC
:10281000CB06580F471F361F3093210640932206E0
:10282000509323063091C0064091C1065091C206D4
:102830006091CC067091CD068091CE06580F471F4F
:10284000361F3093240640932506509326060091A8
:102850002106009351060091220600935206009132
:10286000230600935306009124060093540600911A
:1028700025060093550600912606009356060895F6
:10288000E7E7F0E00E940064102F0E9417620CE15D
:1028900000933F07E2EEF8E20E94FE5F03E0E6E20B
:1028A000F9E20E9486600AE200933F0709E3009381
:1028B0004007ECE5F5EC0E949C600E94C6610E9416
:1028C000BC63043011F40FEF03C00230C1F70027DE
:1028D000011731F0E7E7F0E00E940A640C94153824
:1028E000089547494D42414C000055736520746876
:1028F000697320626F617264206173206100737478
:10290000616E642D616C6F6E652028736572766FE1
:10291000290067696D62616C20636F6E74726F6C01
:102920006C65723F0000EA28FE281229E7E7F0E014
:102930000E9400640093780708950027E7E7F0E01D
:102940000E940A64089500270093790700937A078C
:1029500000937B0778940FEF009394070E949A638B
:10296000083011F40E941F2E0E943A4006E006BB78
:102970000E9458520E94A5570E94624A0E942E4906
:102980000E943C120E941D2A0E94E72B0E94BA520C
:1029900000E000939306009394060093950600913F
:1029A000760700232AF40027009376070E94103C44
:1029B0000091700700230AF4DBCF03B10095029564
:1029C0000F7039F400270093940700E000938E07FE
:1029D000CFCF00918E07039500938E0700918E074D
:1029E000023309F0C5CF00919407002372F300E091
:1029F00000936F000E949A63077039F3013019F059
:102A00000E945225B1CF0E943C2B29980E94662536
:102A10000E9491540E9411150E94A5540E947C2589
:102A2000A3CFC8E6DAE2A0914607B09145070BE0D4
:102A30000E94522BC0934607D093450708F0089593
:102A4000AA0FE4E4FBE2EA0F0027F01FA591B4917E
:102A5000FD0109950E943C2B0E94F8610E94C6610D
:102A60000E94B8630C9411154D6F64652053657412
:102A700074696E6773202020202020204D697363C5
:102A80002E2053657474696E6773202020202020E7
:102A900047696D62616C2053657474696E67732059
:102AA00020202020416476616E6365642053657444
:102AB00074696E6773202020496E697469616C20A7
:102AC0005365747570202020202020205265636596
:102AD00069766572205465737420202020202020A0
:102AE00053656E736F72205465737420202020200C
:102AF00020202020557365722050726F66696C65C6
:102B00002020202020202020457869742047696DEE
:102B100062616C204D6F64652020202056657273C1
:102B2000696F6E20496E666F726D6174696F6E2099
:102B30004C434420436F6E747261737420202020D4
:102B4000202020204C3AF33A0511AD15D4378B558F
:102B5000F4590F244014E729B12D11270E94176260
:102B600000E100933F07ECEDFBE20E94FE5F04E012
:102B7000E6E2FCE20E9486600E942160E0E9FFE656
:102B800004E0019FE00DF11D0E947D5F0E94C6617F
:102B90000E94BC63083009F40895043019F41A95B2
:102BA0001370DCCF023011F41395FACF0130B1F677
:102BB0000E94B8631F93103019F40E9473180CC060
:102BC000113019F40E94A35E07C0123019F40E945C
:102BD000F84702C00E94DC171F91C0CF4144564104
:102BE0004E43454400004368616E6E656C204D6144
:102BF0007070696E670053656E736F7220536574F1
:102C000074696E6773004D697865722045646974F4
:102C10006F720000426F617264204F7269656E745A
:102C20006174696F6E00E62BF62B062C142C1127AD
:102C30000E94176202E200933F07E4EAFCE20E946E
:102C4000FE5F02E0E0EDFCE20E9486600E942160EF
:102C5000E0E9FFE604E0019FE00DF11D0E947D5FC9
:102C60000E94C6610E94BC63083009F408950430D4
:102C700021F41A95EAF61127DBCF023029F41395D7
:102C80001230B4F211E0D4CF013091F60E94B86353
:102C90001F93103019F40E946A1602C00E9440145B
:102CA0001F91C6CF455854524100436865636B205D
:102CB0004D6F746F72204F7574707574730047692F
:102CC0006D62616C20436F6E74726F6C6C65720024
:102CD000AA2CBE2CEFEBF0E00E94006400232AF047
:102CE000E2EFF1E90E94FD4808954AD108F4089501
:102CF0000E941D460E9412440E944E465091690750
:102D0000222711E00E94343A0E94B8630E94A55421
:102D100000E00093680700E00093690701E000937A
:102D20006B0708E000936A070FEF00937007002716
:102D30000093720700E000937B0601E000937C069D
:102D400000E000937D0606E006BB01E0009343052A
:102D500000E90093440500E000934505052F012399
:102D600021F42395110FD0F75DC00E94176204E390
:102D700000933F0706E1009340070DE40E94A26024
:102D800000E32395020F0E94A260E4EAFCE70E94A0
:102D90007D5F0E94C6611F935F932F930E945852DC
:102DA0000091EE05009340050091EF050093410569
:102DB0000091F0050093420541D00E94BA522F9134
:102DC00030914305409144054150304030934305D4
:102DD0004093440511F700E00093430508EC00938D
:102DE000440500E0009345052F930E94585200E0EF
:102DF0000093400500934105009342051FD00E94B7
:102E0000BA522F91309143054091440541503040D2
:102E1000309343054093440539F75F911F91110F9B
:102E200008F093CF0027009370070FEF009372070D
:102E300090E090936F000E9491540895213069F4BE
:102E40000091400500930F06009141050093100684
:102E500000914205009311060895223069F4009113
:102E6000400500931206009141050093130600915E
:102E70004205009314060895233069F4009140053B
:102E80000093150600914105009316060091420536
:102E9000009317060895243069F4009140050093CB
:102EA0001806009141050093190600914205009310
:102EB0001A060895253069F40091400500931B0619
:102EC0000091410500931C060091420500931D06E8
:102ED0000895263069F40091400500931E06009184
:102EE000410500931F0600914205009320060895B6
:102EF000273069F4009140050093210600914105B7
:102F00000093220600914205009323060895009144
:102F10004005009324060091410500932506009189
:102F200042050093260608954D6F746F72732077E3
:102F3000696C6C207370696E20696E0073657175C1
:102F4000656E6365204D31202D204D38000061668F
:102F50007465722074686520636F756E74646F7732
:102F60006E2E0000504C45415345204245204341C0
:102F7000524546554C210000282F3C2F4E2F642FE0
:102F80000E9417620E94066000E000933F0704E081
:102F9000E8E7FFE20E9486600E9449600E9461604B
:102FA0000E94C6610E94BC63083011F40894089521
:102FB0000130C1F78894089500910108002329F099
:102FC000E6EFF1E90E94FD480895E9E7F0E00E948C
:102FD00000640370102F0E94176202E200933F0703
:102FE00003E100934007EAE7F0E30E949C6004E0FD
:102FF00000934407E0E8F0E302E0019FE00DF11DDB
:10300000A591C491A0933F07C093400705E0010F2D
:103010000E94A26001E0009344070E942B600E947E
:10302000C6610E94BC63083009F40895043019F4A5
:1030300013951370D0CF023011F41A95FACF0130E6
:1030400051F610934907012FE9E7F0E00E940A6466
:103050000E94176202E200933F07EEEEF4EC0E943A
:10306000FE5F04E0EEEDF0E30E9486600E94616086
:103070000E94C6610E94C363AECF46726F6E740039
:1030800038000014382670144D6F756E7420796FF7
:103090007572204B4B3220626F6172640000736F57
:1030A000207468617420746865206F6E2D7363727C
:1030B00065656E006172726F7720706F696E7473F0
:1030C00020746F207468650066726F6E74206F667E
:1030D00020796F7572206D6F64656C2E00008830EA
:1030E0009E30B430C83011270E94096205E0E4E048
:1030F000F7EC0E94866001E000934007BEE40E9466
:10310000215601E00093400720E3C0ECD7E00E9485
:10311000704688D087D086D085D084D001E00093D7
:10312000400726E67FD07ED07DD00E943860EAE955
:10313000F1E304E0019FE00DF11D0E947D5F0E941C
:10314000C6610E94BC63083029F480D010F455D0C9
:10315000CBCF0895043019F41A951770C5CF0230FB
:1031600011F41395FACF0130B9F40E947046BB27D1
:10317000E10FFB1FEF93FF930E94DA63AA95A770FC
:10318000A395C1E0D0E0E8E0F0E00E942747A02D41
:10319000FF91EF910E94E063A7CF390045093909FB
:1031A00045123912451B391B45243924452D6F0022
:1031B0007B096F097B126F127B1B4368616E6E6522
:1031C0006C206D617070696E672069730000696EB4
:1031D00076616C69642E204475706C6963617465F6
:1031E0007300617265206E6F7420616C6C6F77651F
:1031F000642E0000BA31CE31E2310E94176202E241
:1032000000933F07E8EEF4EC0E94FE5F03E0E4EF7A
:10321000F1E30E9486600E9461600E94C6610E9484
:10322000C363089520933F070E9415600E94DA63EC
:103230000A950993087F31F00DE20E94A2600E9476
:10324000F75F0895BB270E94F65F0895C0ECD7E0B2
:10325000EE27B8E00991A02FA87F59F40894AA1F7F
:103260000A95EAF7EA2BBA95A9F7E09511F4889444
:10327000089508940895EBE7F0E00E9400640023AD
:1032800039F40091770700230AF432C08894089536
:103290001B9A102F13700AE000933F07E4E4F3E356
:1032A0000E94FE5F00E000933F07012FE0E9F3E397
:1032B0000E947D600E94F75F00E000933F07E4E515
:1032C000F3E30E949C60ECE7F0E00E94DC63CA2F0D
:1032D0000E94DC630E94F43D00E600933F0709E38F
:1032E00000934007E6E5F5EC0E949C600894089581
:1032F0000AE000933F07E4E4F3E30E94FE5F00E08E
:1033000000933F07ECE5F3E30E949C60EAE7F0E0FE
:103310000E9400640170E8E7F3E30E947D6000E032
:1033200000933F0709E300934007EAE9F5EC0E94A8
:103330009C6000E600933F07EEE4F3E30E949C608C
:10334000089408954552524F52204C4F4700414235
:103350004F52540054696D653A20000053746174F3
:1033600075733A200000454E41424C4544004449A3
:103370005341424C454400006E3366334350504D38
:103380002073796E6320776173206C6F73742100F2
:103390007C336A7D9E7DBC7DEAE7F0E00E9400649C
:1033A000002382F4EBE7F0E00E940064002351F474
:1033B0000E94E263A091A2070E94E263A091A3078A
:1033C0000E94E2630895EBE7F0E00E9400640023AE
:1033D00031F40091770700233AF08894089500278C
:1033E000EBE7F0E00E940A640027009377072B9830
:1033F0000894089500917707002352F4EAE7F0E07B
:103400000E94006400950E940A64002700937707D9
:1034100008950FEFEAE7F0E00E940A64D4DF089510
:10342000A4E6B0E00E9487630E94A6290E94182E9D
:103430000E94C6610E94F8610E94C6610E94F63532
:1034400000E00093450700E00093460700E000938A
:10345000470700E00093480703E0009397050FEF4C
:103460000093980500E00093990501E000939C0605
:103470000EE800939D0600E000939E06002700934F
:10348000A2070093A3070093A40700939507009356
:103490006E070093770700937407AFEAA0937E0747
:1034A000A2E0A0937F07A1E0A0938C07A0938107DF
:1034B0000093AE070093AF070093B0070093B107E6
:1034C0000093B2070093B3070093B4070093B507C6
:1034D0000093B6070093B7070093B8070093B907A6
:1034E0000093BA070093BB070093BC070093BD0786
:1034F0000093D4070093580700935907AAEFA093AD
:103500005A07A0935B07A0935C07A0935D07A09365
:103510005E07A0935F07A0936007A0936107A3E0F5
:10352000A093F807A0EFA0939B070E94675E0E94FC
:1035300045390E94961400917807002312F40C94E8
:10354000A3147894E4E7F0E00E940064002351F0B3
:103550000E94723503B1009502950F7089F00E94A8
:103560007C340EC00FEF009394070E949A630830DA
:1035700011F40E941F2E013019F40FEF009377070A
:103580000E943A4006E006BB0E9458520E94B4577F
:103590000E94523F0E94F32C0E944A2F0E94624ACE
:1035A0000E942E490E943C120E941D2A0E94E72B75
:1035B0000E94BA5200907007109071070124009287
:1035C000910700919107002332F40E94C02C0091D2
:1035D0007007009371070091760700232AF40027F3
:1035E000009376070E94103C0091700700230AF4B4
:1035F000CBCF03B1009502950F7039F400270093EB
:10360000940700E000938E07BFCF00918E070395CB
:1036100000938E0700918E07023309F0B5CF009119
:103620009407002372F300E000936F000E949A63F6
:103630000F7039F3013029F0083061F00E945225F3
:103640009FCF0E943C2B0E94E31948F40FEF009398
:10365000940796CF0E943C2B0E94FA19F7CF299825
:103660000E9466250E9491540E940B590E94A55405
:103670000E947C2585CF0E941E440E9416450E9410
:10368000AE45A9D1C2D40E94A5570091F8070330D6
:1036900041F0C9E10E948C630091D90700230AF42C
:1036A0008CC00091A407002311F40E94A707109179
:1036B0005B0520915C0530915D054091D5065091E8
:1036C000D6066091D7060E9425647093E805809322
:1036D000E9052092EA0510915E0520915F05309181
:1036E00060054091D5065091D6066091D7060E949C
:1036F00025647093EB058093EC052092ED057FD255
:103700000E940962E0E1F8E30E949C600091A40736
:10371000002359F003304CF4A0916C07AA2329F040
:10372000E6E1F6EC0E949C6004C0EEECF6EC0E9430
:103730007D6000E000933F070AE00093400700919E
:10374000A407EAE5F8E30E947D60E6E3F8E3B091C0
:10375000E805A091E905D091EA05F3D00091A4070E
:10376000E8E6F8E30E947D60ECE3F8E3B091EB0556
:10377000A091EC05D091ED05E4D0EEE1F8E30E94D4
:103780009C600091A507ECEDF6EC0E947D6000E0E6
:1037900000933F0709E300934007E4EFF4EC0E9435
:1037A0009C60ECE2F8E30E947D5F0E94C66100919C
:1037B0004D07023014F40E9471560E949A6308303B
:1037C00009F40895043021F40E943C2BCFD05BCF44
:1037D000023039F45ED10E943C2BA091A40733D172
:1037E00052CF013009F04FCF0091A4070395073065
:1037F0000CF00027023029F4A0916C07AA230AF4E8
:1038000003950093A4070E943C2B0E94B8633BCF12
:1038100054756E696E67204D6F64653A2000496E7D
:103820007075742052617465203A20004C007F0945
:103830005465737400004175783200004175783327
:10384000000052204761696E000050205472696D7B
:10385000000052205472696D000030384EC64EC6CA
:103860004EC64EC64A384EC630385EC65EC65EC6C6
:10387000F4AB523842384E4F5400506C656173655A
:103880002063656E74657220796F757220545800DC
:1038900074756E696E6720636F6E74726F6C7320DF
:1038A0006E6F772E0000412054756E696E67204D53
:1038B0006F6465206D7573742062650073656C6557
:1038C000637465642066697273742E007A38903868
:1038D000A638BC3853455420494E505554205241C7
:1038E0005445000053656C65637420696E7075748F
:1038F000207261746520666F7200616C6C20747553
:103900006E696E67206D6F6465732E205573650058
:103910004C4F5720666F722066696E652D74756E08
:10392000696E672E00004241434B20204C4F5720C8
:103930004D454449554D204849474800E438FA3838
:10394000103900913F07002309F408950FE20E9407
:10395000A2600E949C6002E400933F070E941560F1
:103960000E94F65F00E000933F0708950E940962FD
:1039700006E100933F07E4EDF8E30E949C600DE050
:103980000093400703E0ECE3F9E30E94866000E067
:1039900000933F0709E300934007E6E2F9E30E9442
:1039A0009C600E94C6610E94BC63077089F004306D
:1039B00011F4A1E008C0023011F4A2E004C001300B
:1039C00009F0D4CFA3E0EDECF0E00E94E06303D077
:1039D0000E94B8630895EDECF0E00E94DA63A370F2
:1039E000AA2309F4A2E0A13051F400E000934005BD
:1039F00000E00093410506E20093420515C0A230A5
:103A000051F400E00093400500E00093410503E716
:103A10000093420509C000E00093400500E00093D8
:103A2000410500EC00934205A093A50700914005D5
:103A30000093D506009141050093D60600914205FA
:103A40000093D70608950E9417620AE000933F078B
:103A5000AA2341F4E6E7F8E30E949C600AE300939E
:103A60003F0703C002E200933F07EEEEF4EC0E9432
:103A7000FE5FECECF8E3AA2311F4E0EDF8E302E0DA
:103A80000E9486600E9461600E94C6610E94C363BA
:103A900008950091A407002309F40895B091E80562
:103AA000A091E905D091EA050130C9F4B093D6059B
:103AB000A093D705D093D8050027CC278BD000271B
:103AC000C2E0B091EB05A091EC05D091ED05B0936B
:103AD000DF05A093E005D093E1057CD00895023086
:103AE000C9F401E0CC27B093D905A093DA05D093AF
:103AF000DB0570D001E0C2E0B091EB05A091EC05D0
:103B0000D091ED05B093E205A093E305D093E405D1
:103B100061D008950330C9F4B093DC05A093DD05AE
:103B2000D093DE0502E0CC2755D002E0C2E0B09190
:103B3000EB05A091EC05D091ED05B093E505A093C0
:103B4000E605D093E70546D00895043059F4B093C4
:103B50005A06A0935B06D0935C06E8E8F0E00E946A
:103B6000D16308950530D9F4B0938D06A0938E06E5
:103B7000D0938F06EEE8F0E00E94D163B091EB05A0
:103B8000A091EC05D091ED05B0938A06A0938B0629
:103B9000D0938C06ECE8F0E00E94D1630895B093D6
:103BA000D206A093D306D093D406E5EBF0E00E94B2
:103BB000D163B091EB05A091EC05D091ED05B093E8
:103BC000CF06A093D006D093D106E1EBF0E00E949F
:103BD000D1630895E4E4F0E0000F000F000FE00F60
:103BE0000027F01F0C2F000FE00F0027F01F0A2FF7
:103BF0000E94086431960B2F0E940864089500917A
:103C0000A407002309F408950E94A70710915B05FB
:103C100020915C0530915D054091D5065091D60606
:103C20006091D7060E94256470935B0580935C05C4
:103C300020925D0510915E0520915F053091600531
:103C40004091D5065091D6066091D7060E94256412
:103C500070935E0580935F05209260050091A40734
:103C60000130C1F50091D605009346050091D705B6
:103C7000009347050091D805009348050091DF05A2
:103C8000009340050091E005009341050091E10596
:103C90000093420573D10E946A420091E8050093A7
:103CA000B2050091E9050093B3050091EA05009380
:103CB000B405009140050093C405009141050093AF
:103CC000C505009142050093C60500916C070023CD
:103CD000F2F008950230A1F50091D9050093460550
:103CE0000091DA05009347050091DB050093480534
:103CF0000091E205009340050091E3050093410522
:103D00000091E4050093420539D10E946A42009176
:103D1000E8050093B5050091E9050093B60500910B
:103D2000EA050093B705009140050093C70500918F
:103D300041050093C805009142050093C905089507
:103D40000330A1F50091DC05009346050091DD05E7
:103D5000009347050091DE05009348050091E505B5
:103D6000009340050091E605009341050091E705A9
:103D70000093420503D10E946A420091E805009336
:103D8000B8050091E9050093B9050091EA05009393
:103D9000BA05009140050093CA05009141050093C2
:103DA000CB05009142050093CC050895043009F538
:103DB00000915A060093460500915B060093470563
:103DC00000915C0600934805D9D000E00093EB0514
:103DD0000093EC050093ED050091E805009357066C
:103DE0000091E905009358060091EA0500935906F1
:103DF0000895053009F061C030918A0640918B0624
:103E000050918C0660915E0570915F058091600510
:103E1000580F471F361F3093EB054093EC05509326
:103E2000ED0530918D0640918E0650918F06609180
:103E30005B0570915C0580915D05581B470B360B47
:103E40003093E8054093E9055093EA050091E805B1
:103E5000009387060091E905009388060091EA0522
:103E6000009389060091EB05009384060091EC0510
:103E7000009385060091ED05009386066091870604
:103E8000709188068091890602E00E941664609312
:103E900087067093880680938906609184067091E6
:103EA00085068091860602E00E941664609384066F
:103EB000709385068093860608953091CF064091D1
:103EC000D0065091D10660915E0570915F0580919A
:103ED0006005580F471F361F3093EB054093EC05E4
:103EE0005093ED053091D2064091D3065091D406FF
:103EF00060915B0570915C0580915D05580F471FCF
:103F0000361F3093E8054093E9055093EA05009188
:103F1000E8050093B7060091E9050093B806009103
:103F2000EA050093B9060091EB050093B1060091F4
:103F3000EC050093B2060091ED050093B306609185
:103F4000B7067091B8068091B90604E00E94166425
:103F50006093B7067093B8068093B9066091B10676
:103F60007091B2068091B30604E00E9416646093DB
:103F7000B1067093B2068093B3060895309146055A
:103F8000409147055091480560915B0570915C0533
:103F900080915D05580F471F361F3093E805409309
:103FA000E9055093EA053CF400E00093E80500932E
:103FB000E9050093EA053091400540914105509193
:103FC000420560915E0570915F0580916005580F14
:103FD000471F361F3093EB054093EC055093ED05DA
:103FE0003CF400E00093EB050093EC050093ED0535
:103FF0000091EB05009340050091EC05009341050D
:104000000091ED050093420508950091A407023048
:1040100039F400916C0700231AF401E00093A4071F
:10402000089500E00093EB050093EC050093ED0587
:104030000E943A400E94EB1C0E947C250E94A554DD
:104040000FEF0093A407002700937A0700937B07E4
:1040500000919507063014F00FEF01C00027009380
:1040600079070E9417620091700700235AF402E258
:1040700000933F0706E100934007E8E5FCE70E9454
:104080009C606FC00CE100933F07E8EBF2E40E94F4
:10409000FE5F00E000933F0700919507043064F451
:1040A000A0916C07AA2341F0017000939507E6E107
:1040B000F6EC0E949C6004C0E0EFF2E40E947D6098
:1040C00000E20E94A26000919507E6E0F3E40E94FE
:1040D0007D600E941560C091950741D10E94C86320
:1040E0000E94F65F00E000933F07E4EFFBEA0E94C6
:1040F000E83E0E949C6000919B07077FA091720799
:10410000A0950A2B59F000919C07039500939C07FA
:10411000017021F0E0EEF2E40E947D5F00E0009388
:104120003F0703E200934007E0ECF2E40E949C604A
:10413000B091EB05A091EC05D091ED050E94F65FE2
:1041400000E000933F07E0EDF2E40E94083E00E04B
:1041500000933F0709E300934007EAE0F5EC0E9473
:104160009C600E94C6610E9458520E94A5570E94FE
:10417000523F0E94C0230E94BB210E94624A0E94BB
:104180002E490E943C120E941D2A0E94E72B0E9489
:10419000BA520090700710907107012400929107A5
:1041A00000919107002332F40E94C02C0091700707
:1041B0000093710700917607002322F400270093F3
:1041C000760746CF0091700700230AF4CCCF03B1E5
:1041D000009502950F7021F400E000938E07C3CF85
:1041E00000918E07039500938E0700918E0702338E
:1041F00009F0B9CF0E949A63083051F400E00093AF
:104200006F000093A4070E9466250E9491540895B0
:10421000043071F400E000936F000E9466250E9454
:1042200091540E94B61C0E947C250E94A55410CF78
:10423000023089F4A0919507A395AB3014F0AA271A
:1042400007C000916C0700231AF4A23009F4A4E01F
:10425000A0939507FDCE013061F600E000936F005A
:104260000E9466250E949154B091E805A091E9054D
:10427000D091EA05C0919507E2E3F3E404E00C9FD6
:10428000E00DF11DC591D59105901590E02DF12D12
:104290000E942747A02DB12DAF93BF93C0919507E2
:1042A0005ED0BF91AF910E94D1630E943A400E94BC
:1042B0007C250E94A554CCCE54554E494E47000053
:1042C00052656D6F746520496E7075743A200000F8
:1042D000466C69676874204D6F6465203A20000061
:1042E00000197F22526F6C6C000050697463680083
:1042F0001EC61EC626C626C630C630C60AC6F8C5A5
:10430000F8C50EC60EC64EC65EC64EC65EC64EC6C4
:104310005EC64EC6E442EA42E442EA424400480035
:104320004C0050005400580088008C008E00B100F2
:10433000B500000084030000840300008403000033
:1043400084030000840300008403000084037CFCD9
:1043500084037CFC8403D8DC2823D8DC2823EEE803
:10436000F1E201E00C9FE00DF11DEE0FFF1FA591A2
:10437000B491FD01089500E00093400500E0009332
:10438000410509E10093420510915B0520915C0510
:1043900030915D0540914005509141056091420585
:1043A0000E94256470935B0580935C0520925D05F7
:1043B00010915B0520915C0530915D054091D5061B
:1043C0005091D6066091D7060E94256470935B05D4
:1043D00080935C0520925D0500915B050093EB05E1
:1043E00000915C050093EC0500915D050093ED05DF
:1043F000009195070023F1F40091D6050093400544
:104400000091D705009341050091D805009342051E
:104410008DD1009140050093B205009141050093B4
:10442000B305009142050093B40500916C07002389
:1044300092F10895013001F50091DF0500934005E8
:104440000091E005009341050091E10500934205CC
:104450006DD10E946A42009140050093C40500910D
:1044600041050093C505009142050093C6050091E2
:104470006C07002372F108950230D1F40091D90540
:10448000009340050091DA05009341050091DB059A
:10449000009342054BD1009140050093B505009172
:1044A00041050093B605009142050093B7050895B4
:1044B0000330E1F40091E205009340050091E3052B
:1044C000009341050091E405009342052FD10E941D
:1044D0006A42009140050093C70500914105009391
:1044E000C805009142050093C90508950430D1F430
:1044F0000091DC05009340050091DD050093410526
:104500000091DE050093420511D100914005009312
:10451000B805009141050093B9050091420500934B
:10452000BA0508950530E1F40091E50500934005D2
:104530000091E605009341050091E70500934205CF
:10454000F5D00E946A42009140050093CA0500918F
:1045500041050093CB05009142050093CC050895D9
:104560000630D1F400915A060093400500915B0695
:104570000093410500915C0600934205D7D000915D
:10458000400500935706009141050093580600919D
:104590004205009359060895073089F530918A063F
:1045A00040918B0650918C0660915B0570915C0583
:1045B00080915D05580F471F361F3093E8054093E3
:1045C000E9055093EA050091E805009384060091FF
:1045D000E905009385060091EA050093860660913F
:1045E0008406709185068091860602E00E9416641A
:1045F000609384067093850680938606089508303C
:1046000089F530918D0640918E0650918F0660910C
:104610005B0570915C0580915D05580F471F361F43
:104620003093E8054093E9055093EA050091E805C9
:10463000009387060091E905009388060091EA053A
:10464000009389066091870670918806809189069B
:1046500002E00E9416646093870670938806809338
:1046600089060895093089F53091CF064091D0062A
:104670005091D10660915B0570915C0580915D055C
:10468000580F471F361F3093E8054093E9055093B4
:10469000EA050091E8050093B1060091E905009351
:1046A000B2060091EA050093B3066091B1067091DD
:1046B000B2068091B30604E00E9416646093B106CE
:1046C0007093B2068093B30608953091D20640915C
:1046D000D3065091D40660915B0570915C05809182
:1046E0005D05580F471F361F3093E8054093E905D5
:1046F0005093EA050091E8050093B7060091E9059B
:104700000093B8060091EA050093B9066091B706D8
:104710007091B8068091B90604E00E941664609317
:10472000B7067093B8068093B90608953091400596
:10473000409141055091420560915B0570915C0587
:1047400080915D05580F471F361F3093E805409351
:10475000E9055093EA053CF400E00093E805009376
:10476000E9050093EA050091E805009340050091F2
:10477000E905009341050091EA050093420508957B
:10478000009170070023CAF03091990640919A0673
:10479000415030403093990640939A060CF02FC058
:1047A0000FEF0093760701E00093990600E900936C
:1047B0009A0600E000939B0622C000919B0700230D
:1047C000F1F000917407002311F0AAF00EC008E286
:1047D0002B9AE0917507EA95E093750771F4E091E3
:1047E0009B07E77FE0939B0708C00A9509F005C087
:1047F00004EC2B9802C0039551F3009374070091C9
:104800009907002322F000917007002312F02B98E3
:10481000089500919B07002309F42B9A08952227FD
:10482000E3E7F0E00E940064102F0E94096205E0B7
:10483000EEEAF9E40E94866006E600933F0701E095
:1048400000934007BB27A12FA395DD270E94B55FEA
:10485000222319F40E94386002C00E942B60E2EA11
:10486000F9E404E0029FE00DF11D0E947D5F0E94CB
:10487000C6610E94BC63083009F40895043021F435
:104880002A9542F422E0CCCF023029F4239523303C
:104890000CF02227C5CF0130E9F7203091F4A12F89
:1048A000A395BB27C1E0D0E0E4E0F0E00E942747F9
:1048B000A02DAA951A2FE3E7F0E00E94E2632227D9
:1048C000AFCF213029F4C0D00E94675E21E0A8CF8D
:1048D000ECE8F9E40E944062013011F022E0A0CF40
:1048E0000E943C360E94675E0E94D43708950E9461
:1048F0001762AA2341F408E200933F07E8EBF9E4CA
:104900000E949C6007C002E200933F07E8EEF4ECCF
:104910000E949C6001E000934407B2E000E0009335
:104920003F0701E1009340070A2FBF930F93ECE389
:10493000FAE40E947D6000E000933F070E94F75F69
:104940000F910395BF91BA9581F70E9461600E9413
:10495000C6610E94C363089544656661756C7420E6
:1049600050726F66696C653A200046756E637469B3
:104970006F6E733A0000496D706F727420757365C5
:10498000722070726F66696C652E000052657365E7
:1049900074206163746976652070726F66696C65F6
:1049A0002E0065006D09001B7F2400247F2D5849CF
:1049B000F4AB6A4976498C49444F4E450000416C3E
:1049C0006C206461746120636F7069656420667235
:1049D0006F6D00007468652073656C656374656451
:1049E0002070726F66696C652E005468652073656F
:1049F0006C65637465642070726F66696C657300C2
:104A00006D75737420626520646966666572656E93
:104A1000742E000050726F66696C6520233120632C
:104A2000616E206F6E6C79006265206564697465E3
:104A300064206D616E75616C6C792E00BE49D4493D
:104A4000EA49004A144A284A00910108002311F457
:104A5000A4E00FC0A1E0BB27C1E0D0E0E4E0F0E0BB
:104A60000E942747A02DAA95009101080A1719F462
:104A7000A2E03DDF0895AF93E6E7F9E40E944062CB
:104A8000013011F0AF910895EE27CF91299AFC2FB4
:104A90000E940064A02F0E94E063EE23C1F72998D2
:104AA000AA27E7CF023019F0043009F008950695DF
:104AB000017009F40FEFA09101080A0F0370009331
:104AC00001080E94F6350E94675E08950091010872
:104AD000002309F4089503950093030804E6009366
:104AE000020800270093040800E004BD05E005BDAE
:104AF00001E000936E00089500E000936E002B9893
:104B00000895FFB6909102089A95C9F4E0900408C0
:104B1000EE2019F42B9A9FE00FC02B989091030878
:104B20009A9521F0909303089FE006C090910108A8
:104B300093959093030898ECE094E0920408909386
:104B40000208FFBE18950091ED060093F206009151
:104B5000EE060093F3060091EF060093F406009131
:104B6000F0060093F5060091F1060093F60608950D
:104B70003090ED064090EE065090EF066090F00603
:104B80007090F1062091ED063091EE064091EF060F
:104B90005091F0066091F1060E949664B0931A0756
:104BA000C0931B07D0931C07E0931D07F0931E07CB
:104BB00030901A0740901B0750901C0760901D070B
:104BC00070901E0701E00E942F6530921A074092F4
:104BD0001B0750921C0760921D0770921E0701E090
:104BE00000931F0700E00093200700E000932107D7
:104BF00000E00093220700E00093230730901F0796
:104C00004090200750902107609022077090230762
:104C100020911A0730911B0740911C0750911D07E6
:104C200060911E07761A650A540A430A320A3092C6
:104C3000F7064092F8065092F9066092FA067092D2
:104C4000FB060895B093ED06A093EE06D093EF0611
:104C5000C093F006F093F1063090ED064090EE061A
:104C60005090EF066090F0067090F1062091DE06FD
:104C70003091DF064091E0065091E1066091E20636
:104C80000E949664B093ED06C093EE06D093EF06B3
:104C9000E093F006F093F1060895FF27CD2FDA2F69
:104CA000AB2FBB2312F4BFEF0895BB2708954BDF52
:104CB0005FDF30901007409011075090120760900E
:104CC0001307709014072091F7063091F806409171
:104CD000F9065091FA066091FB060E949664B09323
:104CE0002E07C0932F07D0933007E0933107F0933E
:104CF00032073090150740901607509017076090C4
:104D00001807709019072091F2063091F306409130
:104D1000F4065091F5066091F6060E949664B093F1
:104D20001A07C0931B07D0931C07E0931D07F0934D
:104D30001E0730902E0740902F075090300760904C
:104D400031077090320720911A0730911B0740916C
:104D50001C0750911D0760911E07761A650A540AB8
:104D6000430A320A30922E0740922F0750923007A2
:104D7000609231077092320730901007409011070F
:104D80005090120760901307709014072091F2065C
:104D90003091F3064091F4065091F5066091F606C5
:104DA0000E949664B0933307C0933407D0933507BD
:104DB000E0933607F09337073090150740901607B9
:104DC0005090170760901807709019072091F70608
:104DD0003091F8064091F9065091FA066091FB0671
:104DE0000E949664B0931A07C0931B07D0931C07C8
:104DF000E0931D07F0931E0730903307409034076F
:104E000050903507609036077090370720911A0749
:104E100030911B0740911C0750911D0760911E07A0
:104E2000760E651E541E431E321E3092330740928A
:104E3000340750923507609236077092370708950D
:104E4000F894A0918400B09185007894E0914A078D
:104E5000F0914B07A0934A07B0934B07AE1BBF0BD3
:104E60002AF4E0E0F0E0EA1BFB0BDF01DD27B6955A
:104E7000A795D795B695A795D795B695A795D795A4
:104E8000B695A795D795CC27FF27B093E806A093B2
:104E9000E906D093EA06C093EB06F093EC06309057
:104EA000E8064090E9065090EA066090EB067090A4
:104EB000EC062091E3063091E4064091E50650911E
:104EC000E6066091E7060E949664B093DE06C09302
:104ED000DF06D093E006E093E106F093E206B0919E
:104EE0007905A0917A05D0917B05D7DEABDE0091E4
:104EF000010700931007009102070093110700912A
:104F00000307009312070091040700931307009111
:104F100005070093140700910607009315070091F9
:104F200007070093160700910807009317070091E1
:104F300009070093180700910A0700931907B7DEC5
:104F400000912E070093010700912F07009302079D
:104F50000091300700930307009131070093040785
:104F6000009132070093050700913307009306076D
:104F70000091340700930707009135070093080755
:104F800000913607009309070091370700930A073D
:104F9000B0917605A0917705D09178057EDE52DE3E
:104FA0000091FC06009310070091FD060093110785
:104FB0000091FE06009312070091FF06009313076D
:104FC000009100070093140700910607009315074E
:104FD0000091070700931607009108070093170731
:104FE000009109070093180700910A070093190719
:104FF0005EDE00912E070093FC0600912F070093C0
:10500000FD06009130070093FE06009131070093E2
:10501000FF060091320700930007009133070093C9
:1050200006070091340700930707009135070093A6
:10503000080700913607009309070091370700938E
:105040000A07B0916A05A0916B05D0916C0525DE29
:10505000F9DD0091FC06009310070091FD06009316
:1050600011070091FE06009312070091FF060093BE
:1050700013070091000700931407009101070093A4
:10508000150700910207009316070091030700938C
:105090001707009104070093180700910507009374
:1050A000190705DE00912E070093FC0600912F07DB
:1050B0000093FD06009130070093FE060091310732
:1050C0000093FF0600913207009300070091330719
:1050D0000093010700913407009302070091350700
:1050E00000930307009136070093040700913707E8
:1050F0000093050708953090FC064090FD065090FF
:10510000FE066090FF06709000072091FC0630912B
:10511000FD064091FE065091FF06609100070E9437
:105120009664B0931A07C0931B07D0931C07E093B3
:105130001D07F0931E073090010740900207509022
:1051400003076090040770900507209101073091D4
:1051500002074091030750910407609105070E94E0
:105160009664B0931F07C0932007D0932107E09364
:105170002207F093230730901A0740901B075090A6
:105180001C0760901D0770901E0720911F0730912B
:105190002007409121075091220760912307760E46
:1051A000651E541E431E321E30921A0740921B0782
:1051B00050921C0760921D0770921E0730900607E0
:1051C00040900707509008076090090770900A0701
:1051D0002091060730910707409108075091090771
:1051E00060910A070E949664B0931F07C09320073E
:1051F000D0932107E0932207F093230730901A07FA
:1052000040901B0750901C0760901D0770901E0770
:1052100020911F07309120074091210750912207CC
:1052200060912307760E651E541E431E321E309277
:105230000B0740920C0750920D0760920E07709278
:105240000F0708950091FC06009329070091FD06C1
:1052500000932A070091FE0600932B070091FF069A
:1052600000932C070091000700932D072ED000918A
:10527000A50600939F060091A6060093A006009144
:10528000A7060093A106009101070093290700914A
:10529000020700932A070091030700932B07009150
:1052A000040700932C070091050700932D070DD0EC
:1052B0000091A5060093A2060091A6060093A306FE
:1052C0000091A7060093A40608950AE500931F071E
:1052D00000E00093200700E00093210700E0009326
:1052E000220700E0009323073090290740902A0707
:1052F00050902B0760902C0770902D0720911F076E
:105300003091200740912107509122076091230797
:105310000E949664B0931A07C0931B07D0931C0792
:10532000E0931D07F0931E07B0911A07A0911B0789
:10533000D0911C07C0911D07F0911E07AFDCB09300
:10534000A506A093A606D093A706089502E301B987
:105350000AE004B90CEF07B902EF0AB90FEF0093A6
:105360007E0005EF05B903E008B90DE00BB900E0D8
:105370000093800002E00093810000E0009382002F
:1053800005E10093690003E00DBB0AE000936800AB
:1053900001E00093730005E000936C000091B900F8
:1053A0000C7F0093B90001E10093B8005D9A5C9A0C
:1053B0005E982B9A299AA4EFB1E00E9487632B98FC
:1053C00029985E9AA4E6B0E00E94876308950E943F
:1053D000176206E100933F07E4E1F4E50E94FE5FF7
:1053E00004E0E2E3F4E50E94866004E200933F07F4
:1053F0000AE10093400700914D07E0EEF1E00E94C2
:105400007D600E9449600E94C6610E94BC630830B2
:10541000E1F7089556455253494F4E004B4B322EFB
:10542000312B2B20416C6C2D696E2D4F6E652052F7
:1054300034001C548001F4ABA6C500E00093400585
:105440000093410500934205309181064091820608
:10545000509183066091400570914105809142050D
:1054600058174707360759F0309181064091820658
:1054700041503040309381064093820603C000279C
:1054800000939A0700919F0700236AF400917E071A
:105490000A9500937E07002331F4002700939F07AD
:1054A000AFEAA0937E07009070071090720701206A
:1054B0000092910700919107002322F500917C074B
:1054C000002302F130917E0640917F06415030402A
:1054D00030937E0640937F06ACF403E000937E0693
:1054E00000E200937F0600E0009380060FEF009338
:1054F0009A0700E00093810604E10093820600E031
:1055000000938306009070071090710701240092A9
:1055100091070091910700233AF400E0009393066D
:10552000009394060093950600E00093400500E088
:105530000093410501E000934205309193064091AC
:1055400094065091950660914005709141058091B7
:105550004205580F471F361F309393064093940619
:10556000509395060DE70093400500E00093410538
:1055700000E00093420530919306409194065091CB
:10558000950660914005709141058091420558173C
:105590004707360764F00091400500939306009199
:1055A00041050093940600914205009395060091F1
:1055B0007C07002322F000917B07002372F4009106
:1055C0007D07002319F10A9500937D0700E0009301
:1055D000960600939706009398060AE0009340050C
:1055E0000CEF0093410500E80093420530919306CB
:1055F0004091940650919506609140057091410547
:105600008091420558174707360704F130919606F6
:10561000409197064150304030939606409397064C
:10562000ACF407E00093960600ED0093970600E0C7
:10563000009398060FEF00939A0701E0009381060C
:1056400000E90093820600E00093830600909A0729
:1056500010909907012800929107009091071090EF
:105660009F0701280092910700919107002312F0F3
:1056700029980895299A08950F93EF93FF93EEEADE
:10568000F0E00E94FE63FF91EF91002312F00F9172
:105690000895CF93299AC2E30E948C632998CF91F1
:1056A0000F910895402F2A2F3B2F0E94F86101E0AF
:1056B0000093430704E000934407203049F00AE3D5
:1056C00000933F0700E00093400700E00E94A260C3
:1056D000022F0B5F041749F00AE300933F0702E330
:1056E0000093400701E00E94A26001E0009344079C
:1056F00008E00093400715E0FE0104E1029FE00D81
:10570000F11D00E000933F07A4E105910E94A26013
:10571000AA95D9F70090400708E0000E00924007D4
:105720001A9579F708E0039F002D095F0093400761
:10573000075F0093420700E000933F070FE70093E5
:10574000410700E0009343070E946B5F0E942160C5
:105750000E94C661AEE10E949A63003021F0097098
:10576000D1F7AA95C1F70E94BD63083019F4AA27A2
:10577000889429C0043061F4303019F03A950C94C3
:10578000E62B203019F02A950C94E62B0C94E62B8E
:10579000023071F4343019F033950C94E62B042F59
:1057A0000550201719F023950C94E62B0C94E62B4A
:1057B000013061F40E94F8610E94C6610E94B863E2
:1057C000A22FA30F0894C22FD32F08956ECF30912C
:1057D0008E0540918F0550919005609197057091CD
:1057E00098058091990558174707360764F400918A
:1057F0008E050093970500918F0500939805009101
:1058000090050093990530918E0540918F05509138
:105810009005609194057091950580919605581BAF
:10582000470B360B3093AF054093B0055093B1054D
:105830006091AF057091B0058091B10508E00E94BC
:1058400016646093AF057093B0058093B1053091F5
:10585000940540919505509196056091AF05709122
:10586000B0058091B105580F471F361F309394053E
:1058700040939505509396053091630640916406D8
:1058800050916506609194057091950580919605FB
:10589000581B470B360B3093AF054093B005509320
:1058A000B1050AF461C06091AF057091B0058091B7
:1058B000B10502E00E9416646093AF057093B005D5
:1058C0008093B10500E00093400500E1009341059D
:1058D00000E0009342053091AF054091B005509132
:1058E000B1056091400570914105809142055817BE
:1058F0004707360764F0009140050093AF0500911B
:1059000041050093B005009142050093B105309127
:10591000750640917606509177066091AF057091BB
:10592000B0058091B105580F471F361F309375069B
:105930004093760650937706B0917506A09176064F
:10594000D0917706AA2382F000919807002379F07E
:105950000A95009398070FEF0093990700914D0760
:10596000003009F02A9A089504E60093980700276A
:105970000093990700914D070030A9F32A980895E4
:1059800000E00093460501E00093470508E300931B
:105990004805109163062091640630916506409198
:1059A000460550914705609148050E942564709313
:1059B0004005809341052092420530914005409179
:1059C00041055091420560918E0570918F0580913F
:1059D00090055817470736072CF400919B0708607D
:1059E00000939B070895009170070023CAF030913F
:1059F000990640919A064150304030939906409361
:105A00009A060CF054C00FEF0093760701E0009364
:105A1000990600E900939A0600E000939B0647C0B0
:105A20000091720700230AF130919C0640919D0677
:105A30004150304030939C0640939D06B1F401E004
:105A400000939C060EE800939D0600E000939E06DE
:105A5000A091A207A395AC3331F4B091A307B395FD
:105A6000B093A307AA27A093A20700919B07002346
:105A7000F1F000917407002311F0AAF00EC008E2C3
:105A80002B9AE0917507EA95E093750771F4E09120
:105A90009B07E77FE0939B0708C00A9509F005C0C4
:105AA00004EC2B9802C0039551F300937407009106
:105AB0007F07A09180070A1709F443C0009380076D
:105AC000A7E8B7E0A00F08F4B395EC91E370E0937A
:105AD0008D07A2E8B7E0A00F08F4B3950027009364
