:020000020000FC
:100000000C943F000C947F560C9458560C943E0070
:100010000C943E000C94BF560C943E000C949F56DA
:100020000C943E000C943E000C943E000C94205422
:100030000C943E000C94DD510C9410520C943E0034
:100040000C943E000C943E000C9489250C943E00C8
:100050000C949A020C943E000C943E000C943E00CA
:100060000C943E000C943E000C943E000C943E0018
:100070000C943E000C943E000C943E0018950FEF3B
:100080000DBF00E10EBFE3E7F0E00E94566303708E
:100090000093F907E1E7F0E00E94566300934D07F3
:1000A000003011F40C94141A013011F40C94410432
:1000B000023011F40C9415080C94370D0091F907D7
:1000C000002329F0EAEBF0E90E945F4808951091BF
:1000D0004D0722270E94806106E100933F07E8E771
:1000E000F1E00E94056000E000933F070AE1009301
:1000F000400701E000934407E0E8F1E00E9405605A
:10010000012FE0EEF1E00E94E65F222371F0022F62
:10011000017069F003E000933F070CE20093400791
:10012000E8E8F1E00E94056002C00E94945F0E942E
:100130002F61222341F0A8E5B2E00E94DD62239501
:1001400009F422E0C7CF0E941263083009F4089531
:10015000043021F41A957AF414E0BCCF023029F46B
:100160001395153044F01127B5CF21E0A12FE1E719
:10017000F0E00E943863AECF5258204D4F44450006
:100180004D6F64653A20000052657374617274208B
:10019000697320726571756972656421000053741A
:1001A000616E64617264205258004350504D2028A3
:1001B000616B612E2050504D2900532E4275730003
:1001C000536174656C6C6974652044534D32000052
:1001D000536174656C6C6974652044534D5800001C
:1001E0009E01AA01BA01C001D00100E000934D07B1
:1001F000E1E7F0E00E946063089511270091F9079C
:10020000002329F0EAEBF0E90E945F4808951F936C
:100210000E944D5A1F9100918E0500934605009152
:100220008F050093470500919005009348050E94B3
:10023000806102E200933F0701E00093400500E97E
:100240000093410500E0009342053091460540913E
:100250004705509148056091400570914105809196
:10026000420558174707360734F400903F0706E069
:10027000000E00923F071F930E94E53C1F9101E092
:100280000093440701E10093400704E0EAE6F4E04C
:100290000E94EF5F0E94945FEAE5F4E004E0019FB2
:1002A000E00DF11D0E94E65E0E942F610E94DA556A
:1002B0000E94F062002309F4AACF0E94442B083068
:1002C00009F40895043029F41A9513700E940E63FE
:1002D0009ECF023011F41395F8CF0130B1F71030F2
:1002E00019F4AAE0FFD093CF113019F4A2E0FAD0AC
:1002F0008ECF1230B1F0B0919105A0919205D091BE
:100300009305C1E0DCEFEFEFF3E00E948946A02DFA
:10031000B12DDD27B0939105A0939205D09393055D
:100320006FC000918E050093400500918F050093EA
:100330004105009190050093420560914005709140
:1003400041058091420502E00E946C636093400584
:100350007093410580934205B0914005A0914105FD
:10036000D0914205C4E1D0E0E4E0F1E00E9489468A
:10037000A02DB12DDD27B0934005A0934105D0936A
:10038000420560914005709141058091420502E06F
:100390000E94756360934005709341058093420508
:1003A00030914005409141055091420560918E0584
:1003B00070918F0580919005581B470B360B309339
:1003C000400540934105509342053091910540917D
:1003D000920550919305609140057091410580917F
:1003E0004205580F471F361F3093910540939205E1
:1003F00050939305B0919105A0919205D0919305EA
:10040000E5E7F0E00E94296360CF557365204B4B10
:10041000322E31204F666673657400005573652077
:100420004B4B322E312E35204F66667365740000BB
:100430004D6F6469667920566F6C7461676520281A
:10044000312F3130290041646A757374204F66661C
:100450007365742056616C75650000107F19001972
:100460007F2200227F2B002B7F340A041C043004DF
:100470004604546865206261747465727920766FF1
:100480006C74616765006F6666736574206861737C
:10049000206265656E20736574006163636F7264CA
:1004A000696E6720746F2073656C656374656400A2
:1004B0004B4B3220626F6172642076657273696F94
:1004C0006E2E0000720486049A04B004E5E7F0E0A2
:1004D0000E942063DD27B0939105A0939205D093ED
:1004E00093050895BB27DD27B0939105A09392054E
:1004F000D0939305E5E7F0E00E9429630E948061B4
:1005000002E200933F07E0ECF3EC0E94675F04E037
:10051000E4ECF4E00E94EF5F0E94CA5F0E942F614A
:100520000E9419630895A2E0B0E0E5E7F0E00E94C0
:1005300029630895FFB6FF93EF93E090C600E09122
:10054000EC07F091ED07E192E090D2079091EE0771
:1005500093959E151CF0E3EDF7E099279093EE0735
:10056000E093EC07F093ED07EF91FF91FFBE189534
:1005700000914D07023011F40E946A0A0091D107E0
:1005800000231AF00E94ED0308950E940C57009179
:10059000F007033041F0C9E10E94E2620091D10707
:1005A00000230AF46BC00E94E1550E94726105E0CD
:1005B000E0EBF5EC0E94EF5F01E000934007B091A3
:1005C0004C05A0914D05D0914E05ECEFFAEACFEF26
:1005D0000E949A55B0914F05A0915005D0915105B8
:1005E000E2E0FBEACFEF0E949A550E94C855B09115
:1005F0005205A0915305D09154050E941E5F05E558
:1006000000933F0700917207002312F4AA2708C045
:10061000EAE5F0E00E94D75514F4A1E001C0A2E0A1
:10062000E8E0FBEA0E94BF55B0915505A091560540
:10063000D0915705EEE0FBEACFEF0E949A550E9459
:10064000C855B0915805A0915905D0915A050E94FE
:100650001E5F05E500933F0700917F07E8E9F5EC91
:100660000E94E65F00E000933F0709E30093400724
:10067000E6E4F4EC0E9405600E942F610E94F062A3
:10068000083009F40895043019F40E94442B01D075
:100690007CCF0E940C5700914D07023011F40E944C
:1006A0006A0A0091F007033041F0C9E10E94E2625A
:1006B0000091D10700230AF45EC00E949A071091AE
:1006C000610520916205309163054091400550918C
:1006D0004105609142050E947B63709361058093A0
:1006E0006205209263050E947261BB270E948A55B1
:1006F00001E000934007B0915B05A0915C05D091AB
:100700005D05E6EFFAEACFEF0E949A55B0915E05DB
:10071000A0915F05D0916005E6EFFAEACFEF0E9465
:100720009A550E94C855B0916105A0916205D0917B
:1007300063050E941E5F05E500933F070091870750
:10074000EAEAF5EC0E94E65F00914D07023079F489
:10075000A091CC07EAE8F7E0C2E9D7E01ED0A0916B
:10076000CD07EEE8F7E0C6E9D7E00E94CD030E948E
:10077000B25F0E942F610E94F062083029F40E944B
:10078000442B0E940E63089584CF444731004447B0
:1007900032009CC4B2C49CC4A0C4CF93DF93AF9377
:1007A00000E000933F070E94605F0E94056000E345
:1007B00000933F070E947E5F09E300933F0700E339
:1007C000AF910A0F0E940B6005E500933F070A2FC7
:1007D000FF91EF910E94E65F08950E94806106E11B
:1007E00000933F07E8E2F8E00E94675F00E00093B3
:1007F0003F0700914D07023019F4E2E4F8E002C02F
:10080000E0E3F8E00E9405600E94605F02E0EEE72E
:10081000F8E00E94EF5F0E94B25F0E942F610E9489
:1008200012630830E1F708954E4F204441544100CF
:10083000506C6561736520737570706C79205361BD
:100840007400506C6561736520737570706C7920ED
:10085000532E427573006461746120746F20746854
:1008600065207468726F74746C650000696E7075D1
:100870007420636F6E6E6563746F722E000056088D
:100880006C08A4E6B0E00E94DD620E9463050E944D
:100890000B2E0E942F610E9461610E942F610E94B5
:1008A0004E3500E00093450700E00093460700E066
:1008B0000093470700E00093480703E00093970583
:1008C0000FEF0093980500E00093990501E0009375
:1008D0009C060EE800939D0600E000939E0600270C
:1008E00000939C0700939D0700939E0700936E075B
:1008F0000093770700937407AFEAA0937E07A2E006
:10090000A0937F07A1E0A0938707A093810700939E
:10091000A6070093A7070093A8070093A9070093D1
:10092000AA070093AB070093AC070093AD070093B1
:10093000AE070093AF070093B0070093B107009391
:10094000B2070093B3070093B4070093B507009371
:10095000CC070093D1070093A0070093A107E6EA14
:10096000F7E0E093A407F093A507A3E0A093F007B6
:1009700000E1009395070E94D05D0E9494380E9488
:10098000D61400917807002312F40C94E3147894A1
:10099000E4E7F0E00E945663002351F00E94CA345D
:1009A00003B1009502950F7089F00E94D4330EC0F8
:1009B0000FEF00938E070E94F062083011F40E943E
:1009C000122E013019F40FEF009377070E949C3F1D
:1009D00006E006BB0E94BA510E94CE060E94CC07D8
:1009E0000E94B83E0E94F12C0E94011E0E94C44940
:1009F0000E9490480E947C120E94252A0E94EF2BA0
:100A00000E941C5200907007109071070124009200
:100A10008B0700918B07002332F40E94BE2C0091BB
:100A20007007009371070091760700232AF40027CE
:100A3000009376070E946D3B0091700700230AF433
:100A4000C9CF03B1009502950F7039F400270093C8
:100A50008E0700E000938807BDCF009188070395BB
:100A60000093880700918807023309F0B3CF009103
:100A70008E07002372F300E000936F000E94F06283
:100A80000F7039F3013029F0083061F00E945A25C7
:100A90009DCF0E94442B0E94E81948F40FEF009369
:100AA0008E0794CF0E94442B0E94FE19F7CF2998FD
:100AB0000E946E250E94F3530E949B050E940E54D3
:100AC0000E94842583CF02E301B90AE004B90CEF48
:100AD00007B902EF0AB90FEF00937E0005EF05B9E1
:100AE00003E008B905E00BB900E00093800002E0E4
:100AF0000093810000E0009382000CE00093690005
:100B000002E00DBB0091B9000C7F0093B90001E138
:100B10000093B8005D9A5C9A5E982B9A299AA4EF8C
:100B2000B1E00E94DD622B9829985E9AA4E6B0E0BD
:100B30000E94DD620895CCE7DBE0A0914607B0910A
:100B4000450702E10E945A2BC0934607D093450700
:100B500008F00895AA0FE4EEFCE0EA0F0027F01F6A
:100B6000A591B491FD0109950E94442B0E946161F9
:100B70000E942F610E940E630C949B0552656D6F5D
:100B800074652054756E696E672020202020202017
:100B9000504920456469746F722020202020202055
:100BA0002020202053656C662D6C6576656C205383
:100BB000657474696E677320537469636B20536343
:100BC000616C696E67202020202020204D6F6465B5
:100BD0002053657474696E677320202020202020C4
:100BE0004D6973632E2053657474696E677320209A
:100BF0002020202047696D62616C20536574746900
:100C00006E67732020202020416476616E636564E6
:100C10002053657474696E677320202041555820F5
:100C200053776974636820536574757020202020A1
:100C3000496E697469616C20536574757020202059
:100C400020202020526563656976657220546573A3
:100C5000742020202020202053656E736F72205452
:100C600065737420202020202020202053686F7777
:100C7000204D6F746F72204C61796F757420202045
:100C8000557365722050726F66696C652020202054
:100C90002020202045787472612046656174757249
:100CA00065732020202020204553432043616C6938
:100CB00062726174696F6E20202020205665727305
:100CC000696F6E20496E666F726D6174696F6E2018
:100CD0004C434420436F6E74726173742020202053
:100CE000202020203D1BE1456231FB3A9B39503AE0
:100CF0004511E2151A2E233754545B59EC31112457
:100D00004C16D034EF29A42DAF93BF93EF93FF93EC
:100D1000A0918400B0918500E091A207F091A30713
:100D2000A093A207B093A307AE1BBF0B2AF4E0E089
:100D3000F0E0EA1BFB0BDF01EAE6F8E1AE17BF07C4
:100D400080F0E6EAF7E09091A107EE24E092A10797
:100D500094300CF419C09FEF9093D107E092A00754
:100D600013C09091A10793959093A107E091A407D8
:100D7000F091A507A193B193A6EBB7E0EA17FB07A3
:100D800018F011F0E6EBF7E0E093A407F093A50765
:100D9000FF91EF91BF91AF91FFBE18950090B807FA
:100DA0000E9439580E9444580E946058DD27B09331
:100DB0004C05A0934D05D0934E050090B9070E94B5
:100DC00039580E9444580E946058DD27B0934F055F
:100DD000A0935005D09351050090BA070E9439584E
:100DE0000027009372070E945758EBE3FBE0AE1B0D
:100DF000BF0BE0E0F0E0AE17BF070CF405C0E5E381
:100E0000FCE0AE17BF072CF0A0E0B0E00FEF0093BE
:100E10007207DD27B0935205A0935305D093540574
:100E20000090BB070E9439580E9444580E946058A5
:100E3000DD27B0935505A0935605D0935705009034
:100E4000BC070E9439580E944458CC27E8EAFDEFBD
:100E5000AE17BF079CF0C395E8E3FFEFAE17BF07DF
:100E60006CF0C395E8ECF0E0AE17BF073CF0C3951B
:100E7000E8E5F2E0AE17BF070CF0C395C0937F071B
:100E8000DD27B0935805A0935905D0935A050090DB
:100E9000BD070E9439580E944458DD27B0935B0576
:100EA000A0935C05D0935D050090BE070E94395861
:100EB0000E944458DD27B0935E05A0935F05D09350
:100EC00060050090BF070E9439580E944458CC2703
:100ED000E0E7FEEFAE17BF073CF0C395E0E9F1E0B5
:100EE000AE17BF070CF0C395C0938707DD27B093FB
:100EF0006105A0936205D09363050091D10700239B
:100F0000BAF403C00093A00708950091A0070395C9
:100F1000A09167070A17B0F300917007002342F40D
:100F2000009195070360009395070FEF00937C07EE
:100F30000C945E0C00E00093400500E00093410536
:100F400009E10093420510915B0520915C05309109
:100F50005D054091400550914105609142050E9418
:100F60007B6370935B0580935C0520925D05109117
:100F70005E0520915F0530916005409140055091DC
:100F80004105609142050E947B6370935E058093EA
:100F90005F052092600508950091D10700950071CA
:100FA000A0919507AF7E0A2B0093950708954E4FA9
:100FB000205349474E414C00506C65617365207366
:100FC0007570706C792061204350504D000073693A
:100FD000676E616C20746F207468652061696C6550
:100FE000726F6E00696E70757420636F6E6E6563EC
:100FF000746F722E0000B80FCE0FE40F0E94806154
:101000000AE000933F07EEEAFFE00E94675F03E01B
:10101000E6EFFFE00E94EF5F0E94B25F0E942F6147
:101020000E9412630830E1F70895A4E6B0E00E9440
:10103000DD620E9428090E940B2E0E942F610E94EF
:1010400061610E942F610E944E3500E000934507C8
:1010500000E00093460700E00093470700E000939C
:10106000480703E0009397050FEF0093980500E011
:101070000093990501E000939C060EE800939D06FD
:1010800000E000939E06002700939C0700939D07B5
:1010900000939E0700936E070093770700937407F1
:1010A000AFEAA0937E07A2E0A0937F07A1E0A09300
:1010B0008707A0938107A9E1A093D2070093D107E6
:1010C0000093A0070093CC070093CD070093CE07B1
:1010D0000093EE070093EF070093F0070093D30708
:1010E000E3EDF7E0E093EC07F093ED0700E1009308
:1010F00095070E94D05D0E9494380E94D6140091FA
:101100007807002312F40C94E3147894E4E7F0E0F9
:101110000E945663002351F00E94CA3403B1009527
:1011200002950F7089F00E94D4330EC00FEF009328
:101130008E070E94F062083011F40E94122E0130D6
:1011400019F40FEF009377070E949C3F00919507D9
:101150000F7D0093950706E006BB0E94BA510E94DE
:10116000EC0A0E946A0A0E949E0A0E94B83E0E94EF
:10117000F12C0E94011E0E94C4490E9490480E94C6
:101180007C120E94252A0E94EF2B0E941C52009084
:10119000700710907107012400928B0700918B0754
:1011A000002332F40E94BE2C009170070093710757
:1011B0000091760700232AF40027009376070E9407
:1011C0006D3B0091700700230AF4C7CF03B100956F
:1011D00002950F7039F4002700938E0700E000930A
:1011E0008807BBCF0091880703950093880700917B
:1011F0008807023309F0B1CF00918E07002372F304
:1012000000E000936F000E94F0620F7039F301302C
:1012100029F0083061F00E945A2596CF0E94442B95
:101220000E94E81948F40FEF00938E078DCF0E94BB
:10123000442B0E94FE19F7CF29980E946E250E9428
:10124000F3530E9476090E940E540E9484257CCF9D
:1012500002E301B90FE004B90CEF07B902EF0AB9D4
:101260000FEF00937E0005EF05B903E008B90DE02C
:101270000BB900E00093800002E00093810000E0E1
:10128000009382000091C000007819F00091C60020
:10129000F9CF02E00093C00000270093C50008E1E9
:1012A0000093C40000E10093C1000EE20093C2006D
:1012B0000091C10000680093C1000091B9000C7F4B
:1012C0000093B90001E10093B8005D9A5C9A5E98C2
:1012D0002B9A299AA4EFB1E00E94DD622B982998FD
:1012E0005E9AA4E6B0E00E94DD620895C2E3D3E115
:1012F000A0914607B091450703E10E945A2BC09385
:101300004607D093450708F00895AA0FEEEAF4E1E6
:10131000EA0F0027F01FA591B491FD0109950E94E5
:10132000442B0E9461610E942F610E940E630C9405
:10133000760952656D6F74652054756E696E67200D
:10134000202020202020504920456469746F72209D
:101350002020202020202020202053656C662D6C2A
:101360006576656C2053657474696E677320537479
:1013700069636B205363616C696E672020202020B5
:1013800020204D6F64652053657474696E67732007
:101390002020202020204D6973632E205365747413
:1013A000696E677320202020202047696D62616C80
:1013B0002053657474696E67732020202020416477
:1013C00076616E6365642053657474696E6773201B
:1013D0002020415558205377697463682053657401
:1013E0007570202020204447322053776974636849
:1013F00020536574757020202020496E69746961DE
:101400006C205365747570202020202020205265A8
:1014100063656976657220546573742020202020EE
:10142000202053656E736F722054657374202020E2
:1014300020202020202053686F77204D6F746F721A
:10144000204C61796F75742020205573657220508F
:10145000726F66696C65202020202020202045784E
:101460007472612046656174757265732020202056
:1014700020204553432043616C6962726174696F37
:101480006E202020202056657273696F6E20496E91
:10149000666F726D6174696F6E204C434420436FB8
:1014A0006E747261737420202020202020203D1B48
:1014B000E1456231FB3A9B39503A4511E2151A2E4B
:1014C000BC0C2337B8025B59EC3111244C16D034D4
:1014D000EF29A42DA091CB07B091D107BB2331F404
:1014E0000091950700610093950708950091950775
:1014F0000F7E009395070A2F01700093CC070A9581
:10150000009500937C07A6950A2F01700093CD07E4
:10151000A695A695A17089F0A093CE070091950796
:101520000062009395070FEF00937C07009170070E
:1015300000231AF4A2E00E94D1190895AA27BB271C
:10154000DD270091CD07002319F42A98289A11C0AD
:10155000C091CF07C69518F4002700937207C6956F
:1015600010F42A9A2898C69508F45496C69508F45B
:101570005E96B0934005A0934105D09342050E942A
:10158000CC413091000640910106509102066091D5
:1015900040057091410580914205580F471F361F45
:1015A0003093F1054093F2055093F3053091030613
:1015B00040910406509105066091400570914105E7
:1015C00080914205580F471F361F3093F405409312
:1015D000F5055093F6050895A091EE07B091EF0739
:1015E000AB1759F0A093EF0701E00093F0070091CB
:1015F000D10700230AF44BC061C10091F00702300B
:1016000059F00395043608F00A950093F00700910D
:10161000D10700238AF73BC0A091EE07AA2391F0DF
:1016200000270093F0070093EF07F8940093EE076C
:101630000093D307E3EDF7E0E093EC07F093ED07B9
:1016400078943CC1E3EDF7E000810F3009F036C13A
:10165000EBEEF7E00081002321F000810F7C0430E5
:10166000B1F70FEF0093D107319700810093CB07BB
:10167000E4EDF7E0A0ECB7E0CAE001910D93CA9564
:10168000E2F703E00093F00700270093A007A09182
:10169000C007B091C107B770A093A607B093A70782
:1016A000A091C107B091C207B795A795B795A79527
:1016B000B795A795B770A093A807B093A907D09145
:1016C000C207A091C307B091C407DD1FAA1FBB1FAB
:1016D000DD1FAA1FBB1FB770A093AA07B093AB076B
:1016E000A091C407B091C507B795A795B770A0930F
:1016F000AC07B093AD07A091C507B091C607B795E9
:10170000A795B795A795B795A795B795A795B770DE
:10171000A093AE07B093AF07D091C607A091C707BB
:10172000B091C807DD1FAA1FBB1FB770A093B007F9
:10173000B093B107A091C807B091C907B795A79515
:10174000B795A795B770A093B207B093B307A091D0
:10175000C907B091CA0705E0B695A7950A95E1F7C4
:10176000A093B407B093B5070090B807F0D0F9D0B4
:101770000E946058B0934C05A0934D05D0934E0540
:101780000090B907E4D0EDD00E946058B0934F05A7
:10179000A0935005D09351050090BA07D8D00027E8
:1017A00000937207E0E9F1E0AE1BBF0BDED0E0E092
:1017B000F0E0AE17BF072CF4A0E0B0E00FEF00930D
:1017C0007207B0935205A0935305D093540500902F
:1017D000BB07BDD0C6D00E946058B0935505A093FA
:1017E0005605D09357050090BC07B1D0BAD0B0933E
:1017F0005805A0935905D0935A05CC27E8EAFDEF88
:10180000AE17BF079CF0C395E8E3FFEFAE17BF0725
:101810006CF0C395E8ECF0E0AE17BF073CF0C39561
:10182000E8E5F2E0AE17BF070CF0C395C0937F0761
:101830000090BD078CD095D0B0935B05A0935C055C
:10184000D0935D050090BE0782D08BD0B0935E052B
:10185000A0935F05D09360050090BF0778D081D03A
:10186000B0936105A0936205D0936305CC27E0E7B0
:10187000FEEFAE17BF073CF0C395E0E9F1E0AE170D
:10188000BF070CF0C395C09387070091D1070023D1
:10189000AAF403C00093A00708950091A007039540
:1018A0000A3FC0F300917007002342F400919507AE
:1018B0000360009395070FEF00937C0700270093C8
:1018C000D10700E000934C0500934D0500934E05B1
:1018D00000934F0500935005009351050093520566
:1018E0000093530500935405009355050093560546
:1018F00000935705009358050093590500935A0526
:1019000000935B0500935C0500935D0500935E0505
:1019100000935F05009360050093610500936205E5
:10192000009363050FEF0093720700917F07023069
:1019300031F002E000937F070FEF009380070091E2
:10194000700700231AF4A1E00E94D1190895E6EA75
:10195000F7E002E0009DE00DF11DA191B081DD27CF
:101960000895E0E0F4E0AE1BBF0BEA2FFB2FF595E6
:10197000E795AE0FBF1F089511270E94CB45309108
:10198000CF0720E60E94726104E0EAE4FAE10E94D7
:10199000EF5F01E000934007C091CF075AD059D0C4
:1019A00058D057D00E94A15FE6EDF5E704E0019F13
:1019B000E00DF11D0E94E65E0E942F610E941263FD
:1019C000083051F40091CF07031729F0EDEBF0E058
:1019D000A02F0E9436630895043019F41A951370ED
:1019E000D1CF023011F41395FACF013059F4012F01
:1019F000AA270894AA1F0A95EAF70091CF070A2799
:101A00000093CF07BFCF537461792041726D656435
:101A10002F5370696E004469676974616C204F755B
:101A200074707574000041696C2F456C65205261BB
:101A30007465202B3230000041696C2F456C6520A5
:101A400052617465202B33300000061A161A261ACC
:101A5000381A20933F070E947E5F0C2FEEE7F5ECCB
:101A600001700E94E65F0E94605FC695089500279E
:101A700000938E070E94490E0E940B2E0E942F6138
:101A80000E9461610E942F610E944E3500E0009328
:101A9000450700E00093460700E00093470700E099
:101AA0000093480703E0009397050FEF0093980514
:101AB00000E00093990501E000939C060EE8009376
:101AC0009D0600E000939E06002700939C0700936C
:101AD0009D0700939E0700936E070093770700937E
:101AE0007407AFEAA0937E07A2E0A0937F07A1E06E
:101AF000A0938707A0938107A0E1A093D20700934A
:101B0000D1070093A0070093CC070093EE07009342
:101B1000EF070093F0070093D507E3EDF7E0E093BC
:101B2000EC07F093ED0700E1009395070E94D05D6C
:101B30000E9494380E94930E0E94D6140091780758
:101B4000002312F40C94E3147894E4E7F0E00E948C
:101B50005663002371F00E94CA3400918E0700235F
:101B6000B2F003B1009502950F7089F00E94D43352
:101B70000EC00FEF00938E070E94F062083011F440
:101B80000E94122E013019F40FEF009377070E9484
:101B90009C3F009195070F7D0093950706E006BBDB
:101BA0000E94BA510E94A20F0E943A110E94B83EB0
:101BB0000E94F12C0E94011E0E94C4490E9490487C
:101BC0000E947C120E94252A0E94EF2B0E941C5228
:101BD0000090700710907107012400928B0700910C
:101BE0008B07002332F40E94BE2C009170070093F3
:101BF00071070091760700232AF4002700937607E7
:101C00000E946D3B0091700700230AF4C9CF03B115
:101C1000009502950F7039F4002700938E0700E0BD
:101C200000938807BDCF009188070395009388072C
:101C300000918807023309F0B3CF00918E0700238B
:101C400072F300E000936F000E94F0620F7039F3AE
:101C5000013029F0083061F00E945A2598CF0E9487
:101C6000442B0E94E81948F40FEF00938E078FCFA2
:101C70000E94442B0E94FE19F7CF29980E946E25DE
:101C80000E94F3530E94A20E0E940E540E948425CB
:101C90007ECF02E301B90AE004B90CEF07B902EF05
:101CA0000AB90FEF00937E0005EF05B903E008B90C
:101CB0000DE00BB9ACE3B0E00E94DD620E94F0627F
:101CC000063079F4A3E000914D07043009F4A7E051
:101CD00003EF0AB90E948B0F02EF0AB90FEF0093CE
:101CE0008E0700E00093800002E00093810000E096
:101CF000009382000091B9000C7F0093B90001E1CC
:101D00000093B8005D9A5C9A5E982B9A299AA4EF8A
:101D1000B1E00E94DD622B9829985E9AA4E6B0E0BB
:101D20000E94DD62089500270093C0000093C50063
:101D30000AE00093C40000E90093C10006E00093AC
:101D4000C2000895CAE8DDE1A0914607B0914507B9
:101D500002E10E945A2BC0934607D093450708F032
:101D60000895AA0FE2EFFEE1EA0F0027F01FA59108
:101D7000B491FD0109950E94442B0E9461610E946B
:101D80002F610E940E630C94A20E52656D6F7465F4
:101D90002054756E696E6720202020202020504935
:101DA00020456469746F722020202020202020208C
:101DB000202053656C662D6C6576656C20536574C8
:101DC00074696E677320537469636B205363616C2D
:101DD000696E67202020202020204D6F64652053ED
:101DE000657474696E6773202020202020204D695F
:101DF00073632E2053657474696E677320202020EE
:101E0000202047696D62616C2053657474696E6748
:101E1000732020202020416476616E636564205326
:101E2000657474696E67732020204155582053777C
:101E30006974636820536574757020202020496E92
:101E4000697469616C2053657475702020202020AE
:101E5000202052656365697665722054657374202D
:101E600020202020202053656E736F7220546573EC
:101E70007420202020202020202053686F77204DC0
:101E80006F746F72204C61796F75742020205573C8
:101E900065722050726F66696C65202020202020BA
:101EA000202045787472612046656174757265738F
:101EB0002020202020204553432043616C6962721A
:101EC0006174696F6E202020202056657273696FDF
:101ED0006E20496E666F726D6174696F6E204C433F
:101EE0004420436F6E747261737420202020202080
:101EF00020203D1BE1456231FB3A9B39503A4511A8
:101F0000E2151A2E2337B8025B59EC3111244C1616
:101F1000D034EF29A42D5898C6E70E94960F589AFE
:101F2000CAE70E94960FAA95B1F7089500C000C0B5
:101F300000C000C000C000C000C000C00000CA95C2
:101F4000A9F70895442700914D070430F1F02CE1E2
:101F500033E002E00093490500E000934A0500E009
:101F600000934B0500E00093400502E0009341051B
:101F70000EEE0093420500E0009343050DEC009344
:101F8000440500E0009345051DC028E337E004E068
:101F90000093490500E000934A0500E000934B05DB
:101FA00000E00093400501E00093410507E700933E
:101FB000420501E0009343050AE90093440500E06F
:101FC000009345053093D007A091EE07B091EF073D
:101FD000AB1759F0A093EF0701E00093F0070091D1
:101FE000D10700230AF45BC00BC10091F007023057
:101FF00069F00023C9F30395043608F00A950093AD
:10200000F0070091D10700237AF749C0A091EE07AD
:10201000AA2381F000270093F0070093EF07F894BC
:102020000093EE07E3EDF7E0E093EC07F093ED07A4
:102030007894E6C00FEF0093D107A5EDB7E012E06A
:10204000E6EAF7E0DD91CD914D2B0D2F0695283373
:1020500009F406950E700395E00F08F4F395D32369
:10206000D0833197C0831395139510314CF3032F10
:1020700000954023421769F0009195070062009394
:1020800095070091700700231AF4A3E00E94D1196C
:10209000B7C003E00093F00700270093A0070027D4
:1020A0000093B4070093B5070090B807ABD0B7D042
:1020B0000E946058B0934C05A0934D05D0934E05F7
:1020C0000090B9079FD0ABD00E946058B0934F05E5
:1020D000A0935005D09351050090BA0793D00027E4
:1020E00000937207F0914305E0914405AE1BBF0BCE
:1020F000A0D0E0E0F0E0AE17BF072CF4A0E0B0E025
:102100000FEF00937207B0935205A0935305D0933D
:1021100054050090BB0776D082D00E946058B093DF
:102120005505A0935605D09357050090BC076AD07B
:1021300076D0B0935805A0935905D0935A05CC2773
:10214000E8EAFDEFAE17BF079CF0C395E8E3FFEFA9
:10215000AE17BF076CF0C395E8ECF0E0AE17BF0711
:102160003CF0C395E8E5F2E0AE17BF070CF0C3956D
:10217000C0937F070090BD0745D051D0B0935B0559
:10218000A0935C05D0935D050090BE073BD047D07F
:10219000B0935E05A0935F05D09360050090BF07E4
:1021A00031D03DD0B0936105A0936205D093630513
:1021B000CC27E0E7FEEFAE17BF073CF0C395E0E9A0
:1021C000F1E0AE17BF070CF0C395C09387070091ED
:1021D000D1070023AAF403C00093A007089500913B
:1021E000A00703950A3FC0F300917007002342F453
:1021F000009195070360009395070FEF00937C070C
:102200000C945E0CE6EAF7E002E0009DE00DF11DA3
:10221000A191B081DD270091D007B0230895AD17BB
:10222000BD0709F40895F0914905E0914A05AE1BF8
:10223000BF0BB0934605A0934705D0934805109176
:102240004605209147053091480540914005509141
:102250004105609142050E947B637093460580931F
:10226000470520924805B0914605A0914705D091B9
:10227000480508950091D10700950071A091950738
:10228000AF7E0A2B0093950708950E9474430E9425
:10229000B04500916907007C09F01ED10E9472616F
:1022A00005E0E6E0F4E20E94EF5F01E00093400702
:1022B00028E4E5EAF0E007D106D105D104D1209366
:1022C0003F070E947E5FEDEAF0E00E9430630093DA
:1022D0009A070170ECE1F4E20E94E65F00E00093EF
:1022E0003F0709E300934007E6E4F4EC0E94056031
:1022F000E0E5F4EC0E940560E2E4F4E204E0019F12
:10230000E00DF11D0E94E65E0E942F610E941263A3
:10231000083009F40895043011F422D0BFCF023000
:1023200029F4139515300CF01127B8CF0130E9F7D7
:10233000143051F4A0919A07A095A0939A07EDEA62
:10234000F0E00E943663AACFE5EAF0E002E0019FE8
:10235000E00DF11DC8EDDCEDA8E2B3E2A3D09ECF05
:10236000112724E50E94726102E0EEE3F4E20E948C
:10237000EF5F01E000934007EEEAF0E0A4D0A3D0C5
:102380000E94A15FE6E5F4E204E0019FE00DF11D8B
:102390000E94E65E0E942F610E941263083011F4D1
:1023A00011270895043019F41A951170DBCF02300B
:1023B000D9F30130D9F7EEEAF0E002E0019FE00D39
:1023C000F11DC8E1DCEFA8EEB3E06CD0CBCF526FCB
:1023D0006C6C204761696E00526F6C6C204F6666B2
:1023E000736574005069746368204761696E00000A
:1023F0005069746368204F666673657400004D69A8
:1024000078696E670000CE23D823E423F023FE23EF
:102410004E6F6E6500004469666600001024162445
:10242000486F6D6520506F7320526F6C6C00486F61
:102430006D6520506F73205069746368000020241C
:102440002E2453007309530973125312731B531B29
:1024500073245324732D5F007F095F097F124F752A
:102460007470757420747970652069732073657455
:1024700020746F0045534320666F72204D372061F2
:102480006E642F6F72204D382E00436865636B2099
:102490004D6978657220456469746F722E005E2400
:1024A00074248A24EF93FF93AF93BF930E941E631B
:1024B000FF91EF910E948946A02DB12DFF91EF91E0
:1024C0000E942763089520933F070E947E5F0E9429
:1024D0001E630E945F5F08950E9480610E946F5F8B
:1024E00003E0EEE9F4E20E94EF5F0E94CA5F0E94FF
:1024F0002F610E941963089500E000934005009346
:102500004105009342053091B1064091B2065091C9
:10251000B3066091400570914105809142055817BE
:102520004707360709F011C03091B7064091B80649
:102530005091B90660914005709141058091420526
:1025400058174707360709F4089500919E0700239E
:1025500069F000E000935B0500935C0500935D0566
:1025600000935E0500935F05009360050091870767
:10257000023029F50091C60600935B050091C7065D
:1025800000935C050091C80600935D050091C306A9
:1025900000935E050091C40600935F050091C50697
:1025A0000093600500E00093C0060093C10600930D
:1025B000C2060093BD060093BE060093BF0630918D
:1025C0005B0540915C0550915D056091BA06709184
:1025D000BB068091BC06580F471F361F30935B0522
:1025E00040935C0550935D0530915E0540915F0519
:1025F000509160056091B4067091B5068091B60661
:10260000580F471F361F30935E0540935F05509368
:10261000600503E00093400508EE0093410500E0EB
:102620000093420530915B0540915C0550915D053A
:10263000609140057091410580914205580F471FF8
:10264000361F30935B0540935C0550935D053091D8
:102650005E0540915F055091600560914005709165
:10266000410580914205580F471F361F30935E0584
:1026700040935F055093600500E00093400502E041
:102680000093410500E80093420510915B052091FD
:102690005C0530915D054091400550914105609188
:1026A00042050E947B637093CC068093CD062092F6
:1026B000CE0610915E0520915F0530916005409136
:1026C000400550914105609142050E947B637093E3
:1026D000C9068093CA062092CB0600918707013075
:1026E00041F510919F062091A0063091A1064091DE
:1026F000B1065091B2066091B3060E947B6370935D
:10270000BD068093BE062092BF061091A2062091BE
:10271000A3063091A4064091B7065091B806609187
:10272000B9060E947B637093C0068093C106209215
:10273000C20600919A0700230AF09FC00091BD06CF
:10274000009340050091BE06009341050091BF062D
:10275000009342053091BD064091BE065091BF06E0
:102760006091C0067091C1068091C206581B470B4C
:10277000360B3093BD064093BE065093BF06309192
:10278000C0064091C1065091C2066091400570910B
:10279000410580914205580F471F361F3093C006F0
:1027A0004093C1065093C2060091C90600934005AC
:1027B0000091CA06009341050091CB0600934205A3
:1027C0003091C9064091CA065091CB066091CC0663
:1027D0007091CD068091CE06581B470B360B309377
:1027E000C9064093CA065093CB063091CC0640915F
:1027F000CD065091CE0660914005709141058091C3
:102800004205580F471F361F3093CC064093CD0624
:102810005093CE0609E00093400504EC0093410577
:1028200000E0009342053091C9064091CA065091DC
:10283000CB06609140057091410580914205580F8B
:10284000471F361F3093C9064093CA065093CB06E4
:102850003091CC064091CD065091CE066091400556
:102860007091410580914205581B470B360B309300
:10287000CC064093CD065093CE063091BD064091D4
:10288000BE065091BF066091C9067091CA0680913C
:10289000CB06580F471F361F309321064093220660
:1028A000509323063091C0064091C1065091C20654
:1028B0006091CC067091CD068091CE06580F471FCF
:1028C000361F309324064093250650932606009128
:1028D00021060093510600912206009352060091B2
:1028E000230600935306009124060093540600919A
:1028F0002506009355060091260600935606089576
:10290000E7E7F0E00E945663102F0E9480610CE11F
:1029100000933F07E2E6F9E20E94675F03E0E6EA20
:10292000F9E20E94EF5F0AE200933F0709E3009398
:102930004007EEE2F4EC0E9405600E942F610E94C5
:102940001263043011F40FEF03C00230C1F7002707
:10295000011731F0E7E7F0E00E9460630C94643700
:10296000089547494D42414C0000557365207468F5
:10297000697320626F6172642061732061007374F7
:10298000616E642D616C6F6E652028736572766F61
:10299000290067696D62616C20636F6E74726F6C81
:1029A0006C65723F00006A297E299229E7E7F0E012
:1029B0000E9456630093780708950027E7E7F0E048
:1029C0000E946063089500270093790700937A07B7
:1029D00000937B0778940FEF00938E070E94F062BC
:1029E000083011F40E94122E0E949C3F06E006BBA4
:1029F0000E94BA510E940C570E94C4490E949048FC
:102A00000E947C120E94252A0E94EF2B0E941C52D9
:102A100000E00093930600939406009395060091BE
:102A2000760700232AF40027009376070E946D3B67
:102A30000091700700230AF4DBCF03B100950295E3
:102A40000F7039F4002700938E0700E00093880789
:102A5000CFCF0091880703950093880700918807DE
:102A6000023309F0C5CF00918E07002372F300E016
:102A700000936F000E94F062077039F3013019F083
:102A80000E945A25B1CF0E94442B29980E946E259E
:102A90000E94F3530E9451150E940E540E948425F7
:102AA000A3CFC8EEDAE2A0914607B09145070AE04D
:102AB0000E945A2BC0934607D093450708F008950B
:102AC000AA0FE0EBFBE2EA0F0027F01FA591B491FB
:102AD000FD0109950E94442B0E9461610E942F61B3
:102AE0000E940E630C9451154D6F646520536574FC
:102AF00074696E6773202020202020204D69736345
:102B00002E2053657474696E677320202020202066
:102B100047696D62616C2053657474696E677320D8
:102B200020202020416476616E63656420536574C3
:102B300074696E6773202020496E697469616C2026
:102B40005365747570202020202020205265636515
:102B5000697665722054657374202020202020201F
:102B600053656E736F72205465737420202020208B
:102B700020202020557365722050726F66696C6545
:102B8000202020202020202056657273696F6E203F
:102B9000496E666F726D6174696F6E204C4344209C
:102BA000436F6E74726173742020202020202020D7
:102BB0009B39503A4511E2152337F4545B591124DF
:102BC000EF29A42D11270E94806100E100933F07A7
:102BD000E6E4FCE20E94675F04E0E0E9FCE20E94B8
:102BE000EF5F0E948A5FEEE2FEE604E0019FE00DE7
:102BF000F11D0E94E65E0E942F610E941263083060
:102C000009F40895043019F41A951370DCCF0230DA
:102C100011F41395FACF0130B1F60E940E631F93A1
:102C2000103019F40E9483180CC0113019F40E945E
:102C30000C5E07C0123019F40E945A4702C00E946D
:102C4000F8171F91C0CF414456414E434544000000
:102C50004368616E6E656C204D617070696E6700CF
:102C600053656E736F722053657474696E67730079
:102C70004D6978657220456469746F720000426F17
:102C8000617264204F7269656E746174696F6E0061
:102C9000502C602C702C7E2C11270E94806102E247
:102CA00000933F07EEE0FDE20E94675F02E0ECE385
:102CB000FDE20E94EF5F0E948A5FEEE2FEE604E022
:102CC000019FE00DF11D0E94E65E0E942F610E94AF
:102CD0001263083009F40895043021F41A95EAF6D5
:102CE0001127DBCF023029F413951230B4F211E032
:102CF000D4CF013091F60E940E631F93103019F467
:102D00000E94A01602C00E9480141F91C6CF455891
:102D100054524100436865636B204D6F746F72209D
:102D20004F75747075747320000047696D62616C33
:102D300020436F6E74726F6C6C657200142D2A2DB7
:102D4000E3EBF0E00E94566300232AF0E6EBF0E9A3
:102D50000E945F48089530D108F408950E947F458D
:102D60000E9474430E94B04550916907222711E0E8
:102D70000E9483390E940E630E940E5400E000936B
:102D8000680700E00093690701E000936B0708E023
:102D900000936A070FEF00937007002700937207F4
:102DA00000E000937B0601E000937C0600E00093C6
:102DB0007D0606E006BB01E00093430500E90093B1
:102DC000440500E000934505052F012321F42395D8
:102DD000110FD0F743C00E94806104E300933F07C6
:102DE00006E1009340070DE40E940B6000E3239589
:102DF000020F0E940B60E0E7FBE70E94E65E0E9484
:102E00002F611F935F932F930E94BA510091EE059B
:102E1000009340050091EF05009341050091F005F6
:102E20000093420527D00E941C522F9130914305F8
:102E30004091440541503040309343054093440550
:102E400011F700E00093400500934105009342050F
:102E500011D05F911F91110F08F0ADCF00270093A3
:102E600070070FEF0093720790E090936F000E943D
:102E7000F3530895213069F40091400500930F0643
:102E80000091410500931006009142050093110640
:102E90000895223069F400914005009312060091D4
:102EA000410500931306009142050093140608950E
:102EB000233069F400914005009315060091410507
:102EC00000931606009142050093170608952430DA
:102ED00069F40091400500931806009141050093A4
:102EE00019060091420500931A060895253069F4E9
:102EF0000091400500931B060091410500931C06BC
:102F00000091420500931D060895263069F4009152
:102F1000400500931E060091410500931F06009195
:102F20004205009320060895273069F4009140057A
:102F3000009321060091410500932206009142056D
:102F40000093230608950091400500932406009104
:102F50004105009325060091420500932606089539
:102F60004D6F746F72732077696C6C207370696E2B
:102F700020696E0073657175656E6365204D312043
:102F80002D204D38000061667465722074686520DC
:102F9000636F756E74646F776E2E0000504C454100
:102FA0005345204245204341524546554C2100009F
:102FB000602F742F862F9C2F0E9480610E946F5F6C
:102FC00000E000933F0704E0E0EBFFE20E94EF5FC8
:102FD0000E94B25F0E94CA5F0E942F610E9412632A
:102FE000083011F4089408950130C1F788940895C9
:102FF0000091F907002329F0EAEBF0E90E945F480D
:103000000895E9ECF0E00E9456630370102F0E94CF
:10301000806102E200933F0703E100934007E2EB87
:10302000F0E30E94056004E000934407E8EBF0E35E
:1030300002E0019FE00DF11DA591C491A0933F070F
:10304000C093400705E0010F0E940B6001E0009370
:1030500044070E94945F0E942F610E94126308300F
:1030600009F40895043019F413951370D0CF023089
:1030700011F41A95FACF013051F610934907012F38
:10308000E9ECF0E00E9460630E94806102E200933C
:103090003F07E0ECF3EC0E94675F03E0E0E0F1E360
:1030A0000E94EF5F0E94CA5F0E942F610E94196315
:1030B000AECF46726F6E740038000014382670145C
:1030C0004D6F756E7420796F7572204B4B32206294
:1030D0006F61726400006163636F7264696E672080
:1030E000746F2073656C656374656400626F6172F0
:1030F00064206F7269656E746174696F6E2E000072
:10310000C030D630EC3011270E94726105E0E0EB50
:10311000F5EC0E94EF5F01E000934007BEE40E94DF
:103120008A5501E00093400720E3C8EBD7E00E94F6
:10313000D24588D087D086D085D084D001E0009356
:10314000400726E67FD07ED07DD00E94A15FEAEBCB
:10315000F1E304E0019FE00DF11D0E94E65E0E9494
:103160002F610E941263083029F480D010F455D0EA
:10317000CBCF0895043019F41A951770C5CF0230DB
:1031800011F41395FACF0130B9F40E94D245BB2750
:10319000E10FFB1FEF93FF930E943063AA95A77086
:1031A000A395C1E0D0E0E8E0F0E00E948946A02DC0
:1031B000FF91EF910E943663A7CF39004509390985
:1031C00045123912451B391B45243924452D6F0002
:1031D0007B096F097B126F127B1B4368616E6E6502
:1031E0006C206D617070696E672069730000696E94
:1031F00076616C69642E204475706C6963617465D6
:103200007300617265206E6F7420616C6C6F7765FE
:10321000642E0000DA31EE3102320E94806102E257
:1032200000933F07EAEBF3EC0E94675F03E0E4E101
:10323000F2E30E94EF5F0E94CA5F0E942F610E942A
:103240001963089520933F070E947E5F0E943063B8
:103250000A950993087F31F00DE20E940B600E94ED
:10326000605F0895BB270E945F5F0895C8EBD7E0B9
:10327000EE27B8E00991A02FA87F59F40894AA1F5F
:103280000A95EAF7EA2BBA95A9F7E09511F4889424
:10329000089508940895E6ECF0E00E945663002338
:1032A00039F40091770700230AF431C08894089517
:1032B000102F13700AE000933F07E2E6F3E30E9449
:1032C000675F00E000933F07012FEAE9F3E30E9404
:1032D000E65F0E94605F00E000933F07E2E7F3E3F0
:1032E0000E940560E7ECF0E00E943263CA2F0E9462
:1032F00032630E945A3D00E600933F0709E30093C2
:103300004007E8E2F4EC0E940560089408950AE0A2
:1033100000933F07E2E6F3E30E94675F00E000935B
:103320003F07EAE7F3E30E940560E8E7F0E00E9468
:1033300056630170E6E9F3E30E94E65F00E0009364
:103340003F0709E300934007ECE6F4EC0E940560B8
:1033500000E600933F07ECE6F3E30E940560089463
:1033600008954552524F52204C4F470041424F5210
:10337000540054696D653A2000005374617475738C
:103380003A200000454E41424C45440044495341D7
:10339000424C454400008C338433C6AA367C6A7C98
:1033A000887CE8E7F0E00E945663002382F4E6ECB4
:1033B000F0E00E945663002351F40E943863A0910C
:1033C0009C070E943863A0919D070E94386308956E
:1033D000E6ECF0E00E945663002331F40091770799
:1033E00000233AF0889408950027E6ECF0E00E946C
:1033F000606300270093770708940895009177078A
:10340000002352F4E8E7F0E00E94566300950E9422
:10341000606300270093770708950FEFE8E7F0E077
:103420000E946063D5DF0895A4E6B0E00E94DD62EB
:103430000E94AE290E940B2E0E942F610E946161A2
:103440000E942F610E944E3500E00093450700E086
:103450000093460700E00093470700E00093480709
:1034600003E0009397050FEF0093980500E00093A9
:10347000990501E000939C060EE800939D0600E08C
:1034800000939E06002700939C0700939D070093DE
:103490009E0700938F0700936E07009377070093B2
:1034A0007407AFEAA0937E07A2E0A0937F07A1E094
:1034B000A0938707A09381070093A6070093A7070F
:1034C0000093A8070093A9070093AA070093AB07EE
:1034D0000093AC070093AD070093AE070093AF07CE
:1034E0000093B0070093B1070093B2070093B307AE
:1034F0000093B4070093B5070093CC0700935807D7
:1035000000935907AAEFA0935A07A0935B07A093D3
:103510005C07A0935D07A0935E07A0935F07A0934D
:103520006007A0936107A3E0A093F007A0EFA0932A
:1035300095070E94D05D0E9494380E94D614009195
:103540007807002312F40C94E3147894E4E7F0E095
:103550000E945663002351F00E94CA3403B10095C3
:1035600002950F7089F00E94D4330EC00FEF0093C4
:103570008E070E94F062083011F40E94122E013072
:1035800019F40FEF009377070E949C3F06E006BBFB
:103590000E94BA510E941B570E94B83E0E94F12C13
:1035A0000E94C4490E9490480E947C120E94252AD1
:1035B0000E94EF2B0E941C52009070071090710720
:1035C000012400928B0700918B07002332F40E94A4
:1035D000BE2C0091700700937107009176070023BD
:1035E0002AF40027009376070E946D3B0091700734
:1035F00000230AF4CDCF03B1009502950F7039F482
:10360000002700938E0700E000938807C1CF009148
:10361000880703950093880700918807023309F013
:10362000B7CF00918E07002372F300E000936F0084
:103630000E94F0620F7039F3013029F0083061F018
:103640000E945A25A1CF0E94442B0E94E81948F4F9
:103650000FEF00938E0798CF0E94442B0E94FE1913
:10366000F7CF29980E946E250E94F3530E9472584A
:103670000E940E540E94842587CF0E9480430E949E
:1036800078440E941045A9D1C2D40E940C570091E1
:10369000F007033041F0C9E10E94E2620091D107D6
:1036A00000230AF48CC000919E07002311F40E94AD
:1036B0009A0710915B0520915C0530915D05409162
:1036C000D5065091D6066091D7060E947B63709311
:1036D000E8058093E9052092EA0510915E052091A6
:1036E0005F05309160054091D5065091D6066091F6
:1036F000D7060E947B637093EB058093EC052092C4
:10370000ED057FD20E947261E4E1F8E30E9405605A
:1037100000919E07002359F003304CF4A0916C07F0
:10372000AA2329F0E8EEF4EC0E94056004C0E2E868
:10373000F5EC0E94E65F00E000933F070AE000938B
:10374000400700919E07EEE5F8E30E94E65FEAE39A
:10375000F8E3B091E805A091E905D091EA05F3D02E
:1037600000919E07ECE6F8E30E94E65FE0E4F8E3F0
:10377000B091EB05A091EC05D091ED05E4D0E2E22B
:10378000F8E30E94056000919F07E0E9F5EC0E94D4
:10379000E65F00E000933F0709E300934007E6EC93
:1037A000F3EC0E940560E0E3F8E30E94E65E0E940D
:1037B0002F6100914D07023014F40E94DA550E94E7
:1037C000F062083009F40895043021F40E94442B7B
:1037D000CFD05BCF023039F45ED10E94442BA09150
:1037E0009E0733D152CF013009F04FCF00919E0791
:1037F000039507300CF00027023029F4A0916C07E4
:10380000AA230AF4039500939E070E94442B0E946A
:103810000E633BCF54756E696E67204D6F64653AD9
:103820002000496E7075742052617465203A200042
:103830004C007F09546573740000417578320000B4
:1038400041757833000052204761696E00005020B6
:103850005472696D000052205472696D0000343852
:1038600020C520C520C520C54E3820C5343830C5F8
:1038700030C530C5C6AA563846384E4F5400506C35
:10388000656173652063656E74657220796F75720A
:103890002054580074756E696E6720636F6E747281
:1038A0006F6C73206E6F772E0000412054756E6927
:1038B0006E67204D6F6465206D75737420626500BE
:1038C00073656C65637465642066697273742E0039
:1038D0007E389438AA38C03853455420494E505544
:1038E000542052415445000053656C65637420694F
:1038F0006E707574207261746520666F7200616C01
:103900006C2074756E696E67206D6F6465732E2010
:10391000557365004C4F5720666F722066696E655F
:103920002D74756E696E672E00004241434B202056
:103930004C4F57204D454449554D20484947480074
:10394000E838FE38143900913F07002309F4089540
:103950000FE20E940B600E94056002E400933F07A3
:103960000E947E5F0E945F5F00E000933F07089522
:103970000E94726106E100933F07E8EDF8E30E94C0
:1039800005600DE00093400703E0E0E4F9E30E94E6
:10399000EF5F00E000933F0709E300934007EAE28E
:1039A000F9E30E9405600E942F610E941263077074
:1039B00089F0043011F4A1E008C0023011F4A2E053
:1039C00004C0013009F0D4CFA3E0ECEBF0E00E949A
:1039D000366303D00E940E630895ECEBF0E00E9482
:1039E0003063A370AA2309F4A2E0A13051F400E0EF
:1039F0000093400500E00093410506E20093420574
:103A000015C0A23051F400E00093400500E000939F
:103A1000410503E70093420509C000E0009340051B
:103A200000E00093410500EC00934205A0939F073E
:103A3000009140050093D506009141050093D606FC
:103A4000009142050093D70608950E9480610AE024
:103A500000933F07AA2341F4EAE7F8E30E940560D8
:103A60000AE300933F0703C002E200933F07E0EC44
:103A7000F3EC0E94675FE0EDF8E3AA2311F4E4EDB4
:103A8000F8E302E00E94EF5F0E94CA5F0E942F618C
:103A90000E941963089500919E07002309F4089578
:103AA000B091E805A091E905D091EA050130C9F48B
:103AB000B093D605A093D705D093D8050027CC277F
:103AC0008BD00027C2E0B091EB05A091EC05D0911E
:103AD000ED05B093DF05A093E005D093E1057CD020
:103AE00008950230C9F401E0CC27B093D905A09322
:103AF000DA05D093DB0570D001E0C2E0B091EB05B0
:103B0000A091EC05D091ED05B093E205A093E305FB
:103B1000D093E40561D008950330C9F4B093DC0577
:103B2000A093DD05D093DE0502E0CC2755D002E05E
:103B3000C2E0B091EB05A091EC05D091ED05B093FA
:103B4000E505A093E605D093E70546D00895043037
:103B500059F4B0935A06A0935B06D0935C06E4E850
:103B6000F0E00E94276308950530D9F4B0938D06E4
:103B7000A0938E06D0938F06EAE8F0E00E942763B8
:103B8000B091EB05A091EC05D091ED05B0938A06BC
:103B9000A0938B06D0938C06E8E8F0E00E942763A0
:103BA0000895B093D206A093D306D093D406E9EA41
:103BB000F0E00E942763B091EB05A091EC05D09155
:103BC000ED05B093CF06A093D006D093D106E5EAD9
:103BD000F0E00E9427630895E4E4F0E0000F000F96
:103BE000000FE00F0027F01F0C2F000FE00F002741
:103BF000F01F0A2F0E945E6331960B2F0E945E63B6
:103C0000089500919E07002309F408950E949A07E1
:103C100010915B0520915C0530915D054091D506C2
:103C20005091D6066091D7060E947B6370935B0526
:103C300080935C0520925D0510915E0520915F05E3
:103C4000309160054091D5065091D6066091D70617
:103C50000E947B6370935E0580935F0520926005F0
:103C600000919E070130C1F50091D60500934605ED
:103C70000091D705009347050091D80500934805AA
:103C80000091DF05009340050091E0050093410598
:103C90000091E1050093420573D10E94CC4100914F
:103CA000E8050093B2050091E9050093B305009182
:103CB000EA050093B405009140050093C405009106
:103CC00041050093C505009142050093C60500918A
:103CD0006C070023F2F008950230A1F50091D90598
:103CE000009346050091DA05009347050091DB0536
:103CF000009348050091E205009340050091E3051B
:103D0000009341050091E4050093420539D10E94DA
:103D1000CC410091E8050093B5050091E9050093B9
:103D2000B6050091EA050093B705009140050093A0
:103D3000C705009141050093C80500914205009315
:103D4000C90508950330A1F50091DC0500934605EF
:103D50000091DD05009347050091DE0500934805BD
:103D60000091E505009340050091E60500934105AB
:103D70000091E7050093420503D10E94CC410091D8
:103D8000E8050093B8050091E9050093B905009195
:103D9000EA050093BA05009140050093CA05009119
:103DA00041050093CB05009142050093CC05089591
:103DB000043009F500915A060093460500915B0610
:103DC0000093470500915C0600934805D9D000E0B8
:103DD0000093EB050093EC050093ED050091E805D9
:103DE000009357060091E905009358060091EA05F3
:103DF000009359060895053009F061C030918A0694
:103E000040918B0650918C0660915E0570915F0524
:103E100080916005580F471F361F3093EB05409384
:103E2000EC055093ED0530918D0640918E06509132
:103E30008F0660915B0570915C0580915D05581B54
:103E4000470B360B3093E8054093E9055093EA059C
:103E50000091E805009387060091E9050093880624
:103E60000091EA05009389060091EB050093840612
:103E70000091EC05009385060091ED050093860600
:103E800060918706709188068091890602E00E9401
:103E90006C636093870670938806809389066091AF
:103EA0008406709185068091860602E00E946C630C
:103EB00060938406709385068093860608953091FA
:103EC000CF064091D0065091D10660915E05709169
:103ED0005F0580916005580F471F361F3093EB0533
:103EE0004093EC055093ED053091D2064091D306F6
:103EF0005091D40660915B0570915C0580915D05E1
:103F0000580F471F361F3093E8054093E90550933B
:103F1000EA050091E8050093B7060091E9050093D2
:103F2000B8060091EA050093B9060091EB050093ED
:103F3000B1060091EC050093B2060091ED050093E7
:103F4000B3066091B7067091B8068091B90604E097
:103F50000E946C636093B7067093B8068093B906AD
:103F60006091B1067091B2068091B30604E00E94A0
:103F70006C636093B1067093B2068093B3060895A4
:103F800030914605409147055091480560915B0589
:103F900070915C0580915D05580F471F361F309367
:103FA000E8054093E9055093EA053CF400E00093EE
:103FB000E8050093E9050093EA053091400540913A
:103FC00041055091420560915E0570915F058091B9
:103FD0006005580F471F361F3093EB054093EC05E3
:103FE0005093ED053CF400E00093EB050093EC05E5
:103FF0000093ED050091EB05009340050091EC0561
:10400000009341050091ED0500934205089500914C
:104010009E07023039F400916C0700231AF401E086
:1040200000939E07089500E00093EB050093EC05D4
:104030000093ED050E949C3F0E94ED1C0E94842588
:104040000E940E540FEF00939E07002700937A07FB
:1040500000937B0700918F07063014F00FEF01C02B
:104060000027009379070E94806100917007002368
:104070005AF402E200933F0706E100934007E4E2AE
:10408000FBE70E9405606FC00CE100933F07ECEB7B
:10409000F2E40E94675F00E000933F0700918F0702
:1040A000043064F4A0916C07AA2341F001700093DE
:1040B0008F07E8EEF4EC0E94056004C0E4EFF2E440
:1040C0000E94E65F00E20E940B6000918F07EAE029
:1040D000F3E40E94E65F0E947E5FC0918F0741D1AA
:1040E0000E941E630E945F5F00E000933F07E6ECC2
:1040F000FAEA0E944E3E0E94056000919507077FF4
:10410000A0917207A0950A2B59F00091960703958C
:1041100000939607017021F0E4EEF2E40E94E65E5F
:1041200000E000933F0703E200934007E4ECF2E471
:104130000E940560B091EB05A091EC05D091ED05D2
:104140000E945F5F00E000933F07E4EDF2E40E940D
:104150006E3D00E000933F0709E300934007ECED5C
:10416000F3EC0E9405600E942F610E94BA510E94E8
:104170000C570E94B83E0E94C2230E94BD210E949B
:10418000C4490E9490480E947C120E94252A0E94E5
:10419000EF2B0E941C5200907007109071070124B1
:1041A00000928B0700918B07002332F40E94BE2CF3
:1041B000009170070093710700917607002322F4A5
:1041C00000270093760746CF0091700700230AF47A
:1041D000CCCF03B1009502950F7021F400E000935D
:1041E0008807C3CF00918807039500938807009143
:1041F0008807023309F0B9CF0E94F062083051F409
:1042000000E000936F0000939E070E946E250E94BD
:10421000F3530895043071F400E000936F000E949E
:104220006E250E94F3530E94B81C0E9484250E94B0
:104230000E5410CF023089F4A0918F07A395AB30B4
:1042400014F0AA2707C000916C0700231AF4A230CB
:1042500009F4A4E0A0938F07FDCE013061F600E0E1
:1042600000936F000E946E250E94F353B091E80501
:10427000A091E905D091EA05C0918F07E6E3F3E448
:1042800004E00C9FE00DF11DC591D59105901590AE
:10429000E02DF12D0E948946A02DB12DAF93BF9343
:1042A000C0918F075ED0BF91AF910E9427630E949B
:1042B0009C3F0E9484250E940E54CCCE54554E49FA
:1042C0004E47000052656D6F746520496E707574BD
:1042D0003A200000466C69676874204D6F64652061
:1042E0003A20000000197F22526F6C6C0000506968
:1042F00074636800F0C4F0C4F8C4F8C402C502C511
:10430000DCC4CAC4CAC4E0C4E0C420C530C520C5EA
:1043100030C520C530C520C5E842EE42E842EE4235
:10432000440048004C0050005400580084008800AD
:104330008A00A500A9000000840300008403000097
:104340008403000084030000840300008403000051
:1043500084037CFC84037CFC8403D8DC2823D8DC25
:104360002823E0E9F1E201E00C9FE00DF11DEE0FE2
:10437000FF1FA591B491FD01089500E00093400551
:1043800000E00093410509E10093420510915B05AF
:1043900020915C0530915D054091400550914105AB
:1043A000609142050E947B6370935B0580935C057E
:1043B00020925D0510915B0520915C0530915D05B3
:1043C0004091D5065091D6066091D7060E947B6336
:1043D00070935B0580935C0520925D0500915B0501
:1043E0000093EB0500915C050093EC0500915D05E1
:1043F0000093ED0500918F070023F1F40091D6059D
:10440000009340050091D705009341050091D80520
:10441000009342058DD1009140050093B2050091B3
:1044200041050093B305009142050093B405009146
:104430006C07002392F10895013001F50091DF052A
:10444000009340050091E005009341050091E105CE
:10445000009342056DD10E94CC410091400500932C
:10446000C405009141050093C505009142050093E4
:10447000C60500916C07002372F108950230D1F453
:104480000091D905009340050091DA05009341059C
:104490000091DB05009342054BD10091400500934C
:1044A000B505009141050093B605009142050093C2
:1044B000B70508950330E1F40091E205009340054B
:1044C0000091E305009341050091E4050093420546
:1044D0002FD10E94CC41009140050093C705009167
:1044E00041050093C805009142050093C905089550
:1044F0000430D1F40091DC05009340050091DD0506
:10450000009341050091DE050093420511D1009111
:1045100040050093B805009141050093B90500914D
:1045200042050093BA0508950530E1F40091E505D0
:10453000009340050091E605009341050091E705D1
:1045400000934205F5D00E94CC41009140050093B4
:10455000CA05009141050093CB05009142050093E7
:10456000CC0508950630D1F400915A060093400519
:1045700000915B060093410500915C0600934205A3
:10458000D7D0009140050093570600914105009354
:10459000580600914205009359060895073089F5A1
:1045A00030918A0640918B0650918C0660915B0594
:1045B00070915C0580915D05580F471F361F309341
:1045C000E8054093E9055093EA050091E80500935A
:1045D00084060091E905009385060091EA050093A1
:1045E000860660918406709185068091860602E0B9
:1045F0000E946C63609384067093850680938606A0
:104600000895083089F530918D0640918E065091BD
:104610008F0660915B0570915C0580915D05580F78
:10462000471F361F3093E8054093E9055093EA058C
:104630000091E805009387060091E905009388063C
:104640000091EA05009389066091870670918806BB
:104650008091890602E00E946C63609387067093E4
:104660008806809389060895093089F53091CF0630
:104670004091D0065091D10660915B0570915C0528
:1046800080915D05580F471F361F3093E805409312
:10469000E9055093EA050091E8050093B106009101
:1046A000E9050093B2060091EA050093B306609114
:1046B000B1067091B2068091B30604E00E946C636B
:1046C0006093B1067093B2068093B306089530915B
:1046D000D2064091D3065091D40660915B0570914B
:1046E0005C0580915D05580F471F361F3093E80524
:1046F0004093E9055093EA050091E8050093B70659
:104700000091E9050093B8060091EA050093B90607
:104710006091B7067091B8068091B90604E00E94D6
:104720006C636093B7067093B8068093B9060895DA
:1047300030914005409141055091420560915B05E3
:1047400070915C0580915D05580F471F361F3093AF
:10475000E8054093E9055093EA053CF400E0009336
:10476000E8050093E9050093EA050091E805009348
:1047700040050091E905009341050091EA05009389
:1047800042050895009170070023CAF03091990600
:1047900040919A06415030403093990640939A06D2
:1047A0000CF02FC00FEF0093760701E000939906FD
:1047B00000E900939A0600E000939B0622C0009156
:1047C00095070023F1F000917407002311F0AAF07F
:1047D0000EC008E22B9AE0917507EA95E093750701
:1047E00071F4E0919507E77FE093950708C00A957B
:1047F00009F005C004EC2B9802C0039551F3009317
:10480000740700919307002322F0009170070023A2
:1048100012F02B98089500919507002309F42B9A24
:1048200008952227E3E7F0E00E945663102F0E94CC
:10483000726105E0E6EBF9E40E94EF5F06E60093A3
:104840003F0701E000934007BB27A12FA395DD2779
:104850000E941E5F222319F40E94A15F02C00E94E1
:10486000945FEAEAF9E404E0029FE00DF11D0E9482
:10487000E65E0E942F610E941263083009F40895D9
:10488000043021F42A9542F422E0CCCF023029F4FE
:10489000239523300CF02227C5CF0130E9F72030D3
:1048A00091F4A12FA395BB27C1E0D0E0E4E0F0E0B4
:1048B0000E948946A02DAA951A2FE3E7F0E00E94F6
:1048C00038632227AFCF213029F4C2D00E94D05DB7
:1048D00021E0A8CFE4E9F9E40E94A961013011F0D8
:1048E00022E0A0CF0E940E540E9494350E94D05D19
:1048F0000E94233708950E948061AA2341F408E2B0
:1049000000933F07E0ECF9E40E94056007C002E273
:1049100000933F07EAEBF3EC0E94056001E000938F
:104920004407B2E000E000933F0701E10093400735
:104930000A2FBF930F93E4E4FAE40E94E65F00E0DD
:1049400000933F070E94605F0F910395BF91BA9556
:1049500081F70E94CA5F0E942F610E941963089527
:1049600044656661756C742050726F66696C653A57
:10497000200046756E6374696F6E733A0000496D6E
:10498000706F727420757365722070726F66696CD7
:10499000652E0000526573657420616374697665E5
:1049A0002070726F66696C652E0065006D09001BD2
:1049B0007F2400247F2D6049C6AA72497E4994490C
:1049C000444F4E450000416C6C206461746120636B
:1049D0006F706965642066726F6D00007468652091
:1049E00073656C65637465642070726F66696C656D
:1049F0002E005468652073656C656374656420706F
:104A0000726F66696C6573006D75737420626520E2
:104A1000646966666572656E742E000050726F661A
:104A2000696C652023312063616E206F6E6C7900A4
:104A3000626520656469746564206D616E75616C82
:104A40006C792E00C649DC49F249084A1C4A304AB2
:104A50000091F907002311F4A4E00FC0A1E0BB27E7
:104A6000C1E0D0E0E4E0F0E00E948946A02DAA95E4
:104A70000091F9070A1719F4A2E03DDF0895AF93FA
:104A8000EEE7F9E40E94A961013011F0AF910895B9
:104A9000EE27CF91299AFC2F0E945663A02F0E94E7
:104AA0003663EE23C1F729980E940E540E94F353F7
:104AB000AA27E3CF023019F0043009F008950695D3
:104AC000017009F40FEFA091F9070A0F037000932A
:104AD000F9070E944E350E94D05D08950091F907B4
:104AE000002309F4089503950093FB0704E600935F
:104AF000FA0700270093FC0700E004BD05E005BDB0
:104B000001E000936E00089500E000936E002B9882
:104B10000895FFB69091FA079A95C9F4E090FC07C2
:104B2000EE2019F42B9A9FE00FC02B989091FB0771
:104B30009A9521F09093FB079FE006C09091F907AA
:104B400093959093FB0798ECE094E092FC07909388
:104B5000FA07FFBE18950091ED060093F20600914A
:104B6000EE060093F3060091EF060093F406009121
:104B7000F0060093F5060091F1060093F6060895FD
:104B80003090ED064090EE065090EF066090F006F3
:104B90007090F1062091ED063091EE064091EF06FF
:104BA0005091F0066091F1060E94EC63B0931A07F1
:104BB000C0931B07D0931C07E0931D07F0931E07BB
:104BC00030901A0740901B0750901C0760901D07FB
:104BD00070901E0701E00E94856430921A0740928F
:104BE0001B0750921C0760921D0770921E0701E080
:104BF00000931F0700E00093200700E000932107C7
:104C000000E00093220700E00093230730901F0785
:104C10004090200750902107609022077090230752
:104C200020911A0730911B0740911C0750911D07D6
:104C300060911E07761A650A540A430A320A3092B6
:104C4000F7064092F8065092F9066092FA067092C2
:104C5000FB060895B093ED06A093EE06D093EF0601
:104C6000C093F006F093F1063090ED064090EE060A
:104C70005090EF066090F0067090F1062091DE06ED
:104C80003091DF064091E0065091E1066091E20626
:104C90000E94EC63B093ED06C093EE06D093EF064E
:104CA000E093F006F093F1060895FF27CD2FDA2F59
:104CB000AB2FBB2312F4BFEF0895BB2708954BDF42
:104CC0005FDF3090100740901107509012076090FE
:104CD0001307709014072091F7063091F806409161
:104CE000F9065091FA066091FB060E94EC63B093BE
:104CF0002E07C0932F07D0933007E0933107F0932E
:104D000032073090150740901607509017076090B3
:104D10001807709019072091F2063091F306409120
:104D2000F4065091F5066091F6060E94EC63B0938C
:104D30001A07C0931B07D0931C07E0931D07F0933D
:104D40001E0730902E0740902F075090300760903C
:104D500031077090320720911A0730911B0740915C
:104D60001C0750911D0760911E07761A650A540AA8
:104D7000430A320A30922E0740922F075092300792
:104D800060923107709232073090100740901107FF
:104D90005090120760901307709014072091F2064C
:104DA0003091F3064091F4065091F5066091F606B5
:104DB0000E94EC63B0933307C0933407D093350758
:104DC000E0933607F09337073090150740901607A9
:104DD0005090170760901807709019072091F706F8
:104DE0003091F8064091F9065091FA066091FB0661
:104DF0000E94EC63B0931A07C0931B07D0931C0763
:104E0000E0931D07F0931E0730903307409034075E
:104E100050903507609036077090370720911A0739
:104E200030911B0740911C0750911D0760911E0790
:104E3000760E651E541E431E321E3092330740927A
:104E400034075092350760923607709237070895FD
:104E5000F894A0918400B09185007894E0914A077D
:104E6000F0914B07A0934A07B0934B07AE1BBF0BC3
:104E70002AF4E0E0F0E0EA1BFB0BDF01DD27B6954A
:104E8000A795D795B695A795D795B695A795D79594
:104E9000B695A795D795CC27FF27B093E806A093A2
:104EA000E906D093EA06C093EB06F093EC06309047
:104EB000E8064090E9065090EA066090EB06709094
:104EC000EC062091E3063091E4064091E50650910E
:104ED000E6066091E7060E94EC63B093DE06C0939D
:104EE000DF06D093E006E093E106F093E206B0918E
:104EF0007905A0917A05D0917B05D7DEABDE0091D4
:104F00000107009310070091020700931107009119
:104F10000307009312070091040700931307009101
:104F200005070093140700910607009315070091E9
:104F300007070093160700910807009317070091D1
:104F400009070093180700910A0700931907B7DEB5
:104F500000912E070093010700912F07009302078D
:104F60000091300700930307009131070093040775
:104F7000009132070093050700913307009306075D
:104F80000091340700930707009135070093080745
:104F900000913607009309070091370700930A072D
:104FA000B0917605A0917705D09178057EDE52DE2E
:104FB0000091FC06009310070091FD060093110775
:104FC0000091FE06009312070091FF06009313075D
:104FD000009100070093140700910607009315073E
:104FE0000091070700931607009108070093170721
:104FF000009109070093180700910A070093190709
:105000005EDE00912E070093FC0600912F070093AF
:10501000FD06009130070093FE06009131070093D2
:10502000FF060091320700930007009133070093B9
:105030000607009134070093070700913507009396
:10504000080700913607009309070091370700937E
:105050000A07B0916A05A0916B05D0916C0525DE19
:10506000F9DD0091FC06009310070091FD06009306
:1050700011070091FE06009312070091FF060093AE
:105080001307009100070093140700910107009394
:10509000150700910207009316070091030700937C
:1050A0001707009104070093180700910507009364
:1050B000190705DE00912E070093FC0600912F07CB
:1050C0000093FD06009130070093FE060091310722
:1050D0000093FF0600913207009300070091330709
:1050E00000930107009134070093020700913507F0
:1050F00000930307009136070093040700913707D8
:105100000093050708953090FC064090FD065090EE
:10511000FE066090FF06709000072091FC0630911B
:10512000FD064091FE065091FF06609100070E9427
:10513000EC63B0931A07C0931B07D0931C07E0934E
:105140001D07F0931E073090010740900207509012
:1051500003076090040770900507209101073091C4
:1051600002074091030750910407609105070E94D0
:10517000EC63B0931F07C0932007D0932107E093FF
:105180002207F093230730901A0740901B07509096
:105190001C0760901D0770901E0720911F0730911B
:1051A0002007409121075091220760912307760E36
:1051B000651E541E431E321E30921A0740921B0772
:1051C00050921C0760921D0770921E0730900607D0
:1051D00040900707509008076090090770900A07F1
:1051E0002091060730910707409108075091090761
:1051F00060910A070E94EC63B0931F07C0932007D9
:10520000D0932107E0932207F093230730901A07E9
:1052100040901B0750901C0760901D0770901E0760
:1052200020911F07309120074091210750912207BC
:1052300060912307760E651E541E431E321E309267
:105240000B0740920C0750920D0760920E07709268
:105250000F0708950091FC06009329070091FD06B1
:1052600000932A070091FE0600932B070091FF068A
:1052700000932C070091000700932D072ED000917A
:10528000A50600939F060091A6060093A006009134
:10529000A7060093A106009101070093290700913A
:1052A000020700932A070091030700932B07009140
:1052B000040700932C070091050700932D070DD0DC
:1052C0000091A5060093A2060091A6060093A306EE
:1052D0000091A7060093A40608950AE500931F070E
:1052E00000E00093200700E00093210700E0009316
:1052F000220700E0009323073090290740902A07F7
:1053000050902B0760902C0770902D0720911F075D
:105310003091200740912107509122076091230787
:105320000E94EC63B0931A07C0931B07D0931C072D
:10533000E0931D07F0931E07B0911A07A0911B0779
:10534000D0911C07C0911D07F0911E07AFDCB093F0
:10535000A506A093A606D093A706089502E301B977
:105360000AE004B90CEF07B902EF0AB90FEF009396
:105370007E0005EF05B903E008B90DE00BB900E0C8
:105380000093800002E00093810000E0009382001F
:1053900005E10093690003E00DBB0AE0009368009B
:1053A00001E00093730005E000936C000091B900E8
:1053B0000C7F0093B90001E10093B8005D9A5C9AFC
:1053C0005E982B9A299AA4EFB1E00E94DD622B9897
:1053D00029985E9AA4E6B0E00E94DD6208950E94DA
:1053E000806106E100933F07E4E2F4E50E94675F15
:1053F00004E0E2E4F4E50E94EF5F04E200933F077B
:105400000AE10093400700914D07E0EEF1E00E94B1
:10541000E65F0E94B25F0E942F610E941263083013
:10542000E1F7089556455253494F4E004B4B322EEB
:10543000312B2B2041694F2052332042657461206B
:1054400032002C548001C6AA78C400E000934005C5
:1054500000934105009342053091810640918206F8
:1054600050918306609140057091410580914205FD
:1054700058174707360759F0309181064091820648
:1054800041503040309381064093820603C000278C
:10549000009394070091990700236AF400917E0716
:1054A0000A9500937E07002331F4002700939907A3
:1054B000AFEAA0937E07009070071090720701205A
:1054C00000928B0700918B07002322F500917C0747
:1054D000002302F130917E0640917F06415030401A
:1054E00030937E0640937F06ACF403E000937E0683
:1054F00000E200937F0600E0009380060FEF009328
:10550000940700E00093810604E10093820600E026
:105510000093830600907007109071070124009299
:105520008B0700918B0700233AF400E00093930669
:10553000009394060093950600E00093400500E078
:105540000093410501E0009342053091930640919C
:1055500094065091950660914005709141058091A7
:105560004205580F471F361F309393064093940609
:10557000509395060DE70093400500E00093410528
:1055800000E00093420530919306409194065091BB
:10559000950660914005709141058091420558172C
:1055A0004707360764F00091400500939306009189
:1055B00041050093940600914205009395060091E1
:1055C0007C07002322F000917B07002372F40091F6
:1055D0007D07002319F10A9500937D0700E00093F1
:1055E000960600939706009398060AE000934005FC
:1055F0000CEF0093410500E80093420530919306BB
:105600004091940650919506609140057091410536
:105610008091420558174707360704F130919606E6
:10562000409197064150304030939606409397063C
:10563000ACF407E00093960600ED0093970600E0B7
:10564000009398060FEF0093940701E00093810602
:1056500000E90093820600E000938306009094071F
:1056600010909307012800928B0700908B071090F1
:105670009907012800928B0700918B07002312F0F5
:1056800029980895299A08950F93EF93FF93E2EADA
:10569000F0E00E945463FF91EF91002312F00F910C
:1056A0000895CF93299AC2E30E94E2622998CF918C
:1056B0000F910895402F2A2F3B2F0E94616101E036
:1056C0000093430704E000934407203049F00AE3C5
:1056D00000933F0700E00093400700E00E940B604A
:1056E000022F0B5F041749F00AE300933F0702E320
:1056F0000093400701E00E940B6001E00093440723
:1057000008E00093400715E0FE0104E1029FE00D70
:10571000F11D00E000933F07A4E105910E940B609A
:10572000AA95D9F70090400708E0000E00924007C4
:105730001A9579F708E0039F002D095F0093400751
:10574000075F0093420700E000933F070FE70093D5
:10575000410700E0009343070E94D45E0E948A5FE5
:105760000E942F61AEE10E94F062003021F00970CA
:10577000D1F7AA95C1F70E941363083019F4AA273C
:10578000889429C0043061F4303019F03A950C94B3
:10579000EE2B203019F02A950C94EE2B0C94EE2B66
:1057A000023071F4343019F033950C94EE2B042F41
:1057B0000550201719F023950C94EE2B0C94EE2B2A
:1057C000013061F40E9461610E942F610E940E63AA
:1057D000A22FA30F0894C22FD32F08956ECF30911C
:1057E0008E0540918F0550919005609197057091BD
:1057F00098058091990558174707360764F400917A
:105800008E050093970500918F05009398050091F0
:1058100090050093990530918E0540918F05509128
:105820009005609194057091950580919605581B9F
:10583000470B360B3093AF054093B0055093B1053D
:105840006091AF057091B0058091B10508E00E94AC
:105850006C636093AF057093B0058093B105309190
:10586000940540919505509196056091AF05709112
:10587000B0058091B105580F471F361F309394052E
:1058800040939505509396053091630640916406C8
:1058900050916506609194057091950580919605EB
:1058A000581B470B360B3093AF054093B005509310
:1058B000B1050AF45CC06091AF057091B0058091AC
:1058C000B10502E00E946C636093AF057093B00570
:1058D0008093B10500E00093400500E1009341058D
:1058E00000E0009342053091AF054091B005509122
:1058F000B1056091400570914105809142055817AE
:105900004707360764F0009140050093AF0500910A
:1059100041050093B005009142050093B105309117
:10592000750640917606509177066091AF057091AB
:10593000B0058091B105580F471F361F309375068B
:105940004093760650937706B0917506A09176063F
:10595000D0917706AA235AF000919207002351F0C4
:105960000A95009392070FEF00939307089504E6BA
:1059700000939207002700939307089500E0009397
:10598000460501E00093470508E3009348051091A0
:10599000630620916406309165064091460550915A
:1059A0004705609148050E947B6370934005809392
:1059B00041052092420530914005409141055091AA
:1059C000420560918E0570918F0580919005581762
:1059D000470736072CF40091950708600093950758
:1059E0000895009170070023CAF030919906409104
:1059F0009A06415030403093990640939A060CF035
:105A000054C00FEF0093760701E00093990600E978
:105A100000939A0600E000939B0647C0009172072E
:105A200000230AF130919C0640919D064150304080
:105A300030939C0640939D06B1F401E000939C06D0
:105A40000EE800939D0600E000939E06A0919C073F
:105A5000A395AC3331F4B0919D07B395B0939D07F6
:105A6000AA27A0939C07009195070023F1F00091CD
:105A70007407002311F0AAF00EC008E22B9AE091FF
:105A80007507EA95E093750771F4E0919507E77F54
:105A9000E093950708C00A9509F005C004EC2B981F
:105AA00002C0039551F30093740700917F07A09102
:105AB00080070A1709F438C000938007A2E8B7E00E
:105AC000A00F08F4B39500270093790700937A0795
:105AD00000937B070C91A0918107009381070A171F
