:020000020000FC
:100000000C943F000C94E15C0C94C15C0C943E0099
:100010000C943E000C942A5D0C943E000C94015DFF
:100020000C943E000C943E000C943E000C948A5AB2
:100030000C943E000C941A580C9450580C943E00AA
:100040000C943E000C943E000C940A2B0C943E0041
:100050000C94DB060C943E000C943E000C943E0085
:100060000C943E000C943E000C943E000C943E0018
:100070000C943E000C943E000C943E0018950FEF3B
:100080000DBF00E10EBFE3E7F0E00E945F6D03707B
:1000900000938608E1E7F0E00E945F6D0093BC07E3
:1000A000003011F40C945A1F013011F40C94800AA2
:1000B000023011F40C94250E053011F00C948412CA
:1000C0000C94150500918608002329F0E4EFFEE961
:1000D0000E94804F08951091BC0722270E946066FD
:1000E00006E10093AB07E0E8F1E00E94E56400E080
:1000F0000093AB070AE10093AC0701E00093B0075F
:10010000E8E8F1E00E94E564012FEEEEF1E00E94E4
:10011000C664222371F0022F017069F003E000939E
:10012000AB070CE20093AC07E0E9F1E00E94E56464
:1001300002C00E9474640E940F66222341F0A8E569
:10014000B2E00E94E66C239509F422E0C7CF0E943A
:100150001B6D083009F40895043021F41A957AF4DF
:1001600015E0BCCF023029F41395163044F0112766
:10017000B5CF21E0A12FE1E7F0E00E94416DAECFC5
:100180005258204D4F4445004D6F64653A200000A1
:100190005265737461727420697320726571756938
:1001A0007265642100005374616E64617264205250
:1001B00058004350504D2F50504D0000532E427563
:1001C0007300536174656C6C6974652044534D32DF
:1001D0000000536174656C6C6974652044534D581C
:1001E000000053657269616C204C696E6B00A6015A
:1001F000B201BC01C201D201E20100E00093BC07E0
:10020000E1E7F0E00E94696D089511270E946066A1
:100210000E943360B091F405A091F50502E2E0E997
:10022000F1E0AE17BF070CF408E20093AB070E94A1
:10023000004301E00093B00701E10093AC0704E044
:10024000E4E1F4E00E94CF640E947464E4E0F4E02E
:1002500004E0019FE00DF11D0E94C5630E940F663E
:100260000E94435C0E94F96C002309F4CFCF0E94E6
:10027000C530083009F40895043029F41A95137034
:100280000E94176DC3CF023011F41395F8CF0130DF
:10029000B1F7103019F4AAE010D1B8CF113019F429
:1002A000A2E00BD1B3CF123089F0E5D0C1E0DCEF92
:1002B000EFEFF3E00E94884DA02DB12DDD27B09324
:1002C000F705A093F805D093F9056FC00091F405E8
:1002D000009340050091F505009341050091F60556
:1002E000009342056091400570914105809142055F
:1002F00002E00E94756D6093400570934105809304
:100300004205B0914005A0914105D0914205C4E15C
:10031000D0E0E4E0F1E00E94884DA02DB12DDD2772
:10032000B0934005A0934105D093420560914005EC
:10033000709141058091420502E00E947E6D6093BC
:1003400040057093410580934205309140054091EE
:100350004105509142056091F4057091F505809139
:10036000F605581B470B360B30934005409341056B
:10037000509342053091F7054091F8055091F905E9
:10038000609140057091410580914205580F471FCB
:10039000361F3093F7054093F8055093F905B09157
:1003A000F705A091F805D091F905E5E7F0E00E9486
:1003B000306D65CF557365204B4B322E31204F6623
:1003C000667365740000557365204B4B322E312ED9
:1003D00035204F666673657400004D6F64696679F9
:1003E00020566F6C746167652028312F31302900E9
:1003F00041646A757374204F666673657420566134
:100400006C75650000107F1900197F2200227F2B78
:10041000002B7F34B403C603DA03F003546865206D
:100420006261747465727920766F6C7461676500BF
:100430006F666673657420686173206265656E20FF
:10044000736574006163636F7264696E6720746FB3
:100450002073656C6563746564004B4B3220626F7A
:100460006172642076657273696F6E2E00001C04E1
:10047000300444045A04E5E7F0E00E94276DDD27CC
:10048000B093F705A093F805D093F905F091FA051C
:10049000E091FB05AE17BF0779F003E0009300067B
:1004A0000FEF0093010600E000930206B093FA05F7
:1004B000A093FB05D093FC050895BB27DD27B093DF
:1004C000F705A093F805D093F905E5E7F0E00E9461
:1004D000306D0E94606602E20093AB07EAE8FDEC33
:1004E0000E94466404E0EEE6F4E00E94CF640E94BD
:1004F000AA640E940F660E94226D08950091F6077B
:10050000002312F0889408950AE00093AB07E6E711
:10051000F5E00E94466400E00093AB07E0E8F5E0F8
:100520000E94E564B0910006A09101060E9400437C
:100530000E943F6400E00093AB07EEEBFDE30E94F6
:10054000E564A091F807C091F7070E947A4300E0A4
:100550000093AB0703E20093AC07ECECF7E80E94D2
:10056000E564B091C906A091CA060E9400430E94AA
:10057000926408940895424154542E204C4F4700F1
:100580004C6F67203A20000011272227C5D005E0D4
:10059000B02E1F932F933F930E94775D3F912F9131
:1005A0001F910091570800232AF0C4E10E94EB6CD0
:1005B000BA947AF702E3B02E0E94526608D20695EA
:1005C000C4E0C01BD4E000E00093AB0700E2DC17FE
:1005D00009F400E40E94EB640D2FE6EAF8E00E94C3
:1005E000C6640E943F64DA9572F701E00093AC079D
:1005F000A4E9B8E05DD05CD05BD05AD059D000E01F
:100600000093AB0709E30093AC07E0E9F8E00E9430
:10061000E564E8E9F6E004E0019FE00DF11D0E94C9
:10062000C5630E940F660091BC07023014F40E945B
:10063000435C0E94F96C083031F4222309F064D045
:100640000E94C5300895043041F4222309F05CD0A3
:1006500013951530E4F011271AC0023061F4A4E9B3
:10066000B8E00027A10FB01F0E94A804D395D03195
:1006700074F440D00CC0013071F4A4E9B8E0002754
:10068000A10FB01F0E94A804DA9509F033D00E9490
:10069000C5300E94176D7DCF3B0061093B09611297
:1006A0003B12611B3B1B61243B24612D53533D00D6
:1006B00000E30093AB070E945E64ECEAF6E00E9460
:1006C000E5640E94A804119626F40FE30E94EB64EF
:1006D0000EC000E3DA3014F0DA5003950E94EB64A8
:1006E0000EE20E94EB6400E30D0F0E94EB640E9497
:1006F0003F640895E8EDF8E00027ED0FF00F049156
:100700000C93302F2FEF0895E9EDF0E0E10FA32FC8
:100710000E943F6D22270895B5E0C4E9D8E0E9EDD5
:10072000F0E00E94396DA993BA95D9F70895A4E92C
:10073000B8E0C5E0E8940D91DFE0E8EEF8E015914F
:10074000011721F0DA95D9F768940895CA9599F7B9
:100750000895A091F007AA2321F4BB27A1E0DD278B
:100760000AC0A4E9B8E0DD27A00FBD1FDC91BB27BC
:10077000AA27DD0FAA1FB0934407A0934507D09383
:10078000460708951127222705D105E0B02E1F93B3
:100790002F933F930E94775D3F912F911F9100917E
:1007A000570800232AF0C4E10E94EB6CBA947AF750
:1007B00002E3B02E0E9452660AD10695C4E0C01B27
:1007C000D4E000E00093AB0700E2DC1709F400E49A
:1007D0000E94EB640D2FE6EAF8E00E94C6640E94D6
:1007E0003F64DA9572F701E00093AC07AAE8B8E03D
:1007F00083D082D081D080D07FD000E00093AB073F
:1008000009E30093AC07E0E9F8E00E94E564E0EB5F
:10081000F8E004E0019FE00DF11D0E94C5630E9415
:100820000F660091BC07023014F40E94435C0E94E2
:10083000F96C083031F4222309F0A4D00E94C530AD
:100840000895043041F4222309F09CD013951A3006
:10085000D4F0112718C0023059F4AAE8B8E00027F4
:10086000A10FB01F75D0D395D0316CF481D00BC0DF
:10087000013069F4AAE8B8E00027A10FB01F68D0E2
:10088000DA9509F075D00E94C5300E94176D7FCFB0
:100890004241434B204E455854202020494E43208E
:1008A000204445430000CAD0B8D0BCD0C4D0D2D078
:1008B0003B005B095F007F093B095B125F097F1208
:1008C0003B125B1B5F127F1B3B1B5B245F1B7F2468
:1008D0003B245B2D5F247F2D000D1A2734404D5A99
:1008E0006774808D9AA7B4C08074675A4D408D9A02
:1008F000A7B4C034271A0D0000E30093AB070E9491
:100900005E6400E50E94EB640AD000E60093AB074A
:1009100009E40E94EB6403D00E943F6408950DE354
:100920000E94EB6415D0119626F40FE30E94EB644D
:10093000089500E3DA3014F0DA5003950E94EB6476
:100940000EE20E94EB6400E30D0F0E94EB64089539
:10095000CC91CC2351F0DD27E8EDF8E0E894059147
:100960000C1729F0D395D031D4F3DAE068940895C8
:10097000E8EDF8E00027ED0FF00F04910C93302F15
:100980002FEF0895EFECF0E0E10FA32F0E943F6DF1
:1009900022270895BAE0CAE8D8E0EFECF0E00E9420
:1009A000396DA993BA95D9F70895AAE8B8E0CAE0D5
:1009B000E8940D91DFE0E8EEF8E01591011721F0E1
:1009C000DA95D9F768940895CA9599F70895B09182
:1009D0005205A0915305D0915405E8E7F1E004E0F9
:1009E000AE1BBF0B12F00A95FBCF00230AF40027C1
:1009F000AAE8B8E0000FDD27A00FBD1FDD91CC9164
:100A0000BB27AA27DD0FAA1FB0933E07A0933F077D
:100A1000D0934007AA27DC2FDD0FAA1FB093410710
:100A2000A0934207D09343070895A4E6B0E00E9444
:100A3000E66C0E9440060E9473060E944C330E949E
:100A40000F660E9441660E940F660E94AB3A00E06A
:100A50000093B20700E00093B30700E00093B407EF
:100A600000E00093B50700E00093BD0707E00093A6
:100A7000FA0500ED0093FB0500E00093FC0501E0A2
:100A800000930B070EE800930C0700E000930D079E
:100A9000002700932308009324080093250800935F
:100AA00027080093E8070093F5070093F107AFEAE2
:100AB000A0930008A2E1A0937B08A2E0A093010804
:100AC000A1E0A0930E08A09303080093EE07009303
:100AD000EF070093560800935708009328080093E7
:100AE000790800935808E8E5F8E0E0937708F09378
:100AF0007808E4E7F8E0E0937508F093760802E000
:100B000000937D0800E100931F080E9412620E947A
:100B10006B3E0E94C2190091F907002312F40C9455
:100B2000CF197894E4E7F0E00E945F6D002351F064
:100B30000E94293A03B1009502950F7061F00E945E
:100B40004B3909C00FEF009316080E94F96C08306A
:100B500011F40E9453330E94C94606E006BB0E946E
:100B6000F7570E94F9060E94F4070E94FF070E94AF
:100B7000CB450E9425320E9444340E947F230E946C
:100B8000E8500E94B14F0E9465170E94A62F0E9454
:100B90006B310E945C580090EA071090EB0701242B
:100BA0000092130800911308002332F40E94EE31E2
:100BB0000091EA070093EB070091F30700232AF462
:100BC00000270093F3070E9404420091EA070023E4
:100BD00032F203B1009502950F7039F400270093AB
:100BE000160800E000931008BACF00911008039592
:100BF0000093100800911008023309F0B0CF009163
:100C00001608002372F300E000936F000E94F96C55
:100C10000F7039F3013061F0083099F0C02F0E9455
:100C2000C5300091F4070023B2F40E94DB2A05C00E
:100C30000E94C5300E942B1F90F40FEF00931608FE
:100C40008ACF0E94C5300E94421F28F00091F6070B
:100C500000950093F6070FEF0093160880CF0091E0
:100C6000F4070023C2F729982A980E94EF2A0E94CD
:100C7000645A0E948E060E94785A0E94052BDDCF8E
:100C800002E301B90FE004B90CEF07B90EEF0AB99E
:100C90000FEF00937E0000EF05B903E008B90DE007
:100CA0000BB900E00093800002E00093810000E0B7
:100CB000009382000091B9000C7F0093B90001E11C
:100CC0000093B8005D9A5C9A5E982B9A299AA4EFDB
:100CD000B1E00E94E66C2B9829985E9AA4E6B0E0F9
:100CE0000E94E66C089502E00093C0000093C800E3
:100CF00000270093C5000093CD0009E00093C400D5
:100D00000093CC0000E90093C10008E00093C90003
:100D100006E00093C2000093CA000895AA27A0939A
:100D2000CE00C6E6DDE0A091B307B091B20704E1C2
:100D30000E94DB30C093B307D093B20708F0089548
:100D4000AA0FEEE8FDE0EA0F0027F01FA591B4918D
:100D5000FD0109950E94C5300E9441660E940F6600
:100D60000E94176DDECF56CE64CE6ECE82CE90CE70
:100D70009ECEAECEBECEE0CEF2CE02CF26CF3ACFC2
:100D800056CF62CF74CF82CF92CFA2CFB6CFC6203C
:100D9000E04CD936B4405F3F124012411E167A1A19
:100DA000E41A5B33100AF53C435F63378C29311B2F
:100DB0002F3A702FEC32FFB6FF93EF93E090C6000E
:100DC000E0917708F0917808E192E09075089091B1
:100DD0007608EE15F90729F49FEF90937908E8E576
:100DE000F8E0E0937708F0937808EF91FF91FFBE69
:100DF0001895AA27A093CE00002700935708F894CF
:100E0000B0917908A0937908C0907708D0907808BD
:100E10007894BB2329F4009156080023C2F42FC014
:100E2000E8E5F8E0CE16DF0639F40081003F21F452
:100E300000917308003061F00027F894009358087F
:100E4000E8E5F8E0E0937708F09378087894A8C094
:100E50000FEF00935608AAE5B8E01CE0E0E3F8E0E5
:100E6000DD91CD91C193D1931A95D1F70D91009356
:100E70007B080FEF00935708002700932808009184
:100E80007B0802950695069503700093BD070091B7
:100E9000590800937A08087F31F000911F08006418
:100EA00000931F0880C000911F080F7B00931F084C
:100EB000E0E3F8E0DD27A191B191B0935205A09352
:100EC0005305D093540500270093ED07AD17BD07D8
:100ED00019F40FEF0093ED07A191B191B0934C0578
:100EE000A0934D05D0934E05A191B191B0934F05BC
:100EF000A0935005D0935105A191B191B0935505A0
:100F0000A0935605D0935705A191B191B0935B057D
:100F1000A0935C05D0935D05A191B191B0935E055E
:100F2000A0935F05D0936005A0917B08A770A09364
:100F30000108A0917B08A295A370A0930E08A09130
:100F40007B080FEFA3FF002700932708B0914C0503
:100F5000A0914D05D0914E050E94EB5EC093EE0727
:100F6000B0914F05A0915005D09151050E94EB5EC4
:100F7000C093EF070091280803950A3F88F4009377
:100F80002808A0917D08AA9541F40FEF0093580816
:100F9000009373080E94AA09A2E0A0937D08089517
:100FA0000027009356080091EA07002342F40091BD
:100FB0001F08036000931F080FEF0093FE07E2E590
:100FC000F5E00027A4E20193AA95E9F70FEF00935B
:100FD000ED0700910108023031F002E000930108B2
:100FE0000FEF00930208CDCF0091560800950071D5
:100FF000A0911F08AF7E0A2B00931F08089500914F
:10100000BD070230E9F4009156080023CAF40091AC
:101010007A08087041F000911F08036000931F08D0
:101020000FEF0093FE07C0917A080C2F01700A950C
:1010300000950093FE07C695017011F02898089559
:10104000289A08950091BC07023011F40E940F10F5
:101050000091560800231AF00E945909089505E0EE
:10106000B02E0E94775D0091570800232AF0C4E15A
:101070000E94EB6CBA94AAF702E3B02E0E944A5C7D
:101080000E94526605E0E4E4F1ED0E94CF6401E0C5
:101090000093AC07B0914C05A0914D05D0914E0541
:1010A000EEECF7EBCFEF0E94035CB0914F05A091FF
:1010B0005005D0915105E4EDF7EBCFEF0E94035CB2
:1010C0000E94315CB0915205A0915305D091540516
:1010D0000E94FD6305E50093AB070091ED07002337
:1010E00012F4AA2708C0EAE5F0E00E94405C14F47C
:1010F000A1E001C0A2E0EAEDF7EB0E94285CB0910C
:101100005505A0915605D0915705E0EEF7EBCFEFCE
:101110000E94035C0E94315CB0915805A091590572
:10112000D0915A050E94FD6305E50093AB0700913D
:101130000108E4E2F1ED0E94C66400E00093AB0711
:1011400009E30093AC07E6E1FEEC0E94E5640E942F
:101150000F660E94F96C083009F40895043019F400
:101160000E94C53001D07DCF05E0B02E0E94775D92
:101170000091BC07023011F40E940F100091570833
:1011800000232AF0C4E10E94EB6CBA947AF702E3E0
:10119000B02E0E94AA0D1091610520916205309138
:1011A00063054091400550914105609142050E94C0
:1011B000846D7093610580936205209263050E949F
:1011C0005266BB270E94F35B01E00093AC07B0912D
:1011D0005B05A0915C05D0915D05E8ECF7EBCFEFE6
:1011E0000E94035CB0915E05A0915F05D0916005FF
:1011F000E8ECF7EBCFEF0E94035C0E94315CB0910A
:101200006105A0916205D09163050E94FD6305E52B
:101210000093AB0700910E08EEE3F1ED0E94C66467
:101220000091BC07023079F4A0915108E2E6F2E1A6
:10123000CAE6D2E11ED0A0915208E6E6F2E1CEE67F
:10124000D2E10E9439090E9492640E940F660E94B6
:10125000F96C083029F40E94C5300E94176D08957A
:1012600085CF4447310044473200E8CFFECFE8CF76
:10127000ECCFCF93DF93AF9300E00093AB070E94D6
:101280003F640E94E56400E30093AB070E945E6444
:1012900009E30093AB0700E3AF910A0F0E94EB64F0
:1012A00005E50093AB070A2FFF91EF910E94C664FA
:1012B00008950E94606606E10093AB07E0E0F3E169
:1012C0000E94466400E00093AB070091BC07023027
:1012D00019F4EAE1F3E102C0E8E0F3E10E94E56419
:1012E0000E943F6402E0E0E5F3E10E94CF640E94C7
:1012F00092640E940F660E941B6D0830E1F708950A
:101300004E4F204441544100506C65617365207319
:101310007570706C792053617400506C65617365F1
:1013200020737570706C7920532E42757300646160
:10133000746120746F20746865207468726F7474AF
:101340006C650000696E7075742070696E2E000007
:101350002E134413B0911D08A0911C08AB2B03B1B0
:1013600002950170A023B091FC070091FB070B2BA5
:1013700000950270A02BB470AB2B0091FB07087096
:10138000A02B0091EA070071A02BA064A093CE00CF
:101390000895A02FAF70A066A093CE00089541637A
:1013A0006365737320506F727420457870616E644A
:1013B00065722E004E6F20726573706F6E736520BC
:1013C00066726F6D20506F727400457870616E6444
:1013D00065722120436865636B20746865007769D6
:1013E00072696E6720616E64207472792061676132
:1013F000696E2E00506F727420457870616E64655E
:1014000072206163636573730000656E6465642EAA
:10141000000000007F3FB413CA13DE13F4130A1454
:1014200000918608002329F0E4EFFEE90E94804F36
:101430000895EEE9F3E10E948966013009F008950C
:10144000E3E04CD001E0A5DFA8ECB0E00E94E66C40
:1014500000917908002362F0EA9599F70E944E64A2
:1014600003E0E6E1F4E123C00091790800235AF497
:1014700035D0E2E1F4E10E94C5630E940F660E944C
:10148000F96C87DFF1CFE0E0F1E00191003FB9F7BF
:1014900001910F3FA1F70E94606608E20093AB073D
:1014A000E0E9FDEC0E94466402E0ECE1F4E10E9418
:1014B000CF640E94AA640E940F660E94226DF89475
:1014C000E8E5F8E0E0937708F0937808E4E7F8E0DF
:1014D000E0937508F093760878940895AA27F89415
:1014E000A0937908A0E0B1E0A0937708B0937808C2
:1014F000A0E0B5E0A0937508B093760878940895BD
:10150000A4E6B0E00E94E66C0E94EA0B0E944C3315
:101510000E940F660E9441660E940F660E94AB3ACD
:1015200000E00093B20700E00093B30700E00093EF
:10153000B40700E00093B50707E00093FA0500ED5B
:101540000093FB0500E00093FC0501E000930B070E
:101550000EE800930C0700E000930D0700270093AE
:10156000230800932408009325080093270800937C
:10157000E8070093F5070093F107AFEAA09300088E
:10158000A2E0A0930108A1E0A0930E08A093030895
:101590000093EE070093EF070093300800933108A3
:1015A0000093320800933308009334080093350801
:1015B00000933608009337080093380800933908E1
:1015C00000933A0800933B0800933C0800933D08C1
:1015D00000933E0800933F08009356080093790853
:1015E0000093280800932B080093290800934C05CA
:1015F00000934D0500934E0500934F050093500551
:101600000093510500935205009353050093540530
:10161000009358050093590500935A0500935B0504
:1016200000935C0500935D0500935E0500935F05E4
:1016300000936005009361050093620500936305C4
:10164000E0E3F8E0E0932E08F0932F080FEF00930B
:10165000570800E100931F080E9412620E946B3E2F
:101660000E94C2190091F907002312F40C94CF19BB
:101670007894E4E7F0E00E945F6D002351F00E944F
:10168000293A03B1009502950F7089F00E944B39F9
:101690000EC00FEF009316080E94F96C083011F489
:1016A0000E945333013019F40FEF0093F5070E94A5
:1016B000C94606E006BB0E94F7570E94B70C0E947D
:1016C000DC0D0E94CB450E9425320E9444340E94CA
:1016D0007F230E94E8500E94B14F0E9465170E942C
:1016E000A62F0E946B310E945C580090EA07109070
:1016F000EB0701240092130800911308002332F431
:101700000E94EE310091EA070093EB070091F30786
:1017100000232AF400270093F3070E94044200915B
:10172000EA07002342F203B1009502950F7039F4E5
:1017300000270093160800E000931008BCCF00912A
:10174000100803950093100800911008023309F067
:10175000B2CF00911608002372F300E000936F00EF
:101760000E94F96C0F7039F3013061F0083099F084
:10177000C02F0E94C5300091F4070023B2F40E94EC
:10178000DB2A05C00E94C5300E942B1F90F40FEF8A
:10179000009316088CCF0E94C5300E94421F28F08B
:1017A0000091F60700950093F6070FEF00931608D7
:1017B00082CF0091F4070023C2F729982A980E944B
:1017C000EF2A0E94645A0E94230C0E94785A0E94B9
:1017D000052BDDCF02E301B90EE004B90CEF07B928
:1017E00002EF0AB90FEF00937E0001EF05B903E0A5
:1017F00008B90DE00BB900E00093800002E000930F
:10180000810000E00093820008E00093680001E09E
:10181000009373000091B9000C7F0093B90001E1BF
:101820000093B8005D9A5C9A5E982B9A299AA4EF6F
:10183000B1E00E94E66C2B9829985E9AA4E6B0E08D
:101840000E94E66C0895CAE8D8E1A091B307B09170
:10185000B20704E10E94DB30C093B307D093B20714
:1018600008F00895AA0FE2EBF8E1EA0F0027F01F55
:10187000A591B491FD0109950E94C5300E94416671
:101880000E940F660E94176DDECF56CE64CE6ECEDC
:1018900082CE90CE9ECEAECEBECEE0CEF2CE02CFE7
:1018A0003ACF48CF56CF62CF74CF82CF92CFA2CF5C
:1018B000B6CFC620E04CD936B4405F3F124012414B
:1018C0001E167A1AE41A5B33F53CBE5A435F63373F
:1018D0008C29311B2F3A702FEC32AF93BF93EF93CB
:1018E000FF93EE24A0918400B0918500E0912C0834
:1018F000F0912D08A0932C08B0932D08AE1BBF0BC0
:101900001AF4B095A195BF4FEAE6F8E1AE17BF070C
:1019100088F0E0E3F8E090912B08E0922B08909398
:10192000290894300CF419C09FEF90937908E09245
:10193000280813C090912B08939590932B08E09161
:101940002E08F0912F08A193B193A0E4B8E0EA1714
:10195000FB0718F011F0E0E4F8E0E0932E08F093B4
:101960002F08FF91EF91BF91AF91FFBE18950091A5
:101970007C080A951AF000937C080895CC24F8940A
:10198000D0907908C09279087894DD2011F0D09237
:101990005608009048080E94B35E0E94BE5E0E94F6
:1019A000D95EDD27B0934C05A0934D05D0934E052D
:1019B0000E94EB5EC093EE07009049080E94B35E60
:1019C0000E94BE5E0E94D95EDD27B0934F05A093B2
:1019D0005005D09351050E94EB5EC093EF07009035
:1019E0004A080E94B35E00270093ED070E94D35E71
:1019F000EBE3FBE0AE1BBF0BE0E0F0E0AE17BF0790
:101A00000CF405C0E5E3FCE0AE17BF072CF0A0E046
:101A1000B0E00FEF0093ED07DD27B0935205A093E0
:101A20005305D093540500904B080E94B35E0E946A
:101A3000BE5E0E94D95EDD27B0935505A093560582
:101A4000D093570500904C080E94B35E0E94BE5E82
:101A5000CC27E8EAFDEFAE17BF079CF0C395E8E39B
:101A6000FFEFAE17BF076CF0C395E8ECF0E0AE17E0
:101A7000BF073CF0C395E8E5F2E0AE17BF070CF0F6
:101A8000C395C0930108DD27B0935805A09359056D
:101A9000D0935A0500904D080E94B35E0E94BE5E2E
:101AA000DD27B0935B05A0935C05D0935D050090A6
:101AB0004E080E94B35E0E94BE5EDD27B0935E05B5
:101AC000A0935F05D093600500904F080E94B35E1D
:101AD0000E94BE5ECC27E0E7FEEFAE17BF073CF0EA
:101AE000C395E0E9F1E0AE17BF070CF0C395C093D2
:101AF0000E08DD27B0936105A0936205D0936305BE
:101B000000915608002322F510C000932808009188
:101B1000EA0700234AF400912908A0912A080A172D
:101B200019F0A4E00E94141F08950091280803955D
:101B3000A091D7070A1748F30091EA07002342F45F
:101B400000911F08036000931F080FEF0093FE072A
:101B50000C94B91100E00093400500E000934105AA
:101B600009E10093420510915B0520915C053091DD
:101B70005D054091400550914105609142050E94EC
:101B8000846D70935B0580935C0520925D051091D8
:101B90005E0520915F0530916005409140055091B0
:101BA0004105609142050E94846D70935E058093AB
:101BB0005F05209260050895009156080095007118
:101BC000A0911F08AF7E0A2B00931F0808954E4F67
:101BD000205349474E414C00506C6561736520733A
:101BE0007570706C792061204350504D0000285072
:101BF000504D29207369676E616C20746F20746882
:101C000065007468726F74746C6520696E707574A9
:101C10002070696E2E00D81BEE1B021C0E946066AD
:101C20000AE00093AB07EEECFBE10E94466403E0A0
:101C3000E6E1FCE10E94CF640E9492640E940F667C
:101C40000E941B6D0830E1F70895A4E6B0E00E9401
:101C5000E66C0E94750F0E944C330E940F660E9432
:101C600041660E940F660E94AB3A00E00093B20703
:101C700000E00093B30700E00093B40700E0009396
:101C8000B50707E00093FA0500ED0093FB0500E0BF
:101C90000093FC0501E000930B070EE800930C078E
:101CA00000E000930D070027009323080093240809
:101CB00000932508009327080093E8070093F50791
:101CC0000093F107AFEAA0930008A2E0A0930108F7
:101CD000A1E0A0930E08A09303080093EE070093E1
:101CE000EF070093560800935708009328080093C5
:101CF0005108009352080093530800937908009309
:101D00005808E8E5F8E0E0937708F0937808E1E711
:101D1000F8E0E0937508F09376080093300800939C
:101D2000310800933208009333080093340800937D
:101D3000350800933608009337080093380800935D
:101D4000390800933A0800933B0800933C0800933D
:101D50003D0800933E0800933F0800E100931F08F0
:101D60000E9412620E946B3E0E94C2190091F90704
:101D7000002312F40C94CF197894E4E7F0E00E9469
:101D80005F6D002351F00E94293A03B1009502953E
:101D90000F7089F00E944B390EC00FEF00931608A8
:101DA0000E94F96C083011F40E945333013019F489
:101DB0000FEF0093F5070E94C94600911F080F7DA1
:101DC00000931F0806E006BB0E94F7570E945610BA
:101DD0000E940F100E94CB450E9425320E944310A2
:101DE0000E9444340E947F230E94E8500E94B14F19
:101DF0000E9465170E94A62F0E946B310E945C58BA
:101E00000090EA071090EB0701240092130800915C
:101E10001308002332F40E94EE310091EA07009388
:101E2000EB070091F30700232AF400270093F30740
:101E30000E9404420091EA07002332F203B10095A8
:101E400002950F7039F400270093160800E0009304
:101E50001008BACF00911008039500931008009164
:101E60001008023309F0B0CF00911608002372F376
:101E700000E000936F000E94F96C0F7039F301309D
:101E800061F0083099F0C02F0E94C5300091F4072E
:101E90000023B2F40E94DB2A05C00E94C5300E94D4
:101EA0002B1F90F40FEF0093160885CF0E94C530CA
:101EB0000E94421F28F00091F60700950093F60754
:101EC0000FEF0093160880CF0091F4070023C2F7AC
:101ED00029982A980E94EF2A0E94645A0E94C30FF0
:101EE0000E94785A0E94052BDDCF02E301B90FE072
:101EF00004B90CEF07B902EF0AB90FEF00937E00A7
:101F000000EF05B903E008B90DE00BB900E000935C
:101F1000800002E00093810000E0009382000091C5
:101F2000C000007819F00091C600F9CF02E00093DC
:101F3000C00000270093C50008E10093C40000E141
:101F40000093C1000EE20093C2000091C10000683E
:101F50000093C1000091B9000C7F0093B90001E12A
:101F60000093B8005D9A5C9A5E982B9A299AA4EF28
:101F7000B1E00E94E66C2B9829985E9AA4E6B0E046
:101F80000E94E66C0895CAECDFE1A091B307B0911E
:101F9000B20705E10E94DB30C093B307D093B207CC
:101FA00008F00895AA0FE4EFFFE1EA0F0027F01F01
:101FB000A591B491FD0109950E94C5300E9441662A
:101FC0000E940F660E94176DDECF56CE64CE6ECE95
:101FD00082CE90CE9ECEAECEBECEE0CEF2CE02CFA0
:101FE00014CF3ACF48CF56CF62CF74CF82CF92CFA3
:101FF000A2CFB6CFC620E04CD936B4405F3F1240E6
:1020000012411E167A1AE41A5B331712F53C2208A5
:10201000435F63378C29311B2F3A702FEC32A0912C
:102020005008B0915608BB2331F400911F0800619D
:1020300000931F08089500911F080F7E00931F084A
:102040000A2F0170009351080A9500950093FE072E
:10205000A6950A2F017000935208A695A695A17027
:1020600089F0A093530800911F08006200931F0895
:102070000FEF0093FE070091EA0700231AF4A2E095
:102080000E94141F0895D0915208D0FBC0915408AB
:10209000C69528F400270EF40FEF0093F007C695BD
:1020A00020F416F428980895289A0895002700939C
:1020B0005708AA27F894B0917908A0937908C0909E
:1020C0007708D09078087894BB2329F400915608BB
:1020D0000023F2F49CC0E8E5F8E0CE16DF0661F4D8
:1020E00000810F3049F4E0E7F8E00081002389F037
:1020F00000810F7C043069F00027F89400935808A1
:10210000E8E5F8E0E0937708F093780878947FC0EA
:1021100030C10FEF009356083197008100935008AB
:102120000FEF00935708002700932808A091590843
:10213000B0915A08B770A0933008B0933108A091BD
:102140005A08B0915B08B795A795B795A795B7952D
:10215000A795B770A0933208B0933308D0915B086D
:10216000A0915C08B0915D08DD1FAA1FBB1FDD1F99
:10217000AA1FBB1FB770A0933408B0933508A09175
:102180005D08B0915E08B795A795B770A093360823
:10219000B0933708A0915E08B0915F08B795A795F6
:1021A000B795A795B795A795B795A795B770A0933D
:1021B0003808B0933908D0915F08A0916008B091B9
:1021C0006108DD1FAA1FBB1FB770A0933A08B09328
:1021D0003B08A0916108B0916208B795A795B795A3
:1021E000A795B770A0933C08B0933D08A0916208F2
:1021F000B0916308B695A795A295B2950B2F007F75
:10220000AF70A02BB770A0933E08B0933F0800902A
:102210004808F8D001D10E94D95EB0934C05A09334
:102220004D05D0934E050E94EB5EC093EE070090E3
:102230004908E8D0F1D00E94D95EB0934F05A09331
:102240005005D09351050E94EB5EC093EF070090BC
:102250004A08D8D000270093ED07E0E9F1E0AE1B73
:10226000BF0BDED0E0E0F0E0AE17BF072CF4A0E03B
:10227000B0E00FEF0093ED07B0935205A093530524
:10228000D093540500904B08BDD0C6D00E94D95EB3
:10229000B0935505A0935605D093570500904C0870
:1022A000B1D0BAD0B0935805A0935905D0935A0530
:1022B000CC27E8EAFDEFAE17BF079CF0C395E8E333
:1022C000FFEFAE17BF076CF0C395E8ECF0E0AE1778
:1022D000BF073CF0C395E8E5F2E0AE17BF070CF08E
:1022E000C395C093010800904D088CD095D0B09351
:1022F0005B05A0935C05D0935D0500904E0882D0ED
:102300008BD0B0935E05A0935F05D09360050090DD
:102310004F0878D081D0B0936105A0936205D09327
:102320006305CC27E0E7FEEFAE17BF073CF0C3958F
:10233000E0E9F1E0AE17BF070CF0C395C0930E08BB
:10234000009156080023AAF403C0009328080895BA
:102350000091280803950A3FC0F30091EA07002383
:1023600042F400911F08036000931F080FEF0093D1
:10237000FE0700270093560800E000934C050093E9
:102380004D0500934E0500934F05009350050093B3
:102390005105009352050093530500935405009393
:1023A0005505009356050093570500935805009373
:1023B000590500935A0500935B0500935C05009353
:1023C0005D0500935E0500935F0500936005009333
:1023D000610500936205009363050FEF0093ED071D
:1023E00000910108023031F002E0009301080FEF84
:1023F000009302080091EA0700231AF4A1E00E946A
:10240000141F0895E0E3F8E002E0009DE00DF11DE7
:10241000A191B081DD270895E0E0F4E0AE1BBF0B91
:10242000EA2FFB2FF595E795AE0FBF1F08951127F3
:1024300064D03091540824E50E94526602E0E2ED37
:10244000F4E20E94CF6401E00093AC07C09154080D
:1024500046D045D00E948164E6EDF4E204E0019F9D
:10246000E00DF11D0E94C5630E940F660E941B6D66
:10247000083051F400915408031729F0EEECF0E015
:10248000A02F0E943F6D0895043019F41A95117021
:10249000D3CF023011F41395FACF013059F4012F44
:1024A000AA270894AA1F0A95EAF7009154080A2758
:1024B00000935408C1CF4D6F746F72205370696ED2
:1024C00000004469676974616C204F75747075749D
:1024D0000000B624C2245F0073095F0973122093C1
:1024E000AB070E945E640C2F0170EAE0F1ED0E94E0
:1024F000C6640E943F64C6950895EEECF0E00E9429
:102500005D6D0093540808950027009316080E94FB
:10251000CB130E944C330E940F660E9441660E94BA
:102520000F660E94AB3A00E00093B20700E0009310
:10253000B30700E00093B40700E00093B50707E09D
:102540000093FA0500ED0093FB0500E00093FC0505
:1025500001E000930B070EE800930C0700E00093E6
:102560000D070027009323080093240800932508F3
:10257000009327080093E8070093F5070093F107FD
:10258000AFEAA0930008A2E0A0930108A1E0A09305
:102590000E08A09303080093EE070093EF07009343
:1025A0005608009357080093280800937908E8E537
:1025B000F8E0E0937708F0937808E8E6F8E0E09335
:1025C0007508F09376080093300800933108009363
:1025D00032080093330800933408009335080093C1
:1025E00036080093370800933808009339080093A1
:1025F0003A0800933B0800933C0800933D0800E133
:1026000000931F080E9412620E946B3E0E941514E4
:102610000E94C2190091F907002312F40C94CF19FB
:102620007894E4E7F0E00E945F6D002371F00E946F
:10263000293A009116080023B2F003B100950295E3
:102640000F7089F00E944B390EC00FEF00931608EF
:102650000E94F96C083011F40E945333013019F4D0
:102660000FEF0093F5070E94C94600911F080F7DE8
:1026700000931F0806E006BB0E94F7570E948514CE
:102680000E9413160E94CB450E9425320E944434BA
:102690000E947F230E94E8500E94B14F0E9465175C
:1026A0000E94A62F0E946B310E945C580090EA079E
:1026B0001090EB07012400921308009113080023E7
:1026C00032F40E94EE310091EA070093EB0700918B
:1026D000F30700232AF400270093F3070E94044223
:1026E0000091EA07002342F203B1009502950F70B2
:1026F00039F400270093160800E000931008BCCFBF
:1027000000911008039500931008009110080233FF
:1027100009F0B2CF00911608002372F300E0009395
:102720006F000E94F96C0F7039F3013061F00830CE
:1027300099F0C02F0E94C5300091F4070023B2F435
:102740000E94DB2A05C00E94C5300E942B1F90F416
:102750000FEF0093160887CF0E94C5300E94421FDA
:1027600028F00091F60700950093F6070FEF00930D
:10277000160882CF0091F4070023C2F729982A98FF
:102780000E94EF2A0E94645A0E9424140E94785AE0
:102790000E94052BDDCF02E301B90EE004B90CEF76
:1027A00007B902EF0AB90FEF00937E0001EF05B9F8
:1027B00003E008B90DE00BB9ACE3B0E00E94E66CB1
:1027C0000E94F96C063079F4A3E00091BC07043054
:1027D00009F4A7E003EF0AB90E946E1402EF0AB9E8
:1027E0000FEF0093160800E00093800002E00093D2
:1027F000810000E0009382000091B9000C7F0093FB
:10280000B90001E10093B8005D9A5C9A5E982B9A3A
:10281000299AA4EFB1E00E94E66C2B9829985E9A61
:10282000A4E6B0E00E94E66C089500270093C00083
:102830000093C5000AE00093C40000E90093C100C2
:1028400006E00093C2000895CCE8D8E2A091B30757
:10285000B091B20704E10E94DB30C093B307D0937C
:10286000B20708F00895AA0FE4EBF8E2EA0F002798
:10287000F01FA591B491FD0109950E94C5300E94F9
:1028800041660E940F660E94176DDECF56CE64CE61
:102890006ECE82CE90CE9ECEAECEBECEE0CEF2CE6C
:1028A00002CF3ACF48CF56CF62CF74CF82CF92CFEC
:1028B000A2CFB6CFC620E04CD936B4405F3F12401D
:1028C00012411E167A1AE41A5B33F53C2208435F64
:1028D00063378C29311B2F3A702FEC325898C6E79A
:1028E0000E947914589ACAE70E947914AA95B1F700
:1028F000089500C000C000C000C000C000C000C0FB
:1029000000C00000CA95A9F7089500270093570852
:1029100044270091BC070430F1F02CE133E002E0E1
:102920000093490500E000934A0500E000934B0541
:1029300000E00093400502E0009341050EEE009395
:10294000420500E0009343050DEC0093440500E0D0
:10295000009345051DC028E337E004E000934905D6
:1029600000E000934A0500E000934B0500E000936F
:10297000400501E00093410507E70093420501E0AF
:10298000009343050AE90093440500E000934505E0
:1029900030935508AA27F894B0917908A093790844
:1029A000C0907708D09078087894BB2329F40091E0
:1029B000560800236AF444C0E8E5F8E0CE16DF06C6
:1029C00041F0F894E0937708F0937808789438C051
:1029D000F0C00FEF00935608AAE5B8E012E0E0E37C
:1029E000F8E0DD91CD91DF3F79F04D2B0D2F06956D
:1029F000283309F406950E700395E00F08F4F3955B
:102A0000D323D0833197C0831395139510313CF3B2
:102A1000032F00954023421769F000911F080062C0
:102A200000931F080091EA0700231AF4A3E00E9414
:102A3000141FBFC00FEF009357080027009328080A
:102A4000002700933E0800933F0800904808B3D049
:102A5000BFD00E94D95EB0934C05A0934D05D09392
:102A60004E050E94EB5EC093EE0700904908A3D08C
:102A7000AFD00E94D95EB0934F05A0935005D0937C
:102A800051050E94EB5EC093EF0700904A0893D077
:102A900000270093ED07F0914305E0914405AE1B3C
:102AA000BF0BA0D0E0E0F0E0AE17BF072CF4A0E031
:102AB000B0E00FEF0093ED07B0935205A0935305DC
:102AC000D093540500904B0876D082D00E94D95EF6
:102AD000B0935505A0935605D093570500904C0828
:102AE0006AD076D0B0935805A0935905D0935A0573
:102AF000CC27E8EAFDEFAE17BF079CF0C395E8E3EB
:102B0000FFEFAE17BF076CF0C395E8ECF0E0AE172F
:102B1000BF073CF0C395E8E5F2E0AE17BF070CF045
:102B2000C395C093010800904D0845D051D0B09393
:102B30005B05A0935C05D0935D0500904E083BD0EB
:102B400047D0B0935E05A0935F05D09360050090D9
:102B50004F0831D03DD0B0936105A0936205D0936A
:102B60006305CC27E0E7FEEFAE17BF073CF0C39547
:102B7000E0E9F1E0AE17BF070CF0C395C0930E0873
:102B8000009156080023AAF403C000932808089572
:102B90000091280803950A3FC0F30091EA0700233B
:102BA00042F400911F08036000931F080FEF009389
:102BB000FE070C94B911E0E3F8E002E0009DE00D9F
:102BC000F11DA191B081DD2700915508B023089532
:102BD000AD17BD0709F40895F0914905E0914A0544
:102BE000AE1BBF0BB0934605A0934705D093480595
:102BF00010914605209147053091480540914005C8
:102C000050914105609142050E94846D7093460584
:102C10008093470520924805B0914605A09147054D
:102C2000D091480508950091560800950071A09133
:102C30001F08AF7E0A2B00931F08089511270E94DA
:102C4000734A0E94A94C0091D907007C19F0EAE66A
:102C5000FEE22BD10E94526605E0EEEBFDE20E94FF
:102C6000CF6401E00093AC0728E4E1EBF0E014D17D
:102C700013D112D111D12093AB070E945E64E9EB0E
:102C8000F0E00E94396D0093FA070170E4EDFDE277
:102C90000E94C66400E00093AB0709E30093AC0711
:102CA000E6E1FEEC0E94E564E0E2FEEC0E94E564F1
:102CB000EAEFFDE204E0019FE00DF11D0E94C56313
:102CC0000E940F660E941B6D083009F408950430BD
:102CD00011F422D0BFCF023029F4139515300CF037
:102CE0001127B8CF0130E9F7143051F4A091FA0759
:102CF000A095A093FA07E9EBF0E00E943F6DAACF00
:102D0000E1EBF0E002E0019FE00DF11DC8EDDCED2C
:102D1000A8E2B3E2B0D09ECF112724E50E9452660C
:102D200002E0E6EFFDE20E94CF6401E00093AC0711
:102D3000EAEBF0E0B1D0B0D00E948164EEE0FEE2B8
:102D400004E0019FE00DF11D0E94C5630E940F6623
:102D50000E941B6D083011F411270895043019F4F6
:102D60001A951170DBCF0230D9F30130D9F7EAEBB5
:102D7000F0E002E0019FE00DF11DC8E1DCEFA8EEFC
:102D8000B3E079D0CBCF526F6C6C204761696E0095
:102D9000526F6C6C204F6666736574005069746383
:102DA00068204761696E00005069746368204F664F
:102DB0006673657400004D6978696E670000862D42
:102DC000902D9C2DA82DB62D4E6F6E650000446988
:102DD00066660000C82DCE2D486F6D6520506F735C
:102DE00020526F6C6C00486F6D6520506F732050DF
:102DF000697463680000D82DE62D530073095309E8
:102E000073125312731B531B73245324732D5F00CF
:102E10007F095F097F124F75747075742074797023
:102E2000652069732073657420746F0045534320D7
:102E3000666F72204D3720616E642F6F72204D389F
:102E40002E00436865636B204D6978657220456488
:102E500069746F722E00456E64706F696E747320B2
:102E600069676E6F7265642E0000162E2C2E422E3E
:102E7000162E2C2E562EEF93FF93AF93BF930E94E6
:102E8000276DFF91EF910E94884DA02DB12DFF91EC
:102E9000EF910E94306D08952093AB070E945E640D
:102EA0000E94276D0E943E640895EF93FF930E9455
:102EB0004E6403E0FF91EF910E94CF640E94AA64E8
:102EC0000E940F660E94226D0895689400E00093AE
:102ED000400500934105009342053091170740914A
:102EE0001807509119076091400570914105809134
:102EF000420558174707360791F430911D07409156
:102F00001E0750911F076091400570914105809107
:102F1000420558174707360709F40895E8940091C9
:102F20002508002369F000E000935B0500935C0531
:102F300000935D0500935E0500935F0500936005B7
:102F400000910E08023029F500912C0700935B05D3
:102F500000912D0700935C0500912E0700935D05FD
:102F60000091290700935E0500912A0700935F05F1
:102F700000912B070093600500E000932607009363
:102F80002707009328070093230700932407009343
:102F9000250730915B0540915C0550915D0560917E
:102FA00020077091210780912207580F471F361F75
:102FB00030935B0540935C0550935D0530915E0551
:102FC00040915F055091600560911A0770911B0751
:102FD00080911C07580F471F361F30935E054093A2
:102FE0005F055093600503E00093400508EE0093F1
:102FF000410500E00093420530915B0540915C057E
:1030000050915D05609140057091410580914205A8
:10301000580F471F361F30935B0540935C05509354
:103020005D0530915E0540915F05509160056091AE
:1030300040057091410580914205580F471F361F8A
:1030400030935E0540935F055093600500E0009368
:10305000400502E00093410500E80093420510910D
:103060005B0520915C0530915D05409140055091D4
:103070004105609142050E94846D709332078093F0
:1030800033072092340710915E0520915F0530913F
:1030900060054091400550914105609142050E94B4
:1030A000846D70932F078093300720923107009131
:1030B0000E08013041F510910E0720910F07309155
:1030C00010074091170750911807609119070E9447
:1030D000846D709323078093240720922507109115
:1030E0001107209112073091130740911D0750914D
:1030F0001E0760911F070E94846D709326078093BE
:103100002707209228070EF0C5C00091FA07002378
:103110000AF09FC000912307009340050091240707
:103120000093410500912507009342053091230744
:103130004091240750912507609126077091270739
:1031400080912807581B470B360B30932307409379
:103150002407509325073091260740912707509167
:103160002807609140057091410580914205580FF4
:10317000471F361F30932607409327075093280791
:1031800000912F07009340050091300700934105FF
:10319000009131070093420530912F07409130078D
:1031A0005091310760913207709133078091340755
:1031B000581B470B360B30932F0740933007509323
:1031C00031073091320740913307509134076091B5
:1031D00040057091410580914205580F471F361FE9
:1031E00030933207409333075093340709E000933C
:1031F000400504EC0093410500E000934205309146
:103200002F07409130075091310760914005709130
:10321000410580914205580F471F361F30932F07F5
:103220004093300750933107309132074091330774
:10323000509134076091400570914105809142059D
:10324000581B470B360B309332074093330750938C
:10325000340730912307409124075091250760914E
:103260002F077091300780913107580F471F361F85
:10327000309387064093880650938906009187060D
:103280000093B706009188060093B806009189065E
:103290000093B906309126074091270750912807DF
:1032A000609132077091330780913407580F471FA0
:1032B000361F30938A0640938B0650938C060091FC
:1032C0008A060093BA0600918B060093BB06009114
:1032D0008C060093BC060895E7E7F0E00E945F6D5E
:1032E000102F0E9460660CE10093AB07EAE3F3E362
:1032F0000E94466403E0EEE7F3E30E94CF640AE233
:103300000093AB0709E30093AC07EEEFFDEC0E94DE
:10331000E5640E940F660E941B6D043011F40FEFEC
:1033200003C00230C1F70027011731F0E7E7F0E0F2
:103330000E94696D0C943A3D089547494D42414CB5
:103340000000557365207468697320626F61726450
:103350002061732061007374616E642D616C6F6E07
:10336000652028736572766F290067696D62616CEC
:1033700020636F6E74726F6C6C65723F0000423335
:1033800056336A33E7E7F0E00E945F6D0093F90778
:1033900008950027E7E7F0E00E94696D089500278F
:1033A0000093FB070093FC070093FD0778940FEF51
:1033B000009316080E94F96C083011F40E945333F0
:1033C0000E94C94606E006BB0E94F7570E94775D3F
:1033D0000E94E8500E94B14F0E9465170E94A62FDC
:1033E0000E946B310E945C5800E00093020700933A
:1033F0000307009304070091F30700232AF4002732
:103400000093F3070E94044203B1009502950F70E8
:1034100039F400270093160800E000931008D4CF79
:1034200000911008039500931008009110080233D2
:1034300009F0CACF00911608002372F300E0009350
:103440006F000E94F96C077039F3013049F0C02F0A
:103450000E94C5300E94DB2A0FEF00931608B0CF00
:103460000E94C53029980E94E5310E94EF2A0E94EF
:10347000645A0E94401A0E94785A0E94052BA0CFDD
:10348000C4ECD4E3A091B307B091B2070CE00E9462
:10349000DB30C093B307D093B20708F00895AA0FAA
:1034A000ECEDF4E3EA0F0027F01FA591B491FD01C4
:1034B00009950E94C5300E9441660E940F660E94D5
:1034C000176DDECF90CE9ECEAECEBECEE0CE3ACF42
:1034D00048CF56CF74CFCECEA2CFB6CF5F3F1240EB
:1034E00012411E167A1AF53C5E5B435F8C296C19FB
:1034F000702FEC3211270E94606600E10093AB0749
:10350000E6E7F5E30E94466404E0E0ECF5E30E94A0
:10351000CF640E946A64E2EDF9E704E0019FE00DE8
:10352000F11D0E94C5630E940F660E941B6D08304A
:1035300009F40895043019F41A951370DCCF0230A1
:1035400011F41395FACF0130B1F60E94176D1F9355
:10355000103019F40E949C1D0CC0113019F40E9407
:103560005E6207C0123019F40E945E4E02C00E94D3
:10357000051D1F91C0CF414456414E4345440000B4
:103580004368616E6E656C204D617070696E670096
:1035900053656E736F722053657474696E67730040
:1035A0004D6978657220456469746F720000426FDE
:1035B000617264204F7269656E746174696F6E0028
:1035C00080359035A035AE3511270E9460660CE13C
:1035D0000093AB07EAE3F6E30E94466402E0EEE5FF
:1035E000F6E30E94CF640E946A64E2EDF9E704E02A
:1035F000019FE00DF11D0E94C5630E940F660E94AD
:103600001B6D083009F40895043019F41A951170EF
:10361000DCCF023011F41395FACF0130B1F60E94DD
:10362000176D1F93103019F40E94C20304C01130AB
:1036300011F40E94C4021F91C8CF455850455254FE
:1036400000005450412053657474696E6773000024
:10365000545353412053657474696E677300423646
:10366000503611270E94606602E20093AB07E2EE3B
:10367000F6E30E94466403E0E4E2F7E30E94CF64CD
:103680000E946A64E2EDF9E704E0019FE00DF11D9C
:103690000E94C5630E940F660E941B6D083009F4EA
:1036A0000895043021F41A95EAF612E0DBCF0230D7
:1036B00029F413951330B4F21127D4CF013091F6C9
:1036C0000E94176D1F93103019F40E94951B07C0BC
:1036D000113019F40E946C1902C00E94AA681F914F
:1036E000C1CF455854524100436865636B204D6F0C
:1036F000746F72204F7574707574730047696D62D2
:10370000616C20436F6E74726F6C6C6572005753FE
:103710003238313220524742204C454420536574A0
:1037200075700000E836FC360E37EFEBF0E00E94D3
:103730005F6D00232AF0E0EFFEE90E94804F0895BC
:103740004AD108F408950E94784C0E94734A0E945E
:10375000A94C5091D907222711E00E94473F0E94AF
:10376000176D0E94785A00E00093D80700E000939C
:10377000D90701E00093DC0708E00093DB070FEFB7
:103780000093EA0700270093ED0700E00093EA06A4
:1037900001E00093EB0600E00093EC0606E006BBB8
:1037A00001E00093430500E90093440500E0009325
:1037B0004505052F012321F42395110FD0F75DC096
:1037C0000E94606604E30093AB0706E10093AC0738
:1037D0000DE40E94EB6400E32395020F0E94EB646A
:1037E000E4EBF7E80E94C5630E940F661F935F93A6
:1037F0002F930E94F75700915406009340050091C3
:10380000550600934105009156060093420541D0AC
:103810000E945C582F9130914305409144054150DE
:103820003040309343054093440511F700E0009386
:10383000430508EC0093440500E0009345052F93F1
:103840000E94F75700E00093400500934105009364
:1038500042051FD00E945C582F9130914305409142
:10386000440541503040309343054093440539F7B7
:103870005F911F91110F08F093CF00270093EA0783
:103880000FEF0093ED0790E090936F000E94645A51
:103890000895213069F40091400500937506009168
:1038A000410500937606009142050093770608953E
:1038B000223069F40091400500937806009141059B
:1038C000009379060091420500937A06089523300B
:1038D00069F40091400500937B0600914105009337
:1038E0007C060091420500937D060895243069F41A
:1038F0000091400500937E060091410500937F06EC
:1039000000914205009380060895253069F40091E6
:1039100040050093810600914105009382060091C5
:103920004205009383060895263069F4009140050E
:10393000009384060091410500938506009142059D
:10394000009386060895273069F40091400500939E
:103950008706009141050093880600914205009377
:10396000890608950091400500938A06009141055B
:1039700000938B060091420500938C0608954D6FCD
:10398000746F72732077696C6C207370696E206934
:103990006E0073657175656E6365204D31202D2055
:1039A0004D38000061667465722074686520636F2D
:1039B000756E74646F776E2E0000504C4541534510
:1039C000204245204341524546554C2100007E3956
:1039D0009239A439BA390E944E6400E00093AB07D3
:1039E00004E0EEECF9E30E94CF640E9492640E942E
:1039F000AA640E940F660E941B6D083011F408949F
:103A000008950130C1F78894089500918608002335
:103A100029F0E4EFFEE90E94804F0895E9E7F0E025
:103A20000E945F6D0370102F0E94606602E2009397
:103A3000AB0703E10093AC07ECECFAE30E94E5640A
:103A400004E00093B007E2EDFAE302E0019FE00D2D
:103A5000F11DA591C491A093AB07C093AC0705E0FD
:103A6000010F0E94EB6401E00093B0070E947464B0
:103A70000E940F660E941B6D083009F408950430FF
:103A800019F413951370D0CF023011F41A95FACFB0
:103A9000013051F61093B607012FE9E7F0E00E94DC
:103AA000696D0E94606602E20093AB07EAE8FDECF4
:103AB0000E94466404E0E0E3FBE30E94CF640E94BE
:103AC000AA640E940F660E94226DAECF46726F6E8E
:103AD000740038000014382670144D6F756E742011
:103AE000796F7572204B4B3220626F6172640000F7
:103AF000736F207468617420746865206F6E2D7315
:103B0000637265656E006172726F7720706F696EA7
:103B1000747320746F207468650066726F6E742011
:103B20006F6620796F7572206D6F64656C2E000072
:103B3000DA3AF03A063B1A3B11270091BC070530F0
:103B400029F4E8EFFEE90E94804F08950E94526632
:103B500005E0E4E4F1ED0E94CF6401E00093AC07DE
:103B6000BEE40E94F35B01E00093AC0720E3C8E4ED
:103B7000D8E00E94C44C88D087D086D085D084D02D
:103B800001E00093AC0726E67FD07ED07DD00E9476
:103B90008164EEEFFBE304E0019FE00DF11D0E9464
:103BA000C5630E940F660E941B6D083029F480D007
:103BB00010F455D0CBCF0895043019F41A9517702E
:103BC000C5CF023011F41395FACF0130B9F40E9439
:103BD000C44CBB27E10FFB1FEF93FF930E94396D8D
:103BE000AA95A770A395C1E0D0E0E8E0F0E00E94BC
:103BF000884DA02DFF91EF910E943F6DA7CF390016
:103C00004509390945123912451B391B4524392408
:103C1000452D6F007B096F097B126F127B1B436878
:103C2000616E6E656C206D617070696E672069737E
:103C30000000696E76616C69642E204475706C6951
:103C4000636174657300617265206E6F7420616CCE
:103C50006C6F7765642E00001E3C323C463C0E942F
:103C6000606602E20093AB07E4E8FDEC0E94466464
:103C700003E0E8E5FCE30E94CF640E94AA640E948E
:103C80000F660E94226D08952093AB070E945E6428
:103C90000E94396D0A950993087F31F00DE20E9468
:103CA000EB640E943F640895BB270E943E64089520
:103CB000C8E4D8E0EE27B8E00991A02FA87F59F416
:103CC0000894AA1F0A95EAF7EA2BBA95A9F7E09596
:103CD00011F48894089508940895EBE7F0E00E94A9
:103CE0005F6D002339F40091F50700230AF435C015
:103CF000889408951B9A102F163008F016E00AE0F9
:103D00000093AB07EEEAFDE30E94466400E00093F7
:103D1000AB07012F0A95ECE1FEE30E94C6640E9406
:103D20003F6400E00093AB07EEEBFDE30E94E56427
:103D3000ECE7F0E00E943B6DCA2F0E943B6D0E94B1
:103D40007A4300E60093AB0709E30093AC07E8EF82
:103D5000FDEC0E94E564089408950AE00093AB0727
:103D6000EEEAFDE30E94466400E00093AB07E6EC58
:103D7000FDE30E94E564EAE7F0E00E945F6D0170F8
:103D8000E2EEFDE30E94C66400E00093AB0709E3A6
:103D90000093AC07ECE3FEEC0E94E56400E60093C0
:103DA000AB07E8EBFDE30E94E564089408954552F3
:103DB000524F52204C4F470041424F5254005469D9
:103DC0006D653A2000005374617475733A200000E9
:103DD000454E41424C45440044495341424C4544C0
:103DE0000000D83DD03D4350504D2073796E632084
:103DF000776173206C6F737421004C6F6F70207447
:103E0000696D65206572726F72210000556E6B6E70
:103E10006F776E206572726F722100007288E88879
:103E20000689E63DFA3D0C3EEAE7F0E00E945F6D50
:103E3000002382F4EBE7F0E00E945F6D002351F471
:103E40000E94416DA09123080E94416DA091240819
:103E50000E94416D0895EBE7F0E00E945F6D002342
:103E600031F40091F50700233AF088940895002773
:103E7000EBE7F0E00E94696D00270093F5072B98AF
:103E80000894089588940091F50700235AF4EAE70E
:103E9000F0E00E945F6D00950E94696D002700931D
:103EA000F507089408950FEFEAE7F0E00E94696DC6
:103EB000D2DF0895A4E6B0E00E94E66C0E942F2FA6
:103EC0000E944C330E940F660E9441660E940F665A
:103ED0000E94AB3A00E00093B20700E00093B30702
:103EE00000E00093B40700E00093B50707E00093FB
:103EF000FA0500ED0093FB0500E00093FC0501E0EE
:103F000000930B070EE800930C0700E000930D07E9
:103F100000270093230800932408009325080093AA
:103F20001708009327080093E8070093F50700930C
:103F3000F107AFEAA0930008A2E0A0930108A1E076
:103F4000A0930E08A09303080093EE070093EF07D9
:103F5000009330080093310800933208009333082F
:103F6000009334080093350800933608009337080F
:103F7000009338080093390800933A0800933B08EF
:103F800000933C0800933D0800933E0800933F08CF
:103F90000093C8070093C90700934C0500934D0593
:103FA00000934E0500934F05009350050093510573
:103FB0000093520500935305009354050093580550
:103FC0000093590500935A0500935B0500935C0527
:103FD00000935D0500935E0500935F050093600507
:103FE000009361050093620500936305AAEFA09317
:103FF000CA07A093CB07A093CC07A093CD07A093AB
:10400000CE07A093CF07A093D007A093D1070FEFBF
:1040100000935708A0EFA0931F080E9412620E940D
:104020006B3E0E94C2190091F907002312F40C9410
:10403000CF197894E4E7F0E00E945F6D002351F01F
:104040000E94293A03B1009502950F7089F00E94F1
:104050004B390EC00FEF009316080E94F96C083020
:1040600011F40E945333013019F40FEF0093F50758
:104070000E94C94606E006BB0E94F7570E948A5D6F
:104080000E94CB450E9425320E9444340E94E85091
:104090000E94B14F0E9465170E94A62F0E946B31AB
:1040A0000E945C580090EA071090EB0701240092F0
:1040B000130800911308002332F40E94EE3100919E
:1040C000EA070093EB070091F30700232AF4002787
:1040D0000093F3070E9404420091EA07002362F272
:1040E00003B1009502950F7039F40027009316086C
:1040F00000E000931008C0CF0091100803950093D2
:10410000100800911008023309F0B6CF009116088C
:10411000002372F300E000936F000E94F96C0F70AF
:1041200039F3013061F0083099F0C02F0E94C5309A
:104130000091F4070023B2F40E94DB2A05C00E941C
:10414000C5300E942B1F90F40FEF0093160890CFFC
:104150000E94C5300E94421F28F00091F60700958A
:104160000093F6070FEF0093160886CF0091F4072F
:104170000023C2F729980E94EF2A0E94645A0E94E5
:10418000F95E0E94785A0E94052BDECF0E948B4A6E
:104190000E94714B0E94F74BAAD1B7D405E0B02E14
:1041A0000E94775D0091570800232AF0C4E10E9425
:1041B000EB6CBA94AAF702E3B02E00912508002315
:1041C00011F40E94AA0D10915B0520915C053091BD
:1041D0005D0540913B0750913C0760913D070E946F
:1041E000846D70934E0680934F0620925006109176
:1041F0005E0520915F053091600540913B0750912D
:104200003C0760913D070E94846D70935106809336
:1042100052062092530673D20E945266E8E2F3E4FB
:104220000E94E56400912508002359F003304CF406
:10423000A091E607AA2329F0E4E3F0ED0E94E564EB
:1042400004C0EEE0F1ED0E94C66400E00093AB070D
:104250000AE00093AC0700912508E2E7F3E40E942E
:10426000C664EEE4F3E4B0914E06A0914F06D091FF
:104270005006F3D000912508E0E8F3E40E94C664FC
:10428000E4E5F3E4B0915106A0915206D0915306B3
:10429000E4D0E6E3F3E40E94E56400912608ECE153
:1042A000F1ED0E94C66400E00093AB0709E30093C0
:1042B000AC07E6E9FDEC0E94E564E4E4F3E40E9467
:1042C000C5630E940F660091BC07023014F40E947F
:1042D000435C0E94F96C083009F40895043021F41D
:1042E0000E94C530CFD05CCF023039F452D10E9449
:1042F000C530A091250827D153CF013009F050CF08
:1043000000912508039507300CF00027023029F4AE
:10431000A091E607AA230AF40395009325080E94BA
:10432000C5300E94176D3CCF54756E696E67204D85
:104330006F64653A2000496E70757420526174652F
:10434000203A20004C007F095465737400004175C9
:104350007832000041757833000052204761696E61
:10436000000050205472696D000052205472696D33
:10437000000048436CD06CD06CD06CD062436CD0E1
:1043800048437CD07CD07CD008D16A435A434E4FFE
:104390005400506C656173652063656E74657220AE
:1043A000796F75722054580074756E696E6720635A
:1043B0006F6E74726F6C73206E6F772E00004120E9
:1043C00054756E696E67204D6F6465206D757374EA
:1043D0002062650073656C6563746564206669724C
:1043E00073742E009243A843BE43D44353455420D4
:1043F000494E5055542052415445000053656C6558
:10440000637420696E707574207261746520666FC4
:104410007200616C6C2074756E696E67206D6F64DC
:1044200065732E20557365004C4F5720666F7220C0
:1044300066696E652D74756E696E672E0000424167
:10444000434B20204C4F57204D454449554D204863
:1044500049474800FC43124428440091AB0700231D
:1044600009F408950FE20E94EB640E94E56402E4FF
:104470000093AB070E945E640E943E6400E00093DC
:10448000AB0708950E94526606E10093AB07ECEE7D
:10449000F3E40E94E5640DE00093AC0703E0E4E57B
:1044A000F4E40E94CF6400E00093AB0709E30093BB
:1044B000AC07EEE3F4E40E94E5640E940F660E94FC
:1044C0001B6D077089F0043011F4A1E008C00230C0
:1044D00011F4A2E004C0013009F0D4CFA3E0EDEC68
:1044E000F0E00E943F6D03D00E94176D0895EDEC3F
:1044F000F0E00E94396DA370AA2309F4A2E0A13074
:1045000051F400E000933B0700E000933C0706E213
:1045100000933D0715C0A23051F400E000933B0723
:1045200000E000933C0703E700933D0709C000E06B
:1045300000933B0700E000933C0700EC00933D072D
:10454000A093260808950E9460660AE00093AB07D6
:10455000AA2341F4EEE8F3E40E94E5640AE3009341
:10456000AB0703C002E20093AB07EAE8FDEC0E9450
:104570004664E4EEF3E4AA2311F4E8EEF3E402E087
:104580000E94CF640E94AA640E940F660E94226D5E
:10459000089500912508002309F40895B0914E066E
:1045A000A0914F06D09150060130C9F4B0933C065B
:1045B000A0933D06D0933E060027CC278BD0002742
:1045C000C2E0B0915106A0915206D0915306B0932B
:1045D0004506A0934606D09347067CD00895023046
:1045E000C9F401E0CC27B0933F06A0934006D093D6
:1045F000410670D001E0C2E0B0915106A091520690
:10460000D0915306B0934806A0934906D0934A062A
:1046100061D008950330C9F4B0934206A0934306D5
:10462000D093440602E0CC2755D002E0C2E0B0911E
:104630005106A0915206D0915306B0934B06A09319
:104640004C06D0934D0646D00895043059F4B093EB
:10465000C006A093C106D093C206E8E8F0E00E942D
:10466000306D08950530D9F4B093FC06A093FD0693
:10467000D093FE06EEE8F0E00E94306DB091510656
:10468000A0915206D0915306B093F906A093FA0672
:10469000D093FB06ECE8F0E00E94306D0895B093F3
:1046A0003807A0933907D0933A07E5EBF0E00E9472
:1046B000306DB0915106A0915206D0915306B0933F
:1046C0003507A0933607D0933707E1EBF0E00E945F
:1046D000306D0895E4E4F0E0000F000F000FE00FEC
:1046E0000027F01F0C2F000FE00F0027F01F0A2FEC
:1046F0000E94676D31960B2F0E94676D089500919F
:104700002508002309F408950E94AA0D10915B0565
:1047100020915C0530915D0540913B0750913C072D
:1047200060913D070E94846D70935B0580935C05EA
:1047300020925D0510915E0520915F053091600526
:1047400040913B0750913C0760913D070E94846D6A
:1047500070935E0580935F052092600500912508A7
:104760000130C1F500913C060093460500913D06DD
:104770000093470500913E060093480500914506C9
:1047800000934005009146060093410500914706BD
:104790000093420573D10E94D64800914E060093C3
:1047A000180600914F0600931906009150060093D9
:1047B0001A060091400500932A06009141050093D6
:1047C0002B060091420500932C060091E60700237A
:1047D000F2F008950230A1F500913F0600934605DE
:1047E000009140060093470500914106009348055B
:1047F0000091480600934005009149060093410549
:1048000000914A060093420539D10E94D648009192
:104810004E0600931B0600914F0600931C06009164
:10482000500600931D060091400500932D0600914F
:10483000410500932E060091420500932F0608952E
:104840000330A1F50091420600934605009143060E
:1048500000934705009144060093480500914B06DC
:104860000093400500914C060093410500914D06D0
:104870000093420503D10E94D64800914E06009352
:104880001E0600914F0600931F06009150060093EC
:1048900020060091400500933006009141050093E9
:1048A000310600914205009332060895043009F55F
:1048B0000091C006009346050091C106009347058C
:1048C0000091C20600934805D9D000E0009351063C
:1048D000009352060093530600914E060093BD06C6
:1048E00000914F060093BE06009150060093BF064C
:1048F0000895053009F061C03091F9064091FA063B
:104900005091FB0660915E0570915F058091600596
:10491000580F471F361F309351064093520650934D
:1049200053063091FC064091FD065091FE066091C1
:104930005B0570915C0580915D05581B470B360B3C
:1049400030934E0640934F065093500600914E060A
:104950000093F60600914F060093F706009150066B
:104960000093F806009151060093F3060091520659
:104970000093F406009153060093F5066091F60645
:104980007091F7068091F80602E00E94756D6093C1
:10499000F6067093F7068093F8066091F30670911F
:1049A000F4068091F50602E00E94756D6093F306AF
:1049B0007093F4068093F506089530913507409181
:1049C00036075091370760915E0570915F058091C1
:1049D0006005580F471F361F30935106409352060B
:1049E00050935306309138074091390750913A0758
:1049F00060915B0570915C0580915D05580F471FC4
:104A0000361F30934E0640934F0650935006009148
:104A10004E0600931D0700914F0600931E0700915C
:104A2000500600931F07009151060093170700914D
:104A300052060093180700915306009319076091DE
:104A40001D0770911E0780911F0704E00E94756D7D
:104A500060931D0770931E0780931F0760911707CF
:104A6000709118078091190704E00E94756D60939A
:104A7000170770931807809319070895309146051A
:104A8000409147055091480560915B0570915C0528
:104A900080915D05580F471F361F30934E06409397
:104AA0004F06509350063CF400E000934E060093EE
:104AB0004F060093500630914005409141055091BA
:104AC000420560915E0570915F0580916005580F09
:104AD000471F361F3093510640935206509353069A
:104AE0003CF400E0009351060093520600935306F5
:104AF0000091510600934005009152060093410534
:104B00000091530600934205089500912508023054
:104B100039F40091E60700231AF401E00093250818
:104B2000089500E000935106009352060093530647
:104B30000E94C9460E9477220E94052B0E94785A43
:104B40000FEF0093250800270093FC070093FD0753
:104B500000911708063014F00FEF01C000270093F2
:104B6000FB070E9460660091EA0700235AF402E204
:104B70000093AB0706E10093AC07E0E7F7E80E947B
:104B8000E5646FC00CE10093AB07E2EBFDE40E942B
:104B9000466400E00093AB0700911708043064F40A
:104BA000A091E607AA2341F0017000931708E4E3FF
:104BB000F0ED0E94E56404C0EAEEFDE40E94C664E4
:104BC00000E20E94EB6400911708E0E0FEE40E941E
:104BD000C6640E945E64C09117083ED10E94276D92
:104BE0000E943E6400E00093AB07E8E0F1ED0E9414
:104BF000AA440E94E56400911F08077FA091ED0779
:104C0000A0950A2B59F0009120080395017000939C
:104C1000200821F0EAEDFDE40E94C56300E0009366
:104C2000AB0703E20093AC07EAEBFDE40E94E56406
:104C3000B0915106A0915206D09153060E943E6455
:104C400000E00093AB07EAECFDE40E948E4300E035
:104C50000093AB0709E30093AC07ECEAFDEC0E947C
:104C6000E5640E940F660E94F7570E948A5D0E94C9
:104C7000CB4503D3FDD00E94E8500E94B14F0E9463
:104C800065170E94A62F0E946B310E945C5800900D
:104C9000EA071090EB070124009213080091130813
:104CA000002332F40E94EE310091EA070093EB07F3
:104CB0000091F307002322F400270093F30748CF65
:104CC0000091EA0700237AF203B1009502950F7074
:104CD00021F400E000931008C6CF0091100803955E
:104CE0000093100800911008023309F0BCCF0E9415
:104CF000F96C083051F400E000936F000093250830
:104D00000E94EF2A0E94645A0895043071F400E072
:104D100000936F000E94EF2A0E94645A0E94422270
:104D20000E94052B0E94785A13CF023089F4A0917B
:104D30001708A395AB3014F0AA2707C00091E60727
:104D400000231AF4A23009F4A4E0A093170800CFBE
:104D5000013061F600E000936F000E94EF2A0E948C
:104D6000645AB0914E06A0914F06D0915006C09162
:104D70001708ECE2FEE404E00C9FE00DF11DC59184
:104D8000D59105901590E02DF12D0E94884DA02D14
:104D9000B12DAF93BF93C09117085ED0BF91AF9173
:104DA0000E94306D0E94C9460E94052B0E94785ACD
:104DB000CFCE54554E494E47000052656D6F746515
:104DC00020496E7075743A200000466C69676874FB
:104DD000204D6F6465203A20000000197F22526F39
:104DE0006C6C00005069746368003CD03CD044D0C7
:104DF00044D04ED04ED028D016D016D02CD02CD0A7
:104E00006CD07CD06CD07CD06CD07CD06CD0DE4DA3
:104E1000E44DDE4DE44D440048004C005000540089
:104E2000580088008C008E00B100B500000084039B
:104E30000000840300008403000084030000840356
:104E400000008403000084037CFC84037CFC840356
:104E5000D8DC2823D8DC2823EBE0F7E201E00C9F24
:104E6000E00DF11DEE0FFF1FA591B491FD01089516
:104E700000E00093400500E00093410509E1009344
:104E8000420510915B0520915C0530915D054091D4
:104E9000400550914105609142050E94846D7093D8
:104EA0005B0580935C0520925D0510915B05209168
:104EB0005C0530915D0540913B0750913C07609146
:104EC0003D070E94846D70935B0580935C05209282
:104ED0005D0500915B050093510600915C05009310
:104EE000520600915D0500935306009117080023B8
:104EF000F1F400913C060093400500913D060093BB
:104F0000410500913E06009342058DD10091400578
:104F1000009318060091410500931906009142057F
:104F200000931A060091E607002392F108950130DC
:104F300001F5009145060093400500914606009357
:104F4000410500914706009342056DD10E94D64865
:104F50000091400500932A060091410500932B061D
:104F60000091420500932C060091E607002372F1A0
:104F700008950230D1F400913F060093400500915E
:104F800040060093410500914106009342054BD134
:104F90000091400500931B060091410500931C06FB
:104FA0000091420500931D0608950330E1F400913D
:104FB0004806009340050091490600934105009181
:104FC0004A06009342052FD10E94D6480091400521
:104FD00000932D060091410500932E060091420595
:104FE00000932F0608950430D1F4009142060093F7
:104FF000400500914306009341050091440600934B
:10500000420511D10091400500931E060091410513
:1050100000931F0600914205009320060895053075
:10502000E1F400914B060093400500914C0600937B
:10503000410500914D0600934205F5D00E94D648E7
:105040000091400500933006009141050093310620
:10505000009142050093320608950630D1F4009184
:10506000C006009340050091C106009341050091E0
:10507000C20600934205D7D0009140050093BD06BB
:10508000009141050093BE06009142050093BF06C2
:105090000895073089F53091F9064091FA0650914C
:1050A000FB0660915B0570915C0580915D05580F72
:1050B000471F361F30934E0640934F0650935006BD
:1050C00000914E060093F30600914F060093F406FC
:1050D000009150060093F5066091F3067091F40676
:1050E0008091F50602E00E94756D6093F30670935F
:1050F000F4068093F5060895083089F53091FC0692
:105100004091FD065091FE0660915B0570915C0533
:1051100080915D05580F471F361F30934E06409310
:105120004F065093500600914E060093F6060091EC
:105130004F060093F706009150060093F806609121
:10514000F6067091F7068091F80602E00E94756DF0
:105150006093F6067093F7068093F8060895093079
:1051600089F53091350740913607509137076091A6
:105170005B0570915C0580915D05580F471F361FD8
:1051800030934E0640934F065093500600914E06C2
:105190000093170700914F060093180700915006DF
:1051A00000931907609117077091180780911907EC
:1051B00004E00E94756D6093170770931807809341
:1051C00019070895309138074091390750913A07EF
:1051D00060915B0570915C0580915D05580F471FDC
:1051E000361F30934E0640934F0650935006009161
:1051F0004E0600931D0700914F0600931E07009175
:10520000500600931F0760911D0770911E07809143
:105210001F0704E00E94756D60931D0770931E07C1
:1052200080931F07089530914005409141055091AA
:10523000420560915B0570915C0580915D05580F9A
:10524000471F361F30934E0640934F06509350062B
:105250003CF400E000934E0600934F060093500686
:1052600000914E060093400500914F0600934105C2
:10527000009150060093420508950091EA0700232B
:10528000CAF03091080740910907415030403093EF
:105290000807409309070CF02FC00FEF0093F307A6
:1052A00001E00093080700E90093090700E000937C
:1052B0000A0722C000911F080023F1F00091F107B6
:1052C000002311F0AAF00EC008E22B9AE091F20739
:1052D000EA95E093F20771F4E0911F08E77FE0930D
:1052E0001F0808C00A9509F005C004EC2B9802C0FD
:1052F000039551F30093F10700911C08002322F05D
:105300000091EA07002312F02B98089500911F08DE
:10531000002309F42B9A08952227E3E7F0E00E9486
:105320005F6D102F0E94526605E0E0EBF4E50E94ED
:10533000CF6406E60093AB0701E00093AC07BB2700
:10534000A12FA395DD270E94FD63222319F40E945B
:10535000816402C00E947464E4EAF4E504E0029F00
:10536000E00DF11D0E94C5630E940F660E941B6D37
:10537000083009F40895043021F42A9542F422E01B
:10538000CCCF023029F4239523300CF02227C5CF4F
:105390000130E9F7203091F4A12FA395BB27C1E09C
:1053A000D0E0E4E0F0E00E94884DA02DAA951A2FED
:1053B000E3E7F0E00E94416D2227AFCF213019F4DE
:1053C000C4D021E0AACFEEE8F4E50E94896601305E
:1053D00011F022E0A2CF0E941C3B0E9412620E94A8
:1053E000D34C0E945A6C0E94866C0E94F53C089532
:1053F0000E946066AA2341F408E20093AB07EAEB3F
:10540000F4E50E94E56407C002E20093AB07E4E81C
:10541000FDEC0E94E56401E00093B007B2E000E01B
:105420000093AB0701E10093AC070A2FBF930F93E2
:10543000EEE3F5E50E94C66400E00093AB070E942E
:105440003F640F910395BF91BA9581F70E94AA64BA
:105450000E940F660E94226D089544656661756C16
:10546000742050726F66696C653A200046756E63F1
:1054700074696F6E733A0000496D706F72742075B5
:105480007365722070726F66696C652E00005265DC
:10549000736574206163746976652070726F6669E4
:1054A0006C652E0065006D09001B7F2400247F2D94
:1054B0005A5408D16C5478548E54444F4E450000D1
:1054C000416C6C206461746120636F706965642055
:1054D00066726F6D00007468652073656C65637437
:1054E00065642070726F66696C652E005468652073
:1054F00073656C65637465642070726F66696C6552
:1055000073006D75737420626520646966666572E8
:10551000656E742E000050726F66696C65202331D1
:105520002063616E206F6E6C79006265206564692E
:10553000746564206D616E75616C6C792E00C05469
:10554000D654EC54025516552A550091860800236E
:1055500011F4A4E00FC0A1E0BB27C1E0D0E0E4E07B
:10556000F0E00E94884DA02DAA95009186080A17A8
:1055700019F4A2E03DDF0895AF93E8E7F4E50E9457
:105580008966013011F0AF910895EE27CF91299AE5
:10559000FC2F0E945F6DA02F0E943F6DEE23C1F78C
:1055A00029980E9412620E94D34C0E945A6C0E9459
:1055B000866CAA27DFCFC23019F0C43009F00895F5
:1055C000C695C17009F4CFEFA0918608CA0FC370C9
:1055D000C09386080E94AB3A0E941262089500911F
:1055E0008608002309F4089503950093880804E6CB
:1055F0000093870800270093890800E004BD05E0B8
:1056000005BD01E000936E00089500E000936E0078
:105610002B980895FFB6909187089A95C9F4E09069
:105620008908EE2019F42B9A9FE00FC02B989091D7
:1056300088089A9521F0909388089FE006C0909181
:10564000860893959093880898ECE094E0928908F6
:1056500090938708FFBE18950091590700935E0745
:1056600000915A0700935F0700915B070093600762
:1056700000915C070093610700915D07009362074A
:1056800008953090590740905A0750905B076090FA
:105690005C0770905D072091590730915A0740913F
:1056A0005B0750915C0760915D070E94CA6DB093E3
:1056B0008607C0938707D0938807E0938907F09304
:1056C0008A0730908607409087075090880760903F
:1056D000890770908A0701E00E94616E3092860708
:1056E00040928707509288076092890770928A07D4
:1056F00001E000938B0700E000938C0700E000932B
:105700008D0700E000938E0700E000938F07309034
:105710008B0740908C0750908D0760908E0770909B
:105720008F07209186073091870740918807509115
:10573000890760918A07761A650A540A430A320A71
:105740003092630740926407509265076092660743
:10575000709267070895B0935907A0935A07D093A2
:105760005B07C0935C07F0935D073090590740904A
:105770005A0750905B0760905C0770905D0720911E
:105780004A0730914B0740914C0750914D0760916B
:105790004E070E94CA6DB0935907C0935A07D09321
:1057A0005B07E0935C07F0935D070895FF27CD2F1B
:1057B000DA2FAB2FBB2312F4BFEF0895BB27089558
:1057C0004BDF5FDF30907C0740907D0750907E0775
:1057D00060907F0770908007209163073091640785
:1057E0004091650750916607609167070E94CA6DF6
:1057F000B0939A07C0939B07D0939C07E0939D07B3
:10580000F0939E0730908107409082075090830765
:10581000609084077090850720915E0730915F0744
:105820004091600750916107609162070E94CA6DC4
:10583000B0938607C0938707D0938807E0938907C2
:10584000F0938A0730909A0740909B0750909C07EE
:1058500060909D0770909E07209186073091870782
:10586000409188075091890760918A07761A650AE6
:10587000540A430A320A30929A0740929B07509288
:105880009C0760929D0770929E0730907C07409025
:105890007D0750907E0760907F0770908007209171
:1058A0005E0730915F0740916007509161076091FA
:1058B00062070E94CA6DB0939F07C093A007D09360
:1058C000A107E093A207F093A307309081074090CF
:1058D000820750908307609084077090850720911D
:1058E00063073091640740916507509166076091A6
:1058F00067070E94CA6DB0938607C0938707D0934D
:105900008807E0938907F0938A0730909F074090BB
:10591000A0075090A1076090A2077090A307209164
:1059200086073091870740918807509189076091D9
:105930008A07760E651E541E431E321E30929F0744
:105940004092A0075092A1076092A2077092A3070D
:105950000895F894A0918400B09185007894E09126
:10596000B707F091B807A093B707B093B807AE1B7D
:10597000BF0B2AF4E0E0F0E0EA1BFB0BDF01DD27C0
:10598000B695A795D795B695A795D795B695A795AA
:10599000D795B695A795D795CC27FF27B0935407F1
:1059A000A0935507D0935607C0935707F093580715
:1059B0003090540740905507509056076090570715
:1059C0007090580720914F07309150074091510730
:1059D00050915207609153070E94CA6DB0934A07D5
:1059E000C0934B07D0934C07E0934D07F0934E07BD
:1059F000B0917905A0917A05D0917B05D7DEABDE19
:105A000000916D0700937C0700916E0700937D075E
:105A100000916F0700937E070091700700937F0746
:105A2000009171070093800700917207009381072E
:105A30000091730700938207009174070093830716
:105A400000917507009384070091760700938507FE
:105A5000B7DE00919A0700936D0700919B070093B2
:105A60006E0700919C0700936F0700919D070093BC
:105A7000700700919E070093710700919F070093A4
:105A800072070091A007009373070091A10700938C
:105A900074070091A207009375070091A307009374
:105AA0007607B0917605A0917705D09178057EDED6
:105AB00052DE0091680700937C070091690700930C
:105AC0007D0700916A0700937E0700916B070093A2
:105AD0007F0700916C070093800700917207009385
