:020000020000FC
:100000000C943F000C94F5560C94D5560C943E007D
:100010000C943E000C943E570C943E000C941557E3
:100020000C943E000C943E000C943E000C949D54A5
:100030000C943E000C9461520C9494520C943E002B
:100040000C943E000C943E000C9416260C943E003A
:100050000C9495020C943E000C943E000C943E00CF
:100060000C943E000C943E000C943E000C943E0018
:100070000C943E000C943E000C943E0018950FEF3B
:100080000DBF00E10EBFE3E7F0E00E94BB63037029
:1000900000930308E1E7F0E00E94BB6300934D0783
:1000A000003011F40C94A31A013011F40C94830461
:1000B000023011F40C9476080C94540D009103084E
:1000C000002329F0E2ECF1E90E94E3480895109141
:1000D0004D0722270E94D26106E100933F07E8E71F
:1000E000F1E00E94576000E000933F070AE10093AF
:1000F000400701E000934407E0E8F1E00E94576008
:10010000012FE0EEF1E00E943860222371F0022F0F
:10011000017069F003E000933F070CE20093400791
:10012000E8E8F1E00E94576002C00E94E65F0E948A
:100130008161222341F0A8E5B2E00E944263239549
:1001400009F422E0C7CF0E947763083009F40895CC
:10015000043021F41A957AF414E0BCCF023029F46B
:100160001395153044F01127B5CF21E0A12FE1E719
:10017000F0E00E949D63AECF5258204D4F444500A1
:100180004D6F64653A20000052657374617274208B
:10019000697320726571756972656421000053741A
:1001A000616E64617264205258004350504D2028A3
:1001B000616B612E2050504D2900532E4275730003
:1001C000536174656C6C6974652044534D32000052
:1001D000536174656C6C6974652044534D5800001C
:1001E0009E01AA01BA01C001D00100E000934D07B1
:1001F000E1E7F0E00E94C56308951127009103082C
:10020000002329F0E2ECF1E90E94E34808951F93EE
:100210000E94DE5A1F9100918E05009346050091C1
:100220008F050093470500919005009348050E94B3
:10023000D26102E200933F0701E00093400500E92C
:100240000093410500E0009342053091460540913E
:100250004705509148056091400570914105809196
:10026000420558174707360734F400903F0706E069
:10027000000E00923F071F930E948C3D1F9101E0EA
:100280000093440701E10093400704E0E0E6F4E056
:100290000E9441600E94E65FE0E5F4E004E0019F17
:1002A000E00DF11D0E94385F0E9481610E94575647
:1002B0000E945563002309F4AACF0E94D12B083075
:1002C00009F40895043029F41A9513700E94736399
:1002D0009ECF023011F41395F8CF0130B1F71030F2
:1002E00019F4AAE0FAD093CF113019F4A2E0F5D0B6
:1002F0008ECF123089F0E5D0C1E0DCEFEFEFF3E014
:100300000E940D47A02DB12DDD27B0939105A0933C
:100310009205D09393056FC000918E050093400520
:1003200000918F05009341050091900500934205CF
:1003300060914005709141058091420502E00E9464
:10034000D163609340057093410580934205B0915D
:100350004005A0914105D0914205C4E1D0E0E4E020
:10036000F1E00E940D47A02DB12DDD27B09340058F
:10037000A0934105D09342056091400570914105DD
:100380008091420502E00E94DA6360934005709319
:1003900041058093420530914005409141055091BF
:1003A000420560918E0570918F0580919005581BD4
:1003B000470B360B3093400540934105509342055F
:1003C00030919105409192055091930560914005BF
:1003D0007091410580914205580F471F361F309399
:1003E00091054093920550939305B0919105A0918A
:1003F0009205D0919305E5E7F0E00E948E6365CF0A
:10040000557365204B4B322E31204F6666736574F1
:100410000000557365204B4B322E312E35204F6630
:100420006673657400004D6F6469667920566F6C61
:10043000746167652028312F3130290041646A7565
:100440007374204F66667365742056616C75650021
:1004500000107F1900197F2200227F2B002B7F3490
:100460000004120426043C0454686520626174741C
:1004700065727920766F6C74616765006F6666736C
:10048000657420686173206265656E207365740011
:100490006163636F7264696E6720746F2073656C4B
:1004A0006563746564004B4B3220626F6172642037
:1004B00076657273696F6E2E000068047C04900488
:1004C000A604E5E7F0E00E948563DD27B09391057F
:1004D000A0939205D09393050895BB27DD27B09391
:1004E0009105A0939205D0939305E5E7F0E00E9473
:1004F0008E630E94D26102E200933F07E4E6F4ECCF
:100500000E94B95F04E0EAEBF4E00E9441600E94BF
:100510001C600E9481610E947E630895A2E0B0E0A9
:10052000E5E7F0E00E948E630895FFB6FF93EF9336
:10053000E090C600E091F607F091F707E192E090B5
:10054000DC079091F80793959E151CF0EDEDF7E010
:1005500099279093F807E093F607F093F707EF9148
:10056000FF91FFBE189509E1A0E0EDEDF7E0A19342
:100570000A95E9F7089500914D07023011F40E94A1
:10058000D20A0091DB0700231AF00E94F0030895BD
:100590000E948B570091FA07033041F0C9E10E9495
:1005A00047630091DB0700230AF46BC00E945E568C
:1005B0000E94C46105E0EAE7F6EC0E94416001E0B8
:1005C00000934007B0914C05A0914D05D0914E0588
:1005D000E6EFFBEACFEF0E941756B0914F05A091CE
:1005E0005005D0915105ECEFFBEACFEF0E94175672
:1005F0000E944556B0915205A0915305D0915405E3
:100600000E94705F05E500933F0700917307002388
:1006100012F4AA2708C0EAE5F0E00E94545614F448
:10062000A1E001C0A2E0E2E0FCEA0E943C56B091E9
:100630005505A0915605D0915705E8E0FCEACFEFAB
:100640000E9417560E944556B0915805A091590531
:10065000D0915A050E94705F05E500933F07009115
:100660008107EAE5F6EC0E94386000E000933F075E
:1006700009E300934007EAEEF4EC0E9457600E9401
:1006800081610E945563083009F40895043019F41B
:100690000E94D12B01D07CCF0E948B5700914D0737
:1006A000023011F40E94D20A0091FA07033041F09F
:1006B000C9E10E9447630091DB0700230AF45EC092
:1006C0000E94FB071091610520916205309163053E
:1006D0004091400550914105609142050E94E063C0
:1006E0007093610580936205209263050E94C46146
:1006F000BB270E94075601E000934007B0915B05BD
:10070000A0915C05D0915D05E0EFFBEACFEF0E9480
:100710001756B0915E05A0915F05D0916005E0EF9E
:10072000FBEACFEF0E9417560E944556B091610533
:10073000A0916205D09163050E94705F05E500936A
:100740003F0700918E07E4E7F6EC0E9438600091C5
:100750004D07023079F4A091D607E0E9F7E0C8E947
:10076000D7E01ED0A091D707E4E9F7E0CCE9D7E0C5
:100770000E94D0030E9404600E9481610E94556320
:10078000083029F40E94D12B0E947363089584CF0E
:10079000444731004447320040C556C540C544C5B2
:1007A000CF93DF93AF9300E000933F070E94B25FC7
:1007B0000E94576000E300933F070E94D05F09E367
:1007C00000933F0700E3AF910A0F0E945D6005E5CB
:1007D00000933F070A2FFF91EF910E943860089520
:1007E0000E94D26106E100933F07EEE2F8E00E942A
:1007F000B95F00E000933F0700914D07023019F404
:10080000E8E4F8E002C0E6E3F8E00E9457600E94E6
:10081000B25F02E0EEE7F8E00E9441600E940460EF
:100820000E9481610E9477630830E1F708954E4F7E
:10083000204441544100506C6561736520737570AC
:10084000706C792053617400506C6561736520731E
:100850007570706C7920532E4275730064617461F9
:1008600020746F20746865207468726F74746C658E
:100870000000696E7075742070696E2E00005C084F
:1008800072080E94B3020E948B570E94C461F5E077
:10089000E5E0CDEDD7E01FD0EA95E9F70E94B25F21
:1008A00000E000933F07E5E0FA95A9F70E94046095
:1008B0000E9481610E9457560E945563083019F7C3
:1008C0000E94D12B089530313233343536373839E0
:1008D000414243444546EF93FF9300E20E945D602E
:1008E000088102950F7006D009910F7003D0FF9117
:1008F000EF910895E6ECF8E0E00F0027F01F049177
:100900000E945D600895A4E6B0E00E9442630E94E8
:10091000AC050E94AD2E0E9481610E94B3610E94CD
:1009200081610E948B3600E00093450700E0009350
:10093000460700E00093470700E00093480703E004
:10094000009397050FEF0093980500E00093990539
:1009500001E000939C060EE800939D0600E00093E2
:100960009E0600270093A4070093A5070093A607FF
:1009700000936E070093790700937607AFEAA09380
:100980008007A2E0A0938107A1E0A0938E07A09327
:10099000830700937407009375070093B0070093D3
:1009A000B1070093B2070093B3070093B407009315
:1009B000B5070093B6070093B7070093B8070093F5
:1009C000B9070093BA070093BB070093BC070093D5
:1009D000BD070093BE070093BF070093DB0700939A
:1009E000A8070093AB070093A907E0EBF7E0E093BB
:1009F000AE07F093AF07A3E0A093FA0700E10093DE
:100A00009D070E94225E0E94E2390E941C150091FF
:100A10007A07002312F40C9429157894E4E7F0E0A7
:100A20000E94BB63002351F00E94073603B100957A
:100A300002950F7089F00E9411350EC00FEF0093E0
:100A400096070E945563083011F40E94B42E0130BD
:100A500019F40FEF009379070E94694006E006BB86
:100A60000E943E520E941A070E942D080E94793F60
:100A70000E94882D0E94DF2F0E94941E0E94484AE7
:100A80000E9414490E94C2120E94B22A0E947C2C29
:100A90000E94A052009070071090710701240092EC
:100AA000930700919307002332F40E94552D009183
:100AB0007007009371070091780700232AF400273C
:100AC000009378070E949A3C0091700700230AF473
:100AD000C7CF03B1009502950F7039F4002700933A
:100AE000960700E000939007BBCF00919007039515
:100AF0000093900700919007023309F0B1CF009165
:100B00009607002372F300E000936F000E94556384
:100B10000F7039F3013029F0083061F00E94E725A9
:100B20009BCF0E94D12B0E94761A48F40FEF0093BE
:100B3000960792CF0E94D12B0E948D1AF7CF299849
:100B40002A980E94FB250E9477540E94E5050E9486
:100B50008B540E94112680CF02E301B90EE004B944
:100B60000CEF07B902EF0AB90FEF00937E0001EF17
:100B700005B903E008B90DE00BB900E0009380006F
:100B800002E00093810000E00093820008E00093FF
:100B9000680001E0009373000091B9000C7F00939E
:100BA000B90001E10093B8005D9A5C9A5E982B9AB7
:100BB000299AA4EFB1E00E9442632B9829985E9A8B
:100BC000A4E6B0E00E9442630895C0E1DCE0A09199
:100BD0004607B091450702E10E94E72BC093460704
:100BE000D093450708F00895AA0FE8E7FDE0EA0F63
:100BF0000027F01FA591B491FD0109950E94D12B0A
:100C00000E94B3610E9481610E9473630C94E505A8
:100C100052656D6F74652054756E696E6720202073
:100C200020202020504920456469746F72202020C4
:100C3000202020202020202053656C662D6C6576B6
:100C4000656C2053657474696E67732053746963AF
:100C50006B205363616C696E672020202020202068
:100C60004D6F64652053657474696E67732020202E
:100C7000202020204D6973632E2053657474696EA3
:100C8000677320202020202047696D62616C20530B
:100C9000657474696E67732020202020416476613A
:100CA0006E6365642053657474696E6773202020D9
:100CB0004155582053776974636820536574757083
:100CC00020202020496E697469616C205365747519
:100CD000702020202020202052656365697665728F
:100CE00020546573742020202020202053656E73CB
:100CF0006F72205465737420202020202020202033
:100D000053686F77204D6F746F72204C61796F75E7
:100D100074202020557365722050726F66696C656F
:100D200020202020202020204578747261204665F4
:100D30006174757265732020202020204553432064
:100D400043616C6962726174696F6E20202020209B
:100D500056657273696F6E20496E666F726D61744D
:100D6000696F6E204C434420436F6E7472617374DC
:100D70002020202020202020D01B65469F32283CA8
:100D8000D63A7D3B8B113016BC2E6C38D154EE59BF
:100D90002933A4249A160D367C2A462EAF93BF938E
:100DA000EF93FF93A0918400B0918500E091AC0790
:100DB000F091AD07A093AC07B093AD07AE1BBF0B8E
:100DC0002AF4E0E0F0E0EA1BFB0BDF01EAE6F8E1E1
:100DD000AE17BF0790F0E0EBF7E09091AB07EE2481
:100DE000E092AB079093A90794300CF419C09FEFE1
:100DF0009093DB07E092A80713C09091AB079395FF
:100E00009093AB07E091AE07F091AF07A193B19338
:100E1000A0ECB7E0EA17FB0718F011F0E0ECF7E000
:100E2000E093AE07F093AF07FF91EF91BF91AF91C1
:100E3000FFBE18950090C2070E94BE580E94C95874
:100E40000E94E558DD27B0934C05A0934D05D09343
:100E50004E050E94F758C09374070090C3070E9484
:100E6000BE580E94C9580E94E558DD27B0934F052F
:100E7000A0935005D09351050E94F758C093750771
:100E80000090C4070E94BE580027009373070E9479
:100E9000DC58EBE3FBE0AE1BBF0BE0E0F0E0AE178D
:100EA000BF070CF405C0E5E3FCE0AE17BF072CF06C
:100EB000A0E0B0E00FEF00937307DD27B093520579
:100EC000A0935305D09354050090C5070E94BE58C7
:100ED0000E94C9580E94E558DD27B0935505A0939C
:100EE0005605D09357050090C6070E94BE580E9431
:100EF000C958CC27E8EAFDEFAE17BF079CF0C395B1
:100F0000E8E3FFEFAE17BF076CF0C395E8ECF0E045
:100F1000AE17BF073CF0C395E8E5F2E0AE17BF0798
:100F20000CF0C395C0938107DD27B0935805A093BB
:100F30005905D0935A050090C7070E94BE580E94D9
:100F4000C958DD27B0935B05A0935C05D0935D0580
:100F50000090C8070E94BE580E94C958DD27B09370
:100F60005E05A0935F05D09360050090C9070E94BD
:100F7000BE580E94C958CC27E0E7FEEFAE17BF0766
:100F80003CF0C395E0E9F1E0AE17BF070CF0C39564
:100F9000C0938E07DD27B0936105A0936205D093BF
:100FA00063050091DB07002322F510C00093A8071A
:100FB0000091700700234AF40091A907A091AA07A5
:100FC0000A1719F0A4E00E945F1A08950091A8077B
:100FD0000395A09167070A1748F300917007002353
:100FE00042F400919D07036000939D070FEF00936B
:100FF0007E070C94910C00E00093400500E0009304
:10100000410509E10093420510915B0520915C05C3
:1010100030915D0540914005509141056091420538
:101020000E94E06370935B0580935C0520925D05F0
:1010300010915E0520915F0530916005409140055B
:1010400050914105609142050E94E06370935E05F6
:1010500080935F052092600508950091DB0700955D
:101060000071A0919D07AF7E0A2B00939D07089504
:101070004E4F205349474E414C00506C656173659B
:1010800020737570706C792061204350504D0000C2
:101090002850504D29207369676E616C20746F2051
:1010A000746865007468726F74746C6520696E7022
:1010B00075742070696E2E007A109010A4100E9432
:1010C000D2610AE000933F07E0E7F0E10E94B95FD8
:1010D00003E0E8EBF0E10E9441600E9404600E949E
:1010E00081610E9477630830E1F70895A4E6B0E0DB
:1010F0000E9442630E9490090E94AD2E0E9481616D
:101100000E94B3610E9481610E948B3600E00093CF
:10111000450700E00093460700E00093470700E022
:101120000093480703E0009397050FEF009398059D
:1011300000E00093990501E000939C060EE80093FF
:101140009D0600E000939E0600270093A4070093ED
:10115000A5070093A60700936E07009379070093F5
:101160007607AFEAA0938007A2E0A0938107A1E0F1
:10117000A0938E07A09383070093740700937507CD
:10118000A9E1A093DC070093DB070093A807009375
:10119000D6070093D7070093D8070093F80700936A
:1011A000F9070093FA070093DD07EDEDF7E0E09310
:1011B000F607F093F70700E100939D070E94225E77
:1011C0000E94E2390E941C1500917A07002312F454
:1011D0000C9429157894E4E7F0E00E94BB630023A7
:1011E00051F00E94073603B1009502950F7089F007
:1011F0000E9411350EC00FEF009396070E945563B1
:10120000083011F40E94B42E013019F40FEF00934E
:1012100079070E94694000919D070F7D00939D070B
:1012200006E006BB0E943E520E94170B0E94D20AA3
:101230000E94060B0E94793F0E94882D0E94DF2F9A
:101240000E94941E0E94484A0E9414490E94C212A1
:101250000E94B22A0E947C2C0E94A052009070072B
:1012600010907107012400929307009193070023C7
:1012700032F40E94552D0091700700937107009180
:10128000780700232AF40027009378070E949A3CED
:101290000091700700230AF4C5CF03B100950295B1
:1012A0000F7039F400270093960700E00093900731
:1012B000B9CF009190070395009390070091900794
:1012C000023309F0AFCF00919607002372F300E0DC
:1012D00000936F000E9455630F7039F3013029F0BD
:1012E000083061F00E94E72594CF0E94D12B0E9424
:1012F000761A48F40FEF009396078BCF0E94D12BFC
:101300000E948D1AF7CF29982A980E94FB250E94E7
:1013100077540E94DE090E948B540E94112679CFD7
:1013200002E301B90FE004B90CEF07B902EF0AB903
:101330000FEF00937E0000EF05B903E008B90DE060
:101340000BB900E00093800002E00093810000E010
:10135000009382000091C000007819F00091C6004F
:10136000F9CF02E00093C00000270093C50008E118
:101370000093C40000E10093C1000EE20093C2009C
:101380000091C10000680093C1000091B9000C7F7A
:101390000093B90001E10093B8005D9A5C9A5E98F1
:1013A0002B9A299AA4EFB1E00E9442632B982998C6
:1013B0005E9AA4E6B0E00E9442630895C2E0D4E1E0
:1013C000A0914607B091450703E10E94E72BC09327
:1013D0004607D093450708F00895AA0FEEE7F5E118
:1013E000EA0F0027F01FA591B491FD0109950E9415
:1013F000D12B0E94B3610E9481610E9473630C949F
:10140000DE0952656D6F74652054756E696E6720D4
:10141000202020202020504920456469746F7220CC
:101420002020202020202020202053656C662D6C59
:101430006576656C2053657474696E6773205374A8
:1014400069636B205363616C696E672020202020E4
:1014500020204D6F64652053657474696E67732036
:101460002020202020204D6973632E205365747442
:10147000696E677320202020202047696D62616CAF
:101480002053657474696E677320202020204164A6
:1014900076616E6365642053657474696E6773204A
:1014A0002020415558205377697463682053657430
:1014B0007570202020204447322053776974636878
:1014C00020536574757020202020496E697469610D
:1014D0006C205365747570202020202020205265D8
:1014E000636569766572205465737420202020201E
:1014F000202053656E736F72205465737420202012
:1015000020202020202053686F77204D6F746F7249
:10151000204C61796F7574202020557365722050BE
:10152000726F66696C65202020202020202045787D
:101530007472612046656174757265732020202085
:1015400020204553432043616C6962726174696F66
:101550006E202020202056657273696F6E20496EC0
:10156000666F726D6174696F6E204C434420436FE7
:101570006E74726173742020202020202020D01BE4
:1015800065469F32283CD63A7D3B8B113016BC2EE7
:10159000EF0C6C38BB02EE592933A4249A160D3691
:1015A0007C2A462EA091D507B091DB07BB2331F4EE
:1015B00000919D07006100939D07089500919D078C
:1015C0000F7E00939D070A2F01700093D6070A959E
:1015D000009500937E07A6950A2F01700093D70708
:1015E000A695A695A17089F0A093D80700919D07B4
:1015F000006200939D070FEF00937E070091700734
:1016000000231AF4A2E00E945F1A08950091D70700
:10161000002311F4289A0AC0C091D907C69518F47E
:10162000002700937307C69508F428980895A091A1
:10163000F807B091F907AB1759F0A093F90701E04B
:101640000093FA070091DB0700230AF44BC069C13D
:101650000091FA07023059F00395043608F00A9514
:101660000093FA070091DB0700238AF73BC0A091A3
:10167000F807AA2391F000270093FA070093F907CF
:10168000F8940093F8070093DD07EDEDF7E0E093A1
:10169000F607F093F707789444C1EDEDF7E0008189
:1016A0000F3009F03EC1E5EFF7E00081002321F0A3
:1016B00000810F7C0430B1F70FEF0093DB07319707
:1016C00000810093D507EEEDF7E0AAECB7E0CAE0A1
:1016D00001910D93CA95E2F703E00093FA07002702
:1016E0000093A807A091CA07B091CB07B770A09349
:1016F000B007B093B107A091CB07B091CC07B795D5
:10170000A795B795A795B795A795B770A093B2077A
:10171000B093B307D091CC07A091CD07B091CE077D
:10172000DD1FAA1FBB1FDD1FAA1FBB1FB770A09321
:10173000B407B093B507A091CE07B091CF07B79586
:10174000A795B770A093B607B093B707A091CF073E
:10175000B091D007B795A795B795A795B795A795D9
:10176000B795A795B770A093B807B093B907D09174
:10177000D007A091D107B091D207DD1FAA1FBB1FD0
:10178000B770A093BA07B093BB07A091D207B091EE
:10179000D307B795A795B795A795B770A093BC0742
:1017A000B093BD07A091D307B091D40705E0B695DB
:1017B000A7950A95E1F7A093BE07B093BF070090E5
:1017C000C207F8D001D10E94E558B0934C05A09310
:1017D0004D05D0934E050E94F758C09374070090B2
:1017E000C307E8D0F1D00E94E558B0934F05A0930D
:1017F0005005D09351050E94F758C093750700908B
:10180000C407D8D0002700937307E0E9F1E0AE1BCE
:10181000BF0BDED0E0E0F0E0AE17BF072CF4A0E095
:10182000B0E00FEF00937307B0935205A0935305F8
:10183000D09354050090C507BDD0C6D00E94E5588E
:10184000B0935505A0935605D09357050090C60751
:10185000B1D0BAD0B0935805A0935905D0935A058A
:10186000CC27E8EAFDEFAE17BF079CF0C395E8E38D
:10187000FFEFAE17BF076CF0C395E8ECF0E0AE17D2
:10188000BF073CF0C395E8E5F2E0AE17BF070CF0E8
:10189000C395C09381070090C7078CD095D0B093B3
:1018A0005B05A0935C05D0935D050090C80782D0CE
:1018B0008BD0B0935E05A0935F05D0936005009038
:1018C000C90778D081D0B0936105A0936205D09309
:1018D0006305CC27E0E7FEEFAE17BF073CF0C395EA
:1018E000E0E9F1E0AE17BF070CF0C395C0938E0797
:1018F0000091DB070023AAF403C00093A807089512
:101900000091A80703950A3FC0F3009170070023D8
:1019100042F400919D07036000939D070FEF009331
:101920007E0700270093DB0700E000934C0500933F
:101930004D0500934E0500934F050093500500930D
:1019400051050093520500935305009354050093ED
:1019500055050093560500935705009358050093CD
:10196000590500935A0500935B0500935C050093AD
:101970005D0500935E0500935F050093600500938D
:10198000610500936205009363050FEF00937307F1
:1019900000918107023031F002E0009381070FEFE0
:1019A000009382070091700700231AF4A1E00E94BF
:1019B0005F1A0895E0EBF7E002E0009DE00DF11DF5
:1019C000A191B081DD270895E0E0F4E0AE1BBF0BEC
:1019D000EA2FFB2FF595E795AE0FBF1F089511274E
:1019E0000E944F463091D90720E60E94C46102E070
:1019F000E8E8FAE10E94416001E000934007C091ED
:101A0000D90744D043D00E94F35FE0E3F8E704E055
:101A1000019FE00DF11D0E94385F0E9481610E94CC
:101A20007763083051F40091D907031729F0EEECE1
:101A3000F0E0A02F0E949B630895043019F41A95DA
:101A40001170D3CF023011F41395FACF013059F44D
:101A5000012FAA270894AA1F0A95EAF70091D9072F
:101A60000A270093D907C1CF537461792041726D61
:101A700065642F5370696E004469676974616C20F6
:101A80004F75747075740000681A781A20933F07B8
:101A90000E94D05F0C2FE0E4F6EC01700E943860E9
:101AA0000E94B25FC69508950027009396070E9492
:101AB000850E0E94AD2E0E9481610E94B3610E943A
:101AC00081610E948B3600E00093450700E000939F
:101AD000460700E00093470700E00093480703E053
:101AE000009397050FEF0093980500E00093990588
:101AF00001E000939C060EE800939D0600E0009331
:101B00009E0600270093A4070093A5070093A6074D
:101B100000936E070093790700937607AFEAA093CE
:101B20008007A2E0A0938107A1E0A0938E07A09375
:101B300083070093740700937507A0E1A093DC0767
:101B40000093DB070093A8070093F8070093F907B9
:101B50000093FA07EDEDF7E0E093F607F093F7074F
:101B60000093B0070093B1070093B2070093B30747
:101B70000093B4070093B5070093B6070093B70727
:101B80000093B8070093B9070093BA070093BB0707
:101B90000093BC070093BD0700E100939D070E94DE
:101BA000225E0E94E2390E94CF0E0E941C15009115
:101BB0007A07002312F40C9429157894E4E7F0E0F6
:101BC0000E94BB63002371F00E94073600919607C4
:101BD0000023B2F003B1009502950F7089F00E94C6
:101BE00011350EC00FEF009396070E945563083021
:101BF00011F40E94B42E013019F40FEF009379070D
:101C00000E94694000919D070F7D00939D0706E0AB
:101C100006BB0E943E520E94DE0F0E9480110E946D
:101C2000793F0E94882D0E94DF2F0E94941E0E94FF
:101C3000484A0E9414490E94C2120E94B22A0E947D
:101C40007C2C0E94A0520090700710907107012414
:101C50000092930700919307002332F40E94552DC0
:101C600000917007009371070091780700232AF410
:101C70000027009378070E949A3C00917007002388
:101C80000AF4C7CF03B1009502950F7039F400270D
:101C90000093960700E000939007BBCF0091900758
:101CA00003950093900700919007023309F0B1CF9C
:101CB00000919607002372F300E000936F000E94EA
:101CC00055630F7039F3013029F0083061F00E943C
:101CD000E72596CF0E94D12B0E94761A48F40FEF89
:101CE000009396078DCF0E94D12B0E948D1AF7CFBB
:101CF00029982A980E94FB250E9477540E94DE0EA4
:101D00000E948B540E9411267BCF02E301B90EE0A2
:101D100004B90CEF07B902EF0AB90FEF00937E0088
:101D200001EF05B903E008B90DE00BB9ACE3B0E091
:101D30000E9442630E945563063079F4A3E000914B
:101D40004D07043009F4A7E003EF0AB90E94C70F5A
:101D500002EF0AB90FEF0093960700E000938000AE
:101D600002E00093810000E0009382000091B9003E
:101D70000C7F0093B90001E10093B8005D9A5C9A72
:101D80005E982B9A299AA4EFB1E00E9442632B98A7
:101D900029985E9AA4E6B0E00E9442630895002765
:101DA0000093C0000093C5000AE00093C40000E95E
:101DB0000093C10006E00093C2000895C2E0DEE196
:101DC000A0914607B091450702E10E94E72BC0931E
:101DD0004607D093450708F00895AA0FEAE6FFE109
:101DE000EA0F0027F01FA591B491FD0109950E940B
:101DF000D12B0E94B3610E9481610E9473630C9495
:101E0000DE0E52656D6F74652054756E696E6720C5
:101E1000202020202020504920456469746F7220C2
:101E20002020202020202020202053656C662D6C4F
:101E30006576656C2053657474696E67732053749E
:101E400069636B205363616C696E672020202020DA
:101E500020204D6F64652053657474696E6773202C
:101E60002020202020204D6973632E205365747438
:101E7000696E677320202020202047696D62616CA5
:101E80002053657474696E6773202020202041649C
:101E900076616E6365642053657474696E67732040
:101EA0002020415558205377697463682053657426
:101EB000757020202020496E697469616C2053651B
:101EC000747570202020202020205265636569767B
:101ED00065722054657374202020202020205365D3
:101EE0006E736F7220546573742020202020202090
:101EF000202053686F77204D6F746F72204C61798A
:101F00006F7574202020557365722050726F66695A
:101F10006C652020202020202020457874726120CC
:101F2000466561747572657320202020202045531A
:101F3000432043616C6962726174696F6E20202076
:101F4000202056657273696F6E20496E666F726DE0
:101F50006174696F6E204C434420436F6E747261EC
:101F600073742020202020202020D01B65469F3223
:101F7000283CD63A7D3B8B113016BC2E6C38BB0208
:101F8000EE592933A4249A160D367C2A462E5898E9
:101F9000C6E70E94D20F589ACAE70E94D20FAA95AC
:101FA000B1F7089500C000C000C000C000C000C06C
:101FB00000C000C00000CA95A9F708954427009109
:101FC0004D070430F1F02CE133E002E000934905C5
:101FD00000E000934A0500E000934B0500E0009309
:101FE000400502E0009341050EEE0093420500E03B
:101FF000009343050DEC0093440500E00093450574
:102000001DC028E337E004E00093490500E0009399
:102010004A0500E000934B0500E00093400501E015
:102020000093410507E70093420501E00093430553
:102030000AE90093440500E0009345053093DA0770
:10204000A091F807B091F907AB1759F0A093F907E1
:1020500001E00093FA070091DB0700230AF45DC05A
:1020600015C10091FA07023069F00023C9F3039506
:10207000043608F00A950093FA070091DB07002365
:102080007AF74BC0A091F807AA2381F000270093AC
:10209000FA070093F907F8940093F807EDEDF7E0DD
:1020A000E093F607F093F7077894F0C00FEF0093F2
:1020B000DB07AFEDB7E012E0E0EBF7E0DD91CD91AB
:1020C000DF3F79F04D2B0D2F0695283309F4069547
:1020D0000E700395E00F08F4F395D323D083319766
:1020E000C0831395139510313CF3032F00954023C3
:1020F000421769F000919D07006200939D070091CF
:10210000700700231AF4A3E00E945F1ABFC003E027
:102110000093FA0700270093A80700270093BE0743
:102120000093BF070090C207B3D0BFD00E94E5580C
:10213000B0934C05A0934D05D0934E050E94F758DF
:10214000C09374070090C307A3D0AFD00E94E55896
:10215000B0934F05A0935005D09351050E94F758B6
:10216000C09375070090C40793D0002700937307AE
:10217000F0914305E0914405AE1BBF0BA0D0E0E019
:10218000F0E0AE17BF072CF4A0E0B0E00FEF009333
:102190007307B0935205A0935305D0935405009054
:1021A000C50776D082D00E94E558B0935505A0931C
:1021B0005605D09357050090C6076AD076D0B093E5
:1021C0005805A0935905D0935A05CC27E8EAFDEFAE
:1021D000AE17BF079CF0C395E8E3FFEFAE17BF074C
:1021E0006CF0C395E8ECF0E0AE17BF073CF0C39588
:1021F000E8E5F2E0AE17BF070CF0C395C093810786
:102200000090C70745D051D0B0935B05A0935C0503
:10221000D0935D050090C8073BD047D0B0935E05D2
:10222000A0935F05D09360050090C90731D03DD0E1
:10223000B0936105A0936205D0936305CC27E0E7D6
:10224000FEEFAE17BF073CF0C395E0E9F1E0AE1733
:10225000BF070CF0C395C0938E070091DB070023E6
:10226000AAF403C00093A80708950091A807039556
:102270000A3FC0F300917007002342F400919D07CC
:10228000036000939D070FEF00937E070C94910C61
:10229000E0EBF7E002E0009DE00DF11DA191B081BF
:1022A000DD270091DA07B0230895AD17BD0709F4C3
:1022B0000895F0914905E0914A05AE1BBF0BB0931C
:1022C0004605A0934705D0934805109146052091F7
:1022D0004705309148054091400550914105609176
:1022E00042050E94E0637093460580934705209263
:1022F0004805B0914605A0914705D091480508953D
:102300000091DB0700950071A0919D07AF7E0A2B1D
:1023100000939D0708950E9410440E943446009146
:102320006907007C09F01ED10E94C46105E0E2E962
:10233000F4E20E94416001E00093400728E4E1EBF1
:10234000F0E007D106D105D104D120933F070E94C8
:10235000D05FE9EBF0E00E9495630093A207017063
:10236000E8EAF4E20E94386000E000933F0709E3E6
:1023700000934007EAEEF4EC0E945760E4EFF4ECBF
:102380000E945760EEECF4E204E0019FE00DF11DC5
:102390000E94385F0E9481610E947763083009F4CF
:1023A0000895043011F422D0BFCF023029F41395E0
:1023B00015300CF01127B8CF0130E9F7143051F483
:1023C000A091A207A095A093A207E9EBF0E00E94DC
:1023D0009B63AACFE1EBF0E002E0019FE00DF11D6D
:1023E000C8EDDCEDA8E2B3E2A3D09ECF112724E52F
:1023F0000E94C46102E0EAECF4E20E94416001E064
:1024000000934007EAEBF0E0A4D0A3D00E94F35F72
:10241000E2EEF4E204E0019FE00DF11D0E94385F5E
:102420000E9481610E947763083011F4112708959A
:10243000043019F41A951170DBCF0230D9F3013052
:10244000D9F7EAEBF0E002E0019FE00DF11DC8E1F1
:10245000DCEFA8EEB3E06CD0CBCF526F6C6C2047B2
:1024600061696E00526F6C6C204F66667365740014
:102470005069746368204761696E00005069746335
:1024800068204F666673657400004D6978696E67F1
:1024900000005A24642470247C248A244E6F6E65C4
:1024A00000004469666600009C24A224486F6D65A4
:1024B00020506F7320526F6C6C00486F6D65205018
:1024C0006F732050697463680000AC24BA24530011
:1024D0007309530973125312731B531B7324532430
:1024E000732D5F007F095F097F124F7574707574DB
:1024F00020747970652069732073657420746F008F
:1025000045534320666F72204D3720616E642F6FF4
:1025100072204D382E00436865636B204D697865E5
:102520007220456469746F722E00EA240025162516
:10253000EF93FF93AF93BF930E948363FF91EF915B
:102540000E940D47A02DB12DFF91EF910E948C6349
:10255000089520933F070E94D05F0E9483630E94EA
:10256000B15F08950E94D2610E94C15F03E0EAE278
:10257000F5E20E9441600E941C600E9481610E94FD
:102580007E63089500E000934005009341050093A9
:1025900042053091B1064091B2065091B306609168
:1025A000400570914105809142055817470736074D
:1025B00009F011C03091B7064091B8065091B906A4
:1025C0006091400570914105809142055817470779
:1025D000360709F408950091A607002369F000E08A
:1025E00000935B0500935C0500935D0500935E0519
:1025F00000935F050093600500918E07023029F576
:102600000091C60600935B050091C70600935C0528
:102610000091C80600935D050091C30600935E0516
:102620000091C40600935F050091C5060093600504
:1026300000E00093C0060093C1060093C206009319
:10264000BD060093BE060093BF0630915B05409126
:102650005C0550915D056091BA067091BB06809152
:10266000BC06580F471F361F30935B0540935C052F
:1026700050935D0530915E0540915F055091600576
:102680006091B4067091B5068091B606580F471F49
:10269000361F30935E0540935F055093600503E05D
:1026A0000093400508EE0093410500E000934205C9
:1026B00030915B0540915C0550915D05609140054E
:1026C0007091410580914205580F471F361F309386
:1026D0005B0540935C0550935D0530915E0540912C
:1026E0005F055091600560914005709141058091B2
:1026F0004205580F471F361F30935E0540935F0514
:102700005093600500E00093400502E0009341050E
:1027100000E80093420510915B0520915C05309123
:102720005D054091400550914105609142050E9430
:10273000E0637093CC068093CD062092CE06109174
:102740005E0520915F0530916005409140055091F4
:102750004105609142050E94E0637093C906809331
:10276000CA062092CB0600918E07013041F51091E8
:102770009F062091A0063091A1064091B10650918C
:10278000B2066091B3060E94E0637093BD06809329
:10279000BE062092BF061091A2062091A30630919A
:1027A000A4064091B7065091B8066091B9060E9400
:1027B000E0637093C0068093C1062092C206009128
:1027C000A20700230AF09FC00091BD0600934005B8
:1027D0000091BE06009341050091BF06009342059B
:1027E0003091BD064091BE065091BF066091C00673
:1027F0007091C1068091C206581B470B360B30936F
:10280000BD064093BE065093BF063091C00640916E
:10281000C1065091C20660914005709141058091BA
:102820004205580F471F361F3093C0064093C1061C
:102830005093C2060091C906009340050091CA0654
:10284000009341050091CB06009342053091C906E3
:102850004091CA065091CB066091CC067091CD068E
:102860008091CE06581B470B360B3093C906409318
:10287000CA065093CB063091CC064091CD065091BC
:10288000CE06609140057091410580914205580F38
:10289000471F361F3093CC064093CD065093CE068B
:1028A00009E00093400504EC0093410500E000932B
:1028B00042053091C9064091CA065091CB066091FD
:1028C00040057091410580914205580F471F361F02
:1028D0003093C9064093CA065093CB063091CC067C
:1028E0004091CD065091CE06609140057091410512
:1028F00080914205581B470B360B3093CC06409312
:10290000CD065093CE063091BD064091BE06509143
:10291000BF066091C9067091CA068091CB06580F18
:10292000471F361F309321064093220650932306FB
:102930003091C0064091C1065091C2066091CC060C
:102940007091CD068091CE06580F471F361F3093E9
:1029500024064093250650932606009121060093F5
:10296000510600912206009352060091230600931F
:102970005306009124060093540600912506009307
:10298000550600912606009356060895E7E7F0E005
:102990000E94BB63102F0E94D2610CE100933F079D
:1029A000EEEEF9E20E94B95F03E0E2E3FAE20E9490
:1029B00041600AE200933F0709E300934007E2ED1C
:1029C000F4EC0E9457600E9481610E94776304309A
:1029D00011F40FEF03C00230C1F70027011731F0E7
:1029E000E7E7F0E00E94C5630C94B13808954749C9
:1029F0004D42414C00005573652074686973206234
:102A00006F6172642061732061007374616E642D64
:102A1000616C6F6E652028736572766F2900676937
:102A20006D62616C20636F6E74726F6C6C65723F67
:102A30000000F6290A2A1E2AE7E7F0E00E94BB639D
:102A400000937A0708950027E7E7F0E00E94C56346
:102A50000895002700937B0700937C0700937D0770
:102A600078940FEF009396070E945563083011F495
:102A70000E94B42E0E94694006E006BB0E943E52AE
:102A80000E948B570E94484A0E9414490E94C21219
:102A90000E94B22A0E947C2C0E94A05200E0009367
:102AA00093060093940600939506009178070023FF
:102AB0002AF40027009378070E949A3C03B10095FE
:102AC00002950F7039F400270093960700E00093F9
:102AD0009007D4CF00919007039500939007009141
:102AE0009007023309F0CACF00919607002372F3D2
:102AF00000E000936F000E945563077039F30130C6
:102B000019F00E94E725B6CF0E94D12B29980E9488
:102B10004C2D0E94FB250E9477540E9494150E9420
:102B20008B540E941126A6CFCEE6DBE2A091460789
:102B3000B09145070BE00E94E72BC0934607D09366
:102B4000450708F00895AA0FEAE4FCE2EA0F00271F
:102B5000F01FA591B491FD0109950E94D12B0E940F
:102B6000B3610E9481610E9473630C9494154D6F50
:102B700064652053657474696E677320202020207B
:102B800020204D6973632E2053657474696E6773DA
:102B900020202020202047696D62616C20536574DD
:102BA00074696E67732020202020416476616E6313
:102BB00065642053657474696E6773202020496EC4
:102BC000697469616C205365747570202020202021
:102BD00020205265636569766572205465737420A0
:102BE00020202020202053656E736F72205465735F
:102BF0007420202020202020202055736572205032
:102C0000726F66696C652020202020202020457886
:102C100069742047696D62616C204D6F6465202086
:102C2000202056657273696F6E20496E666F726DF3
:102C30006174696F6E204C434420436F6E747261FF
:102C400073742020202020202020D63A7D3B8B1139
:102C500030166C387155EE59A424C6147C2A462EC1
:102C600011270E94D26100E100933F07E2EEFCE2EF
:102C70000E94B95F04E0ECE2FDE20E9441600E9424
:102C8000DC5FE0ECF0E704E0019FE00DF11D0E9445
:102C9000385F0E9481610E947763083009F40895CB
:102CA000043019F41A951370DCCF023011F4139527
:102CB000FACF0130B1F60E9473631F93103019F4FC
:102CC0000E9406190CC0113019F40E945E5E07C004
:102CD000123019F40E94DE4702C00E946F181F9143
:102CE000C0CF414456414E43454400004368616EA5
:102CF0006E656C204D617070696E670053656E7310
:102D00006F722053657474696E6773004D697865DE
:102D10007220456469746F720000426F61726420B2
:102D20004F7269656E746174696F6E00EC2CFC2CD7
:102D30000C2D1A2D11270E94D26102E200933F0749
:102D4000E4EBFDE20E94B95F03E0E4EFFDE20E94E4
:102D500041600E94DC5FE0ECF0E704E0019FE00DE1
:102D6000F11D0E94385F0E9481610E9477630830E4
:102D700009F40895043021F41A95EAF61127DBCFFF
:102D8000023029F413951330B4F212E0D4CF01309D
:102D900091F60E9473631F93103019F40E94FD1680
:102DA00007C0113019F40E94C61402C00E944104E9
:102DB0001F91C1CF455854524100436865636B2051
:102DC0004D6F746F72204F7574707574730047691E
:102DD0006D62616C20436F6E74726F6C6C65720013
:102DE000566965772053657269616C20525820449A
:102DF00061746100BA2DCE2DE02DEFEBF0E00E9462
:102E0000BB6300232AF0EEEBF1E90E94E34808954A
:102E10004AD108F408950E9403460E9410440E947B
:102E2000344650916907222711E00E94BE3A0E9461
:102E300073630E948B5400E00093680700E00093E6
:102E4000690701E000936B0708E000936A070FEF42
:102E50000093700700270093730700E000937B0640
:102E600001E000937C0600E000937D0606E006BBCF
:102E700001E00093430500E90093440500E000935E
:102E80004505052F012321F42395110FD0F75DC0CF
:102E90000E94D26104E300933F0706E100934007DC
:102EA0000DE40E945D6000E32395020F0E945D60C7
:102EB000ECEAFCE70E94385F0E9481611F935F93F8
:102EC0002F930E943E520091EE0500934005009121
:102ED000EF05009341050091F0050093420541D0B4
:102EE0000E94A0522F9130914305409144054150DA
:102EF0003040309343054093440511F700E00093C0
:102F0000430508EC0093440500E0009345052F932A
:102F10000E943E5200E0009340050093410500935B
:102F200042051FD00E94A0522F913091430540913D
:102F3000440541503040309343054093440539F7F0
:102F40005F911F91110F08F093CF00270093700736
:102F50000FEF0093730790E090936F000E947754F7
:102F60000895213069F40091400500930F06009107
:102F70004105009310060091420500931106089543
:102F8000223069F40091400500931206009141053A
:102F90000093130600914205009314060895233010
:102FA00069F40091400500931506009141050093D6
:102FB000160600914205009317060895243069F41F
:102FC00000914005009318060091410500931906F1
:102FD0000091420500931A060895253069F4009186
:102FE000400500931B060091410500931C060091CB
:102FF000420500931D060895263069F400914005AE
:1030000000931E060091410500931F0600914205A2
:10301000009320060895273069F40091400500933D
:10302000210600914105009322060091420500937C
:103030002306089500914005009324060091410560
:1030400000932506009142050093260608954D6FD2
:10305000746F72732077696C6C207370696E20696D
:103060006E0073657175656E6365204D31202D208E
:103070004D38000061667465722074686520636F66
:10308000756E74646F776E2E0000504C4541534549
:10309000204245204341524546554C2100004E30C8
:1030A000623074308A300E94D2610E94C15F00E0B9
:1030B00000933F0704E0EEE9F0E30E9441600E94C4
:1030C00004600E941C600E9481610E947763083046
:1030D00011F4089408950130C1F78894089500917F
:1030E0000308002329F0E2ECF1E90E94E348089587
:1030F000E9E7F0E00E94BB630370102F0E94D261E9
:1031000002E200933F0703E100934007E0EAF1E3A6
:103110000E94576004E000934407E6EAF1E302E00E
:10312000019FE00DF11DA591C491A0933F07C093AD
:10313000400705E0010F0E945D6001E00093440735
:103140000E94E65F0E9481610E947763083009F463
:103150000895043019F413951370D0CF023011F490
:103160001A95FACF013051F610934907012FE9E77C
:10317000F0E00E94C5630E94D26102E200933F0723
:10318000E4E6F4EC0E94B95F04E0E4E0F2E30E94BC
:1031900041600E941C600E9481610E947E63AECFEC
:1031A00046726F6E740038000014382670144D6F2C
:1031B000756E7420796F7572204B4B3220626F618F
:1031C00072640000736F20746861742074686520F5
:1031D0006F6E2D73637265656E006172726F77201A
:1031E000706F696E747320746F2074686500667206
:1031F0006F6E74206F6620796F7572206D6F6465D5
:103200006C2E0000AE31C431DA31EE3111270E944C
:10321000C46105E0EAE7F6EC0E94416001E000933A
:103220004007BEE40E94075601E00093400720E3F8
:10323000C2ECD7E00E94564688D087D086D085D091
:1032400084D001E00093400726E67FD07ED07DD079
:103250000E94F35FE0ECF2E304E0019FE00DF11D5A
:103260000E94385F0E9481610E947763083029F4D0
:1032700080D010F455D0CBCF0895043019F41A95AE
:103280001770C5CF023011F41395FACF0130B9F49D
:103290000E945646BB27E10FFB1FEF93FF930E944E
:1032A0009563AA95A770A395C1E0D0E0E8E0F0E0AF
:1032B0000E940D47A02DFF91EF910E949B63A7CF25
:1032C00039004509390945123912451B391B452476
:1032D0003924452D6F007B096F097B126F127B1B10
:1032E0004368616E6E656C206D617070696E6720F9
:1032F00069730000696E76616C69642E2044757094
:103300006C69636174657300617265206E6F74200F
:10331000616C6C6F7765642E0000E032F432083324
:103320000E94D26102E200933F07EEE5F4EC0E94B6
:10333000B95F03E0EAE1F3E30E9441600E941C6090
:103340000E9481610E947E63089520933F070E943E
:10335000D05F0E9495630A950993087F31F00DE2D2
:103360000E945D600E94B25F0895BB270E94B15F1A
:103370000895C2ECD7E0EE27B8E00991A02FA87F0E
:1033800059F40894AA1F0A95EAF7EA2BBA95A9F707
:10339000E09511F48894089508940895EBE7F0E01F
:1033A0000E94BB63002339F40091790700230AF4DB
:1033B00032C0889408951B9A102F13700AE000936E
:1033C0003F07EAE6F4E30E94B95F00E000933F079D
:1033D000012FE6EBF4E30E9438600E94B25F00E048
:1033E00000933F07EAE7F4E30E945760ECE7F0E060
:1033F0000E949763CA2F0E9497630E94013E00E6D5
:1034000000933F0709E300934007ECECF4EC0E94C3
:103410005760089408950AE000933F07EAE6F4E352
:103420000E94B95F00E000933F07E2E8F4E30E94E6
:103430005760EAE7F0E00E94BB630170EEE9F4E355
:103440000E94386000E000933F0709E300934007C3
:10345000E0E1F5EC0E94576000E600933F07E4E7E7
:10346000F4E30E945760089408954552524F522049
:103470004C4F470041424F52540054696D653A2009
:1034800000005374617475733A200000454E414248
:103490004C45440044495341424C45440000943457
:1034A0008C344350504D2073796E632077617320C4
:1034B0006C6F73742100A2346A7DCA7DE87DEAE7EF
:1034C000F0E00E94BB63002382F4EBE7F0E00E948F
:1034D000BB63002351F40E949D63A091A4070E9446
:1034E0009D63A091A5070E949D630895EBE7F0E01E
:1034F0000E94BB63002331F40091790700233AF066
:10350000889408950027EBE7F0E00E94C563002748
:10351000009379072B980894089500917907002368
:1035200052F4EAE7F0E00E94BB6300950E94C56395
:1035300000270093790708950FEFEAE7F0E00E9473
:10354000C563D4DF0895A4E6B0E00E9442630E9400
:103550003B2A0E94AD2E0E9481610E94B3610E94AD
:1035600081610E948B3600E00093450700E00093E4
:10357000460700E00093470700E00093480703E098
:10358000009397050FEF0093980500E000939905CD
:1035900001E000939C060EE800939D0600E0009376
:1035A0009E0600270093A4070093A5070093A60793
:1035B0000093970700936E070093790700937607AF
:1035C000AFEAA0938007A2E0A0938107A1E0A093B7
:1035D0008E07A093830700937407009375070093E9
:1035E000B0070093B1070093B2070093B3070093AD
:1035F000B4070093B5070093B6070093B70700938D
:10360000B8070093B9070093BA070093BB0700936C
:10361000BC070093BD070093BE070093BF0700934C
:10362000580700935907AAEFA0935A07A0935B0786
:10363000A0935C07A0935D07A0935E07A0935F072C
:10364000A0936007A0936107A3E0A093FA07A0EFFF
:10365000A0939D070E94225E0E94E2390E941C15E1
:1036600000917A07002312F40C9429157894E4E76A
:10367000F0E00E94BB63002351F00E94073603B1C3
:10368000009502950F7089F00E9411350EC00FEF62
:10369000009396070E945563083011F40E94B42EDF
:1036A000013019F40FEF009379070E94694006E09A
:1036B00006BB0E943E520E949A570E94793F0E9488
:1036C000882D0E94DF2F0E94484A0E9414490E94C0
:1036D000C2120E94B22A0E947C2C0E94A05200902A
:1036E00070071090710701240092930700919307CF
:1036F000002332F40E94552D00917007009371074A
:103700000091780700232AF40027009378070E948D
:103710009A3C0091700700230AF4CBCF03B10095C7
:1037200002950F7039F400270093960700E000938C
:103730009007BFCF009190070395009390070091E9
:103740009007023309F0B5CF00919607002372F37A
:1037500000E000936F000E9455630F7039F3013051
:1037600029F0083061F00E94E7259FCF0E94D12BFD
:103770000E94761A48F40FEF0093960796CF0E94A6
:10378000D12B0E948D1AF7CF29980E94FB250E9409
:1037900077540E9405590E948B540E94112685CFB0
:1037A0000E941C440E9402450E949445A9D1C2D4A3
:1037B0000E948B570091FA07033041F0C9E10E9443
:1037C00047630091DB0700230AF48CC00091A60731
:1037D000002311F40E94FB0710915B0520915C050A
:1037E00030915D054091D5065091D6066091D7067F
:1037F0000E94E0637093E8058093E9052092EA0552
:1038000010915E0520915F05309160054091D506CD
:103810005091D6066091D7060E94E0637093EB0545
:103820008093EC052092ED057FD20E94C461EAE30B
:10383000F9E30E9457600091A607002359F0033076
:103840004CF4A0916C07AA2329F0ECE8F5EC0E9457
:10385000576004C0E4E4F6EC0E94386000E0009396
:103860003F070AE0009340070091A607E4E8F9E368
:103870000E943860E0E6F9E3B091E805A091E9051F
:10388000D091EA05F3D00091A607E2E9F9E30E949E
:103890003860E6E6F9E3B091EB05A091EC05D09134
:1038A000ED05E4D0E8E4F9E30E9457600091A70732
:1038B000E2E5F6EC0E94386000E000933F0709E380
:1038C00000934007EAE6F4EC0E945760E6E5F9E36E
:1038D0000E94385F0E94816100914D07023014F40C
:1038E0000E9457560E945563083009F40895043029
:1038F00021F40E94D12BCFD05BCF023039F45ED1BE
:103900000E94D12BA091A60733D152CF013009F0EC
:103910004FCF0091A607039507300CF00027023027
:1039200029F4A0916C07AA230AF403950093A60733
:103930000E94D12B0E9473633BCF54756E696E67F2
:10394000204D6F64653A2000496E70757420526195
:103950007465203A20004C007F09546573740000A0
:10396000417578320000417578330000522047617C
:10397000696E000050205472696D0000522054722C
:10398000696D00005A39C4C5C4C5C4C5C4C57439FD
:10399000C4C55A39D4C5D4C5D4C5C0AB7C396C397B
:1039A0004E4F5400506C656173652063656E74659D
:1039B0007220796F75722054580074756E696E6745
:1039C00020636F6E74726F6C73206E6F772E0000C1
:1039D000412054756E696E67204D6F6465206D756A
:1039E00073742062650073656C656374656420663A
:1039F000697273742E00A439BA39D039E639534547
:103A00005420494E505554205241544500005365AE
:103A10006C65637420696E707574207261746520C2
:103A2000666F7200616C6C2074756E696E67206DD4
:103A30006F6465732E20557365004C4F5720666F79
:103A4000722066696E652D74756E696E672E000052
:103A50004241434B20204C4F57204D454449554D42
:103A60002048494748000E3A243A3A3A00913F0725
:103A7000002309F408950FE20E945D600E945760E0
:103A800002E400933F070E94D05F0E94B15F00E014
:103A900000933F0708950E94C46106E100933F0729
:103AA000EEEFF9E30E9457600DE00093400703E05A
:103AB000E6E6FAE30E94416000E000933F0709E375
:103AC00000934007E0E5FAE30E9457600E9481619D
:103AD0000E947763077089F0043011F4A1E008C0F8
:103AE000023011F4A2E004C0013009F0D4CFA3E009
:103AF000EDECF0E00E949B6303D00E947363089595
:103B0000EDECF0E00E949563A370AA2309F4A2E013
:103B1000A13051F400E00093400500E0009341051E
:103B200006E20093420515C0A23051F400E0009374
:103B3000400500E00093410503E70093420509C0FA
:103B400000E00093400500E00093410500EC009385
:103B50004205A093A707009140050093D506009168
:103B600041050093D606009142050093D7060895BB
:103B70000E94D2610AE000933F07AA2341F4E0EAE1
:103B8000F9E30E9457600AE300933F0703C002E293
:103B900000933F07E4E6F4EC0E94B95FE6EFF9E337
:103BA000AA2311F4EAEFF9E302E00E9441600E94C7
:103BB0001C600E9481610E947E6308950091A607A7
:103BC000002309F40895B091E805A091E905D0918A
:103BD000EA050130C9F4B093D605A093D705D09378
:103BE000D8050027CC278BD00027C2E0B091EB0589
:103BF000A091EC05D091ED05B093DF05A093E00511
:103C0000D093E1057CD008950230C9F401E0CC27BF
:103C1000B093D905A093DA05D093DB0570D001E00D
:103C2000C2E0B091EB05A091EC05D091ED05B09309
:103C3000E205A093E305D093E40561D00895033035
:103C4000C9F4B093DC05A093DD05D093DE0502E056
:103C5000CC2755D002E0C2E0B091EB05A091EC0575
:103C6000D091ED05B093E505A093E605D093E70567
:103C700046D00895043059F4B0935A06A0935B06D9
:103C8000D0935C06E8E8F0E00E948C63089505306C
:103C9000D9F4B0938D06A0938E06D0938F06EEE8EC
:103CA000F0E00E948C63B091EB05A091EC05D091FF
:103CB000ED05B0938A06A0938B06D0938C06ECE8B2
:103CC000F0E00E948C630895B093D206A093D306CF
:103CD000D093D406E5EBF0E00E948C63B091EB0545
:103CE000A091EC05D091ED05B093CF06A093D0063E
:103CF000D093D106E1EBF0E00E948C630895E4E4F8
:103D0000F0E0000F000F000FE00F0027F01F0C2F56
:103D1000000FE00F0027F01F0A2F0E94C3633196A7
:103D20000B2F0E94C36308950091A607002309F496
:103D300008950E94FB0710915B0520915C0530916E
:103D40005D054091D5065091D6066091D7060E9438
:103D5000E06370935B0580935C0520925D05109194
:103D60005E0520915F05309160054091D506509128
:103D7000D6066091D7060E94E06370935E0580933B
:103D80005F05209260050091A6070130C1F5009102
:103D9000D605009346050091D7050093470500918D
:103DA000D805009348050091DF0500934005009178
:103DB000E005009341050091E1050093420573D1B0
:103DC0000E948D420091E8050093B2050091E9053B
:103DD0000093B3050091EA050093B40500914005F6
:103DE0000093C405009141050093C505009142056B
:103DF0000093C60500916C070023F2F0089502308D
:103E0000A1F50091D905009346050091DA050093CC
:103E100047050091DB05009348050091E2050093FA
:103E200040050091E305009341050091E4050093EE
:103E3000420539D10E948D420091E8050093B505F5
:103E40000091E9050093B6050091EA050093B705D6
:103E5000009140050093C705009141050093C805F6
:103E6000009142050093C90508950330A1F5009122
:103E7000DC05009346050091DD05009347050091A0
:103E8000DE05009348050091E5050093400500918B
:103E9000E605009341050091E7050093420503D133
:103EA0000E948D420091E8050093B8050091E90554
:103EB0000093B9050091EA050093BA050091400509
:103EC0000093CA05009141050093CB05009142057E
:103ED0000093CC050895043009F500915A0600932B
:103EE000460500915B060093470500915C06009330
:103EF0004805D9D000E00093EB050093EC05009352
:103F0000ED050091E805009357060091E90500933F
:103F100058060091EA05009359060895053009F006
:103F200061C030918A0640918B0650918C06609159
:103F30005E0570915F0580916005580F471F361F21
:103F40003093EB054093EC055093ED0530918D06D1
:103F500040918E0650918F0660915B0570915C05D3
:103F600080915D05581B470B360B3093E805409355
:103F7000E9055093EA050091E80500938706009152
:103F8000E905009388060091EA05009389060091EF
:103F9000EB05009384060091EC05009385060091E3
:103FA000ED050093860660918706709188068091E2
:103FB000890602E00E94D1636093870670938806A9
:103FC00080938906609184067091850680918606AB
:103FD00002E00E94D163609384067093850680930B
:103FE000860608953091CF064091D0065091D106B3
:103FF00060915E0570915F0580916005580F471FC5
:10400000361F3093EB054093EC055093ED0530914E
:10401000D2064091D3065091D40660915B05709111
:104020005C0580915D05580F471F361F3093E805EA
:104030004093E9055093EA050091E8050093B7061F
:104040000091E9050093B8060091EA050093B906CE
:104050000091EB050093B1060091EC050093B206C8
:104060000091ED050093B3066091B7067091B80614
:104070008091B90604E00E94D1636093B706709303
:10408000B8068093B9066091B1067091B20680912E
:10409000B30604E00E94D1636093B1067093B20648
:1040A0008093B3060895309146054091470550919D
:1040B000480560915B0570915C0580915D05580F26
:1040C000471F361F3093E8054093E9055093EA05F2
:1040D0003CF400E00093E8050093E9050093EA054D
:1040E00030914005409141055091420560915E0537
:1040F00070915F0580916005580F471F361F309300
:10410000EB054093EC055093ED053CF400E0009383
:10411000EB050093EC050093ED050091EB05009392
:1041200040050091EC05009341050091ED050093D9
:10413000420508950091A607023039F400916C07FA
:1041400000231AF401E00093A607089500E000930D
:10415000EB050093EC050093ED050E9469400E9479
:10416000801D0E9411260E948B540FEF0093A6071A
:10417000002700937C0700937D0700919707063086
:1041800014F00FEF01C0002700937B070E94D2615B
:104190000091700700235AF402E200933F0706E102
:1041A00000934007E2E7FCE70E9457606FC00CE114
:1041B00000933F07E2EEF3E40E94B95F00E0009352
:1041C0003F0700919707043064F4A0916C07AA237D
:1041D00041F0017000939707ECE8F5EC0E945760FE
:1041E00004C0EAE1F4E40E94386000E20E945D60ED
:1041F00000919707E0E3F4E40E9438600E94D05FEA
:10420000C091970741D10E9483630E94B15F00E093
:1042100000933F07E0ECFBEA0E94FE3E0E945760DD
:1042200000919D07077FA0917307A0950A2B59F075
:1042300000919E07039500939E07017021F0EAE02C
:10424000F4E40E94385F00E000933F0703E200932C
:104250004007EAEEF3E40E945760B091EB05A091AD
:10426000EC05D091ED050E94B15F00E000933F079F
:10427000EAEFF3E40E94153E00E000933F0709E3F4
:1042800000934007E0E8F4EC0E9457600E948161CF
:104290000E943E520E948B570E94793F0E945524F3
:1042A0000E9450220E94484A0E9414490E94C21251
:1042B0000E94B22A0E947C2C0E94A052009070079B
:1042C0001090710701240092930700919307002337
:1042D00032F40E94552D00917007009371070091F0
:1042E0007807002322F400270093780746CF009137
:1042F000700700230AF4CCCF03B1009502950F702C
:1043000021F400E000939007C3CF0091900703953C
:104310000093900700919007023309F0B9CF0E94F3
:104320005563083051F400E000936F000093A60736
:104330000E94FB250E9477540895043071F400E038
:1043400000936F000E94FB250E9477540E944B1D32
:104350000E9411260E948B5410CF023089F4A09144
:104360009707A395AB3014F0AA2707C000916C07FC
:1043700000231AF4A23009F4A4E0A0939707FDCE1D
:10438000013061F600E000936F000E94FB250E945F
:104390007754B091E805A091E905D091EA05C09164
:1043A0009707ECE5F4E404E00C9FE00DF11DC591E6
:1043B000D59105901590E02DF12D0E940D47A02D6F
:1043C000B12DAF93BF93C09197075ED0BF91AF91CE
:1043D0000E948C630E9469400E9411260E948B54A7
:1043E000CCCE54554E494E47000052656D6F7465F2
:1043F00020496E7075743A200000466C69676874D5
:10440000204D6F6465203A20000000197F22526F12
:104410006C6C000050697463680094C594C59CC5B9
:104420009CC5A6C5A6C580C56EC56EC584C584C518
:10443000C4C5D4C5C4C5D4C5C4C5D4C5C4C50E443B
:1044400014440E441444440048004C0050005400EE
:10445000580088008C008E00B100B5000000840375
:104460000000840300008403000084030000840330
:1044700000008403000084037CFC84037CFC840330
:10448000D8DC2823D8DC2823E3E2F2E201E00C9F09
:10449000E00DF11DEE0FFF1FA591B491FD010895F0
:1044A00000E00093400500E00093410509E100931E
:1044B000420510915B0520915C0530915D054091AE
:1044C000400550914105609142050E94E063709360
:1044D0005B0580935C0520925D0510915B05209142
:1044E0005C0530915D054091D5065091D6066091EE
:1044F000D7060E94E06370935B0580935C05209271
:104500005D0500915B050093EB0500915C05009350
:10451000EC0500915D050093ED05009197070023E0
:10452000F1F40091D605009340050091D705009362
:1045300041050091D805009342058DD100914005B9
:104540000093B205009141050093B3050091420527
:104550000093B40500916C07002392F10895013097
:1045600001F50091DF05009340050091E0050093FF
:1045700041050091E105009342056DD10E948D42F5
:10458000009140050093C405009141050093C505C5
:10459000009142050093C60500916C07002372F15B
:1045A00008950230D1F40091D9050093400500919F
:1045B000DA05009341050091DB05009342054BD1DC
:1045C000009140050093B505009141050093B605A3
:1045D000009142050093B70508950330E1F400917E
:1045E000E205009340050091E30500934105009129
:1045F000E405009342052FD10E948D4200914005B1
:104600000093C705009141050093C805009142053C
:104610000093C90508950430D1F40091DC0500939E
:1046200040050091DD05009341050091DE050093F2
:10463000420511D1009140050093B8050091410554
:104640000093B905009142050093BA05089505301D
:10465000E1F40091E505009340050091E605009323
:1046600041050091E70500934205F5D00E948D4277
:10467000009140050093CA05009141050093CB05C8
:10468000009142050093CC0508950630D1F40091C5
:104690005A060093400500915B0600934105009186
:1046A0005C0600934205D7D0009140050093570661
:1046B0000091410500935806009142050093590668
:1046C0000895073089F530918A0640918B06509104
:1046D0008C0660915B0570915C0580915D05580FBB
:1046E000471F361F3093E8054093E9055093EA05CC
:1046F0000091E805009384060091E9050093850682
:104700000091EA0500938606609184067091850603
:104710008091860602E00E94D163609384067093C4
:104720008506809386060895083089F530918D06B8
:1047300040918E0650918F0660915B0570915C05EB
:1047400080915D05580F471F361F3093E805409351
:10475000E9055093EA050091E8050093870600916A
:10476000E905009388060091EA05009389066091A7
:104770008706709188068091890602E00E94D163C5
:1047800060938706709388068093890608950930A0
:1047900089F53091CF064091D0065091D1066091B5
:1047A0005B0570915C0580915D05580F471F361FB2
:1047B0003093E8054093E9055093EA050091E80538
:1047C0000093B1060091E9050093B2060091EA0555
:1047D0000093B3066091B1067091B2068091B30662
:1047E00004E00E94D1636093B1067093B206809397
:1047F000B30608953091D2064091D3065091D40665
:1048000060915B0570915C0580915D05580F471FB5
:10481000361F3093E8054093E9055093EA0500916F
:10482000E8050093B7060091E9050093B8060091EA
:10483000EA050093B9066091B7067091B8068091B9
:10484000B90604E00E94D1636093B7067093B8067E
:104850008093B906089530914005409141055091EB
:10486000420560915B0570915C0580915D05580F74
:10487000471F361F3093E8054093E9055093EA053A
:104880003CF400E00093E8050093E9050093EA0595
:104890000091E805009340050091E905009341056A
:1048A0000091EA05009342050895009170070023E6
:1048B000CAF03091990640919A06415030403093A9
:1048C000990640939A060CF02FC00FEF00937807DB
:1048D00001E00093990600E900939A0600E0009336
:1048E0009B0622C000919D070023F1F000917607FE
:1048F000002311F0AAF00EC008E22B9AE09177078E
:10490000EA95E093770771F4E0919D07E77FE093E4
:104910009D0708C00A9509F005C004EC2B9802C059
:10492000039551F30093760700919B07002322F033
:1049300000917007002312F02B98089500919D07B5
:10494000002309F42B9A08952227E3E7F0E00E9460
:10495000BB63102F0E94C46105E0E8EDFAE40E94F9
:10496000416006E600933F0701E000934007BB2744
:10497000A12FA395DD270E94705F222319F40E94C6
:10498000F35F02C00E94E65FECECFAE404E0029FF1
:10499000E00DF11D0E94385F0E9481610E947763E3
:1049A000083009F40895043021F42A9542F422E0F5
:1049B000CCCF023029F4239523300CF02227C5CF29
:1049C0000130E9F7203091F4A12FA395BB27C1E076
:1049D000D0E0E4E0F0E00E940D47A02DAA951A2F48
:1049E000E3E7F0E00E949D632227AFCF213029F456
:1049F000C0D00E94225E21E0A8CFE6EBFAE40E943C
:104A0000FB61013011F022E0A0CF0E94D1360E945C
:104A1000225E0E946C3808950E94D261AA2341F45C
:104A200008E200933F07E2EEFAE40E94576007C0F5
:104A300002E200933F07EEE5F4EC0E94576001E0CC
:104A400000934407B2E000E000933F0701E10093C8
:104A500040070A2FBF930F93E6E6FBE40E943860FD
:104A600000E000933F070E94B25F0F910395BF9152
:104A7000BA9581F70E941C600E9481610E947E634A
:104A8000089544656661756C742050726F66696C38
:104A9000653A200046756E6374696F6E733A000064
:104AA000496D706F727420757365722070726F66D5
:104AB000696C652E000052657365742061637469CA
:104AC00076652070726F66696C652E0065006D09F1
:104AD000001B7F2400247F2D824AC0AB944AA04A49
:104AE000B64A444F4E450000416C6C2064617461CD
:104AF00020636F706965642066726F6D0000746872
:104B0000652073656C65637465642070726F666997
:104B10006C652E005468652073656C65637465640C
:104B20002070726F66696C6573006D7573742062B6
:104B30006520646966666572656E742E0000507249
:104B40006F66696C652023312063616E206F6E6C27
:104B50007900626520656469746564206D616E75B5
:104B6000616C6C792E00E84AFE4A144B2A4B3E4B8E
:104B7000524B00910308002311F4A4E00FC0A1E000
:104B8000BB27C1E0D0E0E4E0F0E00E940D47A02D9B
:104B9000AA95009103080A1719F4A2E03DDF0895D1
:104BA000AF93E0EAFAE40E94FB61013011F0AF91AB
:104BB0000895EE27CF91299AFC2F0E94BB63A02F66
:104BC0000E949B63EE23C1F72998AA27E7CF023002
:104BD00019F0043009F008950695017009F40FEFFB
:104BE000A09103080A0F0370009303080E948B36FC
:104BF0000E94225E089500910308002309F408959D
:104C000003950093050804E6009304080027009329
:104C1000060800E004BD05E005BD01E000936E005C
:104C2000089500E000936E002B980895FFB69091D0
:104C300004089A95C9F4E0900608EE2019F42B9A1E
:104C40009FE00FC02B98909105089A9521F09093C2
:104C500005089FE006C0909103089395909305087E
:104C600098ECE094E092060890930408FFBE189533
:104C70000091ED060093F2060091EE060093F30614
:104C80000091EF060093F4060091F0060093F506FC
:104C90000091F1060093F60608953090ED064090DD
:104CA000EE065090EF066090F0067090F1062091AD
:104CB000ED063091EE064091EF065091F0066091BE
:104CC000F1060E945164B0931A07C0931B07D0935A
:104CD0001C07E0931D07F0931E0730901A074090C1
:104CE0001B0750901C0760901D0770901E0701E085
:104CF0000E94EA6430921A0740921B0750921C07E8
:104D000060921D0770921E0701E000931F0700E0EC
:104D10000093200700E00093210700E000932207A2
:104D200000E00093230730901F0740902007509029
:104D30002107609022077090230720911A07309175
:104D40001B0740911C0750911D0760911E07761AA2
:104D5000650A540A430A320A3092F7064092F8066E
:104D60005092F9066092FA067092FB060895B0938D
:104D7000ED06A093EE06D093EF06C093F006F093F5
:104D8000F1063090ED064090EE065090EF066090F0
:104D9000F0067090F1062091DE063091DF0640911A
:104DA000E0065091E1066091E2060E945164B093E2
:104DB000ED06C093EE06D093EF06E093F006F09375
:104DC000F1060895FF27CD2FDA2FAB2FBB2312F466
:104DD000BFEF0895BB2708954BDF5FDF30901007CA
:104DE00040901107509012076090130770901407BD
:104DF0002091F7063091F8064091F9065091FA0695
:104E00006091FB060E945164B0932E07C0932F0758
:104E1000D0933007E0933107F093320730901507B5
:104E20004090160750901707609018077090190768
:104E30002091F2063091F3064091F4065091F50668
:104E40006091F6060E945164B0931A07C0931B0745
:104E5000D0931C07E0931D07F0931E0730902E0798
:104E600040902F07509030076090310770903207C4
:104E700020911A0730911B0740911C0750911D0784
:104E800060911E07761A650A540A430A320A309264
:104E90002E0740922F075092300760923107709290
:104EA0003207309010074090110750901207609021
:104EB0001307709014072091F2063091F306409189
:104EC000F4065091F5066091F6060E945164B09385
:104ED0003307C0933407D0933507E0933607F09338
:104EE00037073090150740901607509017076090CD
:104EF0001807709019072091F7063091F806409135
:104F0000F9065091FA066091FB060E945164B09335
:104F10001A07C0931B07D0931C07E0931D07F0935B
:104F20001E0730903307409034075090350760904B
:104F300036077090370720911A0730911B07409170
:104F40001C0750911D0760911E07760E651E541EAA
:104F5000431E321E30923307409234075092350779
:104F600060923607709237070895F894A0918400F4
:104F7000B09185007894E0914A07F0914B07A09397
:104F80004A07B0934B07AE1BBF0B2AF4E0E0F0E0FA
:104F9000EA1BFB0BDF01DD27B695A795D795B695E4
:104FA000A795D795B695A795D795B695A795D79573
:104FB000CC27FF27B093E806A093E906D093EA0632
:104FC000C093EB06F093EC063090E8064090E906BB
:104FD0005090EA066090EB067090EC062091E30694
:104FE0003091E4064091E5065091E6066091E706AF
:104FF0000E945164B093DE06C093DF06D093E006B2
:10500000E093E106F093E206B0917905A0917A056C
:10501000D0917B05D7DEABDE00910107009310072E
:1050200000910207009311070091030700931207F4
:1050300000910407009313070091050700931407DC
:1050400000910607009315070091070700931607C4
:1050500000910807009317070091090700931807AC
:1050600000910A0700931907B7DE00912E070093FD
:10507000010700912F07009302070091300700936A
:105080000307009131070093040700913207009352
:10509000050700913307009306070091340700933A
:1050A0000707009135070093080700913607009322
:1050B00009070091370700930A07B0917605A09180
:1050C0007705D09178057EDE52DE0091FC060093D4
:1050D00010070091FD06009311070091FE06009352
:1050E00012070091FF060093130700910007009339
:1050F0001407009106070093150700910707009316
:1051000016070091080700931707009109070093FD
:10511000180700910A07009319075EDE00912E0719
:105120000093FC0600912F070093FD0600913007C5
:105130000093FE06009131070093FF0600913207AD
:10514000009300070091330700930607009134078E
:105150000093070700913507009308070091360771
:10516000009309070091370700930A07B0916A0579
:10517000A0916B05D0916C0525DEF9DD0091FC0650
:10518000009310070091FD06009311070091FE06A1
:10519000009312070091FF06009313070091000788
:1051A000009314070091010700931507009102076F
:1051B0000093160700910307009317070091040757
:1051C00000931807009105070093190705DE009169
:1051D0002E070093FC0600912F070093FD06009117
:1051E00030070093FE06009131070093FF060091FF
:1051F00032070093000700913307009301070091E5
:1052000034070093020700913507009303070091CC
:1052100036070093040700913707009305070895A8
:105220003090FC064090FD065090FE066090FF0610
:10523000709000072091FC063091FD064091FE061B
:105240005091FF06609100070E945164B0931A07C5
:10525000C0931B07D0931C07E0931D07F0931E0714
:1052600030900107409002075090030760900407B8
:1052700070900507209101073091020740910307C4
:1052800050910407609105070E945164B0931F0775
:10529000C0932007D0932107E0932207F0932307C0
:1052A00030901A0740901B0750901C0760901D0714
:1052B00070901E0720911F07309120074091210711
:1052C0005091220760912307760E651E541E431EDF
:1052D000321E30921A0740921B0750921C076092B0
:1052E0001D0770921E0730900607409007075090E8
:1052F00008076090090770900A072091060730910F
:105300000707409108075091090760910A070E941A
:105310005164B0931F07C0932007D0932107E093F7
:105320002207F093230730901A0740901B075090F4
:105330001C0760901D0770901E0720911F07309179
:105340002007409121075091220760912307760E94
:10535000651E541E431E321E30920B0740920C07EE
:1053600050920D0760920E0770920F0708950091FA
:10537000FC06009329070091FD0600932A0700917F
:10538000FE0600932B070091FF0600932C07009167
:10539000000700932D072ED00091A50600939F06CD
:1053A0000091A6060093A0060091A7060093A1060F
:1053B00000910107009329070091020700932A0733
:1053C0000091030700932B070091040700932C071B
:1053D0000091050700932D070DD00091A5060093BD
:1053E000A2060091A6060093A3060091A7060093CB
:1053F000A40608950AE500931F0700E00093200724
:1054000000E00093210700E00093220700E00093F2
:1054100023073090290740902A0750902B0760906F
:105420002C0770902D0720911F0730912007409185
:10543000210750912207609123070E945164B09385
:105440001A07C0931B07D0931C07E0931D07F09326
:105450001E07B0911A07A0911B07D0911C07C0919D
:105460001D07F0911E07AFDCB093A506A093A6061A
:10547000D093A706089502E301B90AE004B90CEF3E
:1054800007B902EF0AB90FEF00937E0005EF05B9E7
:1054900003E008B90DE00BB900E00093800002E0E2
:1054A0000093810000E00093820005E10093690011
:1054B00003E00DBB0AE00093680001E00093730075
:1054C00005E000936C000091B9000C7F0093B900D7
:1054D00001E10093B8005D9A5C9A5E982B9A299A34
:1054E000A4EFB1E00E9442632B9829985E9AA4E64B
:1054F000B0E00E94426308950E94D26106E10093E9
:105500003F07EEE3F5E50E94B95F04E0ECE5F5E561
:105510000E94416004E200933F070AE100934007C4
:1055200000914D07E0EEF1E00E9438600E940460B7
:105530000E9481610E9477630830E1F70895564523
:105540005253494F4E004B4B322E312B2B20416C86
:105550006C2D696E2D4F6E652052350046558001C9
:10556000C0AB1CC500E000934005009341050093CB
:1055700042053091810640918206509183066091E8
:10558000400570914105809142055817470736073D
:1055900059F030918106409182064150304030935D
:1055A00081064093820603C0002700939C07009168
:1055B000A10700236AF4009180070A9500938007F1
:1055C000002331F400270093A107AFEAA0938007DE
:1055D00000907007109073070120009293070091CC
:1055E0009307002322F500917E07002302F13091FA
:1055F0007E0640917F064150304030937E064093B6
:105600007F06ACF403E000937E0600E200937F0681
:1056100000E0009380060FEF00939C0700E00093EA
:10562000810604E10093820600E000938306009067
:10563000700710907107012400929307009193075F
:1056400000233AF400E0009393060093940600933D
:10565000950600E00093400500E00093410501E05D
:10566000009342053091930640919406509195061F
:10567000609140057091410580914205580F471F88
:10568000361F3093930640939406509395060DE78A
:105690000093400500E00093410500E000934205BF
:1056A0003091930640919406509195066091400583
:1056B000709141058091420558174707360764F0FD
:1056C00000914005009393060091410500939406D4
:1056D000009142050093950600917E07002322F079
:1056E00000917D07002372F400917F07002319F1D8
:1056F0000A9500937F0700E00093960600939706B3
:10570000009398060AE0009340050CEF00934105D2
:1057100000E8009342053091930640919406509121
:10572000950660914005709141058091420558179A
:105730004707360704F1309196064091970641508D
:1057400030403093960640939706ACF407E0009300
:10575000960600ED0093970600E0009398060FEF81
:1057600000939C0701E00093810600E90093820604
:1057700000E00093830600909C0710909B0701288F
:1057800000929307009093071090A10701280092C0
:10579000930700919307002312F029980895299AFE
:1057A00008950F93EF93FF93EEEAF0E00E94B96340
:1057B000FF91EF91002312F00F910895CF93299A52
:1057C000C2E30E9447632998CF910F910895402F1B
:1057D0002A2F3B2F0E94B36101E00093430704E0AE
:1057E00000934407203049F00AE300933F0700E0AC
:1057F0000093400700E00E945D60022F0B5F0417DA
:1058000049F00AE300933F0702E30093400701E0F9
:105810000E945D6001E00093440708E000934007A8
:1058200015E0FE0104E1029FE00DF11D00E0009390
:105830003F07A4E105910E945D60AA95D9F7009009
:10584000400708E0000E009240071A9579F708E03B
:10585000039F002D095F00934007075F00934207F5
:1058600000E000933F070FE70093410700E000933B
:1058700043070E94265F0E94DC5F0E948161AEE1C7
:105880000E945563003021F00970D1F7AA95C1F745
:105890000E947863083019F4AA27889429C004303C
:1058A00061F4303019F03A950C947B2C203019F0CB
:1058B0002A950C947B2C0C947B2C023071F43430A0
:1058C00019F033950C947B2C042F0550201719F0F8
:1058D00023950C947B2C0C947B2C013061F40E945A
:1058E000B3610E9481610E947363A22FA30F089489
:1058F000C22FD32F08956ECF30918E0540918F0522
:105900005091900560919705709198058091990547
:1059100058174707360764F400918E0500939705E2
:1059200000918F05009398050091900500939905CB
:1059300030918E0540918F055091900560919405AE
:105940007091950580919605581B470B360B309347
:10595000AF054093B0055093B1056091AF057091CC
:10596000B0058091B10508E00E94D1636093AF0556
:105970007093B0058093B1053091940540919505E1
:10598000509196056091AF057091B0058091B10579
:10599000580F471F361F3093940540939505509339
:1059A00096053091630640916406509165066091BA
:1059B00094057091950580919605581B470B360B01
:1059C0003093AF054093B0055093B1050AF461C020
:1059D0006091AF057091B0058091B10502E00E9421
:1059E000D1636093AF057093B0058093B10500E07B
:1059F0000093400500E10093410500E0009342055B
:105A00003091AF054091B0055091B10560914005CE
:105A1000709141058091420558174707360764F099
:105A2000009140050093AF05009141050093B0053A
:105A3000009142050093B1053091750640917606BC
:105A4000509177066091AF057091B0058091B105D6
:105A5000580F471F361F30937506409376065093B4
:105A60007706B0917506A0917606D0917706AA23A5
:105A700082F000919A07002379F00A9500939A0723
:105A80000FEF00939B0700914D07003009F02A9A11
:105A9000089504E600939A07002700939B0700915E
:105AA0004D07003009F02A98089500E0009346055C
:105AB00001E00093470508E3009348051091630651
:105AC0002091640630916506409146055091470546
:105AD000609148050E94E063709340058093410502
