:020000020000FC
:100000000C943F000C9411540C94EA530C943E0051
:100010000C943E000C9451540C943E000C943154BA
:100020000C943E000C943E000C943E000C945152F3
:100030000C943E000C9412500C9445500C943E00CD
:100040000C943E000C943E000C9448220C943E000C
:100050000C940E120C943E000C943E000C943E0046
:100060000C943E000C943E000C943E000C943E0018
:100070000C94D50C0C943E000C943E0018950FEF98
:100080000DBF00E10EBFA4E6B0E00E94965EE3E77C
:10009000F0E00E94FD5E037000930008E1E7F0E0ED
:1000A0000E94FD5E00934807003011F40C94B415D3
:1000B000013011F40C942104023011F40C94080A5C
:1000C0000C94DE0F00910008002321F002E00E9452
:1000D000FB4508951091480722270E94655D06E1BF
:1000E00000933C07E0E8F1E00E94EA5B00E0009347
:1000F0003C070AE100933D0701E000934107E8E86F
:10010000F1E00E94EA5B012FE0EEF1E00E94E15B8A
:10011000222371F0022F017069F003E000933C0785
:100120000CE200933D07E0E9F1E00E94EA5B02C0C7
:100130000E949F5B0E94145D222349F0A8E5B2E073
:100140000E94965E239509F0C8CF22E0C6CF0E9498
:10015000BE5E083009F40895043021F41A957AF44B
:1001600013E0BBCF023029F41395143044F011276B
:10017000B4CF21E0A12FE1E7F0E00E94DF5EADCF38
:100180005258204D4F4445004D6F64653A200000A1
:100190005265737461727420697320726571756938
:1001A0007265642100005374616E64617264205250
:1001B00058004350504D2028616B612E2050504D07
:1001C000290046757461626120532E4275730000E8
:1001D000536174656C6C6974652044534D32000042
:1001E000A601B201C201D0010E94163D0E94432225
:1001F0000E943F520E94655D0091720700235AF4ED
:1002000002E200933C0706E100933D07EAE5F6E7CA
:100210000E94EA5B51C00CE100933C07EEE0F4E081
:100220000E94EA5B01E00093410700E000933C0775
:1002300001E100933D0700918D07EAE3F4E00E949D
:10024000E15B00E20E94F05B00918D07E0E5F4E0E5
:100250000E94E15B0E94895BC0918D0725D10E94BD
:10026000C55E0E94405B00E000933C070EE10093F6
:100270003D07E6E1F4E00E94CE3B0E94EA5B00917C
:100280009407077FA0917407A0950A2B59F000915D
:100290009507039500939507017021F0EAE2F4E0D9
:1002A0000E94085B00E000933C0707E200933D07D3
:1002B0000E94F93A0E94A95B0E94145D0E94EF4FD0
:1002C0000E94A3540E946D260E94313C0E94272A5E
:1002D0000E947B470E940B2C0E9447460E94DC1C18
:1002E0000E9433270E9425290E94515000907207D6
:1002F0001090730701240092890700918907002359
:1003000032F40E94F4290091720700937307009160
:100310007807002322F40027009378076BCF009121
:10032000720700230AF4CACF03B1009502950F703B
:1003300021F400E000938707C1CF00918707039560
:100340000093870700918707023309F0B7CF0E9417
:10035000A95E083041F400E000936F000E942D2256
:100360000E9424520895043041F4A0918D07AA956B
:100370000AF4AAE0A0938D073DCF023041F4A0918A
:100380008D07A395AB30B4F3AA27F4CF33CF013058
:10039000E9F500E000936F000E942D220E94245294
:1003A000C0918D0781D0EF93FF930E94C55EECE76B
:1003B000F4E004E00C9FE00DF11DC591D59105908E
:1003C0001590E02DF12D0E942244A02DB12DFF911A
:1003D000EF910E94CE5EC0918D07C43084F40091ED
:1003E0006E07002361F0C23014F4C26001C0C17016
:1003F000AF93BF9359D0BF91AF910E94CE5E0E9440
:10040000163D0E9443220E943F52F4CE57CF5455CE
:100410004E494E470000526561647920666F722034
:1004200074616B652D6F66662100001D7F26526F1B
:100430006C6C000050697463680086BC86BC8EBC1E
:100440008EBC98BC98BC72BC60BC60BC76BC76BCF0
:10045000B6BCC6BCB6BCC6BCB6BCC6BCB6BC2E041C
:1004600034042E043404440048004C00500054006E
:100470005800830087008900A100A50000008403C4
:100480000000840300008403000084030000840350
:1004900000008403000084037CFC84037CFC840350
:1004A0000083007D0083007DE3E3F2E001E00C9F28
:1004B000E00DF11DEE0FFF1FA591B491FD01089510
:1004C000112700910008002321F002E00E94FB4563
:1004D00008950E94885700918B0500934B06009168
:1004E0008C0500934C0600918D0500934D060E94EB
:1004F000655D02E200933C0701E00093400500E9DE
:100500000093410500E00093420530914B06409175
:100510004C0650914D0660914005709141058091C7
:10052000420558174707360734F400903C0706E0A9
:10053000000E00923C071F930E94823A1F9101E037
:100540000093410700E000933C0701E100933D0761
:1005500000270F93E2E4F7E00E94E15B00E00093E4
:100560003C0700903D0709E0000E00923D070F9107
:100570000395043071F70E949F5BE2E3F7E004E02B
:10058000019FE00DF11D0E94085B0E94145D0E9416
:10059000E3530E94A95E083009F40895043029F459
:1005A0001A9513700E94BA5E94CF023011F413951D
:1005B000F8CF0130B1F7103019F4AAE0FFD089CF9D
:1005C000113019F4A2E0FAD084CF1230B1F0B0911A
:1005D0008E05A0918F05D0919005C1E0DCEFEFEF83
:1005E000F3E00E942244A02DB12DDD27B0938E05AB
:1005F000A0938F05D09390056FC000918B05009359
:10060000400500918C050093410500918D050093F4
:10061000420560914005709141058091420502E0DC
:100620000E94135F609340057093410580934205DB
:10063000B0914005A0914105D0914205C4E1D0E0C0
:10064000E4E0F1E00E942244A02DB12DDD27B0931B
:100650004005A0934105D0934205609140057091FB
:1006600041058091420502E00E941C5F60934005B5
:1006700070934105809342053091400540914105BA
:100680005091420560918B0570918C0580918D058C
:10069000581B470B360B3093400540934105509350
:1006A000420530918E0540918F05509190056091E3
:1006B00040057091410580914205580F471F361F34
:1006C00030938E0540938F0550939005B0918E0521
:1006D000A0918F05D0919005E5E7F0E00E94D05EF3
:1006E00060CF557365204B4B322E31204F666673B9
:1006F00065740000557365204B4B322E312E35202A
:100700004F666673657400004D6F646966792056A4
:100710006F6C746167652028312F31302900416486
:100720006A757374204F66667365742056616C75C4
:10073000650000107F1900197F2200227F2B002BFB
:100740007F34E206F40608071E07546865206261DC
:10075000747465727920766F6C74616765006F667A
:100760006673657420686173206265656E207365C9
:1007700074006163636F7264696E6720746F2073C5
:10078000656C6563746564004B4B3220626F617207
:10079000642076657273696F6E2E00004A075E07EB
:1007A00072078807E5E7F0E00E94C75EDD27B09397
:1007B0008E05A0938F05D09390050895BB27DD2764
:1007C000B0938E05A0938F05D0939005E5E7F0E0F8
:1007D0000E94D05E0E94655D02E200933C07EAE859
:1007E000FBEB0E94EA5B00E000933C0701E1009311
:1007F0003D0701E00093410700270F93ECE9F7E084
:100800000E94E15B00E000933C0700903D0709E097
:10081000000E00923D070F910395043071F70E947E
:10082000C55B0E94145D0E94BE5E0130E1F70E942C
:10083000BA5E0895A2E0B0E0E5E7F0E00E94D05E85
:1008400008950E940D05E0E7F0E00E94FD5E009330
:100850009B070E94145D0E94465D0E94145D0E94E9
:10086000243300E00093420700E00093430700E0D8
:100870000093440700E00093450703E000939405CC
:100880000FEF0093950500E0009396050027009375
:100890009C070093700700937607AFEAA0937E074A
:1008A00000937F07A1E0A09386070093A20700931F
:1008B000A3070093A4070093A5070093A60700933E
:1008C000A7070093A8070093A9070093AA0700931E
:1008D000AB070093AC070093AD070093AE070093FE
:1008E000AF070093B0070093B1070093D90703E067
:1008F0000093B607E2EAF7E0E093A007F093A107C0
:10090000A3E0A093F70700E1009394070E94EC593D
:100910000E947E367894E4E7F0E00E94FD5E0023BA
:1009200061F00E94913203B1009502950F7059F069
:100930000E94163D0E949F3106C00E94A95E0830A9
:1009400011F40E94352B0E94163D06E006BB0E9462
:10095000EF4F0E94EE060E942B080E94313C0E943D
:10096000272A0E94B9190E947B470E940B2C0E94E3
:1009700047460E94E61E0E9433270E9425290E94B6
:10098000515000907207109073070124009289075C
:1009900000918907002332F40E94F4290091720724
:1009A000009373070091780700232AF4002700932F
:1009B00078070E9437390091720700230AF4C7CFE5
:1009C00003B100950295077021F400E000938707BA
:1009D000BECF009187070395009387070091870793
:1009E000023309F0B4CF00E000936F000E94A95ECB
:1009F000077059F3013019F00E941E22A4CF0E9403
:100A00007A2829980E942D220E9424520E9445058E
:100A10000E943F520E94432296CF02E301B90BE0AD
:100A200004B90CEF07B902EF0AB90FEF00937E008B
:100A300005EF05B903E008B90DE00BB900E000933C
:100A4000800002E00093810000E0009382000CE04F
:100A50000093690002E00DBB0091B9000C7F009388
:100A6000B90001E10093B8005D9A5C9A5E982B9AF8
:100A7000299AA4EFB1E00E94965E2B9829985E9A7D
:100A8000A4E6B0E00E94965E0895C4EDDAE0A0917D
:100A90004307B091420703E10E949028C0934307A7
:100AA000D093420708F00895AA0FE0E5FCE0EA0FB2
:100AB0000027F01FA591B491FD0109950E947A28A5
:100AC0000E94465D0E94145D0E94A95E0030E1F71D
:100AD0000C94450552656D6F74652054756E696E92
:100AE0006720202020202020504920456469746F11
:100AF00072202020202020202020202053656C669A
:100B00002D6C6576656C2053657474696E6773200F
:100B1000537469636B205363616C696E6720202096
:100B2000202020204D6F64652053657474696E67C2
:100B300073202020202020204D6973632E205365D0
:100B40007474696E677320202020202047696D62CD
:100B5000616C2053657474696E67732020202020B7
:100B600053656E736F722053657474696E6773207A
:100B70002020202041555820537769746368205302
:100B80006574757020202020496E697469616C203D
:100B90005365747570202020202020204350504D34
:100BA0002073657474696E677320202020202020D4
:100BB00052656365697665722054657374202020E0
:100BC0002020202053656E736F722054657374204B
:100BD00020202020202020204D6978657220456447
:100BE00069746F72202020202020202053686F77A6
:100BF000204D6F746F72204C61796F7574202020C6
:100C0000557365722050726F66696C6520202020D4
:100C1000202020204553432043616C696272617437
:100C2000696F6E202020202056657273696F6E20D8
:100C3000496E666F726D6174696F6E204C4344201B
:100C4000436F6E7472617374202020202020202056
:100C500097167B430C2FBF386D371638201E285A45
:100C60003D2BCA343B068B08CD56F3449F2FC22040
:100C70009732E926C72A0E94575D0027E7E9F0E08E
:100C80000F93EF93FF93E4E3FDE00E94E15BFF919C
:100C9000EF910E94D75E06E300933C070E94895BB8
:100CA000BB270E94405B00E000933C0700903D079B
:100CB00009E0000E00923D070F910395053001F702
:100CC0000E94A95BEEE3FDE004E0019FE00DF11D51
:100CD0000E94085B0E94145D0E94BE5E083009F409
:100CE0000895043021F41A950AF414E0C4CF0230B8
:100CF00029F41395153009F410E0BDCF0130C9F483
:100D0000E7E9F0E001E0019FE00DF11D0E94D75EF0
:100D1000C1E0D0E0E5E0F0E0B0E00E942244A02D88
:100D2000B12DE7E9F0E001E0019FE00DF11D0E9427
:100D3000DD5EA1CF86BC8EBCA0BC98BCAABC410025
:100D40004909410949124112491B411B49244124C7
:100D5000492DAF93BF93EF93FF93A0918400B0917F
:100D60008500E0919E07F0919F07A0939E07B093A6
:100D70009F07AE1BBF0B2AF4E0E0F0E0EA1BFB0B81
:100D8000DF01EAE6F8E1AE17BF0768F0E2EAF7E054
:100D90009091B6079A951AF09093B60712C09FEFFC
:100DA0009093D9070EC0E091A007F091A107A193FD
:100DB000B193A2EBB7E0EA17FB0718F011F0E2EBF2
:100DC000F7E0E093A007F093A10799279093B40769
:100DD000FF91EF91BF91AF91FFBE1895E7E9F0E069
:100DE000F9D00E94C855DD27B0934905A0934A0564
:100DF000D0934B05E8E9F0E0EDD00E94C855DD271F
:100E0000B0934C05A0934D05D0934E05E9E9F0E071
:100E1000E1D00027009374070E94DB55EBE3FBE071
:100E2000AE1BBF0BE0E0F0E0AE17BF070CF405C04F
:100E3000E5E3FCE0AE17BF072CF0A0E0B0E00FEF59
:100E400000937407DD27B0934F05A0935005D0930E
:100E50005105EAE9F0E0BED00E94C855DD27B09305
:100E60005205A0935305D0935405EBE9F0E0B2D0BE
:100E70000E94C855CC27E8EAFDEFAE17BF079CF0EB
:100E8000C395E8E3FFEFAE17BF076CF0C395E8EC3E
:100E9000F0E0AE17BF073CF0C395E8E5F2E0AE170F
:100EA000BF070CF0C395C0937F07DD27B0935505AE
:100EB000A0935605D0935705ECEAF7E0F894A1917A
:100EC000B08178940E94C855DD27B0935805A0934F
:100ED0005905D0935A05EEEAF7E0F894A191B08154
:100EE00078940E94C855DD27B0935B05A0935C05FC
:100EF000D0935D05E0EBF7E0F894A191B081789490
:100F00000E94C855CC27E0E7FEEFAE17BF073CF0C4
:100F1000C395E0E9F1E0AE17BF070CF0C395C093AD
:100F20008607DD27B0935E05A0935F05D09360052B
:100F30000091D9070023B2F401C008950091B407CD
:100F400003950093B4070090B4071090B5070114FF
:100F5000A0F303E00093B607002700937F070FEF8D
:100F60000093800700270093D90700E0009349050C
:100F700000934A0500934B0500934C0500934D05E3
:100F800000934E0500934F050093500500935105C3
:100F900000935205009353050093540500935505A3
:100FA0000093560500935705009358050093590583
:100FB00000935A0500935B0500935C0500935D0563
:100FC00000935E0500935F05009360050FEF0093AB
:100FD000740708950E94FB5E0A95002EE2EAF7E08E
:100FE00002E0009DE00DF11DF894A191B08178948C
:100FF000089500E00093400500E00093410509E1F9
:1010000000934205109158052091590530915A05D9
:101010004091400550914105609142050E94225F38
:10102000709358058093590520925A0510915B05DD
:1010300020915C0530915D0540914005509141053E
:10104000609142050E94225F70935B0580935C056E
:1010500020925D0508950091D90700950071A09137
:101060009407AF7E0A2B0093940708954E4F2053A8
:1010700049474E414C00506C656173652073757033
:10108000706C792061204350504D00007369676E89
:10109000616C20746F207468652061696C65726F83
:1010A0006E00696E70757420636F6E6E6563746F29
:1010B000722E000076108C10A2100E94655D0AE06E
:1010C00000933C07ECE6F0E10E94EA5B01E000934C
:1010D000410700E000933C0701E100933D07002732
:1010E0000F93E4EBF0E10E94E15B00E000933C072A
:1010F00000903D0709E0000E00923D070F91039517
:10110000033071F70E94B75B0E94145D0E94BE5EBF
:101110000830E1F708950091D90700231AF00E94E2
:101120005D08089502E00093B5070E94EE0600E016
:101130000093400500E00093410509E1009342055A
:101140001091490520914A0530914B054091400589
:1011500050914105609142050E94225F70934905BC
:1011600080934A0520924B0510914C0520914D0526
:1011700030914E05409140055091410560914205E6
:101180000E94225F70934C0580934D0520924E057E
:10119000109152052091530530915405409140051E
:1011A00050914105609142050E94225F7093520563
:1011B00080935305209254051091550520915605B2
:1011C000309157054091400550914105609142058D
:1011D0000E94225F70935505809356052092570513
:1011E00000E00093400500E0009341050DE000930E
:1011F000420510914F0520915005309151054091C5
:10120000400550914105609142050E94225F709314
:101210004F0580935005209251050E94575D00278D
:101220000F93E2E2F7EA0E94E15B00E300933C07E0
:101230000E94895B00E000933C0700903D0709E0B5
:10124000000E00923D070F910395053049F709E321
:1012500000933C0701E000933D07B0914905A09140
:101260004A05D0914B05E4E5F7EA0FEF0E94B6532B
:10127000B0914C05A0914D05D0914E05EAE5F7EAF5
:101280000FEF0E94B653B0914F05A0915005D09139
:1012900051050E94405B05E500933C0700917407EF
:1012A000002312F4002708C0EAE5F0E00E94E053B2
:1012B00014F401E001C002E0E0E6F7EA0E94CF5337
:1012C000B0915205A0915305D0915405E6E6F7EA96
:1012D0000FEF0E94B653B0915505A0915605D091DD
:1012E00057050E94405B05E500933C0700917F078E
:1012F000E4E1FDEB0E94E15B00E000933C0709E3C1
:1013000000933D07E6E0F4E10E94EA5B0E94145D71
:101310000E94E3530E94A95E083009F40895043046
:1013200019F40E947A2801D000CF0E94EE060E9494
:10133000F90710915E0520915F053091600540919D
:10134000400550914105609142050E94225F7093D3
:101350005E0580935F05209260050E94575DA2E3C1
:10136000EAEAFCEB0E94EA5B0A2F0E94F05B00E3D2
:1013700000933C070E94895B00E000933C070090CB
:101380003D0709E0000E00923D07A395A53341F704
:1013900009E300933C0701E000933D07B091580535
:1013A000A0915905D0915A050E94405B0E94D153EB
:1013B000B0915B05A0915C05D0915D050E94405BFA
:1013C0000E94D153B0915E05A0915F05D091600558
:1013D0000E94405B05E500933C0700918607E6E22A
:1013E000FDEB0E94E15B0E94B75B0E94145D0E94CE
:1013F000E3530E94A95E083029F40E947A280E94D3
:10140000BA5E089592CF4241434B204D4F52450062
:101410000E94E20AE0E7F0E00E94FD5E00939B0775
:101420000E94145D0E94465D0E94145D0E94243358
:1014300000E00093420700E00093430700E00093C0
:10144000440700E00093450703E0009394050FEF85
:101450000093950500E000939605002700939C07F4
:101460000093700700937607AFEAA0937E0700937E
:101470007F07A1E0A09386070093D9070093C307D5
:101480000093C4070E946E0C00270093F507009399
:10149000F6070093F7070093DA07EAEDF7E0E09329
:1014A000F307F093F40700E1009394070E94EC59CE
:1014B0000E947E367894E4E7F0E00E94FD5E00230F
:1014C00061F00E94913203B1009502950F7059F0BE
:1014D0000E94163D0E949F3106C00E94A95E0830FE
:1014E00011F40E94352B0E94163D009194070F7D48
:1014F0000093940706E006BB0E94EF4F0E94F10C98
:101500000E947D0C0E94313C0E94272A0E94B9193A
:101510000E947B470E940B2C0E9447460E94E61EB9
:101520000E9433270E9425290E9451500090720783
:101530001090730701240092890700918907002306
:1015400032F40E94F429009172070093730700910E
:10155000780700232AF40027009378070E94373980
:101560000091720700230AF4C7CF03B100950295DA
:10157000077021F400E000938707BECF0091870732
:1015800003950093870700918707023309F0B4CFD2
:1015900000E000936F000E94A95E077059F30130CC
:1015A00019F00E941E229FCF0E947A2829980E943B
:1015B0002D220E9424520E94300B0E943F520E9412
:1015C000432291CF02E301B90BE004B90CEF07B954
:1015D00002EF0AB90FEF00937E0005EF05B903E0B3
:1015E00008B90DE00BB900E00093800002E0009321
:1015F000810000E0009382000091C800007819F09B
:101600000091CE00F9CF02E00093C80000270093BC
:10161000CD0008E10093CC0000E10093C9000EE288
:101620000093CA000091C90000680093C9000091AE
:10163000B9000C7F0093B90001E10093B8005D9AF6
:101640005C9A5E982B9A299AA4EFB1E00E94965E6C
:101650002B9829985E9AA4E6B0E00E94965E0895C1
:10166000CAEAD6E1A0914307B091420702E10E9485
:101670009028C0934307D093420708F00895AA0F1B
:10168000E2E1F8E1EA0F0027F01FA591B491FD0116
:1016900009950E947A280E94465D0E94145D0E946E
:1016A000A95E0030E1F70C94300B52656D6F7465E4
:1016B0002054756E696E672020202020202050491C
:1016C00020456469746F7220202020202020202073
:1016D000202053656C662D6C6576656C20536574AF
:1016E00074696E677320537469636B205363616C14
:1016F000696E67202020202020204D6F64652053D4
:10170000657474696E6773202020202020204D6945
:1017100073632E2053657474696E677320202020D4
:10172000202047696D62616C2053657474696E672F
:1017300073202020202053656E736F7220536574D0
:1017400074696E67732020202020415558205377FC
:101750006974636820536574757020202020496E79
:10176000697469616C205365747570202020202095
:101770002020526563656976657220546573742014
:1017800020202020202053656E736F7220546573D3
:10179000742020202020202020204D697865722090
:1017A000456469746F722020202020202020536817
:1017B0006F77204D6F746F72204C61796F75742054
:1017C0002020557365722050726F66696C65202009
:1017D0002020202020204553432043616C69627201
:1017E0006174696F6E202020202056657273696FC6
:1017F0006E20496E666F726D6174696F6E204C4326
:101800004420436F6E747261737420202020202066
:10181000202097167B430C2FBF386D371638201EBB
:10182000285A3D2BCA345B0ECD56F3449F2FC2205D
:101830009732E926C72A0E94655D06E100933C07BE
:10184000E2E9F8E10E94EA5B01E00093410700E071
:1018500000933C0701E100933D0700270F93E6ED5D
:10186000F8E10E94E15B00E000933C0700903D0737
:1018700009E0000E00923D070F910395033071F7C8
:101880000E94B75B0E94145D0E94BE5E0830E1F7C3
:1018900008954E4F204441544100506C656173657A
:1018A00020737570706C7920532E427573006461DB
:1018B000746120746F2074686520656C657661744E
:1018C0006F720000696E70757420636F6E6E656371
:1018D000746F722E00009A18AE18C4180027009377
:1018E000C5070093C8070093C7070093C607009178
:1018F00094070F700093940708950091F7070E3135
:1019000054F00EE10093F70700270093D9070FEF7B
:1019100000937C071BC0033009F008950091C707AE
:101920000395043659F40091C807A091C507A01784
:1019300014F40093C50700270093C8070093C70756
:10194000A091C207B091D907BB2331F4009194074D
:101950000061009394070895009194070F7E00930F
:1019600094070A2F01700093C3070A95009500930E
:101970007C07A6950A2F01700093C407A6950A2F2D
:10198000017029F00091C80703950093C807A69538
:10199000A17051F0A093C6070091940700620093D4
:1019A00094070FEF00937C070895FFB6FF93EF9322
:1019B000E090CE00E091F307F091F407E19290916E
:1019C000F507939599311CF0EAEDF7E0992790938C
:1019D000F507E093F307F093F407EF91FF91FFBE53
:1019E0001895A091F507B091F607AB1761F0A09399
:1019F000F60701E00093F7070091D90700230AF4E6
:101A000047C00FD108950091F707023041F00395C8
:101A10000093F7070091D90700239AF739C0A091E6
:101A2000F507AA2381F000270093F7070093F60734
:101A3000F8940093F507EAEDF7E0E093F307F093ED
:101A4000F4077894DECFEAEDF7E000810F3021F063
:101A500000270093D907D5CFE2EFF7E000810023FC
:101A600021F000810F7C043099F70FEF0093D90724
:101A7000319700810093C207EBEDF7E0A7EBB7E0E9
:101A8000CAE001910D93CA95E2F703E00093F707CE
:101A9000A091B707B091B807B77002D1DD27B09316
:101AA0004905A0934A05D0934B05A091B807B09182
:101AB000B907B795A795B795A795B795A795B770A7
:101AC000EFD0DD27B0934C05A0934D05D0934E0584
:101AD000D091B907A091BA07B091BB07DD1FAA1F2B
:101AE000BB1FDD1FAA1FBB1FB77000270093740721
:101AF000E0E9F1E0AE1BBF0BD7D0E0E0F0E0AE17BD
:101B0000BF072CF4A0E0B0E00FEF00937407DD27CF
:101B1000B0934F05A0935005D0935105A091BB07FA
:101B2000B091BC07B795A795B770BAD0DD27B09331
:101B30005205A0935305D0935405A091BC07B091D2
:101B4000BD07B795A795B795A795B795A795B795ED
:101B5000A795B770A5D0CC27E8EAFDEFAE17BF0771
:101B60009CF0C395E8E3FFEFAE17BF076CF0C39599
:101B7000E8ECF0E0AE17BF073CF0C395E8E5F2E013
:101B8000AE17BF070CF0C395C0937F07DD27B09356
:101B90005505A0935605D0935705D091BD07A09148
:101BA000BE07B091BF07DD1FAA1FBB1FB77078D05B
:101BB000DD27B0935805A0935905D0935A05A091FD
:101BC000BF07B091C007B795A795B795A795B77010
:101BD00067D0DD27B0935B05A0935C05D0935D05CE
:101BE000A091C007B091C10705E0B695A7950A95E9
:101BF000E1F756D0CC27E0E7FEEFAE17BF073CF089
:101C0000C395E0E9F1E0AE17BF070CF0C395C093B0
:101C10008607DD27B0935E05A0935F05D09360052E
:101C2000089500E00093490500934A0500934B0591
:101C300000934C0500934D0500934E0500934F050E
:101C400000935005009351050093520500935305EE
:101C500000935405009355050093560500935705CE
:101C6000009358050093590500935A0500935B05AE
:101C700000935C0500935D0500935E0500935F058E
:101C8000009360050FEF0093740700917F07002316
:101C900031F0002700937F070FEF0093800708952E
:101CA000E0E0F4E0AE1BBF0BEA2FFB2FF595E795C4
:101CB000AE0FBF1F08950E947D0C0091D90700232D
:101CC00019F40E941B0C08950E94F10C0091F70773
:101CD000033021F0C9E10E949B5EF1C000E0009357
:101CE000400500E00093410509E100934205109191
:101CF000490520914A0530914B054091400550918E
:101D00004105609142050E94225F709349058093CE
:101D10004A0520924B0510914C0520914D053091BC
:101D20004E054091400550914105609142050E9449
:101D3000225F70934C0580934D0520924E051091C3
:101D40005205209153053091540540914005509122
:101D50004105609142050E94225F70935205809375
:101D60005305209254051091550520915605309148
:101D700057054091400550914105609142050E94F0
:101D8000225F70935505809356052092570500E019
:101D90000093400500E0009341050DE000934205EB
:101DA00010914F052091500530915105409140050B
:101DB00050914105609142050E94225F70934F054A
:101DC00080935005209251050E94575D00270F9384
:101DD000E2E2F7EA0E94E15B00E300933C070E9425
:101DE000895B00E000933C0700903D0709E0000E8E
:101DF00000923D070F910395053049F709E30093E1
:101E00003C0701E000933D07B0914905A0914A05C8
:101E1000D0914B05E4E5F7EA0FEF0E94B653B0917D
:101E20004C05A0914D05D0914E05EAE5F7EA0FEF7C
:101E30000E94B653B0914F05A0915005D091510525
:101E40000E94405B05E500933C0700917407002366
:101E500012F4002708C0EAE5F0E00E94E05314F411
:101E600001E001C002E0E0E6F7EA0E94CF53B09142
:101E70005205A0915305D0915405E6E6F7EA0FEF1D
:101E80000E94B653B0915505A0915605D0915705C3
:101E90000E94405B05E500933C0700917F07E4E169
:101EA000FDEB0E94E15B00E000933C0709E3009337
:101EB0003D07E6E0F4E10E94EA5B0E94145D0E94A7
:101EC000A95E083009F40895043019F40E947A28B4
:101ED00001D0F1CE0E94F10C0091F707043021F0FF
:101EE000C9E10E949B5E60C00E94F90710915E05E7
:101EF00020915F053091600540914005509141056A
:101F0000609142050E94225F70935E0580935F0599
:101F1000209260050E94575DA2E3EAEAFCEB0E9472
:101F2000EA5B0A2F0E94F05B00E300933C070E94EB
:101F3000895B00E000933C0700903D0709E0000E3C
:101F400000923D07A395A53341F709E300933C07B1
:101F500001E000933D07B0915805A0915905D0913B
:101F60005A050E94405B0E94D153B0915B05A0913D
:101F70005C05D0915D050E94405B0E94D153B091F9
:101F80005E05A0915F05D09160050E94405B05E56C
:101F900000933C0700918607E6E2FDEB0E94E15BBF
:101FA0000E94B75B0E94145D0E94A95E083029F46C
:101FB0000E947A280E94BA5E08958CCF0027009371
:101FC0008C070E94B810E0E7F0E00E94FD5E0093ED
:101FD0009B070E94145D0E94465D0E94145D0E9452
:101FE000243300E00093420700E00093430700E041
:101FF0000093440700E00093450703E00093940535
:102000000FEF0093950500E00093960500270093DD
:102010009C070093700700937607AFEAA0937E07B2
:1020200000937F07A1E0A09386070093D907009350
:10203000F5070093F6070093F7070093DC07EAED36
:10204000F7E0E093F307F093F4070FEF0093F7073F
:1020500000E1009394070E94EC590E947E360E9492
:10206000FD107894E4E7F0E00E94FD5E002381F02B
:102070000E94913200918C07002382F003B10095F9
:1020800002950F7059F00E94163D0E949F3106C0C4
:102090000E94A95E083011F40E94352B0E94163D63
:1020A00006E006BB0E94EF4F0E942C120E9476139E
:1020B0000E94313C0E94272A0E94B9190E947B4746
:1020C0000E940B2C0E9447460E94E61E0E94332766
:1020D0000E9425290E9451500090720710907307AA
:1020E00001240092890700918907002332F40E949D
:1020F000F429009172070093730700917807002379
:102100002AF40027009378070E943739009172075C
:1021100000230AF4C7CF03B100950295077021F49C
:1021200000E000938707BECF0091870703950093D7
:10213000870700918707023309F0B4CF00E00093CE
:102140006F000E94A95E077059F3013019F00E94D8
:102150001E22A4CF0E947A2829980E942D220E9434
:1021600024520E940C110E943F520E94432296CF9B
:1021700002E301B90BE004B90CEF07B902EF0AB9A9
:102180000FEF00937E0005EF05B903E008B90DE0FD
:102190000BB9ACE3B0E00E94965E0E94A95E0630E7
:1021A00051F4A3E003EF0AB90E94F71102EF0AB954
:1021B0000FEF00938C0700E00093800002E0009393
:1021C000810000E0009382000091B9000C7F009331
:1021D000B90001E10093B8005D9A5C9A5E982B9A71
:1021E000299AA4EFB1E00E94965E2B9829985E9AF6
:1021F000A4E6B0E00E94965E089500270093C00018
:102200000093C5000AE00093C40000E90093C100F8
:1022100006E00093C2000895C2E6D2E2A09143070F
:10222000B091420702E10E949028C0934307D093E7
:10223000420708F00895AA0FEAECF3E2EA0F00273C
:10224000F01FA591B491FD0109950E947A280E9482
:10225000465D0E94145D0E94A95E0030E1F70C9477
:102260000C1152656D6F74652054756E696E672030
:10227000202020202020504920456469746F72205E
:102280002020202020202020202053656C662D6CEB
:102290006576656C2053657474696E67732053743A
:1022A00069636B205363616C696E67202020202076
:1022B00020204D6F64652053657474696E677320C8
:1022C0002020202020204D6973632E2053657474D4
:1022D000696E677320202020202047696D62616C41
:1022E0002053657474696E67732020202020536525
:1022F0006E736F722053657474696E67732020204B
:1023000020204155582053776974636820536574C1
:10231000757020202020496E697469616C205365B6
:102320007475702020202020202052656365697616
:10233000657220546573742020202020202053656E
:102340006E736F722054657374202020202020202B
:1023500020204D6978657220456469746F72202071
:1023600020202020202053686F77204D6F746F72DB
:10237000204C61796F757420202055736572205050
:10238000726F66696C652020202020202020455334
:10239000432043616C6962726174696F6E20202012
:1023A000202056657273696F6E20496E666F726D7C
:1023B0006174696F6E204C434420436F6E74726188
:1023C0007374202020202020202097167B430C2F80
:1023D000BF386D3716382D15285A3D2BCA34D31304
:1023E000CD56F3449F2FC2209732E926C72A58982A
:1023F000C6E70E940212589ACAE70E940212AA95E2
:10240000B1F7089500C000C000C000C000C000C007
:1024100000C000C00000CA95A9F70895FFB6FF9359
:10242000EF93E090C600E091F307F091F407E1929A
:102430009091F507939590312CF0EAEDF7E099270C
:102440009093F7079093F507E093F307F093F40761
:10245000EF91FF91FFBE18950091F70700230AF452
:10246000DAC0A091F507B091F607AB1759F0A09329
:10247000F60701E00093F7070091D90700230AF45B
:1024800045C0C9C0023041F003950093F7070091A1
:10249000D9070023B2F73AC0A091F507AA2381F02B
:1024A00000270093F7070093F607F8940093F507C9
:1024B000EAEDF7E0E093F307F093F4077894ABC00C
:1024C0000091DC07007831F00091940700620093DE
:1024D00094071CC00FEF0093D907ACEDB7E012E0F2
:1024E000E9ECF7E0DD91CD910D2F06950E70039587
:1024F000E00F08F4F395D370D0833197C083139520
:10250000139510316CF303E00093F70701E0B5D0A9
:10251000BFD0DD27B0934905A0934A05D0934B0562
:1025200002E0ABD0B5D0DD27B0934C05A0934D05AC
:10253000D0934E0500E0A1D0002700937407EDEC86
:10254000F0E0AE1BBF0BA8D0E0E0F0E0AE17BF0795
:102550002CF4A0E0B0E00FEF00937407DD27B093F8
:102560004F05A0935005D093510503E086D090D03D
:10257000DD27B0935205A0935305D093540504E092
:102580007CD086D0CC27E8EAFDEFAE17BF079CF0E1
:10259000C395E8E3FFEFAE17BF076CF0C395E8EC17
:1025A000F0E0AE17BF073CF0C395E8E5F2E0AE17E8
:1025B000BF070CF0C395C0937F07DD27B093550587
:1025C000A0935605D093570505E057D061D0DD277D
:1025D000B0935805A0935905D0935A0506E04DD005
:1025E00057D0DD27B0935B05A0935C05D0935D05C4
:1025F0000091D90700237AF401C008950091F707EC
:102600000233D8F302E30093F707002700937F0714
:102610000FEF0093800700270093D90700E0009395
:10262000490500934A0500934B0500934C05009320
:102630004D0500934E0500934F0500935005009300
:1026400051050093520500935305009354050093E0
:1026500055050093560500935705009358050093C0
:10266000590500935A0500935B0500935C050093A0
:102670005D050FEF009374070895002EE9ECF7E075
:1026800002E0009DE00DF11DA191B081B3700895AD
:10269000E0E0F2E0AE1BBF0BB0934B06A0934C06FC
:1026A000D0934D0600E00093400502E00093410501
:1026B0000EEE0093420510914B0620914C0630918E
:1026C0004D064091400550914105609142050E94A0
:1026D000225F70934B0680934C0620924D06B0917A
:1026E0004B06A0914C06D0914D0608950091D90754
:1026F00000950071A0919407AF7E0A2B0093940778
:1027000008954E4F204441544100506C65617365FB
:1027100020737570706C792053617400646174610A
:1027200020746F20746865207468726F74746C65AF
:102730000000696E70757420636F6E6E6563746FF0
:10274000722E00000A271C2732270E94655D06E1D1
:1027500000933C07E2E0F7E20E94EA5B01E00093AD
:10276000410700E000933C0701E100933D0700278B
:102770000F93E4E4F7E20E94E15B00E000933C0782
:1027800000903D0709E0000E00923D070F91039570
:10279000033071F70E94B75B0E94145D0E94BE5E19
:1027A0000830E1F708950091D90700231AF00E943C
:1027B000A51308950E942C120091F707033021F011
:1027C000C9E10E949B5EF1C000E00093400500E07B
:1027D0000093410509E100934205109149052091BC
:1027E0004A0530914B05409140055091410560915B
:1027F00042050E94225F7093490580934A0520920A
:102800004B0510914C0520914D0530914E0540919E
:10281000400550914105609142050E94225F7093EE
:102820004C0580934D0520924E0510915205209144
:1028300053053091540540914005509141056091F8
:1028400042050E94225F70935205809353052092A7
:10285000540510915505209156053091570540912A
:10286000400550914105609142050E94225F70939E
:102870005505809356052092570500E000934005CA
:1028800000E0009341050DE00093420510914F05D3
:1028900020915005309151054091400550914105DE
:1028A000609142050E94225F70934F05809350050E
:1028B000209251050E94575D00270F93E2E2F7EA4C
:1028C0000E94E15B00E300933C070E94895B00E00B
:1028D00000933C0700903D0709E0000E00923D0781
:1028E0000F910395053049F709E300933C0701E098
:1028F00000933D07B0914905A0914A05D0914B0541
:10290000E4E5F7EA0FEF0E94B653B0914C05A091B1
:102910004D05D0914E05EAE5F7EA0FEF0E94B65358
:10292000B0914F05A0915005D09151050E94405B98
:1029300005E500933C0700917407002312F400277B
:1029400008C0EAE5F0E00E94E05314F401E001C0A1
:1029500002E0E0E6F7EA0E94CF53B0915205A09161
:102960005305D0915405E6E6F7EA0FEF0E94B653FF
:10297000B0915505A0915605D09157050E94405B36
:1029800005E500933C0700917F07E4E1FDEB0E9421
:10299000E15B00E000933C0709E300933D07E6E0BC
:1029A000F4E10E94EA5B0E94145D0E94A95E083077
:1029B00009F40895043019F40E947A2801D0F3CE66
:1029C0000E94A3540091F707043021F0C9E10E944E
:1029D0009B5E39C00E94F9070E94575DA2E3EAEAB4
:1029E000FCEB0E94EA5B0A2F0E94F05B00E300937D
:1029F0003C070E94895B00E000933C0700903D0784
:102A000009E0000E00923D07A395A43341F709E3C6
:102A100000933C0701E000933D07B0915805A09159
:102A20005905D0915A050E94405B0E94D153B09144
:102A30005B05A0915C05D0915D050E94405B0E9402
:102A4000B75B0E94145D0E94A95E083029F40E94C1
:102A50007A280E94BA5E0895B3CF0E94F9420E947C
:102A6000054300916B07007C09F01ED70E94575D5B
:102A7000ECE0F9E30E94EA5BE1EAF0E05CD0E2E23C
:102A8000F9E30E94EA5BE5EAF0E055D0ECE3F9E314
:102A90000E94EA5B0CE300933C070E94895B009173
:102AA0009A070170EAE5F9E30E94E15B0E94A95BE5
:102AB000ECE5FBE204E0019FE00DF11D0E94085BE4
:102AC0000E94145D0E94BE5E083009F4089504302F
:102AD00021F41A950AF412E0C9CF023029F41395B3
:102AE00013300CF01127C2CF013021F5123059F408
:102AF000A0919A070FEFA027A0939A07E9EAF0E0C8
:102B00000E94DF5EB3CF112319F4E1EAF0E002C0C6
:102B1000E5EAF0E0EF93FF930E94C55EC0E0D3E8E2
:102B2000E0E0FDE70E942244A02DB12DFF91EF913E
:102B30000E94CE5E9BCF0CE300933C070E94895B12
:102B40000E94C55E0E94405B00E000933C0700903D
:102B50003D0709E0000E00923D0708954700620915
:102B6000470962124712621B0E94A826E0E7F0E0C4
:102B70000E94FD5E00939B070E94145D0E94465DCB
:102B80000E94145D0E94243300E00093420700E09D
:102B90000093430700E00093440700E000934507DB
:102BA00003E0009394050FEF0093950500E0009378
:102BB00096050FE00093900600EA0093910600E06E
:102BC00000939206002700939C0700938D070093C3
:102BD000700700937607AFEAA0937E0700937F0704
:102BE000A1E0A093860700937C070093550700930C
:102BF000560700935707009358070093590700930F
:102C00005A0700935B0700935C0700935D070093EE
:102C10005E070093530700935407A3E0A093F707C0
:102C2000009394070E94EC590E947E367894E4E762
:102C3000F0E00E94FD5E002361F00E94913203B13A
:102C4000009502950F7059F00E94163D0E949F3129
:102C500006C00E94A95E083011F40E94352B0E9424
:102C6000163D06E006BB0E94EF4F0E94B2540E9440
:102C70006D260E94313C0E94272A0E947B470E94B9
:102C80000B2C0E9447460E94DC1C0E9433270E94A6
:102C900025290E945150009072071090730701245B
:102CA0000092890700918907002332F40E94F429D9
:102CB00000917207009373070091780700232AF4AC
:102CC0000027009378070E9437390091720700238C
:102CD0000AF4C9CF03B100950295077021F400E012
:102CE00000938707C0CF009187070395009387075C
:102CF00000918707023309F0B6CF00E000936F0020
:102D00000E94A95E077059F3013019F00E941E223B
:102D1000A6CF0E947A2829980E942D220E94245230
:102D20000E94E4550E943F520E94432298CFE6D170
:102D300026D50E94A3540091F707033041F0C9E162
:102D40000E949B5E0091D90700230AF49BC000916A
:102D50009C07002311F40E94F90710915805209157
:102D6000590530915A054091D2065091D306609191
:102D7000D4060E94225F7093E5058093E6052092B9
:102D8000E70510915B0520915C0530915D05409150
:102D9000D2065091D3066091D4060E94225F7093B0
:102DA000E8058093E9052092EA05E3D20E94575D89
:102DB000EAEDFEE20E94EA5B00919C07E6E0FDEB93
:102DC0000E94E15B00E000933C070AE000933D07AE
:102DD00000919C07E2E7FFE20E94E15BB091E5050C
:102DE000A091E605D091E7050E94405B00E00093CA
:102DF0003C0703E100933D0700919C07E0E8FFE2F8
:102E00000E94E15BB091E805A091E905D091EA0547
:102E10000E94405B00E000933C070CE100933D07FB
:102E2000E8EEFEE20E94EA5B00919D07E0EAFFE225
:102E30000E94E15B00919C07013071F400916E07E4
:102E4000002352F400E000933C0709E200933D07A1
:102E5000E6EFFEE20E94EA5B00E000933C0709E334
:102E600000933D07E6EAFBEB0E94EA5BECE0FFE241
:102E70000E94085B0E94145D00914807023014F420
:102E80000E94E3530E94A95E083009F408950430BB
:102E900021F40E947A28EFD04CCF023039F4A9D126
:102EA0000E947A28A0919C0761D143CF013009F09C
:102EB00040CF00919C07039507300CF000270230AB
:102EC00029F4A0916E07AA230AF4039500939C07A6
:102ED0000E947A280E94BA5E2CCF54756E696E6784
:102EE000204D6F64653A2000496E707574207261E0
:102EF0007465203A20004C696E6B656420776974B4
:102F00006820656C657661746F722E004C007F09D5
:102F10004368616E6E656C203620203A200043685D
:102F2000616E6E656C203720203A2000502047618A
:102F3000696E2F43682E363A200049204761696E3A
:102F40002F43682E373A200052204761696E2F4385
:102F5000682E373A200050205472696D2F43682E36
:102F6000363A200052205472696D2F43682E373A4A
:102F70002000102F2C2F2C2F2C2F2C2F562F2C2FA6
:102F80001E2F3A2F3A2F3A2F1E2F642F482F4C4FC7
:102F900057004D454449554D0000484947480000F9
:102FA0002CA78E2F922F9A2F4E4F5400506C656194
:102FB00073652063656E74657220796F7572205435
:102FC000580074756E696E6720636F6E74726F6CF3
:102FD00073206E6F772E0000412054756E696E6706
:102FE000204D6F6465206D75737420626500736594
:102FF0006C65637465642066697273742E00AC2F0F
:10300000C22FD82FEE2F53455420494E50555420EF
:1030100052415445000053656C65637420696E70BD
:103020007574207261746520666F7200616C6C202B
:1030300074756E696E67206D6F6465732E205573AD
:1030400065004C4F5720666F722066696E652D745F
:10305000756E696E672E00004241434B20204C4F35
:1030600057204D454449554D2048494748000630B2
:1030700016302C3042300E94575D06E100933C0729
:103080000027EEE6F0E30F930E94E15B00E000937F
:103090003C0700903D0709E0000E00923D070F91AC
:1030A000002329F40DE000933D0701E0EACF0395EA
:1030B000043039F700E000933C0709E300933D0733
:1030C000E8E5F0E30E94EA5B0E94145D0E94BE5EA8
:1030D000077089F0043011F4A1E008C0023011F447
:1030E000A2E004C0013009F0C6CFA3E0E8EBF0E0B5
:1030F0000E94DD5E03D00E94BA5E0895E8EBF0E026
:103100000E94D75EA370AA2309F4A2E0A13051F473
:1031100000E00093400500E00093410506E20093C3
:10312000420515C0A23051F400E00093400500E0D4
:103130000093410503E70093420509C000E00093B6
:10314000400500E00093410500EC00934205A09388
:103150009D07009140050093D20600914105009320
:10316000D306009142050093D40608950E94655D40
:103170000AE000933C07AA2341F4E8EAFFE20E9438
:10318000EA5B0AE300933C0703C002E200933C07BA
:10319000EAE8FBEB0E94EA5B01E000934107B2E042
:1031A00000E000933C0701E100933D070027AA23BC
:1031B00009F402E0BF930F93EEEFFFE20E94E15BA0
:1031C00000E000933C0700903D0709E0000E0092EC
:1031D0003D070F910395BF91BA9561F70E94C55BBA
:1031E0000E94145D0E94BE5E0130E1F70E94BA5E4B
:1031F000089500919C07002309F40895B091E50516
:10320000A091E605D091E7050130E9F4B093D3052C
:10321000A093D405D093D5050027CC2795D00027BF
:10322000C2E0B091E805A091E905D091EA05B0931C
:10323000DC05A093DD05D093DE0586D000916E07F6
:1032400000231AF008950230F9F401E0CC27B09180
:10325000E505A091E605D091E705B093D605A093CA
:10326000D705D093D80570D001E0C2E0B091E80551
:10327000A091E905D091EA05B093DF05A093E005A0
:10328000D093E10561D008950330C9F4B093D90516
:10329000A093DA05D093DB0502E0CC2755D002E0FD
:1032A000C2E0B091E805A091E905D091EA05B0939C
:1032B000E205A093E305D093E40546D008950430D9
:1032C00059F4B0935106A0935206D0935306E3E805
:1032D000F0E00E94CE5E08950530D9F4B0938A06DE
:1032E000A0938B06D0938C06E9E8F0E00E94CE5EB6
:1032F000B091E805A091E905D091EA05B093870661
:10330000A0938806D0938906E7E8F0E00E94CE5E9D
:103310000895B093CF06A093D006D093D106E5EAE6
:10332000F0E00E94CE5EB091E805A091E905D09151
:10333000EA05B093CC06A093CD06D093CE06E1EA81
:10334000F0E00E94CE5E0895E4E4F0E0000F000F8C
:10335000000FE00F0027F01F0C2F000FE00F0027D9
:10336000F01F0A2F0E94055F31960B2F0E94055F08
:10337000089500919C07002309F408950E94F9071D
:10338000109158052091590530915A054091D20667
:103390005091D3066091D4060E94225F7093580525
:1033A0008093590520925A0510915B0520915C0588
:1033B00030915D054091D2065091D3066091D406BC
:1033C0000E94225F70935B0580935C0520925D05EF
:1033D00000919C070130C1F50091D30500934B0685
:1033E0000091D40500934C060091D50500934D063D
:1033F0000091DC05009340050091DD050093410537
:103400000091DE050093420573D10E945341009163
:10341000E5050093AF050091E6050093B005009126
:10342000E7050093B105009140050093C1050091A7
:1034300041050093C205009142050093C305009128
:103440006E070023F2F008950230A1F50091D60531
:1034500000934B060091D70500934C060091D805C8
:1034600000934D060091DF05009340050091E005B3
:10347000009341050091E1050093420539D10E9476
:1034800053410091E5050093B2050091E6050093D4
:10349000B3050091E7050093B40500914005009342
:1034A000C405009141050093C505009142050093B4
:1034B000C60508950330A1F50091D90500934B0688
:1034C0000091DA0500934C060091DB0500934D0650
:1034D0000091E205009340050091E305009341054A
:1034E0000091E4050093420503D10E9453410091ED
:1034F000E5050093B5050091E6050093B60500913A
:10350000E7050093B705009140050093C7050091BA
:1035100041050093C805009142050093C90508952F
:10352000043009F50091510600934B0600915206B4
:1035300000934C060091530600934D06D9D000E04D
:103540000093E8050093E9050093EA050091E5057D
:1035500000934E060091E60500934F060091E705A3
:10356000009350060895053009F061C03091870638
:10357000409188065091890660915B0570915C05C9
:1035800080915D05580F471F361F3093E805409323
:10359000E9055093EA0530918A0640918B065091D7
:1035A0008C06609158057091590580915A05581BF9
:1035B000470B360B3093E5054093E6055093E7053E
:1035C0000091E505009384060091E60500938506C9
:1035D0000091E705009386060091E80500938106B7
:1035E0000091E905009382060091EA0500938306A5
:1035F00060918406709185068091860602E00E94A3
:10360000135F6093840670938506809386066091AD
:103610008106709182068091830602E00E94135F0A
:10362000609381067093820680938306089530919B
:10363000CC064091CD065091CE0660915B0570910D
:103640005C0580915D05580F471F361F3093E805D4
:103650004093E9055093EA053091CF064091D0069A
:103660005091D106609158057091590580915A0585
:10367000580F471F361F3093E5054093E6055093DA
:10368000E7050091E5050093B4060091E605009377
:10369000B5060091E7050093B6060091E805009392
:1036A000AE060091E9050093AF060091EA0500938C
:1036B000B0066091B4067091B5068091B60604E03C
:1036C0000E94135F6093B4067093B5068093B606AC
:1036D0006091AE067091AF068091B00604E00E9442
:1036E000135F6093AE067093AF068093B0060895A3
:1036F00030914B0640914C0650914D066091580513
:103700007091590580915A05580F471F361F309305
:10371000E5054093E6055093E7053CF400E000938F
:10372000E5050093E6050093E705309140054091DB
:1037300041055091420560915B0570915C05809157
:103740005D05580F471F361F3093E8054093E90584
:103750005093EA053CF400E00093E8050093E90586
:103760000093EA050091E805009340050091E90502
:10377000009341050091EA050093420508950091E8
:103780009C07023039F400916E0700231AF401E01F
:1037900000939C0708950E94F9420E9405430091FE
:1037A0006B07007C09F080D00E94575D00270F93C3
:1037B000E0E5F9E30E94E15B00E000933C07009044
:1037C0003D0709E0000E00923D070F91039505307B
:1037D00071F701E000933D07E1EAF0E055D054D0E5
:1037E00053D052D008E400933C070E94895B0091BB
:1037F0009A070170EAE5F9E30E94E15B0E94A95B88
:10380000EEE5F9E304E0019FE00DF11D0E94085B85
:103810000E94145D0E94BE5E083009F408950430D1
:1038200021F41A950AF414E0BFCF023029F413955D
:1038300015300CF01127B8CF013029F5143059F4A8
:10384000A0919A070FEFA027A0939A07E9EAF0E06A
:103850000E94DD5EA9CFE1EAF0E002E0019FE00D09
:10386000F11D0E94C55EC0E0D3E8E0E0FDE70E94E4
:103870002244A02DB12DE1EAF0E002E0019FE00D2D
:10388000F11D0E94CE5E90CF08E400933C070E9499
:10389000895B0E94C55E0E94405B00903D0709E085
:1038A000000E00923D0708950E94655D00E10093BF
:1038B0003C07E0E8FBEB0E94EA5B01E00093410774
:1038C00000E000933C0701E100933D0700270F93C0
:1038D000E2EBF9E30E94E15B00E000933C0700901B
:1038E0003D0709E0000E00923D070F91039503305C
:1038F00071F70E94C55B0E94145D0E94BE5E01309C
:10390000E1F70E947A280E94BA5E0895526F6C6CAB
:10391000206761696E00526F6C6C206F666673651C
:1039200074005069746368206761696E00005069B3
:10393000746368206F666673657400004D6978690A
:103940006E6700004E6F6E65000044696666000099
:103950000C39163922392E393C3944394A39530049
:103960006E0953096E1253126E1B531B6E2453249F
:103970006E2D4F757470757420747970652069733D
:103980002073657420746F0045534320666F722066
:103990004D3720616E642F6F72204D382E004368C2
:1039A00065636B204D6978657220456469746F7238
:1039B0002E00723988399E3900E00093400500934B
:1039C0004105009342053091AE064091AF065091FB
:1039D000B0066091400570914105809142055817ED
:1039E0004707360709F011C03091B4064091B5067B
:1039F0005091B60660914005709141058091420555
:103A000058174707360709F4089510919C0620912E
:103A10009D0630919E064091AE065091AF06609192
:103A2000B0060E94225F7093BA068093BB06209274
:103A3000BC0610919F062091A0063091A1064091EE
:103A4000B4065091B5066091B6060E94225F70934D
:103A5000BD068093BE062092BF060091B10600937A
:103A6000C6060091B2060093C7060091B306009304
:103A7000C8060091B7060093C9060091B8060093E6
:103A8000CA060091B9060093CB0600919A0700235D
:103A90000AF093C00091BA06009340050091BB065E
:103AA000009341050091BC06009342053091BA068F
:103AB0004091BB065091BC066091BD067091BE0658
:103AC0008091BF06581B470B360B3093BA064093C4
:103AD000BB065093BC063091BD064091BE06509186
:103AE000BF06609140057091410580914205580FD5
:103AF000471F361F3093BD064093BE065093BF0646
:103B00003091B1064091B2065091B3066091B7066C
:103B10007091B8068091B906581B470B360B30934D
:103B2000C6064093C7065093C8063091B706409129
:103B3000B8065091B9066091B1067091B2068091B5
:103B4000B306580F471F361F3093C9064093CA0665
:103B50005093CB0609E00093400504EC0093410527
:103B600000E0009342053091C6064091C70650918F
:103B7000C806609140057091410580914205580F3B
:103B8000471F361F3093C6064093C7065093C8069A
:103B90003091C9064091CA065091CB06609140050C
:103BA0007091410580914205581B470B360B3093AD
:103BB000C9064093CA065093CB063091BA0640918D
:103BC000BB065091BC066091C6067091C7068091F5
:103BD000C806580F471F361F309315064093160628
:103BE000509317063091BD064091BE065091BF0616
:103BF0006091C9067091CA068091CB06580F471F85
:103C0000361F309318064093190650931A060091F8
:103C1000150600934506009116060093460600918E
:103C20001706009347060091180600934806009176
:103C300019060093490600911A0600934A06089552
:103C40000E94F9420E94054300916B07007C09F035
:103C50002BDE0E94575DECE0F9E30E94EA5BE1EAAB
:103C6000F0E088D0E2E2F9E30E94EA5BE5EAF0E006
:103C700081D0ECE3F9E30E94EA5B04E500933C07A2
:103C80000E94895B00919A070170EAE5F9E30E94BE
:103C9000E15B00E000933C0700903D0709E0000E67
:103CA00000923D07EAE9FDE30E94EA5BEAEAF0E000
:103CB00061D0E8EAFDE30E94EA5BECEAF0E05AD06A
:103CC0000E94A95BE8EBFDE304E0019FE00DF11D1C
:103CD0000E94085B0E94145D0E94BE5E083009F4D9
:103CE0000895043021F41A950AF414E0B2CF02309A
:103CF00029F4139515300CF01127ABCF0130E9F7FB
:103D0000123059F4A0919A070FEFA027A0939A07B9
:103D1000E9EAF0E00E94DD5E9CCF112341F4E1EA84
:103D2000F0E0C8EDDCEDA8E2B3E213D092CF1130A1
:103D300019F4E5EAF0E0F5CF133041F4EAEAF0E0F7
:103D4000C8E1DCEFA8EEB3E004D083CFECEAF0E00A
:103D5000F7CFEF93FF93AF93BF930E94C55EFF91A0
:103D6000EF910E942244A02DB12DFF91EF910E946E
:103D7000CE5E089504E500933C070E94895B0E9493
:103D8000C55E0E94405B00E000933C0700903D0749
:103D900009E0000E00923D070895486F6D652050C0
:103DA0006F7320526F6C6C00486F6D6520506F739D
:103DB00020506974636800005F007A095F097A1215
:103DC0005F127A1B5F1B7F245F247F2D00E000932E
:103DD000400500934105009342053091AE064091A5
:103DE000AF065091B00660914005709141058091F9
:103DF000420558174707360709F011C03091B4063D
:103E00004091B5065091B60660914005709141050C
:103E10008091420558174707360709F40895009125
:103E20009C07002371F000E00093580500935905AA
:103E300000935A0500E000935B0500935C05009336
:103E40005D0500918607023031F50091C3060093AD
:103E500058050091C406009359050091C5060093CA
:103E60005A050091C00600935B050091C1060093BE
:103E70005C050091C20600935D0500E00093BD065D
:103E80000093BE060093BF0600E00093BA060093BD
:103E9000BB060093BC0603E00093400508EE0093C8
:103EA000410500E0009342053091580540915905C5
:103EB00050915A05609140057091410580914205ED
:103EC000580F471F361F309358054093590550939C
:103ED0005A0530915B0540915C0550915D056091FC
:103EE00040057091410580914205580F471F361FCC
:103EF00030935B0540935C0550935D0500E00093B3
:103F0000400502E00093410500E80093420510914E
:103F100058052091590530915A054091400550911E
:103F20004105609142050E94225F7093B70680931D
:103F3000B8062092B90610915B0520915C0530917E
:103F40005D054091400550914105609142050E94F8
:103F5000225F7093B1068093B2062092B30600915F
:103F60008607013041F510919C0620919D06309105
:103F70009E064091AE065091AF066091B0060E9439
:103F8000225F7093BA068093BB062092BC06109104
:103F90009F062091A0063091A1064091B406509151
:103FA000B5066091B6060E94225F7093BD068093AD
:103FB000BE062092BF0600919A0700230AF09FC018
:103FC0000091BA06009340050091BB06009341059D
:103FD0000091BC06009342053091BA064091BB06A1
:103FE0005091BC066091BD067091BE068091BF06DF
:103FF000581B470B360B3093BA064093BB065093C1
:10400000BC063091BD064091BE065091BF0660913E
:1040100040057091410580914205580F471F361F9A
:104020003093BD064093BE065093BF060091B10683
:10403000009340050091B206009341050091B3063C
:10404000009342053091B1064091B2065091B306FB
:104050006091B7067091B8068091B906581B470B5E
:10406000360B3093B1064093B2065093B3063091AD
:10407000B7064091B8065091B9066091400570911D
:10408000410580914205580F471F361F3093B706F0
:104090004093B8065093B90609E00093400504EC3C
:1040A0000093410500E0009342053091B106409134
:1040B000B2065091B3066091400570914105809120
:1040C0004205580F471F361F3093B1064093B20682
:1040D0005093B3063091B7064091B8065091B90697
:1040E000609140057091410580914205581B470B36
:1040F000360B3093B7064093B8065093B90630910B
:10410000BA064091BB065091BC066091B106709111
:10411000B2068091B306580F471F361F309315061D
:1041200040931606509317063091BD064091BE0687
:104130005091BF066091B7067091B8068091B9069C
:10414000580F471F361F3093180640931906509397
:104150001A06009115060093450600911606009375
:104160004606009117060093470600911806009333
:104170004806009119060093490600911A0600931B
:104180004A0608952227E3E7F0E00E94FD5E102F23
:104190000E94575D00270F93E0E4F3E40E94E15B87
:1041A00000E000933C0700903D0709E0000E0092FC
:1041B0003D070F910395053071F706E600933C0724
:1041C00001E000933D07BB27A12FA395DD270E94A7
:1041D000405B222319F40E94A95B02C00E949F5BEE
:1041E000E4E3F3E404E0029FE00DF11D0E94085BAC
:1041F0000E94145D0E94BE5E083009F408950430E8
:1042000021F42A9542F422E0BECF023029F423950E
:1042100023300CF02227B7CF0130E9F7203091F49A
:10422000A12FA395BB27C1E0D0E0E4E0F0E00E941D
:104230002244A02DAA951A2FE3E7F0E00E94DF5E4A
:104240002227A1CF213029F4CBD00E94EC5921E0C4
:104250009ACFEEE1F3E40E948E5D013011F022E08E
:1042600092CF0E946E330E94EC590E94CA34089586
:104270000E94655DAA2341F408E200933C07EAE44A
:10428000F3E40E94EA5B07C002E200933C07E0E52A
:10429000F3E40E94EA5B01E000934107B2E000E032
:1042A00000933C0701E100933D070A2FBF930F9352
:1042B000E4EDF3E40E94E15B00E000933C07009032
:1042C0003D0709E0000E00923D070F910395BF9155
:1042D000BA9561F70E94C55B0E94145D0E94BE5EA4
:1042E0000130E1F70E94BA5E089544656661756C1D
:1042F000742050726F66696C653A200046756E6373
:1043000074696F6E733A0000496D706F7274207536
:104310007365722070726F66696C652E000052655D
:10432000736574206163746976652070726F666965
:104330006C652E0065006D09001B7F2400247F2D15
:10434000EA422CA7FC4208431E43444F4E4500005E
:104350004552524F5200416C6C206461746120637D
:104360006F706965642066726F6D00007468652007
:1043700073656C65637465642070726F66696C65E3
:104380002E005468652073656C65637465642070E5
:10439000726F66696C6573006D7573742062652059
:1043A000646966666572656E742E000050726F6691
:1043B000696C652023312063616E206F6E6C79001B
:1043C000626520656469746564206D616E75616CF9
:1043D0006C792E0056436C4382439843AC43C043F0
:1043E00000910008002311F4A4E00FC0A1E0BB2756
:1043F000C1E0D0E0E4E0F0E00E942244A02DAA95C4
:10440000009100080A1719F4A2E032DF0895AF9373
:10441000E8E0F3E40E948E5D013011F0AF91089561
:10442000EE27CF91299AFC2F0E94FD5EA02F0E94BB
:10443000DD5EEE23C1F72998AA27E7CF0695017024
:1044400009F40FEFA09100080A0F03700093000811
:104450000E9424330E94EC59089500910008002323
:1044600009F4089503950093020804E600930108F7
:1044700000270093030800E004BD05E005BD01E04E
:1044800000936E00089500E000936E002B9808954D
:10449000FFB6909101089A95C9F4E0900308EE20C8
:1044A00019F42B9A9FE00FC02B98909102089A95CF
:1044B00021F0909302089FE006C090910008939528
:1044C0009093020898ECE094E0920308909301081E
:1044D000FFBE18950091EA060093EF060091EB06E7
:1044E0000093F0060091EC060093F1060091ED06B2
:1044F0000093F2060091EE060093F30608953090C3
:10450000EA064090EB065090EC066090ED06709045
:10451000EE062091EA063091EB064091EC065091B0
:10452000ED066091EE060E94935FB0931707C0936B
:104530001807D0931907E0931A07F0931B073090E0
:104540001707409018075090190760901A0770904D
:104550001B0701E00E942C60309217074092180759
:104560005092190760921A0770921B0701E000939E
:104570001C0700E000931D0700E000931E0700E009
:1045800000931F0700E00093200730901C07409025
:104590001D0750901E0760901F0770902007209104
:1045A0001707309118074091190750911A07609129
:1045B0001B07761A650A540A430A320A3092F40637
:1045C0004092F5065092F6066092F7067092F80651
:1045D0000895B093EA06A093EB06D093EC06C0933F
:1045E000ED06F093EE063090EA064090EB06509010
:1045F000EC066090ED067090EE062091DB0630919F
:10460000DC064091DD065091DE066091DF060E94D7
:10461000935FB093EA06C093EB06D093EC06E09369
:10462000ED06F093EE060895FF27CD2FDA2FAB2F7E
:10463000BB2312F4BFEF0895BB2708954BDF5FDF64
:1046400030900D0740900E0750900F0760901007B4
:10465000709011072091F4063091F5064091F6060E
:104660005091F7066091F8060E94935FB0932B0774
:10467000C0932C07D0932D07E0932E07F0932F07BC
:104680003090120740901307509014076090150760
:10469000709016072091EF063091F0064091F106D8
:1046A0005091F2066091F3060E94935FB093170752
:1046B000C0931807D0931907E0931A07F0931B07CC
:1046C00030902B0740902C0750902D0760902E07BC
:1046D00070902F0720911707309118074091190704
:1046E00050911A0760911B07761A650A540A430A0B
:1046F000320A30922B0740922C0750922D0760927D
:104700002E0770922F0730900D0740900E075090A3
:104710000F0760901007709011072091EF063091FD
:10472000F0064091F1065091F2066091F3060E9466
:10473000935FB0933007C0933107D0933207E09373
:104740003307F093340730901207409013075090CE
:10475000140760901507709016072091F4063091A9
:10476000F5064091F6065091F7066091F8060E9412
:10477000935FB0931707C0931807D0931907E0937E
:104780001A07F0931B073090300740903107509084
:1047900032076090330770903407209117073091EB
:1047A00018074091190750911A0760911B07760E60
:1047B000651E541E431E321E309230074092310750
:1047C0005092320760923307709234070895F8943C
:1047D000A0918400B09185007894E0914607F09113
:1047E0004707A0934607B0934707AE1BBF0B2AF4B9
:1047F000E0E0F0E0EA1BFB0BDF01DD27B695A795B3
:10480000D795B695A795D795B695A795D795B6950B
:10481000A795D795CC27FF27B093E506A093E6068A
:10482000D093E706C093E806F093E9063090E506DA
:104830004090E6065090E7066090E8067090E90622
:104840002091E0063091E1064091E2065091E306A6
:104850006091E4060E94935FB093DB06C093DC0690
:10486000D093DD06E093DE06F093DF06B091760587
:10487000A0917705D0917805D7DEABDE0091FE06DA
:1048800000930D070091FF0600930E0700910007AB
:1048900000930F0700910107009310070091020792
:1048A000009311070091030700931207009104077A
:1048B0000093130700910507009314070091060762
:1048C000009315070091070700931607B7DE0091C4
:1048D0002B070093FE0600912C070093FF06009122
:1048E0002D070093000700912E0700930107009108
:1048F0002F070093020700913007009303070091F0
:1049000031070093040700913207009305070091D7
:104910003307009306070091340700930707B0910F
:104920007305A0917405D09175057EDE52DE00916D
:10493000F90600930D070091FA0600930E07009107
:10494000FB0600930F070091FC06009310070091EF
:10495000FD060093110700910307009312070091D1
:1049600004070093130700910507009314070091B3
:1049700006070093150700910707009316075EDEF0
:1049800000912B070093F90600912C070093FA067B
:1049900000912D070093FB0600912E070093FC0663
:1049A00000912F070093FD06009130070093030745
:1049B0000091310700930407009132070093050727
:1049C000009133070093060700913407009307070F
:1049D000B0916705A0916805D091690525DEF9DDE4
:1049E0000091F90600930D070091FA0600930E0757
:1049F0000091FB0600930F070091FC06009310073F
:104A00000091FD06009311070091FE060093120726
:104A10000091FF060093130700910007009314070D
:104A200000910107009315070091020700931607F4
:104A300005DE00912B070093F90600912C070093E7
:104A4000FA0600912D070093FB0600912E070093B4
:104A5000FC0600912F070093FD060091300700939C
:104A6000FE06009131070093FF0600913207009384
:104A7000000700913307009301070091340700936A
:104A8000020708953090F9064090FA065090FB0610
:104A90006090FC067090FD062091F9063091FA06B0
:104AA0004091FB065091FC066091FD060E94935FC9
:104AB000B0931707C0931807D0931907E0931A070C
:104AC000F0931B073090FE064090FF0650900007C1
:104AD00060900107709002072091FE063091FF065A
:104AE0004091000750910107609102070E94935F77
:104AF000B0931C07C0931D07D0931E07E0931F07B8
:104B0000F09320073090170740901807509019072E
:104B100060901A0770901B0720911C0730911D07A9
:104B200040911E0750911F0760912007760E651E69
:104B3000541E431E321E309217074092180750929F
:104B4000190760921A0770921B0730900307409074
:104B500004075090050760900607709007072091A2
:104B600003073091040740910507509106076091B3
:104B700007070E94935FB0931C07C0931D07D09353
:104B80001E07E0931F07F09320073090170740900F
:104B900018075090190760901A0770901B07209112
:104BA0001C0730911D0740911E0750911F0760910F
:104BB0002007760E651E541E431E321E30920807D3
:104BC0004092090750920A0760920B0770920C07F7
:104BD00008950091F906009326070091FA060093C4
:104BE00027070091FB06009328070091FC0600931D
:104BF00029070091FD0600932A072ED00091A206F6
:104C000000939C060091A30600939D060091A406C4
:104C100000939E060091FE06009326070091FF0672
:104C200000932707009100070093280700910107D0
:104C3000009329070091020700932A070DD00091E5
:104C4000A20600939F060091A3060093A006009180
:104C5000A4060093A10608950AE500931C0700E04E
:104C600000931D0700E000931E0700E000931F075C
:104C700000E00093200730902607409027075090CF
:104C800028076090290770902A0720911C0730910F
:104C90001D0740911E0750911F07609120070E9439
:104CA000935FB0931707C0931807D0931907E09349
:104CB0001A07F0931B07B0911707A0911807D0911E
:104CC0001907C0911A07F0911B07AFDCB093A20639
:104CD000A093A306D093A406089500E00093400596
:104CE0000093410500934205309190064091910652
:104CF0005091920660914005709141058091420566
:104D000058174707360759F03091900640919106A1
:104D10004150304030939006409391060895A09101
:104D200094070091640700230AF0A06100916507D1
:104D300000230AF0A0620091660700230AF0A06435
:104D40000091670700230AF0A068A09394070895D4
:104D500002E301B90AE004B90CEF07B902EF0AB99E
:104D60000FEF00937E0005EF05B903E008B90DE0F1
:104D70000BB900E00093800002E00093810000E0A6
:104D80000093820005E10093690003E00DBB0AE097
:104D90000093680001E00093730005E000936C004D
:104DA0000091B9000C7F0093B90001E10093B800B5
:104DB0005D9A5C9A5E982B9A299AA4EFB1E00E94C2
:104DC000965E2B9829985E9AA4E6B0E00E94965EC3
:104DD00008950E94655D06E100933C07E4E3FEE46C
:104DE0000E94EA5B01E0009341070AE000933C0760
:104DF00004E100933D07ECE3FEE40E94EA5B00E07F
:104E000000933C0700903D0709E0000E00923D072B
:104E1000E0E5FEE40E94EA5B0BE200933D070E949E
:104E2000815B0E94B75B0E94145D0E94BE5E0830E9
:104E3000E1F7089556455253494F4E004B4B322EE1
:104E4000312B2B20416C6C2D696E2D4F6E6500004F
:104E5000666F72204B4B322E3120616E64204B4BBB
:104E6000322E312E350000E00093400500934105BD
:104E70000093420530917E0640917F065091800656
:104E80006091400570914105809142055817470790
:104E9000360759F030917E0640917F0641503040F0
:104EA00030937E0640937F0603C00027009393074C
:104EB0000091980700236AF400917E070A950093F9
:104EC0007E07002331F4002700939807AFEAA093F0
:104ED0007E070090720710907407012000928907E6
:104EE000009189070023B2F530917B0640917C0642
:104EF0004150304030937B0640937C0600E00093A5
:104F00004005009341050093420530917B06409196
:104F10007C0650917D06609140057091410580911D
:104F20004205581747073607ACF403E000937B06A9
:104F300000E200937C0600E000937D060FEF0093F3
:104F4000930700E000937E0604E100937F0600E0F3
:104F5000009380060090720710907307012400925E
:104F600089070091890700233AF400E00093930633
:104F7000009394060093950600E00093400500E03E
:104F80000093410501E00093420530919306409162
:104F9000940650919506609140057091410580916D
:104FA0004205580F471F361F3093930640939406CF
:104FB000509395060DE70093400500E000934105EE
:104FC00000E0009342053091930640919406509181
:104FD00095066091400570914105809142055817F2
:104FE0004707360764F0009140050093930600914F
:104FF00041050093940600914205009395060091A7
:105000007C07002322F000917B07002372F40091BB
:105010007D07002319F10A9500937D0700E00093B6
:10502000960600939706009398060AE000934005C1
:105030000CEF0093410500E8009342053091930680
:1050400040919406509195066091400570914105FC
:1050500080914205581747073607B4F130919606FC
:105060004091970641503040309396064093970602
:1050700000E0009340050093410500934205309104
:105080009606409197065091980660914005709160
:10509000410580914205581747073607ACF407E0F1
:1050A0000093960600ED0093970600E000939806A3
:1050B0000FEF0093930701E000937E0600E9009351
:1050C0007F0600E0009380060090930710909207FF
:1050D00001280092890700908907109098070128FD
:1050E0000092890700918907002312F029980895FA
:1050F000299A08950F93EF93FF93EEE9F0E00E9451
:10510000FB5EFF91EF91002312F00F910895CF9372
:10511000299AC2E30E949B5E2998CF910F9108952E
:10512000402F2A2F3B2F0E94465D01E0009340074D
:1051300004E000934107203049F00AE300933C0764
:1051400000E000933D0700E00E94F05B022F0B5F40
:10515000041749F00AE300933C0702E300933D077C
:1051600001E00E94F05B01E00093410708E000933A
:105170003D0715E0FE0104E1029FE00DF11D00E096
:1051800000933C07A4E105910E94F05BAA95D9F732
:1051900000903D0708E0000E00923D071A9579F750
:1051A00008E0039F002D095F00933D07075F009310
:1051B0003F0700E000933C070FE700933E0700E045
:1051C000009340070E94F65A0E94955B0E94145D6E
:1051D000AEE10E94A95E003021F00970D1F7AA95D6
:1051E000C1F70E94BF5E083019F4AA27889429C02D
:1051F000043061F4303019F03A950C9424292030B1
:1052000019F02A950C9424290C942429023071F465
:10521000343019F033950C942429042F05502017AD
:1052200019F023950C9424290C942429013061F45D
:105230000E94465D0E94145D0E94BA5EA22FA30FD9
:105240000894C22FD32F08956ECF30918B054091D3
:105250008C0550918D056091940570919505809114
:10526000960558174707360764F400918B0500939D
:10527000940500918C050093950500918D05009390
:10528000960530918B0540918C0550918D0560916C
:1052900091057091920580919305581B470B360B31
:1052A0003093AC054093AD055093AE056091AC05CD
:1052B0007091AD058091AE0508E00E94135F609388
:1052C000AC057093AD058093AE053091910540918A
:1052D0009205509193056091AC057091AD05809158
:1052E000AE05580F471F361F309391054093920526
:1052F000509393053091600640916106509162068B
:10530000609191057091920580919305581B470B10
:10531000360B3093AC054093AD055093AE050AF4BF
:105320005CC06091AC057091AD058091AE0502E066
:105330000E94135F6093AC057093AD058093AE053A
:1053400000E00093400500E10093410500E0009378
:1053500042053091AC054091AD055091AE0560918C
:10536000400570914105809142055817470736075F
:1053700064F0009140050093AC0500914105009355
:10538000AD05009142050093AE0530917206409143
:105390007306509174066091AC057091AD058091D3
:1053A000AE05580F471F361F3093720640937306A1
:1053B00050937406B0917206A0917306D091740652
:1053C000AA235AF000919107002351F00A95009307
:1053D00091070FEF00939207089504E60093910759
:1053E000002700939207089500E000934B0601E028
:1053F00000934C0608E300934D061091600620913F
:1054000061063091620640914B0650914C066091C6
:105410004D060E94225F70934005809341052092C3
:1054200042053091400540914105509142056091FF
:105430008B0570918C0580918D05581747073607AD
:105440002CF400919407086000939407089500914C
:105450007207002372F13091990640919A064150EB
:1054600030403093990640939A0600E0009340053F
:1054700000934105009342053091990640919A06A8
:1054800050919B06609140057091410580914205C5
:1054900058174707360784F50FEF0093780701E0A8
:1054A0000093990600E900939A0600E000939B069A
:1054B00023C0009194070023F9F0009176070023A0
:1054C00011F0B2F00FC008E22B9AE0917707EA954D
:1054D000E0937707EE2371F4E0919407E77FE09380
:1054E000940708C00A9509F005C004EC2B9802C087
:1054F000039549F30093760700917F07A0918007F9
:105500000A1709F434C000938007AA231AF0AFEFFA
:10551000A0939807A1E8B7E0A00F08F4B39500277F
:105520000093790700937A0700937B070C9100237F
:10553000F1F0033039F40FEF00937B070FEF009386
:105540007D0712C0023081F40FEF009379070091BC
:10555000510600934E060091520600934F060091AB
:1055600053060093500603C0AFEFA0937A07009153
:105570009207002322F000917207002312F02B986B
:10558000089500919407002309F42B9A089500913F
:105590000008002321F002E00E94FB4508950E94CC
:1055A000655D0EE200933C07E0E4F6E50E94EA5BED
:1055B00000E000933C070AE100933D0701E00093FF
:1055C0004107E4E4F6E50E94EA5BBB27A0919B0754
:1055D000DD270E94405B00E000933C0709E3009355
:1055E0003D07E4E5F6E50E94EA5B0E94145D0E9437
:1055F000BE5E083039F4E0E7F0E00E94D95EA09387
:105600009B070895043041F400919B070E32BCF4CF
:10561000039500939B07C3CF023041F400919B0791
:1056200009316CF00A9500939B07B9CF013039F42A
:10563000A0919B07E0E7F0E00E94DF5E0895AFCF06
:105640004C4344004C434420636F6E747261737426
:105650003A2000004241434B202055502020204456
:105660004F574E2020534156450004E200939B07BC
:10567000E0E7F0E00E94075F089502E00093690709
:1056800011272227A7D01F932F930E94A3542F9155
:105690001F910091F707033041F0C9E10E949B5E22
:1056A0000091D90700230AF444C00E94575D0027E7
:1056B0000F93A0917F070A1711F400E401C000E2E4
:1056C0000E94F05B0F910F93E4E1FDEB0E94E15B20
:1056D00000E000933C0700903D0709E0000E0092B7
:1056E0003D070F910395053019F701E000933D0741
:1056F000009181075DD0009182075AD00091830705
:1057000057D00091840754D00091850751D00E9452
:10571000A95BE2E0F8E504E0019FE00DF11D0E94C5
:10572000085B0E94145D00914807023014F40E9447
:10573000E3530E94A95E0830D1F4222309F40895AE
:10574000A0918107E0EBF0E00E94DD5EA09182076E
:105750000E94DD5EA09183070E94DD5EA091840718
:105760000E94DD5EA09185070E94DD5E08950430F1
:1057700041F41A950AF414E00E947A280E94BA5E55
:1057800082CF023029F413951530B1F71127F4CFE9
:10579000013069F42FEFA1E8B7E0A10F08F4B39549
:1057A0000C91039504300CF000270C93E5CF6BCFE0
:1057B0000F9304E200933C070E94895B0F91EEE196
:1057C000FDEB0E94E15B00903D0709E0000E0092B6
:1057D0003D070895E0EBF0E00E94D75EA0938107BB
:1057E0000E94D75EA09382070E94D75EA093830792
:1057F0000E94D75EA09384070E94D75EA09385077E
:1058000008952F007F092F097F122F127F1B2F1B56
:105810007F242F247F2D1091AB062091AC06309170
:10582000AD0640915A0650915B0660915C060E945D
:10583000225F7093400580934105209242050091BC
:105840005D0600934B0600915E0600934C060091A6
:105850005F0600934D0630914005409141055091FF
:10586000420560914B0670914C0680914D06581789
:105870004707360764F000914B06009340050091FE
:105880004C060093410500914D060093420560913E
:105890004B0670914C0680914D06552744273327BF
:1058A000581B470B360B30934B0640934C065093D6
:1058B0004D0630914005409141055091420560915F
:1058C0004B0670914C0680914D06581747073607D6
:1058D00064F400914B060093400500914C06009340
:1058E000410500914D060093420530914F054091CE
:1058F000500550915105609140057091410580918E
:105900004205581B470B360B30934F05409350050B
:1059100050935105089500910008002321F002E002
:105920000E94FB450895CAEFD9E5A0914507B091C3
:10593000440704E10E949028C0934507D093440790
:1059400008F00895E6EEF9E50E948E5D013009F059
:10595000EACF0E943F52299AE8E3FCE508E10A9F5A
:10596000E00DF11DDF017096C8EFD7E018E005915A
:1059700009931A95E1F7FD01C4E0D0E03327A59122
:10598000B591EF93FF93FD0116E0A8EFB7E0A30FE9
:105990000027B01F4C91BF91AF912591042F007843
:1059A00009F02195042F087009F02FEF022FEF93D3
:1059B000FF93FE010E94075F2196FF91EF91440F34
:1059C0001A9559F72296FD0133953830C4F20FEF3E
:1059D000A02FEFEAF0E00E94DF5E29980E94245297
:1059E0000E949F2FA0CF4C6F6164206D6F746F7207
:1059F000206C61796F75742E000053696E676C6559
:105A0000436F7074657220314D20345320205369E8
:105A10006E676C65436F7074657220324D2032532F
:105A200020204475616C436F707465722049492071
:105A3000202020202020547269436F7074657220EA
:105A40004949202020202020202051756164726F58
:105A5000436F707465722078206D6F646520517596
:105A60006164726F436F70746572202B206D6F6478
:105A70006520562D5461696C202020202020202094
:105A8000202020202020562D5461696C2048756EFE
:105A900074657220202020202020593420202020CE
:105AA0002020202020202020202020202020486589
:105AB0007861436F7074657220202078206D6F6468
:105AC000652048657861436F707465722020202BD3
:105AD000206D6F6465204836202020202020202063
