:020000020000FC
:100000000C943F000C94A0330C9480330C943E006D
:100010000C943E000C94E0330C943E000C94C033DE
:100020000C943E000C943E000C943E000C949531D0
:100030000C943E000C944D2F0C94802F0C943E0099
:100040000C943E000C943E000C9438070C943E0037
:100050000C943E000C943E000C943E000C943E0028
:100060000C943E000C943E000C943E000C943E0018
:100070000C943E000C943E000C943E0018950FEF3B
:100080000DBF08E00EBFA4E6B0E00E94883B0E94CE
:10009000B90B0E94F00F0E94F9390E942B3A0E947E
:1000A000F939E0E7F0E00E94F43B037000935E074B
:1000B0000E94281700E00093E30600E00093E406A6
:1000C00000E00093E50600E00093E60603E00093FD
:1000D0008E050FEF00938F0500E00093900501E07F
:1000E00000936C060EE800936D0600E000936E0628
:1000F000002700933C0700933D0700932E070093D1
:10010000070700931007AFEAA0931807A2E0A09397
:100110001907A1E0A0932607A0931B0700930E07E1
:1001200000930F070093160700933E0700933F07C5
:100130000093400700934107009342070093430751
:100140000093440700934507009346070093470731
:10015000009348070093490700934A0700934B0711
:1001600000934C0700934D070093F1060093F206AD
:10017000AAEFA093F306A093F406A093F506A0932C
:10018000F606A093F706A093F806A093F906A093AD
:10019000FA06A0EFA09334070E9467197894E4E769
:1001A000F0E00E94F43B002351F00E94A41603B13A
:1001B000009502950F7061F00E94CB1509C00FEFFA
:1001C00000932D070E949B3B083011F40E94F70F0B
:1001D0000E94C01E06E006BB0E942A2F0E942D34FA
:1001E0000E94D41D0E94CB0E0E94C5100E94B2270F
:1001F0000E947E260E944E040E94220C0E94DF0D67
:100200000E948C2F00900A0710900B070124009287
:100210002A0700912A07002332F40E94940E0091CD
:100220000A0700930B070091120700232AF4002706
:10023000009312070E94AB1B00910A0700230AF4E7
:10024000CBCF03B100950295077039F400270093D6
:100250002D0700E000932807BFCF009128070395E2
:100260000093280700912807023309F0B5CF0091C9
:100270002D07002372F300E000936F000E949B3B68
:10028000077039F3013019F00E940B07A1CF0E94CB
:10029000340D29980E941D070E9452310E94CC35CE
:1002A0000E9483310E94330793CF0E94C01E0E9498
:1002B00033070E948331002700931407009315072A
:1002C00000912E07063014F00FEF01C000270093B5
:1002D00013070E944A3A00910A0700235AF402E2E7
:1002E0000093DD0606E10093DE06E2E0FAE30E94F9
:1002F000C6385DC00CE10093DD06EEEDF4E00E942F
:10030000383800E00093DD0600912E07043064F4D5
:10031000A0910507AA2341F0017000932E07E0E4A5
:10032000F6E70E94C63804C0EAE0F5E00E94A7386C
:1003300000E20E94CC3800912E07E0E2F5E00E9436
:10034000A7380E944F38C0912E0716D10E94BC3B9F
:100350000E94EF3700E00093DD060EE10093DE0619
:10036000E6EEF4E00E94831D0E94C6380091340737
:10037000077FA0910D07A0950A2B59F00091350732
:10038000039500933507017021F0EAEFF4E00E9435
:10039000B73700E00093DD0607E20093DE06E0E1F8
:1003A000FAE30E94C6380E94DD1C0E946F380E944A
:1003B000F9390E942A2F0E942D340E94D41DE8D0C2
:1003C0000E94B2270E947E260E944E040E94220CA8
:1003D0000E94DF0D0E948C2F00900A0710900B07DF
:1003E000012400922A0700912A07002332F40E9478
:1003F000940E00910A0700930B0700911207002347
:1004000022F40027009312075BCF00910A07002314
:100410000AF4CFCF03B1009502950F7021F400E0EC
:1004200000932807C6CF009128070395009328075B
:1004300000912807023309F0BCCF0E949B3B083093
:1004400041F400E000936F000E941D070E945231AA
:100450000895043031F4A0912E07AA9592F4AAE0F1
:1004600010C0023089F4A0912E07A395AB3014F090
:10047000AA2707C00091050700231AF4A23009F447
:10048000A4E0A0932E071CCF0130B1F600E000934A
:100490006F000E941D070E945231C0912E076CD040
:1004A000EF93FF930E94BC3BECE4F5E004E00C9F6B
:1004B000E00DF11DC591D59105901590E02DF12D20
:1004C0000E946C24A02DB12DFF91EF910E94C53B9D
:1004D0000E94C01E0E9433070E948331F1CE48491A
:1004E0004340433F0000526561647920666F72208B
:1004F00074616B652D6F66662100001D7F26526F4B
:100500006C6C0000506974636800487648765076D9
:1005100050765A765A7634762A762A76387638762F
:100520007876887678768876787688767876FE0417
:100530000405FE040405440048004C00500054002B
:1005400058007D0081008300930097000000840321
:10055000000084030000840300008403000084037F
:1005600000008403000084037CFC84037CFC84037F
:10057000D8DC2823D8DC2823EBE9F2E001E00C9F4B
:10058000E00DF11DEE0FFF1FA591B491FD0108953F
:1005900000910A070023CAF03091690640916A066B
:1005A000415030403093690640936A060CF02FC0EA
:1005B0000FEF0093120701E00093690600E9009332
:1005C0006A0600E000936B0622C000913407002306
:1005D000F1F000911007002311F0AAF00EC008E21C
:1005E0002B9AE0911107EA95E093110771F4E091DD
:1005F0003407E77FE093340708C00A9509F005C087
:1006000004EC2B9802C0039551F30093100700915E
:100610003207002322F000910A07002312F02B98E2
:10062000089500913407002309F42B9A08950E943D
:10063000B7220E94A42300910207007C09F01ED17A
:100640000E943C3A05E0EAEAF7E00E94B03801E097
:100650000093DE0628E4E3E9F0E007D106D105D1F6
:1006600004D12093DD060E944F38EFE9F0E00E94AC
:10067000CE3B009339070170E0ECF7E00E94A73809
:1006800000E00093DD0609E30093DE06E0ECF5E709
:100690000E94C638EAECF5E70E94C638E6EEF7E0BD
:1006A00004E0019FE00DF11D0E94B7370E94F93967
:1006B0000E94B03B083009F40895043011F422D0B0
:1006C000BFCF023029F4139515300CF01127B8CFA5
:1006D0000130E9F7143051F4A0913907A095A093A7
:1006E0003907EFE9F0E00E94D43BAACFE3E9F0E05C
:1006F00002E0019FE00DF11DC8EDDCEDA8E2B3E2E0
:10070000A3D09ECF112724E50E943C3A02E0E2EEFE
:10071000F7E00E94B03801E00093DE06EBE9F0E07C
:10072000A4D0A3D00E946F38EAEFF7E004E0019F65
:10073000E00DF11D0E94B7370E94F9390E94B03BCD
:10074000083011F411270895043019F41A95117026
:10075000DBCF0230D9F30130D9F7EBE9F0E002E06A
:10076000019FE00DF11DC8E1DCEFA8EEB3E06CD015
:10077000CBCF526F6C6C204761696E00526F6C6C0E
:10078000204F666673657400506974636820476122
:10079000696E00005069746368204F666673657403
:1007A00000004D6978696E67000072077C07880752
:1007B0009407A2074E6F6E650000446966660000EC
:1007C000B407BA07486F6D6520506F7320526F6C85
:1007D0006C00486F6D6520506F73205069746368BA
:1007E0000000C407D2075300730953097312531250
:1007F000731B531B73245324732D5F007F095F0900
:100800007F124F75747075742074797065206973E8
:100810002073657420746F0045534320666F722007
:100820004D3720616E642F6F72204D382E00436863
:1008300065636B204D6978657220456469746F72D9
:100840002E00020818082E08EF93FF93AF93BF9372
:100850000E94BC3BFF91EF910E946C24A02DB12D12
:10086000FF91EF910E94C53B08952093DD060E9401
:100870004F380E94BC3B0E94303808950E944A3A8B
:100880000E94403803E0E2E4F8E00E94B0380E94A1
:100890008B380E94F9390E94B73B089500E000931D
:1008A0004005009341050093420530918106409137
:1008B00082065091830660914005709141058091B8
:1008C000420558174707360709F011C030918706CF
:1008D00040918806509189066091400570914105CC
:1008E0008091420558174707360709F4089500918B
:1008F0002607023029F500919606009355050091D0
:1009000097060093560500919806009357050091AD
:1009100093060093580500919406009359050091A1
:10092000950600935A0500E0009390060093910607
:100930000093920600938D0600938E0600938F0617
:10094000A5E5B5E0C5E5D5E0EAE8F6E00E940A3C99
:10095000A8E5B5E0C8E5D5E0E4E8F6E00E940A3C89
:1009600003E00093400508EE0093410500E000938A
:100970004205A5E5B5E0C5E5D5E0E0E4F5E00E9477
:100980000A3CA8E5B5E0C8E5D5E0E0E4F5E00E9462
:100990000A3C00E00093400502E00093410500E8B6
:1009A0000093420510915505209156053091570549
:1009B0004091400550914105609142050E94203CC4
:1009C00070939C0680939D0620929E061091580578
:1009D0002091590530915A054091400550914105AB
:1009E000609142050E94203C7093990680939A067C
:1009F00020929B0600912607013041F510916F0669
:100A000020917006309171064091810650918206C6
:100A1000609183060E94203C70938D0680938E0621
:100A200020928F0610917206209173063091740601
:100A30004091870650918806609189060E94203C6B
:100A40007093900680939106209292060091390748
:100A500000230AF078C000918D06009340050091B4
:100A60008E060093410500918F0600934205309158
:100A70008D0640918E0650918F0660919006709180
:100A8000910680919206581B470B360B30938D06CA
:100A900040938E0650938F06A0E9B6E0C0E9D6E0F9
:100AA000E0E4F5E00E940A3C0091990600934005BD
:100AB00000919A060093410500919B060093420520
:100AC0003091990640919A0650919B0660919C0640
:100AD00070919D0680919E06581B470B360B3093F4
:100AE000990640939A0650939B06ACE9B6E0CCE990
:100AF000D6E0E0E4F5E00E940A3C09E000934005FE
:100B000004EC0093410500E000934205A9E9B6E03A
:100B1000C9E9D6E0E0E4F5E00E940A3C30919C0689
:100B200040919D0650919E0660914005709141054F
:100B300080914205581B470B360B30939C0640931F
:100B40009D0650939E06AAEFB5E0CDE8D6E0E9E910
:100B5000F6E00E940A3CADEFB5E0C0E9D6E0ECE972
:100B6000F6E00E940A3C0091FA0500932A060091E3
:100B7000FB0500932B060091FC0500932C060091C9
:100B8000FD0500932D060091FE0500932E060091B1
:100B9000FF0500932F0608952227E0E7F0E00E946A
:100BA000F43B102F0E943C3A05E0E0E2FDE00E9499
:100BB000B03806E60093DD0601E00093DE06BB27B1
:100BC000A12FA395DD270E94EF37222319F40E945D
:100BD0006F3802C00E946538E4E1FDE004E0029F46
:100BE000E00DF11D0E94B7370E94F9390E94B03B19
:100BF000083009F40895043021F42A9542F422E0E3
:100C0000CCCF023029F4239523300CF02227C5CF16
:100C10000130E9F7203091F4A12FA395BB27C1E063
:100C2000D0E0E4E0F0E00E946C24A02DAA951A2FF9
:100C3000E0E7F0E00E94D63B2227AFCF213019F445
:100C4000BCD021E0AACFEEEFFCE00E94733A013065
:100C500011F022E0A2CF0E9464170E942318089589
:100C60000E944A3AAA2341F408E20093DD06EAE230
:100C7000FDE00E94C63807C002E20093DD06ECE406
:100C8000F5E70E94C63801E00093E206B2E000E01A
:100C90000093DD0601E10093DE060A2FBF930F9358
:100CA000EEEAFDE00E94A73800E00093DD060E9416
:100CB00031380F910395BF91BA9581F70E948B3817
:100CC0000E94F9390E94B73B089544656661756CCE
:100CD000742050726F66696C653A200046756E63C9
:100CE00074696F6E733A0000496D706F727420758D
:100CF0007365722070726F66696C652E00005265B4
:100D0000736574206163746976652070726F6669BB
:100D10006C652E0065006D09001B7F2400247F2D6B
:100D2000CA0C0466DC0CE80CFE0C3C44433D00009D
:100D3000416C6C206461746120636F70696564202C
:100D400066726F6D00007468652073656C6563740E
:100D500065642070726F66696C652E00546865204A
:100D600073656C65637465642070726F66696C6529
:100D700073006D75737420626520646966666572C0
:100D8000656E742E000050726F66696C65202331A9
:100D90002063616E206F6E6C790062652065646906
:100DA000746564206D616E75616C6C792E00300D18
:100DB000460D5C0D720D860D9A0D00915E070023A5
:100DC00011F4A4E00FC0A1E0BB27C1E0D0E0E4E053
:100DD000F0E00E946C24A02DAA9500915E070A17EE
:100DE00019F4A2E03DDF0895AF93E8EEFCE00E9425
:100DF000733A013011F0AF910895EE27CF91299AFF
:100E0000FC2F0E94F43BA02F0E94D43BEE23C1F79D
:100E10002998AA27E7CF023019F0043009F0089585
:100E20000695017009F40FEFA0915E070A0F037099
:100E300000935E070E942817089500915E07002323
:100E400009F4089503950093600704E600935F0793
:100E500000270093610700E004BD05E005BD01E047
:100E600000936E00089500E000936E002B980895A3
:100E7000FFB690915F079A95C9F4E0906107EE2064
:100E800019F42B9A9FE00FC02B98909160079A95C8
:100E900021F0909360079FE006C090915E079395C4
:100EA0009093600798ECE094E092610790935F075D
:100EB000FFBE189500919F060093A3060091A0061F
:100EC0000093A4060091A1060093A5060091A20636
:100ED0000093A606089520909F063090A0064090AB
:100EE000A1065090A20660909F067090A006809088
:100EF000A1069090A2060E94913C1093C3062093F5
:100F0000C4063093C5064093C6065091C30660914F
:100F1000C4067091C5068091C60601E00E94FD3CA2
:100F20005093C3066093C4067093C5068093C606AB
:100F300001E00093C70600E00093C80600E00093BC
:100F4000C90600E00093CA061091C7062091C806A2
:100F50003091C9064091CA065091C3066091C406FB
:100F60007091C5068091C606481B370B260B150BE2
:100F70001093A7062093A8063093A9064093AA06CB
:100F80000895B0939F06A093A006D093A106C093A6
:100F9000A20603E00093C30607E00093C4060EEA2E
:100FA0000093C50600E00093C60620909F0630908F
:100FB000A0064090A1065090A2066090C3067090D3
:100FC000C4068090C5069090C6060E94913C10937E
:100FD0009F062093A0063093A1064093A206089591
:100FE000CD2FDA2FAB2FBB2312F4BFEF0895BB2711
:100FF000089560DF70DF2090BB063090BC06409003
:10100000BD065090BE066090A7067090A80680901E
:10101000A9069090AA060E94913C1093D3062093B3
:10102000D4063093D5064093D6062090BF06309064
:10103000C0064090C1065090C2066090A306709012
:10104000A4068090A5069090A6060E94913C10935D
:10105000C3062093C4063093C5064093C60610917C
:10106000D3062091D4063091D5064091D6065091F2
:10107000C3066091C4067091C5068091C606481BE0
:10108000370B260B150B1093D3062093D406309301
:10109000D5064093D6062090BB063090BC06409003
:1010A000BD065090BE066090A3067090A406809086
:1010B000A5069090A6060E94913C1093D706209317
:1010C000D8063093D9064093DA062090BF063090B8
:1010D000C0064090C1065090C2066090A70670906E
:1010E000A8068090A9069090AA060E94913C1093B1
:1010F000C3062093C4063093C5064093C6061091DC
:10110000D7062091D8063091D9064091DA06509141
:10111000C3066091C4067091C5068091C606480F4B
:10112000371F261F151F1093D7062093D80630931C
:10113000D9064093DA060895B0917305A09174051D
:10114000D09175054DDF1DDF0091AF060093BB0602
:101150000091B0060093BC060091B1060093BD0655
:101160000091B2060093BE060091B3060093BF063D
:101170000091B4060093C0060091B5060093C10625
:101180000091B6060093C20634DF0091D3060093A7
:10119000AF060091D4060093B0060091D5060093E7
:1011A000B1060091D6060093B2060091D7060093CF
:1011B000B3060091D8060093B4060091D9060093B7
:1011C000B5060091DA060093B606B0917005A091BD
:1011D0007105D091720504DFD4DE0091AB06009357
:1011E000BB060091AC060093BC060091AD060093CF
:1011F000BD060091AE060093BE060091B3060093B3
:10120000BF060091B4060093C0060091B506009396
:10121000C1060091B6060093C206EBDE0091D3062C
:101220000093AB060091D4060093AC060091D5065E
:101230000093AD060091D6060093AE060091D70646
:101240000093B3060091D8060093B4060091D90626
:101250000093B5060091DA060093B606B0916405D6
:10126000A0916505D0916605BBDE8BDE0091AB06D3
:101270000093BB060091AC060093BC060091AD063E
:101280000093BD060091AE060093BE060091AF0626
:101290000093BF060091B0060093C0060091B1060E
:1012A0000093C1060091B2060093C206A2DE00912F
:1012B000D3060093AB060091D4060093AC060091D0
:1012C000D5060093AD060091D6060093AE060091B8
:1012D000D7060093AF060091D8060093B0060091A0
:1012E000D9060093B1060091DA060093B20608957C
:1012F0002090AB063090AC064090AD065090AE0604
:101300006090AB067090AC068090AD069090AE06F3
:101310000E94913C1093C3062093C4063093C506E7
:101320004093C6062090AF063090B0064090B106BC
:101330005090B2066090AF067090B0068090B106F3
:101340009090B2060E94913C1093C7062093C80665
:101350003093C9064093CA061091C3062091C40673
:101360003091C5064091C6065091C7066091C806E7
:101370007091C9068091CA06480F371F261F151F96
:101380001093C3062093C4063093C5064093C60647
:101390002090B3063090B4064090B5065090B60643
:1013A0006090B3067090B4068090B5069090B60633
:1013B0000E94913C1093C7062093C8063093C9063B
:1013C0004093CA061091C3062091C4063091C50609
:1013D0004091C6065091C7066091C8067091C90633
:1013E0008091CA06480F371F261F151F1093B70696
:1013F0002093B8063093B9064093BA060895009139
:10140000AB060093CF060091AC060093D006009186
:10141000AD060093D1060091AE060093D2062AD005
:101420000091750600936F06009176060093700692
:1014300000917706009371060091AF060093CF06E6
:101440000091B0060093D0060091B1060093D1063A
:101450000091B2060093D2060DD00091750600935C
:10146000720600917606009373060091770600934A
:10147000740608950AE50093C70600E00093C806C5
:1014800000E00093C90600E00093CA062090CF0652
:101490003090D0064090D1065090D2066090C7069A
:1014A0007090C8068090C9069090CA060E94913C30
:1014B0001093C3062093C4063093C5064093C60616
:1014C000B091C306A091C406D091C506C091C606CE
:1014D00087DDB0937506A0937606D09377060895BE
:1014E00011270E943C3A05E0E6E0F7E70E94B03899
:1014F00001E00093DE06BEE40E94293301E0009380
:10150000DE0620E3CEE4D7E0EBEAF0E088D087D037
:1015100086D085D084D001E00093DE0626E67FD019
:101520007ED07DD00E946F38E4E9F5E104E0019FB0
:10153000E00DF11D0E94B7370E94F9390E94B03BBF
:10154000083029F480D010F455D0CBCF0895043062
:1015500019F41A951770C5CF023011F41395FACF0C
:101560000130B9F4EBEAF0E0BB27E10FFB1FEF938A
:10157000FF930E94CE3BAA95A770A395C1E0D0E04F
:10158000E8E0F0E00E946C24A02DFF91EF910E9412
:10159000D43BA7CF39004509390945123912451BFB
:1015A000391B45243924452D6F007B096F097B12B7
:1015B0006F127B1B4368616E6E656C206D6170708D
:1015C000696E672069730000696E76616C69642ECC
:1015D000204475706C696361746573006172652085
:1015E0006E6F7420616C6C6F7765642E0000B415AB
:1015F000C815DC150E944A3A02E20093DD06ECE4CD
:10160000F5E70E94383803E0EEEEF5E10E94B038CD
:101610000E948B380E94F9390E94B73B08952093AD
:10162000DD060E944F380E94CE3B0A950993087F41
:1016300031F00DE20E94CC380E9431380895BB276A
:101640000E9430380895CEE4D7E0EE27B8E0099143
:10165000A02FA87F59F40894AA1F0A95EAF7EA2B4D
:10166000BA95A9F7E09511F488940895089408951F
:1016700000915E07002329F0E2E8FCE40E94432683
:10168000089510913A070E944A3A02E20093DD065B
:1016900003E10093DE06EAE2F7E10E94383804E055
:1016A0000093E2061170E0E3F7E102E0019FE00D34
:1016B000F11DA591C491A093DD06C093DE0604E060
:1016C000010F0E94CC3801E00093E2060E946538C9
:1016D0000E94F9390E94B03B083009F408950430A3
:1016E00011F41395D0CF0230E1F30130E9F4012F6A
:1016F0000A95009500933A07E2E7F0E00E94FE3B6E
:101700000E944A3A02E20093DD06E2E5F5E70E9414
:10171000383803E0ECE6F7E10E94B0380E948B38DD
:101720000E94F9390E94B73BAECF3E464443480081
:10173000380000144F6E2D73637265656E20617200
:10174000726F77206D7573740000706F696E74200E
:10175000746F207468652066726F6E74206F660007
:10176000796F7572206D6F64656C2E0034174A179F
:10177000601700E001B90AE004B90FEF07B902EF02
:101780000AB90FEF00937E0005EF05B90DE00BB924
:1017900000E00093800002E00093810000E00093ED
:1017A000820005E10093690003E00DBB0AE00093AD
:1017B000680001E00093730005E000936C005D9AFF
:1017C0005C9A5E982B9A299AA4EFB1E00E94883B1C
:1017D0002B9829985E9AA4E6B0E00E94883B089571
:1017E0000E944A3A06E10093DD06EEE0F8E10E942D
:1017F000383804E0ECE3F8E10E94B0380E947D380C
:101800000E94F9390E94B03B0830E1F708954A3D43
:101810004647404443004B4B322E302076312E3623
:101820002B2B20523500666F72207374616E6461D9
:101830007264205258206F6E6C792E00161826188C
:101840000466DC7500E000934005009341050093B9
:1018500042053091570640915806509159066091C3
:10186000400570914105809142055817470736079A
:1018700059F030915706409158064150304030930E
:1018800057064093580603C0002700933307009182
:10189000380700236AF4009118070A950093180787
:1018A000002331F4002700933807AFEAA09318070C
:1018B00000900A0710900D07012000922A0700915E
:1018C0002A07002322F500911607002302F1309128
:1018D0005406409155064150304030935406409391
:1018E0005506ACF403E00093540600E2009355065D
:1018F00000E0009356060FEF0093330700E00093DB
:10190000570604E10093580600E000935906009042
:101910000A0710900B07012400922A0700912A075A
:1019200000233AF400E000936306009364060093FA
:10193000650600E00093400500E00093410501E0EA
:1019400000934205A3E6B6E0C3E6D6E0E0E4F5E0A6
:101950000E940A3C0DE70093400500E0009341051A
:1019600000E0009342053091630640916406509177
:1019700065066091400570914105809142055817B8
:101980004707360764F00091400500936306009115
:10199000410500936406009142050093650600919D
:1019A0001607002322F000911507002372F400911E
:1019B0001707002319F10A950093170700E0009319
:1019C000660600936706009368060AE000934005E8
:1019D0000CEF0093410500E8009342053091630647
:1019E00040916406509165066091400570914105F3
:1019F0008091420558174707360704F13091660673
:101A00004091670641503040309366064093670628
:101A1000ACF407E00093660600ED0093670600E073
:101A2000009368060FEF0093330701E00093570619
:101A300000E90093580600E0009359060090330730
:101A400010903207012800922A0700902A07109070
:101A50003807012800922A0700912A07002312F074
:101A600029980895299A08950F93EF93FF93E1E938
:101A7000F0E00E94F23BFF91EF91002312F00F91F2
:101A80000895CF93299AC2E30E948D3B2998CF9164
:101A90000F910895402F2A2F3B2F0E942B3A01E0EF
:101AA0000093E10604E00093E206203049F00AE3E7
:101AB0000093DD0600E00093DE0600E00E94CC38D3
:101AC000022F0B5F041749F00AE30093DD0602E3DF
:101AD0000093DE0601E00E94CC3801E00093E206AC
:101AE00008E00093DE0615E0FE0104E1029FE00D30
:101AF000F11D00E00093DD06A4E105910E94CC38C1
:101B0000AA95D9F70090DE0608E0000E0092DE06E6
:101B10001A9579F708E0039F002D095F0093DE0610
:101B2000075F0093E00600E00093DD060FE70093F7
:101B3000DF0600E00093E1060E94A5370E945B38B3
:101B40000E94F939AEE10E949B3B003021F0097000
:101B5000D1F7AA95C1F70E94B13B083019F4AA2722
:101B6000889429C0043061F4303019F03A950C940F
:101B7000DE0D203019F02A950C94DE0D0C94DE0D4C
:101B8000023071F4343019F033950C94DE0D042FCB
:101B90000550201719F023950C94DE0D0C94DE0DE2
:101BA000013061F40E942B3A0E94F9390E94AC3B4B
:101BB000A22FA30F0894C22FD32F08956ECF309178
:101BC00088054091890550918A0560918E05709134
:101BD0008F058091900558174707360764F40091E8
:101BE000880500938E050091890500938F0500916B
:101BF0008A050093900530918805409189055091A0
:101C00008A0560918B0570918C0580918D05581B1C
:101C1000470B360B3093A3054093A4055093A505BD
:101C20006091A3057091A4058091A50508E00E942C
:101C3000173C6093A3057093A4058093A505ABE8BA
:101C4000B5E0CBE8D5E0E3EAF5E00E940A3C30914C
:101C50003C0640913D0650913E0660918B05709187
:101C60008C0580918D05581B470B360B3093A305CF
:101C70004093A4055093A5050AF44FC06091A305B5
:101C80007091A4058091A50502E00E94173C609325
:101C9000A3057093A4058093A50500E0009340057B
:101CA00000E10093410500E0009342053091A30557
:101CB0004091A4055091A5056091400570914105A2
:101CC0008091420558174707360764F00091400598
:101CD0000093A305009141050093A40500914205DE
:101CE0000093A505ABE4B6E0CBE4D6E0E3EAF5E08B
:101CF0000E940A3CB0914B06A0914C06D0914D0633
:101D0000AA235AF000913107002351F00A9500935D
:101D100031070FEF00933207089504E6009331076F
:101D2000002700933207089500910A07002392F5D7
:101D300000E00093430501E00093440508E30093AD
:101D4000450510913C0620913D0630913E0640919C
:101D5000430550914405609145050E94203C7093D5
:101D60004005809341052092420530914005409105
:101D700041055091420560918805709189058091D7
:101D80008A055817470736072CF400913407086076
:101D900000933407089500910A070023CAF0309198
:101DA000690640916A06415030403093690640937D
:101DB0006A060CF054C00FEF0093120701E0009385
:101DC000690600E900936A0600E000936B0647C0CD
:101DD00000910D0700230AF130916C0640916D06C9
:101DE0004150304030936C0640936D06B1F401E0F1
:101DF00000936C060EE800936D0600E000936E06FB
:101E0000A0913C07A395AC3331F4B0913D07B39555
:101E1000B0933D07AA27A0933C0700913407002305
:101E2000F1F000911007002311F0AAF00EC008E2B3
:101E30002B9AE0911107EA95E093110771F4E09174
:101E40003407E77FE093340708C00A9509F005C01E
:101E500004EC2B9802C0039551F3009310070091F6
:101E60001907A0911A070A1709F443C000931A072B
:101E7000A1E2B7E0A00F08F4B395EC91E370E09312
:101E80002707ACE1B7E0A00F08F4B3950027009353
:101E9000130700931407009315070C91A0911B07DB
:101EA000E295E02BE0931B07EA1719F0AFEFA09340
:101EB00038070023F1F0033039F40FEF00931507D2
:101EC0000FEF0093170712C0023081F40FEF009359
:101ED00013070091330600933006009134060093F7
:101EE0003106009135060093320603C0AFEFA09390
:101EF000140700913207002322F000910A07002303
:101F000012F02B98089500913407002309F42B9ABE
:101F1000089500915E07002329F0E2E8FCE40E94A6
:101F2000432608950E944A3A0EE20093DD06E6EB4E
:101F3000FFE10E94383800E00093DD060AE10093DB
:101F4000DE06EAEBFFE10E94C638BB27A0913B0703
:101F5000DD270E94EF3700E00093DD0609E30093E0
:101F6000DE06EAECFFE10E94C6380E94F9390E94C1
:101F7000B03B083011F434D00895043041F400919E
:101F80003B070E32BCF4039500933B07CBCF0230E6
:101F900041F400913B0709316CF00A9500933B072F
:101FA000C1CF013039F4A0913B07E3E7F0E00E9494
:101FB000D63B0895B7CF413B3C004C434420436F90
:101FC0006E74726173743A2000004241434B2020CA
:101FD0005550202020444F574E2020534156450055
:101FE000E3E7F0E00E94F43B00933B07089504E22E
:101FF00000933B07E3E7F0E00E94FE3B089502E018
:1020000000930007112722279AD01F932F930E9435
:102010002D342F911F910E943C3A00270F93A091DD
:1020200019070A1711F400E401C000E20E94CC383D
:102030000F910F93A1E30A0F0E94CC3800E00093A8
:10204000DD060E9431380F910395053039F701E024
:102050000093DE06CCE1D7E05AD059D058D057D003
:1020600056D001E00093DE06C1E2D7E05DD05CD03F
:102070005BD05AD059D00E946F38E2E6F1E204E01A
:10208000019FE00DF11D0E94B7370E94F9390E94AF
:1020900079330E949B3B083081F4022F017029F0B4
:1020A000CCE1D7E0E1EAF0E055D0227029F0C1E2BE
:1020B000D7E0E6EAF0E04ED00895043041F41A95F6
:1020C0000AF419E00E94340D0E94AC3B9ECF02300E
:1020D00029F413951A30B1F71127F4CF0130B1F478
:1020E000C12FC695D12FD17021F0A1E2B7E02260B7
:1020F00003C0ACE1B7E02160AC0F08F4B3950C91DC
:10210000039504300CF000270C93DCCF7ECF0CE05D
:102110000093DD060E944F380991E0EFF6E70E9438
:10212000A7380E94313808950BE50093DD06099128
:10213000E8EFF6E70E94A7380E9431380895CCE115
:10214000D7E0E1EAF0E0BAE00E94CE3BA993BA956D
:10215000D9F70895B5E0A9910E94D43BBA95D9F773
:10216000089517004F095A007F0917094F125A099D
:102170007F1217124F1B5A127F1B171B4F245A1B1B
:102180007F2417244F2D5A247F2DAA27BB27DD2714
:10219000C0912707C69508F45496C69508F45E9634
:1021A000B0934005A0934105D09342050E9432218F
:1021B000ADECB5E0C9EDD5E0E0E4F5E00E940A3C05
:1021C000A0EDB5E0CCEDD5E0E0E4F5E00E940A3CFE
:1021D000089500915E07002329F0E2E8FCE40E94E4
:1021E00043260895C8EBD2E2A091E606B091E50639
:1021F00004E10E944A0DC093E606D093E50608F07C
:102200000895E4EAF2E20E94733A013009F0EACF5D
:102210000E948331299AE6EFF4E208E10A9FE00D7B
:10222000F11DDF017096C6E5D7E018E0059109932E
:102230001A95E1F7FD01C4E0D0E03327A591B591EF
:10224000EF93FF93FD0116E0A6E5B7E0A30F00278B
:10225000B01F4C91BF91AF912591042F007809F0E8
:102260002195042F087009F02FEF022FEF93FF93B1
:10227000FE010E94FE3B2196FF91EF91440F1A95BB
:1022800059F72296FD0133953830C4F20FEFA02F95
:10229000E4EBF0E00E94D63B29980E9452310E9464
:1022A000F513A0CF4C6F6164206D6F746F72206C5A
:1022B00061796F75742E000053696E676C65436FAA
:1022C0007074657220314D203453202053696E673D
:1022D0006C65436F7074657220324D20325320203C
:1022E0004475616C436F70746572204949202020E9
:1022F00020202020547269436F7074657220494910
:10230000202020202020202051756164726F436FAF
:10231000707465722078206D6F64652051756164FA
:10232000726F436F70746572202B206D6F6465202F
:10233000562D5461696C2020202020202020202050
:1023400020202020562D5461696C2048756E7465DC
:1023500072202020202020205934202020202020DE
:102360002020202020202020202020204865786167
:10237000436F7074657220202078206D6F64652033
:1023800048657861436F707465722020202B206D42
:102390006F64652048362020202020202020202027
:1023A00020202020202020205636202020202020E1
:1023B00020202020202020202020202059362020CE
:1023C000202020202020202020202020202020200D
:1023D0004F63746F436F7074657220202078206D96
:1023E0006F6465204F63746F436F70746572202053
:1023F000202B206D6F64652048382020202020206D
:10240000202020202020202020202020563820207E
:1024100020202020202020202020202020202020BC
:102420005838202020202020202020202078206DB7
:102430006F64652058382020202020202020202074
:10244000202B206D6F64652000000000000000005C
:102450000064320000006400320000006464000088
:102460000000646432000064000032000064006414
:102470003200640000000003640000640003640094
:102480006400000364006464000364265C64000369
:10249000642A47640003643257640003643D18648F
:1024A0000003644700640003644718640003644742
:1024B0004700000364474764000364511864000345
:1024C000645732000003645732640003645C26647E
:1024D0000003646400000003646400640003646437
:1024E0004764000378005A640003646464280003AE
:1024F0005F006464000372246C2460246C246024F4
:10250000482448244824000000402000000078248B
:10251000782466245424482448244824482400105D
:10252000000000000000D224D2245A245A24482457
:1025300048245A245A240140002000000020C024CE
:10254000C0247E244E24482448244E24482440019C
:10255000200000001000B424B424B424B42448247F
:10256000482448244824401020700000000084249F
:10257000D8248424D82448244824482448240010FB
:10258000205000000000AE24AE24E424E4244824BB
:102590004824482448244001203000000000EA2458
:1025A000EA24F024F02448244824482448245000F5
:1025B000203000000000B424B4248424842448245F
:1025C000482448244824401020300000000096246D
:1025D000D82496249624D8249624482448240010ED
:1025E0002070405000008424C624C6248424C624BD
:1025F000C624482448240010203060500000B42431
:10260000A224B424B424A224B424482448240010CE
:10261000207040500000DE24A22490249024A224A4
:10262000DE24482448240010207040500000C624B6
:10263000C624C624C6248424842448244824405024
:102640000010203000008A24CC24CC248A248A2440
:10265000CC24CC248A240010203060704050842484
:10266000B424D824B4248424B424D824B42400105A
:10267000003020704050B424A824A824B424B424EA
:10268000A824A824B4240010203060704050DE2418
:10269000BA249C24902490249C24BA24DE24001084
:1026A000203060704050B424B424B424B424B42442
:1026B000B424B424B424405000102030607084242A
:1026C0008424D824D82484248424D824D824001012
:1026D00000102030405011270E943C3A05E0E8EB02
:1026E000F7E20E94B03801E00093DE06EDE7F0E08B
:1026F00005E00F9304E50093DD060E944F380E9429
:10270000BC3B0E9430380F910A9599F70E946F38B0
:10271000E2ECF7E204E0019FE00DF11D0E94B73703
:102720000E94F9390E94B03B083009F40895043042
:1027300021F41A950AF414E0CFCF023029F413954E
:10274000153009F410E0C8CF0130F1F4EDE7F0E006
:1027500002E0019FE00DF11DEF93FF930E94BC3B4F
:10276000E6EDF7E204E0019FE00DF11DC591D59182
:1027700005901590E02DF12D0E946C24A02DB12D17
:10278000FF91EF910E94C53BA7CF41434320547274
:10279000696D20526F6C6C00414343205472696D27
:1027A0002050697463680000534C204D6978696E4D
:1027B0006720526174650000787680768A279827B2
:1027C000A8275F0079095F0979125F12791B5F1BE7
:1027D00079245F24792D00008403000084037CFCAD
:1027E00084037CFC840305003200E4EBF0E00E94EB
:1027F000F43B00232AF0EEE7FCE40E944326089510
:102800000E94B72244240E943C3AE4E5FBE20E9485
:10281000C638442081F4ECE5FBE20E94C6380FEF95
:10282000602E08E0802E55240E94431453948A940D
:102830008820D1F709C0542C5A94A42DBB270E949C
:10284000EF3766240E94431401E00093E20601E0A2
:102850000093E10600E00093DD0609E30093DE0645
:10286000E8E6FBE20E94C6380E94F9390E94B03BBC
:10287000083009F40895043029F4439409E040161F
:1028800009F44424C0CFE0E0F5E008E0059DE00D48
:10289000F11D01E00093E1060FEF702EDD27A1810D
:1028A000BB27AA2312F4DFEFBFEFB093E205A0939A
:1028B000E305D093E40500E0009340050093410553
:1028C000009342053091E2054091E3055091E40503
:1028D0006091400570914105809142055817470766
:1028E000360709F0772400E00093400500E00093EC
:1028F000410500E4009342051091E2052091E305B3
:102900003091E405409140055091410560914205A8
:102910000E94203C7093E2058093E3052092E40539
:1029200000E00093400500E60093410500E00093BD
:102930004205EF93FF93A2EEB5E0C2EED5E0E0E4EE
:10294000F5E00E940A3CFF91EF91B091E205A09161
:10295000E305D091E405A093DD06DD27A281BB2726
:10296000AA2312F4DFEFBFEFB093E205A093E305D3
:10297000D093E40500E000934005009341050093E7
:1029800042053091E2054091E3055091E4056091E4
:102990004005709141058091420558174707360759
:1029A00009F077240FEF009340050FEF00934105E6
:1029B00000EC009342051091E2052091E30530916F
:1029C000E4054091400550914105609142050E9407
:1029D000203C7093E2058093E3052092E40500E03B
:1029E0000093400500E20093410500E0009342059A
:1029F000EF93FF93A2EEB5E0C2EED5E0E0E4F5E0A0
:102A00000E940A3CFF91EF91B091E205A091E3058D
:102A1000D091E405A093DE06DD27A081BB27AA2381
:102A200012F4DFEFBFEFB093E205A093E305D0937C
:102A3000E40500E000934005009341050093420542
:102A40003091E2054091E3055091E4056091400525
:102A5000709141058091420558174707360709F0E4
:102A60007724A381AA2309F07724772072F46620C3
:102A70000AF4089502E40093DD060BE10093DE06FC
:102A8000ECE4FBE20E94C6380895A581A0FD0DC0CC
:102A9000662052F002E40093DD060BE10093DE06AF
:102AA000E0E6FBE20E94C638089500E60093DF06E8
:102AB00000E20093E0060E9449390091DD060450CF
:102AC0000093DD060091DE0607500093DE0604E069
:102AD0000093E20602E0A381AA230AF003E00E9429
:102AE000CC380091DD060E500093DD060090DE0626
:102AF00005E0000E0092DE0600E00093E20600E032
:102B00000093E106052D0E94CC3866200AF41DC012
:102B100001E00093E20601E00093E1060FE000937C
:102B2000DE0603E0EF93FF93E0E9FBE20E94B0389A
:102B3000FF91EF9101E20093DE06A381AA231AF030
:102B40000E94563802C00E9454380895556E75731D
:102B500065642E004D6F746F723A2000414C4C003A
:102B6000536572766F2E00004241434B20204E4544
:102B700058540000446972656374696F6E00736530
:102B8000656E2066726F6D0061626F76653A000057
:102B9000742B7E2B882B0FEF00932D0700270093BB
:102BA00037070E943C3A03E10093DD06E4E8FDE2CA
:102BB0000E94C63800E00093DD0604E10093DE06C3
:102BC00000912D07002392F002E0EEEDFDE20E945D
:102BD000B03800E00093DD0609E30093DE06E4E987
:102BE000FDE20E94C6380E94F9392EC002E0EAEDEB
:102BF000FDE20E94B0380E94F93900E0009301071D
:102C000000E00093020701E00093040708E000934E
:102C100003070FEF00930A0700E00093510601E05D
:102C20000093520600E0009353062B9A06E006BB81
:102C300003E10093400508E80093410500E000939C
:102C40004205002700930D070E942A2F009140059E
:102C50000093E8050093EB05009141050093E90519
:102C60000093EC05009142050093EA050093ED0501
:102C7000009140050093EE050093F1050091410598
:102C80000093EF050093F205009142050093F005D3
:102C90000093F305009140050093F4050093F705B8
:102CA000009141050093F5050093F8050091420558
:102CB0000093F6050093F905009140050093FA058D
:102CC0000093FD05009141050093FB050093FE056F
:102CD000009142050093FC050093FF050E948C2F94
:102CE00003B1009502950F700F9300912D070023FB
:102CF0006AF40F910023B9F003E10093400508E85E
:102D00000093410500E0009342059ECF0F910830EB
:102D1000B9F000E00093400504E60093410500E0AF
:102D20000093420591CF00E00093400504E6009334
:102D3000410500E000934205002700932D0731CFA5
:102D40002B980E94340D0895AA27E4E7F0E00E9432
:102D5000D63B0895E4E3FEE20E94733A013009F0A5
:102D600008950E944A3A0E94403804E0E8E4FEE2F6
:102D70000E94B0380E94F939AFEFE4E7F0E00E941A
:102D8000D63BFFCF4553432043414C494252415427
:102D9000494F4E0045584954000052656C656173B7
:102DA0006520627574746F6E2061742074686500AC
:102DB00045534320636F6E6669726D6174696F6E0F
:102DC0002062656570005761697420666F722074B7
:102DD00068652066696E616C00009A2DB02DC62D65
:102DE000B02D4553432063616C6962726174696FF1
:102DF0006E2077696C6C0000626520617661696C99
:102E000061626C65206F6E20746865006E65787411
:102E10002073746172742D7570206F6E6C792E0042
:102E200052454D4F56452050524F5053204649521F
:102E300053542100446F204553432063616C696201
:102E4000726174696F6E2E00E22DF82D0C2E202E0B
:102E5000A0E0B0E025D0A0F4002700935E0734D0B6
:102E6000AA27E0E7F0E00E94D63B0E94D63B0E94F2
:102E7000D63B0E94A4160E94F70F7ED0E4D008959E
:102E8000E1E7F0E00E94F43B00230AF075D0B09136
:102E90005E07BB2321F0AA2703D008F415D00895BC
:102EA000C0E6DFE214E0FE0104910F93FD010E94F1
:102EB000F43BEF910E1731F4119621961A9599F77C
:102EC0008894089508940895E4E0F0E0A0E0B0E06C
:102ED00010E40E94D43B1A95E1F7A4E4B0E0C8E006
:102EE000DFE218E13FD0A5E7B0E010E43BD0A0E07E
:102EF000B0E014E037D015E00E94340DC0E00E942D
:102F00008D3B1A95C9F7089532006400190014002A
:102F100032006400190014003200140032000A006C
:102F20001E001E0032005A003C0014000000000089
:102F30000A000A00000000003200FFFFFFFF00004F
:102F4000000000000000000000000000000301037A
:102F5000020000000000010203040506070800004B
:102F6000190373B5FE010491FD010E94FC3B11960B
:102F700021961A95B9F708950E944A3A00E1009304
:102F8000DD06ECEAFFE20E94383804E0EEEDFFE2F5
:102F90000E94B0380E948B380E94F9390E94B73BDA
:102FA0000FEFE1E7F0E00E94FE3B0895463D42400E
:102FB000433C3D460000594F552055534520544849
:102FC0004953204649524D574152450041542059DA
:102FD0004F5552204F574E205249534B2100B62F88
:102FE000CC2F0466DC75473D484945004C6F616451
:102FF000204D6F746F72204C61796F75740041437E
:10300000432043616C6962726174696F6E0052653E
:10301000636569766572205465737400426F6172EE
:1030200064204F7269656E746174696F6E00001080
:103030007F1900197F2200227F2B002B7F34EC2F79
:10304000FE2F0E301C3011271093E6061093E50674
:103050000E944A3A02E20093DD06E6EEFFE20E9499
:10306000383804E0EEE3F0E30E94B0380E945B38A9
:10307000EEE2F0E304E0019FE00DF11D0E94B7379E
:103080000E94F9390E94B03B083009F408950430D9
:1030900019F41A951370DCCF023011F41395FACF9E
:1030A0000130B1F60E94AC3B1F93103019F40E941E
:1030B000E9100CC0113019F40E94681807C01230D2
:1030C00019F40E94A83102C00E94380B1F91C0CF92
:1030D0000E944A3A0EE20093DD06E6E9F3E30E941D
:1030E000383804E0E0EFF3E30E94B0380E949938EA
:1030F0000E94F9390E94B73BA1D10E943C3A09E1F4
:103100000093DD0609E10093DE06E8EFF3E30E9499
:10311000C6380E94F939C0E00E948D3BE0E100E032
:1031200000937F050093800500938105009382053D
:10313000009383050093840500938505009386051D
:10314000009387050E945637EF93AFE7B5E0CFE7CE
:10315000D5E0E6E7F5E00E940A3CA2E8B5E0C2E867
:10316000D5E0E9E7F5E00E940A3CA5E8B5E0C5E84E
:10317000D5E0ECE7F5E00E940A3CEF91C4E60E943E
:103180008D3BEA9509F0DECF60917F057091800557
:103190008091810504E00E94173C60937F05709345
:1031A00080058093810560918205709183058091EF
:1031B000840504E00E94173C6093820570938305A8
:1031C00080938405609185057091860580918705BF
:1031D00004E00E94173C60938505709386058093F8
:1031E0008705D8E2C0E00E948D3BDA95D9F70FEF52
:1031F000009329070E943C3A0AE00093DE0603E0B0
:10320000E6E3F4E30E94B0380AE00093DE06B091F2
:103210007F05A0918005D09181050E942937B0914A
:103220008205A0918305D09184050E942937B09131
:103230008505A0918605D09187050E9429370E94B7
:1032400099380E94F9390091290700230AF5EDE524
:10325000F0E0B0917F05A0918005D09181050E949A
:10326000E63BB0918205A0918305D09184050E9430
:10327000E63BB0918505A0918605D09187050E9417
:10328000E63BE3EBF0E00FEF002F0E94FC3B0AC0AF
:10329000E3EBF0E000270E94FC3B00913407016063
:1032A000009334070E94B73B0E943C3A09E1009327
:1032B000DE06009129070170E2E3F4E30E94A738DB
:1032C0000E9499380E94F9390E94B73B0895E0E1C5
:1032D00000E000936705009368050093690500937B
:1032E0006A0500936B0500936C0500936D050093D0
:1032F0006E0500936F050E945637EF93A7E6B5E081
:10330000C7E6D5E0EEE5F5E00E940A3CAAE6B5E0A6
:10331000CAE6D5E0E1E6F5E00E940A3CADE6B5E09C
:10332000CDE6D5E0E4E6F5E00E940A3CEF91C4E684
:103330000E948D3BEA9509F0DECF609167057091A0
:1033400068058091690504E00E94173C6093670559
:10335000709368058093690560916A0570916B05AB
:1033600080916C0504E00E94173C60936A0570939D
:103370006B0580936C0560916D0570916E05809171
:103380006F0504E00E94173C60936D0570936E0515
:1033900080936F0508953A3B3B00506C6163652054
:1033A000746865206169726372616674206F6E0073
:1033B00061206C6576656C2073757266616365204B
:1033C0006E6F772E000043616C6962726174696F81
:1033D0006E20626567696E730000616674657220B5
:1033E00074686520636F756E74646F776E2E00006D
:1033F0009A33B033C633DA3343616C6962726174F5
:10340000696E672E2E2E000043616C6962726174D2
:10341000696F6E206661696C65642E0043616C693A
:1034200062726174696F6E2073756363656564654C
:10343000640008341C347C6E846E8C6EA5E30E949C
:103440004A3A0AE30093DD0606E10093DE060A2FFE
:103450000E94CC380E94F939D4E6C4E60E948D3B24
:10346000DA95D9F7AA95AF3251F70895112720912F
:1034700005070E943C3A04E0EAE6F5E30E94B03812
:1034800001E00093DE06EFE8F0E040D03FD03ED010
:103490003DD00E946F38E2E7F5E304E0019FE00DC4
:1034A000F11D0E94B7370E94F9390E94B03B0830E5
:1034B000B1F40E94B82320178CF4E4E4F0E0CCE4EB
:1034C000D0E014E00E94BC3BEF93FF93FE010E940A
:1034D000C53BEF01FF91EF911A95A1F708950430D4
:1034E00019F41A951370C5CF023011F41395FACF61
:1034F000013059F4EFE8F0E001E0019FE00DF11D2B
:103500000E94F23B00950E94FC3BB3CF0AE500937A
:10351000DD060E944F380E94CE3B0A2F0170EF93C8
:10352000FF93E2EEF6E70E94A738FF91EF910E9429
:10353000313808954C696E6B20526F6C6C20506965
:10354000746368004175746F2044697361726D0023
:10355000427574746F6E20426565700041726D69CA
:103560006E67204265657073000034354435503510
:103570005C3564007A0964097A1264127A1B641B50
:103580007A2411270E943C3A04E0E4E7F6E30E9423
:10359000B03801E00093DE06E7E8F0E004E00F93C6
:1035A00000E60093DD060E944F380E94BC3B0E945B
:1035B00030380F910A9599F70E946F38ECE7F6E3DF
:1035C00004E0019FE00DF11D0E94B7370E94F93918
:1035D0000E94B03B083019F40E94942308950430EF
:1035E00019F41A951370CECF023011F41395FACF57
:1035F0000130F1F4E7E8F0E002E0019FE00DF11D99
:10360000EF93FF930E94BC3BECE8F6E304E0019FDC
:10361000E00DF11DC591D59105901590E02DF12D8E
:103620000E946C24A02DB12DFF91EF910E94C53B0B
:10363000A9CF4D696E696D756D205468726F747491
:103640006C650000537469636B2044656164205AA3
:103650006F6E6500416C61726D20312F31302056E4
:103660006F6C74730000536572766F2046696C74DA
:103670006572000032364436543666366B007F0978
:103680006B097F126B127F1B6B1B7F2400001400E1
:103690000000640000008403000064000E943C3AC3
:1036A0000027E5E7F0E00F93EF93FF93EEE3F7E3F6
:1036B0000E94A738FF91EF910E94BC3B06E3009364
:1036C000DD060E944F380E94303800E00093DD068E
:1036D0000F910395043039F70E946F38E6E4F7E361
:1036E00004E0019FE00DF11D0E94B7370E94F939F7
:1036F0000E94B03B083009F40895043019F41A957B
:103700001370CCCF023011F41395FACF0130B1F41D
:10371000E5E7F0E002E0019FE00DF11DEF93FF937C
:103720000E94BC3BC0E0D0E0E4EFF1E00E946C24DA
:10373000A02DB12DFF91EF910E94C53BAFCF4876F0
:1037400050765A76627641005C0941095C1241125A
:103750005C1B411B5C240FEF009337070E944A3A21
:1037600000910A070023A2F402E20093DD0606E1BD
:103770000093DE06E2E0FAE30E943838E8E0FAE37C
:103780000E94B7370DE20093DE060E94473892C0D0
:1037900006E20093DD06ECEFF9E30E94C63806E688
:1037A0000093DD0605E40E94CC3801E3A0915E079A
:1037B0000A0F0E94CC3801E00093E20600E000937B
:1037C000DD0601E00093DE06A0913D07C0913C07B5
:1037D000E0D000E00093DD0601E10093DE06E8EDB5
:1037E000F5E791D10E94C6385EF400913507039544
:1037F00000933507017021F0ECE0FAE30E94B7373F
:1038000000E00093DD060BE10093DE06E0E1FAE361
:10381000D4D004E50093DD0600912707002321F0B2
:10382000E8EFF6E70E94A73800E00093DD060E946B
:103830003138E8E1FAE30E94C63800918805009328
:103840004305009189050093440500918A05009382
:10385000450536D004E50093DD0600918E05009302
:10386000430500918F050093440500919005009356
:10387000450526D00E94313800E00093DD06E0E2E5
:10388000FAE30E94C63800913C060093430500917C
:103890003D060093440500913E060093450510D077
:1038A00004E20093DD0609E30093DE06ECEEF9E3A3
:1038B0000E94C6380E94F9390027009337070895FF
:1038C00000E00093400506E0009341050FED0093F2
:1038D00042051091430520914405309145054091E2
:1038E000400550914105609142050E94203C709333
:1038F00040058093410520924205609140057091FA
:1039000041058091420508E00E94173C6093400504
:103910007093410580934205B0914005A091410507
:10392000D09142050E94EF370EE20E94CC38AD2FB5
:10393000BB27DD27B0934005A0934105D0934205F6
:1039400000E00093430500E0009344050AE0009383
:103950004505109140052091410530914205409167
:10396000430550914405609145050E94203C7093A9
:1039700040058093410520924205B0914005A091F9
:103980004105D09142050E94EF3706E50E94CC38F0
:103990000895AA301CF400E30E94CC38BB270E9493
:1039A000EF370AE30E94CC38AC2FAA301CF400E3B6
:1039B0000E94CC380E94EF3708950E94C6380091CB
:1039C000130700232AF4E8E1F6E70E94C6380895B9
:1039D0000091140700232AF4E2E2F6E70E94C638B9
:1039E0000895ECE0F6E70E94C63808953C50524F27
:1039F00046494C453E20204D454E5500473A3E3DF8
:103A000000003A46423D3C0000137F2800107F1919
:103A10004D6F64653A200000426174743A200000E2
:103A20004C5641203A200000414343206E6F7420E1
:103A300063616C696272617465642E004E6F20610F
:103A4000696C65726F6E20696E7075742E004E6FB2
:103A500020656C657661746F7220696E7075742E66
:103A600000004E6F207468726F74746C6520696E0C
:103A70007075742E00004E6F20727564646572203C
:103A8000696E7075742E000053616E6974792063DD
:103A90006865636B206661696C65642E00004E6F1B
:103AA000206D6F746F72206C61796F7574210000E6
:103AB000436865636B207468726F74746C65206C06
:103AC0006576656C2E005258207369676E616C20B4
:103AD000776173206C6F73742100436865636B209A
:103AE00061696C65726F6E206C6576656C2E000086
:103AF000436865636B20656C657661746F72206CDA
:103B00006576656C2E00689400913407077FB9F4E0
:103B100000910D0700231AF0E0EBFAE308950091FD
:103B20000E0700231AF0EAEDFAE3089500910F075B
:103B300000231AF0E0EFFAE30895E8940895009165
:103B400034070370033019F4E6ECFAE308950091AA
:103B50003407047019F0EEE9FAE308950091340790
:103B6000017019F0E8E2FAE3089500913407027059
:103B700019F0E8E8FAE3089500913407007119F0AC
:103B8000ECE3FAE3089500913407007219F0EEE4D3
:103B9000FAE3089500913407007419F0E2E6FAE3BD
:103BA0000895E6E7FAE3089500900D0710903607B0
:103BB000012000922A0700902A0710900A0701208E
:103BC00000922A0700912A07002342F000E00093A8
:103BD0006006009361060093620639C0309160066A
:103BE0004091610601E0400F0027301F30936006CE
:103BF000409361060FE10093400500E40093410506
:103C000000E00093420530916006409161065091BA
:103C100062066091400570914105809142055817F8
:103C200047073607A1F400E00093600600936106A1
:103C300000936206002700930A070FEF0093120714
:103C40000FEF0093160701E0009317070895009106
:103C50000D07002392F50EEF009340050CE0009352
:103C6000410500E00093420530914F054091500519
:103C70005091510560914005709141058091420538
:103C8000581747073607ECF001E00093400504EFB2
:103C90000093410500E00093420530914F054091AB
:103CA00050055091510560914005709141058091FA
:103CB000420558174707360724F400E000930C0725
:103CC000089500910C07039500930C0700910C07D1
:103CD0000F3F09F054C0B0914F05A0915005D0910D
:103CE0005105BB230AF500913407077F09F00895B9
:103CF00000910E070023DAF700910F070023BAF7AF
:103D00000FEF00930A0701E0009357060CE20093BF
:103D1000580600E0009359060E9467190E9413217B
:103D20000AE0009311070CC0002700930A0700E087
:103D30000093570606E90093580600E000935906E1
:103D4000002700931607E2E9F0E00E94CE3BAA2389
:103D50001AF40FEF009333070FEF0093120703E0FD
:103D60000093540600E20093550600E000935606C7
:103D700000E00093600600936106009362060895D8
:103D8000F6D301D4E1D409E00093400504EC00939C
:103D9000410500E00093420500E000932C07EF93FB
:103DA000FF93309140054091410550914205E0E07C
:103DB000F6E060912C0703E0609FE00DF11D319368
:103DC00041935193FF91EF9100912C07039500933C
:103DD0002C0700912C07083011F7EDE7F0E08DD2A9
:103DE0000091400500933006009333060091410591
:103DF0000093310600933406009142050093320689
:103E0000009335067AD200E0009343050AE0009360
:103E1000440500E0009345051091400520914105BF
:103E2000309142054091430550914405609145050C
:103E30000E94203C7093390680933A0620923B06FC
:103E40005CD260914005709141058091420503E08C
:103E50000E94173C60934005709341058093420592
:103E60000091400500935A060091410500935B06BE
:103E70000091420500935C0640D26091400570912C
:103E800041058091420503E00E94173C6093400584
:103E900070934105809342050091400500935D06B3
:103EA0000091410500935E060091420500935F0674
:103EB00024D2E8D1009140050093360600914105D7
:103EC0000093370600914205009338060CD42CD499
:103ED00014D200E00093430503E0009344050AEB8D
:103EE0000093450510914005209141053091420510
:103EF0004091430550914405609145050E94203C46
:103F000070933C0680933D0620923E06F6D100E079
:103F10000093430504E60093440500E00093450543
:103F2000309143054091440550914505609140050D
:103F30007091410580914205581B470B360B309319
:103F4000510640935206509353066091510670916A
:103F500052068091530607E00E94173C6093510679
:103F60007093520680935306E5E7F0E0C6D17AD10C
:103F7000009140050093CD050093D90500914105BE
:103F80000093CE050093DA05009142050093CF051A
:103F90000093DB05B2D166D1009140050093D005B6
:103FA0000093DC05009141050093D1050093DD05E8
:103FB000009142050093D2050093DE059ED152D1B7
:103FC000009140050093D305009141050093D4056D
:103FD000009142050093D50590D144D10091400550
:103FE0000093D605009141050093D7050091420545
:103FF0000093D805CEE4D7E0EBEAF0E0C0D3BFD31E
:10400000BED3BDD3BCD3BBD3BAD3B9D30E94230B89
:1040100020F40E94FA0A0E94700AE3E9F0E06DD1F0
:1040200021D1009140050093810600914105009344
:10403000820600914205009383065FD100914005FE
:104040000093840600914105009385060091420586
:104050000093860652D106D1009140050093870651
:10406000009141050093880600914205009389065E
:1040700044D10091400500938A06009141050093C8
:104080008B060091420500938C0637D100914005C4
:104090000093930600914105009394060091420518
:1040A000009395062AD10091400500939606009151
:1040B00041050093970600914205009398060E94DF
:1040C000CE3BA0933907EDE5F0E00E94DA3BB093D8
:1040D0007F05A0938005D09381050E94DA3BB093C1
:1040E0008205A0938305D09384050E94DA3BB093A8
:1040F0008505A0938605D0938705E2E7F0E00E944E
:10410000D03BA0933A0734D30E949F10E0E9F0E03F
:104110000E94F23B009336070FEF00931A070093BB
:10412000120701E00093040705E0009303070AEF7C
:104130000093000700270093370700930A070093B6
:104140000B070093280700931307009315070093AC
:104150001607009333070093320700933807009344
:104160006006009361060093620600935706009371
:104170005806009359060093540600935506009381
:104180005606009363060093640600936506009349
:10419000660600936706009368060093690600931D
:1041A0006A0600936B0600938D0600938E060093BB
:1041B0008F06009390060093910600939206009359
:1041C0006F060093700600937106009372060093C9
:1041D00073060093740627D003E000938B050FEF5E
:1041E00000938C0500E000938D0500913407007F5B
:1041F00000933407E4EBF0E00E94F43B00232AF044
:1042000000913407046000933407E3EBF0E00E9470
:10421000F23B002332F00091340701600093340731
:104220000895AFD0089500E00093AB060093AC066C
:104230000093AD060093AE0600E00093AF06009336
:10424000B0060093B1060093B20601E00093B306F6
:1042500000E00093B40600E00093B50600E0009390
:10426000B606089560914005709141058091420520
:1042700004E00E94173C60934005709341058093D1
:104280004205089500E00093430500E000934405D3
:1042900002E50093450510914005209141053091BC
:1042A00042054091430550914405609145050E94A7
:1042B000203C70934005809341052092420500E028
:1042C0000093430500E00093440508E00093450592
:1042D00010914005209141053091420540914305E0
:1042E00050914405609145050E94203C7093400523
:1042F000809341052092420508950E94BC3BDD2732
:10430000B0934005A0934105D0934205089500E085
:104310000093430500E80093440500E00093450541
:10432000109140052091410530914205409143058F
:1043300050914405609145050E94203C70934005D2
:104340008093410520924205089544617461206F75
:104350007574206F66206C696D6974733A005365DB
:104360006E736F722063616C6962726174696F6EE3
:10437000000053656E736F72207261772064617400
:1043800061000E943C3A00E00093DD060AE10093E0
:10439000DE060E9456370E945637B0915E05A09106
:1043A0005F05D0916005C4E6D0E0E4E8F3E00E9448
:1043B000AD2208F4B3C0B0916105A0916205D0911F
:1043C0006305C4E6D0E0E4E8F3E00E94AD2208F41F
:1043D000A5C0B0916405A0916505D0916605C4E6BD
:1043E000D0E0E4E8F3E00E94AD2208F497C0B09179
:1043F0007605A0917705D0917805C4E6D0E0E4E891
:10440000F3E00E94AD2208F489C0B0917905A09133
:104410007A05D0917B05C4E6D0E0E4E8F3E00E94A1
:10442000AD2208F47BC0B0917C05A0917D05D091B0
:104430007E05C4E6D0E0E4E8F3E00E94AD2208F493
:104440006DC0B0916705A0916805D0916905C0E97C
:10445000D1E0EAEDF2E00E94AD2208F45AC0B0913A
:104460006A05A0916B05D0916C05C0E9D1E0EAED39
:10447000F2E00E94AD2208F44CC0B0916D05A0910D
:104480006E05D0916F05C0E9D1E0EAEDF2E00E943F
:10449000AD2208F43EC0B0917F05A0918005D09177
:1044A0008105C2ECD1E0E2E5F3E00E94AD2208F420
:1044B00030C0B0918205A0918305D0918405C2ECF3
:1044C000D1E0E2E5F3E00E94AD2208F422C0B09111
:1044D0008505A0918605D0918705C2ECD1E0E2E583
:1044E000F3E00E94AD2208F414C0B091CA05A09177
:1044F000CB05D091CC05C0E0D0E0E9EEF3E00E941E
:10450000AD2208F401C00895E2E3F6E30E94C63844
:1045100009C0EEE5F3E40E94C63804C0E2E7F3E424
:104520000E94C638009134070260009334070E944D
:10453000993800E00093DE0603E00093E2060E9453
:10454000403800E00093DD06EAE4F3E40E94C63858
:104550000E94F9390E94B73B0895AC17BD072CF0B3
:10456000AE17BF0714F48894089508940895C0E422
:10457000A0E0B5E0E4E0F0E00E94F43B0D9331965A
:10458000CA95D1F70895E4E4F0E0B7DE0091400564
:104590000093A605009141050093A70500914205EF
:1045A0000093A805AADEB3DE009140050093AF0595
:1045B000009141050093B005009142050093B105BB
:1045C0009CDE50DE009140050093B8050091410546
:1045D0000093B905009142050093BA058EDE97DE7F
:1045E000009140050093C105009141050093C2056B
:1045F000009142050093C30500910507002312F4C2
:10460000E4E4F0E07ADE009140050093A905009112
:1046100041050093AA05009142050093AB056DDEAC
:1046200076DE009140050093B205009141050093AC
:10463000B305009142050093B4055FDE13DE0091DF
:1046400040050093BB05009141050093BC05009116
:1046500042050093BD0551DE5ADE009140050093EE
:10466000C405009141050093C505009142050093E2
:10467000C605E4E5F0E041DE009140050093AC059D
:10468000009141050093AD05009142050093AE05F0
:1046900034DE3DDE009140050093B50500914105F3
:1046A0000093B605009142050093B70526DEDADDDA
:1046B000009140050093BE05009141050093BF05A0
:1046C000009142050093C00518DE21DE00914005EF
:1046D0000093C705009141050093C805009142056C
:1046E0000093C9050895E7E8F0E007DE00E00093D5
:1046F000430502E30093440500E000934505109153
:10470000400520914105309142054091430550916B
:104710004405609145050E94203C7093CA05809332
:10472000CB052092CC050895E9E8F0E0E6DD0091A4
:1047300040050093DF05009141050093E0050091DD
:1047400042050093E1050895C8E0E0E0F5E0058149
:10475000889401FD0894A795889400FD0894B79566
:104760003896CA95A1F7A0930107B0930207089560
:10477000EFE8F0E00E94F23B0093050708950E94E5
:10478000CE3BAA95A9930895112722270E943C3A6F
:10479000EAE6F8E40E94C6380091050700233AF4DF
:1047A000223029F0E0E4F6E70E94C63805C0022F67
:1047B000E0E9F8E40E94A73800E00093DD060AE093
:1047C0000093DE0600270F93E8E8F8E40E94A7387C
:1047D0000AE20093DD060E944F380F910F93302FAD
:1047E0005AD00E94303800E00093DD060F91039507
:1047F00004304CF30E946F38E4E7F8E404E0019FD2
:10480000E00DF11D0E94B7370E94F9390E94B03BBC
:10481000083009F40895043021F41A950AF414E0DC
:10482000B5CF023029F41395153009F410E0AECF5E
:104830000130E9F7103061F42395233009F4222781
:10484000213029F40091050700230AF422E09ECFCD
:10485000312F3A9520D0C0E0D0E0E0E0FDE70E94A3
:104860006C24A02DB12D20D091CF417869732020E8
:10487000203A20003400670934094F1234124F1BCC
:10488000341B4F2434244F2D7876807688769076AA
:10489000487650765A7611D00E94F23BA02F31967E
:1048A0000E94F23BB02F089508D00A2F0E94FC3BD3
:1048B00031960B2F0E94FC3B0895E4E4F0E0022FB8
:1048C000000F000F000FE00F0027F01F032F000F55
:1048D000E00F0027F01F08952F923F924F925F92B2
:1048E0006F927F928F921F932F933F934F935F937B
:1048F0006F937F938F939F93AF93BF93CF93DF93E8
:10490000EF93FF9311E002E00093E10601E00093D2
:10491000E20600E00093DD0608E30093DE060FE701
:104920000093DF0600E40093E0060E94A53701E053
:104930000093E10600E00093DD0609E30093DE0644
:10494000EF93FF93E4E6FAE40E94C638FF91EF91FB
:104950000EE10093DD0603E10093DE0602E600931C
:10496000DF060AE20093E00602E00093E1060E94FF
:10497000A5370EE10093DD0603E10093DE0602E6B3
:104980000093DF060AE20093E00601E00093E106EF
:104990000E94C8370FE10093DD0604E10093DE06B4
:1049A00001E60093DF0609E20093E0060E94C837A3
:1049B00002E20093DD0608E10093DE0603E00093C7
:1049C000E2060E94EF370E94F9392EE10E949B3BDC
:1049D000003011F02A95D1F7003009F411E00E945F
:1049E0009B3B0030C9F30E94340D083039F4A0E03D
:1049F000B0E0AC17BD070CF4DE01AACF043061F4BF
:104A0000A11B0027B00BAC17BD070CF4DE011395FA
:104A10001F3F08F01FEF9CCF023041F4A10F002789
:104A2000B01FAE17BF070CF0DF01F1CF0130C9F4A2
:104A30000A2E1B2EFF91EF91DF91CF91BF91AF9185
:104A40009F918F917F916F915F914F913F912F91A6
:104A50001F918F907F906F905F904F903F902F901D
:104A6000089576CF434C522020444F574E202020AB
:104A70005550202020444F4E4500E4EBF0E00E94CA
:104A8000F43B002322F0EEE7FCE4FDD00895009112
:104A90005E07002321F0E2E8FCE4F5D0089510E081
:104AA00022270E943C3A06E60093DD06ECEEFBE48A
:104AB0000E94C638A22FA395BB270E94EF3700E0C3
:104AC0000093DD0601E00093DE0600270F93E0E18E
:104AD000FCE40E94A7380F910F93302FF5D008D136
:104AE00000E30093DD060E944F380E94303800E05A
:104AF0000093DD060F910395053044F300E0009329
:104B0000DD06E0EFFBE40E94C63835E0DDD00F9310
:104B10000170EAE1FCE40E94A73808E40093DD0696
:104B2000E6EFFBE40E94C6380F9106950170EEE1B6
:104B3000FCE40E94A7380E946F38ECECFBE404E030
:104B4000019FE00DF11D0E94B7370E94F9390E94C4
:104B5000B03B083009F40895043019F41A95177021
:104B6000A0CF023019F4139517709BCF013069F56F
:104B7000103019F42395277094CF113078F0163047
:104B800068F4312F3A95A0D0B3D0C1E8DFEFEFE75A
:104B9000F0E00E946C24002D9AD083CF163061F48F
:104BA0000E94833135E090D0A1E00A2700FD026029
:104BB0008ED00E94523175CF173039F435E084D051
:104BC000A2E00A2700FD026082D06BCF78007F0947
:104BD0003A0056093A0956123A12561B3A1B562405
:104BE0003A24562D1D2D3D36662D7E3643683A00FB
:104BF000547970653A00526174653A005365727673
:104C00006F00455343004869676800004C6F7700A8
:104C10006276487650765A767076FC4B024C0C4C95
:104C2000064C434400003A3B3B3D474700004120CF
:104C30004D6F746F72204C61796F7574206D757350
:104C400074006265206C6F616465642066697273CC
:104C5000742E0000557365722070726F66696C6502
:104C6000202331206D757374000062652073656CBC
:104C700065637465642066697273742E00002E4C3F
:104C8000424C544C6A4CEF93FF930E944A3A0AE01C
:104C90000093DD06E2E2FCE40E94C6380090DD06E7
:104CA0000CE0000E0092DD06E6E2FCE40E943838DB
:104CB00002E0FF91EF910E94B0380E948B380E9471
:104CC000F9390E94B73B089507D00C94F43B0F9339
:104CD00003D00F910C94FE3BE4E0F0E0022F000FB4
:104CE000000F000FE00F0027F01FE30FF01F0895E3
:104CF000A02FBB27AA230AF4BFEF089500E000937A
:104D0000E50502E30093E60500E00093E705E0E037
:104D1000F5E0D6D00091E205009318060091E30576
:104D2000009319060091E40500931A0600914005CE
:104D30000093E805009141050093E90500914205C3
:104D40000093EA05E8E0F5E0BBD00091E2050093AE
:104D50001B060091E30500931C060091E4050093F7
:104D60001D06009140050093EB050091410500935D
:104D7000EC05009142050093ED05E0E1F5E0A0D0DF
:104D80000091E20500931E060091E30500931F06C3
:104D90000091E40500932006009140050093EE0584
:104DA000009141050093EF05009142050093F00545
:104DB000E8E1F5E085D00091E2050093210600913D
:104DC000E305009322060091E40500932306009179
:104DD00040050093F105009141050093F205009113
:104DE00042050093F305E0E2F5E06AD00091E205A8
:104DF000009324060091E305009325060091E40545
:104E000000932606009140050093F40500914105AA
:104E10000093F505009142050093F605E8E2F5E000
:104E20004FD00091E205009327060091E30500931F
:104E300028060091E405009329060091400500939F
:104E4000F705009141050093F80500914205009394
:104E5000F905E0E3F5E034D00091E20500932A067D
:104E60000091E30500932B060091E40500932C06C6
:104E7000009140050093FA05009141050093FB0560
:104E8000009142050093FC05E8E3F5E019D000919C
:104E9000E20500932D060091E30500932E06009194
:104EA000E40500932F06009140050093FD05009155
:104EB00041050093FE05009142050093FF0508950A
:104EC000DD27A481BB27AA2312F4DFEFBFEFB09345
:104ED000E205A093E305D093E4051091E20520914B
:104EE000E3053091E4054091E5055091E6056091B8
:104EF000E7050E94203C7093E2058093E305209231
:104F0000E405B091E205A091E305D091E4050081AC
:104F100030914C0540914D0550914E050E94663CE4
:104F200001813091910540919205509193050E9425
:104F3000663C02813091940540919505509196050B
:104F40000E94663C038130919705409198055091ED
:104F500099050E94663CB0934005A0934105D0930B
:104F6000420508950091140700230AF0BDC000E037
:104F700000934005009341050093420500914605CA
:104F800000934305009147050093440500914805AF
:104F900000934505309143054091440550914505E6
:104FA000609140057091410580914205581747076F
:104FB000360794F46091430570914405809145054E
:104FC000552744273327581B470B360B309343058F
:104FD00040934405509345053091490540914A0559
:104FE00050914B05609140057091410580914205BB
:104FF0005817470736076CF00091490500934005A4
:1050000000914A050093410500914B05009342052C
:105010001EC0009149050093400500914A05009388
:10502000410500914B050093420560914005709148
:10503000410580914205552744273327581B470BCC
:10504000360B309340054093410550934205309113
:10505000430540914405509145056091400570918C
:1050600041058091420558174707360764F40091BF
:1050700040050093430500914105009344050091CC
:105080004205009345051091430520914405309158
:1050900045054091360650913706609138060E94CA
:1050A000203C709340058093410520924205309149
:1050B0003306409134065091350660914005709159
:1050C000410580914205581B470B360B3093300643
:1050D00040933106509332063CF400E000933006D2
:1050E00000933106009332060E94563730915E05D8
:1050F00040915F055091600560916705709168056A
:1051000080916905581B470B360B30935E05409321
:105110005F055093600530916105409162055091A3
:10512000630560916A0570916B0580916C05581B51
:10513000470B360B3093610540936205509363052E
:1051400030916405409165055091660560916D054B
:1051500070916E0580916F05581B470B360B30938D
:10516000640540936505509366053091760540913E
:1051700077055091780560917F0570918005809149
:105180008105581B470B360B309376054093770506
:10519000509378053091790540917A0550917B05BF
:1051A000609182057091830580918405581B470B9F
:1051B000360B3093790540937A0550937B053091F7
:1051C0007C0540917D0550917E056091850570912B
:1051D000860580918705581B470B360B30937C055D
:1051E00040937D0550937E0500913A0700230AF015
:1051F00054C000915E050093400500915F05009347
:105200004105009160050093420560916105709130
:10521000620580916305552744273327581B470BA8
:10522000360B30935E0540935F0550936005009107
:1052300040050093610500914105009362050091CE
:1052400042050093630500917605009340050091A7
:105250007705009341050091780500934205609120
:10526000790570917A0580917B055527442733276E
:10527000581B470B360B30937605409377055093B8
:105280007805009140050093790500914105009350
:105290007A050091420500937B05A6E7B5E0C6E7D5
:1052A000D5E0EDE5F6E00E940A3CA9E7B5E0C9E7E4
:1052B000D5E0EAE5F6E00E940A3C00E000934305F1
:1052C00000E00093440507E0009345053091760522
:1052D0004091770550917805609178067091790634
:1052E00080917A06581B470B360B3093A3054093E9
:1052F000A4055093A5051091A3052091A405309114
:10530000A5054091430550914405609145050E94D3
:10531000203C7093A3058093A4052092A505A8E7DF
:10532000B6E0C8E7D6E0E3EAF5E00E940A3C309137
:10533000790540917A0550917B0560917B067091CB
:105340007C0680917D06581B470B360B3093A305D6
:105350004093A4055093A5051091A3052091A405A1
:105360003091A50540914305509144056091450554
:105370000E94203C7093A3058093A4052092A5056C
:10538000ABE7B6E0CBE7D6E0E3EAF5E00E940A3C03
:1053900030917C0540917D0550917E0560917E069F
:1053A00070917F0680918006581B470B360B309317
:1053B000A3054093A4055093A5051091A305209142
:1053C000A4053091A5054091430550914405609195
:1053D00045050E94203C7093A3058093A40520926C
:1053E000A505AEE7B6E0CEE7D6E0E3EAF5E00E9439
:1053F0000A3C00E00093400500E00093410503EB08
:105400000093420510917B0620917C0630917D0629
:105410004091400550914105609142050E94203C19
:1054200070933F06809340062092410610917806C3
:105430002091790630917A064091400550914105BE
:10544000609142050E94203C70934206809343067F
:105450002092440600915E050093700500915F055F
:10546000009371050091600500937205009161053C
:105470000093730500916205009374050091630524
:105480000093750500E00093400504E10093410599
:1054900000E000934205309142064091430650914E
:1054A000440660914005709141058091420558176E
:1054B000470736070CF0DAC030913F0640914006AE
:1054C00050914106609140057091410580914205DF
:1054D0005817470736070CF0C9C060914005709116
:1054E000410580914205552744273327581B470B18
:1054F000360B30934005409341055093420530915F
:1055000042064091430650914406609140057091D7
:105510004105809142055817470736070CF4A6C08D
:1055200030913F0640914006509141066091400500
:1055300070914105809142055817470736070CF4D2
:1055400095C000E0009340050CE30093410500E0A6
:105550000093420530917E0640917F06509180066F
:1055600060914005709141058091420558174707A9
:1055700036070CF07BC06091400570914105809129
:105580004205552744273327581B470B360B3093CA
:105590004005409341055093420530917E0640916D
:1055A0007F06509180066091400570914105809181
:1055B00042055817470736070CF458C030916F065C
:1055C000409170065091710660913F0670914006BF
:1055D00080914106581B470B360B30934005409392
:1055E00041055093420560914005709141058091BD
:1055F000420502E00E94173C60934005709341050C
:1056000080934205A0E7B5E0C0E7D5E0E0E4F5E02F
:105610000E940A3C309172064091730650917406C4
:10562000609142067091430680914406581B470BD7
:10563000360B3093400540934105509342056091ED
:105640004005709141058091420502E00E94173C9F
:10565000609340057093410580934205A3E7B5E050
:10566000C3E7D5E0E0E4F5E00E940A3C0E949C0814
:105670000E9478090E94FF0900910D0700239AF407
:1056800000E000939A0500939B0500939C0500930E
:105690009D0500939E0500939F050093A005009330
:1056A000A1050093A2056091460570914705809180
:1056B000480504E00E94173C609346057093470537
:1056C000809348056091490570914A0580914B058A
:1056D00004E00E94173C6093490570934A0580934B
:1056E0004B0560914F05709150058091510504E084
:1056F0000E94173C60934F057093500580935105AD
:105700001091460520914705309148054091CD05FF
:105710005091CE056091CF050E94203C70934605C4
:1057200080934705209248051091490520914A052C
:1057300030914B054091D0055091D1056091D20533
:105740000E94203C7093490580934A0520924B05A6
:1057500010914F0520915005309151054091D3058E
:105760005091D4056091D5050E94203C70934F055F
:10577000809350052092510510914C0520914D05C4
:1057800030914E054091D6055091D7056091D805CE
:105790000E94203C70934C0580934D0520924E054D
:1057A000009113070023EAF00091140700230AF088
:1057B0002EC1009146050093910500914705009385
:1057C00092050091480500939305009149050093C7
:1057D000940500914A050093950500914B050093AF
:1057E00096056091460570914705809148055527BB
:1057F00044273327581B470B360B309346054093FD
:105800004705509348056091460570914705809182
:10581000480501E00E94173C6093460570934705D8
:105820008093480530916F06409170065091710643
:10583000609146057091470580914805581B470BBC
:10584000360B3093A3054093A4055093A5056091B2
:10585000A3057091A4058091A50504E00E94173C62
:105860006093A3057093A4058093A5051091A305EB
:105870002091A4053091A505409130065091310644
:10588000609132060E94203C70934806809349063E
:1058900020924A06009139060093450600913A0687
:1058A0000093460600913B060093470688D200917C
:1058B000480600934605009149060093470500916C
:1058C0004A0600934805609146057091470580910E
:1058D000480501E00E94173C609346057093470518
:1058E000809348056091490570914A0580914B0568
:1058F000552744273327581B470B360B3093490550
:1059000040934A0550934B056091490570914A05B3
:1059100080914B0501E00E94173C6093490570930C
:105920004A0580934B053091720640917306509161
:1059300074066091490570914A0580914B05581B8A
:10594000470B360B3093A3054093A4055093A50550
:105950006091A3057091A4058091A50504E00E94C3
:10596000173C6093A3057093A4058093A50510913F
:10597000A3052091A4053091A505409130065091D2
:105980003106609132060E94203C70934806809355
:10599000490620924A060091390600934506009177
:1059A0003A060093460600913B060093470607D24D
:1059B00000914806009349050091490600934A0565
:1059C00000914A0600934B056091490570914A0584
:1059D00080914B0501E00E94173C6093490570934C
:1059E0004A0580934B0500911407002382F4A6E436
:1059F000B5E0C6E4D5E0E1E9F5E00E940A3CA9E49F
:105A0000B5E0C9E4D5E0E4E9F5E00E940A3C309154
:105A10005E0540915F05509160056091460570916B
:105A2000470580914805581B470B360B3093A3055B
:105A30004093A4055093A5056091A3057091A4051A
:105A40008091A50501E00E94173C6093A305709327
:105A5000A4058093A5051091A3052091A40530917C
:105A6000A5054091A6055091A7056091A8050E9443
:105A7000203C709348068093490620924A06009184
:105A8000AF05009345060091B005009346060091CE
:105A9000B1050093470693D1009148060093910504
:105AA000009149060093920500914A0600939305E0
:105AB0006091A3057091A4058091A50503E00E9463
:105AC000173C6093A3057093A4058093A5051091DE
:105AD000A3052091A4053091A5054091B8055091EA
