:020000020000FC
:100000000C943F000C943D560C9416560C943E00F4
:100010000C943E000C947D560C943E000C945D565E
:100020000C943E000C943E000C943E000C94DE5365
:100030000C943E000C949B510C94CE510C943E00B9
:100040000C943E000C943E000C944E250C943E0003
:100050000C949E020C943E000C943E000C943E00C6
:100060000C943E000C943E000C943E000C943E0018
:100070000C943E000C943E000C943E0018950FEF3B
:100080000DBF00E10EBFE3E7F0E00E948A6103705C
:100090000093F707E1E7F0E00E948A6100934C07C4
:1000A000003011F40C94D719013011F40C9445046C
:1000B000023011F40C9416080C94380D0091F707D7
:1000C000002329F0E6E3FFE80E949D470895109180
:1000D0004C0722270E94C65F06E100933F07E8E72E
:1000E000F1E00E944B5E00E000933F070AE10093BD
:1000F000400701E000934407E0E8F1E00E944B5E16
:10010000012FE0EEF1E00E942C5E222371F0022F1D
:10011000017069F003E000933F070CE20093400791
:10012000E8E8F1E00E944B5E02C00E94DA5D0E94A6
:10013000755F222341F0A8E5B2E00E942361239578
:1001400009F422E0C7CF0E944B61083009F40895FA
:10015000043021F41A957AF414E0BCCF023029F46B
:100160001395153044F01127B5CF21E0A12FE1E719
:10017000F0E00E946C61AECF5258204D4F444500D4
:100180004D6F64653A20000052657374617274208B
:10019000697320726571756972656421000053741A
:1001A000616E64617264205258004350504D2028A3
:1001B000616B612E2050504D2900532E4275730003
:1001C000536174656C6C6974652044534D32000052
:1001D000536174656C6C6974652044534D5800001C
:1001E0009E01AA01BA01C001D00100E000934C07B2
:1001F000E1E7F0E00E949461089511270091F7076C
:10020000002329F0E6E3FFE80E949D4708951F932D
:100210000E94BA591F9100918E05009346050091E6
:100220008F050093470500919005009348050E94B3
:10023000C65F02E200933F0701E00093400500E93A
:100240000093410500E0009342053091460540913E
:100250004705509148056091400570914105809196
:10026000420558174707360734F400903F0706E069
:10027000000E00923F071F930E94293C1F9101E04E
:100280000093440701E10093400704E0EAE6F4E04C
:100290000E94355E0E94DA5DEAE5F4E004E0019F29
:1002A000E00DF11D0E942C5D0E94755F0E94985523
:1002B0000E943661002309F4AACF0E94092B08305E
:1002C00009F40895043029F41A9513700E944761C7
:1002D0009ECF023011F41395F8CF0130B1F71030F2
:1002E00019F4AAE0FFD093CF113019F4A2E0FAD0AC
:1002F0008ECF1230B1F0B0919105A0919205D091BE
:100300009305C1E0DCEFEFEFF3E00E94C745A02DBD
:10031000B12DDD27B0939105A0939205D09393055D
:100320006FC000918E050093400500918F050093EA
:100330004105009190050093420560914005709140
:1003400041058091420502E00E94A0616093400552
:100350007093410580934205B0914005A0914105FD
:10036000D0914205C4E1D0E0E4E0F1E00E94C7454D
:10037000A02DB12DDD27B0934005A0934105D0936A
:10038000420560914005709141058091420502E06F
:100390000E94A961609340057093410580934205D6
:1003A00030914005409141055091420560918E0584
:1003B00070918F0580919005581B470B360B309339
:1003C000400540934105509342053091910540917D
:1003D000920550919305609140057091410580917F
:1003E0004205580F471F361F3093910540939205E1
:1003F00050939305B0919105A0919205D0919305EA
:10040000E5E7F0E00E945D6160CF557365204B4BDE
:10041000322E31204F666673657400005573652077
:100420004B4B322E312E35204F66667365740000BB
:100430004D6F6469667920566F6C7461676520281A
:10044000312F3130290041646A757374204F66661C
:100450007365742056616C75650000107F19001972
:100460007F2200227F2B002B7F340A041C043004DF
:100470004604546865206261747465727920766FF1
:100480006C74616765006F6666736574206861737C
:10049000206265656E20736574006163636F7264CA
:1004A000696E6720746F2073656C656374656400A2
:1004B0004B4B3220626F6172642076657273696F94
:1004C0006E2E0000720486049A04B004E5E7F0E0A2
:1004D0000E945461DD27B0939105A0939205D093BB
:1004E00093050895BB27DD27B0939105A09392054E
:1004F000D0939305E5E7F0E00E945D610E94C65F3E
:1005000002E200933F07ECE4F0EC0E94AD5D04E0F2
:10051000E4ECF4E00E94355E0E94105E0E94755F7C
:100520000E944B610130E1F70E9447610895A2E00B
:10053000B0E0E5E7F0E00E945D610895FFB6FF934B
:10054000EF93E090C600E091EA07F091EB07E192AB
:10055000E090D0079091EC0793959E151CF0E1ED8B
:10056000F7E099279093EC07E093EA07F093EB0705
:10057000EF91FF91FFBE189500914C07023011F4E6
:100580000E946B0A0091CF0700231AF00E94F1032A
:1005900008950E94CA560091EE07033041F0C9E168
:1005A0000E9428610091CF0700230AF46BC00E94CB
:1005B0009F550E94B85F05E0ECE3F2EC0E94355EC7
:1005C00001E000934007B0914C05A0914D05D091FA
:1005D0004E05E8E7FAEACFEF0E945855B0914F0573
:1005E000A0915005D0915105EEE7FAEACFEF0E94B5
:1005F00058550E948655B0915205A0915305D0914F
:1006000054050E94645D05E500933F070091710762
:10061000002312F4AA2708C0EAE5F0E00E949555ED
:1006200014F4A1E001C0A2E0E4E8FAEA0E947D55DA
:10063000B0915505A0915605D0915705EAE8FAEA20
:10064000CFEF0E9458550E948655B0915805A09151
:100650005905D0915A050E94645D05E500933F0756
:1006600000917E07E4E2F2EC0E942C5E00E0009331
:100670003F0709E300934007E2EDF0EC0E944B5E78
:100680000E94755F0E943661083009F408950430B5
:1006900019F40E94092B01D07CCF0E94CA56009108
:1006A0004C07023011F40E946B0A0091EE070330F0
:1006B00041F0C9E10E9428610091CF0700230AF4AC
:1006C0005EC00E949B0710916105209162053091E8
:1006D00063054091400550914105609142050E949B
:1006E000AF617093610580936205209263050E945B
:1006F000B85FBB270E94485501E000934007B091C6
:100700005B05A0915C05D0915D05E2E7FAEACFEFC9
:100710000E945855B0915E05A0915F05D09160058B
:10072000E2E7FAEACFEF0E9458550E948655B09151
:100730006105A0916205D09163050E94645D05E5A5
:1007400000933F0700918607E6E3F2EC0E942C5EDF
:1007500000914C07023079F4A091CA07E2E9F7E072
:10076000CAE9D7E01ED0A091CB07E6E9F7E0CEE9D1
:10077000D7E00E94D1030E94F85D0E94755F0E943D
:100780003661083029F40E94092B0E9447610895C0
:1007900084CF444731004447320028C13EC128C1BC
:1007A0002CC1CF93DF93AF9300E000933F070E94EB
:1007B000A65D0E944B5E00E300933F070E94C45D6C
:1007C00009E300933F0700E3AF910A0F0E94515ED7
:1007D00005E500933F070A2FFF91EF910E942C5EE1
:1007E00008950E94C65F06E100933F07E0E3F8E04A
:1007F0000E94AD5D00E000933F0700914C0702307E
:1008000019F4EAE4F8E002C0E8E3F8E00E944B5E85
:100810000E94A65D02E0E6E8F8E00E94355E0E94D4
:10082000F85D0E94755F0E944B610830E1F7089502
:100830004E4F204441544100506C656173652073F4
:100840007570706C792053617400506C65617365CC
:1008500020737570706C7920532E4275730064613B
:10086000746120746F20746865207468726F74748A
:100870006C650000696E70757420636F6E6E6563E1
:10088000746F722E00005E087408A4E6B0E00E9447
:1008900023610E9468050E94D02D0E94755F0E940E
:1008A000A75F0E94755F0E94B03400E00093450787
:1008B00000E00093460700E00093470700E0009344
:1008C000480703E0009397050FEF0093980500E0B9
:1008D0000093990501E000939C060EE800939D06A5
:1008E00000E000939E06002700939A0700939B0761
:1008F00000939C0700936D0700937607009373079E
:10090000AFEAA0937D07A2E0A0937E07A1E0A093A9
:100910008607A09380070093A4070093A507009380
:10092000A6070093A7070093A8070093A9070093C1
:10093000AA070093AB070093AC070093AD070093A1
:10094000AE070093AF070093B0070093B107009381
:10095000B2070093B3070093CA070093CF07009331
:100960009E0703E000939F07E4EAF7E0E093A20705
:10097000F093A307A3E0A093EE0700E10093930791
:100980000E94165C0E94D8370E94DB140091770702
:10099000002312F40C94E8147894E4E7F0E00E9449
:1009A0008A61002351F00E942C3403B10095029516
:1009B0000F7089F00E9499330EC00FEF00938C07DF
:1009C0000E943661083011F40E94D72D013019F4CD
:1009D0000FEF009376070E94E03E06E006BB0E9400
:1009E00078510E94CE060E94CD070E94FC3D0E94D5
:1009F000B62C0E94C81D0E9404490E94D0470E9444
:100A000081120E94EA290E94B42B0E94DA510090C0
:100A10006F071090700701240092890700918907E1
:100A2000002332F40E94832C00916F07009370071B
:100A30000091750700232AF40027009375070E9490
:100A4000B13A00916F0700230AF4C9CF03B10095B2
:100A500002950F7039F4002700938C0700E0009393
:100A60008707BDCF00918707039500938707009103
:100A70008707023309F0B3CF00918C07002372F38C
:100A800000E000936F000E9436610F7039F301306F
:100A900029F0083061F00E941F259DCF0E94092B8C
:100AA0000E94AB1948F40FEF00938C0794CF0E947B
:100AB000092B0E94C119F7CF29980E9433250E9463
:100AC000B1530E94A0050E94CC530E94492583CFB8
:100AD00002E301B90AE004B90CEF07B902EF0AB961
:100AE0000FEF00937E0005EF05B903E008B90DE0B4
:100AF0000BB900E00093800002E00093810000E069
:100B0000009382000CE00093690002E00DBB0091AD
:100B1000B9000C7F0093B90001E10093B8005D9A21
:100B20005C9A5E982B9A299AA4EFB1E00E94236107
:100B30002B9829985E9AA4E6B0E00E94236108955C
:100B4000C6E8DBE0A0914607B091450702E10E94AC
:100B50001F2BC0934607D093450708F00895AA0FAE
:100B6000EEEEFCE0EA0F0027F01FA591B491FD0125
:100B700009950E94092B0E94A75F0E94755F0E9441
:100B800047610C94A00552656D6F74652054756EB5
:100B9000696E67202020202020205049204564696C
:100BA000746F7220202020202020202020205365D8
:100BB0006C662D6C6576656C2053657474696E6720
:100BC0007320537469636B205363616C696E672093
:100BD0002020202020204D6F6465205365747469A7
:100BE0006E6773202020202020204D6973632E2003
:100BF00053657474696E6773202020202020476934
:100C00006D62616C2053657474696E677320202077
:100C10002020416476616E63656420536574746955
:100C20006E6773202020415558205377697463689C
:100C300020536574757020202020496E69746961A5
:100C40006C20536574757020202020202020526570
:100C500063656976657220546573742020202020B6
:100C6000202053656E736F722054657374202020AA
:100C700020202020202053686F77204D6F746F72E2
:100C8000204C61796F757420202055736572205057
:100C9000726F66696C652020202020202020457816
:100CA000747261204665617475726573202020201E
:100CB00020204553432043616C6962726174696FFF
:100CC0006E202020202056657273696F6E20496E59
:100CD000666F726D6174696F6E204C434420436F80
:100CE0006E74726173742020202020202020001B4D
:100CF0001F4527313F3ADF3894394611E715DF2D7C
:100D0000643612541959B131D8234C163234B429EF
:100D1000692DAF93BF93EF93FF93A0918400B0919F
:100D20008500E091A007F091A107A093A007B093E0
:100D3000A107AE1BBF0B2AF4E0E0F0E0EA1BFB0BBF
:100D4000DF01EAE6F8E1AE17BF0768F0E4EAF7E092
:100D500090919F079A951AF090939F0712C09FEF6A
:100D60009093CF070EC0E091A207F091A307A19343
:100D7000B193A4EBB7E0EA17FB0718F011F0E4EB2E
:100D8000F7E0E093A207F093A307992790939E07BB
:100D9000FF91EF91BF91AF91FFBE18950090B607FC
:100DA0000E94F7570E9402580E941E58DD27B093F8
:100DB0004C05A0934D05D0934E050090B7070E94B7
:100DC000F7570E9402580E941E58DD27B0934F0526
:100DD000A0935005D09351050090B8070E94F75793
:100DE0000027009371070E941558EBE3FBE0AE1B50
:100DF000BF0BE0E0F0E0AE17BF070CF405C0E5E381
:100E0000FCE0AE17BF072CF0A0E0B0E00FEF0093BE
:100E10007107DD27B0935205A0935305D093540575
:100E20000090B9070E94F7570E9402580E941E586E
:100E3000DD27B0935505A0935605D0935705009034
:100E4000BA070E94F7570E940258CC27E8EAFDEF44
:100E5000AE17BF079CF0C395E8E3FFEFAE17BF07DF
:100E60006CF0C395E8ECF0E0AE17BF073CF0C3951B
:100E7000E8E5F2E0AE17BF070CF0C395C0937E071C
:100E8000DD27B0935805A0935905D0935A050090DB
:100E9000BB070E94F7570E940258DD27B0935B05FD
:100EA000A0935C05D0935D050090BC070E94F757A6
:100EB0000E940258DD27B0935E05A0935F05D09392
:100EC00060050090BD070E94F7570E940258CC278A
:100ED000E0E7FEEFAE17BF073CF0C395E0E9F1E0B5
:100EE000AE17BF070CF0C395C0938607DD27B093FC
:100EF0006105A0936205D09363050091CF0700239D
:100F0000C2F403C000939E07089500919E070395C5
:100F10000A3FC0F303E000939F0700916F0700238F
:100F200042F4009193070360009393070FEF00933F
:100F30007B070C945F0C00E00093400500E00093F9
:100F4000410509E10093420510915B0520915C0584
:100F500030915D05409140055091410560914205F9
:100F60000E94AF6170935B0580935C0520925D05E4
:100F700010915E0520915F0530916005409140051C
:100F800050914105609142050E94AF6170935E05EA
:100F900080935F052092600508950091CF0700952A
:100FA0000071A0919307AF7E0A2B009393070895D9
:100FB0004E4F205349474E414C00506C656173655C
:100FC00020737570706C792061204350504D000083
:100FD0007369676E616C20746F2074686520616945
:100FE0006C65726F6E00696E70757420636F6E6EE3
:100FF0006563746F722E0000BA0FD00FE60F0E9467
:10100000C65F0AE000933F07E0EBFFE00E94AD5DA2
:1010100003E0E8EFFFE00E94355E0E94F85D0E9469
:10102000755F0E944B610830E1F70895A4E6B0E0D7
:101030000E9423610E9429090E94D02D0E94755FA1
:101040000E94A75F0E94755F0E94B03400E0009389
:10105000450700E00093460700E00093470700E0E3
:101060000093480703E0009397050FEF009398055E
:1010700000E00093990501E000939C060EE80093C0
:101080009D0600E000939E06002700939A070093B8
:101090009B0700939C0700936D07009376070093CE
:1010A0007307AFEAA0937D07A2E0A0937E07A1E0BB
:1010B000A0938607A0938007A9E1A093D00700938F
:1010C000CF0700939E070093CA070093CB070093B6
:1010D000CC070093EC070093ED070093EE07009315
:1010E000D107E1EDF7E0E093EA07F093EB0700E1C9
:1010F000009393070E94165C0E94D8370E94DB146D
:1011000000917707002312F40C94E8147894E4E734
:10111000F0E00E948A61002351F00E942C3403B158
:10112000009502950F7089F00E9499330EC00FEF61
:1011300000938C070E943661083011F40E94D72D6D
:10114000013019F40FEF009376070E94E03E009102
:1011500093070F7D0093930706E006BB0E9478512A
:101160000E94ED0A0E946B0A0E949F0A0E94FC3DA9
:101170000E94B62C0E94C81D0E9404490E94D047BC
:101180000E9481120E94EA290E94B42B0E94DA5127
:1011900000906F071090700701240092890700915A
:1011A0008907002332F40E94832C00916F0700937B
:1011B00070070091750700232AF400270093750734
:1011C0000E94B13A00916F0700230AF4C7CF03B120
:1011D000009502950F7039F4002700938C0700E00A
:1011E00000938707BBCF009187070395009387077C
:1011F00000918707023309F0B1CF00918C070023DB
:1012000072F300E000936F000E9436610F7039F3B3
:10121000013029F0083061F00E941F2596CF0E940E
:10122000092B0E94AB1948F40FEF00938C078DCF68
:101230000E94092B0E94C119F7CF29980E943325DB
:101240000E94B1530E9477090E94CC530E94492505
:101250007CCF02E301B90FE004B90CEF07B902EF4C
:101260000AB90FEF00937E0005EF05B903E008B956
:101270000DE00BB900E00093800002E000938100D4
:1012800000E0009382000091C000007819F0009106
:10129000C600F9CF02E00093C00000270093C5000C
:1012A00008E10093C40000E10093C1000EE2009346
:1012B000C2000091C10000680093C1000091B90014
:1012C0000C7F0093B90001E10093B8005D9A5C9A2D
:1012D0005E982B9A299AA4EFB1E00E9423612B9883
:1012E00029985E9AA4E6B0E00E9423610895C4E3C1
:1012F000D3E1A0914607B091450703E10E941F2B5F
:10130000C0934607D093450708F00895AA0FE0EB75
:10131000F4E1EA0F0027F01FA591B491FD010995B2
:101320000E94092B0E94A75F0E94755F0E9447617F
:101330000C94770952656D6F74652054756E696EF3
:101340006720202020202020504920456469746FA8
:1013500072202020202020202020202053656C6631
:101360002D6C6576656C2053657474696E677320A7
:10137000537469636B205363616C696E672020202E
:10138000202020204D6F64652053657474696E675A
:1013900073202020202020204D6973632E20536568
:1013A0007474696E677320202020202047696D6265
:1013B000616C2053657474696E677320202020204F
:1013C000416476616E6365642053657474696E6709
:1013D0007320202041555820537769746368205347
:1013E000657475702020202044473220537769743B
:1013F000636820536574757020202020496E6974DD
:1014000069616C2053657475702020202020202095
:101410005265636569766572205465737420202077
:101420002020202053656E736F72205465737420E2
:10143000202020202020202053686F77204D6F74BB
:101440006F72204C61796F7574202020557365721E
:101450002050726F66696C6520202020202020209B
:1014600045787472612046656174757265732020D9
:10147000202020204553432043616C6962726174CF
:10148000696F6E202020202056657273696F6E2070
:10149000496E666F726D6174696F6E204C434420B3
:1014A000436F6E74726173742020202020202020EE
:1014B000001B1F4527313F3ADF3894394611E715A5
:1014C000DF2DBD0C6436BC021959B131D8234C163E
:1014D0003234B429692DA091C907B091CF07BB233D
:1014E00031F40091930700610093930708950091F0
:1014F00093070F7E009393070A2F01700093CA078A
:101500000A95009500937B07A6950A2F017000931A
:10151000CB07A695A695A17089F0A093CC07009162
:1015200093070062009393070FEF00937B070091EE
:101530006F0700231AF4A2E00E9494190895AA27C5
:10154000BB27DD270091CB07002319F42A98289A9E
:1015500011C0C091CD07C69518F4002700937107FC
:10156000C69510F42A9A2898C69508F45496C695FC
:1015700008F45E96B0934005A0934105D0934205D0
:101580000E940A41309100064091010650910206E6
:10159000609140057091410580914205580F471FA9
:1015A000361F3093F1054093F2055093F3053091C7
:1015B0000306409104065091050660914005709124
:1015C000410580914205580F471F361F3093F4059F
:1015D0004093F5055093F6050895A091EC07B0915E
:1015E000ED07AB1759F0A093ED0701E00093EE076C
:1015F0000091CF0700230AF44BC061C10091EE07B0
:10160000023059F00395043608F00A950093EE076E
:101610000091CF0700238AF73BC0A091EC07AA23D3
:1016200091F000270093EE070093ED07F8940093E4
:10163000EC070093D107E1EDF7E0E093EA07F093C0
:10164000EB0778943CC1E1EDF7E000810F3009F041
:1016500036C1E9EEF7E00081002321F000810F7C24
:101660000430B1F70FEF0093CF073197008100935B
:10167000C907E2EDF7E0AEEBB7E0CAE001910D93E8
:10168000CA95E2F703E00093EE07002700939E0758
:10169000A091BE07B091BF07B770A093A407B09305
:1016A000A507A091BF07B091C007B795A795B795BB
:1016B000A795B795A795B770A093A607B093A7076E
:1016C000D091C007A091C107B091C207DD1FAA1F2A
:1016D000BB1FDD1FAA1FBB1FB770A093A807B09345
:1016E000A907A091C207B091C307B795A795B77096
:1016F000A093AA07B093AB07A091C307B091C4070A
:10170000B795A795B795A795B795A795B795A795B9
:10171000B770A093AC07B093AD07D091C407A09168
:10172000C507B091C607DD1FAA1FBB1FB770A093E6
:10173000AE07B093AF07A091C607B091C707B795A2
:10174000A795B795A795B770A093B007B093B107C9
:10175000A091C707B091C80705E0B695A7950A956F
:10176000E1F7A093B207B093B3070090B607F0D0AB
:10177000F9D00E941E58B0934C05A0934D05D0930C
:101780004E050090B707E4D0EDD00E941E58B093EC
:101790004F05A0935005D09351050090B807D8D0BD
:1017A000002700937107E0E9F1E0AE1BBF0BDED02C
:1017B000E0E0F0E0AE17BF072CF4A0E0B0E00FEFE0
:1017C00000937107B0935205A0935305D09354052D
:1017D0000090B907BDD0C6D00E941E58B0935505E1
:1017E000A0935605D09357050090BA07B1D0BAD050
:1017F000B0935805A0935905D0935A05CC27E8EA31
:10180000FDEFAE17BF079CF0C395E8E3FFEFAE17FF
:10181000BF076CF0C395E8ECF0E0AE17BF073CF0F3
:10182000C395E8E5F2E0AE17BF070CF0C395C0938F
:101830007E070090BB078CD095D0B0935B05A0933A
:101840005C05D0935D050090BC0782D08BD0B0932F
:101850005E05A0935F05D09360050090BD0778D02A
:1018600081D0B0936105A0936205D0936305CC2726
:10187000E0E7FEEFAE17BF073CF0C395E0E9F1E00B
:10188000AE17BF070CF0C395C09386070091CF0732
:101890000023AAF403C000939E07089500919E07B9
:1018A00003950A3FC0F300916F07002342F40091B3
:1018B00093070360009393070FEF00937B070027C4
:1018C0000093CF0700E000934C0500934D05009373
:1018D0004E0500934F05009350050093510500936A
:1018E000520500935305009354050093550500934A
:1018F000560500935705009358050093590500932A
:101900005A0500935B0500935C0500935D05009309
:101910005E0500935F0500936005009361050093E9
:101920006205009363050FEF0093710700917E0736
:10193000023031F002E000937E070FEF00937F0743
:1019400000916F0700231AF4A1E00E9494190895F2
:10195000E4EAF7E002E0009DE00DF11DA191B08105
:10196000DD270895E0E0F4E0AE1BBF0BEA2FFB2F6C
:10197000F595E795AE0FBF1F089511270E94094501
:101980003091CD0720E60E94B85F04E0ECE4FAE174
:101990000E94355E01E000934007C091CD075AD008
:1019A00059D058D057D00E94E75DEEE5F4E704E047
:1019B000019FE00DF11D0E942C5D0E94755F0E9449
:1019C0004B61083051F40091CD07031729F0ECEB7F
:1019D000F0E0A02F0E946A610895043019F41A956E
:1019E0001370D1CF023011F41395FACF013059F4AE
:1019F000012FAA270894AA1F0A95EAF70091CD079C
:101A00000A270093CD07BFCF537461792041726DCF
:101A100065642F5370696E004469676974616C2056
:101A20004F7574707574000041696C2F456C6520AA
:101A300052617465202B3230000041696C2F456C77
:101A4000652052617465202B33300000081A181A83
:101A5000281A3A1A20933F070E94C45D0C2FEAE02F
:101A6000F2EC01700E942C5E0E94A65DC69508955E
:101A7000002700938C070E944A0E0E94D02D0E94DE
:101A8000755F0E94A75F0E94755F0E94B03400E0FE
:101A90000093450700E00093460700E000934707E6
:101AA00000E00093480703E0009397050FEF0093D1
:101AB000980500E00093990501E000939C060EE86C
:101AC00000939D0600E000939E06002700939A076E
:101AD00000939B0700939C0700936D070093760784
:101AE00000937307AFEAA0937D07A2E0A0937E075F
:101AF000A1E0A0938607A0938007A0E1A093D00760
:101B00000093CF0700939E070093CA070093EC074A
:101B10000093ED070093EE070093D307E1EDF7E0A4
:101B2000E093EA07F093EB0700E1009393070E942C
:101B3000165C0E94D8370E94940E0E94DB1400911C
:101B40007707002312F40C94E8147894E4E7F0E0AB
:101B50000E948A61002371F00E942C3400918C074E
:101B60000023B2F003B1009502950F7089F00E9436
:101B700099330EC00FEF00938C070E943661083036
:101B800011F40E94D72D013019F40FEF009376075E
:101B90000E94E03E009193070F7D0093930706E0BB
:101BA00006BB0E9478510E94A30F0E943B110E9425
:101BB000FC3D0E94B62C0E94C81D0E9404490E9450
:101BC000D0470E9481120E94EA290E94B42B0E94F1
:101BD000DA5100906F071090700701240092890776
:101BE00000918907002332F40E94832C00916F0733
:101BF000009370070091750700232AF400270093D3
:101C000075070E94B13A00916F0700230AF4C9CF0B
:101C100003B1009502950F7039F4002700938C07EB
:101C200000E000938707BDCF0091870703950093DD
:101C3000870700918707023309F0B3CF00918C0723
:101C4000002372F300E000936F000E9436610F7072
:101C500039F3013029F0083061F00E941F2598CF38
:101C60000E94092B0E94AB1948F40FEF00938C07D8
:101C70008FCF0E94092B0E94C119F7CF29980E948B
:101C800033250E94B1530E94A30E0E94CC530E94A0
:101C900049257ECF02E301B90AE004B90CEF07B988
:101CA00002EF0AB90FEF00937E0005EF05B903E0DC
:101CB00008B90DE00BB9ACE3B0E00E9423610E94CB
:101CC0003661063079F4A3E000914C07043009F442
:101CD000A7E003EF0AB90E948C0F02EF0AB90FEFD9
:101CE00000938C0700E00093800002E000938100E5
:101CF00000E0009382000091B9000C7F0093B900CE
:101D000001E10093B8005D9A5C9A5E982B9A299A3B
:101D1000A4EFB1E00E9423612B9829985E9AA4E673
:101D2000B0E00E942361089500270093C000009353
:101D3000C5000AE00093C40000E90093C10006E07A
:101D40000093C2000895CCE8DDE1A0914607B09170
:101D5000450702E10E941F2BC0934607D093450719
:101D600008F00895AA0FE4EFFEE1EA0F0027F01F44
:101D7000A591B491FD0109950E94092B0E94A75FCE
:101D80000E94755F0E9447610C94A30E52656D6FAF
:101D900074652054756E696E6720202020202020F5
:101DA000504920456469746F722020202020202033
:101DB0002020202053656C662D6C6576656C205361
:101DC000657474696E677320537469636B20536321
:101DD000616C696E67202020202020204D6F646593
:101DE0002053657474696E677320202020202020A2
:101DF0004D6973632E2053657474696E6773202078
:101E00002020202047696D62616C205365747469DD
:101E10006E67732020202020416476616E636564C4
:101E20002053657474696E677320202041555820D3
:101E3000537769746368205365747570202020207F
:101E4000496E697469616C20536574757020202037
:101E50002020202052656365697665722054657381
:101E6000742020202020202053656E736F72205430
:101E700065737420202020202020202053686F7755
:101E8000204D6F746F72204C61796F757420202023
:101E9000557365722050726F66696C652020202032
:101EA0002020202045787472612046656174757227
:101EB00065732020202020204553432043616C6916
:101EC00062726174696F6E202020202056657273E3
:101ED000696F6E20496E666F726D6174696F6E20F6
:101EE0004C434420436F6E74726173742020202031
:101EF00020202020001B1F4527313F3ADF3894392E
:101F00004611E715DF2D6436BC021959B131D823CB
:101F10004C163234B429692D5898C6E70E94970FA1
:101F2000589ACAE70E94970FAA95B1F7089500C082
:101F300000C000C000C000C000C000C000C0000061
:101F4000CA95A9F70895442700914C070430F1F091
:101F50002CE133E002E00093490500E000934A05DC
:101F600000E000934B0500E00093400502E0009381
:101F700041050EEE0093420500E0009343050DEC91
:101F80000093440500E0009345051DC028E337E0B9
:101F900004E00093490500E000934A0500E0009347
:101FA0004B0500E00093400501E00093410507E781
:101FB0000093420501E0009343050AE900934405BC
:101FC00000E0009345053093CE07A091EC07B09157
:101FD000ED07AB1759F0A093ED0701E00093EE0772
:101FE0000091CF0700230AF45BC00BC10091EE07FC
:101FF000023069F00023C9F30395043608F00A950E
:102000000093EE070091CF0700237AF749C0A09113
:10201000EC07AA2381F000270093EE070093ED0759
:10202000F8940093EC07E1EDF7E0E093EA07F09312
:10203000EB077894E6C00FEF0093CF07A3EDB7E06E
:1020400012E0E4EAF7E0DD91CD914D2B0D2F0695DE
:10205000283309F406950E700395E00F08F4F39504
:10206000D323D0833197C0831395139510314CF34C
:10207000032F00954023421769F0009193070062F7
:102080000093930700916F0700231AF4A3E00E94C6
:102090009419B7C003E00093EE07002700939E0752
:1020A00000270093B2070093B3070090B607ABD0A8
:1020B000B7D00E941E58B0934C05A0934D05D09305
:1020C0004E050090B7079FD0ABD00E941E58B0932A
:1020D0004F05A0935005D09351050090B80793D0B9
:1020E000002700937107F0914305E0914405AE1B72
:1020F000BF0BA0D0E0E0F0E0AE17BF072CF4A0E0EB
:10210000B0E00FEF00937107B0935205A093530511
:10211000D09354050090B90776D082D00E941E5803
:10212000B0935505A0935605D09357050090BA0774
:102130006AD076D0B0935805A0935905D0935A052C
:10214000CC27E8EAFDEFAE17BF079CF0C395E8E3A4
:10215000FFEFAE17BF076CF0C395E8ECF0E0AE17E9
:10216000BF073CF0C395E8E5F2E0AE17BF070CF0FF
:10217000C395C0937E070090BB0745D051D0B09364
:102180005B05A0935C05D0935D050090BC073BD038
:1021900047D0B0935E05A0935F05D0936005009093
:1021A000BD0731D03DD0B0936105A0936205D093B7
:1021B0006305CC27E0E7FEEFAE17BF073CF0C39501
:1021C000E0E9F1E0AE17BF070CF0C395C0938607B6
:1021D0000091CF070023AAF403C000939E0708953F
:1021E00000919E0703950A3FC0F300916F070023FB
:1021F00042F4009193070360009393070FEF00935D
:102200007B070C945F0CE4EAF7E002E0009DE00D30
:10221000F11DA191B081DD270091CE07B023089573
:10222000AD17BD0709F40895F0914905E0914A05FD
:10223000AE1BBF0BB0934605A0934705D09348054E
:102240001091460520914705309148054091400581
:1022500050914105609142050E94AF61709346051F
:102260008093470520924805B0914605A091470507
:10227000D091480508950091CF0700950071A09175
:102280009307AF7E0A2B0093930708950E94B242F2
:102290000E94EE4400916807007C09F01ED10E9464
:1022A000B85F05E0E8E0F4E20E94355E01E00093EB
:1022B000400728E4E4EAF0E007D106D105D104D1D3
:1022C00020933F070E94C45DECEAF0E00E94646145
:1022D000009398070170EEE1F4E20E942C5E00E0AA
:1022E00000933F0709E300934007E2EDF0EC0E9402
:1022F0004B5EECEDF0EC0E944B5EE4E4F4E204E0B3
:10230000019FE00DF11D0E942C5D0E94755F0E94EF
:102310004B61083009F40895043011F422D0BFCF86
:10232000023029F4139515300CF01127B8CF013085
:10233000E9F7143051F4A0919807A095A09398075D
:10234000ECEAF0E00E946A61AACFE4EAF0E002E081
:10235000019FE00DF11DC8EDDCEDA8E2B3E2A3D0D2
:102360009ECF112724E50E94B85F02E0E0E4F4E28A
:102370000E94355E01E000934007EDEAF0E0A4D052
:10238000A3D00E94E75DE8E5F4E204E0019FE00DE0
:10239000F11D0E942C5D0E94755F0E944B61083008
:1023A00011F411270895043019F41A951170DBCF38
:1023B0000230D9F30130D9F7EDEAF0E002E0019FF5
:1023C000E00DF11DC8E1DCEFA8EEB3E06CD0CBCF9F
:1023D000526F6C6C204761696E00526F6C6C204FBD
:1023E0006666736574005069746368204761696E3E
:1023F00000005069746368204F666673657400005E
:102400004D6978696E670000D023DA23E623F22352
:1024100000244E6F6E650000446966660000122459
:102420001824486F6D6520506F7320526F6C6C00DC
:10243000486F6D6520506F732050697463680000A9
:102440002224302453007309530973125312731B4F
:10245000531B73245324732D5F007F095F097F1280
:102460004F7574707574207479706520697320736A
:10247000657420746F0045534320666F72204D379A
:1024800020616E642F6F72204D382E0043686563A3
:102490006B204D6978657220456469746F722E00F7
:1024A000602476248C24EF93FF93AF93BF930E9414
:1024B0005261FF91EF910E94C745A02DB12DFF9170
:1024C000EF910E945B61089520933F070E94C45DD5
:1024D0000E9452610E94A55D08950E94C65F0E94FD
:1024E000B55D03E0E0EAF4E20E94355E0E94105E12
:1024F0000E94755F0E944B610130E1F70E944761C5
:10250000089500E0009340050093410500934205C3
:102510003091B1064091B2065091B30660914005EA
:10252000709141058091420558174707360709F019
:1025300011C03091B7064091B8065091B90660912C
:1025400040057091410580914205581747073607AD
:1025500009F4089500919C07002369F000E00093BE
:102560005B0500935C0500935D0500935E05009399
:102570005F050093600500918607023029F5009100
:10258000C60600935B050091C70600935C050091A9
:10259000C80600935D050091C30600935E05009197
:1025A000C40600935F050091C5060093600500E036
:1025B0000093C0060093C1060093C2060093BD06B7
:1025C0000093BE060093BF0630915B0540915C0509
:1025D00050915D056091BA067091BB068091BC0672
:1025E000580F471F361F30935B0540935C0550938F
:1025F0005D0530915E0540915F05509160056091E9
:10260000B4067091B5068091B606580F471F361F65
:1026100030935E0540935F055093600503E000939F
:10262000400508EE0093410500E00093420530911B
:102630005B0540915C0550915D056091400570918E
:10264000410580914205580F471F361F30935B05A7
:1026500040935C0550935D0530915E0540915F05A8
:10266000509160056091400570914105809142054F
:10267000580F471F361F30935E0540935F055093F8
:10268000600500E00093400502E00093410500E88A
:102690000093420510915B0520915C0530915D052A
:1026A0004091400550914105609142050E94AF6103
:1026B0007093CC068093CD062092CE0610915E05D5
:1026C00020915F0530916005409140055091410592
:1026D000609142050E94AF617093C9068093CA065B
:1026E0002092CB0600918607013041F510919F069C
:1026F0002091A0063091A1064091B1065091B206FA
:102700006091B3060E94AF617093BD068093BE06D0
:102710002092BF061091A2062091A3063091A40634
:102720004091B7065091B8066091B9060E94AF611A
:102730007093C0068093C1062092C206009198074C
:1027400000230AF09FC00091BD0600934005009150
:10275000BE06009341050091BF06009342053091EB
:10276000BD064091BE065091BF066091C0067091B3
:10277000C1068091C206581B470B360B3093BD062D
:102780004093BE065093BF063091C0064091C106EB
:102790005091C206609140057091410580914205BB
:1027A000580F471F361F3093C0064093C106509301
:1027B000C2060091C906009340050091CA06009325
:1027C00041050091CB06009342053091C906409126
:1027D000CA065091CB066091CC067091CD068091CF
:1027E000CE06581B470B360B3093C9064093CA06DA
:1027F0005093CB063091CC064091CD065091CE0639
:10280000609140057091410580914205580F471F26
:10281000361F3093CC064093CD065093CE0609E088
:102820000093400504EC0093410500E0009342054D
:102830003091C9064091CA065091CB06609140057F
:102840007091410580914205580F471F361F309304
:10285000C9064093CA065093CB063091CC064091EE
:10286000CD065091CE066091400570914105809152
:102870004205581B470B360B3093CC064093CD06D0
:102880005093CE063091BD064091BE065091BF06D2
:102890006091C9067091CA068091CB06580F471FF8
:1028A000361F309321064093220650932306309121
:1028B000C0064091C1065091C2066091CC0670914D
:1028C000CD068091CE06580F471F361F3093240641
:1028D0004093250650932606009121060093510649
:1028E000009122060093520600912306009353069E
:1028F0000091240600935406009125060093550686
:1029000000912606009356060895E7E7F0E00E943E
:102910008A61102F0E94C65F0CE100933F07ECE62E
:10292000F9E20E94AD5D03E0E0EBF9E20E94355E62
:102930000AE200933F0709E300934007EAEBF0EC5B
:102940000E944B5E0E94755F0E944B61043011F43F
:102950000FEF03C00230C1F70027011731F0E7E79E
:10296000F0E00E9494610C94A936089547494D42C5
:10297000414C0000557365207468697320626F6173
:1029800072642061732061007374616E642D616CE8
:102990006F6E652028736572766F290067696D62B6
:1029A000616C20636F6E74726F6C6C65723F0000B7
:1029B000742988299C29E7E7F0E00E948A61009346
:1029C000770708950027E7E7F0E00E9494610895F3
:1029D0000027009378070093790700937A0778948B
:1029E0000FEF00938C070E943661083011F40E94AB
:1029F000D72D0E94E03E06E006BB0E9478510E945F
:102A0000CA560E9404490E94D0470E9481120E9427
:102A1000EA290E94B42B0E94DA5100E00093930649
:102A200000939406009395060091750700232AF4FD
:102A30000027009375070E94B13A00916F070023A9
:102A40000AF4DBCF03B100950295077039F4002733
:102A500000938C0700E000938707CFCF0091870792
:102A600003950093870700918707023309F0C5CFCC
:102A700000918C07002372F300E000936F000E9426
:102A80003661077039F3013019F00E941F25B1CF6C
:102A90000E94092B29980E9433250E94B1530E945D
:102AA00056150E94CC530E944925A3CFC2EFDAE20B
:102AB000A0914607B09145070AE00E941F2BC093E2
:102AC0004607D093450708F00895AA0FEAEBFBE20A
:102AD000EA0F0027F01FA591B491FD0109950E940E
:102AE000092B0E94A75F0E94755F0E9447610C94AA
:102AF00056154D6F64652053657474696E67732055
:102B00002020202020204D6973632E20536574748B
:102B1000696E677320202020202047696D62616CF8
:102B20002053657474696E677320202020204164EF
:102B300076616E6365642053657474696E67732093
:102B40002020496E697469616C205365747570202A
:102B5000202020202020526563656976657220540C
:102B60006573742020202020202053656E736F72BF
:102B700020546573742020202020202020205573AD
:102B800065722050726F66696C65202020202020BD
:102B9000202056657273696F6E20496E666F726D84
:102BA0006174696F6E204C434420436F6E74726190
:102BB00073742020202020202020DF3894394611F3
:102BC000E7156436B2541959D823B429692D112751
:102BD0000E94C65F00E100933F07EAE5FCE20E9425
:102BE000AD5D03E0E2E9FCE20E94355E0E94D05D4B
:102BF000E0EBFCE604E0019FE00DF11D0E942C5D7E
:102C00000E94755F0E944B61083009F408950430FA
:102C100021F41A95EAF61127DBCF023029F4139537
:102C20001330B4F212E0D4CF013091F60E94476124
:102C30001F93103019F40E9444180CC0113019F47D
:102C40000E94525C07C0123019F40E94984602C0DC
:102C50000E9485141F91BCCF0895414456414E43B4
:102C6000454400004368616E6E656C204D61707074
:102C7000696E670053656E736F7220536574746973
:102C80006E6773004D6978657220456469746F7270
:102C90000000642C742C842C11270E94C65F02E271
:102CA00000933F07E0E1FDE20E94AD5D02E0EEE34C
:102CB000FDE20E94355E0E94D05DE0EBFCE604E0A0
:102CC000019FE00DF11D0E942C5D0E94755F0E9426
:102CD0004B61083009F40895043021F41A95EAF69E
:102CE0001127DBCF023029F413951230B4F211E032
:102CF000D4CF013091F60E9447611F93103019F430
:102D00000E94A11602C00E9485141F91C6CF08958B
:102D1000455854524100436865636B204D6F746F92
:102D200072204F75747075747320000047696D626E
:102D3000616C20436F6E74726F6C6C657200162D3F
:102D40002C2D86D108F408950E94BD440E94B24201
:102D50000E94EE4450916807222711E00E94C73874
:102D60000E9447610E94CC5300E00093670700E097
:102D70000093680701E000936A0708E00093690781
:102D80000FEF00936F0700270093710700E0009397
:102D90007B0601E000937C0600E000937D0606E0E0
:102DA00006BB4CD001E00093430500E900934405C5
:102DB00000E000934505052F012321F42395110F11
:102DC00088F1F9CF0E94C65F04E300933F0706E154
:102DD000009340070DE40E94515E00E32395020F2B
:102DE0000E94515EE8EFF9E70E942C5D0E94755F3A
:102DF0001F935F932F930E94785188D00E94DA51DD
:102E00002F9130914305409144054150304030931B
:102E100043054093440571F75F911F91283014F4E6
:102E2000110FBFCF002700936F070FEF00937107BB
:102E300090E090936F000E94B153089500E00093DA
:102E40004005009341050093420500914005009321
:102E50000F06009141050093100600914205009372
:102E60001106009140050093120600914105009360
:102E7000130600914205009314060091400500934B
:102E80001506009141050093160600914205009336
:102E90001706009140050093180600914105009324
:102EA00019060091420500931A060091400500930F
:102EB0001B060091410500931C06009142050093FA
:102EC0001D060091400500931E06009141050093E8
:102ED0001F060091420500932006009140050093D3
:102EE00021060091410500932206009142050093BE
:102EF00023060091400500932406009141050093AC
:102F0000250600914205009326060895213069F4B4
:102F10000091EE0500930F060091EF050093100657
:102F20000091F005009311060895223069F4009194
:102F3000EE05009312060091EF0500931306009131
:102F4000F005009314060895233069F40091EE050E
:102F5000009315060091EF05009316060091F00509
:102F6000009317060895243069F40091EE0500934C
:102F700018060091EF05009319060091F0050093E3
:102F80001A060895253069F40091EE0500931B069A
:102F90000091EF0500931C060091F00500931D06BB
:102FA0000895263069F40091EE0500931E06009105
:102FB000EF0500931F060091F00500932006089589
:102FC000273069F40091EE05009321060091EF058A
:102FD000009322060091F0050093230608950091C6
:102FE000EE05009324060091EF050093250600915D
:102FF000F0050093260608954D6F746F7273207765
:10300000696C6C207370696E20696E0073657175F0
:10301000656E6365204D31202D204D3800006166BE
:103020007465722074686520636F756E74646F7761
:103030006E2E0000504C45415345204245204341EF
:10304000524546554C210000F82F0C301E303430CC
:103050000E94C65F0E94B55D00E000933F0704E058
:10306000E8E4F0E30E94355E0E94F85D0E94105E85
:103070000E94755F0E944B61083011F40894089516
:103080000130C1F78894089511270E94B85F05E0C8
:10309000ECE3F2EC0E94355E01E000934007BEE4F1
:1030A0000E94485501E00093400720E3C6EBD7E0BB
:1030B0000E9410458AD089D088D087D086D001E080
:1030C0000093400726E681D080D07FD00E94E75D44
:1030D000ECE3F1E304E0019FE00DF11D0E942C5DA3
:1030E0000E94755F0E944B61083029F482D010F471
:1030F00055D0CBCF0895043019F41A951770C5CF69
:10310000023011F41395FACF0130B9F40E94104542
:10311000BB27E10FFB1FEF93FF930E946461AA9509
:10312000A770A395C1E0D0E0E8E0F0E00E94C745B9
:10313000A02DFF91EF910E946A61A7CF3900450948
:10314000390945123912451B391B45243924452DAF
:103150006F007B096F097B126F127B1B4368616EE6
:103160006E656C206D617070696E67206973000018
:10317000696E76616C69642E204475706C69636158
:1031800074657300617265206E6F7420616C6C6F82
:103190007765642E00005C31703184310E94C65F17
:1031A00002E200933F07E6E4F0EC0E94AD5D03E02D
:1031B000E6E9F1E30E94355E0E94105E0E94755FB1
:1031C0000E944B610130E1F7089520933F070E9470
:1031D000C45D0E9464610A950993087F31F00DE295
:1031E0000E94515E0E94A65D0895BB270E94A55DC6
:1031F0000895C6EBD7E0EE27B8E00991A02FA87F8D
:1032000059F40894AA1F0A95EAF7EA2BBA95A9F788
:10321000E09511F48894089508940895E5ECF0E0A1
:103220000E948A61002339F40091760700230AF492
:1032300031C088940895102F13700AE000933F075F
:10324000E8EEF2E30E94AD5D00E000933F07012F3E
:10325000E0E2F3E30E942C5E0E94A65D00E0009392
:103260003F07E8EFF2E30E944B5EE6ECF0E00E94DD
:103270006661CA2F0E9466610E949E3C00E6009330
:103280003F0709E300934007E4EBF0EC0E944B5E3C
:10329000089408950AE000933F07E8EEF2E30E94E5
:1032A000AD5D00E000933F07E0E0F3E30E944B5E7A
:1032B000E8E7F0E00E948A610170ECE1F3E30E942C
:1032C0002C5E00E000933F0709E300934007E8EF1E
:1032D000F0EC0E944B5E00E600933F07E2EFF2E362
:1032E0000E944B5E089408954552524F52204C4F15
:1032F000470041424F52540054696D653A20000026
:103300005374617475733A200000454E41424C4538
:10331000440044495341424C4544000012330A33AF
:1033200042AABE7AF27A107BE8E7F0E00E948A6156
:10333000002382F4E5ECF0E00E948A61002351F45E
:103340000E946C61A0919A070E946C61A0919B07FA
:103350000E946C610895E5ECF0E00E948A61002310
:1033600031F40091760700233AF0889408950027FD
:10337000E5ECF0E00E949461002700937607089442
:10338000089500917607002352F4E8E7F0E00E94E8
:103390008A6100950E949461002700937607089542
:1033A0000FEFE8E7F0E00E949461D5DF0895A4E60E
:1033B000B0E00E9423610E9473290E94D02D0E94D8
:1033C000755F0E94A75F0E94755F0E94B03400E0A5
:1033D0000093450700E00093460700E0009347078D
:1033E00000E00093480703E0009397050FEF009378
:1033F000980500E00093990501E000939C060EE813
:1034000000939D0600E000939E06002700939A0714
:1034100000939B0700939C0700938D0700936D0713
:103420000093760700937307AFEAA0937D07A2E0AD
:10343000A0937E07A1E0A0938607A0938007009346
:10344000A4070093A5070093A6070093A70700937E
:10345000A8070093A9070093AA070093AB0700935E
:10346000AC070093AD070093AE070093AF0700933E
:10347000B0070093B1070093B2070093B30700931E
:10348000CA070093570700935807AAEFA09359075C
:10349000A0935A07A0935B07A0935C07A0935D07D6
:1034A000A0935E07A0935F07A0936007A3E0A0939B
:1034B000EE07A0EFA09393070E94165C0E94D837F6
:1034C0000E94DB1400917707002312F40C94E81497
:1034D0007894E4E7F0E00E948A61002351F00E94B2
:1034E0002C3403B1009502950F7089F00E94993336
:1034F0000EC00FEF00938C070E943661083011F464
:103500000E94D72D013019F40FEF009376070E9427
:10351000E03E06E006BB0E9478510E94D9560E9408
:10352000FC3D0E94B62C0E9404490E94D0470E9494
:1035300081120E94EA290E94B42B0E94DA51009065
:103540006F07109070070124009289070091890786
:10355000002332F40E94832C00916F0700937007C0
:103560000091750700232AF40027009375070E9435
:10357000B13A00916F0700230AF4CDCF03B1009553
:1035800002950F7039F4002700938C0700E0009338
:103590008707C1CF009187070395009387070091A4
:1035A0008707023309F0B7CF00918C07002372F32D
:1035B00000E000936F000E9436610F7039F3013014
:1035C00029F0083061F00E941F25A1CF0E94092B2D
:1035D0000E94AB1948F40FEF00938C0798CF0E941C
:1035E000092B0E94C119F7CF29980E9433250E9408
:1035F000B1530E9430580E94CC530E94492587CF76
:103600000E94BE420E94B6430E944E44A9D1C6D435
:103610000E94CA560091EE07033041F0C9E10E94B2
:1036200028610091CF0700230AF48CC000919C0709
:10363000002311F40E949B0710915B0520915C050B
:1036400030915D054091D5065091D6066091D70620
:103650000E94AF617093E8058093E9052092EA0526
:1036600010915E0520915F05309160054091D5066F
:103670005091D6066091D7060E94AF617093EB051A
:103680008093EC052092ED0583D20E94B85FEAE9B1
:10369000F7E30E944B5E00919C07002359F0033032
:1036A0004CF4A0916B07AA2329F0E4E7F1EC0E9407
:1036B0004B5E04C0EEE0F2EC0E942C5E00E0009352
:1036C0003F070AE00093400700919C07E4EEF7E310
:1036D0000E942C5EE0ECF7E3B091E805A091E905CB
:1036E000D091EA05F3D000919C07E2EFF7E30E9446
:1036F0002C5EE6ECF7E3B091EB05A091EC05D091E0
:10370000ED05E4D0E8EAF7E30E944B5E00919D07E7
:10371000ECE1F2EC0E942C5E00E000933F0709E32D
:1037200000934007E2E5F0EC0E944B5EE6EBF7E326
:103730000E942C5D0E94755F00914C07023014F4CA
:103740000E9498550E943661083009F408950430AB
:1037500021F40E94092BCFD05BCF023039F462D123
:103760000E94092BA0919C0733D152CF013009F060
:103770004FCF00919C07039507300CF000270230D3
:1037800029F4A0916B07AA230AF4039500939C07E0
:103790000E94092B0E9447613BCF54756E696E678A
:1037A000204D6F64653A2000496E70757420526137
:1037B0007465203A20004C007F0954657374000042
:1037C000417578320000417578330000522047611E
:1037D000696E000050205472696D000052205472CE
:1037E000696D0000BA37ACC1ACC1ACC1ACC1D43753
:1037F000ACC1BA37BCC1BCC1BCC142AADC37CC37F2
:103800004E4F5400506C656173652063656E74653E
:103810007220796F75722054580074756E696E67E6
:1038200020636F6E74726F6C73206E6F772E000062
:10383000412054756E696E67204D6F6465206D750B
:1038400073742062650073656C65637465642066DB
:10385000697273742E0004381A383038463853456C
:103860005420494E50555420524154450000536550
:103870006C65637420696E70757420726174652064
:10388000666F7200616C6C2074756E696E67206D76
:103890006F6465732E20557365004C4F5720666F1B
:1038A000722066696E652D74756E696E672E0000F4
:1038B0004241434B20204C4F57204D454449554DE4
:1038C0002048494748006E3884389A3800913F07AD
:1038D000002309F408950FE20E94515E0E944B5E9E
:1038E00002E400933F070E94C45D0E94A55D00E0D2
:1038F00000933F0708950E94B85F06E100933F07D9
:10390000EEE5F8E30E944B5E0DE00093400703E014
:10391000E6ECF8E30E94355E00E000933F0709E320
:1039200000934007E0EBF8E30E944B5E0E94755F56
:103930000E944B61077089F0043011F4A1E008C0C7
:10394000023011F4A2E004C0013009F0D4CFA3E0AA
:10395000EBEBF0E00E946A6103D00E94476108959A
:10396000EBEBF0E00E946461A370AA2309F4A2E0EB
:10397000A13051F400E00093400500E000934105C0
:1039800006E20093420515C0A23051F400E0009316
:10399000400500E00093410503E70093420509C09C
:1039A00000E00093400500E00093410500EC009327
:1039B0004205A0939D07009140050093D506009114
:1039C00041050093D606009142050093D70608955D
:1039D0000E94C65F0AE000933F07AA2341F4E0E09B
:1039E000F8E30E944B5E0AE300933F0703C002E244
:1039F00000933F07ECE4F0EC0E94AD5DE6E5F8E3F0
:103A0000AA2311F4EAE5F8E302E00E94355E0E9481
:103A1000105E0E94755F0E944B610130E1F70E94C9
:103A20004761089500919C07002309F40895B0911F
:103A3000E805A091E905D091EA050130C9F4B093F9
:103A4000D605A093D705D093D8050027CC278BD0D7
:103A50000027C2E0B091EB05A091EC05D091ED05F7
:103A6000B093DF05A093E005D093E1057CD00895E5
:103A70000230C9F401E0CC27B093D905A093DA0550
:103A8000D093DB0570D001E0C2E0B091EB05A091CE
:103A9000EC05D091ED05B093E205A093E305D0933A
:103AA000E40561D008950330C9F4B093DC05A09318
:103AB000DD05D093DE0502E0CC2755D002E0C2E060
:103AC000B091EB05A091EC05D091ED05B093E50523
:103AD000A093E605D093E70546D00895043059F445
:103AE000B0935A06A0935B06D0935C06E3E8F0E03F
:103AF0000E945B6108950530D9F4B0938D06A093C0
:103B00008E06D0938F06E9E8F0E00E945B61B091E9
:103B1000EB05A091EC05D091ED05B0938A06A0933A
:103B20008B06D0938C06E7E8F0E00E945B61089575
:103B3000B093D206A093D306D093D406E8EAF0E07F
:103B40000E945B61B091EB05A091EC05D091ED0571
:103B5000B093CF06A093D006D093D106E4EAF0E06C
:103B60000E945B610895E4E4F0E0000F000F000F95
:103B7000E00F0027F01F0C2F000FE00F0027F01FB1
:103B80000A2F0E94926131960B2F0E949261089534
:103B900000919C07002309F408950E949B0710914F
:103BA0005B0520915C0530915D054091D5065091F3
:103BB000D6066091D7060E94AF6170935B05809333
:103BC0005C0520925D0510915E0520915F053091A6
:103BD00060054091D5065091D6066091D7060E94A7
:103BE000AF6170935E0580935F0520926005009140
:103BF0009C070130C1F50091D60500934605009160
:103C0000D705009347050091D8050093480500911A
:103C1000DF05009340050091E00500934105009108
:103C2000E1050093420573D10E940A410091E80525
:103C30000093B2050091E9050093B3050091EA05F0
:103C40000093B405009140050093C405009141051F
:103C50000093C505009142050093C60500916B07CE
:103C60000023F2F008950230A1F50091D9050093E8
:103C700046050091DA05009347050091DB050093A6
:103C800048050091E205009340050091E30500938B
:103C900041050091E4050093420539D10E940A4193
:103CA0000091E8050093B5050091E9050093B6057C
:103CB0000091EA050093B705009140050093C70500
:103CC000009141050093C805009142050093C90584
:103CD00008950330A1F50091DC050093460500919D
:103CE000DD05009347050091DE050093480500912E
:103CF000E505009340050091E6050093410500911C
:103D0000E7050093420503D10E940A410091E805AE
:103D10000093B8050091E9050093B9050091EA0503
:103D20000093BA05009140050093CA050091410532
:103D30000093CB05009142050093CC050895043013
:103D400009F500915A060093460500915B06009321
:103D5000470500915C0600934805D9D000E0009328
:103D6000EB050093EC050093ED050091E805009349
:103D700057060091E905009358060091EA05009363
:103D800059060895053009F061C030918A064091C6
:103D90008B0650918C0660915E0570915F05809155
:103DA0006005580F471F361F3093EB054093EC0515
:103DB0005093ED0530918D0640918E0650918F06FF
:103DC00060915B0570915C0580915D05581B470B08
:103DD000360B3093E8054093E9055093EA050091CE
:103DE000E805009387060091E90500938806009195
:103DF000EA05009389060091EB0500938406009183
:103E0000EC05009385060091ED0500938606609110
:103E10008706709188068091890602E00E94A06161
:103E20006093870670938806809389066091840664
:103E3000709185068091860602E00E94A0616093E1
:103E40008406709385068093860608953091CF0688
:103E50004091D0065091D10660915E0570915F054A
:103E600080916005580F471F361F3093EB05409334
:103E7000EC055093ED053091D2064091D306509158
:103E8000D40660915B0570915C0580915D05580FCB
:103E9000471F361F3093E8054093E9055093EA0524
:103EA0000091E8050093B7060091E9050093B80674
:103EB0000091EA050093B9060091EB050093B10665
:103EC0000091EC050093B2060091ED050093B30656
:103ED0006091B7067091B8068091B90604E00E941F
:103EE000A0616093B7067093B8068093B90660919D
:103EF000B1067091B2068091B30604E00E94A06101
:103F00006093B1067093B2068093B3060895309122
:103F10004605409147055091480560915B057091B9
:103F20005C0580915D05580F471F361F3093E805EB
:103F30004093E9055093EA053CF400E00093E8055E
:103F40000093E9050093EA05309140054091410551
:103F50005091420560915E0570915F05809160050A
:103F6000580F471F361F3093EB054093EC055093D5
:103F7000ED053CF400E00093EB050093EC050093A5
:103F8000ED050091EB05009340050091EC050093D1
:103F900041050091ED0500934205089500919C07AD
:103FA000023039F400916B0700231AF401E000930A
:103FB0009C07089500E00093EB050093EC05009347
:103FC000ED050E94E03E0E94B01C0E9449250E941F
:103FD000CC530FEF00939C070027009379070093C1
:103FE0007A0700918D07063014F00FEF01C000270B
:103FF000009378070E94C65F00916F0700235AF470
:1040000002E200933F0706E100934007ECEAF9E77C
:104010000E944B5E6FC00CE100933F07EAE4F2E4BC
:104020000E94AD5D00E000933F0700918D070430D2
:1040300064F4A0916B07AA2341F0017000938D07EF
:10404000E4E7F1EC0E944B5E04C0E2E8F2E40E9477
:104050002C5E00E20E94515E00918D07E8E9F2E4D7
:104060000E942C5E0E94C45DC0918D0741D10E94C8
:1040700052610E94A55D00E000933F07E2E4FAEA86
:104080000E94923D0E944B5E00919307077FA09192
:104090007107A0950A2B59F000919407039500939E
:1040A0009407017021F0E2E7F2E40E942C5D00E049
:1040B00000933F0703E200934007E2E5F2E40E9429
:1040C0004B5EB091EB05A091EC05D091ED050E94FF
:1040D000A55D00E000933F07E2E6F2E40E94B23CF7
:1040E00000E000933F0709E300934007E8E6F0ECA7
:1040F0000E944B5E0E94755F0E9478510E94CA56D2
:104100000E94FC3D0E9489230E9484210E94044950
:104110000E94D0470E9481120E94EA290E94B42B7B
:104120000E94DA5100906F071090700701240092EE
:10413000890700918907002332F40E94832C0091A3
:104140006F070093700700917507002322F4002782
:104150000093750746CF00916F0700230AF4CCCF78
:1041600003B1009502950F7021F400E000938707DA
:10417000C3CF0091870703950093870700918707B6
:10418000023309F0B9CF0E943661083051F400E0E3
:1041900000936F0000939C070E9433250E94B15347
:1041A0000895043071F400E000936F000E943325FD
:1041B0000E94B1530E947B1C0E9449250E94CC534F
:1041C00010CF023089F4A0918D07A395AB3014F085
:1041D000AA2707C000916B0700231AF4A23009F444
:1041E000A4E0A0938D07FDCE013061F600E00093BE
:1041F0006F000E9433250E94B153B091E805A09151
:10420000E905D091EA05C0918D07E4ECF2E404E001
:104210000C9FE00DF11DC591D59105901590E02DF5
:10422000F12D0E94C745A02DB12DAF93BF93C09132
:104230008D075ED0BF91AF910E945B610E94E03E0E
:104240000E9449250E94CC53CCCE54554E494E472E
:10425000000052656D6F746520496E7075743A2068
:104260000000466C69676874204D6F6465203A20D1
:10427000000000197F22526F6C6C0000506974635B
:1042800068007CC17CC184C184C18EC18EC168C1FB
:1042900056C156C16CC16CC1ACC1BCC1ACC1BCC1C2
:1042A000ACC1BCC1ACC176427C4276427C42440087
:1042B00048004C00500054005800830087008900DB
:1042C000A400A8000000840300008403000084030D
:1042D00000008403000084030000840300008403C2
:1042E0007CFC84037CFC8403D8DC2823D8DC2823D2
:1042F000E7E5F1E201E00C9FE00DF11DEE0FFF1F7D
:10430000A591B491FD01089500E00093400500E0FF
:104310000093410509E10093420510915B0520914E
:104320005C0530915D0540914005509141056091DB
:1043300042050E94AF6170935B0580935C052092FB
:104340005D0510915B0520915C0530915D05409104
:10435000D5065091D6066091D7060E94AF61709342
:104360005B0580935C0520925D0500915B050093E1
:10437000EB0500915C050093EC0500915D05009351
:10438000ED0500918D070023F1F40091D60500930F
:1043900040050091D705009341050091D805009391
:1043A00042058DD1009140050093B2050091410571
:1043B0000093B305009142050093B40500916B078B
:1043C000002392F10895013001F50091DF0500937B
:1043D00040050091E005009341050091E10500933F
:1043E00042056DD10E940A41009140050093C40529
:1043F000009141050093C505009142050093C60553
:1044000000916B07002372F108950230D1F40091FE
:10441000D905009340050091DA050093410500910C
:10442000DB05009342054BD1009140050093B50593
:10443000009141050093B605009142050093B70530
:1044400008950330E1F40091E205009340050091E6
:10445000E305009341050091E405009342052FD147
:104460000E940A41009140050093C7050091410553
:104470000093C805009142050093C90508950430D2
:10448000D1F40091DC05009340050091DD05009317
:1044900041050091DE050093420511D100914005D0
:1044A0000093B805009141050093B90500914205BC
:1044B0000093BA0508950530E1F40091E5050093F5
:1044C00040050091E605009341050091E705009342
:1044D0004205F5D00E940A41009140050093CA05AB
:1044E000009141050093CB05009142050093CC0556
:1044F00008950630D1F400915A06009340050091CA
:104500005B060093410500915C0600934205D7D0FD
:10451000009140050093570600914105009358060D
:1045200000914205009359060895073089F53091AE
:104530008A0640918B0650918C0660915B057091C4
:104540005C0580915D05580F471F361F3093E805C5
:104550004093E9055093EA050091E805009384062D
:104560000091E905009385060091EA05009386060F
:1045700060918406709185068091860602E00E9413
:10458000A0616093840670938506809386060895E3
:10459000083089F530918D0640918E0650918F0636
:1045A00060915B0570915C0580915D05580F471F18
:1045B000361F3093E8054093E9055093EA050091D2
:1045C000E805009387060091E905009388060091AD
:1045D000EA050093890660918706709188068091AC
:1045E000890602E00E94A0616093870670938806A6
:1045F000809389060895093089F53091CF0640915E
:10460000D0065091D10660915B0570915C05809158
:104610005D05580F471F361F3093E8054093E905A5
:104620005093EA050091E8050093B1060091E90571
:104630000093B2060091EA050093B3066091B106BB
:104640007091B2068091B30604E00E94A06160936D
:10465000B1067093B2068093B30608953091D206E6
:104660004091D3065091D40660915B0570915C0532
:1046700080915D05580F471F361F3093E805409322
:10468000E9055093EA050091E8050093B70600910B
:10469000E9050093B8060091EA050093B906609118
:1046A000B7067091B8068091B90604E00E94A06137
:1046B0006093B7067093B8068093B9060895309159
:1046C0004005409141055091420560915B05709114
:1046D0005C0580915D05580F471F361F3093E80534
:1046E0004093E9055093EA053CF400E00093E805A7
:1046F0000093E9050093EA050091E8050093400561
:104700000091E905009341050091EA0500934205F7
:10471000089500916F070023CAF0309199064091E7
:104720009A06415030403093990640939A060CF017
:104730002FC00FEF0093750701E00093990600E981
:1047400000939A0600E000939B0622C00091930715
:104750000023F1F000917307002311F0AAF00EC0BE
:1047600008E22B9AE0917407EA95E093740771F4DC
:10477000E0919307E77FE093930708C00A9509F05B
:1047800005C004EC2B9802C0039551F30093730706
:1047900000919107002322F000916F07002312F08F
:1047A0002B98089500919307002309F42B9A0895FC
:1047B0002227E3E7F0E00E948A61102F0E94B85F91
:1047C00005E0E8E4F9E40E94355E06E600933F0761
:1047D00001E000934007BB27A12FA395DD270E948E
:1047E000645D222319F40E94E75D02C00E94DA5D35
:1047F000ECE3F9E404E0029FE00DF11D0E942C5D62
:104800000E94755F0E944B61083009F408950430DE
:1048100021F42A9542F422E0CCCF023029F42395EA
:1048200023300CF02227C5CF0130E9F7203091F476
:10483000A12FA395BB27C1E0D0E0E4E0F0E00E9407
:10484000C745A02DAA951A2FE3E7F0E00E946C61FE
:104850002227AFCF213029F4C4D00E94165C21E07A
:10486000A8CFE6E2F9E40E94EF5F013011F022E008
:10487000A0CF0E94F0340E94165C0E946436089516
:104880000E94C65FAA2341F408E200933F07E2E5D5
:10489000F9E40E944B5E07C002E200933F07E6E4A2
:1048A000F0EC0E944B5E01E000934407B2E000E0B0
:1048B00000933F0701E1009340070A2FBF930F9336
:1048C000E6EDF9E40E942C5E00E000933F070E94B1
:1048D000A65D0F910395BF91BA9581F70E94105E76
:1048E0000E94755F0E944B610130E1F70E944761B1
:1048F000089544656661756C742050726F66696CCA
:10490000653A200046756E6374696F6E733A0000F5
:10491000496D706F727420757365722070726F6666
:10492000696C652E0000526573657420616374695B
:1049300076652070726F66696C652E0065006D0982
:10494000001B7F2400247F2DF24842AA044910490D
:104950002649444F4E450000416C6C2064617461EF
:1049600020636F706965642066726F6D0000746803
:10497000652073656C65637465642070726F666929
:104980006C652E005468652073656C65637465649E
:104990002070726F66696C6573006D757374206248
:1049A0006520646966666572656E742E00005072DB
:1049B0006F66696C652023312063616E206F6E6CB9
:1049C0007900626520656469746564206D616E7547
:1049D000616C6C792E0058496E4984499A49AE49F8
:1049E000C2490091F707002311F4A4E00FC0A1E031
:1049F000BB27C1E0D0E0E4E0F0E00E94C745A02D75
:104A0000AA950091F7070A1719F4A2E039DF089573
:104A1000AF93E0E1F9E40E94EF5F013011F0AF9154
:104A20000895EE27CF91299AFC2F0E948A61A02F2A
:104A30000E946A61EE23C1F72998AA27E7CF0230C6
:104A400019F0043009F008950695017009F40FEF8C
:104A5000A091F7070A0F03700093F7070E94B03484
:104A60000E94165C08950091F707002309F4089549
:104A700003950093F90704E60093F80700270093D5
:104A8000FA0700E004BD05E005BD01E000936E00FB
:104A9000089500E000936E002B980895FFB6909162
:104AA000F8079A95C9F4E090FA07EE2019F42B9ACA
:104AB0009FE00FC02B989091F9079A9521F0909361
:104AC000F9079FE006C09091F70793959093F90737
:104AD00098ECE094E092FA079093F807FFBE1895DF
:104AE0000091ED060093F2060091EE060093F306A6
:104AF0000091EF060093F4060091F0060093F5068E
:104B00000091F1060093F60608953090ED0640906E
:104B1000EE065090EF066090F0067090F10620913E
:104B2000ED063091EE064091EF065091F00660914F
:104B3000F1060E942062B0931A07C0931B07D0931E
:104B40001C07E0931D07F0931E0730901A07409052
:104B50001B0750901C0760901D0770901E0701E016
:104B60000E94B96230921A0740921B0750921C07AC
:104B700060921D0770921E0701E000931F0700E07E
:104B80000093200700E00093210700E00093220734
:104B900000E00093230730901F07409020075090BB
:104BA0002107609022077090230720911A07309107
:104BB0001B0740911C0750911D0760911E07761A34
:104BC000650A540A430A320A3092F7064092F80600
:104BD0005092F9066092FA067092FB060895B0931F
:104BE000ED06A093EE06D093EF06C093F006F09387
:104BF000F1063090ED064090EE065090EF06609082
:104C0000F0067090F1062091DE063091DF064091AB
:104C1000E0065091E1066091E2060E942062B093A6
:104C2000ED06C093EE06D093EF06E093F006F09306
:104C3000F1060895FF27CD2FDA2FAB2FBB2312F4F7
:104C4000BFEF0895BB2708954BDF5FDF309010075B
:104C5000409011075090120760901307709014074E
:104C60002091F7063091F8064091F9065091FA0626
:104C70006091FB060E942062B0932E07C0932F071D
:104C8000D0933007E0933107F09332073090150747
:104C900040901607509017076090180770901907FA
:104CA0002091F2063091F3064091F4065091F506FA
:104CB0006091F6060E942062B0931A07C0931B070A
:104CC000D0931C07E0931D07F0931E0730902E072A
:104CD00040902F0750903007609031077090320756
:104CE00020911A0730911B0740911C0750911D0716
:104CF00060911E07761A650A540A430A320A3092F6
:104D00002E0740922F075092300760923107709221
:104D100032073090100740901107509012076090B2
:104D20001307709014072091F2063091F30640911A
:104D3000F4065091F5066091F6060E942062B09349
:104D40003307C0933407D0933507E0933607F093C9
:104D5000370730901507409016075090170760905E
:104D60001807709019072091F7063091F8064091C6
:104D7000F9065091FA066091FB060E942062B093FA
:104D80001A07C0931B07D0931C07E0931D07F093ED
:104D90001E073090330740903407509035076090DD
:104DA00036077090370720911A0730911B07409102
:104DB0001C0750911D0760911E07760E651E541E3C
:104DC000431E321E3092330740923407509235070B
:104DD00060923607709237070895F894A091840086
:104DE000B09185007894E0914907F0914A07A0932B
:104DF0004907B0934A07AE1BBF0B2AF4E0E0F0E08E
:104E0000EA1BFB0BDF01DD27B695A795D795B69575
:104E1000A795D795B695A795D795B695A795D79504
:104E2000CC27FF27B093E806A093E906D093EA06C3
:104E3000C093EB06F093EC063090E8064090E9064C
:104E40005090EA066090EB067090EC062091E30625
:104E50003091E4064091E5065091E6066091E70640
:104E60000E942062B093DE06C093DF06D093E00676
:104E7000E093E106F093E206B0917905A0917A05FE
:104E8000D0917B05D7DEABDE0091010700931007C0
:104E90000091020700931107009103070093120786
:104EA000009104070093130700910507009314076E
:104EB0000091060700931507009107070093160756
:104EC000009108070093170700910907009318073E
:104ED00000910A0700931907B7DE00912E0700938F
:104EE000010700912F0700930207009130070093FC
:104EF00003070091310700930407009132070093E4
:104F000005070091330700930607009134070093CB
:104F100007070091350700930807009136070093B3
:104F200009070091370700930A07B0917605A09111
:104F30007705D09178057EDE52DE0091FC06009365
:104F400010070091FD06009311070091FE060093E3
:104F500012070091FF0600931307009100070093CA
:104F600014070091060700931507009107070093A7
:104F7000160700910807009317070091090700938F
:104F8000180700910A07009319075EDE00912E07AB
:104F90000093FC0600912F070093FD060091300757
:104FA0000093FE06009131070093FF06009132073F
:104FB0000093000700913307009306070091340720
:104FC0000093070700913507009308070091360703
:104FD000009309070091370700930A07B0916A050B
:104FE000A0916B05D0916C0525DEF9DD0091FC06E2
:104FF000009310070091FD06009311070091FE0633
:10500000009312070091FF06009313070091000719
:105010000093140700910107009315070091020700
:1050200000931607009103070093170700910407E8
:1050300000931807009105070093190705DE0091FA
:105040002E070093FC0600912F070093FD060091A8
:1050500030070093FE06009131070093FF06009190
:105060003207009300070091330700930107009176
:10507000340700930207009135070093030700915E
:10508000360700930407009137070093050708953A
:105090003090FC064090FD065090FE066090FF06A2
:1050A000709000072091FC063091FD064091FE06AD
:1050B0005091FF06609100070E942062B0931A078A
:1050C000C0931B07D0931C07E0931D07F0931E07A6
:1050D000309001074090020750900307609004074A
:1050E0007090050720910107309102074091030756
:1050F00050910407609105070E942062B0931F073A
:10510000C0932007D0932107E0932207F093230751
:1051100030901A0740901B0750901C0760901D07A5
:1051200070901E0720911F073091200740912107A2
:105130005091220760912307760E651E541E431E70
:10514000321E30921A0740921B0750921C07609241
:105150001D0770921E073090060740900707509079
:1051600008076090090770900A07209106073091A0
:105170000707409108075091090760910A070E94AC
:105180002062B0931F07C0932007D0932107E093BC
:105190002207F093230730901A0740901B07509086
:1051A0001C0760901D0770901E0720911F0730910B
:1051B0002007409121075091220760912307760E26
:1051C000651E541E431E321E30920B0740920C0780
:1051D00050920D0760920E0770920F07089500918C
:1051E000FC06009329070091FD0600932A07009111
:1051F000FE0600932B070091FF0600932C070091F9
:10520000000700932D072ED00091A50600939F065E
:105210000091A6060093A0060091A7060093A106A0
:1052200000910107009329070091020700932A07C4
:105230000091030700932B070091040700932C07AC
:105240000091050700932D070DD00091A50600934E
:10525000A2060091A6060093A3060091A70600935C
:10526000A40608950AE500931F0700E000932007B5
:1052700000E00093210700E00093220700E0009384
:1052800023073090290740902A0750902B07609001
:105290002C0770902D0720911F0730912007409117
:1052A000210750912207609123070E942062B0934A
:1052B0001A07C0931B07D0931C07E0931D07F093B8
:1052C0001E07B0911A07A0911B07D0911C07C0912F
:1052D0001D07F0911E07AFDCB093A506A093A606AC
:1052E000D093A706089502E301B90AE004B90CEFD0
:1052F00007B902EF0AB90FEF00937E0005EF05B979
:1053000003E008B90DE00BB900E00093800002E073
:105310000093810000E00093820005E100936900A2
:1053200003E00DBB0AE00093680001E00093730006
:1053300005E000936C000091B9000C7F0093B90068
:1053400001E10093B8005D9A5C9A5E982B9A299AC5
:10535000A4EFB1E00E9423612B9829985E9AA4E6FD
:10536000B0E00E94236108950E94C65F06E10093A9
:105370003F07EEEAF3E50E94AD5D04E0ECECF3E5F7
:105380000E94355E04E200933F070AE10093400764
:1053900000914C07E0EEF1E00E942C5E0E94F85D67
:1053A0000E94755F0E944B610830E1F708955645F1
:1053B0005253494F4E004B4B322E312B2B20416C18
:1053C0006C2D696E2D4F6E6520523200B6538001F0
:1053D00042AA04C100E000934005009341050093F8
:1053E000420530918106409182065091830660917A
:1053F00040057091410580914205581747073607CF
:1054000059F03091810640918206415030403093EE
:1054100081064093820603C0002700939207009103
:10542000970700236AF400917D070A9500937D0792
:10543000002331F4002700939707AFEAA0937D077C
:1054400000906F071090710701200092890700916A
:105450008907002322F500917B07002302F1309198
:105460007E0640917F064150304030937E06409347
:105470007F06ACF403E000937E0600E200937F0613
:1054800000E0009380060FEF0093920700E0009386
:10549000810604E10093820600E0009383060090F9
:1054A0006F07109070070124009289070091890707
:1054B00000233AF400E000939306009394060093CF
:1054C000950600E00093400500E00093410501E0EF
:1054D00000934205309193064091940650919506B1
:1054E000609140057091410580914205580F471F1A
:1054F000361F3093930640939406509395060DE71C
:105500000093400500E00093410500E00093420550
:105510003091930640919406509195066091400514
:10552000709141058091420558174707360764F08E
:105530000091400500939306009141050093940665
:10554000009142050093950600917B07002322F00D
:1055500000917A07002372F400917C07002319F16F
:105560000A9500937C0700E0009396060093970647
:10557000009398060AE0009340050CEF0093410564
:1055800000E80093420530919306409194065091B3
:10559000950660914005709141058091420558172C
:1055A0004707360704F1309196064091970641501F
:1055B00030403093960640939706ACF407E0009392
:1055C000960600ED0093970600E0009398060FEF13
:1055D0000093920701E00093810600E900938206A0
:1055E00000E0009383060090920710909107012835
:1055F0000092890700908907109097070128009270
:10560000890700918907002312F029980895299AA3
:1056100008950F93EF93FF93E1EAF0E00E94886111
:10562000FF91EF91002312F00F910895CF93299AE3
:10563000C2E30E9428612998CF910F910895402FCD
:105640002A2F3B2F0E94A75F01E00093430704E04D
:1056500000934407203049F00AE300933F0700E03D
:105660000093400700E00E94515E022F0B5F041779
:1056700049F00AE300933F0702E30093400701E08B
:105680000E94515E01E00093440708E00093400748
:1056900015E0FE0104E1029FE00DF11D00E0009322
:1056A0003F07A4E105910E94515EAA95D9F70090A9
:1056B000400708E0000E009240071A9579F708E0CD
:1056C000039F002D095F00934007075F0093420787
:1056D00000E000933F070FE70093410700E00093CD
:1056E00043070E941A5D0E94D05D0E94755FAEE183
:1056F0000E943661003021F00970D1F7AA95C1F7F8
:105700000E944C61083019F4AA27889429C00430FB
:1057100061F4303019F03A950C94B32B203019F025
:105720002A950C94B32B0C94B32B023071F43430C3
:1057300019F033950C94B32B042F0550201719F052
:1057400023950C94B32B0C94B32B013061F40E947D
:10575000A75F0E94755F0E944761A22FA30F089464
:10576000C22FD32F08956ECF30918E0540918F05B3
:1057700050919005609197057091980580919905D9
:1057800058174707360764F400918E050093970574
:1057900000918F050093980500919005009399055D
:1057A00030918E0540918F05509190056091940540
:1057B0007091950580919605581B470B360B3093D9
:1057C000AF054093B0055093B1056091AF0570915E
:1057D000B0058091B10508E00E94A0616093AF051B
:1057E0007093B0058093B105309194054091950573
:1057F000509196056091AF057091B0058091B1050B
:10580000580F471F361F30939405409395055093CA
:10581000960530916306409164065091650660914B
:1058200094057091950580919605581B470B360B92
:105830003093AF054093B0055093B1050AF45CC0B6
:105840006091AF057091B0058091B10502E00E94B2
:10585000A0616093AF057093B0058093B10500E03F
:105860000093400500E10093410500E000934205EC
:105870003091AF054091B0055091B1056091400560
:10588000709141058091420558174707360764F02B
:10589000009140050093AF05009141050093B005CC
:1058A000009142050093B10530917506409176064E
:1058B000509177066091AF057091B0058091B10568
:1058C000580F471F361F3093750640937606509346
:1058D0007706B0917506A0917606D0917706AA2337
:1058E0005AF000919007002351F00A950093900719
:1058F0000FEF00939107089504E6009390070027A7
:1059000000939107089500E00093460501E000939D
:10591000470508E30093480510916306209164064B
:1059200030916506409146055091470560914805C4
:105930000E94AF617093400580934105209242051B
:1059400030914005409141055091420560918E058E
:1059500070918F05809190055817470736072CF4F2
:1059600000919307086000939307089500916F07D3
:105970000023CAF03091990640919A064150304078
:105980003093990640939A060CF054C00FEF0093A1
:10599000750701E00093990600E900939A0600E07C
:1059A00000939B0647C00091710700230AF13091D4
:1059B0009C0640919D064150304030939C06409398
:1059C0009D06B1F401E000939C060EE800939D064D
:1059D00000E000939E06A0919A07A395AC3331F4A2
:1059E000B0919B07B395B0939B07AA27A0939A0702
:1059F000009193070023F1F000917307002311F049
:105A0000AAF00EC008E22B9AE0917407EA95E093A1
:105A1000740771F4E0919307E77FE093930708C060
:105A20000A9509F005C004EC2B9802C0039551F3C8
:105A30000093730700917E07A0917F070A1709F46E
:105A400038C000937F07A1E8B7E0A00F08F4B39532
:105A50000027009378070093790700937A070C9149
:105A6000A0918007009380070A1719F0AFEFA09369
:105A700097070023F1F0033039F40FEF00937A0712
:105A80000FEF00937C0712C0023081F40FEF0093F8
:105A9000780700915A060093570600915B06009321
:105AA000580600915C060093590603C0AFEFA0931F
:105AB000790700919107002322F000916F070023DE
:105AC00012F02B98089500919307002309F42B9A64
:105AD00008950091F707002329F0E6E3FFE80E940C
