:020000020000FC
:100000000C943F000C943E000C9452340C943E002F
:100010000C943E000C943E000C943E000C943E0068
:100020000C943E000C943E000C943E000C948A32DA
:100030000C943E000C943B300C946E300C943E00BB
:100040000C943E000C943E000C943E000C943E0038
:100050000C943E000C943E000C943E000C943E0028
:100060000C943E000C943E000C943E000C943E0018
:100070000C943E000C943E000C943E0018950FEF3B
:100080000DBF08E00EBFA4E6B0E00E94A73B0E94AF
:10009000E1070E941A0C0E941B3A0E944D3A0E94EE
:1000A0001B3A0E94951300E000930A0700E00093BA
:1000B0000B0700E000930C0700E000930D0703E03E
:1000C00000938E050FEF00938F0500E000939005DD
:1000D00001E000938A060EE800938B0600E000938F
:1000E0008C060027009340070093410700934207C6
:1000F0000093160700931D07AFEAA0932507A2E01F
:10010000A0932607A1E0A0932E07A09328070093B1
:100110004A0700934B0700934C0700934D07009349
:100120004E0700934F070093500700935107009329
:100130005207009353070093540700935507009309
:1001400056070093570700935807009359070093E9
:100150000E070093440700934507EAE4F7E0E093B5
:100160004807F093490700E1009339070E94811581
:100170007894E1E7F0E00E94003C002351F00E94F7
:100180000F1303B1009502950F7061F00E941E12CB
:1001900009C00FEF009333070E94BA3B083011F4F7
:1001A0000E94210C0E94B81A06E006BB0E9418307B
:1001B0000E94A1340E9493070E94D4190E94090B47
:1001C0000E94F3230E94E9280E94C70C0E94B527D1
:1001D0000E9464020E945C080E94210A0E947A30F8
:1001E0000090190710901A0701240092300700911F
:1001F0003007002332F40E94D60A009119070093B9
:100200001A0700911F0700232AF4002700931F07F5
:100210000E94FF170091190700230AF4C7CF03B10A
:1002200000950295017021F4002700933307BECF9B
:10023000009133070023DAF300E000936F000E947F
:100240006E0929980E9440320E94F7350E94783248
:10025000A9CF0E94651E0E94702000911107007CAA
:1002600009F01ED10E945E3A05E0EEECF3E00E9438
:10027000D23801E00093050728E4E6E9F0E007D171
:1002800006D105D104D1209304070E948538E2EA03
:10029000F0E00E94E43B00933E070170E4EEF3E0DF
:1002A0000E94C93800E00093040709E300930507A2
:1002B000E8EFF5E70E94E838E2E0F6E70E94E83868
:1002C000EAE0F4E004E0019FE00DF11D0E94ED374B
:1002D0000E941B3A0E94CF3B083009F40895043075
:1002E00011F422D0BFCF023029F4139515300CF051
:1002F0001127B8CF0130E9F7143051F4A0913E072F
:10030000A095A0933E07E2EAF0E00E94E83BAACF66
:10031000E6E9F0E002E0019FE00DF11DC8EDDCED43
:10032000A8E2B3E2A3D09ECF112724E50E945E3A53
:1003300002E0E6E0F4E00E94D23801E00093050715
:10034000EEE9F0E0A4D0A3D00E949138EEE1F4E011
:1003500004E0019FE00DF11D0E94ED370E941B3A61
:100360000E94CF3B083011F411270895043019F48E
:100370001A951170DBCF0230D9F30130D9F7EEE9CD
:10038000F0E002E0019FE00DF11DC8E1DCEFA8EE16
:10039000B3E06CD0CBCF526F6C6C204761696E00BC
:1003A000526F6C6C204F666673657400506974639D
:1003B00068204761696E00005069746368204F6669
:1003C0006673657400004D6978696E670000960376
:1003D000A003AC03B803C6034E6F6E65000044690A
:1003E00066660000D803DE03486F6D6520506F73AA
:1003F00020526F6C6C00486F6D6520506F732050F9
:10040000697463680000E803F60353007309530935
:1004100073125312731B531B73245324732D5F00E9
:100420007F095F097F124F7574707574207479703D
:10043000652069732073657420746F0045534320F1
:10044000666F72204D3720616E642F6F72204D38B9
:100450002E00436865636B204D69786572204564A2
:1004600069746F722E0026043C045204EF93FF93CC
:10047000AF93BF930E94D63BFF91EF910E94C4259A
:10048000A02DB12DFF91EF910E94DD3B08952093A7
:1004900004070E9485380E94D63B0E946638089562
:1004A0000E946C3A0E94763803E0E6E6F4E00E948F
:1004B000D2380E94AD380E941B3A0E94CF3B0130D7
:1004C000E1F70E94CB3B089500E0009340050093C4
:1004D00041050093420530919F064091A00650913E
:1004E000A106609140057091410580914205581721
:1004F0004707360709F011C03091A5064091A606BE
:100500005091A70660914005709141058091420588
:1005100058174707360709F408950091420700234A
:1005200069F000E0009355050093560500935705C8
:10053000009358050093590500935A0500912E0722
:10054000023029F50091B406009355050091B506D7
:10055000009356050091B606009357050091B10629
:10056000009358050091B206009359050091B30617
:1005700000935A0500E00093AE060093AF06009387
:10058000B0060093AB060093AC060093AD06A5E55C
:10059000B5E0C5E5D5E0E8EAF6E00E94143CA8E540
:1005A000B5E0C8E5D5E0E2EAF6E00E94143C03E0DD
:1005B0000093400508EE0093410500E000934205DA
:1005C000A5E5B5E0C5E5D5E0E0E4F5E00E94143C22
:1005D000A8E5B5E0C8E5D5E0E0E4F5E00E94143C0C
:1005E00000E00093400502E00093410500E800931D
:1005F00042051091550520915605309157054091BF
:10060000400550914105609142050E942A3C70933B
:10061000BA068093BB062092BC0610915805209123
:10062000590530915A05409140055091410560911E
:1006300042050E942A3C7093B7068093B806209228
:10064000B90600912E07013041F510918D062091D9
:100650008E0630918F0640919F065091A0066091C2
:10066000A1060E942A3C7093AB068093AC062092B0
:10067000AD0610919006209191063091920640911E
:10068000A5065091A6066091A7060E942A3C709389
:10069000AE068093AF062092B00600913E0700237D
:1006A0000AF078C00091AB06009340050091AC06BB
:1006B000009341050091AD06009342053091AB06D1
:1006C0004091AC065091AD066091AE067091AF06B8
:1006D0008091B006581B470B360B3093AB06409306
:1006E000AC065093AD06AEEAB6E0CEEAD6E0E0E462
:1006F000F5E00E94143C0091B7060093400500917C
:10070000B806009341050091B90600934205309167
:10071000B7064091B8065091B9066091BA0670913B
:10072000BB068091BC06581B470B360B3093B706AF
:100730004093B8065093B906AAEBB6E0CAEBD6E0F0
:10074000E0E4F5E00E94143C09E00093400504EC6D
:100750000093410500E000934205A7EBB6E0C7EB2C
:10076000D6E0E0E4F5E00E94143C3091BA064091F6
:10077000BB065091BC066091400570914105809187
:100780004205581B470B360B3093BA064093BB0605
:100790005093BC06ACE0B6E0CBEAD6E0E7EBF6E07F
:1007A0000E94143CAFE0B6E0CEEAD6E0EAEBF6E019
:1007B0000E94143C00910C0600933C0600910D062B
:1007C00000933D0600910E0600933E0600910F0631
:1007D00000933F0600911006009340060091110619
:1007E0000093410608950091C6060093CA06009141
:1007F000C7060093CB060091C8060093CC06009173
:10080000C9060093CD0608952090C6063090C7060D
:100810004090C8065090C9066090C6067090C70602
:100820008090C8069090C9060E949B3C1093EA06EF
:100830002093EB063093EC064093ED065091EA06C8
:100840006091EB067091EC068091ED0601E00E944C
:10085000073D5093EA066093EB067093EC06809395
:10086000ED0601E00093EE0600E00093EF0600E0E5
:100870000093F00600E00093F1061091EE0620913F
:10088000EF063091F0064091F1065091EA06609132
:10089000EB067091EC068091ED06481B370B260B9A
:1008A000150B1093CE062093CF063093D0064093BD
:1008B000D1060895B093C606A093C706D093C80684
:1008C000C093C90603E00093EA0607E00093EB0635
:1008D0000EEA0093EC0600E00093ED062090C606B9
:1008E0003090C7064090C8065090C9066090EA064E
:1008F0007090EB068090EC069090ED060E949B3C79
:100900001093C6062093C7063093C8064093C906C5
:100910000895CD2FDA2FAB2FBB2312F4BFEF08952C
:10092000BB27089560DF70DF2090E2063090E30679
:100930004090E4065090E5066090CE067090CF0699
:100940008090D0069090D1060E949B3C1093FA06AE
:100950002093FB063093FC064093FD062090E606AC
:100960003090E7064090E8065090E9066090CA068D
:100970007090CB068090CC069090CD060E949B3C58
:100980001093EA062093EB063093EC064093ED06B5
:100990001091FA062091FB063091FC064091FD066D
:1009A0005091EA066091EB067091EC068091ED069D
:1009B000481B370B260B150B1093FA062093FB06EA
:1009C0003093FC064093FD062090E2063090E3064B
:1009D0004090E4065090E5066090CA067090CB0601
:1009E0008090CC069090CD060E949B3C1093FE0612
:1009F0002093FF0630930007409301072090E606FE
:100A00003090E7064090E8065090E9066090CE06E8
:100A10007090CF068090D0069090D1060E949B3CAB
:100A20001093EA062093EB063093EC064093ED0614
:100A30001091FE062091FF063091000740910107BA
:100A40005091EA066091EB067091EC068091ED06FC
:100A5000480F371F261F151F1093FE062093FF0611
:100A600030930007409301070895B0917305A0915A
:100A70007405D09175054DDF1DDF0091D6060093FA
:100A8000E2060091D7060093E3060091D806009392
:100A9000E4060091D9060093E5060091DA0600937A
:100AA000E6060091DB060093E7060091DC06009362
:100AB000E8060091DD060093E90634DF0091FA06AE
:100AC0000093D6060091FB060093D7060091FC0622
:100AD0000093D8060091FD060093D9060091FE060A
:100AE0000093DA060091FF060093DB0600910007F1
:100AF0000093DC06009101070093DD06B0917005BC
:100B0000A0917105D091720504DFD4DE0091D20668
:100B10000093E2060091D3060093E3060091D40609
:100B20000093E4060091D5060093E5060091DA06ED
:100B30000093E6060091DB060093E7060091DC06D1
:100B40000093E8060091DD060093E906EBDE0091D4
:100B5000FA060093D2060091FB060093D30600919B
:100B6000FC060093D4060091FD060093D506009183
:100B7000FE060093DA060091FF060093DB06009163
:100B800000070093DC06009101070093DD06B09199
:100B90006405A0916505D0916605BBDE8BDE0091F2
:100BA000D2060093E2060091D3060093E30600917B
:100BB000D4060093E4060091D5060093E506009163
:100BC000D6060093E6060091D7060093E70600914B
:100BD000D8060093E8060091D9060093E906A2DE44
:100BE0000091FA060093D2060091FB060093D3060B
:100BF0000091FC060093D4060091FD060093D506F3
:100C00000091FE060093D6060091FF060093D706DA
:100C1000009100070093D806009101070093D906C0
:100C200008952090D2063090D3064090D40650907C
:100C3000D5066090D2067090D3068090D40690902E
:100C4000D5060E949B3C1093EA062093EB06309356
:100C5000EC064093ED062090D6063090D7064090E3
:100C6000D8065090D9066090D6067090D70680902E
:100C7000D8069090D9060E949B3C1093EE062093D4
:100C8000EF063093F0064093F1061091EA062091AA
:100C9000EB063091EC064091ED065091EE06609126
:100CA000EF067091F0068091F106480F371F261F5E
:100CB000151F1093EA062093EB063093EC06409341
:100CC000ED062090DA063090DB064090DC0650906E
:100CD000DD066090DA067090DB068090DC0690906E
:100CE000DD060E949B3C1093EE062093EF063093A6
:100CF000F0064093F1061091EA062091EB06309140
:100D0000EC064091ED065091EE066091EF06709171
:100D1000F0068091F106480F371F261F151F10930C
:100D2000DE062093DF063093E0064093E106089547
:100D30000091D2060093F6060091D3060093F706C1
:100D40000091D4060093F8060091D5060093F906A9
:100D50002AD00091930600938D060091940600938B
:100D60008E060091950600938F060091D60600939B
:100D7000F6060091D7060093F7060091D806009377
:100D8000F8060091D9060093F9060DD0009193065C
:100D900000939006009194060093910600919506A9
:100DA0000093920608950AE50093EE0600E0009392
:100DB000EF0600E00093F00600E00093F1062090BB
:100DC000F6063090F7064090F8065090F9066090CD
:100DD000EE067090EF068090F0069090F1060E946B
:100DE0009B3C1093EA062093EB063093EC0640936D
:100DF000ED06B091EA06A091EB06D091EC06C09109
:100E0000ED0687DDB0939306A0939406D0939506E4
:100E1000089511270E945E3A05E0E4E4F7E70E9496
:100E2000D23801E000930507BEE40E94053401E0DA
:100E30000093050720E3CCE5D7E0EAEAF0E050D0E4
:100E40004FD04ED04DD04CD001E00093050726E6A0
:100E500047D046D045D00E949138E0ECFEE004E057
:100E6000019FE00DF11D0E94ED370E941B3A0E9488
:100E7000CF3B083011F448D00895043019F41A9586
:100E80001770C8CF023011F41395FACF0130B9F4BE
:100E9000EAEAF0E0BB27E10FFB1FEF93FF930E940C
:100EA000E43BAA95A770A395C1E0D0E0E8E0F0E0AC
:100EB0000E94C425A02DFF91EF910E94E83BAACF8C
:100EC0003B0043093B0943123B12431B3B1B43249A
:100ED0003B24432D71007909710979127112791B34
:100EE000209304070E9485380E94E43B0A950993E9
:100EF000087F31F00DE20E94EE380E9467380895B5
:100F0000BB270E9466380895CCE5D7E0B8E0A881F9
:100F1000A87F29F0009139070064009339072196D2
:100F2000BA95A9F7089500910E0700950071A09158
:100F30003907AF7E0A2B00933907089546403F4397
:100F40003A410000506C6561736520737570706C78
:100F5000792061204350504D00007369676E616CC9
:100F600020746F207468652061696C65726F6E0013
:100F7000696E7075742070696E2E0000440F5A0FF0
:100F8000700F0E946C3A0AE00093040703E40E9489
:100F9000EE3804E40E94EE380EE200930407ECE31E
:100FA000FFE00E946E3803E0ECE7FFE00E94D238D9
:100FB0000E949F380E941B3A0E94CF3B0830E1F705
:100FC000089500E001B90AE004B90FEF07B902EF94
:100FD0000AB90FEF00937E0005EF05B90DE00BB9DC
:100FE00000E00093800002E00093810000E00093A5
:100FF000820004E00093690002E00DBB5D9A5C9AF8
:101000005E982B9A299AA4EFB1E00E94A73B2B98F7
:1010100029985E9AA4E6B0E00E94A73B08950E943A
:101020006C3A06E100930407ECE4F0E10E946E38AC
:1010300004E0E0E8F0E10E94D2380E949F380E946C
:101040001B3A0E94CF3B0830E1F70895483D4546E2
:10105000404443004B4B322E302076312E362B2B22
:10106000204350504D20523500004350504D202811
:10107000616B612E2050504D29206F6E6C792E00CF
:1010800054106A10BC671476E4EAF0E10E94953AC5
:10109000013009F008950027E0E0F0E00E94083CEC
:1010A0000C943F00526573657420616C6C2073650D
:1010B0007474696E67732E0000E00093400500931E
:1010C00041050093420530916F06409170065091A2
:1010D0007106609140057091410580914205581755
:1010E0004707360759F030916F064091700641501E
:1010F000304030936F064093700603C00027009382
:10110000380700913D0700236AF4009125070A95EE
:1011100000932507002331F4002700933D07AFEA31
:10112000A09325070090190710901B07012000923B
:10113000300700913007002322F500912307002398
:1011400002F130916C0640916D0641503040309371
:101150006C0640936D06ACF403E000936C0600E26D
:1011600000936D0600E000936E060FEF00933807C2
:1011700000E000936F0604E10093700600E0009326
:1011800071060090190710901A0701240092300789
:101190000091300700233AF400E0009381060093A9
:1011A00082060093830600E00093400500E0009370
:1011B000410501E000934205A1E8B6E0C1E8D6E0B0
:1011C000E0E4F5E00E94143C0DE70093400500E0E8
:1011D0000093410500E00093420530918106409163
:1011E000820650918306609140057091410580917F
:1011F000420558174707360764F0009140050093F1
:1012000081060091410500938206009142050093FA
:10121000830600912307002322F000912207002378
:1012200072F400912407002319F10A950093240712
:1012300000E00093840600938506009386060AE08A
:10124000009340050CEF0093410500E80093420530
:10125000309181064091820650918306609140054D
:10126000709141058091420558174707360704F1F0
:101270003091840640918506415030403093840679
:1012800040938506ACF407E00093840600ED0093DC
:10129000850600E0009386060FEF0093380701E013
:1012A00000936F0600E90093700600E0009371065A
:1012B00000903807109037070128009230070090FF
:1012C000300710903D070128009230070091300749
:1012D000002312F029980895299A08950F93EF9307
:1012E000FF93E2E9F0E00E94003CFF91EF910023C0
:1012F00012F00F910895CF93299AC2E30E94AC3B5C
:101300002998CF910F910895402F2A2F3B2F0E94AB
:101310004D3A01E00093080704E0009309072030EC
:1013200049F00AE30093040700E00093050700E09A
:101330000E94EE38022F0B5F041749F00AE3009376
:10134000040702E30093050701E00E94EE3801E084
:101350000093090708E00093050715E0FE0104E18A
:10136000029FE00DF11D00E000930407A4E1059148
:101370000E94EE38AA95D9F70090050708E0000E04
:10138000009205071A9579F708E0039F002D095F81
:1013900000930507075F0093070700E00093040729
:1013A0000FE70093060700E0009308070E94DB3771
:1013B00000E00093040709E300930507ECEBF5E771
:1013C0000E94E8380E941B3AAEE10E94BA3B00300E
:1013D00021F00970D1F7AA95C1F70E94D03B0830DF
:1013E00019F4AA27889429C0043061F4303019F028
:1013F0003A950C94200A203019F02A950C94200A72
:101400000C94200A023071F4343019F033950C94A6
:10141000200A042F0550201719F023950C94200A58
:101420000C94200A013061F40E944D3A0E941B3A4C
:101430000E94CB3BA22FA30F0894C22FD32F089555
:1014400066CF309188054091890550918A05609159
:101450008E0570918F0580919005581747073607C4
:1014600064F40091880500938E050091890500932E
:101470008F0500918A050093900530918805409171
:10148000890550918A0560918B0570918C0580913A
:101490008D05581B470B360B3093A3054093A405CD
:1014A0005093A5056091A3057091A4058091A505B1
:1014B00008E00E94213C6093A3057093A4058093EB
:1014C000A505ABE8B5E0CBE8D5E0E3EAF5E00E949E
:1014D000143C309154064091550650915606609147
:1014E0008B0570918C0580918D05581B470B360B31
:1014F0003093A3054093A4055093A5050AF44FC06B
:101500006091A3057091A4058091A50502E00E9459
:10151000213C6093A3057093A4058093A50500E08A
:101520000093400500E10093410500E0009342056F
:101530003091A3054091A4055091A5056091400507
:10154000709141058091420558174707360764F0AE
:10155000009140050093A305009141050093A40567
:10156000009142050093A505A3E6B6E0C3E6D6E0E8
:10157000E3EAF5E00E94143CB0916306A091640692
:10158000D0916506AA235AF000913607002351F046
:101590000A95009336070FEF00933707089504E686
:1015A00000933607002700933707089500E0009363
:1015B000430501E00093440508E3009345051091BD
:1015C000540620915506309156064091430550919E
:1015D0004405609145050E942A3C70934005809324
:1015E00041052092420530914005409141055091BE
:1015F0004205609188057091890580918A05581788
:10160000470736072CF40091390708600093390723
:101610000895009119070023CAF030918706409180
:1016200088064150304030938706409388060CF07E
:1016300054C00FEF00931F0701E00093870600E9F5
:101640000093880600E00093890647C000911B07BD
:1016500000230AF130918A0640918B0641503040B8
:1016600030938A0640938B06B1F401E000938A061A
:101670000EE800938B0600E000938C06A0914007D3
:10168000A395AC3331F4B0914107B395B0934107C2
:10169000AA27A0934007009139070023F1F0009199
:1016A0001D07002311F0AAF00EC008E22B9AE0916A
:1016B0001E07EA95E0931E0771F4E0913907E77F72
:1016C000E093390708C00A9509F005C004EC2B988F
:1016D00002C0039551F300931D0700912607A091C6
:1016E00027070A1709F438C000932707A9E2B7E0D3
:1016F000A00F08F4B395002700932007009321075B
:10170000009322070C91A0912807009328070A173D
:1017100019F0AFEFA0933D070023F1F0033039F447
:101720000FEF009322070FEF0093240712C002303F
:1017300081F40FEF009320070091450600934206C5
:101740000091460600934306009147060093440625
:1017500003C0AFEFA093210700913707002322F0C9
:1017600000911907002312F02B9808950091390772
:10177000002309F42B9A08950E946C3A0EE200931C
:101780000407EAE0F8E10E946E3800E000930407E5
:101790000AE100930507EEE0F8E10E94E838BB2774
:1017A000A0913F07DD270E94253800E00093040741
:1017B00009E300930507EEE1F8E10E94E8380E9492
:1017C0001B3A0E94CF3B083011F434D00895043006
:1017D00041F400913F070E32BCF4039500933F079C
:1017E000CBCF023041F400913F0709316CF00A95EC
:1017F00000933F07C1CF013039F4A0913F07E0E7E4
:10180000F0E00E94E83B0895B7CF413B3C004C43D9
:101810004420636F6E74726173743A200000424119
:10182000434B20205550202020444F574E2020531A
:1018300041564500E0E7F0E00E94003C00933F077E
:10184000089504E200933F07E0E7F0E00E94083CBF
:10185000089502E000930F07112722271F932F936B
:101860000E94A1342F911F910E945E3A00270F938E
:10187000A09126070A1711F400E401C000E20E94BB
:10188000EE380F910F93ECE2F7E70E94C93800E0C1
:10189000009304070E9467380F910395053039F7CC
:1018A00001E0009305070091290759D000912A070C
:1018B00056D000912B0753D000912C0750D00091A7
:1018C0002D074DD00E949138EAE7F9E104E0019F2D
:1018D000E00DF11D0E94ED370E941B3A0E944B342F
:1018E0000E94BA3B0830D1F4222309F40895A09154
:1018F0002907E4EAF0E00E94E83BA0912A070E9451
:10190000E83BA0912B070E94E83BA0912C070E9486
:10191000E83BA0912D070E94E83B0895043041F474
:101920001A950AF414E00E946E090E94CB3B96CFF0
:10193000023029F413951530B1F71127F4CF013097
:1019400069F42FEFA9E2B7E0A10F08F4B3950C9169
:10195000039504300CF000270C93E5CF7FCF0F9355
:1019600004E2009304070E9485380F91E6E3F7E74D
:101970000E94C9380E94673808952F007F092F09F7
:101980007F122F127F1B2F1B7F242F247F2D10915E
:101990009C0620919D0630919E0640914E065091E6
:1019A0004F06609150060E942A3C70934005809338
:1019B0004105209242050091510600934305009194
:1019C000520600934405009153060093450530915B
:1019D0004005409141055091420560914305709149
:1019E00044058091450558174707360764F0009174
:1019F0004305009340050091440500934105009183
:101A0000450500934205609143057091440580911E
:101A10004505552744273327581B470B360B309372
:101A2000430540934405509345053091400540914E
:101A300041055091420560914305709144058091A4
:101A4000450558174707360764F40091430500938E
:101A50004005009144050093410500914505009320
:101A6000420530914C0540914D0550914E056091D5
:101A700040057091410580914205581B470B360B7C
:101A800030934C0540934D0550934E050895C2E6A2
:101A9000DBE1A0910D07B0910C0704E10E948409DD
:101AA000C0930D07D0930C0708F00895EEE4FBE116
:101AB0000E94953A013009F0EACF0E947832299AC3
:101AC000E0EAFDE108E10A9FE00DF11DDF017096FB
:101AD000C4E6D7E018E0059109931A95E1F7FD01F6
:101AE000C4E0D0E03327A591B591EF93FF93FD01BA
:101AF00016E0A4E6B7E0A30F0027B01F4C91BF91FA
:101B0000AF912591042F007809F02195042F0870DA
:101B100009F02FEF022FEF93FF93FE010E94083C84
:101B20002196FF91EF91440F1A9559F72296FD01E6
:101B300033953830C4F20FEFA02FE3EBF0E00E94B2
:101B4000E83B29980E9440320E944A10A0CF4C6F77
:101B50006164206D6F746F72206C61796F75742E83
:101B6000000053696E676C65436F70746572203155
:101B70004D203453202053696E676C65436F707439
:101B8000657220324D20325320204475616C436FC2
:101B90007074657220494920202020202020547232
:101BA00069436F70746572204949202020202020ED
:101BB000202051756164726F436F70746572207874
:101BC000206D6F64652051756164726F436F70742E
:101BD0006572202B206D6F646520562D5461696CF1
:101BE0002020202020202020202020202020562DB2
:101BF0005461696C2048756E746572202020202025
:101C00002020593420202020202020202020202087
:101C100020202020202048657861436F7074657211
:101C200020202078206D6F64652048657861436FBF
:101C3000707465722020202B206D6F6465204836FB
:101C40002020202020202020202020202020202094
:101C50002020563620202020202020202020202038
:101C60002020202020205936202020202020202025
:101C7000202020202020202020204F63746F436FDD
:101C80007074657220202078206D6F6465204F632A
:101C9000746F436F707465722020202B206D6F6409
:101CA00065204838202020202020202020202020AF
:101CB00020202020202056382020202020202020D6
:101CC00020202020202020202020583820202020C4
:101CD0002020202020202078206D6F646520583837
:101CE00020202020202020202020202B206D6F6409
:101CF00065200000000000000000006432000000C9
:101D0000640032000000646400000000646432007B
:101D100000640000320000640064320064000000CF
:101D200000036400006400036400640000036400B6
:101D30006464000364265C640003642A476400034F
:101D4000643257640003643D186400036447006410
:101D500000036447186400036447470000036447B6
:101D600047640003645118640003645732000003A1
:101D7000645732640003645C2664000364640000FA
:101D80000003646400640003646447640003780033
:101D90005A6400036464642800035F006464000301
:101DA0001C1D161D0A1D161D0A1DF21CF21CF21C1C
:101DB0000000004020000000221D221D101DFE1CFE
:101DC000F21CF21CF21CF21C0010000000000000CB
:101DD0007C1D7C1D041D041DF21CF21C041D041D31
:101DE00001400020000000206A1D6A1D281DF81C0B
:101DF000F21CF21CF81CF21C400120000000100034
:101E00005E1D5E1D5E1D5E1DF21CF21CF21CF21CAE
:101E100040102070000000002E1D821D2E1D821D0E
:101E2000F21CF21CF21CF21C0010205000000000FA
:101E3000581D581D8E1D8E1DF21CF21CF21CF21C2A
:101E40004001203000000000941D941D9A1D9A1D31
:101E5000F21CF21CF21CF21C5000203000000000AA
:101E60005E1D5E1D2E1D2E1DF21CF21CF21CF21CAE
:101E70004010203000000000401D821D401D401D0C
:101E8000821D401DF21CF21C00102070405000000A
:101E90002E1D701D701D2E1D701D701DF21CF21C5C
:101EA00000102030605000005E1D4C1D5E1D5E1D48
:101EB0004C1D5E1DF21CF21C0010207040500000F2
:101EC000881D4C1D3A1D3A1D4C1D881DF21CF21C2C
:101ED0000010207040500000701D701D701D701D9E
:101EE0002E1D2E1DF21CF21C405000102030000050
:101EF000341D761D761D341D341D761D761D341D52
:101F000000102030607040502E1D5E1D821D5E1D31
:101F10002E1D5E1D821D5E1D001000302070405081
:101F20005E1D521D521D5E1D5E1D521D521D5E1D09
:101F30000010203060704050881D641D461D3A1D01
:101F40003A1D461D641D881D0010203060704050F1
:101F50005E1D5E1D5E1D5E1D5E1D5E1D5E1D5E1DA9
:101F600040500010203060702E1D2E1D821D821DDD
:101F70002E1D2E1D821D821D00100010203040508D
:101F800011270E945E3A05E0E2E6F0E20E94D238B4
:101F900001E000930507ECE7F0E005E00F9304E5AE
:101FA000009304070E9485380E94D63B0E94663841
:101FB0000F910A9599F70E949138ECE6F0E204E05F
:101FC000019FE00DF11D0E94ED370E941B3A0E9417
:101FD000CF3B083009F40895043021F41A950AF42F
:101FE00014E0CFCF023029F41395153009F410E036
:101FF000C8CF0130F1F4ECE7F0E002E0019FE00D22
:10200000F11DEF93FF930E94D63BE0E8F0E204E07D
:10201000019FE00DF11DC591D59105901590E02D22
:10202000F12D0E94C425A02DB12DFF91EF910E94AA
:10203000DD3BA7CF414343205472696D20526F6C42
:102040006C00414343205472696D20506974636889
:102050000000534C204D6978696E672052617465A9
:102060000000B476BC763420422052205F0079090B
:102070005F0979125F12791B5F1B79245F24792D28
:1020800000008403000084037CFC84037CFC840344
:1020900005003200E3EBF0E00E94003C00231AF060
:1020A0000E947A2708950E94651E44240E945E3A89
:1020B000EAEFF3E20E94E838442081F4E2E0F4E23F
:1020C0000E94E8380FEF602E08E0802E55240E9411
:1020D000961053948A948820D1F709C0542C5A94AE
:1020E000A42DBB270E94253866240E94961001E08B
:1020F0000093090701E00093080700E0009304073C
:1021000009E300930507EEE0F4E20E94E8380E943C
:102110001B3A0E94CF3B083009F40895043029F49B
:10212000439409E0401609F44424C0CFE0E0F5E010
:1021300008E0059DE00DF11D01E0009308070FEF99
:10214000702EDD27A181BB27AA2312F4DFEFBFEF9A
:10215000B093F405A093F505D093F60500E0009345
:10216000400500934105009342053091F4054091EC
:10217000F5055091F60560914005709141058091FB
:10218000420558174707360709F0772400E0009307
:10219000400500E00093410500E4009342051091E2
:1021A000F4052091F5053091F605409140055091D8
:1021B0004105609142050E942A3C7093F40580938A
:1021C000F5052092F60500E00093400500E6009337
:1021D000410500E000934205EF93FF93A4EFB5E0C3
:1021E000C4EFD5E0E0E4F5E00E94143CFF91EF91EC
:1021F000B091F405A091F505D091F605A0930407E0
:10220000DD27A281BB27AA2312F4DFEFBFEFB09333
:10221000F405A093F505D093F60500E00093400582
:1022200000934105009342053091F4054091F50576
:102230005091F605609140057091410580914205ED
:1022400058174707360709F077240FEF009340052A
:102250000FEF0093410500EC009342051091F40547
:102260002091F5053091F6054091400550914105CA
:10227000609142050E942A3C7093F4058093F50515
:102280002092F60500E00093400500E2009341052E
:1022900000E000934205EF93FF93A4EFB5E0C4EF95
:1022A000D5E0E0E4F5E00E94143CFF91EF91B0919D
:1022B000F405A091F505D091F605A0930507DD275B
:1022C000A081BB27AA2312F4DFEFBFEFB093F40580
:1022D000A093F505D093F60500E000934005009328
:1022E0004105009342053091F4054091F505509168
:1022F000F60560914005709141058091420558179F
:102300004707360709F07724A381AA2309F0772429
:10231000772072F466200AF4089502E4009304071B
:102320000BE100930507E2EFF3E20E94E83808951D
:10233000A581A0FD0DC0662052F002E400930407C1
:102340000BE100930507E6E0F4E20E94E838089507
:1023500000E60093060700E2009307070E946B392E
:1023600000910407045000930407009105070750EB
:102370000093050704E00093090702E0A381AA2364
:102380000AF003E00E94EE38009104070E5000931B
:1023900004070090050705E0000E0092050700E025
:1023A0000093090700E000930807052D0E94EE380E
:1023B00066200AF41DC001E00093090701E00093C4
:1023C00008070FE00093050703E0EF93FF93E6E3B0
:1023D000F4E20E94D238FF91EF9101E200930507E9
:1023E000A381AA231AF00E948C3802C00E948A3866
:1023F0000895556E757365642E004D6F746F723A53
:102400002000414C4C00536572766F2E0000424113
:10241000434B20204E455854000044697265637454
:10242000696F6E007365656E2066726F6D00616224
:102430006F76653A00001A2424242E240FEF0093AF
:102440003307002700933C070E945E3A03E10093A4
:102450000407EEE5F6E20E94E83800E00093040786
:1024600004E10093050700913307002392F002E096
:10247000E8EBF6E20E94D23800E00093040709E39B
:1024800000930507EEE6F6E20E94E8380E941B3A48
:102490002EC002E0E4EBF6E20E94D2380E941B3A22
:1024A00000E00093100700E00093110701E00093A3
:1024B000130708E0009312070FEF0093190700E0DD
:1024C0000093690601E000936A0600E000936B0642
:1024D0002B9A06E006BB03E10093400508E8009351
:1024E000410500E000934205002700931B070E946E
:1024F0001830009140050093FA05009141050093C2
:10250000FB05009142050093FC05009140050093F6
:10251000FD05009141050093FE05009142050093E1
:10252000FF050091400500930006009141050093CE
:1025300001060091420500930206009140050093B8
:1025400003060091410500930406009142050093A3
:102550000506009140050093060600914105009391
:10256000070600914205009308060091400500937C
:1025700009060091410500930A0600914205009367
:102580000B060091400500930C0600914105009355
:102590000D060091420500930E0600914005009340
:1025A0000F0600914105009310060091420500932B
:1025B00011060E947A3003B1009502950F700F93B7
:1025C0000091330700236AF40F910023B9F003E16F
:1025D0000093400508E80093410500E000934205A0
:1025E00086CF0F910830B9F000E00093400504E673
:1025F0000093410500E00093420579CF00E000938D
:10260000400504E60093410500E0009342050027E1
:102610000093330719CF2B980E946E090895AA27BB
:10262000E1E7F0E00E94E83B0895EEE0F7E20E9467
:10263000953A013009F008950E946C3A0E9476386C
:1026400004E0E2E2F7E20E94D2380E941B3AAFEFC8
:10265000E1E7F0E00E94E83B0E94CF3BFDCF45530D
:10266000432043414C4942524154494F4E00455842
:102670004954000052656C6561736520627574741D
:102680006F6E206174207468650045534320636F4A
:102690006E6669726D6174696F6E20626565700047
:1026A0005761697420666F72207468652066696E70
:1026B000616C000074268A26A0268A264553432092
:1026C00063616C6962726174696F6E2077696C6CAA
:1026D0000000626520617661696C61626C65206FE3
:1026E0006E20746865006E6578742073746172740E
:1026F0002D7570206F6E6C792E0052454D4F5645EA
:102700002050524F50532046495253542100446F99
:10271000204553432063616C6962726174696F6E16
:102720002E00BC26D226E626FA26A0E0B0E0C2E2C1
:10273000D8E214E0FE0104910F93FD010E94003CD9
:10274000EF910E1761F4119621961A9599F7E4EB23
:10275000F0E00E94003C00230AF06FD0089505D0FD
:102760000E940F130E94210CF8CFE4E0F0E0A0E0FB
:10277000B0E010E40E94E83B1A95E1F7A4E4B0E071
:10278000C6ECD7E218E14FD0A2E7B0E01AE04BD098
:102790001AE049D01AE047D016E045D01EE043D0F9
:1027A00016E041D018E03FD014E03DD0A0E0B0E00A
:1027B00014E039D015E00E946E09C0E00E94AC3BE5
:1027C0001A95C9F708953200640019001400320008
:1027D0006400190014003200140032000A001E00C8
:1027E0001E0032005A0064003C001400000000008B
:1027F0000A000A0000001E0000003200FFFFFFFF79
:1028000000000000000000000000000000000000C8
:10281000000301030200010203040506070800008B
:102820000002190373A5FE010491FD010E94083CFA
:10283000119621961A95B9F708950E946C3A00E115
:1028400000930407E6E7F8E20E946E3804E0E0ED4A
:10285000F8E20E94D2380E94AD380E941B3A0E94D2
:10286000CF3B0130E1F70FEFE4EBF0E00E94083CD2
:102870000E94CB3B0895453D4240433C3D4500000E
:10288000594F5520555345205448495320464952E5
:102890004D5741524500415420594F5552204F57F2
:1028A0004E205249534B21005265616420616C6C8B
:1028B00020696E636C7564656400646F63756D6533
:1028C0006E7473206361726566756C6C792E00009E
:1028D00080289628A828BA280E945E3A06E0E6E4F6
:1028E000FCE20E94D2380E94BB380E941B3A0E9430
:1028F000CF3B0130E1F7A5E30E946C3A0AE3009375
:10290000040706E1009305070A2F0E94EE380E9493
:102910001B3AD4E6C4E60E94AC3BDA95D9F7AA95F7
:10292000AF3209F0E9CF0E945E3A09E10093040753
:1029300009E100930507E2E5FCE20E94E8380E9405
:102940001B3AC0E00E94AC3BE0E100E000937F0551
:102950000093800500938105009382050093830511
:1029600000938405009385050093860500938705F1
:102970000E948C37EF93AFE7B5E0CFE7D5E0E6E70D
:10298000F5E00E94143CA2E8B5E0C2E8D5E0E9E732
:10299000F5E00E94143CA5E8B5E0C5E8D5E0ECE719
:1029A000F5E00E94143CEF91C4E60E94AC3BEA952E
:1029B00009F0DECF60917F057091800580918105DF
:1029C00004E00E94213C60937F0570938005809312
:1029D000810560918205709183058091840504E0F2
:1029E0000E94213C60938205709383058093840547
:1029F00060918505709186058091870504E00E94AD
:102A0000213C609385057093860580938705D8E205
:102A1000C0E00E94AC3BDA95D9F70FEF00932F0787
:102A20000E945E3A0AE00093050703E0E0E9FCE259
:102A30000E94D2380AE000930507B0917F05A0916B
:102A40008005D09181050E945F37B0918205A091E9
:102A50008305D09184050E945F37B0918505A091D0
:102A60008605D09187050E945F370E94BB380E947F
:102A70001B3A00912F0700230AF5EDE5F0E0B09135
:102A80007F05A0918005D09181050E94F63BB09111
:102A90008205A0918305D09184050E94F63BB091F8
:102AA0008505A0918605D09187050E94F63BE2EB53
:102AB000F0E00FEF002F0E94083C0AC0E2EBF0E0CC
:102AC00000270E94083C00913907016000933907F4
:102AD0000E94CF3B0130E1F70E945E3A09E100938A
:102AE000050700912F070170ECE8FCE20E94C9384D
:102AF0000E94BB380E941B3A0E94CF3B0130E1F795
:102B00000895E0E100E000936705009368050093F5
:102B1000690500936A0500936B0500936C050093AB
:102B20006D0500936E0500936F050E948C37EF933F
:102B3000A7E6B5E0C7E6D5E0EEE5F5E00E94143C77
:102B4000AAE6B5E0CAE6D5E0E1E6F5E00E94143C6D
:102B5000ADE6B5E0CDE6D5E0E4E6F5E00E94143C54
:102B6000EF91C4E60E94AC3BEA9509F0DECF60919C
:102B70006705709168058091690504E00E94213C19
:102B800060936705709368058093690560916A0595
:102B900070916B0580916C0504E00E94213C60936C
:102BA0006A0570936B0580936C0560916D0570915B
:102BB0006E0580916F0504E00E94213C60936D05D5
:102BC00070936E0580936F050895506C6163652066
:102BD000746865206169726372616674206F6E004B
:102BE00061206C6576656C20737572666163652023
:102BF000616E6400707265737320434F4E54494E8A
:102C000055452E005468652046432077696C6C203A
:102C10007468656E2077616974006120666577204D
:102C200073656320746F206C6574207468650000A0
:102C3000616972637261667420736574746C652077
:102C4000646F776E2E00CA2BE02BF42B042C1A2C09
:102C5000302C43616C6962726174696E672E2E2E2E
:102C6000000043616C6962726174696F6E20666115
:102C7000696C65642E0043616C6962726174696F8E
:102C80006E2073756363656564656400622C762CE1
:102C9000E86EF06EF86E1127209114070E945E3ADC
:102CA00005E0E6EBFDE20E94D23801E00093050763
:102CB000E0E9F0E04BD04AD049D048D047D00E945C
:102CC0009138E0ECFDE204E0019FE00DF11D0E946F
:102CD000ED370E941B3A0E94CF3B0830B1F40E94AE
:102CE000842020178CF4E4E4F0E0CCE4D0E014E09D
:102CF0000E94D63BEF93FF93FE010E94DD3BEF0164
:102D0000FF91EF911A95A1F70895043029F41A95CF
:102D10000CF0C4CF14E0C2CF023031F4139515305B
:102D200009F0BCCF1127BACF013079F40E94783274
:102D3000E0E9F0E001E0019FE00DF11D0E94003CA0
:102D400000950E94083C0E944032A8CF0AE50093FB
:102D500004070E9485380E94E43B0A2F0170EF931C
:102D6000FF93E2E1F7E70E94C938FF91EF910E94DB
:102D7000673808954C696E6B20526F6C6C205069F7
:102D8000746368004175746F2044697361726D00EB
:102D9000427574746F6E20426565700041726D6992
:102DA0006E67204265657073000051756965742017
:102DB000455343730000742D842D902D9C2DAA2D16
:102DC00064007A0964097A1264127A1B641B7A24FB
:102DD00064247A2D11270E945E3A05E0E8EEFEE2B7
:102DE0000E94D23801E000930507E6E8F0E005E034
:102DF0000F930CE6009304070E94D63B0E946638AE
:102E00000F910A95A9F70E949138E2EFFEE204E0E3
:102E1000019FE00DF11D0E94ED370E941B3A0E94B8
:102E2000CF3B083009F40895043021F41A950AF4D0
:102E300014E0D1CF023029F41395153009F410E0D5
:102E4000CACF0130F1F4E6E8F0E002E0019FE00DC6
:102E5000F11DEF93FF930E94D63BE6E0FFE204E012
:102E6000019FE00DF11DC591D59105901590E02DC4
:102E7000F12D0E94C425A02DB12DFF91EF910E944C
:102E8000DD3BA9CF4D696E696D756D205468726F19
:102E900074746C653A200000486569676874204462
:102EA000616D70656E696E673A20000048656967FC
:102EB000687420442E204C696D6974203A2000000B
:102EC000416C61726D20312F313020566F6C7473FC
:102ED0003A200000536572766F2046696C74657203
:102EE000202020203A200000842E982EAC2EC02EC8
:102EF000D42E6B007F096B097F126B127F1B6B1B3B
:102F00007F246B247F2D000014000000F4010000DA
:102F10001E0000008403000064000E945E3A002747
:102F2000E2E7F0E00F93EF93FF93E0EEFFE20E9401
:102F3000C938FF91EF910E94D63B06E30093040746
:102F40000E9485380E946638A091040700E0009333
:102F500004070F910395053029F7A093040700910A
:102F6000050709500093050705E20E94EE380E940C
:102F70009138EAEEFFE204E0019FE00DF11D0E94AE
:102F8000ED370E941B3A0E94CF3B083009F40895A8
:102F9000043021F41A950AF414E0BFCF023029F46A
:102FA0001395153009F410E0B8CF0130C1F4E2E711
:102FB000F0E002E0019FE00DF11D0E94D63BC0E071
:102FC000D0E0E4EFF1E00E94C425A02DB12DE2E7AE
:102FD000F0E002E0019FE00DF11D0E94DD3B9DCF7E
:102FE00084768C7696769E765A7641005C09410905
:102FF0005C1241125C1B411B5C2441245C2D0FEFD1
:1030000000933C070E946C3A009119070023A2F438
:1030100002E20093040706E100930507E4E8F2E307
:103020000E946E38E4E9F2E30E94ED370DE200936E
:1030300005070E947D3896C006E200930407EEE77C
:10304000F2E30E946E3800E00093040701E0009371
:103050000507A0914107C0914007FAD000E0009316
:10306000040701E100930507E0E1F6E76CD10E9457
:10307000E83800913907077FA0911B07A0950A2B1C
:10308000D1F400914207002309F1EAE8F2E30E943B
:10309000E83800914207013049F4A0911407AA23AF
:1030A00029F0ECE7F6E70E94E83810C0E6E1F7E720
:1030B0000E94C9380BC000913A07039500933A0764
:1030C000017021F0E8E9F2E30E94ED3700E000939F
:1030D00004070BE100930507ECE9F2E30E94E838EE
:1030E0000091200700232AF4E0E5F6E70E94E83883
:1030F0000DC00091210700232AF4EAE5F6E70E94BB
:10310000E83804C0E4E4F6E70E94E83804E20093FB
:103110000507E6EAF2E30091880500934305009174
:1031200089050093440500918A050093450520D048
:10313000E0EBF2E300918E050093430500918F05CB
:103140000093440500919005009345050E94B8182E
:1031500006E60093040709E300930507E8E7F2E3B6
:103160000E94E8380E941B3A002700933C0708950C
:1031700000E0009304070E94E83800E00093400557
:1031800006E00093410500EE0093420510914305CF
:1031900020914405309145054091400550914105ED
:1031A000609142050E942A3C70934005809341053E
:1031B0002092420560914005709141058091420541
:1031C00008E00E94213C6093400570934105809384
:1031D0004205B0914005A0914105D09142050E9461
:1031E00025380EE20E94EE38AD2FBB27DD27B093C5
:1031F0004005A0934105D093420500E000934305AC
:1032000000E0009344050AE0009345051091400555
:10321000209141053091420540914305509144056C
:10322000609145050E942A3C7093400580934105BA
:1032300020924205B0914005A0914105D0914205F0
:103240000E94253806E50E94EE380E9467380895EE
:10325000AA301CF400E30E94EE38BB270E942538F8
:103260000AE30E94EE38AC2FAA301CF400E30E945F
:10327000EE380E94253808954D454E550000463AD7
:103280003E3D00003A45423D3C002E2054756E699B
:103290006E67200000137F2800107F194D6F646552
:1032A0002020203A2000426174746572793A20002F
:1032B0004C6F67676564203A2000414343206E6F7E
:1032C000742063616C696272617465642E0053617D
:1032D0006E69747920636865636B206661696C65EB
:1032E000642E00004E6F206D6F746F72206C6179D8
:1032F0006F7574210000436865636B207468726F9A
:1033000074746C65206C6576656C2E005258207361
:1033100069676E616C20776173206C6F7374210034
:10332000426164206368616E6E656C206D617070CF
:10333000696E672E00004E6F204350504D20696E1D
:1033400070757421000000913907077F39F40091EE
:103350001B07002312F0E6EFF2E30895009139070E
:10336000047019F0E4EEF2E308950091390701705A
:1033700019F0EAEBF2E3089500913907027019F0B1
:10338000EEECF2E3089500913907007219F0ECE0D9
:10339000F3E3089500913907007419F0E0E2F3E3D4
:1033A0000895E6E3F3E3089500901B0710903B07B0
:1033B000012000923007009030071090190701207B
:1033C0000092300700913007002342F000E00093A4
:1033D0007E0600937F060093800639C030917E06FA
:1033E00040917F0601E0400F0027301F30937E069A
:1033F00040937F060FE10093400500E400934105F0
:1034000000E00093420530917E0640917F06509186
:1034100080066091400570914105809142055817E2
:1034200047073607A1F400E000937E0600937F066D
:10343000009380060027009319070FEF00931F07E2
:103440000FEF0093230701E00093240708950091F4
:103450001B07002392F50EEF009340050CE000934C
:10346000410500E00093420530914F054091500521
:103470005091510560914005709141058091420540
:10348000581747073607ECF001E00093400504EFBA
:103490000093410500E00093420530914F054091B3
:1034A0005005509151056091400570914105809102
:1034B000420558174707360724F400E000931C071D
:1034C000089500911C07039500931C0700911C07A9
:1034D0000F3F09F04CC0B0914F05A0915005D0911D
:1034E0005105BB23CAF400913907077F09F00895FD
:1034F0000FEF0093190701E000936F060CE20093B1
:10350000700600E0009371060E9481150E94821CE3
:103510000AE000931E070CC000270093190700E083
:1035200000936F0606E90093700600E000937106B1
:10353000002700932307E3E9F0E00E94E43BAA237D
:103540001AF40FEF009338070FEF00931F0703E003
:1035500000936C0600E200936D0600E000936E0697
:1035600000E000937E0600937F0600938006089596
:10357000ACD3B7D3B5D509E00093400504EC009374
:10358000410500E00093420500E000933207EF930D
:10359000FF93309140054091410550914205E2E191
:1035A000F6E06091320703E0609FE00DF11D31937A
:1035B00041935193FF91EF9100913207039500934E
:1035C000320700913207083011F783D4E6E8F0E0C3
:1035D00003D200E00093430502E30093440500E0BA
:1035E0000093450510914005209141053091420519
:1035F0004091430550914405609145050E942A3C45
:103600007093E2058093E3052092E405E5D10091F3
:10361000400500934E060091410500934F0600912E
:10362000420500935006D8D1E1D1009140050093A6
:103630005106009141050093520600914205009306
:103640005306CAD100E00093430503E0009344050C
:1036500009EB0093450510914005209141053091FB
:1036600042054091430550914405609145050E94F3
:103670002A3C709354068093550620925606ACD18E
:1036800000E00093430504E60093440500E0009346
:1036900045053091430540914405509145056091A1
:1036A00040057091410580914205581B470B360B30
:1036B0003093690640936A0650936B0660916906E1
:1036C00070916A0680916B0607E00E94213C60932E
:1036D000690670936A0680936B06E2E7F0E07CD19E
:1036E00030D1009140050093E5050091410500931C
:1036F000E605009142050093E7056ED122D10091C5
:1037000040050093E805009141050093E90500910B
:1037100042050093EA0560D114D100914005009361
:10372000EB05009141050093EC05009142050093E3
:10373000ED0552D106D1009140050093EE050091B0
:1037400041050093EF05009142050093F00544D137
:1037500008D1009140050093F105009141050093C7
:10376000F205009142050093F305CCE5D7E0EAEAC3
:10377000F0E0D1D4D0D4CFD4CED4CDD4CCD4CBD40B
:10378000CAD43FD4EDE5F0E00E94EC3BB0937F0556
:10379000A0938005D09381050E94EC3BB0938205F5
:1037A000A0938305D09384050E94EC3BB0938505DC
:1037B000A0938605D0938705A7D40E94B825E1E998
:1037C000F0E00E94003C00933B07E4EAF0E00E9436
:1037D000E43BA09329070E94E43BA0932A070E94A0
:1037E000E43BA0932B070E94E43BA0932C070E948C
:1037F000E43BA0932D070FEF0093270700931F07CB
:1038000001E00093130705E0009312070AEF00930D
:103810000F07002700933C070093190700931A072E
:103820000093200700932207009323070093380793
:103830000093370700933D0700937E0600937F06B1
:103840000093800600936F06009370060093710644
:1038500000936C0600936D0600936E06009381063C
:1038600000938206009383060093840600938506E6
:1038700000938606009387060093880600938906C6
:103880000093AB060093AC060093AD060093AE0622
:103890000093AF060093B00600938D0600938E064A
:1038A00000938F0600939006009391060093920672
:1038B00029D003E000938B050FEF00938C0500E007
:1038C00000938D05009139070071009339070E941C
:1038D0008407E3EBF0E00E94003C00232AF0009113
:1038E0003907046000933907E2EBF0E00E94003CE6
:1038F000002332F0009139070160009339070895E1
:10390000CAD0089500E00093D2060093D306009336
:10391000D4060093D50600E00093D6060093D706A0
:103920000093D8060093D90601E00093DA0600E080
:103930000093DB0600E00093DC0600E00093DD0668
:10394000089560914005709141058091420504E021
:103950000E94213C6093400570934105809342058D
:10396000089500E00093430500E00093440502E55C
:103970000093450510914005209141053091420585
:103980004091430550914405609145050E942A3CB1
:1039900070934005809341052092420500E000931A
:1039A000430500E00093440508E0009345051091AD
:1039B00040052091410530914205409143055091C9
:1039C0004405609145050E942A3C70934005809310
:1039D00041052092420508950E94D63BDD27B09311
:1039E0004005A0934105D0934205089500E000935F
:1039F000430500E80093440500E00093450510915D
:103A00004005209141053091420540914305509178
:103A10004405609145050E942A3C709340058093BF
:103A200041052092420508954F6E65206F72206D0A
:103A30006F72652073657474696E677300006172DC
:103A400065206F7574206F66206C696D69747321D1
:103A5000000053656E736F722063616C69627261FE
:103A600074696F6E000064617461206F7574206FFB
:103A700066206C696D697473210053656E736F7293
:103A800020726177206461746100283A3E3A523AAC
:103A9000663A7A3A3E3A0E945E3A00E000930407A2
:103AA00001E100930507B091E205A091E305D091F3
:103AB000E405C0E0D0E0E9EEF3E00E945B1E08F40C
:103AC000C9C0B0914E06A0914F06D0915006C0E0FB
:103AD000D0E0E5EFF1E00E945B1E08F4BBC0B091BE
:103AE0005106A0915206D0915306C0E0D0E0E1E02B
:103AF000FFE00E945B1E08F4ADC0B0916705A09185
:103B00006805D0916905C0E9D1E0EAEDF2E00E94D4
:103B10005B1E08F4A5C0B0916A05A0916B05D09119
:103B20006C05C0E9D1E0EAEDF2E00E945B1E08F40A
:103B300097C0B0916D05A0916E05D0916F05C0E959
:103B4000D1E0EAEDF2E00E945B1E08F489C0B0917A
:103B50007F05A0918005D0918105C2ECD1E0E2E51E
:103B6000F3E00E945B1E08F47BC0B0918205A09137
:103B70008305D0918405C2ECD1E0E2E5F3E00E9438
:103B80005B1E08F46DC0B0918505A0918605D091AB
:103B90008705C2ECD1E0E2E5F3E00E945B1E08F489
:103BA0005FC00E948C370E948C37B0915E05A09157
:103BB0005F05D0916005C4E6D0E0E4E8F3E00E9440
:103BC0005B1E08F453C0B0916105A0916205D091CD
:103BD0006305C4E6D0E0E4E8F3E00E945B1E08F46D
:103BE00045C0B0916405A0916505D0916605C4E615
:103BF000D0E0E4E8F3E00E945B1E08F437C0B09127
:103C00007605A0917705D0917805C4E6D0E0E4E888
:103C1000F3E00E945B1E08F429C0B0917905A091E1
:103C20007A05D0917B05C4E6D0E0E4E8F3E00E9499
:103C30005B1E08F41BC0B0917C05A0917D05D0915E
:103C40007E05C4E6D0E0E4E8F3E00E945B1E08F4E1
:103C50000DC0089502E0EAE8FAE30E94D2380BC0F2
:103C600002E0EEE8FAE30E94D23805C002E0E2E9A1
:103C7000FAE30E94D23800913907026000933907B5
:103C80000E94BB3800E00093050703E0009309079A
:103C90000E9476380E941B3A299AD7E2C0E00E941F
:103CA000AC3BDA95D9F729980E94CF3B0130E1F778
:103CB0000E94CB3B0895AC17BD072CF0AE17BF0791
:103CC00014F48894089508940895C0E4A0E0B5E041
:103CD000E4E0F0E00E94003C0D933196CA95D1F7E4
:103CE0000895E4E4F0E078DE009140050093A60535
:103CF000009141050093A705009142050093A80596
:103D0000009140050093CA05009141050093CB0541
:103D1000009142050093CC055FDE68DE009140050E
:103D20000093AF05009141050093B0050091420555
:103D30000093B10551DE009140050093D305009139
:103D400041050093D405009142050093D505F9DDA6
:103D5000009140050093B805009141050093B90515
:103D6000009142050093BA0537DE40DE0091400520
:103D70000093C105009141050093C20500914205E1
:103D80000093C30500911407002312F4E4E4F0E06B
:103D900023DE009140050093A905009141050093A1
:103DA000AA05009142050093AB05009140050093E0
:103DB000CD05009141050093CE0500914205009389
:103DC000CF050ADE13DE009140050093B205009195
:103DD00041050093B305009142050093B405FCDD55
:103DE000009140050093D605009141050093D70549
:103DF000009142050093D805A4DD00914005009391
:103E0000BB05009141050093BC050091420500935C
:103E1000BD05E2DDEBDD009140050093C405009196
:103E200041050093C505009142050093C605E4E5F0
:103E3000F0E0D2DD009140050093AC050091410512
:103E40000093AD05009142050093AE050091400539
:103E50000093D005009141050093D10500914205E2
:103E60000093D205B9DDC2DD009140050093B50590
:103E7000009141050093B605009142050093B705F6
:103E8000ABDD009140050093D905009141050093F9
:103E9000DA05009142050093DB0553DD00914005F2
:103EA0000093BE05009141050093BF0500914205B6
:103EB0000093C00591DD9ADD009140050093C70590
:103EC000009141050093C805009142050093C90582
:103ED0000895ECE7F0E080DD009140050093420694
:103EE000009141050093430600914205009344066A
:103EF0000091400500934506009141050093460658
:103F0000009142050093470667DD00E000934305FA
:103F10000AE00093440500E0009345051091400538
:103F2000209141053091420540914305509144054F
:103F3000609145050E942A3C70934B0680934C0685
:103F400020924D0649DD00914005009378060091CE
:103F50004105009379060091420500937A0660912D
:103F60004005709141058091420503E00E94213C8B
:103F70006093400570934105809342050091400590
:103F8000009372060091410500937306009142056B
:103F90000093740621DD0091400500937B0600919B
:103FA000410500937C060091420500937D066091D7
:103FB0004005709141058091420503E00E94213C3B
:103FC0006093400570934105809342050091400540
:103FD0000093750600914105009376060091420515
:103FE00000937706F9DCBDDC00914005009348069C
:103FF00000914105009349060091420500934A064D
:104000000895E6E9F0E0E8DC009140050093BD0684
:10401000009141050093BE06009142050093BF0642
:1040200090DC0091400500939F06009141050093AC
:10403000A006009142050093A106CEDC0091400548
:104040000093A206009141050093A306009142054A
:104050000093A406C1DC009140050093C0060091C6
:1040600041050093C106009142050093C20669DC38
:10407000009140050093A506009141050093A60616
:10408000009142050093A706A7DC0091400500932C
:10409000A806009141050093A906009142050093EE
:1040A000AA069ADC009140050093B10600914105F3
:1040B0000093B206009142050093B3068DDC009197
:1040C00040050093B406009141050093B5060091A8
:1040D00042050093B6060E94E43BA0933E07089574
:1040E000C8E0E0E0F5E00581889401FD0894A7951B
:1040F000889400FD0894B7953896CA95A1F7A093C7
:104100001007B09311070895E0E9F0E00E94003C29
:104110000093140708950E94E43BAA95A99308957B
:10412000112722270E945E3AE2E0F2E40E94E8387A
:104130000091140700233AF4223029F0ECE7F6E767
:104140000E94E83805C0022FE8E2F2E40E94C93874
:1041500000E0009304070AE00093050700270F938F
:10416000E0E2F2E40E94C9380AE2009304070E94E8
:1041700085380F910F93302F5AD00E94663800E097
:10418000009304070F91039504304CF30E9491387B
:10419000ECE0F2E404E0019FE00DF11D0E94ED3738
:1041A0000E941B3A0E94CF3B083009F40895043066
:1041B00021F41A950AF414E0B5CF023029F41395CE
:1041C000153009F410E0AECF0130E9F7103061F49A
:1041D0002395233009F42227213029F40091140774
:1041E00000230AF422E09ECF312F3A9520D0C0E080
:1041F000D0E0E0E0FDE70E94C425A02DB12D20D045
:1042000091CF417869732020203A2000340067095B
:1042100034094F1234124F1B341B4F2434244F2DBA
:10422000B476BC76C476CC7684768C76967611D0CD
:104230000E94003CA02F31960E94003CB02F0895B0
:1042400008D00A2F0E94083C31960B2F0E94083C90
:104250000895E4E4F0E0022F000F000F000FE00FDC
:104260000027F01F032F000FE00F0027F01F089515
:104270000E94711E0E94691F0E9401209CD178D467
:104280000E94A13400914207002311F40E94C53519
:104290001091550520915605309157054091C30660
:1042A0005091C4066091C5060E942A3C7093DC05BB
:1042B0008093DD052092DE05109158052091590567
:1042C00030915A054091C3065091C4066091C506CD
:1042D0000E942A3C7093DF058093E0052092E1055F
:1042E00082D20E945E3AEAEEF3E40E94E83800913E
:1042F0004207002359F003304CF4A0911407AA237D
:1043000029F0ECE7F6E70E94E83804C0E6E1F7E7B9
:104310000E94C93800E0009304070AE000930507F3
:1043200000914207E4E3F4E40E94C938E0E1F4E4D8
:10433000B091DC05A091DD05D091DE05F2D00091B1
:104340004207E2E4F4E40E94C938E6E1F4E4B09103
:10435000DF05A091E005D091E105E3D0E8EFF3E4BB
:104360000E94E83800914307E4E2F7E70E94C93869
:1043700000E00093040709E300930507E6EAF5E788
:104380000E94E838E6E0F4E40E94ED370E941B3A10
:104390000E944B340E94BA3B083009F4089504305F
:1043A00021F40E946E09D2D06BCF023039F465D16E
:1043B0000E946E09A091420736D162CF013009F008
:1043C0005FCF00914207039507300CF000270230C1
:1043D00029F4A0911407AA230AF403950093420735
:1043E0000E946E090E94CB3B4BCF54756E696E677D
:1043F000204D6F64653A2000496E707574205261DB
:104400007465203A20004C007F09546573740000E5
:1044100041757832000041757833000052204761C1
:10442000696E000050205472696D00005220547271
:10443000696D00000A44B476B476B476B476244448
:10444000B4760A44C476C476C476BC672C441C4453
:10445000463A483D3C0043444700506C65617365F3
:104460002063656E74657220796F757220545800F0
:1044700074756E696E6720636F6E74726F6C7320F3
:104480006E6F772E0000412054756E696E67204D67
:104490006F6465206D7573742062650073656C656B
:1044A000637465642066697273742E005A447044A4
:1044B00086449C4453455420494E50555420524103
:1044C0005445000053656C65637420696E707574A3
:1044D000207261746520666F7200616C6C20747567
:1044E0006E696E67206D6F6465732E20557365006D
:1044F0004C4F5720666F722066696E652D74756E1D
:10450000696E672E00004241434B20204C4F5720DC
:104510004D454449554D204849474800C444DA4474
:10452000F04400910407002309F408950FE20E946B
:10453000EE380E94E83802E4009304070E948538B0
:104540000E94663800E00093040708950E945E3AD6
:1045500006E100930407E4EBF4E40E94E8380DE080
:104560000093050703E0ECE1F5E40E94D23800E097
:104570000093040709E300930507E6E0F5E40E94D1
:10458000E8380E941B3A0E94CF3B077089F0043044
:1045900011F4A1E008C0023011F4A2E004C001301F
:1045A00009F0D4CFA3E0E5EBF0E00E94E83B03D0B4
:1045B0000E94CB3B0895E5EBF0E00E94E43BA37042
:1045C000AA2309F4A2E0A13051F400E000934005D1
:1045D00000E00093410506E20093420515C0A230B9
:1045E00051F400E00093400500E00093410503E72B
:1045F0000093420509C000E00093400500E00093ED
:10460000410500EC00934205A0934307009140054B
:104610000093C306009141050093C4060091420532
:104620000093C50608950E946C3A0AE000930407BF
:10463000AA2341F4E6E5F4E40E94E8380AE3009393
:10464000040703C002E200930407E0E5F4E40E94DB
:104650006E38ECEAF4E4AA2311F4E0EBF4E402E0AF
:104660000E94D2380E94AD380E941B3A0E94CF3B74
:104670000130E1F70E94CB3B0895009142070023EF
:1046800009F40895B091DC05A091DD05D091DE0517
:104690000130C9F4B093CA05A093CB05D093CC05E3
:1046A0000027CC278BD00027C2E0B091DF05A09176
:1046B000E005D091E105B093D305A093D405D09344
:1046C000D5057CD008950230C9F401E0CC27B09321
:1046D000CD05A093CE05D093CF0570D001E0C2E008
:1046E000B091DF05A091E005D091E105B093D6052A
:1046F000A093D705D093D80561D008950330C9F4AD
:10470000B093D005A093D105D093D20502E0CC2779
:1047100055D002E0C2E0B091DF05A091E005D09154
:10472000E105B093D905A093DA05D093DB0546D017
:104730000895043059F4B0934506A0934606D093EB
:104740004706ECE7F0E00E94DD3B08950530D9F420
:10475000B0937B06A0937C06D0937D06E2E8F0E060
:104760000E94DD3BB091DF05A091E005D091E1050D
:10477000B0937806A0937906D0937A06E0E8F0E04B
:104780000E94DD3B0895B093C006A093C106D0936C
:10479000C206EAE9F0E00E94DD3BB091DF05A0919E
:1047A000E005D091E105B093BD06A093BE06D0937D
:1047B000BF06E6E9F0E00E94DD3B0895E4E4F0E0A6
:1047C000000F000F000FE00F0027F01F0C2F000F4D
:1047D000E00F0027F01F0A2F0E94083C31960B2F94
:1047E0000E94083C089500914207002309F40895AF
:1047F0000E94C535109155052091560530915705F9
:104800004091C3065091C4066091C5060E942A3C9F
:1048100070935505809356052092570510915805C1
:104820002091590530915A054091C3065091C40614
:104830006091C5060E942A3C7093580580935905E3
:1048400020925A05009142070130C1F50091CA0536
:10485000009343050091CB05009344050091CC05DE
:10486000009345050091D305009340050091D405C0
:10487000009341050091D505009342054CD10E945B
:10488000A11C0091DC050093A6050091DD050093B5
:10489000A7050091DE050093A8050091400500934F
:1048A000B805009141050093B905009142050093B8
:1048B000BA05009114070023F2F008950230A1F523
:1048C0000091CD05009343050091CE05009344056A
:1048D0000091CF05009345050091D6050093400552
:1048E0000091D705009341050091D805009342053A
:1048F00012D10E94A11C0091DC050093A905009132
:10490000DD050093AA050091DE050093AB0500913B
:1049100040050093BB05009141050093BC05009143
:1049200042050093BD0508950330A1F50091D0051F
:10493000009343050091D105009344050091D205F1
:10494000009345050091D905009340050091DA05D3
:10495000009341050091DB0500934205DCD00E94E5
:10496000A11C0091DC050093AC050091DD050093CE
:10497000AD050091DE050093AE0500914005009362
:10498000BE05009141050093BF05009142050093CB
:10499000C0050895043009F50091450600934305CC
:1049A0000091460600934405009147060093450593
:1049B000B2D000E00093DF050093E0050093E1052D
:1049C0000091DC05009342060091DD05009343064B
:1049D0000091DE05009344060895053009F054C0A7
:1049E000AFEDB5E0C8E7D6E0E8E5F5E00E94143C9D
:1049F00030917B0640917C0650917D066091550573
:104A00007091560580915705581B470B360B309314
:104A1000DC054093DD055093DE050091DC05009335
:104A200075060091DD05009376060091DE05009382
:104A300077060091DF05009372060091E005009370
:104A400073060091E10500937406609175067091FC
:104A500076068091770603E00E94213C60937506FC
:104A60007093760680937706609172067091730654
:104A70008091740603E00E94213C6093720670935B
:104A80007306809374060895AFEDB5E0CDEBD6E0E4
:104A9000E8E5F5E00E94143CACEDB5E0C0ECD6E0F2
:104AA000E5E5F5E00E94143C0091DC050093A506C5
:104AB0000091DD050093A6060091DE050093A70690
:104AC0000091DF0500939F060091E0050093A0068A
:104AD0000091E1050093A1066091A5067091A606DC
:104AE0008091A70604E00E94213C6093A506709384
:104AF000A6068093A70660919F067091A0068091FC
:104B0000A10604E00E94213C60939F067093A006DA
:104B10008093A1060895ACEDB5E0C3E4D5E0E5E5EA
:104B2000F5E00E94143C3CF400E00093DC050093A7
:104B3000DD050093DE05AFEDB5E0C0E4D5E0E8E5C6
:104B4000F5E00E94143C3CF400E00093DF05009384
:104B5000E0050093E1050091DF0500934005009119
:104B6000E005009341050091E10500934205089599
:104B700000914207023039F40091140700231AF41F
:104B800001E00093420708952F923F924F925F9267
:104B90006F927F928F921F932F933F934F935F93C8
:104BA0006F937F938F939F93AF93BF93CF93DF9335
:104BB000EF93FF9311E002E00093080701E00093F8
:104BC000090700E00093040708E3009305070FE7D7
:104BD0000093060700E4009307070E94DB3701E01B
:104BE0000093080700E00093040709E3009305071A
:104BF000EF93FF93E4E1FDE40E94E838FF91EF9129
:104C00000EE10093040703E10093050702E6009319
:104C100006070AE20093070702E0009308070E94D4
:104C2000DB370EE10093040703E10093050702E67A
:104C3000009306070AE20093070701E000930807C4
:104C40000E94FE370FE10093040704E1009305077B
:104C500001E60093060709E2009307070E94FE376A
:104C600002E20093040708E10093050703E00093C4
:104C700009070E9425380E941B3A2EE10E94BA3B88
:104C8000003011F02A95D1F7003009F411E00E94AC
:104C9000BA3B0030C9F30E946E09083039F4A0E035
:104CA000B0E0AC17BD070CF4DE01AACF043061F40C
:104CB000A11B0027B00BAC17BD070CF4DE01139548
:104CC0001F3F08F01FEF9CCF023041F4A10F0027D7
:104CD000B01FAE17BF070CF0DF01F1CF0130C9F4F0
:104CE0000A2E1B2EFF91EF91DF91CF91BF91AF91D3
:104CF0009F918F917F916F915F914F913F912F91F4
:104D00001F918F907F906F905F904F903F902F906A
:104D1000089576CF434C522020444F574E202020F8
:104D20005550202020444F4E4500E3EBF0E00E9418
:104D3000003C002312F0DED0089510E022270E94EC
:104D40005E3A06E600930407E8E8FEE40E94E838CD
:104D5000A22FA395BB270E94253800E000930407EB
:104D600001E00093050700270F93ECEAFEE40E94A0
:104D7000C9380F910F93302FDED0F1D000E30093AC
:104D800004070E9485380E94663800E000930407FB
:104D90000F910395053044F300E000930407ECE81D
:104DA000FEE40E94E83835E0C6D00F930170E6EBD0
:104DB000FEE40E94C93808E400930407E2E9FEE437
:104DC0000E94E8380F9106950170EAEBFEE40E941C
:104DD000C9380E949138E8E6FEE404E0019FE00D46
:104DE000F11D0E94ED370E941B3A0E94CF3B083014
:104DF00009F40895043019F41A951770A0CF023001
:104E000019F4139517709BCF013069F5103019F420
:104E10002395277094CF113078F0163068F4312F35
:104E20003A9589D09CD0C1E8DFEFEFE7F0E00E942F
:104E3000C425002D83D083CF163061F40E947832D0
:104E400035E079D0A1E00A2700FD026077D00E940A
:104E5000403275CF173039F435E06DD0A2E00A2723
:104E600000FD02606BD06BCF78007F093A005609D5
:104E70003A0956123A12561B3A1B56243A24562D1A
:104E80001D2D3D36662D7E3643683A005479706597
:104E90003A00526174653A00536572766F0045536B
:104EA00043004869676800004C6F77009E768476FF
:104EB0008C769676AC76984E9E4EA84EA24E434483
:104EC00000003A3B3B3D4646000041204D6F746F69
:104ED00072204C61796F7574206D75737400626512
:104EE000206C6F616465642066697273742E0000C3
:104EF000CA4EDE4E0E946C3A0AE000930407EEEBC5
:104F0000FEE40E94E838009004070CE0000E0092D6
:104F10000407E2ECFEE40E946E3802E0E0EFFEE4FB
:104F20000E94D2380E94AD380E941B3A0E94CF3BAB
:104F30000130E1F7089507D00C94003C0F9303D0A3
:104F40000F910C94083CE4E0F0E0022F000F000FFA
:104F5000000FE00F0027F01FE30FF01F0895A02FB0
:104F6000BB27AA230AF4BFEF089500E00093F705DA
:104F700002E30093F80500E00093F905E0E0F5E0B6
:104F8000D6D00091F40500932A060091F505009310
:104F90002B060091F60500932C0600914005009326
:104FA000FA05009141050093FB050091420500932D
:104FB000FC05E8E0F5E0BBD00091F40500932D0678
:104FC0000091F50500932E060091F60500932F063B
:104FD000009140050093FD05009141050093FE05F9
:104FE000009142050093FF05E0E1F5E0A0D00091BB
:104FF000F405009330060091F50500933106009109
:10500000F6050093320600914005009300060091DA
:105010004105009301060091420500930206E8E174
:10502000F5E085D00091F405009333060091F50575
:10503000009334060091F605009335060091400573
:105040000093030600914105009304060091420578
:1050500000930506E0E2F5E06AD00091F4050093C4
:1050600036060091F505009337060091F60500938A
:105070003806009140050093060600914105009313
:1050800007060091420500930806E8E2F5E04FD0DC
:105090000091F405009339060091F50500933A0656
:1050A0000091F60500933B06009140050093090628
:1050B0000091410500930A060091420500930B06FA
:1050C000E0E3F5E034D00091F40500933C06009154
:1050D000F50500933D060091F60500933E0600910C
:1050E000400500930C060091410500930D060091C8
:1050F000420500930E06E8E3F5E019D00091F405AF
:1051000000933F060091F505009340060091F605D7
:10511000009341060091400500930F060091410560
:105120000093100600914205009311060895DD27B3
:10513000A481BB27AA2312F4DFEFBFEFB093F405DD
:10514000A093F505D093F6051091F4052091F5058F
:105150003091F6054091F7055091F8056091F905F9
:105160000E942A3C7093F4058093F5052092F60581
:10517000B091F405A091F505D091F605008130912C
:105180004C0540914D0550914E050E94703C0181A7
:105190003091910540919205509193050E94703C89
:1051A00002813091940540919505509196050E9499
:1051B000703C038130919705409198055091990575
:1051C0000E94703CB0934005A0934105D0934205E6
:1051D00008950091210700230AF0BDC000E000936C
:1051E0004005009341050093420500914605009358
:1051F000430500914705009344050091480500933D
:105200004505309143054091440550914505609115
:1052100040057091410580914205581747073607B0
:1052200094F460914305709144058091450555279C
:1052300044273327581B470B360B309343054093C5
:105240004405509345053091490540914A055091D8
:105250004B056091400570914105809142055817BA
:10526000470736076CF0009149050093400500910F
:105270004A050093410500914B05009342051EC06D
:10528000009149050093400500914A0500934105AE
:1052900000914B05009342056091400570914105D6
:1052A00080914205552744273327581B470B360B5F
:1052B000309340054093410550934205309143059A
:1052C000409144055091450560914005709141051C
:1052D0008091420558174707360764F4009140054E
:1052E0000093430500914105009344050091420558
:1052F00000934505109143052091440530914505E3
:10530000409148065091490660914A060E942A3C05
:1053100070934005809341052092420530914506E7
:1053200040914606509147066091400570914105B5
:1053300080914205581B470B360B30934206409331
:105340004306509344063CF400E000934206009369
:105350004306009344060E948C3730915E054091CD
:105360005F055091600560916705709168058091B7
:105370006905581B470B360B30935E0540935F055C
:10538000509360053091610540916205509163052D
:1053900060916A0570916B0580916C05581B470BF5
:1053A000360B30936105409362055093630530914D
:1053B0006405409165055091660560916D05709199
:1053C0006E0580916F05581B470B360B30936405B3
:1053D00040936505509366053091760540917705B9
:1053E0005091780560917F057091800580918105CD
:1053F000581B470B360B3093760540937705509337
:1054000078053091790540917A0550917B0560913E
:1054100082057091830580918405581B470B360BDC
:105420003093790540937A0550937B0530917C0544
:1054300040917D0550917E056091850570918605AE
:1054400080918705581B470B360B30937C054093A2
:105450007D0550937E05A6E7B5E0C6E7D5E0E5E714
:10546000F6E00E94143CA9E7B5E0C9E7D5E0E2E721
:10547000F6E00E94143C00E00093430500E0009336
:10548000440507E000934505309176054091770586
:1054900050917805609196067091970680919806D4
:1054A000581B470B360B3093A3054093A40550932C
:1054B000A5051091A3052091A4053091A505409163
:1054C000430550914405609145050E942A3C709324
:1054D000A3058093A4052092A505A6E9B6E0C6E938
:1054E000D6E0E3EAF5E00E94143C30917905409162
:1054F0007A0550917B056091990670919A0680918A
:105500009B06581B470B360B3093A3054093A4050D
:105510005093A5051091A3052091A4053091A505F0
:105520004091430550914405609145050E942A3CF5
:105530007093A3058093A4052092A505A9E9B6E080
:10554000C9E9D6E0E3EAF5E00E94143C30917C051D
:1055500040917D0550917E0560919C0670919D065D
:1055600080919E06581B470B360B3093A305409342
:10557000A4055093A5051091A3052091A405309191
:10558000A5054091430550914405609145050E9451
:105590002A3C7093A3058093A4052092A505ACE94D
:1055A000B6E0CCE9D6E0E3EAF5E00E94143C00E086
:1055B0000093400500E00093410503EB0093420592
:1055C0001091990620919A0630919B0640914005D2
:1055D00050914105609142050E942A3C7093570604
:1055E00080935806209259061091960620919706AE
:1055F00030919806409140055091410560914205D7
:105600000E942A3C70935A0680935B0620925C06A7
:1056100000915E050093700500915F050093710590
:105620000091600500937205009161050093730578
:105630000091620500937405009163050093750560
:1056400000E00093400504E10093410500E0009371
:10565000420530915A0640915B0650915C0660917C
:10566000400570914105809142055817470736075C
:105670000CF0DAC030915706409158065091590607
:105680006091400570914105809142055817470788
:1056900036070CF0C9C060914005709141058091BA
:1056A0004205552744273327581B470B360B3093A9
:1056B0004005409341055093420530915A06409170
:1056C0005B0650915C0660914005709141058091A8
:1056D00042055817470736070CF4A6C03091570605
:1056E00040915806509159066091400570914105CE
:1056F000809142055817470736070CF495C000E023
:10570000009340050CE30093410500E0009342053F
:1057100030919C0640919D0650919E0660914005F7
:1057200070914105809142055817470736070CF0E4
:105730007BC06091400570914105809142055527DD
:1057400044273327581B470B360B309340054093B3
:1057500041055093420530919C0640919D06509121
:105760009E06609140057091410580914205581751
:10577000470736070CF458C030918D0640918E06CD
:1057800050918F0660915706709158068091590686
:10579000581B470B360B30934005409341055093FF
:1057A000420560914005709141058091420502E0FB
:1057B0000E94213C6093400570934105809342050F
:1057C000A0E7B5E0C0E7D5E0E0E4F5E00E94143CD6
:1057D00030919006409191065091920660915A0640
:1057E00070915B0680915C06581B470B360B30931B
:1057F00040054093410550934205609140057091EA
:1058000041058091420502E00E94213C60934005E1
:105810007093410580934205A3E7B5E0C3E7D5E067
:10582000E0E4F5E00E94143C0E9435050E94110658
:105830000E94980600911B0700239AF400E0009351
:105840009A0500939B0500939C0500939D0500938A
:105850009E0500939F050093A0050093A10500936A
:10586000A20560914605709147058091480504E0C6
:105870000E94213C6093460570934705809348053C
:105880006091490570914A0580914B0504E00E94A2
:10589000213C6093490570934A0580934B056091C4
:1058A0004F05709150058091510504E00E94213C04
:1058B00060934F05709350058093510510914605F4
:1058C00020914705309148054091E5055091E60546
:1058D0006091E7050E942A3C709346058093470536
:1058E000209248051091490520914A0530914B05B9
:1058F0004091E8055091E9056091EA050E942A3C33
:105900007093490580934A0520924B0510914F05ED
:1059100020915005309151054091EB055091EC05D7
:105920006091ED050E942A3C70934F0580935005CD
:105930002092510510914C0520914D0530914E0556
:105940004091EE055091EF056091F0050E942A3CD0
:1059500070934C0580934D0520924E0500912007D1
:1059600000236AF10091210700230AF03EC1109143
:10597000460520914705309148054091F105509129
:10598000F2056091F3050E942A3C70939105809383
:105990009205209293051091490520914A05309176
:1059A0004B054091F1055091F2056091F3050E947D
:1059B0002A3C7093940580939505209296056091FA
:1059C00046057091470580914805552744273327A0
:1059D000581B470B360B30934605409347055093B1
:1059E000480560914605709147058091480501E0A2
:1059F0000E94213C609346057093470580934805BB
:105A000030918D0640918E0650918F06609146052B
:105A10007091470580914805581B470B360B309312
:105A2000A3054093A4055093A5056091A30570912B
:105A3000A4058091A50504E00E94213C6093A30584
:105A40007093A4058093A5051091A3052091A4054A
:105A50003091A5054091420650914306609144065D
:105A60000E942A3C70936006809361062092620631
:105A700000914B0600935D0600914C0600935E0674
:105A800000914D0600935F0688D200916006009356
:105A90004605009161060093470500916206009358
:105AA000480560914605709147058091480501E0E1
:105AB0000E94213C609346057093470580934805FA
:105AC0006091490570914A0580914B0555274427FF
:105AD0003327581B470B360B3093490540934A0533
