:020000020000FC
:100000000C943F000C943E000C943E000C943E0077
:100010000C943E000C943E000C943E000C943E0068
:100020000C943E000C943E000C943E000C946932FB
:100030000C943E000C941A300C944D300C943E00FD
:100040000C943E000C943E000C943E000C943E0038
:100050000C943B340C943E000C943E000C943E00F7
:100060000C943E000C943E000C943E000C943E0018
:100070000C943E000C943E000C943E0018950FEF3B
:100080000DBF08E00EBF0027009331070E94CC0788
:100090000E941F0C0E943A3A0E946C3A0E943A3A1F
:1000A0000E949F1300E000930A0700E000930B07F3
:1000B00000E000930C0700E000930D0703E00093BD
:1000C0008E050FEF00938F0500E00093900501E08F
:1000D00000938A060EE800938B0600E000938C06DE
:1000E000002700933E0700933F07009340070093CB
:1000F000140700931B07AFEAA0932307A2E0A09385
:100100002407A1E0A0932C07A0932607009354078F
:1001100000937207009367070093680700936907CD
:1001200000935707E5E5F7E0E0936507F09366076E
:1001300000E4009337070E9475150E940708789421
:10014000E1E7F0E00E941F3C002371F00E941B13C6
:100150000091310700238AF003B1009502950F70DA
:1001600061F00E942A1209C00FEF009331070E942C
:10017000D93B083011F40E94260C0E94981A06E020
:1001800006BB0E94F72F0E9457340E947E070E94F0
:10019000B4190E940E0B0E94D2230E94C8280E940C
:1001A000D30C0E9494270E944F020E9461080E9473
:1001B000260A0E9459300090170710901807012452
:1001C00000922E0700912E07002332F40E94DB0AD2
:1001D000009117070093180700911D0700232AF4C8
:1001E000002700931D070E94F317009117070023B3
:1001F0000AF4C7CF03B100950295017021F40027DE
:1002000000933107BECF009131070023DAF300E0FD
:1002100000936F000E94730929980E941F320E9468
:1002200016360E945732A9CF0E943A1E0E944520DE
:1002300000910F07007C09F01ED10E947D3A05E075
:10024000E4EAF3E00E94F13801E00093050728E4B6
:10025000E6E9F0E007D106D105D104D120930407E7
:100260000E94A438E2EAF0E00E94033C00933C07BD
:100270000170EAEBF3E00E94E83800E00093040725
:1002800009E300930507E6E3F6E70E940739E0E497
:10029000F6E70E940739E0EEF3E004E0019FE00D8D
:1002A000F11D0E940C380E943A3A0E94EE3B083041
:1002B00009F40895043011F422D0BFCF023029F49C
:1002C000139515300CF01127B8CF0130E9F7143031
:1002D00051F4A0913C07A095A0933C07E2EAF0E01E
:1002E0000E94073CAACFE6E9F0E002E0019FE00DA2
:1002F000F11DC8EDDCEDA8E2B3E2A3D09ECF11273B
:1003000024E50E947D3A02E0ECEDF3E00E94F13832
:1003100001E000930507EEE9F0E0A4D0A3D00E942D
:10032000B038E4EFF3E004E0019FE00DF11D0E941E
:100330000C380E943A3A0E94EE3B083011F4112723
:100340000895043019F41A951170DBCF0230D9F3F7
:100350000130D9F7EEE9F0E002E0019FE00DF11D78
:10036000C8E1DCEFA8EEB3E06CD0CBCF526F6C6C81
:10037000204761696E00526F6C6C204F6666736532
:1003800074005069746368204761696E00005069A9
:10039000746368204F666673657400004D69786900
:1003A0006E6700006C03760382038E039C034E6F1E
:1003B0006E650000446966660000AE03B403486FD2
:1003C0006D6520506F7320526F6C6C00486F6D65C7
:1003D00020506F732050697463680000BE03CC0323
:1003E00053007309530973125312731B531B732465
:1003F0005324732D5F007F095F097F124F7574705E
:100400007574207479706520697320736574207425
:100410006F0045534320666F72204D3720616E6434
:100420002F6F72204D382E00436865636B204D6935
:1004300078657220456469746F722E00FC031204A3
:100440002804EF93FF93AF93BF930E94F53BFF9176
:10045000EF910E94A325A02DB12DFF91EF910E9455
:10046000FC3B0895209304070E94A4380E94F53BAA
:100470000E94853808950E948B3A0E94953803E0C7
:10048000ECE3F4E00E94F1380E94CC380E943A3A42
:100490000E94EE3B0130E1F70E94EA3B089500E044
:1004A00000934005009341050093420530919F065B
:1004B0004091A0065091A1066091400570914105C0
:1004C0008091420558174707360709F011C030914F
:1004D000A5064091A6065091A7066091400570912F
:1004E00041058091420558174707360709F40895DA
:1004F00000914007002369F000E000935505009348
:10050000560500935705009358050093590500932D
:100510005A0500912C07023029F50091B40600938A
:1005200055050091B506009356050091B606009357
:1005300057050091B106009358050091B20600934B
:1005400059050091B30600935A0500E00093AE06EA
:100550000093AF060093B0060093AB060093AC0681
:100560000093AD06A5E5B5E0C5E5D5E0E8EAF6E01F
:100570000E94333CA8E5B5E0C8E5D5E0E2EAF6E044
:100580000E94333C03E00093400508EE00934105D0
:1005900000E000934205A5E5B5E0C5E5D5E0E0E45F
:1005A000F5E00E94333CA8E5B5E0C8E5D5E0E0E41D
:1005B000F5E00E94333C00E00093400502E0009328
:1005C000410500E80093420510915505209156051C
:1005D0003091570540914005509141056091420589
:1005E0000E94493C7093BA068093BB062092BC06D9
:1005F000109158052091590530915A0540914005B8
:1006000050914105609142050E94493C7093B706A4
:100610008093B8062092B90600912C07013041F56D
:1006200010918D0620918E0630918F0640919F0685
:100630005091A0066091A1060E94493C7093AB06C0
:100640008093AC062092AD06109190062091910601
:10065000309192064091A5065091A6066091A7069A
:100660000E94493C7093AE068093AF062092B0067C
:1006700000913C0700230AF078C00091AB0600937C
:1006800040050091AC06009341050091AD06009332
:1006900042053091AB064091AC065091AD06609199
:1006A000AE067091AF068091B006581B470B360B13
:1006B0003093AB064093AC065093AD06AEEAB6E07D
:1006C000CEEAD6E0E0E4F5E00E94333C0091B706C4
:1006D000009340050091B806009341050091B906CA
:1006E000009342053091B7064091B8065091B90683
:1006F0006091BA067091BB068091BC06581B470BEF
:10070000360B3093B7064093B8065093B906AAEB60
:10071000B6E0CAEBD6E0E0E4F5E00E94333C09E045
:100720000093400504EC0093410500E0009342056E
:10073000A7EBB6E0C7EBD6E0E0E4F5E00E94333C7F
:100740003091BA064091BB065091BC0660914005BD
:100750007091410580914205581B470B360B309331
:10076000BA064093BB065093BC06ACE0B6E0CBEAB9
:10077000D6E0E7EBF6E00E94333CAFE0B6E0CEEA2D
:10078000D6E0EAEBF6E00E94333C00910C060093C1
:100790003C0600910D0600933D0600910E06009365
:1007A0003E0600910F0600933F060091100600934D
:1007B0004006009111060093410608950091C60677
:1007C0000093CA060091C7060093CB060091C806A5
:1007D0000093CC060091C9060093CD0608952090A1
:1007E000C6063090C7064090C8065090C906609073
:1007F000C6067090C7068090C8069090C9060E94F1
:10080000BA3C1093EA062093EB063093EC06409333
:10081000ED065091EA066091EB067091EC0680912E
:10082000ED0601E00E94263D5093EA066093EB0638
:100830007093EC068093ED0601E00093EE0600E075
:100840000093EF0600E00093F00600E00093F1064D
:100850001091EE062091EF063091F0064091F106DE
:100860005091EA066091EB067091EC068091ED06DE
:10087000481B370B260B150B1093CE062093CF0683
:100880003093D0064093D1060895B093C606A09346
:10089000C706D093C806C093C90603E00093EA06D2
:1008A00007E00093EB060EEA0093EC0600E00093ED
:1008B000ED062090C6063090C7064090C8065090BE
:1008C000C9066090EA067090EB068090EC06909066
:1008D000ED060E94BA3C1093C6062093C7063093DB
:1008E000C8064093C9060895CD2FDA2FAB2FBB233E
:1008F00012F4BFEF0895BB27089560DF70DF2090EA
:10090000E2063090E3064090E4065090E5066090E1
:10091000CE067090CF068090D0069090D1060E94AF
:10092000BA3C1093FA062093FB063093FC064093E2
:10093000FD062090E6063090E7064090E8065090CD
:10094000E9066090CA067090CB068090CC06909025
:10095000CD060E94BA3C1093EA062093EB06309332
:10096000EC064093ED061091FA062091FB063091BB
:10097000FC064091FD065091EA066091EB067091ED
:10098000EC068091ED06481B370B260B150B1093D8
:10099000FA062093FB063093FC064093FD06209058
:1009A000E2063090E3064090E4065090E506609041
:1009B000CA067090CB068090CC069090CD060E941F
:1009C000BA3C1093FE062093FF0630930007409335
:1009D00001072090E6063090E7064090E806509028
:1009E000E9066090CE067090CF068090D006909079
:1009F000D1060E94BA3C1093EA062093EB0630938E
:100A0000EC064093ED061091FE062091FF06309112
:100A10000007409101075091EA066091EB06709142
:100A2000EC068091ED06480F371F261F151F109307
:100A3000FE062093FF0630930007409301070895B8
:100A4000B0917305A0917405D09175054DDF1DDF40
:100A50000091D6060093E2060091D7060093E306C4
:100A60000091D8060093E4060091D9060093E506AC
:100A70000091DA060093E6060091DB060093E70694
:100A80000091DC060093E8060091DD060093E9067C
:100A900034DF0091FA060093D6060091FB0600931E
:100AA000D7060091FC060093D8060091FD0600933E
:100AB000D9060091FE060093DA060091FF06009326
:100AC000DB06009100070093DC060091010700930C
:100AD000DD06B0917005A0917105D091720504DF1B
:100AE000D4DE0091D2060093E2060091D306009373
:100AF000E3060091D4060093E4060091D506009326
:100B0000E5060091DA060093E6060091DB06009305
:100B1000E7060091DC060093E8060091DD060093ED
:100B2000E906EBDE0091FA060093D2060091FB067F
:100B30000093D3060091FC060093D4060091FD06B5
:100B40000093D5060091FE060093DA060091FF0699
:100B50000093DB06009100070093DC06009101077B
:100B60000093DD06B0916405A0916505D0916605FE
:100B7000BBDE8BDE0091D2060093E2060091D30625
:100B80000093E3060091D4060093E4060091D50695
:100B90000093E5060091D6060093E6060091D7067D
:100BA0000093E7060091D8060093E8060091D90665
:100BB0000093E906A2DE0091FA060093D2060091A6
:100BC000FB060093D3060091FC060093D406009127
:100BD000FD060093D5060091FE060093D60600910F
:100BE000FF060093D706009100070093D8060091F6
:100BF00001070093D90608952090D2063090D306BD
:100C00004090D4065090D5066090D2067090D306DE
:100C10008090D4069090D5060E94BA3C1093EA06C4
:100C20002093EB063093EC064093ED062090D60619
:100C30003090D7064090D8065090D9066090D606DE
:100C40007090D7068090D8069090D9060E94BA3C42
:100C50001093EE062093EF063093F0064093F106D2
:100C60001091EA062091EB063091EC064091ED06DA
:100C70005091EE066091EF067091F0068091F106BA
:100C8000480F371F261F151F1093EA062093EB0607
:100C90003093EC064093ED062090DA063090DB06A8
:100CA0004090DC065090DD066090DA067090DB061E
:100CB0008090DC069090DD060E94BA3C1093EE0610
:100CC0002093EF063093F0064093F1061091EA0668
:100CD0002091EB063091EC064091ED065091EE0626
:100CE0006091EF067091F0068091F106480F371F72
:100CF000261F151F1093DE062093DF063093E006B3
:100D00004093E10608950091D2060093F606009103
:100D1000D3060093F7060091D4060093F8060091DD
:100D2000D5060093F9062AD00091930600938D060C
:100D30000091940600938E060091950600938F060D
:100D40000091D6060093F6060091D7060093F706A9
:100D50000091D8060093F8060091D9060093F90691
:100D60000DD0009193060093900600919406009395
:100D70009106009195060093920608950AE5009366
:100D8000EE0600E00093EF0600E00093F00600E0BE
:100D90000093F1062090F6063090F7064090F80692
:100DA0005090F9066090EE067090EF068090F00685
:100DB0009090F1060E94BA3C1093EA062093EB064D
:100DC0003093EC064093ED06B091EA06A091EB0655
:100DD000D091EC06C091ED0687DDB0939306A09309
:100DE0009406D0939506089511270E947D3A05E058
:100DF000E2E8F7E70E94F13801E000930507BEE45E
:100E00000E94F53301E00093050720E3CAE6D7E02E
:100E1000EAEAF0E050D04FD04ED04DD04CD001E0B7
:100E20000093050726E647D046D045D00E94B0384B
:100E3000E6E9FEE004E0019FE00DF11D0E940C38A0
:100E40000E943A3A0E94EE3B083011F448D00895CF
:100E5000043019F41A951770C8CF023011F41395A5
:100E6000FACF0130B9F4EAEAF0E0BB27E10FFB1F4B
:100E7000EF93FF930E94033CAA95A770A395C1E04E
:100E8000D0E0E8E0F0E00E94A325A02DFF91EF91D3
:100E90000E94073CAACF3B0043093B0943123B1287
:100EA000431B3B1B43243B24432D710079097109EB
:100EB00079127112791B209304070E94A4380E94B2
:100EC000033C0A950993087F31F00DE20E940D3929
:100ED0000E9486380895BB270E9485380895CAE687
:100EE000D7E0B8E0A881A87F29F00091370700611A
:100EF000009337072196BA95A9F7089500915407F2
:100F000000950074A0913707AF7B0A2B0093370739
:100F100008953C3A473A0000506C65617365207350
:100F20007570706C79205361740064617461207411
:100F30006F20746865207468726F74746C6500004B
:100F4000696E70757420636F6E6E6563746F722E58
:100F50000000180F2A0F400F0E948B3A06E1009301
:100F6000040703E40E940D3904E40E940D390AE3EA
:100F700000930407E2E1FFE00E948D3803E0E2E520
:100F8000FFE00E94F1380E94BE380E943A3A0E9467
:100F9000EE3B0830E1F7089500E001B90AE004B93A
:100FA0000FEF07B902EF0AB90FEF00937E0005EFCC
:100FB00005B90DE00BB9ACE3B0E00E94C63B0E945E
:100FC000D93B063051F4A3E003EF0AB90E94313D4A
:100FD00002EF0AB90FEF0093310700E000938000A1
:100FE00002E00093810000E0009382005D9A5C9A29
:100FF0005E982B9A299AA4EFB1E00E94C63B2B98E9
:1010000029985E9AA4E6B0E00E94C63B08950027A6
:101010000093C0000093C5000AE00093C40000E9FB
:101020000093C10006E00093C20008950E948B3A2D
:1010300006E100930407EAE5F0E10E948D3804E040
:10104000EAE8F0E10E94F1380E94BE380E943A3A84
:101050000E94EE3B0830E1F70895483D4546404484
:1010600043004B4B322E302076312E362B2B205323
:1010700061742052340044534D32202831302062B4
:10108000697429206F6E6C792E00621076109C674F
:101090005276EEEAF0E10E94B43A013009F0089588
:1010A0000027E0E0F0E00E94273C0C943F005265EE
:1010B00073657420616C6C2073657474696E6773FA
:1010C0002E0000E000934005009341050093420587
:1010D00030916F0640917006509171066091400505
:1010E000709141058091420558174707360759F01E
:1010F00030916F06409170064150304030936F063A
:101100004093700603C000270093360700913B0709
:1011100000236AF4009123070A9500932307002314
:1011200031F4002700933B07AFEAA0932307009018
:10113000170710901907012000922E0700912E0723
:10114000002322F500912107002302F130916C0663
:1011500040916D064150304030936C0640936D06CF
:10116000ACF403E000936C0600E200936D0600E02F
:1011700000936E060FEF0093360700E000936F06B2
:1011800004E10093700600E00093710600901707D9
:1011900010901807012400922E0700912E070023BB
:1011A0003AF400E0009381060093820600938306E0
:1011B00000E00093400500E00093410501E000934A
:1011C0004205A1E8B6E0C1E8D6E0E0E4F5E00E941F
:1011D000333C0DE70093400500E00093410500E03B
:1011E000009342053091810640918206509183061A
:1011F000609140057091410580914205581747075D
:10120000360764F000914005009381060091410586
:101210000093820600914205009383060091210706
:10122000002322F000912007002372F4009122078E
:10123000002319F10A950093220700E00093840629
:1012400000938506009386060AE0009340050CEFA4
:101250000093410500E800934205309181064091DA
:1012600082065091830660914005709141058091FE
:10127000420558174707360704F13091840640911C
:101280008506415030403093840640938506ACF487
:1012900007E00093840600ED0093850600E00093CC
:1012A00086060FEF0093360701E000936F0600E912
:1012B0000093700600E000937106009036071090CE
:1012C0003507012800922E0700902E0710903B074B
:1012D000012800922E0700912E07002312F0299872
:1012E0000895299A08950F93EF93FF93E2E9F0E0B0
:1012F0000E941F3CFF91EF91002312F00F9108957F
:10130000CF93299AC2E30E94CB3B2998CF910F91AA
:101310000895402F2A2F3B2F0E946C3A01E0009342
:10132000080704E000930907203049F00AE300931E
:10133000040700E00093050700E00E940D39022F2A
:101340000B5F041749F00AE30093040702E30093DC
:10135000050701E00E940D3901E00093090708E04C
:101360000093050715E0FE0104E1029FE00DF11D69
:1013700000E000930407A4E105910E940D39AA95AD
:10138000D9F70090050708E0000E009205071A95AE
:1013900079F708E0039F002D095F00930507075FB9
:1013A0000093070700E0009304070FE70093060788
:1013B00000E0009308070E94FA3700E0009304075A
:1013C00009E300930507EAEFF5E70E9407390E9459
:1013D0003A3AAEE10E94D93B003021F00970D1F7D2
:1013E000AA95C1F70E94EF3B083019F4AA27889408
:1013F00029C0043061F4303019F03A950C94250A74
:10140000203019F02A950C94250A0C94250A0230F4
:1014100071F4343019F033950C94250A042F0550DB
:10142000201719F023950C94250A0C94250A0130F5
:1014300061F40E946C3A0E943A3A0E94EA3BA22F61
:10144000A30F0894C22FD32F089566CF309188053B
:101450004091890550918A0560918E0570918F05A4
:101460008091900558174707360764F40091880566
:1014700000938E050091890500938F0500918A05E0
:1014800000939005309188054091890550918A0517
:1014900060918B0570918C0580918D05581B470BD1
:1014A000360B3093A3054093A4055093A505609196
:1014B000A3057091A4058091A50508E00E94403C19
:1014C0006093A3057093A4058093A505ABE8B5E0F0
:1014D000CBE8D5E0E3EAF5E00E94333C30915406D6
:1014E000409155065091560660918B0570918C0580
:1014F00080918D05581B470B360B3093A305409305
:10150000A4055093A5050AF44FC06091A3057091FE
:10151000A4058091A50502E00E94403C6093A305CC
:101520007093A4058093A50500E00093400500E1B9
:101530000093410500E0009342053091A3054091DE
:10154000A4055091A50560914005709141058091D9
:10155000420558174707360764F00091400500938D
:10156000A305009141050093A40500914205009355
:10157000A505A3E6B6E0C3E6D6E0E3EAF5E00E94FF
:10158000333CB0916306A0916406D0916506AA230E
:101590005AF000913407002351F00A950093340764
:1015A0000FEF00933507089504E6009334070027F2
:1015B00000933507089500E00093430501E0009390
:1015C000440508E300934505109154062091550603
:1015D0003091560640914305509144056091450570
:1015E0000E94493C7093400580934105209242053A
:1015F0003091400540914105509142056091880528
:101600007091890580918A055817470736072CF491
:101610000091370700680093370708950091170776
:101620000023CAF03091870640918806415030402F
:1016300030938706409388060CF054C00FEF009358
:101640001D0701E00093870600E90093880600E08B
:101650000093890647C00091190700230AF13091D1
:101660008A0640918B064150304030938A06409361
:101670008B06B1F401E000938A060EE800938B0616
:1016800000E000938C06A0913E07A395AC3331F4A3
:10169000B0913F07B395B0933F07AA27A0933E07A9
:1016A000009137070023F1F000911B07002311F090
:1016B000AAF00EC008E22B9AE0911C07EA95E0938D
:1016C0001C0771F4E0913707EF77E093370708C004
:1016D0000A9509F005C004EC2B9802C0039551F35C
:1016E00000931B0700912407A09125070A1709F40E
:1016F00038C000932507A7E2B7E0A00F08F4B39520
:10170000002700931E0700931F07009320070C91EA
:10171000A0912607009326070A1719F0AFEFA093B0
:101720003B070023F1F0033039F40FEF009320075B
:101730000FEF0093220712C0023081F40FEF0093E5
:101740001E0700914506009342060091460600934D
:101750004306009147060093440603C0AFEFA093F1
:101760001F0700913507002322F00091170700237F
:1017700012F02B98089500913707002309F42B9A53
:1017800008950E948B3A0EE200930407E4E1F8E129
:101790000E948D3800E0009304070AE100930507DA
:1017A000E8E1F8E10E940739BB27A0913D07DD275A
:1017B0000E94443800E00093040709E30093050702
:1017C000E8E2F8E10E9407390E943A3A0E94EE3BB3
:1017D000083011F434D00895043041F400913D07ED
:1017E0000E32BCF4039500933D07CBCF023041F499
:1017F00000913D0709316CF00A9500933D07C1CF78
:10180000013039F4A0913D07E0E7F0E00E94073C89
:101810000895B7CF413B3C004C434420636F6E7446
:10182000726173743A2000004241434B20205550AE
:10183000202020444F574E20205341564500E0E7DA
:10184000F0E00E941F3C00933D07089504E20093DE
:101850003D07E0E7F0E00E94273C0895112722278A
:101860001F932F930E9457342F911F910091690766
:10187000033041F0C9E10E94CB3B009154070023A3
:101880000AF43AC00E947D3A00270F93A0912407E2
:101890000A1711F400E401C000E20E940D390F9113
:1018A0000F93EAE6F7E70E94E83800E000930407A8
:1018B0000E9486380F910395053039F701E00093B7
:1018C00005070091270757D00091280754D00091B1
:1018D000290751D000912A074ED000912B074BD0F9
:1018E0000E94B038E2E9F9E104E0019FE00DF11D4A
:1018F0000E940C380E943A3A0E94D93B0830D1F439
:10190000222309F40895A0912707E4EAF0E00E9459
:10191000073CA09128070E94073CA09129070E943C
:10192000073CA0912A070E94073CA0912B070E9428
:10193000073C0895043041F41A950AF414E00E941B
:1019400073090E94EA3B8CCF023029F413951530BD
:10195000B1F71127F4CF013069F42FEFA7E2B7E018
:10196000A10F08F4B3950C91039504300CF00027F7
:101970000C93E5CF75CF0F9304E2009304070E9408
:10198000A4380F91E4E7F7E70E94E8380E94863810
:1019900008952F007F092F097F122F127F1B2F1B05
:1019A0007F242F247F2D10919C0620919D0630913D
:1019B0009E0640914E0650914F06609150060E943F
:1019C000493C709340058093410520924205009167
:1019D000510600934305009152060093440500917F
:1019E00053060093450530914005409141055091C3
:1019F0004205609143057091440580914505581753
:101A00004707360764F000914305009340050091B5
:101A100044050093410500914505009342056091FE
:101A20004305709144058091450555274427332788
:101A3000581B470B360B3093430540934405509396
:101A40004505309140054091410550914205609116
:101A5000430570914405809145055817470736079F
:101A600064F4009143050093400500914405009300
:101A70004105009145050093420530914C05409188
:101A80004D0550914E056091400570914105809142
:101A90004205581B470B360B30934C0540934D05C0
:101AA00050934E050895CAE7DBE1A0910D07B09170
:101AB0000C0704E10E948909C0930D07D0930C071D
:101AC00008F00895E6E6FBE10E94B43A013009F01F
:101AD000EACF0E945732299AE8EBFDE108E10A9F1C
:101AE000E00DF11DDF017096C3E7D7E018E0059126
:101AF00009931A95E1F7FD01C4E0D0E03327A591E1
:101B0000B591EF93FF93FD0116E0A3E7B7E0A30FB4
:101B10000027B01F4C91BF91AF912591042F007801
:101B200009F02195042F087009F02FEF022FEF9391
:101B3000FF93FE010E94273C2196FF91EF91440FF5
:101B40001A9559F72296FD0133953830C4F20FEFFC
:101B5000A02FE3EBF0E00E94073C29980E941F327F
:101B60000E945610A0CF4C6F6164206D6F746F722D
:101B7000206C61796F75742E000053696E676C6517
:101B8000436F7074657220314D20345320205369A7
:101B90006E676C65436F7074657220324D203253EE
:101BA00020204475616C436F707465722049492030
:101BB000202020202020547269436F7074657220A9
:101BC0004949202020202020202051756164726F17
:101BD000436F707465722078206D6F646520517555
:101BE0006164726F436F70746572202B206D6F6437
:101BF0006520562D5461696C202020202020202053
:101C0000202020202020562D5461696C2048756EBC
:101C1000746572202020202020205934202020208C
:101C20002020202020202020202020202020486547
:101C30007861436F7074657220202078206D6F6426
:101C4000652048657861436F707465722020202B91
:101C5000206D6F6465204836202020202020202021
:101C60002020202020202020202056362020202028
:101C70002020202020202020202020202020593615
:101C80002020202020202020202020202020202054
:101C900020204F63746F436F70746572202020782A
:101CA000206D6F6465204F63746F436F707465724D
:101CB0002020202B206D6F646520483820202020B4
:101CC00020202020202020202020202020205638C6
:101CD0002020202020202020202020202020202004
:101CE000202058382020202020202020202020784C
:101CF000206D6F646520583820202020202020206F
:101D00002020202B206D6F64652000000000000063
:101D100000000064320000006400320000006464CF
:101D200000000000646432000064000032000064BF
:101D300000643200640000000003640000640003DB
:101D400064006400000364006464000364265C644F
:101D50000003642A47640003643257640003643D4F
:101D600018640003644700640003644718640003B8
:101D700064474700000364474764000364511864E4
:101D80000003645732000003645732640003645C4C
:101D900026640003646400000003646400640003BC
:101DA00064644764000378005A6400036464642830
:101DB00000035F0064640003341D2E1D221D2E1DD0
:101DC000221D0A1D0A1D0A1D0000004020000000FF
:101DD0003A1D3A1D281D161D0A1D0A1D0A1D0A1D41
:101DE0000010000000000000941D941D1C1D1C1D0F
:101DF0000A1D0A1D1C1D1C1D0140002000000020A2
:101E0000821D821D401D101D0A1D0A1D101D0A1D68
:101E10004001200000001000761D761D761D761D05
:101E20000A1D0A1D0A1D0A1D401020700000000036
:101E3000461D9A1D461D9A1D0A1D0A1D0A1D0A1DD2
:101E40000010205000000000701D701DA61DA61D72
:101E50000A1D0A1D0A1D0A1D400120300000000055
:101E6000AC1DAC1DB21DB21D0A1D0A1D0A1D0A1DA6
:101E70005000203000000000761D761D461D461DD6
:101E80000A1D0A1D0A1D0A1D401020300000000016
:101E9000581D9A1D581D581D9A1D581D0A1D0A1DB2
:101EA0000010207040500000461D881D881D461DF2
:101EB000881D881D0A1D0A1D00102030605000007A
:101EC000761D641D761D761D641D761D0A1D0A1D76
:101ED0000010207040500000A01D641D521D521DB6
:101EE000641DA01D0A1D0A1D001020704050000036
:101EF000881D881D881D881D461D461D0A1D0A1D3A
:101F000040500010203000004C1D8E1D8E1D4C1DB9
:101F10004C1D8E1D8E1D4C1D0010203060704050D9
:101F2000461D761D9A1D761D461D761D9A1D761D31
:101F30000010003020704050761D6A1D6A1D761D0D
:101F4000761D6A1D6A1D761D00102030607040509D
:101F5000A01D7C1D5E1D521D521D5E1D7C1DA01D01
:101F60000010203060704050761D761D761D761D65
:101F7000761D761D761D761D405000102030607055
:101F8000461D461D9A1D9A1D461D461D9A1D9A1DE9
:101F9000001000102030405011270E947D3A05E0CB
:101FA000EAE7F0E20E94F13801E000930507ECE770
:101FB000F0E005E00F9304E5009304070E94A438C5
:101FC0000E94F53B0E9485380F910A9599F70E946F
:101FD000B038E4E8F0E204E0019FE00DF11D0E945A
:101FE0000C380E943A3A0E94EE3B083009F40895FA
:101FF000043021F41A950AF414E0CFCF023029F40A
:102000001395153009F410E0C8CF0130F1F4ECE776
:10201000F0E002E0019FE00DF11DEF93FF930E94BD
:10202000F53BE8E9F0E204E0019FE00DF11DC59108
:10203000D59105901590E02DF12D0E94A325A02D9E
:10204000B12DFF91EF910E94FC3BA7CF414343206C
:102050005472696D20526F6C6C004143432054727E
:10206000696D2050697463680000534C204D697895
:10207000696E6720526174650000F276FA764C2032
:102080005A206A205F0079095F0979125F12791B73
:102090005F1B79245F24792D0000840300008403F2
:1020A0007CFC84037CFC840305003200E3EBF0E05D
:1020B0000E941F3C00231AF00E94592708950E9495
:1020C0003A1E44240E947D3AE2E1F4E20E9407397C
:1020D000442081F4EAE1F4E20E9407390FEF602E18
:1020E00008E0802E55240E94A21053948A948820E0
:1020F000D1F709C0542C5A94A42DBB270E94443810
:1021000066240E94A21001E00093090701E00093F9
:10211000080700E00093040709E300930507E6E2DF
:10212000F4E20E9407390E943A3A0E94EE3B0830DE
:1021300009F40895043029F4439409E0401609F4A1
:102140004424C0CFE0E0F5E008E0059DE00DF11D7E
:1021500001E0009308070FEF702EDD27A181BB2758
:10216000AA2312F4DFEFBFEFB093F405A093F505B7
:10217000D093F60500E000934005009341050093DD
:1021800042053091F4054091F5055091F6056091B6
:102190004005709141058091420558174707360761
:1021A00009F0772400E00093400500E0009341052A
:1021B00000E4009342051091F4052091F50530915B
:1021C000F6054091400550914105609142050E94FD
:1021D000493C7093F4058093F5052092F60500E0E4
:1021E0000093400500E60093410500E0009342059E
:1021F000EF93FF93A4EFB5E0C4EFD5E0E0E4F5E0A2
:102200000E94333CFF91EF91B091F405A091F50548
:10221000D091F605A0930407DD27A281BB27AA234E
:1022200012F4DFEFBFEFB093F405A093F505D09360
:10223000F60500E000934005009341050093420538
:102240003091F4054091F5055091F60560914005F7
:10225000709141058091420558174707360709F0EC
:1022600077240FEF009340050FEF0093410500EC3A
:10227000009342051091F4052091F5053091F60583
:102280004091400550914105609142050E94493CB2
:102290007093F4058093F5052092F60500E0009315
:1022A000400500E20093410500E000934205EF93F2
:1022B000FF93A4EFB5E0C4EFD5E0E0E4F5E00E94C1
:1022C000333CFF91EF91B091F405A091F505D091C9
:1022D000F605A0930507DD27A081BB27AA2312F4EA
:1022E000DFEFBFEFB093F405A093F505D093F605AB
:1022F00000E00093400500934105009342053091B2
:10230000F4054091F5055091F605609140057091F6
:1023100041058091420558174707360709F0772491
:10232000A381AA2309F07724772072F466200AF4A7
:10233000089502E4009304070BE100930507EAE027
:10234000F4E20E9407390895A581A0FD0DC0662022
:1023500052F002E4009304070BE100930507EEE15D
:10236000F4E20E940739089500E60093060700E2B0
:10237000009307070E948A390091040704500093D4
:1023800004070091050707500093050704E0009338
:10239000090702E0A381AA230AF003E00E940D3995
:1023A000009104070E50009304070090050705E014
:1023B000000E0092050700E00093090700E000937B
:1023C0000807052D0E940D3966200AF41DC001E0A2
:1023D0000093090701E0009308070FE00093050749
:1023E00003E0EF93FF93EEE4F4E20E94F138FF91F3
:1023F000EF9101E200930507A381AA231AF00E943E
:10240000AB3802C00E94A9380895556E7573656493
:102410002E004D6F746F723A2000414C4C00536592
:1024200072766F2E00004241434B20204E45585497
:102430000000446972656374696F6E007365656E50
:102440002066726F6D0061626F76653A000032241B
:102450003C2446240FEF00933107002700933A07EE
:102460000E947D3A03E100930407E2E7F6E20E944E
:10247000073900E00093040704E100930507009189
:102480003107002392F002E0ECECF6E20E94F13812
:1024900000E00093040709E300930507E2E8F6E291
:1024A0000E9407390E943A3A2EC002E0E8ECF6E2B8
:1024B0000E94F1380E943A3A00E000930E0700E0D3
:1024C00000930F0701E00093110708E00093100745
:1024D0000FEF0093170700E00093690601E00093F7
:1024E0006A0600E000936B062B9A06E006BB03E148
:1024F0000093400508E80093410500E00093420581
:102500000027009319070E94F72F009140050093C0
:10251000FA05009141050093FB05009142050093E7
:10252000FC05009140050093FD05009141050093D5
:10253000FE05009142050093FF05009140050093C0
:1025400000060091410500930106009142050093A9
:102550000206009140050093030600914105009397
:102560000406009142050093050600914005009382
:10257000060600914105009307060091420500936D
:10258000080600914005009309060091410500935B
:102590000A060091420500930B0600914005009346
:1025A0000C060091410500930D0600914205009331
:1025B0000E060091400500930F060091410500931F
:1025C000100600914205009311060E94593003B194
:1025D000009502950F700F930091310700236AF464
:1025E0000F910023B9F003E10093400508E8009340
:1025F000410500E00093420586CF0F910830B9F005
:1026000000E00093400504E60093410500E00093DC
:10261000420579CF00E00093400504E600934105B0
:1026200000E00093420500270093310719CF2B9853
:102630000E9473090895AA27E1E7F0E00E94073C91
:102640000895E2E2F7E20E94B43A013009F00895F9
:102650000E948B3A0E94953804E0E6E3F7E20E947C
:10266000F1380E943A3AAFEFE1E7F0E00E94073C10
:10267000FFCF4553432043414C4942524154494FB7
:102680004E0045584954000052656C6561736520E1
:10269000627574746F6E20617420746865004553B0
:1026A0004320636F6E6669726D6174696F6E20623C
:1026B000656570005761697420666F722074686583
:1026C0002066696E616C000088269E26B4269E26D0
:1026D0004553432063616C6962726174696F6E2057
:1026E00077696C6C0000626520617661696C61627B
:1026F0006C65206F6E20746865006E657874207359
:10270000746172742D7570206F6E6C792E00524555
:102710004D4F56452050524F505320464952535426
:102720002100446F204553432063616C69627261EC
:1027300074696F6E2E00D026E626FA260E27A0E0DA
:10274000B0E0CAE0D8E214E0FE0104910F93FD016D
:102750000E941F3CEF910E1761F4119621961A9575
:1027600099F7E4EBF0E00E941F3C00230AF059D0F7
:10277000089505D00E941B130E94260CF8CFE4E0B8
:10278000F0E0A0E0B0E010E40E94073C1A95E1F709
:10279000A4E4B0E0CEEAD7E218E139D0A2E7B0E095
:1027A00014E435D0A0E0B0E014E031D00895320058
:1027B0006400190014003200640019001400320093
:1027C000140032000A001E001E0032005A0064008D
:1027D0003C001400000000000A000A0000001E0077
:1027E00000003200FFFFFFFF0000000000000000BB
:1027F00000000000000000000003010302000203CB
:1028000001040506070800000002190373D4FE0145
:102810000491FD010E94273C119621961A95B9F763
:1028200008950E948B3A00E100930407EEE5F8E278
:102830000E948D3804E0E8EBF8E20E94F1380E9433
:10284000CC380E943A3A0E94EE3B0130E1F70FEF9C
:10285000E4EBF0E00E94273C0E94EA3B0895453DEE
:102860004240433C3D450000594F552055534520BB
:1028700054484953204649524D574152450041540E
:1028800020594F5552204F574E205249534B21004B
:102890005265616420616C6C20696E636C7564655F
:1028A0006400646F63756D656E7473206361726537
:1028B00066756C6C792E000068287E289028A22806
:1028C0000E947D3A06E0EEE2FCE20E94F1380E94AE
:1028D000DA380E943A3A0E94EE3B0130E1F7A5E374
:1028E0000E948B3A0AE30093040706E10093050770
:1028F0000A2F0E940D390E943A3AD4E6C4E60E949B
:10290000CB3BDA95D9F7AA95AF3209F0E9CF0E940F
:102910007D3A09E10093040709E100930507EAE322
:10292000FCE20E9407390E943A3AC0E00E94CB3B89
:10293000E0E100E000937F050093800500938105AE
:102940000093820500938305009384050093850519
:1029500000938605009387050E94AB37EF93AFE79E
:10296000B5E0CFE7D5E0E6E7F5E00E94333CA2E82A
:10297000B5E0C2E8D5E0E9E7F5E00E94333CA5E820
:10298000B5E0C5E8D5E0ECE7F5E00E94333CEF9117
:10299000C4E60E94CB3BEA9509F0DECF60917F054B
:1029A000709180058091810504E00E94403C609315
:1029B0007F057093800580938105609182057091F9
:1029C00083058091840504E00E94403C6093820569
:1029D00070938305809384056091850570918605C9
:1029E0008091870504E00E94403C609385057093C8
:1029F000860580938705D8E2C0E00E94CB3BDA953C
:102A0000D9F70FEF00932D070E947D3A0AE000935B
:102A1000050703E0E8E7FCE20E94F1380AE00093D2
:102A20000507B0917F05A0918005D09181050E9496
:102A30007E37B0918205A0918305D09184050E94D4
:102A40007E37B0918505A0918605D09187050E94BB
:102A50007E370E94DA380E943A3A00912D0700230F
:102A60000AF5EDE5F0E0B0917F05A0918005D091E9
:102A700081050E94153CB0918205A0918305D091FB
:102A800084050E94153CB0918505A0918605D091E2
:102A900087050E94153CE2EBF0E00FEF002F0E944B
:102AA000273C0AC0E2EBF0E000270E94273C00919F
:102AB00037070260009337070E94EE3B0130E1F7D1
:102AC0000E947D3A09E10093050700912D070170EE
:102AD000E4E7FCE20E94E8380E94DA380E943A3AC1
:102AE0000E94EE3B0130E1F70895E0E100E0009341
:102AF0006705009368050093690500936A050093D4
:102B00006B0500936C0500936D0500936E050093B3
:102B10006F050E94AB37EF93A7E6B5E0C7E6D5E0B7
:102B2000EEE5F5E00E94333CAAE6B5E0CAE6D5E062
:102B3000E1E6F5E00E94333CADE6B5E0CDE6D5E058
:102B4000E4E6F5E00E94333CEF91C4E60E94CB3B03
:102B5000EA9509F0DECF6091670570916805809174
:102B6000690504E00E94403C609367057093680526
:102B70008093690560916A0570916B0580916C0581
:102B800004E00E94403C60936A0570936B0580935B
:102B90006C0560916D0570916E0580916F0504E084
:102BA0000E94403C60936D0570936E0580936F05A5
:102BB0000895506C61636520746865206169726373
:102BC00072616674206F6E0061206C6576656C20A2
:102BD0007375726661636520616E640070726573FF
:102BE0007320434F4E54494E55452E00546865207E
:102BF00046432077696C6C207468656E2077616944
:102C0000740061206665772073656320746F206CA3
:102C1000657420746865000061697263726166742E
:102C200020736574746C6520646F776E2E00B22B10
:102C3000C82BDC2BEC2B022C182C43616C696272C4
:102C40006174696E672E2E2E000043616C6962729A
:102C50006174696F6E206661696C65642E00436102
:102C60006C6962726174696F6E2073756363656508
:102C7000646564004A2C5E2C266F2E6F366F112718
:102C8000209112070E947D3A05E0EEE9FDE20E94E4
:102C9000F13801E000930507E0E9F0E04BD04AD0BD
:102CA00049D048D047D00E94B038E8EAFDE204E0BD
:102CB000019FE00DF11D0E940C380E943A3A0E94DB
:102CC000EE3B0830B1F40E94592020178CF4E4E464
:102CD000F0E0CCE4D0E014E00E94F53BEF93FF93EA
:102CE000FE010E94FC3BEF01FF91EF911A95A1F7C5
:102CF0000895043029F41A950CF0C4CF14E0C2CF23
:102D0000023031F41395153009F0BCCF1127BACF3A
:102D1000013079F40E945732E0E9F0E001E0019FD0
:102D2000E00DF11D0E941F3C00950E94273C0E946F
:102D30001F32A8CF0AE5009304070E94A4380E941E
:102D4000033C0A2F0170EF93FF93E0E5F7E70E9441
:102D5000E838FF91EF910E94863808954C696E6BB8
:102D600020526F6C6C205069746368004175746FF9
:102D70002044697361726D00427574746F6E2042F5
:102D80006565700041726D696E672042656570739C
:102D900000005175696574204553437300005C2D34
:102DA0006C2D782D842D922D64007A0964097A1295
:102DB00064127A1B641B7A2464247A2D11270E94E2
:102DC0007D3A05E0E0EDFEE20E94F13801E000937B
:102DD0000507E6E8F0E005E00F930CE60093040732
:102DE0000E94F53B0E9485380F910A95A9F70E9431
:102DF000B038EAEDFEE204E0019FE00DF11D0E9413
:102E00000C380E943A3A0E94EE3B083009F40895CB
:102E1000043021F41A950AF414E0D1CF023029F4D9
:102E20001395153009F410E0CACF0130F1F4E6E84B
:102E3000F0E002E0019FE00DF11DEF93FF930E948F
:102E4000F53BEEEEFEE204E0019FE00DF11DC591C1
:102E5000D59105901590E02DF12D0E94A325A02D70
:102E6000B12DFF91EF910E94FC3BA9CF4D696E6996
:102E70006D756D205468726F74746C653A20000033
:102E80004865696768742044616D70656E696E6736
:102E90003A20000048656967687420442E204C6918
:102EA0006D6974203A200000416C61726D20312FF1
:102EB000313020566F6C74733A200000536572767F
:102EC0006F2046696C746572202020203A20000033
:102ED0006C2E802E942EA82EBC2E6B007F096B09C1
:102EE0007F126B127F1B6B1B7F246B247F2D0000D6
:102EF00014000000F40100001E0000008403000024
:102F000064000E947D3A0027E2E7F0E00F93EF9320
:102F1000FF93E8ECFFE20E94E838FF91EF910E94F6
:102F2000F53B06E3009304070E94A4380E9485380D
:102F3000A091040700E0009304070F91039505306A
:102F400029F7A0930407009105070950009305078E
:102F500005E20E940D390E94B038E2EDFFE204E084
:102F6000019FE00DF11D0E940C380E943A3A0E9428
:102F7000EE3B083009F40895043021F41A950AF460
:102F800014E0BFCF023029F41395153009F410E096
:102F9000B8CF0130C1F4E2E7F0E002E0019FE00DBC
:102FA000F11D0E94F53BC0E0D0E0E4EFF1E00E94AB
:102FB000A325A02DB12DE2E7F0E002E0019FE00D96
:102FC000F11D0E94FC3B9DCFC276CA76D476DC769A
:102FD000987641005C0941095C1241125C1B411B5F
:102FE0005C2441245C2D0FEF00933A070E948B3A3A
:102FF000009117070023A2F402E20093040706E100
:1030000000930507E8E5F2E30E948D38E8E6F2E375
:103010000E940C380DE2009305070E949C388CC07A
:1030200006E200930407E2E5F2E30E948D3800E037
:103030000093040701E000930507A0913F07C091AA
:103040003E07F0D000E00093040701E1009305077C
:1030500079D1009137070F77A0911907A0950A2B16
:10306000D1F400914007002309F1EEE5F2E30E945C
:10307000073900914007013049F4A0911207AA23B3
:1030800029F0EAEBF6E70E94073910C0E4E5F7E71C
:103090000E94E8380BC00091380703950093380769
:1030A000017021F0ECE6F2E30E940C3800E000939E
:1030B00004070BE100930507E0E7F2E30E940739FC
:1030C000002700911E07002312F402E005C00091C2
:1030D0001F0700230AF401E0E4E7F7E70E94E8385D
:1030E00004E200930507EAE7F2E300918805009304
:1030F0004305009189050093440500918A050093DA
:10310000450520D0E4E8F2E300918E0500934305E5
:1031100000918F05009344050091900500934505AB
:103120000E94A21806E60093040709E3009305072E
:10313000ECE4F2E30E9407390E943A3A0027009338
:103140003A07089500E0009304070E94073900E061
:103150000093400506E00093410500EE0093420510
:10316000109143052091440530914505409140055B
:1031700050914105609142050E94493C7093400581
:103180008093410520924205609140057091410570
:103190008091420508E00E94403C60934005709396
:1031A000410580934205B0914005A0914105D09121
:1031B00042050E9444380EE20E940D39AD2FBB2714
:1031C000DD27B0934005A0934105D093420500E070
:1031D0000093430500E0009344050AE00093450591
:1031E00010914005209141053091420540914305E1
:1031F00050914405609145050E94493C70934005FB
:103200008093410520924205B0914005A09141056F
:10321000D09142050E94443806E50E940D390E9473
:1032200086380895AA301CF400E30E940D39BB27AC
:103230000E9444380AE30E940D39AC2FAA301CF4D6
:1032400000E30E940D390E94443808954D454E55C3
:103250000000463A3E3D00003A45423D3C002E20EB
:1032600054756E696E67200000137F2800107F1967
:103270004D6F64652020203A2000426174746572AD
:10328000793A20004C6F67676564203A20004E6FE2
:10329000206D6F746F72206C61796F7574210000FE
:1032A000414343206E6F742063616C696272617484
:1032B00065642E0053616E69747920636865636B81
:1032C000206661696C65642100005258207369674B
:1032D0006E616C20776173206C6F737421004261A2
:1032E00064206368616E6E656C206D617070696EDC
:1032F000672100005361742070726F746F636F6C8C
:10330000206572726F7221004E6F20536174656C7C
:103310006C69746520696E7075742100436865631B
:103320006B207468726F74746C65206C6576656C64
:103330002E004E761C330833F432DE32CA32B432F9
:10334000A0328E32A0913707AF77B0911907B095B0
:10335000B078AB2B08E0A69510F00A95E1F7E2E310
:10336000F3E30E94E8380895009019071090390798
:10337000012000922E0700902E07109017070120C1
:1033800000922E0700912E07002342F000E00093E8
:103390007E0600937F060093800639C030917E063A
:1033A00040917F0601E0400F0027301F30937E06DA
:1033B00040937F060FE10093400500E40093410530
:1033C00000E00093420530917E0640917F065091C7
:1033D0008006609140057091410580914205581723
:1033E00047073607A1F400E000937E0600937F06AE
:1033F000009380060027009317070FEF00931D0727
:103400000FEF0093210701E0009322070895009138
:103410001907002392F50EEF009340050CE000938E
:10342000410500E00093420530914F054091500561
:103430005091510560914005709141058091420580
:10344000581747073607ECF001E00093400504EFFA
:103450000093410500E00093420530914F054091F3
:103460005005509151056091400570914105809142
:10347000420558174707360724F400E000931A075F
:10348000089500911A07039500931A0700911A07EF
:103490000F3F09F04CC0B0914F05A0915005D0915D
:1034A0005105BB23CAF4009137070F7709F008953F
:1034B0000FEF0093170701E000936F060CE20093F3
:1034C000700600E0009371060E9475150E945F1C53
:1034D0000AE000931C070CC000270093170700E0C8
:1034E00000936F0606E90093700600E000937106F2
:1034F000002700932107E3E9F0E00E94033CAA23A0
:103500001AF40FEF009336070FEF00931D0703E047
:1035100000936C0600E200936D0600E000936E06D7
:1035200000E000937E0600937F06009380060895D6
:10353000A1D3ACD3AAD509E00093400504EC0093D5
:10354000410500E00093420500E000933007EF934F
:10355000FF93309140054091410550914205E2E1D1
:10356000F6E06091300703E0609FE00DF11D3193BC
:1035700041935193FF91EF91009130070395009390
:10358000300700913007083011F778D4E6E8F0E012
:1035900000D200E00093430502E30093440500E0FD
:1035A0000093450510914005209141053091420559
:1035B0004091430550914405609145050E94493C66
:1035C0007093E2058093E3052092E405E2D1009137
:1035D000400500934E060091410500934F0600916F
:1035E000420500935006D5D1DED1009140050093ED
:1035F0005106009141050093520600914205009347
:103600005306C7D100E00093430503E0009344054F
:1036100009EB00934505109140052091410530913B
:1036200042054091430550914405609145050E9433
:10363000493C709354068093550620925606A9D1B2
:1036400000E00093430504E60093440500E0009386
:1036500045053091430540914405509145056091E1
:1036600040057091410580914205581B470B360B70
:103670003093690640936A0650936B066091690621
:1036800070916A0680916B0607E00E94403C60934F
:10369000690670936A0680936B06E2E7F0E079D1E1
:1036A0002DD1009140050093E5050091410500935F
:1036B000E605009142050093E7056BD11FD100910B
:1036C00040050093E805009141050093E90500914C
:1036D00042050093EA055DD111D1009140050093A8
:1036E000EB05009141050093EC0500914205009324
:1036F000ED054FD103D1009140050093EE050091F7
:1037000041050093EF05009142050093F00541D17A
:1037100005D1009140050093F1050091410500930A
:10372000F205009142050093F305CAE6D7E0EAEA04
:10373000F0E0C6D4C5D4C4D4C3D4C2D4C1D4C0D498
:10374000BFD434D4EDE5F0E00E940B3CB0937F058C
:10375000A0938005D09381050E940B3CB093820515
:10376000A0938305D09384050E940B3CB0938505FC
:10377000A0938605D09387059CD40E949725E1E904
:10378000F0E00E941F3C00933907E4EAF0E00E9459
:10379000033CA09327070E94033CA09328070E94A4
:1037A000033CA09329070E94033CA0932A070E9490
:1037B000033CA0932B070FEF0093250700931D07F1
:1037C00001E00093110705E0009310070027009324
:1037D0003A07009317070093180700931E070093FA
:1037E00020070093210700933607009335070093C5
:1037F0003B0700937E0600937F06009380060093AC
:103800006F06009370060093710600936C06009398
:103810006D0600936E060093810600938206009366
:103820008306009384060093850600938606009322
:10383000870600938806009389060093AB060093E1
:10384000AC060093AD060093AE060093AF0600935E
:10385000B00600938D0600938E0600938F060093AA
:103860009006009391060093920629D003E00093FE
:103870008B050FEF00938C0500E000938D05009100
:1038800037070074009337070E946F07E3EBF0E0FF
:103890000E941F3C00232AF000913707016000932B
:1038A0003707E2EBF0E00E941F3C002332F000916A
:1038B00037070260009337070895CAD0089500E0E3
:1038C0000093D2060093D3060093D4060093D50646
:1038D00000E00093D6060093D7060093D806009325
:1038E000D90601E00093DA0600E00093DB0600E071
:1038F0000093DC0600E00093DD060895609140052A
:10390000709141058091420504E00E94403C609323
:1039100040057093410580934205089500E00093AF
:10392000430500E00093440502E50093450510912E
:103930004005209141053091420540914305509149
:103940004405609145050E94493C70934005809371
:1039500041052092420500E00093430500E00093FA
:10396000440508E00093450510914005209141056C
:1039700030914205409143055091440560914505C1
:103980000E94493C70934005809341052092420576
:1039900008950E94F53BDD27B0934005A0934105B3
:1039A000D0934205089500E00093430500E800939A
:1039B000440500E000934505109140052091410524
:1039C0003091420540914305509144056091450571
:1039D0000E94493C70934005809341052092420526
:1039E00008954F6E65206F72206D6F72652073654C
:1039F0007474696E67730000617265206F7574205E
:103A00006F66206C696D69747321000053656E7375
:103A10006F722063616C6962726174696F6E00001D
:103A200064617461206F7574206F66206C696D69C4
:103A30007473210053656E736F7220726177206416
:103A400061746100E239F8390C3A203A343AF839B5
:103A50000E947D3A00E00093040701E1009305070E
:103A6000B091E205A091E305D091E405C0E0D0E07B
:103A7000E9EEF3E00E94301E08F4C9C0B0914E0692
:103A8000A0914F06D0915006C0E0D0E0E5EFF1E004
:103A90000E94301E08F4BBC0B0915106A09152069E
:103AA000D0915306C0E0D0E0E1E0FFE00E94301E7C
:103AB00008F4ADC0B0916705A0916805D091690583
:103AC000C0E9D1E0EAEDF2E00E94301E08F4A5C0A2
:103AD000B0916A05A0916B05D0916C05C0E9D1E069
:103AE000EAEDF2E00E94301E08F497C0B0916D0537
:103AF000A0916E05D0916F05C0E9D1E0EAEDF2E04A
:103B00000E94301E08F489C0B0917F05A091800505
:103B1000D0918105C2ECD1E0E2E5F3E00E94301ED5
:103B200008F47BC0B0918205A0918305D0918405F3
:103B3000C2ECD1E0E2E5F3E00E94301E08F46DC073
:103B4000B0918505A0918605D0918705C2ECD1E0A2
:103B5000E2E5F3E00E94301E08F45FC00E94AB373C
:103B60000E94AB37B0915E05A0915F05D0916005D2
:103B7000C4E6D0E0E4E8F3E00E94301E08F453C04D
:103B8000B0916105A0916205D0916305C4E6D0E0D3
:103B9000E4E8F3E00E94301E08F445C0B0916405EB
:103BA000A0916505D0916605C4E6D0E0E4E8F3E0B5
:103BB0000E94301E08F437C0B0917605A0917705B9
:103BC000D0917805C4E6D0E0E4E8F3E00E94301E2E
:103BD00008F429C0B0917905A0917A05D0917B05B0
:103BE000C4E6D0E0E4E8F3E00E94301E08F41BC015
:103BF000B0917C05A0917D05D0917E05C4E6D0E012
:103C0000E4E8F3E00E94301E08F40DC0089502E0DD
:103C1000E4E4FAE30E94F1380BC002E0E8E4FAE3DE
:103C20000E94F13805C002E0ECE4FAE30E94F138AA
:103C3000009137070460009337070E94DA3800E0EC
:103C40000093050703E0009309070E9495380E943E
:103C50003A3A0E94EE3B0130E1F70E94EA3B0895B8
:103C6000AC17BD072CF0AE17BF0714F48894089565
:103C700008940895C0E4A0E0B5E0E4E0F0E00E941C
:103C80001F3C0D933196CA95D1F70895E4E4F0E016
:103C900080DE009140050093A60500914105009348
:103CA000A705009142050093A805009140050093E7
:103CB000CA05009141050093CB0500914205009390
:103CC000CC0567DE70DE009140050093AF050091E2
:103CD00041050093B005009142050093B10559DEFE
:103CE000009140050093D305009141050093D40550
:103CF000009142050093D50501DE00914005009337
:103D0000B805009141050093B90500914205009363
:103D1000BA053FDE48DE009140050093C1050091E1
:103D200041050093C205009142050093C30500912F
:103D30001207002312F4E4E4F0E02BDE00914005CA
:103D40000093A905009141050093AA050091420541
:103D50000093AB05009140050093CD05009141050E
:103D60000093CE05009142050093CF0512DE1BDEC5
:103D7000009140050093B205009141050093B30501
:103D8000009142050093B40504DE009140050093C4
:103D9000D605009141050093D70500914205009397
:103DA000D805ACDD009140050093BB0500914105AD
:103DB0000093BC05009142050093BD05EADDF3DDEB
:103DC000009140050093C405009141050093C5058D
:103DD000009142050093C605E4E5F0E0DADD0091CC
:103DE00040050093AC05009141050093AD0500919D
:103DF00042050093AE05009140050093D005009167
:103E000041050093D105009142050093D205C1DD23
:103E1000CADD009140050093B5050091410500936E
:103E2000B605009142050093B705B3DD009140054A
:103E30000093D905009141050093DA0500914205F0
:103E40000093DB055BDD009140050093BE0500910A
:103E500041050093BF05009142050093C00599DD1F
:103E6000A2DD009140050093C70500914105009334
:103E7000C805009142050093C9050895ECE7F0E0FC
:103E800088DD0091400500934206009141050093B2
:103E900043060091420500934406009140050093BB
:103EA00045060091410500934606009142050093A6
:103EB00047066FDD00E0009343050AE000934405E8
:103EC00000E0009345051091400520914105309197
:103ED00042054091430550914405609145050E947B
:103EE000493C70934B0680934C0620924D0651DD61
:103EF00000914005009378060091410500937906F2
:103F00000091420500937A06609140057091410549
:103F10008091420503E00E94403C6093400570930D
:103F2000410580934205009140050093720600917F
:103F3000410500937306009142050093740629DD44
:103F40000091400500937B060091410500937C069B
:103F50000091420500937D066091400570914105F6
:103F60008091420503E00E94403C609340057093BD
:103F7000410580934205009140050093750600912C
:103F8000410500937606009142050093770601DD16
:103F9000C5DC00914005009348060091410500935F
:103FA00049060091420500934A060895E6E9F0E0CB
:103FB000F0DC009140050093BD060091410500939F
:103FC000BE06009142050093BF0698DC00914005B3
:103FD00000939F06009141050093A00600914205C1
:103FE0000093A106D6DC009140050093A206009143
:103FF00041050093A306009142050093A406C9DC85
:10400000009140050093C006009141050093C10650
:10401000009142050093C20671DC009140050093B7
:10402000A506009141050093A60600914205009364
:10403000A706AFDC009140050093A806009141055A
:104040000093A906009142050093AA06A2DC009104
:1040500040050093B106009141050093B20600911E
:1040600042050093B30695DC009140050093B40629
:10407000009141050093B506009142050093B606F4
:104080000E94033CA0933C070895C8E0E0E0F5E0FF
:104090000581889401FD0894A795889400FD0894F3
:1040A000B7953896CA95A1F7A0930E07B0930F075E
:1040B0000895E0E9F0E00E941F3C00931207089584
:1040C0000E94033CAA95A9930895112722270E94D4
:1040D0007D3AECEAF1E40E940739009112070023CF
:1040E0003AF4223029F0EAEBF6E70E94073905C0DE
:1040F000022FE2EDF1E40E94E83800E000930407AB
:104100000AE00093050700270F93EAECF1E40E9410
:10411000E8380AE2009304070E94A4380F910F9335
:10412000302F5AD00E94853800E0009304070F9189
:10413000039504304CF30E94B038E6EBF1E404E060
:10414000019FE00DF11D0E940C380E943A3A0E9436
:10415000EE3B083009F40895043021F41A950AF46E
:1041600014E0B5CF023029F41395153009F410E0AE
:10417000AECF0130E9F7103061F42395233009F414
:104180002227213029F40091120700230AF422E0AB
:104190009ECF312F3A9520D0C0E0D0E0E0E0FDE79F
:1041A0000E94A325A02DB12D20D091CF4178697315
:1041B0002020203A20003400670934094F123412BD
:1041C0004F1B341B4F2434244F2DF276FA7602779E
:1041D0000A77C276CA76D47611D00E941F3CA02FEF
:1041E00031960E941F3CB02F089508D00A2F0E94DC
:1041F000273C31960B2F0E94273C0895E4E4F0E021
:10420000022F000F000F000FE00F0027F01F032FF9
:10421000000FE00F0027F01F08950E94461E0E9425
:104220003E1F0E94D61FA6D182D40E94573400910F
:104230006907033041F0C9E10E94CB3B009154076C
:1042400000230AF486C000914007002311F40E9465
:10425000E435109155052091560530915705409150
:10426000C3065091C4066091C5060E94493C7093F4
:10427000DC058093DD052092DE0510915805209124
:10428000590530915A054091C3065091C40660917A
:10429000C5060E94493C7093DF058093E00520929B
:1042A000E10580D20E947D3AE8EAF3E40E940739F2
:1042B00000914007002359F003304CF4A0911207FD
:1042C000AA2329F0EAEBF6E70E94073904C0E4E5E7
:1042D000F7E70E94E83800E0009304070AE0009343
:1042E000050700914007E2EFF3E40E94E838EEECA6
:1042F000F3E4B091DC05A091DD05D091DE05F0D0AE
:1043000000914007E0E0F4E40E94E838E4EDF3E4D3
:10431000B091DF05A091E005D091E105E1D0E6EB99
:10432000F3E40E94073900914107E2E6F7E70E94B3
:10433000E83800E00093040709E300930507E4EE82
:10434000F5E70E940739E4ECF3E40E940C380E9480
:104350003A3A0E94D93B083009F40895043021F418
:104360000E947309D2D061CF023039F465D10E9426
:104370007309A091400736D158CF013009F055CFCD
:1043800000914007039507300CF00027023029F414
:10439000A0911207AA230AF40395009340070E94F4
:1043A00073090E94EA3B41CF54756E696E67204DD8
:1043B0006F64653A2000496E7075742052617465AF
:1043C000203A20004C007F09546573740000417549
:1043D0007832000041757833000052204761696EE1
:1043E000000050205472696D000052205472696DB3
:1043F0000000C843F276F276F276F276E243F27685
:10440000C8430277027702779C67EA43DA43463A69
:10441000483D3C0043444700506C65617365206330
:10442000656E74657220796F7572205458007475CA
:104430006E696E6720636F6E74726F6C73206E6F3F
:10444000772E0000412054756E696E67204D6F64B1
:1044500065206D7573742062650073656C656374A7
:1044600065642066697273742E0018442E444444B7
:104470005A4453455420494E5055542052415445B6
:10448000000053656C65637420696E7075742072EA
:1044900061746520666F7200616C6C2074756E6962
:1044A0006E67206D6F6465732E20557365004C4FE9
:1044B0005720666F722066696E652D74756E696E21
:1044C000672E00004241434B20204C4F57204D4562
:1044D0004449554D20484947480082449844AE44D9
:1044E00000910407002309F408950FE20E940D399A
:1044F0000E94073902E4009304070E94A4380E9436
:10450000853800E00093040708950E947D3A06E193
:1045100000930407E2E7F4E40E9407390DE00093FA
:10452000050703E0EAEDF4E40E94F13800E00093AF
:10453000040709E300930507E4ECF4E40E9407395B
:104540000E943A3A0E94EE3B077089F0043011F461
:10455000A1E008C0023011F4A2E004C0013009F06B
:10456000D4CFA3E0E5EBF0E00E94073C03D00E942B
:10457000EA3B0895E5EBF0E00E94033CA370AA2318
:1045800009F4A2E0A13051F400E00093400500E0FE
:104590000093410506E20093420515C0A23051F494
:1045A00000E00093400500E00093410503E700931D
:1045B000420509C000E00093400500E0009341057A
:1045C00000EC00934205A093410700914005009341
:1045D000C306009141050093C40600914205009373
:1045E000C50608950E948B3A0AE000930407AA23A7
:1045F00041F4E4E1F4E40E9407390AE3009304077C
:1046000003C002E200930407EEE0F4E40E948D3858
:10461000EAE6F4E4AA2311F4EEE6F4E402E00E94F0
:10462000F1380E94CC380E943A3A0E94EE3B0130A9
:10463000E1F70E94EA3B089500914007002309F446
:104640000895B091DC05A091DD05D091DE05013023
:10465000C9F4B093CA05A093CB05D093CC0500272D
:10466000CC278BD00027C2E0B091DF05A091E005F8
:10467000D091E105B093D305A093D405D093D5058F
:104680007CD008950230C9F401E0CC27B093CD0569
:10469000A093CE05D093CF0570D001E0C2E0B091D9
:1046A000DF05A091E005D091E105B093D605A09378
:1046B000D705D093D80561D008950330C9F4B093DD
:1046C000D005A093D105D093D20502E0CC2755D0D8
:1046D00002E0C2E0B091DF05A091E005D091E105D4
:1046E000B093D905A093DA05D093DB0546D00895A1
:1046F000043059F4B0934506A0934606D09347067C
:10470000ECE7F0E00E94FC3B08950530D9F4B0934B
:104710007B06A0937C06D0937D06E2E8F0E00E9441
:10472000FC3BB091DF05A091E005D091E105B0938D
:104730007806A0937906D0937A06E0E8F0E00E942C
:10474000FC3B0895B093C006A093C106D093C20667
:10475000EAE9F0E00E94FC3BB091DF05A091E005A2
:10476000D091E105B093BD06A093BE06D093BF06DD
:10477000E6E9F0E00E94FC3B0895E4E4F0E0000F7D
:10478000000F000FE00F0027F01F0C2F000FE00FAD
:104790000027F01F0A2F0E94273C31960B2F0E9402
:1047A000273C089500914007002309F408950E94D2
:1047B000E4351091550520915605309157054091EB
:1047C000C3065091C4066091C5060E94493C70938F
:1047D0005505809356052092570510915805209154
:1047E000590530915A054091C3065091C406609115
:1047F000C5060E94493C7093580580935905209244
:104800005A05009140070130C1F50091CA05009397
:1048100043050091CB05009344050091CC0500931E
:1048200045050091D305009340050091D405009300
:1048300041050091D505009342054CD10E947E1C94
:104840000091DC050093A6050091DD050093A70506
:104850000091DE050093A805009140050093B8057E
:10486000009141050093B905009142050093BA05F6
:10487000009112070023F2F008950230A1F5009193
:10488000CD05009343050091CE05009344050091AA
:10489000CF05009345050091D60500934005009192
:1048A000D705009341050091D8050093420512D128
:1048B0000E947E1C0091DC050093A9050091DD0596
:1048C0000093AA050091DE050093AB050091400519
:1048D0000093BB05009141050093BC050091420582
:1048E0000093BD0508950330A1F50091D005009314
:1048F00043050091D105009344050091D205009332
:1049000045050091D905009340050091DA05009313
:1049100041050091DB0500934205DCD00E947E1C1E
:104920000091DC050093AC050091DD050093AD0519
:104930000091DE050093AE05009140050093BE0591
:10494000009141050093BF05009142050093C00509
:104950000895043009F50091450600934305009140
:104960004606009344050091470600934505B2D0E2
:1049700000E00093DF050093E0050093E10500915E
:10498000DC05009342060091DD050093430600918B
:10499000DE05009344060895053009F054C0AFEDDC
:1049A000B5E0C8E7D6E0E8E5F5E00E94333C309199
:1049B0007B0640917C0650917D0660915505709173
:1049C000560580915705581B470B360B3093DC0575
:1049D0004093DD055093DE050091DC0500937506DC
:1049E0000091DD05009376060091DE0500937706C1
:1049F0000091DF05009372060091E00500937306B5
:104A00000091E10500937406609175067091760639
:104A10008091770603E00E94403C60937506709396
:104A20007606809377066091720670917306809186
:104A3000740603E00E94403C609372067093730614
:104A4000809374060895AFEDB5E0CDEBD6E0E8E5D0
:104A5000F5E00E94333CACEDB5E0C0ECD6E0E5E516
:104A6000F5E00E94333C0091DC050093A50600911F
:104A7000DD050093A6060091DE050093A7060091D0
:104A8000DF0500939F060091E0050093A0060091CA
:104A9000E1050093A1066091A5067091A60680919C
:104AA000A70604E00E94403C6093A5067093A6060A
:104AB0008093A70660919F067091A0068091A10641
:104AC00004E00E94403C60939F067093A006809390
:104AD000A1060895ACEDB5E0C3E4D5E0E5E5F5E069
:104AE0000E94333C3CF400E00093DC050093DD05BC
:104AF0000093DE05AFEDB5E0C0E4D5E0E8E5F5E014
:104B00000E94333C3CF400E00093DF050093E00595
:104B10000093E1050091DF05009340050091E00559
:104B2000009341050091E10500934205089500912D
:104B30004007023039F40091120700231AF401E013
:104B40000093400708952F923F924F925F926F9289
:104B50007F928F921F932F933F934F935F936F9307
:104B60007F938F939F93AF93BF93CF93DF93EF93F5
:104B7000FF9311E002E00093080701E000930907AA
:104B800000E00093040708E3009305070FE7009394
:104B9000060700E4009307070E94FA3701E000933C
:104BA000080700E00093040709E300930507EF936B
:104BB000FF93E2EDFCE40E940739FF91EF910EE1D3
:104BC0000093040703E10093050702E6009306073C
:104BD0000AE20093070702E0009308070E94FA37F1
:104BE0000EE10093040703E10093050702E600933A
:104BF00006070AE20093070701E0009308070E94F6
:104C00001D380FE10093040704E10093050701E656
:104C10000093060709E2009307070E941D3802E28D
:104C20000093040708E10093050703E000930907D8
:104C30000E9444380E943A3A2EE10E94D93B00304B
:104C400011F02A95D1F7003009F411E00E94D93B08
:104C50000030C9F30E947309083039F4A0E0B0E0D5
:104C6000AC17BD070CF4DE01AACF043061F4A11B20
:104C70000027B00BAC17BD070CF4DE0113951F3FE6
:104C800008F01FEF9CCF023041F4A10F0027B01FA6
:104C9000AE17BF070CF0DF01F1CF0130C9F40A2EC7
:104CA0001B2EFF91EF91DF91CF91BF91AF919F911B
:104CB0008F917F916F915F914F913F912F911F91B4
:104CC0008F907F906F905F904F903F902F900895BE
:104CD00076CF434C522020444F574E202020555031
:104CE000202020444F4E4500E3EBF0E00E941F3CA3
:104CF000002312F0DED0089510E022270E947D3AB2
:104D000006E600930407E6E4FEE40E940739A22FBA
:104D1000A395BB270E94443800E00093040701E0FC
:104D20000093050700270F93EAE6FEE40E94E838A7
:104D30000F910F93302FDED0F1D000E300930407E2
:104D40000E94A4380E94853800E0009304070F9168
:104D50000395053044F300E000930407EAE4FEE421
:104D60000E94073935E0C6D00F930170E4E7FEE4F6
:104D70000E94E83808E400930407E0E5FEE40E949E
:104D800007390F9106950170E8E7FEE40E94E838C4
:104D90000E94B038E6E2FEE404E0019FE00DF11D60
:104DA0000E940C380E943A3A0E94EE3B083009F407
:104DB0000895043019F41A951770A0CF023019F431
:104DC000139517709BCF013069F5103019F42395B6
:104DD000277094CF113078F0163068F4312F3A955F
:104DE00089D09CD0C1E8DFEFEFE7F0E00E94A32577
:104DF000002D83D083CF163061F40E94573235E006
:104E000079D0A1E00A2700FD026077D00E941F320E
:104E100075CF173039F435E06DD0A2E00A2700FDD8
:104E200002606BD06BCF78007F093A0056093A09CF
:104E300056123A12561B3A1B56243A24562D1D2D53
:104E40003D36662D7E3643683A00547970653A00E7
:104E5000526174653A00536572766F0045534300A2
:104E60004869676800004C6F7700DC76C276CA76C6
:104E7000D476EA76564E5C4E664E604E4344000051
:104E80003A3B3B3D4646000041204D6F746F722017
:104E90004C61796F7574206D757374006265206C58
:104EA0006F616465642066697273742E0000884EB9
:104EB0009C4E0E948B3A0AE000930407ECE7FEE464
:104EC0000E940739009004070CE0000E00920407CE
:104ED000E0E8FEE40E948D3802E0EEEAFEE40E9483
:104EE000F1380E94CC380E943A3A0E94EE3B0130E1
:104EF000E1F7089507D00C941F3C0F9303D00F9156
:104F00000C94273CE4E0F0E0022F000F000F000FAC
:104F1000E00F0027F01FE30FF01F0895A02FBB271D
:104F2000AA230AF4BFEF089500E00093F70502E317
:104F30000093F80500E00093F905E0E0F5E0D6D035
:104F40000091F40500932A060091F50500932B06C5
:104F50000091F60500932C06009140050093FA0598
:104F6000009141050093FB05009142050093FC056B
:104F7000E8E0F5E0BBD00091F40500932D06009128
:104F8000F50500932E060091F60500932F0600917B
:104F900040050093FD05009141050093FE05009139
:104FA00042050093FF05E0E1F5E0A0D00091F40593
:104FB000009330060091F505009331060091F60547
:104FC00000933206009140050093000600914105D0
:104FD000009301060091420500930206E8E1F5E026
:104FE00085D00091F405009333060091F5050093F8
:104FF00034060091F60500933506009140050093B4
:1050000003060091410500930406009142050093B8
:105010000506E0E2F5E06AD00091F405009336065B
:105020000091F505009337060091F60500933806C8
:105030000091400500930606009141050093070684
:105040000091420500930806E8E2F5E04FD0009198
:10505000F405009339060091F50500933A06009196
:10506000F60500933B060091400500930906009168
:10507000410500930A060091420500930B06E0E308
:10508000F5E034D00091F40500933C060091F5055D
:1050900000933D060091F60500933E060091400501
:1050A00000930C060091410500930D060091420506
:1050B00000930E06E8E3F5E019D00091F4050093A3
:1050C0003F060091F505009340060091F605009318
:1050D00041060091400500930F06009141050093A1
:1050E000100600914205009311060895DD27A48162
:1050F000BB27AA2312F4DFEFBFEFB093F405A09310
:10510000F505D093F6051091F4052091F505309141
:10511000F6054091F7055091F8056091F9050E9458
:10512000493C7093F4058093F5052092F605B09103
:10513000F405A091F505D091F605008130914C055C
:1051400040914D0550914E050E948F3C0181309158
:10515000910540919205509193050E948F3C0281E8
:105160003091940540919505509196050E948F3C91
:1051700003813091970540919805509199050E94BF
:105180008F3CB0934005A0934105D093420508950C
:1051900000911F0700230AF0BDC000E00093400506
:1051A0000093410500934205009146050093430595
:1051B000009147050093440500914805009345057B
:1051C000309143054091440550914505609140055B
:1051D000709141058091420558174707360794F4AE
:1051E00060914305709144058091450555274427FA
:1051F0003327581B470B360B309343054093440528
:10520000509345053091490540914A0550914B0511
:1052100060914005709141058091420558174707FC
:1052200036076CF0009149050093400500914A054E
:105230000093410500914B05009342051EC000916B
:1052400049050093400500914A05009341050091EE
:105250004B05009342056091400570914105809196
:105260004205552744273327581B470B360B3093ED
:1052700040054093410550934205309143054091CC
:10528000440550914505609140057091410580911C
:10529000420558174707360764F40091400500930C
:1052A0004305009141050093440500914205009398
:1052B00045051091430520914405309145054091E5
:1052C00048065091490660914A060E94493C7093F5
:1052D000400580934105209242053091450640915A
:1052E00046065091470660914005709141058091B6
:1052F0004205581B470B360B30934206409343063A
:10530000509344063CF400E00093420600934306A9
:10531000009344060E94AB3730915E0540915F05D3
:1053200050916005609167057091680580916905ED
:10533000581B470B360B30935E0540935F05509327
:10534000600530916105409162055091630560915F
:105350006A0570916B0580916C05581B470B360BE5
:105360003093610540936205509363053091640565
:10537000409165055091660560916D0570916E05CF
:1053800080916F05581B470B360B30936405409393
:1053900065055093660530917605409177055091EB
:1053A000780560917F057091800580918105581B7B
:1053B000470B360B3093760540937705509378056D
:1053C0003091790540917A0550917B056091820575
:1053D0007091830580918405581B470B360B3093E1
:1053E000790540937A0550937B0530917C05409177
:1053F0007D0550917E0560918505709186058091AF
:105400008705581B470B360B30937C0540937D0571
:1054100050937E05A6E7B5E0C6E7D5E0E5E7F6E000
:105420000E94333CA9E7B5E0C9E7D5E0E2E7F6E042
:105430000E94333C00E00093430500E000934405E4
:1054400007E000934505309176054091770550912E
:105450007805609196067091970680919806581B82
:10546000470B360B3093A3054093A4055093A50535
:105470001091A3052091A4053091A5054091430505
:1054800050914405609145050E94493C7093A305E5
:105490008093A4052092A505A6E9B6E0C6E9D6E06A
:1054A000E3EAF5E00E94333C3091790540917A05BA
:1054B00050917B056091990670919A0680919B06A8
:1054C000581B470B360B3093A3054093A40550930C
:1054D000A5051091A3052091A4053091A505409143
:1054E000430550914405609145050E94493C7093E5
:1054F000A3058093A4052092A505A9E9B6E0C9E912
:10550000D6E0E3EAF5E00E94333C30917C0540911F
:105510007D0550917E0560919C0670919D0680915D
:105520009E06581B470B360B3093A3054093A405EA
:105530005093A5051091A3052091A4053091A505D0
:105540004091430550914405609145050E94493CB6
:105550007093A3058093A4052092A505ACE9B6E05D
:10556000CCE9D6E0E3EAF5E00E94333C00E00093AA
:10557000400500E00093410503EB009342051091C4
:10558000990620919A0630919B06409140055091D2
:105590004105609142050E94493C709357068093F3
:1055A0005806209259061091960620919706309140
:1055B00098064091400550914105609142050E9436
:1055C000493C70935A0680935B0620925C060091DA
:1055D0005E050093700500915F05009371050091D1
:1055E00060050093720500916105009373050091B9
:1055F000620500937405009163050093750500E052
:105600000093400504E10093410500E0009342054A
:1056100030915A0640915B0650915C0660914005BE
:1056200070914105809142055817470736070CF0E5
:10563000DAC0309157064091580650915906609152
:10564000400570914105809142055817470736077C
:105650000CF0C9C0609140057091410580914205F0
:10566000552744273327581B470B360B30934005EB
:10567000409341055093420530915A0640915B0694
:1056800050915C0660914005709141058091420502
:105690005817470736070CF4A6C0309157064091BB
:1056A00058065091590660914005709141058091CE
:1056B00042055817470736070CF495C000E00093E1
:1056C00040050CE30093410500E000934205309152
:1056D0009C0640919D0650919E06609140057091F8
:1056E0004105809142055817470736070CF07BC0EB
:1056F00060914005709141058091420555274427EE
:105700003327581B470B360B309340054093410518
:105710005093420530919C0640919D0650919E0603
:1057200060914005709141058091420558174707E7
:1057300036070CF458C030918D0640918E0650917A
:105740008F06609157067091580680915906581B34
:10575000470B360B3093400540934105509342056B
:1057600060914005709141058091420502E00E94E0
:10577000403C609340057093410580934205A0E74B
:10578000B5E0C0E7D5E0E0E4F5E00E94333C3091BD
:105790009006409191065091920660915A06709140
:1057A0005B0680915C06581B470B360B3093400517
:1057B0004093410550934205609140057091410529
:1057C0008091420502E00E94403C60934005709346
:1057D000410580934205A3E7B5E0C3E7D5E0E0E4E7
:1057E000F5E00E94333C0E9420050E94FC050E94C7
:1057F00083060091190700239AF400E000939A05AC
:1058000000939B0500939C0500939D0500939E05C6
:1058100000939F050093A0050093A1050093A205A6
:1058200060914605709147058091480504E00E940B
:10583000403C60934605709347058093480560910E
:10584000490570914A0580914B0504E00E94403C57
:105850006093490570934A0580934B0560914F050D
:10586000709150058091510504E00E94403C609386
:105870004F05709350058093510510914605209176
:105880004705309148054091E5055091E605609146
:10589000E7050E94493C7093460580934705209296
:1058A00048051091490520914A0530914B054091DA
:1058B000E8055091E9056091EA050E94493C709322
:1058C000490580934A0520924B0510914F05209180
:1058D0005005309151054091EB055091EC056091D8
:1058E000ED050E94493C70934F058093500520922E
:1058F000510510914C0520914D0530914E05409178
:10590000EE055091EF056091F0050E94493C7093BF
:105910004C0580934D0520924E0500911E070023F3
:105920006AF100911F0700230AF03EC1109146055D
:1059300020914705309148054091F1055091F205BD
:105940006091F3050E94493C709391058093920504
:10595000209293051091490520914A0530914B05FD
:105960004091F1055091F2056091F3050E94493C88
:105970007093940580939505209296056091460555
:105980007091470580914805552744273327581BB8
:10599000470B360B30934605409347055093480517
:1059A00060914605709147058091480501E00E948D
:1059B000403C6093460570934705809348053091BD
:1059C0008D0640918E0650918F066091460570912C
:1059D000470580914805581B470B360B3093A305AC
:1059E0004093A4055093A5056091A3057091A4056B
:1059F0008091A50504E00E94403C6093A30570934C
:105A0000A4058093A5051091A3052091A4053091CC
:105A1000A5054091420650914306609144060E94BC
:105A2000493C709360068093610620926206009163
:105A30004B0600935D0600914C0600935E060091B4
:105A40004D0600935F0688D20091600600934605DC
:105A50000091610600934705009162060093480596
:105A600060914605709147058091480501E00E94CC
:105A7000403C6093460570934705809348056091CC
:105A8000490570914A0580914B05552744273327D6
:105A9000581B470B360B3093490540934A055093EA
:105AA0004B056091490570914A0580914B0501E0D5
:105AB0000E94403C6093490570934A0580934B05D2
:105AC000309190064091910650919206609149055F
:105AD00070914A0580914B05581B470B360B30934C
