:020000020000FC
:100000000C943F000C943E000C943E000C943E0077
:100010000C943E000C943E000C943E000C943E0068
:100020000C943E000C943E000C943E000C9409325B
:100030000C943E000C94BA2F0C94ED2F0C943E00BF
:100040000C943E000C943E000C943E000C943E0038
:100050000C940F340C943E000C943E000C943E0023
:100060000C943E000C943E000C943E000C943E0018
:100070000C943E000C943E000C943E0018950FEF3B
:100080000DBF08E00EBFA4E6B0E00E94C23B0E9494
:1000900081070E94AF0B0E94473A0E94793A0E9462
:1000A000473A0E948C1200E000930A0700E0009398
:1000B0000B0700E000930C0700E000930D0703E03E
:1000C00000938E050FEF00938F0500E000939005DD
:1000D00001E000938A060EE800938B0600E000938F
:1000E0008C06002700934A0700934B0700934C07A8
:1000F0000093240700932D07AFEAA0933507A2E0F1
:10010000A0933607A1E0A093380700932B07009334
:100110002C0700931D070093840700931A07009390
:100120001B0700931C070093790700937A0700933D
:100130007B0700935E07EEE5F7E0E0937707F09327
:10014000780700E1009343070E94EB147894E1E7FD
:10015000F0E00E941B3C002351F00E94061203B104
:10016000009502950F7061F00E94151109C00FEF04
:1001700000933D070E94D53B083011F40E94B60B56
:100180000E94461A06E006BB0E94972F0E942B345D
:100190000E94A2130E945A190E94B30A0E9472235D
:1001A0000E9468280E94BE0B0E9434270E945202BF
:1001B0000E9406080E94CB090E94F92F0090270791
:1001C00010902807012400923A0700913A07002373
:1001D00032F40E94800A00912707009328070091BB
:1001E0002F0700232AF4002700932F070E94691786
:1001F0000091270700230AF4C7CF03B100950295A9
:10020000017021F4002700933D07BECF00913D0708
:100210000023DAF300E000936F000E941809299888
:100220000E94BF310E942E360E94F731A9CF0E9452
:10023000DA1D0E94E51F00911F07007C09F01ED106
:100240000E948A3A05E0EAEAF3E00E94FE3801E003
:100250000093050728E4E6E9F0E007D106D105D1CF
:1002600004D1209304070E94B138E2EAF0E00E9432
:10027000FF3B009348070170E0ECF3E00E94F53883
:1002800000E00093040709E300930507E0E5F6E7C3
:100290000E941439EAE5F6E70E941439E6EEF3E02D
:1002A00004E0019FE00DF11D0E9419380E94473AB9
:1002B0000E94EA3B083009F40895043011F422D07A
:1002C000BFCF023029F4139515300CF01127B8CFA9
:1002D0000130E9F7143051F4A0914807A095A0939C
:1002E0004807E2EAF0E00E94033CAACFE6E9F0E02A
:1002F00002E0019FE00DF11DC8EDDCEDA8E2B3E2E4
:10030000A3D09ECF112724E50E948A3A02E0E2EEB4
:10031000F3E00E94FE3801E000930507EEE9F0E00B
:10032000A4D0A3D00E94BD38EAEFF3E004E0019F1F
:10033000E00DF11D0E9419380E94473A0E94EA3BE5
:10034000083011F411270895043019F41A9511702A
:10035000DBCF0230D9F30130D9F7EEE9F0E002E06B
:10036000019FE00DF11DC8E1DCEFA8EEB3E06CD019
:10037000CBCF526F6C6C204761696E00526F6C6C12
:10038000204F666673657400506974636820476126
:10039000696E00005069746368204F666673657407
:1003A00000004D6978696E67000072037C03880362
:1003B0009403A2034E6F6E650000446966660000F8
:1003C000B403BA03486F6D6520506F7320526F6C91
:1003D0006C00486F6D6520506F73205069746368BE
:1003E0000000C403D203530073095309731253125C
:1003F000731B531B73245324732D5F007F095F0904
:100400007F124F75747075742074797065206973EC
:100410002073657420746F0045534320666F72200B
:100420004D3720616E642F6F72204D382E00436867
:1004300065636B204D6978657220456469746F72DD
:100440002E00020418042E04EF93FF93AF93BF9382
:100450000E94F13BFF91EF910E944325A02DB12D09
:10046000FF91EF910E94F83B0895209304070E94AA
:10047000B1380E94F13B0E94923808950E94983A48
:100480000E94A23803E0E2E4F4E00E94FE380E94F9
:10049000D9380E94473A0E94EA3B0130E1F70E94B6
:1004A000E63B089500E0009340050093410500936A
:1004B000420530919F064091A0065091A10660919F
:1004C000400570914105809142055817470736074E
:1004D00009F011C03091A5064091A6065091A706DB
:1004E000609140057091410580914205581747077A
:1004F000360709F4089500914C07002369F000E0E5
:100500000093550500935605009357050093580531
:100510000093590500935A0500913807023029F5D8
:100520000091B406009355050091B5060093560559
:100530000091B606009357050091B1060093580547
:100540000091B206009359050091B30600935A0535
:1005500000E00093AE060093AF060093B006009350
:10056000AB060093AC060093AD06A5E5B5E0C5E586
:10057000D5E0E8EAF6E00E942F3CA8E5B5E0C8E542
:10058000D5E0E2EAF6E00E942F3C03E0009340054C
:1005900008EE0093410500E000934205A5E5B5E0B3
:1005A000C5E5D5E0E0E4F5E00E942F3CA8E5B5E024
:1005B000C8E5D5E0E0E4F5E00E942F3C00E00093C0
:1005C000400502E00093410500E8009342051091C8
:1005D00055052091560530915705409140055091A1
:1005E0004105609142050E94453C7093BA06809394
:1005F000BB062092BC0610915805209159053091F8
:100600005A054091400550914105609142050E9474
:10061000453C7093B7068093B8062092B9060091C6
:100620003807013041F510918D0620918E063091EA
:100630008F0640919F065091A0066091A1060E94EE
:10064000453C7093AB068093AC062092AD061091AA
:10065000900620919106309192064091A506509106
:10066000A6066091A7060E94453C7093AE06809353
:10067000AF062092B0060091480700230AF078C028
:100680000091AB06009340050091AC060093410534
:100690000091AD06009342053091AB064091AC0647
:1006A0005091AD066091AE067091AF068091B00694
:1006B000581B470B360B3093AB064093AC06509358
:1006C000AD06AEEAB6E0CEEAD6E0E0E4F5E00E94A0
:1006D0002F3C0091B706009340050091B8060093A7
:1006E00041050091B906009342053091B70640914B
:1006F000B8065091B9066091BA067091BB06809118
:10070000BC06581B470B360B3093B7064093B80610
:100710005093B906AAEBB6E0CAEBD6E0E0E4F5E008
:100720000E942F3C09E00093400504EC0093410532
:1007300000E000934205A7EBB6E0C7EBD6E0E0E4AB
:10074000F5E00E942F3C3091BA064091BB065091D3
:10075000BC06609140057091410580914205581B8F
:10076000470B360B3093BA064093BB065093BC063A
:10077000ACE0B6E0CBEAD6E0E7EBF6E00E942F3C37
:10078000AFE0B6E0CEEAD6E0EAEBF6E00E942F3C1E
:1007900000910C0600933C0600910D0600933D0667
:1007A00000910E0600933E0600910F0600933F064F
:1007B0000091100600934006009111060093410637
:1007C00008950091C6060093CA060091C7060093DB
:1007D000CB060091C8060093CC060091C906009391
:1007E000CD0608952090C6063090C7064090C806F2
:1007F0005090C9066090C6067090C7068090C806E3
:100800009090C9060E94B63C1093EA062093EB062E
:100810003093EC064093ED065091EA066091EB06AA
:100820007091EC068091ED0601E00E94223D50930C
:10083000EA066093EB067093EC068093ED0601E008
:100840000093EE0600E00093EF0600E00093F00650
:1008500000E00093F1061091EE062091EF06309132
:10086000F0064091F1065091EA066091EB06709116
:10087000EC068091ED06481B370B260B150B1093E9
:10088000CE062093CF063093D0064093D10608952C
:10089000B093C606A093C706D093C806C093C906F6
:1008A00003E00093EA0607E00093EB060EEA0093EC
:1008B000EC0600E00093ED062090C6063090C706D7
:1008C0004090C8065090C9066090EA067090EB060A
:1008D0008090EC069090ED060E94B63C1093C60600
:1008E0002093C7063093C8064093C9060895CD2FBC
:1008F000DA2FAB2FBB2312F4BFEF0895BB27089567
:1009000060DF70DF2090E2063090E3064090E4065E
:100910005090E5066090CE067090CF068090D0068D
:100920009090D1060E94B63C1093FA062093FB06E5
:100930003093FC064093FD062090E6063090E706D3
:100940004090E8065090E9066090CA067090CB0689
:100950008090CC069090CD060E94B63C1093EA069B
:100960002093EB063093EC064093ED061091FA06C7
:100970002091FB063091FC064091FD065091EA065D
:100980006091EB067091EC068091ED06481B370BE9
:10099000260B150B1093FA062093FB063093FC06EA
:1009A0004093FD062090E2063090E3064090E40676
:1009B0005090E5066090CA067090CB068090CC06F9
:1009C0009090CD060E94B63C1093FE062093FF0641
:1009D00030930007409301072090E6063090E70629
:1009E0004090E8065090E9066090CE067090CF06E1
:1009F0008090D0069090D1060E94B63C1093EA06F3
:100A00002093EB063093EC064093ED061091FE0622
:100A10002091FF0630910007409101075091EA06AE
:100A20006091EB067091EC068091ED06480F371F40
:100A3000261F151F1093FE062093FF063093000714
:100A4000409301070895B0917305A0917405D0916A
:100A500075054DDF1DDF0091D6060093E20600917B
:100A6000D7060093E3060091D8060093E4060091B0
:100A7000D9060093E5060091DA060093E606009198
:100A8000DB060093E7060091DC060093E806009180
:100A9000DD060093E90634DF0091FA060093D606DE
:100AA0000091FB060093D7060091FC060093D80640
:100AB0000091FD060093D9060091FE060093DA0628
:100AC0000091FF060093DB06009100070093DC060F
:100AD000009101070093DD06B0917005A0917105AA
:100AE000D091720504DFD4DE0091D2060093E206B5
:100AF0000091D3060093E3060091D4060093E40628
:100B00000091D5060093E5060091DA060093E6060B
:100B10000091DB060093E7060091DC060093E806EF
:100B20000091DD060093E906EBDE0091FA060093E2
:100B3000D2060091FB060093D3060091FC060093B9
:100B4000D4060091FD060093D5060091FE060093A1
:100B5000DA060091FF060093DB0600910007009380
:100B6000DC06009101070093DD06B0916405A091B9
:100B70006505D0916605BBDE8BDE0091D206009341
:100B8000E2060091D3060093E3060091D406009399
:100B9000E4060091D5060093E5060091D606009381
:100BA000E6060091D7060093E7060091D806009369
:100BB000E8060091D9060093E906A2DE0091FA0644
:100BC0000093D2060091FB060093D3060091FC0629
:100BD0000093D4060091FD060093D5060091FE0611
:100BE0000093D6060091FF060093D70600910007F8
:100BF0000093D806009101070093D906089520902C
:100C0000D2063090D3064090D4065090D50660901E
:100C1000D2067090D3068090D4069090D5060E949C
:100C2000B63C1093EA062093EB063093EC06409313
:100C3000ED062090D6063090D7064090D80650900A
:100C4000D9066090D6067090D7068090D80690900E
:100C5000D9060E94B63C1093EE062093EF0630931F
:100C6000F0064093F1061091EA062091EB063091D0
:100C7000EC064091ED065091EE066091EF06709102
:100C8000F0068091F106480F371F261F151F10939D
:100C9000EA062093EB063093EC064093ED06209095
:100CA000DA063090DB064090DC065090DD0660905E
:100CB000DA067090DB068090DC069090DD060E94DC
:100CC000B63C1093EE062093EF063093F006409367
:100CD000F1061091EA062091EB063091EC06409166
:100CE000ED065091EE066091EF067091F00680914E
:100CF000F106480F371F261F151F1093DE0620939D
:100D0000DF063093E0064093E10608950091D20695
:100D10000093F6060091D3060093F7060091D406DF
:100D20000093F8060091D5060093F9062AD00091A9
:100D3000930600938D060091940600938E06009111
:100D4000950600938F060091D6060093F606009153
:100D5000D7060093F7060091D8060093F806009195
:100D6000D9060093F9060DD00091930600939006E2
:100D700000919406009391060091950600939206C7
:100D800008950AE50093EE0600E00093EF0600E008
:100D90000093F00600E00093F1062090F6063090F4
:100DA000F7064090F8065090F9066090EE067090B5
:100DB000EF068090F0069090F1060E94B63C1093EA
:100DC000EA062093EB063093EC064093ED06B091D3
:100DD000EA06A091EB06D091EC06C091ED0687DD06
:100DE000B0939306A0939406D09395060895112787
:100DF0000E948A3A05E0EAE7F7E70E94FE3801E040
:100E000000930507BEE40E94A93301E000930507A3
:100E100020E3CCE7D7E0E4EAF0E050D04FD04ED06A
:100E20004DD04CD001E00093050726E647D046D0D0
:100E300045D00E94BD38ECE9FEE004E0019FE00DE2
:100E4000F11D0E9419380E94473A0E94EA3B08307F
:100E500011F448D00895043019F41A951770C8CFCA
:100E6000023011F41395FACF0130B9F4E4EAF0E05E
:100E7000BB27E10FFB1FEF93FF930E94FF3BAA9557
:100E8000A770A395C1E0D0E0E8E0F0E00E94432520
:100E9000A02DFF91EF910E94033CAACF3B00430994
:100EA0003B0943123B12431B3B1B43243B24432D72
:100EB00071007909710979127112791B2093040765
:100EC0000E94B1380E94FF3B0A950993087F31F0D8
:100ED0000DE20E941A390E9493380895BB270E94A0
:100EE00092380895CCE7D7E0B8E0A881A87F29F030
:100EF000009143070068009343072196BA95A9F72C
:100F0000089500E001B90AE004B90FEF07B902EF54
:100F10000AB90FEF00937E0005EF05B90DE00BB99C
:100F200000E00093800002E00093810000E0009365
:100F300082000091C000007819F00091C600F9CF3E
:100F400002E00093C00000270093C50008E1009371
:100F5000C40000E10093C1000EE20093C2000091C2
:100F6000C10000680093C1005D9A5C9A5E982B9A5C
:100F7000299AA4EFB1E00E94C23B2B9829985E9A6F
:100F8000A4E6B0E00E94C23B08950E94983A06E1B0
:100F900000930407E8EBFFE00E949A3803E0E6EDD7
:100FA000FFE00E94FE380E94CB380E94473A0E9420
:100FB000EA3B0830E1F70895483D45464044430088
:100FC0004B4B322E302076312E362B2B20532E4297
:100FD000757320523400C00FFA666C76E8EFFFE0BC
:100FE0000E94C13A013009F008950027E0E0F0E0E6
:100FF0000E94233C0C943F00526573657420616C21
:101000006C2073657474696E67732E0000E0009342
:101010004005009341050093420530916F064091D1
:101020007006509171066091400570914105809164
:10103000420558174707360759F030916F0640911F
:1010400070064150304030936F064093700603C0E5
:101050000027009342070091470700236AF400919C
:1010600035070A9500933507002331F400270093D4
:101070004707AFEAA09335070090270710902A078B
:10108000012000923A0700913A07002322F50091CF
:101090003307002302F130916C0640916D064150F8
:1010A000304030936C0640936D06ACF403E000933F
:1010B0006C0600E200936D0600E000936E060FEFF1
:1010C0000093420700E000936F0604E1009370066E
:1010D00000E0009371060090270710902807012474
:1010E00000923A0700913A0700233AF400E0009397
:1010F0008106009382060093830600E0009340057A
:1011000000E00093410501E000934205A1E8B6E04C
:10111000C1E8D6E0E0E4F5E00E942F3C0DE7009343
:10112000400500E00093410500E000934205309146
:10113000810640918206509183066091400570912E
:1011400041058091420558174707360764F0009122
:1011500040050093810600914105009382060091AD
:1011600042050093830600913307002322F000918B
:101170003207002372F400913407002319F10A9515
:101180000093340700E000938406009385060093E3
:1011900086060AE0009340050CEF0093410500E845
:1011A000009342053091810640918206509183065A
:1011B000609140057091410580914205581747079D
:1011C000360704F130918406409185064150304045
:1011D0003093840640938506ACF407E000938406C0
:1011E00000ED0093850600E0009386060FEF009364
:1011F000420701E000936F0600E90093700600E0EB
:101200000093710600904207109041070128009258
:101210003A0700903A0710904707012800923A07D2
:1012200000913A07002312F029980895299A089509
:101230000F93EF93FF93E2E9F0E00E941B3CFF91D4
:10124000EF91002312F00F910895CF93299AC2E3F2
:101250000E94C73B2998CF910F910895402F2A2FC4
:101260003B2F0E94793A01E00093080704E00093C5
:101270000907203049F00AE30093040700E00093D7
:10128000050700E00E941A39022F0B5F041749F08E
:101290000AE30093040702E30093050701E00E94BC
:1012A0001A3901E00093090708E00093050715E0EB
:1012B000FE0104E1029FE00DF11D00E00093040730
:1012C000A4E105910E941A39AA95D9F70090050763
:1012D00008E0000E009205071A9579F708E0039FD1
:1012E000002D095F00930507075F0093070700E0E3
:1012F000009304070FE70093060700E00093080738
:101300000E94073800E00093040709E300930507F3
:10131000E4E1F6E70E9414390E94473AAEE10E94E8
:10132000D53B003021F00970D1F7AA95C1F70E9492
:10133000EB3B083019F4AA27889429C0043061F4E3
:10134000303019F03A950C94CA09203019F02A95DA
:101350000C94CA090C94CA09023071F4343019F0A3
:1013600033950C94CA09042F0550201719F02395C2
:101370000C94CA090C94CA09013061F40E94793AAC
:101380000E94473A0E94E63BA22FA30F0894C22F67
:10139000D32F089566CF30918805409189055091EB
:1013A0008A0560918E0570918F0580919005581780
:1013B0004707360764F40091880500938E05009175
:1013C000890500938F0500918A050093900530915F
:1013D00088054091890550918A0560918B0570912F
:1013E0008C0580918D05581B470B360B3093A30558
:1013F0004093A4055093A5056091A3057091A405A1
:101400008091A50508E00E943C3C6093A305709381
:10141000A4058093A505ABE8B5E0CBE8D5E0E3EA09
:10142000F5E00E942F3C30915406409155065091B2
:10143000560660918B0570918C0580918D05581B27
:10144000470B360B3093A3054093A4055093A50595
:101450000AF44FC06091A3057091A4058091A50581
:1014600002E00E943C3C6093A3057093A405809326
:10147000A50500E00093400500E10093410500E070
:10148000009342053091A3054091A4055091A50514
:1014900060914005709141058091420558174707BA
:1014A000360764F0009140050093A30500914105C3
:1014B0000093A405009142050093A505A3E6B6E0BC
:1014C000C3E6D6E0E3EAF5E00E942F3CB091630664
:1014D000A0916406D0916506AA235AF000914007B6
:1014E000002351F00A95009340070FEF0093410746
:1014F000089504E6009340070027009341070895EC
:1015000000E00093430501E00093440508E30093E5
:10151000450510915406209155063091560640918C
:10152000430550914405609145050E94453C7093E8
:10153000400580934105209242053091400540913D
:10154000410550914205609188057091890580910F
:101550008A055817470736072CF40091430708609F
:10156000009343070895009127070023CAF03091A4
:10157000870640918806415030403093870640935B
:1015800088060CF054C00FEF00932F0701E0009382
:10159000870600E90093880600E00093890647C0AB
:1015A00000912A0700230AF130918A0640918B06A8
:1015B0004150304030938A0640938B06B1F401E0ED
:1015C00000938A060EE800938B0600E000938C06D9
:1015D000A0914A07A395AC3331F4B0914B07B39572
:1015E000B0934B07AA27A0934A0700914307002313
:1015F000F1F000912D07002311F0AAF00EC008E2CF
:101600002B9AE0912E07EA95E0932E0771F4E09172
:101610004307E77FE093430708C00A9509F005C038
:1016200004EC2B9802C0039551F300932D07009111
:101630003607A09137070A1709F423C0009337072C
:10164000AA231AF0AFEFA0934707AA27A093300769
:10165000A09331070023A9F0023081F40FEF00932B
:10166000300700914506009342060091460600931C
:101670004306009147060093440603C0AFEFA093D2
:10168000310700914107002322F000912707002332
:1016900012F02B98089500914307002309F42B9A28
:1016A00008950E94983A0EE200930407E4E3F7E1FC
:1016B0000E949A3800E0009304070AE100930507AE
:1016C000E8E3F7E10E941439BB27A0914907DD2721
:1016D0000E94513800E00093040709E300930507D6
:1016E000E8E4F7E10E9414390E94473A0E94EA3B7D
:1016F000083011F434D00895043041F400914907C2
:101700000E32BCF4039500934907CBCF023041F46D
:101710000091490709316CF00A9500934907C1CF40
:10172000013039F4A0914907E0E7F0E00E94033C62
:101730000895B7CF413B3C004C434420636F6E7427
:10174000726173743A2000004241434B202055508F
:10175000202020444F574E20205341564500E0E7BB
:10176000F0E00E941B3C00934907089504E20093B7
:101770004907E0E7F0E00E94233C089510919C06A1
:1017800020919D0630919E0640914E0650914F0645
:10179000609150060E94453C70934005809341053E
:1017A0002092420500915106009343050091520694
:1017B0000093440500915306009345053091400580
:1017C0004091410550914205609143057091440557
:1017D0008091450558174707360764F00091430587
:1017E0000093400500914405009341050091450593
:1017F0000093420560914305709144058091450531
:10180000552744273327581B470B360B3093430586
:101810004093440550934505309140054091410562
:1018200050914205609143057091440580914505B2
:1018300058174707360764F40091430500934005A5
:101840000091440500934105009145050093420530
:1018500030914C0540914D0550914E0560914005E9
:101860007091410580914205581B470B360B309310
:101870004C0540934D0550934E050895C0E5D9E1C0
:10188000A0910D07B0910C0704E10E942E09C093AE
:101890000D07D0930C0708F00895ECE3F9E10E94DE
:1018A000C13A013009F0EACF0E94F731299AEEE8F7
:1018B000FBE108E10A9FE00DF11DDF017096C5E82C
:1018C000D7E018E0059109931A95E1F7FD01C4E00E
:1018D000D0E03327A591B591EF93FF93FD0116E07A
:1018E000A5E8B7E0A30F0027B01F4C91BF91AF91BF
:1018F0002591042F007809F02195042F087009F034
:101900002FEF022FEF93FF93FE010E94233C2196BD
:10191000FF91EF91440F1A9559F72296FD013395E7
:101920003830C4F20FEFA02FEDEAF0E00E94033C44
:1019300029980E94BF310E94410FA0CF4C6F616473
:10194000206D6F746F72206C61796F75742E00005A
:1019500053696E676C65436F7074657220314D20FA
:101960003453202053696E676C65436F70746572E1
:1019700020324D20325320204475616C436F7074C7
:10198000657220494920202020202020547269437C
:101990006F7074657220494920202020202020206B
:1019A00051756164726F436F707465722078206D39
:1019B0006F64652051756164726F436F70746572F6
:1019C000202B206D6F646520562D5461696C20209A
:1019D000202020202020202020202020562D54614F
:1019E000696C2048756E74657220202020202020AC
:1019F000593420202020202020202020202020209A
:101A00002020202048657861436F70746572202023
:101A10002078206D6F64652048657861436F70742D
:101A200065722020202B206D6F64652048362020B1
:101A300020202020202020202020202020202020A6
:101A4000563620202020202020202020202020204A
:101A50002020202059362020202020202020202037
:101A600020202020202020204F63746F436F70744B
:101A7000657220202078206D6F6465204F63746F3D
:101A8000436F707465722020202B206D6F64652079
:101A90004838202020202020202020202020202006
:101AA00020202020563820202020202020202020E8
:101AB00020202020202020205838202020202020D6
:101AC000202020202078206D6F6465205838202049
:101AD0002020202020202020202B206D6F646520D6
:101AE00000000000000000000064320000006400FC
:101AF000320000006464000000006464320000648E
:101B00000000320000640064320064000000000342
:101B10006400006400036400640000036400646403
:101B2000000364265C640003642A47640003643293
:101B300057640003643D18640003644700640003B5
:101B40006447186400036447470000036447476420
:101B500000036451186400036457320000036457A3
:101B600032640003645C26640003646400000003C4
:101B700064640064000364644764000378005A648A
:101B800000036464642800035F00646400030A1BAC
:101B9000041BF81A041BF81AE01AE01AE01A0000F5
:101BA000004020000000101B101BFE1AEC1AE01A67
:101BB000E01AE01AE01A00100000000000006A1BA2
:101BC0006A1BF21AF21AE01AE01AF21AF21A01402B
:101BD000002000000020581B581B161BE61AE01AB4
:101BE000E01AE61AE01A40012000000010004C1B29
:101BF0004C1B4C1B4C1BE01AE01AE01AE01A401078
:101C00002070000000001C1B701B1C1B701BE01AC6
:101C1000E01AE01AE01A0010205000000000461BF5
:101C2000461B7C1B7C1BE01AE01AE01AE01A4001FC
:101C3000203000000000821B821B881B881BE01ADA
:101C4000E01AE01AE01A50002030000000004C1B9F
:101C50004C1B1C1B1C1BE01AE01AE01AE01A401077
:101C60002030000000002E1B701B2E1B2E1B701B33
:101C70002E1BE01AE01A00102070405000001C1BC0
:101C80005E1B5E1B1C1B5E1B5E1BE01AE01A001035
:101C90002030605000004C1B3A1B4C1B4C1B3A1B65
:101CA0004C1BE01AE01A0010207040500000761B18
:101CB0003A1B281B281B3A1B761BE01AE01A00105F
:101CC0002070405000005E1B5E1B5E1B5E1B1C1BD9
:101CD0001C1BE01AE01A4050001020300000221BAC
:101CE000641B641B221B221B641B641B221B001031
:101CF0002030607040501C1B4C1B701B4C1B1C1B6D
:101D00004C1B701B4C1B00100030207040504C1BB3
:101D1000401B401B4C1B4C1B401B401B4C1B001012
:101D2000203060704050761B521B341B281B281B30
:101D3000341B521B761B00102030607040504C1B2F
:101D40004C1B4C1B4C1B4C1B4C1B4C1B4C1B405032
:101D50000010203060701C1B1C1B701B701B1C1B98
:101D60001C1B701B701B00100010203040501127EE
:101D70000E948A3A05E0E0E5FEE10E94FE3801E0BB
:101D800000930507ECE7F0E005E00F9304E500930E
:101D900004070E94B1380E94F13B0E9492380F91D3
:101DA0000A9599F70E94BD38EAE5FEE104E0019F3B
:101DB000E00DF11D0E9419380E94473A0E94EA3B4B
:101DC000083009F40895043021F41A950AF414E057
:101DD000CFCF023029F41395153009F410E0C8CFA5
:101DE0000130F1F4ECE7F0E002E0019FE00DF11DBD
:101DF000EF93FF930E94F13BEEE6FEE104E0019FCA
:101E0000E00DF11DC591D59105901590E02DF12DB6
:101E10000E944325A02DB12DFF91EF910E94F83B28
:101E2000A7CF414343205472696D20526F6C6C0000
:101E3000414343205472696D205069746368000007
:101E4000534C204D6978696E6720526174650000BB
:101E500006770E77221E301E401E5F0079095F094B
:101E600079125F12791B5F1B79245F24792D0000A2
:101E70008403000084037CFC84037CFC8403050051
:101E80003200EDEAF0E00E941B3C00231AF00E94B1
:101E9000F92608950E94DA1D44240E948A3AE8EE49
:101EA000F1E20E941439442081F4E0EFF1E20E9453
:101EB00014390FEF602E08E0802E55240E948D0FFC
:101EC00053948A948820D1F709C0542C5A94A42D95
:101ED000BB270E94513866240E948D0F01E00093B9
:101EE000090701E00093080700E00093040709E3F5
:101EF00000930507ECEFF1E20E9414390E94473A83
:101F00000E94EA3B083009F40895043029F4439410
:101F100009E0401609F44424C0CFE0E0F5E008E011
:101F2000059DE00DF11D01E0009308070FEF702EF5
:101F3000DD27A181BB27AA2312F4DFEFBFEFB09307
:101F4000F405A093F505D093F60500E00093400555
:101F500000934105009342053091F4054091F50549
:101F60005091F605609140057091410580914205C0
:101F700058174707360709F0772400E0009340051B
:101F800000E00093410500E4009342051091F40540
:101F90002091F5053091F60540914005509141059D
:101FA000609142050E94453C7093F4058093F505CD
:101FB0002092F60500E00093400500E600934105FD
:101FC00000E000934205EF93FF93A4EFB5E0C4EF68
:101FD000D5E0E0E4F5E00E942F3CFF91EF91B09155
:101FE000F405A091F505D091F605A0930407DD272F
:101FF000A281BB27AA2312F4DFEFBFEFB093F40551
:10200000A093F505D093F60500E0009340050093FA
:102010004105009342053091F4054091F50550913A
:10202000F605609140057091410580914205581771
:102030004707360709F077240FEF009340050FEFAD
:102040000093410500EC009342051091F4052091A6
:10205000F5053091F605409140055091410560919C
:1020600042050E94453C7093F4058093F50520924B
:10207000F60500E00093400500E20093410500E012
:1020800000934205EF93FF93A4EFB5E0C4EFD5E0D2
:10209000E0E4F5E00E942F3CFF91EF91B091F40550
:1020A000A091F505D091F605A0930507DD27A08145
:1020B000BB27AA2312F4DFEFBFEFB093F405A09380
:1020C000F505D093F60500E0009340050093410527
:1020D000009342053091F4054091F5055091F605C5
:1020E000609140057091410580914205581747075E
:1020F000360709F07724A381AA2309F077247720F3
:1021000072F466200AF4089502E4009304070BE1D8
:1021100000930507E0EEF1E20E9414390895A581CD
:10212000A0FD0DC0662052F002E4009304070BE10D
:1021300000930507E4EFF1E20E941439089500E6E8
:102140000093060700E2009307070E949739009169
:1021500004070450009304070091050707500093FB
:10216000050704E00093090702E0A381AA230AF00F
:1021700003E00E941A39009104070E5000930407EF
:102180000090050705E0000E0092050700E00093AF
:10219000090700E000930807052D0E941A39662000
:1021A0000AF41DC001E00093090701E0009308074D
:1021B0000FE00093050703E0EF93FF93E4E2F2E200
:1021C0000E94FE38FF91EF9101E200930507A38181
:1021D000AA231AF00E94B83802C00E94B6380895A7
:1021E000556E757365642E004D6F746F723A2000E2
:1021F000414C4C00536572766F2E00004241434BB8
:1022000020204E4558540000446972656374696F1C
:102210006E007365656E2066726F6D0061626F7629
:10222000653A0000082212221C220FEF00933D079E
:102230000027009346070E948A3A03E100930407AF
:10224000ECE4F4E20E94143900E00093040704E196
:102250000093050700913D07002392F002E0E6EAB3
:10226000F4E20E94FE3800E00093040709E30093C3
:102270000507ECE5F4E20E9414390E94473A2EC0AB
:1022800002E0E2EAF4E20E94FE380E94473A00E0EF
:1022900000931E0700E000931F0701E00093210751
:1022A00008E0009320070FEF0093270700E000935A
:1022B000690601E000936A0600E000936B062B9A22
:1022C00006E006BB03E10093400508E800934105E2
:1022D00000E000934205002700932A070E94972FF1
:1022E000009140050093FA05009141050093FB051C
:1022F000009142050093FC05009140050093FD0507
:10230000009141050093FE05009142050093FF05F1
:1023100000914005009300060091410500930106DD
:1023200000914205009302060091400500930306C8
:1023300000914105009304060091420500930506B3
:1023400000914005009306060091410500930706A1
:10235000009142050093080600914005009309068C
:102360000091410500930A060091420500930B0677
:102370000091400500930C060091410500930D0665
:102380000091420500930E060091400500930F0650
:10239000009141050093100600914205009311063B
:1023A0000E94F92F03B1009502950F700F930091D1
:1023B0003D0700236AF40F910023B9F003E1009375
:1023C000400508E80093410500E00093420586CFF0
:1023D0000F910830B9F000E00093400504E6009347
:1023E000410500E00093420579CF00E000934005ED
:1023F00004E60093410500E00093420500270093A6
:102400003D0719CF2B980E9418090895AA27E1E7E4
:10241000F0E00E94033C0895ECEFF4E20E94C13A20
:10242000013009F008950E94983A0E94A23804E011
:10243000E0E1F5E20E94FE380E94473AAFEFE1E7A3
:10244000F0E00E94033C0E94EA3BFDCF455343204D
:1024500043414C4942524154494F4E00455849541A
:10246000000052656C6561736520627574746F6EEF
:10247000206174207468650045534320636F6E6665
:1024800069726D6174696F6E206265657000576175
:10249000697420666F72207468652066696E616C6D
:1024A0000000622478248E247824455343206361FD
:1024B0006C6962726174696F6E2077696C6C000080
:1024C000626520617661696C61626C65206F6E2067
:1024D000746865006E6578742073746172742D750C
:1024E00070206F6E6C792E0052454D4F564520502E
:1024F000524F50532046495253542100446F2045B7
:1025000053432063616C6962726174696F6E2E005F
:10251000AA24C024D424E824A0E0B0E0C6E0D6E297
:1025200014E0FE0104910F93FD010E941B3CEF910A
:102530000E1761F4119621961A9599F7EEEAF0E0DC
:102540000E941B3C00230AF06AD0089505D00E9427
:1025500006120E94B60BF8CFE4E0F0E0A0E0B0E095
:1025600010E40E94033C1A95E1F7A4E4B0E0C0EB4C
:10257000D5E218E14AD0A2E7B0E01AE046D01AE06E
:1025800044D01AE042D016E040D01EE03ED018E021
:102590003CD014E03AD0A0E0B0E014E036D015E032
:1025A0000E941809C0E00E94C73B1A95C9F7089518
:1025B0003200640019001400320064001900140095
:1025C0003200140032000A001E001E0032005A00C1
:1025D00064003C001400000000000A000A00000033
:1025E0001E0000003200FFFFFFFF0000000000009F
:1025F00000000000000000000000010203040506C6
:10260000070800000002190373C4FE010491FD01D4
:102610000E94233C119621961A95B9F708950E94BD
:10262000983A00E100930407EAE5F6E20E949A383E
:1026300004E0E4EBF6E20E94FE380E94D9380E94E2
:10264000473A0E94EA3B0130E1F70FEFEEEAF0E093
:102650000E94233C0E94E63B0895453D4240433C96
:102660003D450000594F5520555345205448495386
:10267000204649524D5741524500415420594F552B
:1026800052204F574E205249534B210052656164EE
:1026900020616C6C20696E636C7564656400646FA6
:1026A00063756D656E7473206361726566756C6CBD
:1026B000792E000064267A268C269E260E94983A5F
:1026C00006E10093040703E40E941A3904E40E941F
:1026D0001A390AE300930407ECEFF6E20E949A38F5
:1026E00003E0EEE3F7E20E94FE380E94CB380E943E
:1026F000473A0E94EA3B0830E1F708953C3A473AEE
:102700000000506C6561736520737570706C792082
:10271000532E427573006461746120746F20746875
:1027200065207468726F74746C650000696E7075F2
:102730007420636F6E6E6563746F722E00000227E3
:1027400016272C27A0911907B0911D07BB2331F440
:1027500000914307006100934307089500914307E8
:102760000F7E009343070A2F017000931A070A9502
:102770000095B0913207009332070B2719F002E35E
:1027800000933407A6950A2F017000931B07A695A6
:10279000A695A17051F0A0931C0700914307006219
:1027A000009343070FEF0093330708950E948A3A7E
:1027B00006E0EAE1FBE20E94FE380E94E7380E9450
:1027C000473A0E94EA3B0130E1F7A5E30E94983ABC
:1027D0000AE30093040706E1009305070A2F0E940D
:1027E0001A390E94473AD4E6C4E60E94C73BDA95FC
:1027F000D9F7AA95AF3209F0E9CF0E948A3A09E1E8
:102800000093040709E100930507E6E2FBE20E945A
:1028100014390E94473AC0E00E94C73BE0E100E063
:1028200000937F0500938005009381050093820546
:102830000093830500938405009385050093860526
:10284000009387050E94B837EF93AFE7B5E0CFE775
:10285000D5E0E6E7F5E00E942F3CA2E8B5E0C2E84B
:10286000D5E0E9E7F5E00E942F3CA5E8B5E0C5E832
:10287000D5E0ECE7F5E00E942F3CEF91C4E60E9422
:10288000C73BEA9509F0DECF60917F057091800526
:102890008091810504E00E943C3C60937F05709329
:1028A00080058093810560918205709183058091F8
:1028B000840504E00E943C3C60938205709383058C
:1028C00080938405609185057091860580918705C8
:1028D00004E00E943C3C60938505709386058093DC
:1028E0008705D8E2C0E00E94C73BDA95D9F70FEF21
:1028F000009339070E948A3A0AE00093050703E033
:10290000E4E6FBE20E94FE380AE000930507B0917E
:102910007F05A0918005D09181050E948B37B091F1
:102920008205A0918305D09184050E948B37B091D8
:102930008505A0918605D09187050E948B370E945E
:10294000E7380E94473A0091390700230AF5EDE580
:10295000F0E0B0917F05A0918005D09181050E94A3
:10296000113CB0918205A0918305D09184050E940D
:10297000113CB0918505A0918605D09187050E94F4
:10298000113CECEAF0E00FEF002F0E94233C0AC05C
:10299000ECEAF0E000270E94233C0091430701602D
:1029A000009343070E94EA3B0130E1F70E948A3A14
:1029B00009E100930507009139070170E0E6FBE2A9
:1029C0000E94F5380E94E7380E94473A0E94EA3B8D
:1029D0000130E1F70895E0E100E00093670500931E
:1029E00068050093690500936A0500936B050093E1
:1029F0006C0500936D0500936E0500936F050E94B2
:102A0000B837EF93A7E6B5E0C7E6D5E0EEE5F5E029
:102A10000E942F3CAAE6B5E0CAE6D5E0E1E6F5E083
:102A20000E942F3CADE6B5E0CDE6D5E0E4E6F5E06A
:102A30000E942F3CEF91C4E60E94C73BEA9509F043
:102A4000DECF60916705709168058091690504E0AB
:102A50000E943C3C6093670570936805809369050C
:102A600060916A0570916B0580916C0504E00E948D
:102A70003C3C60936A0570936B0580936C05609194
:102A80006D0570916E0580916F0504E00E943C3CDD
:102A900060936D0570936E0580936F050895506C7B
:102AA0006163652074686520616972637261667430
:102AB000206F6E0061206C6576656C2073757266A0
:102AC00061636520616E6400707265737320434FAB
:102AD0004E54494E55452E00546865204643207794
:102AE000696C6C207468656E207761697400612080
:102AF0006665772073656320746F206C657420743D
:102B00006865000061697263726166742073657440
:102B1000746C6520646F776E2E009E2AB42AC82AD2
:102B2000D82AEE2A042B43616C6962726174696E63
:102B3000672E2E2E000043616C6962726174696FAA
:102B40006E206661696C65642E0043616C69627217
:102B50006174696F6E207375636365656465640095
:102B6000362B4A2B406F486F506F11272091220758
:102B70000E948A3A05E0EAE8FCE20E94FE3801E0A1
:102B800000930507E0E9F0E04BD04AD049D048D0A7
:102B900047D00E94BD38E4E9FCE204E0019FE00D6B
:102BA000F11D0E9419380E94473A0E94EA3B083002
:102BB000B1F40E94F91F20178CF4E4E4F0E0CCE4B7
:102BC000D0E014E00E94F13BEF93FF93FE010E94DE
:102BD000F83BEF01FF91EF911A95A1F708950430AA
:102BE00029F41A950CF0C4CF14E0C2CF023031F4AE
:102BF0001395153009F0BCCF1127BACF013079F405
:102C00000E94F731E0E9F0E001E0019FE00DF11DE5
:102C10000E941B3C00950E94233C0E94BF31A8CF1C
:102C20000AE5009304070E94B1380E94FF3B0A2F77
:102C30000170EF93FF93EEE4F7E70E94F538FF9100
:102C4000EF910E94933808954C696E6B20526F6C1F
:102C50006C205069746368004175746F2044697317
:102C600061726D00427574746F6E2042656570000C
:102C700041726D696E672042656570730000517521
:102C800069657420455343730000482C582C642C0C
:102C9000702C7E2C64007A0964097A1264127A1B03
:102CA000641B7A2464247A2D11270E948A3A05E055
:102CB000ECEBFDE20E94FE3801E000930507E6E838
:102CC000F0E005E00F930CE6009304070E94F13B4F
:102CD0000E9492380F910A95A9F70E94BD38E6EC40
:102CE000FDE204E0019FE00DF11D0E9419380E94F1
:102CF000473A0E94EA3B083009F40895043021F471
:102D00001A950AF414E0D1CF023029F41395153046
:102D100009F410E0CACF0130F1F4E6E8F0E002E097
:102D2000019FE00DF11DEF93FF930E94F13BEAED4F
:102D3000FDE204E0019FE00DF11DC591D5910590E4
:102D40001590E02DF12D0E944325A02DB12DFF916E
:102D5000EF910E94F83BA9CF4D696E696D756D20AA
:102D60005468726F74746C653A2000004865696736
:102D700068742044616D70656E696E673A2000006A
:102D800048656967687420442E204C696D69742019
:102D90003A200000416C61726D20312F3130205695
:102DA0006F6C74733A200000536572766F20466929
:102DB0006C746572202020203A200000582D6C2D64
:102DC000802D942DA82D6B007F096B097F126B124B
:102DD0007F1B6B1B7F246B247F2D000014000000E1
:102DE000F40100001E0000008403000064000E9443
:102DF0008A3A0027E2E7F0E00F93EF93FF93E4EBCA
:102E0000FEE20E94F538FF91EF910E94F13B06E34C
:102E1000009304070E94B1380E949238A0910407E1
:102E200000E0009304070F910395053029F7A09364
:102E300004070091050709500093050705E20E9469
:102E40001A390E94BD38EEEBFEE204E0019FE00D6E
:102E5000F11D0E9419380E94473A0E94EA3B08304F
:102E600009F40895043021F41A950AF414E0BFCF50
:102E7000023029F41395153009F410E0B8CF013071
:102E8000C1F4E2E7F0E002E0019FE00DF11D0E94D5
:102E9000F13BC0E0D0E0E4EFF1E00E944325A02D3B
:102EA000B12DE2E7F0E002E0019FE00DF11D0E948C
:102EB000F83B9DCFD676DE76E876F076AC764100AC
:102EC0005C0941095C1241125C1B411B5C244124DA
:102ED0005C2D0FEF009346070E94983A0091270758
:102EE0000023A2F402E20093040706E10093050721
:102EF000EAE2F1E30E949A38EAE3F1E30E9419382A
:102F00000DE2009305070E94A9387FC006E20093F6
:102F10000407E4E2F1E30E949A3800E0009304071A
:102F200001E000930507A0914B07C0914A07E3D049
:102F300000E00093040701E100930507E8E6F6E7E7
:102F400070D10E941439D6F000914C07002309F18A
:102F5000E0E3F1E30E94143900914C07013049F499
:102F6000A0912207AA2329F0EEECF6E70E9414397B
:102F700010C0E2E5F7E70E94F5380BC00091440766
:102F8000039500934407017021F0EEE3F1E30E9402
:102F9000193800E0009304070BE100930507E2E411
:102FA000F1E30E94143900913607E8E6F7E70E9442
:102FB000F53804E200930507ECE4F1E3009188059D
:102FC00000934305009189050093440500918A050B
:102FD0000093450520D0E6E5F1E300918E050093CE
:102FE000430500918F0500934405009190050093DF
:102FF00045050E940B1806E60093040709E30093B9
:103000000507EEE1F1E30E9414390E94473A0027D8
:1030100000934607089500E0009304070E941439C6
:1030200000E00093400506E00093410500EE0093A8
:10303000420510914305209144053091450540918A
:10304000400550914105609142050E94453C7093B6
:1030500040058093410520924205609140057091A2
:1030600041058091420508E00E943C3C6093400588
:103070007093410580934205B0914005A0914105B0
:10308000D09142050E9451380EE20E941A39AD2FAC
:10309000BB27DD27B0934005A0934105D09342059F
:1030A00000E00093430500E0009344050AE000932C
:1030B0004505109140052091410530914205409110
:1030C000430550914405609145050E94453C70932D
:1030D00040058093410520924205B0914005A091A2
:1030E0004105D09142050E94513806E50E941A39E7
:1030F0000E9493380895AA301CF400E30E941A3904
:10310000BB270E9451380AE30E941A39AC2FAA301B
:103110001CF400E30E941A390E94513808954D456D
:103120004E550000463A3E3D00003A45423D3C00C7
:103130002E2054756E696E67200000137F280010E2
:103140007F194D6F64652020203A2000426174741D
:103150006572793A20004C6F67676564203A2000F9
:10316000414343206E6F742063616C6962726174C5
:1031700065642E0053616E69747920636865636BC2
:10318000206661696C65642E00004E6F206D6F745F
:103190006F72206C61796F757421000043686563FC
:1031A0006B207468726F74746C65206C6576656CE6
:1031B0002E005258207369676E616C20776173200E
:1031C0006C6F73742100426164206368616E6E6588
:1031D0006C206D617070696E672E000043686563D6
:1031E0006B2061696C65726F6E206C6576656C2E04
:1031F0000000436865636B20656C657661746F726F
:10320000206C6576656C2E004E6F20532E427573D0
:1032100020696E70757421004641494C5341464502
:103220002100689400914307077FB9F400912A07B1
:1032300000231AF0ECE9F1E3089500912B07002335
:103240001AF0ECEDF1E3089500912C0700231AF039
:10325000E2EFF1E30895E8940895009143070470C4
:1032600019F0EAE8F1E3089500914307017019F0BD
:10327000E0E6F1E3089500914307027019F0E4E7F6
:10328000F1E3089500914307007419F0E2EBF1E3D4
:10329000089500914307007819F0E6ECF1E30895F2
:1032A00000914307007119F0E8E0F2E30895E8E1C6
:1032B000F2E3089500902A0710904507012000923C
:1032C0003A0700903A0710902707012000923A072A
:1032D00000913A07002342F000E000937E0600933D
:1032E0007F060093800639C030917E0640917F06AC
:1032F00001E0400F0027301F30937E0640937F0689
:103300000FE10093400500E40093410500E00093C5
:10331000420530917E0640917F0650918006609173
:1033200040057091410580914205581747073607BF
:10333000A1F400E000937E0600937F0600938006D0
:103340000027009327070FEF00932F070FEF00933D
:10335000330701E000933407089500912A07002302
:1033600092F50EEF009340050CE00093410500E05C
:103370000093420530914F05409150055091510501
:1033800060914005709141058091420558174707AB
:103390003607ECF001E00093400504EF009341058F
:1033A00000E00093420530914F0540915005509147
:1033B0005105609140057091410580914205581773
:1033C0004707360724F400E0009329070895009189
:1033D0002907039500932907009129070F3F09F05A
:1033E00054C0B0914F05A0915005D0915105BB2319
:1033F0000AF500914307077F09F0089500912B0714
:103400000023DAF700912C070023BAF70FEF00939F
:10341000270701E000936F060CE20093700600E0BE
:10342000009371060E94EB140E94F71B0AE00093C0
:103430002E070CC000270093270700E000936F06BB
:1034400006E90093700600E00093710600270093E0
:103450003307E3E9F0E00E94FF3BAA231AF40FEFE1
:10346000009342070FEF00932F0703E000936C06D1
:1034700000E200936D0600E000936E0600E000930A
:103480007E0600937F0600938006089593D39ED313
:103490009CD509E00093400504EC0093410500E051
:1034A0000093420500E000933C07EF93FF933091B7
:1034B00040054091410550914205E2E1F6E06091FE
:1034C0003C0703E0609FE00DF11D31934193519360
:1034D000FF91EF9100913C07039500933C07009109
:1034E0003C07083011F76AD4E6E8F0E0EAD100E0E2
:1034F0000093430502E30093440500E00093450573
:1035000010914005209141053091420540914305BD
:1035100050914405609145050E94453C7093E20539
:103520008093E3052092E405CCD1009140050093FF
:103530004E060091410500934F060091420500930D
:103540005006BFD1C8D100914005009351060091AB
:103550004105009352060091420500935306B1D1F4
:1035600000E00093430503E00093440509EB00935A
:10357000450510914005209141053091420540914B
:10358000430550914405609145050E94453C709368
:103590005406809355062092560693D100E000937E
:1035A000430504E60093440500E00093450530918F
:1035B0004305409144055091450560914005709147
:1035C000410580914205581B470B360B3093690625
:1035D00040936A0650936B066091690670916A0683
:1035E00080916B0607E00E943C3C609369067093F3
:1035F0006A0680936B06E2E7F0E063D117D1009191
:1036000040050093E505009141050093E605009112
:1036100042050093E70555D109D10091400500937B
:10362000E805009141050093E905009142050093EA
:10363000EA0547D1FBD0009140050093EB050091CE
:1036400041050093EC05009142050093ED0539D149
:10365000EDD0009140050093EE05009141050093E7
:10366000EF05009142050093F0052BD1EFD00091BA
:1036700040050093F105009141050093F20500918A
:1036800042050093F305CCE7D7E0E4EAF0E0B8D4D4
:10369000B7D4B6D4B5D4B4D4B3D4B2D4B1D426D478
:1036A000EDE5F0E00E94073CB0937F05A093800514
:1036B000D09381050E94073CB0938205A0938305B7
:1036C000D09384050E94073CB0938505A09386059E
:1036D000D09387058ED40E943725E1E9F0E00E945F
:1036E0001B3C009345070FEF0093370700932F070C
:1036F00001E00093210705E00093200700270093D5
:10370000460700932707009328070093300700938C
:103710003207009333070093420700934107009359
:10372000470700937E0600937F0600938006009370
:103730006F06009370060093710600936C06009369
:103740006D0600936E060093810600938206009337
:1037500083060093840600938506009386060093F3
:10376000870600938806009389060093AB060093B2
:10377000AC060093AD060093AE060093AF0600932F
:10378000B00600938D0600938E0600938F0600937B
:103790009006009391060093920629D003E00093CF
:1037A0008B050FEF00938C0500E000938D050091D1
:1037B00043070071009343070E947207EDEAF0E0AF
:1037C0000E941B3C00232AF00091430704600093F1
:1037D0004307ECEAF0E00E941B3C002332F000912A
:1037E00043070160009343070895CAD0089500E09D
:1037F0000093D2060093D3060093D4060093D50617
:1038000000E00093D6060093D7060093D8060093F5
:10381000D90601E00093DA0600E00093DB0600E041
:103820000093DC0600E00093DD06089560914005FA
:10383000709141058091420504E00E943C3C6093F8
:1038400040057093410580934205089500E0009380
:10385000430500E00093440502E5009345051091FF
:10386000400520914105309142054091430550911A
:103870004405609145050E94453C70934005809346
:1038800041052092420500E00093430500E00093CB
:10389000440508E00093450510914005209141053D
:1038A0003091420540914305509144056091450592
:1038B0000E94453C7093400580934105209242054B
:1038C00008950E94F13BDD27B0934005A093410588
:1038D000D0934205089500E00093430500E800936B
:1038E000440500E0009345051091400520914105F5
:1038F0003091420540914305509144056091450542
:103900000E94453C709340058093410520924205FA
:1039100008954F6E65206F72206D6F72652073651C
:103920007474696E67730000617265206F7574202E
:103930006F66206C696D69747321000053656E7346
:103940006F722063616C6962726174696F6E0000EE
:1039500064617461206F7574206F66206C696D6995
:103960007473210053656E736F72207261772064E7
:1039700061746100123928393C3950396439283969
:103980000E948A3A00E00093040701E100930507D2
:10399000B091E205A091E305D091E405C0E0D0E04C
:1039A000E9EEF3E00E94D01D08F4C9C0B0914E06C4
:1039B000A0914F06D0915006C0E0D0E0E5EFF1E0D5
:1039C0000E94D01D08F4BBC0B0915106A0915206D0
:1039D000D0915306C0E0D0E0E1E0FFE00E94D01DAE
:1039E00008F4ADC0B0916705A0916805D091690554
:1039F000C0E9D1E0EAEDF2E00E94D01D08F4A5C0D4
:103A0000B0916A05A0916B05D0916C05C0E9D1E039
:103A1000EAEDF2E00E94D01D08F497C0B0916D0568
:103A2000A0916E05D0916F05C0E9D1E0EAEDF2E01A
:103A30000E94D01D08F489C0B0917F05A091800537
:103A4000D0918105C2ECD1E0E2E5F3E00E94D01D07
:103A500008F47BC0B0918205A0918305D0918405C4
:103A6000C2ECD1E0E2E5F3E00E94D01D08F46DC0A5
:103A7000B0918505A0918605D0918705C2ECD1E073
:103A8000E2E5F3E00E94D01D08F45FC00E94B83761
:103A90000E94B837B0915E05A0915F05D091600596
:103AA000C4E6D0E0E4E8F3E00E94D01D08F453C07F
:103AB000B0916105A0916205D0916305C4E6D0E0A4
:103AC000E4E8F3E00E94D01D08F445C0B09164051D
:103AD000A0916505D0916605C4E6D0E0E4E8F3E086
:103AE0000E94D01D08F437C0B0917605A0917705EB
:103AF000D0917805C4E6D0E0E4E8F3E00E94D01D60
:103B000008F429C0B0917905A0917A05D0917B0580
:103B1000C4E6D0E0E4E8F3E00E94D01D08F41BC046
:103B2000B0917C05A0917D05D0917E05C4E6D0E0E2
:103B3000E4E8F3E00E94D01D08F40DC0089502E00F
:103B4000E4E7F9E30E94FE380BC002E0E8E7F9E39E
:103B50000E94FE3805C002E0ECE7F9E30E94FE385F
:103B6000009143070260009343070E94E73800E09A
:103B70000093050703E0009309070E94A2380E9402
:103B8000473A299AD7E2C0E00E94C73BDA95D9F7B5
:103B900029980E94EA3B0130E1F70E94E63B089534
:103BA000AC17BD072CF0AE17BF0714F48894089526
:103BB00008940895C0E4A0E0B5E0E4E0F0E00E94DD
:103BC0001B3C0D933196CA95D1F70895E4E4F0E0DB
:103BD00078DE009140050093A60500914105009311
:103BE000A705009142050093A805009140050093A8
:103BF000CA05009141050093CB0500914205009351
:103C0000CC055FDE68DE009140050093AF050091B2
:103C100041050093B005009142050093B10551DEC6
:103C2000009140050093D305009141050093D40510
:103C3000009142050093D505F9DD00914005009300
:103C4000B805009141050093B90500914205009324
:103C5000BA0537DE40DE009140050093C1050091B2
:103C600041050093C205009142050093C3050091F0
:103C70002207002312F4E4E4F0E023DE0091400583
:103C80000093A905009141050093AA050091420502
:103C90000093AB05009140050093CD0500914105CF
:103CA0000093CE05009142050093CF050ADE13DE96
:103CB000009140050093B205009141050093B305C2
:103CC000009142050093B405FCDD0091400500938E
:103CD000D605009141050093D70500914205009358
:103CE000D805A4DD009140050093BB050091410576
:103CF0000093BC05009142050093BD05E2DDEBDDBC
:103D0000009140050093C405009141050093C5054D
:103D1000009142050093C605E4E5F0E0D2DD009194
:103D200040050093AC05009141050093AD0500915D
:103D300042050093AE05009140050093D005009127
:103D400041050093D105009142050093D205B9DDEC
:103D5000C2DD009140050093B50500914105009337
:103D6000B605009142050093B705ABDD0091400513
:103D70000093D905009141050093DA0500914205B1
:103D80000093DB0553DD009140050093BE050091D3
:103D900041050093BF05009142050093C00591DDE8
:103DA0009ADD009140050093C705009141050093FD
:103DB000C805009142050093C9050895ECE7F0E0BD
:103DC00080DD00914005009342060091410500937B
:103DD000430600914205009344060091400500937C
:103DE0004506009141050093460600914205009367
:103DF000470667DD00E0009343050AE000934405B1
:103E000000E0009345051091400520914105309157
:103E100042054091430550914405609145050E943B
:103E2000453C70934B0680934C0620924D0649DD2D
:103E300000914005009378060091410500937906B2
:103E40000091420500937A0660914005709141050A
:103E50008091420503E00E943C3C609340057093D2
:103E60004105809342050091400500937206009140
:103E7000410500937306009142050093740621DD0D
:103E80000091400500937B060091410500937C065C
:103E90000091420500937D066091400570914105B7
:103EA0008091420503E00E943C3C60934005709382
:103EB00041058093420500914005009375060091ED
:103EC0004105009376060091420500937706F9DCE0
:103ED000BDDC009140050093480600914105009328
:103EE00049060091420500934A060895E6E9F0E08C
:103EF000E8DC009140050093BD0600914105009368
:103F0000BE06009142050093BF0690DC009140057B
:103F100000939F06009141050093A0060091420581
:103F20000093A106CEDC009140050093A20600910B
:103F300041050093A306009142050093A406C1DC4D
:103F4000009140050093C006009141050093C10611
:103F5000009142050093C20669DC00914005009380
:103F6000A506009141050093A60600914205009325
:103F7000A706A7DC009140050093A8060091410523
:103F80000093A906009142050093AA069ADC0091CD
:103F900040050093B106009141050093B2060091DF
:103FA00042050093B3068DDC009140050093B406F2
:103FB000009141050093B506009142050093B606B5
:103FC0000E94FF3BA09348070895C8E0E0E0F5E0B9
:103FD0000581889401FD0894A795889400FD0894B4
:103FE000B7953896CA95A1F7A0931E07B0931F07FF
:103FF0000895E0E9F0E00E941B3C00932207089539
:104000000E94FF3BAA95A9930895112722270E9499
:104010008A3AECEEF0E40E94143900912207002362
:104020003AF4223029F0EEECF6E70E94143905C08C
:10403000022FE2E1F1E40E94F53800E0009304076A
:104040000AE00093050700270F93EAE0F1E40E94DD
:10405000F5380AE2009304070E94B1380F910F93DC
:10406000302F5AD00E94923800E0009304070F913D
:10407000039504304CF30E94BD38E6EFF0E404E011
:10408000019FE00DF11D0E9419380E94473A0E94DD
:10409000EA3B083009F40895043021F41A950AF433
:1040A00014E0B5CF023029F41395153009F410E06F
:1040B000AECF0130E9F7103061F42395233009F4D5
:1040C0002227213029F40091220700230AF422E05C
:1040D0009ECF312F3A9520D0C0E0D0E0E0E0FDE760
:1040E0000E944325A02DB12D20D091CF4178697336
:1040F0002020203A20003400670934094F1234127E
:104100004F1B341B4F2434244F2D06770E77167720
:104110001E77D676DE76E87611D00E941B3CA02F63
:1041200031960E941B3CB02F089508D00A2F0E94A0
:10413000233C31960B2F0E94233C0895E4E4F0E0E9
:10414000022F000F000F000FE00F0027F01F032FBA
:10415000000FE00F0027F01F08950E94E61D0E9447
:10416000DE1E0E94761FA6D182D40E942B340091BD
:104170007B07033041F0C9E10E94C73B00911D0756
:1041800000230AF486C000914C07002311F40E941A
:10419000FC351091550520915605309157054091F9
:1041A000C3065091C4066091C5060E94453C7093B9
:1041B000DC058093DD052092DE05109158052091E5
:1041C000590530915A054091C3065091C40660913B
:1041D000C5060E94453C7093DF058093E005209260
:1041E000E10580D20E948A3AE8EEF2E40E94143996
:1041F00000914C07002359F003304CF4A0912207A2
:10420000AA2329F0EEECF6E70E94143904C0E2E597
:10421000F7E70E94F53800E0009304070AE00093F6
:10422000050700914C07E2E3F3E40E94F538EEE065
:10423000F3E4B091DC05A091DD05D091DE05F0D06E
:1042400000914C07E0E4F3E40E94F538E4E1F3E484
:10425000B091DF05A091E005D091E105E1D0E6EF56
:10426000F2E40E94143900914D07E0E6F7E70E945E
:10427000F53800E00093040709E300930507EEEF2B
:10428000F5E70E941439E4E0F3E40E9419380E9433
:10429000473A0E94D53B083009F40895043021F4D0
:1042A0000E941809D2D061CF023039F465D10E9442
:1042B0001809A0914C0736D158CF013009F055CFDD
:1042C00000914C07039507300CF00027023029F4C9
:1042D000A0912207AA230AF4039500934C070E9499
:1042E00018090E94E63B41CF54756E696E67204DF8
:1042F0006F64653A2000496E707574205261746570
:10430000203A20004C007F09546573740000417509
:104310007832000041757833000052204761696EA1
:10432000000050205472696D000052205472696D73
:10433000000008430677067706770677224306775C
:104340000843167716771677FA662A431A43463AD1
:10435000483D3C0043444700506C656173652063F1
:10436000656E74657220796F75722054580074758B
:104370006E696E6720636F6E74726F6C73206E6F00
:10438000772E0000412054756E696E67204D6F6472
:1043900065206D7573742062650073656C65637468
:1043A00065642066697273742E0058436E438443BB
:1043B0009A4353455420494E505554205241544538
:1043C000000053656C65637420696E7075742072AB
:1043D00061746520666F7200616C6C2074756E6923
:1043E0006E67206D6F6465732E20557365004C4FAA
:1043F0005720666F722066696E652D74756E696EE2
:10440000672E00004241434B20204C4F57204D4522
:104410004449554D204849474800C243D843EE43DC
:1044200000910407002309F408950FE20E941A394D
:104430000E94143902E4009304070E94B1380E94DC
:10444000923800E00093040708950E948A3A06E13A
:1044500000930407E2EBF3E40E9414390DE00093AB
:10446000050703E0EAE1F4E40E94FE3800E000936F
:10447000040709E300930507E4E0F4E40E9414391B
:104480000E94473A0E94EA3B077089F0043011F419
:10449000A1E008C0023011F4A2E004C0013009F02C
:1044A000D4CFA3E0EFEAF0E00E94033C03D00E94E7
:1044B000E63B0895EFEAF0E00E94FF3BA370AA23D9
:1044C00009F4A2E0A13051F400E00093400500E0BF
:1044D0000093410506E20093420515C0A23051F455
:1044E00000E00093400500E00093410503E70093DE
:1044F000420509C000E00093400500E0009341053B
:1045000000EC00934205A0934D07009140050093F5
:10451000C306009141050093C40600914205009333
:10452000C50608950E94983A0AE000930407AA235A
:1045300041F4E4E5F3E40E9414390AE3009304072C
:1045400003C002E200930407EEE4F3E40E949A3809
:10455000EAEAF3E4AA2311F4EEEAF3E402E00E94AB
:10456000FE380E94D9380E94473A0E94EA3B013047
:10457000E1F70E94E63B089500914C07002309F4FF
:104580000895B091DC05A091DD05D091DE050130E4
:10459000C9F4B093CA05A093CB05D093CC050027EE
:1045A000CC278BD00027C2E0B091DF05A091E005B9
:1045B000D091E105B093D305A093D405D093D50550
:1045C0007CD008950230C9F401E0CC27B093CD052A
:1045D000A093CE05D093CF0570D001E0C2E0B0919A
:1045E000DF05A091E005D091E105B093D605A09339
:1045F000D705D093D80561D008950330C9F4B0939E
:10460000D005A093D105D093D20502E0CC2755D098
:1046100002E0C2E0B091DF05A091E005D091E10594
:10462000B093D905A093DA05D093DB0546D0089561
:10463000043059F4B0934506A0934606D09347063C
:10464000ECE7F0E00E94F83B08950530D9F4B09310
:104650007B06A0937C06D0937D06E2E8F0E00E9402
:10466000F83BB091DF05A091E005D091E105B09352
:104670007806A0937906D0937A06E0E8F0E00E94ED
:10468000F83B0895B093C006A093C106D093C2062C
:10469000EAE9F0E00E94F83BB091DF05A091E00567
:1046A000D091E105B093BD06A093BE06D093BF069E
:1046B000E6E9F0E00E94F83B0895E4E4F0E0000F42
:1046C000000F000FE00F0027F01F0C2F000FE00F6E
:1046D0000027F01F0A2F0E94233C31960B2F0E94C7
:1046E000233C089500914C07002309F408950E948B
:1046F000FC35109155052091560530915705409194
:10470000C3065091C4066091C5060E94453C709353
:104710005505809356052092570510915805209114
:10472000590530915A054091C3065091C4066091D5
:10473000C5060E94453C7093580580935905209208
:104740005A0500914C070130C1F50091CA0500934C
:1047500043050091CB05009344050091CC050093DF
:1047600045050091D305009340050091D4050093C1
:1047700041050091D505009342054CD10E94161CBD
:104780000091DC050093A6050091DD050093A705C7
:104790000091DE050093A805009140050093B8053F
:1047A000009141050093B905009142050093BA05B7
:1047B000009122070023F2F008950230A1F5009144
:1047C000CD05009343050091CE050093440500916B
:1047D000CF05009345050091D60500934005009153
:1047E000D705009341050091D8050093420512D1E9
:1047F0000E94161C0091DC050093A9050091DD05BF
:104800000093AA050091DE050093AB0500914005D9
:104810000093BB05009141050093BC050091420542
:104820000093BD0508950330A1F50091D0050093D4
:1048300043050091D105009344050091D2050093F2
:1048400045050091D905009340050091DA050093D4
:1048500041050091DB0500934205DCD00E94161C47
:104860000091DC050093AC050091DD050093AD05DA
:104870000091DE050093AE05009140050093BE0552
:10488000009141050093BF05009142050093C005CA
:104890000895043009F50091450600934305009101
:1048A0004606009344050091470600934505B2D0A3
:1048B00000E00093DF050093E0050093E10500911F
:1048C000DC05009342060091DD050093430600914C
:1048D000DE05009344060895053009F054C0AFED9D
:1048E000B5E0C8E7D6E0E8E5F5E00E942F3C30915E
:1048F0007B0640917C0650917D0660915505709134
:10490000560580915705581B470B360B3093DC0535
:104910004093DD055093DE050091DC05009375069C
:104920000091DD05009376060091DE050093770681
:104930000091DF05009372060091E0050093730675
:104940000091E105009374066091750670917606FA
:104950008091770603E00E943C3C6093750670935B
:104960007606809377066091720670917306809147
:10497000740603E00E943C3C6093720670937306D9
:10498000809374060895AFEDB5E0CDEBD6E0E8E591
:10499000F5E00E942F3CACEDB5E0C0ECD6E0E5E5DB
:1049A000F5E00E942F3C0091DC050093A5060091E4
:1049B000DD050093A6060091DE050093A706009191
:1049C000DF0500939F060091E0050093A00600918B
:1049D000E1050093A1066091A5067091A60680915D
:1049E000A70604E00E943C3C6093A5067093A606CF
:1049F0008093A70660919F067091A0068091A10602
:104A000004E00E943C3C60939F067093A006809354
:104A1000A1060895ACEDB5E0C3E4D5E0E5E5F5E029
:104A20000E942F3C3CF400E00093DC050093DD0580
:104A30000093DE05AFEDB5E0C0E4D5E0E8E5F5E0D4
:104A40000E942F3C3CF400E00093DF050093E0055A
:104A50000093E1050091DF05009340050091E0051A
:104A6000009341050091E1050093420508950091EE
:104A70004C07023039F40091220700231AF401E0B8
:104A800000934C0708952F923F924F925F926F923E
:104A90007F928F921F932F933F934F935F936F93C8
:104AA0007F938F939F93AF93BF93CF93DF93EF93B6
:104AB000FF9311E002E00093080701E0009309076B
:104AC00000E00093040708E3009305070FE7009355
:104AD000060700E4009307070E94073801E00093EF
:104AE000080700E00093040709E300930507EF932C
:104AF000FF93E2E1FCE40E941439FF91EF910EE193
:104B00000093040703E10093050702E600930607FC
:104B10000AE20093070702E0009308070E940738A3
:104B20000EE10093040703E10093050702E60093FA
:104B300006070AE20093070701E0009308070E94B6
:104B40002A380FE10093040704E10093050701E60A
:104B50000093060709E2009307070E942A3802E241
:104B60000093040708E10093050703E00093090799
:104B70000E9451380E94473A2EE10E94D53B0030F6
:104B800011F02A95D1F7003009F411E00E94D53BCD
:104B90000030C9F30E941809083039F4A0E0B0E0F1
:104BA000AC17BD070CF4DE01AACF043061F4A11BE1
:104BB0000027B00BAC17BD070CF4DE0113951F3FA7
:104BC00008F01FEF9CCF023041F4A10F0027B01F67
:104BD000AE17BF070CF0DF01F1CF0130C9F40A2E88
:104BE0001B2EFF91EF91DF91CF91BF91AF919F91DC
:104BF0008F917F916F915F914F913F912F911F9175
:104C00008F907F906F905F904F903F902F9008957E
:104C100076CF434C522020444F574E2020205550F1
:104C2000202020444F4E4500EDEAF0E00E941B3C5E
:104C3000002312F0DED0089510E022270E948A3A65
:104C400006E600930407E6E8FDE40E941439A22F6B
:104C5000A395BB270E94513800E00093040701E0B0
:104C60000093050700270F93EAEAFDE40E94F53858
:104C70000F910F93302FDED0F1D000E300930407A3
:104C80000E94B1380E94923800E0009304070F910F
:104C90000395053044F300E000930407EAE8FDE4DF
:104CA0000E94143935E0C6D00F930170E4EBFDE4A7
:104CB0000E94F53808E400930407E0E9FDE40E944F
:104CC00014390F9106950170E8EBFDE40E94F53868
:104CD0000E94BD38E6E6FDE404E0019FE00DF11D11
:104CE0000E9419380E94473A0E94EA3B083009F4B2
:104CF0000895043019F41A951770A0CF023019F4F2
:104D0000139517709BCF013069F5103019F4239576
:104D1000277094CF113078F0163068F4312F3A951F
:104D200089D09CD0C1E8DFEFEFE7F0E00E94432597
:104D3000002D83D083CF163061F40E94F73135E027
:104D400079D0A1E00A2700FD026077D00E94BF3130
:104D500075CF173039F435E06DD0A2E00A2700FD99
:104D600002606BD06BCF78007F093A0056093A0990
:104D700056123A12561B3A1B56243A24562D1D2D14
:104D80003D36662D7E3643683A00547970653A00A8
:104D9000526174653A00536572766F004553430063
:104DA0004869676800004C6F7700F076D676DE764B
:104DB000E876FE76964D9C4DA64DA04D43440000EE
:104DC0003A3B3B3D4646000041204D6F746F7220D8
:104DD0004C61796F7574206D757374006265206C19
:104DE0006F616465642066697273742E0000C84D3B
:104DF000DC4D0E94983A0AE000930407ECEBFDE4D6
:104E00000E941439009004070CE0000E0092040781
:104E1000E0ECFDE40E949A3802E0EEEEFDE40E9430
:104E2000FE380E94D9380E94473A0E94EA3B01307E
:104E3000E1F7089507D00C941B3C0F9303D00F911A
:104E40000C94233CE4E0F0E0022F000F000F000F71
:104E5000E00F0027F01FE30FF01F0895A02FBB27DE
:104E6000AA230AF4BFEF089500E00093F70502E3D8
:104E70000093F80500E00093F905E0E0F5E0D6D0F6
:104E80000091F40500932A060091F50500932B0686
:104E90000091F60500932C06009140050093FA0559
:104EA000009141050093FB05009142050093FC052C
:104EB000E8E0F5E0BBD00091F40500932D060091E9
:104EC000F50500932E060091F60500932F0600913C
:104ED00040050093FD05009141050093FE050091FA
:104EE00042050093FF05E0E1F5E0A0D00091F40554
:104EF000009330060091F505009331060091F60508
:104F00000093320600914005009300060091410590
:104F1000009301060091420500930206E8E1F5E0E6
:104F200085D00091F405009333060091F5050093B8
:104F300034060091F6050093350600914005009374
:104F40000306009141050093040600914205009379
:104F50000506E0E2F5E06AD00091F405009336061C
:104F60000091F505009337060091F6050093380689
:104F70000091400500930606009141050093070645
:104F80000091420500930806E8E2F5E04FD0009159
:104F9000F405009339060091F50500933A06009157
:104FA000F60500933B060091400500930906009129
:104FB000410500930A060091420500930B06E0E3C9
:104FC000F5E034D00091F40500933C060091F5051E
:104FD00000933D060091F60500933E0600914005C2
:104FE00000930C060091410500930D0600914205C7
:104FF00000930E06E8E3F5E019D00091F405009364
:105000003F060091F505009340060091F6050093D8
:1050100041060091400500930F0600914105009361
:10502000100600914205009311060895DD27A48122
:10503000BB27AA2312F4DFEFBFEFB093F405A093D0
:10504000F505D093F6051091F4052091F505309102
:10505000F6054091F7055091F8056091F9050E9419
:10506000453C7093F4058093F5052092F605B091C8
:10507000F405A091F505D091F605008130914C051D
:1050800040914D0550914E050E948B3C018130911D
:10509000910540919205509193050E948B3C0281AD
:1050A0003091940540919505509196050E948B3C56
:1050B00003813091970540919805509199050E9480
:1050C0008B3CB0934005A0934105D09342050895D1
:1050D0000091310700230AF0BDC000E000934005B5
:1050E0000093410500934205009146050093430556
:1050F000009147050093440500914805009345053C
:10510000309143054091440550914505609140051B
:10511000709141058091420558174707360794F46E
:1051200060914305709144058091450555274427BA
:105130003327581B470B360B3093430540934405E8
:10514000509345053091490540914A0550914B05D2
:1051500060914005709141058091420558174707BD
:1051600036076CF0009149050093400500914A050F
:105170000093410500914B05009342051EC000912C
:1051800049050093400500914A05009341050091AF
:105190004B05009342056091400570914105809157
:1051A0004205552744273327581B470B360B3093AE
:1051B000400540934105509342053091430540918D
:1051C00044055091450560914005709141058091DD
:1051D000420558174707360764F4009140050093CD
:1051E0004305009141050093440500914205009359
:1051F00045051091430520914405309145054091A6
:1052000048065091490660914A060E94453C7093B9
:10521000400580934105209242053091450640911A
:105220004606509147066091400570914105809176
:105230004205581B470B360B3093420640934306FA
:10524000509344063CF400E000934206009343066A
:10525000009344060E94B83730915E0540915F0587
:1052600050916005609167057091680580916905AE
:10527000581B470B360B30935E0540935F055093E8
:105280006005309161054091620550916305609120
:105290006A0570916B0580916C05581B470B360BA6
:1052A0003093610540936205509363053091640526
:1052B000409165055091660560916D0570916E0590
:1052C00080916F05581B470B360B30936405409354
:1052D00065055093660530917605409177055091AC
:1052E000780560917F057091800580918105581B3C
:1052F000470B360B3093760540937705509378052E
:105300003091790540917A0550917B056091820535
:105310007091830580918405581B470B360B3093A1
:10532000790540937A0550937B0530917C05409137
:105330007D0550917E05609185057091860580916F
:105340008705581B470B360B30937C0540937D0532
:1053500050937E05A6E7B5E0C6E7D5E0E5E7F6E0C1
:105360000E942F3CA9E7B5E0C9E7D5E0E2E7F6E007
:105370000E942F3C00E00093430500E000934405A9
:1053800007E00093450530917605409177055091EF
:105390007805609196067091970680919806581B43
:1053A000470B360B3093A3054093A4055093A505F6
:1053B0001091A3052091A4053091A50540914305C6
:1053C00050914405609145050E94453C7093A305AA
:1053D0008093A4052092A505A6E9B6E0C6E9D6E02B
:1053E000E3EAF5E00E942F3C3091790540917A057F
:1053F00050917B056091990670919A0680919B0669
:10540000581B470B360B3093A3054093A4055093CC
:10541000A5051091A3052091A4053091A505409103
:10542000430550914405609145050E94453C7093A9
:10543000A3058093A4052092A505A9E9B6E0C9E9D2
:10544000D6E0E3EAF5E00E942F3C30917C054091E4
:105450007D0550917E0560919C0670919D0680911E
:105460009E06581B470B360B3093A3054093A405AB
:105470005093A5051091A3052091A4053091A50591
:105480004091430550914405609145050E94453C7B
:105490007093A3058093A4052092A505ACE9B6E01E
:1054A000CCE9D6E0E3EAF5E00E942F3C00E000936F
:1054B000400500E00093410503EB00934205109185
:1054C000990620919A0630919B0640914005509193
:1054D0004105609142050E94453C709357068093B8
:1054E0005806209259061091960620919706309101
:1054F00098064091400550914105609142050E94F7
:10550000453C70935A0680935B0620925C0600919E
:105510005E050093700500915F0500937105009191
:105520006005009372050091610500937305009179
:10553000620500937405009163050093750500E012
:105540000093400504E10093410500E0009342050B
:1055500030915A0640915B0650915C06609140057F
:1055600070914105809142055817470736070CF0A6
:10557000DAC0309157064091580650915906609113
:10558000400570914105809142055817470736073D
:105590000CF0C9C0609140057091410580914205B1
:1055A000552744273327581B470B360B30934005AC
:1055B000409341055093420530915A0640915B0655
:1055C00050915C06609140057091410580914205C3
:1055D0005817470736070CF4A6C03091570640917C
:1055E000580650915906609140057091410580918F
:1055F00042055817470736070CF495C000E00093A2
:1056000040050CE30093410500E000934205309112
:105610009C0640919D0650919E06609140057091B8
:105620004105809142055817470736070CF07BC0AB
:1056300060914005709141058091420555274427AE
:105640003327581B470B360B3093400540934105D9
:105650005093420530919C0640919D0650919E06C4
:1056600060914005709141058091420558174707A8
:1056700036070CF458C030918D0640918E0650913B
:105680008F06609157067091580680915906581BF5
:10569000470B360B3093400540934105509342052C
:1056A00060914005709141058091420502E00E94A1
:1056B0003C3C609340057093410580934205A0E710
:1056C000B5E0C0E7D5E0E0E4F5E00E942F3C309182
:1056D0009006409191065091920660915A06709101
:1056E0005B0680915C06581B470B360B30934005D8
:1056F00040934105509342056091400570914105EA
:105700008091420502E00E943C3C6093400570930A
:10571000410580934205A3E7B5E0C3E7D5E0E0E4A7
:10572000F5E00E942F3C0E9423050E94FF050E9485
:10573000860600912A0700239AF400E000939A0558
:1057400000939B0500939C0500939D0500939E0587
:1057500000939F050093A0050093A1050093A20567
:1057600060914605709147058091480504E00E94CC
:105770003C3C6093460570934705809348056091D3
:10578000490570914A0580914B0504E00E943C3C1C
:105790006093490570934A0580934B0560914F05CE
:1057A000709150058091510504E00E943C3C60934B
:1057B0004F05709350058093510510914605209137
:1057C0004705309148054091E5055091E605609107
:1057D000E7050E94453C709346058093470520925B
:1057E00048051091490520914A0530914B0540919B
:1057F000E8055091E9056091EA050E94453C7093E7
:10580000490580934A0520924B0510914F05209140
:105810005005309151054091EB055091EC05609198
:10582000ED050E94453C70934F05809350052092F2
:10583000510510914C0520914D0530914E05409138
:10584000EE055091EF056091F0050E94453C709384
:105850004C0580934D0520924E05009130070023A2
:105860006AF10091310700230AF03EC1109146050C
:1058700020914705309148054091F1055091F2057E
:105880006091F3050E94453C7093910580939205C9
:10589000209293051091490520914A0530914B05BE
:1058A0004091F1055091F2056091F3050E94453C4D
:1058B0007093940580939505209296056091460516
:1058C0007091470580914805552744273327581B79
:1058D000470B360B309346054093470550934805D8
:1058E00060914605709147058091480501E00E944E
:1058F0003C3C609346057093470580934805309182
:105900008D0640918E0650918F06609146057091EC
:10591000470580914805581B470B360B3093A3056C
:105920004093A4055093A5056091A3057091A4052B
:105930008091A50504E00E943C3C6093A305709310
:10594000A4058093A5051091A3052091A40530918D
:10595000A5054091420650914306609144060E947D
:10596000453C709360068093610620926206009128
:105970004B0600935D0600914C0600935E06009175
:105980004D0600935F0688D200916006009346059D
:105990000091610600934705009162060093480557
:1059A00060914605709147058091480501E00E948D
:1059B0003C3C609346057093470580934805609191
:1059C000490570914A0580914B0555274427332797
:1059D000581B470B360B3093490540934A055093AB
:1059E0004B056091490570914A0580914B0501E096
:1059F0000E943C3C6093490570934A0580934B0597
:105A0000309190064091910650919206609149051F
:105A100070914A0580914B05581B470B360B30930C
:105A2000A3054093A4055093A5056091A30570912B
:105A3000A4058091A50504E00E943C3C6093A30569
:105A40007093A4058093A5051091A3052091A4054A
:105A50003091A5054091420650914306609144065D
:105A60000E94453C70936006809361062092620616
:105A700000914B0600935D0600914C0600935E0674
:105A800000914D0600935F0607D2009160060093D7
:105A900049050091610600934A0500916206009352
:105AA0004B056091490570914A0580914B0501E0D5
:105AB0000E943C3C6093490570934A0580934B05D6
:105AC00000913107002382F4A6E4B5E0C6E4D5E0F6
:105AD000E1E9F5E00E942F3CA9E4B5E0C9E4D5E096
