:020000020000FC
:100000000C943F000C943E000C943E000C943E0077
:100010000C943E000C943E000C943E000C943E0068
:100020000C943E000C943E000C943E000C94B632AE
:100030000C943E000C9467300C949A300C943E0063
:100040000C943E000C943E000C943E000C943E0038
:100050000C94BF340C943E000C943E000C943E0073
:100060000C943E000C943E000C943E000C943E0018
:100070000C943E000C943E000C943E0018950FEF3B
:100080000DBF08E00EBFA4E6B0E00E94BB3B0E949B
:10009000CA06E0E7F0E00E94143C009346070E9485
:1000A000603A0E94923A0E94603A0E94511200E027
:1000B0000093040700E00093050700E000930607A3
:1000C00000E00093070703E000938E050FEF009315
:1000D0008F0500E0009390050027009347070093E9
:1000E000220700932907AFEAA09331070093320754
:1000F000A1E0A0933407009318070093140700931E
:1001000015070E94C1130027009364070093650739
:100110000093660700934907E9E4F7E0E09362077C
:10012000F093630700E100933F070E946215789403
:10013000E0EAF0E00E94143C002361F00E94BA1152
:1001400003B1009502950F7059F00E94871A0E9422
:10015000C81006C00E94CE3B083011F40E944A0B22
:100160000E94871A00913F070F7D00933F0706E02A
:1001700006BB0E9444300E94DB340E94D0130E94D0
:10018000A2190E94550A0E9409240E9415290E9462
:10019000520B0E94E1270E9435020E9471070E94C3
:1001A0006D090E94A63000902507109026070124B3
:1001B0000092360700913607002332F40E94220A8B
:1001C000009125070093260700912B0700232AF4AE
:1001D000002700932B070E94F617009125070023A4
:1001E0000AF4C7CF03B100950295017009F4C1CF9D
:1001F00000E000936F000E94AF0829980E946C32C3
:100200000E946B360E94A432ABCF0E94C91F0E948D
:10021000D51F00911D07007C09F0A4D00E94A33ACD
:10022000E4ECF3E00E942D39E4E9F0E088D0EEEC54
:10023000F3E00E942D39E6E9F0E081D0EAEDF3E049
:100240000E942D3904E50093FE060E94E0380091DB
:1002500045070170E0E2F4E00E94243900E00093D9
:10026000FE060090FF0609E0000E0092FF06E2EE97
:10027000F3E00E942D39E9E9F0E061D0E0EFF3E02E
:100280000E942D39EBE9F0E05AD00E94EC38E0E012
:10029000F4E004E0019FE00DF11D0E945F380E9430
:1002A000603A0E94E33B083009F40895043021F4D9
:1002B0001A950AF414E0B2CF023029F413951530E0
:1002C0000CF01127ABCF0130E9F7123059F4A091AF
:1002D00045070FEFA027A0934507E8E9F0E00E944B
:1002E000FC3B9CCF112341F4E4E9F0E0C8EDDCEDE8
:1002F000A8E2B3E213D092CF113019F4E6E9F0E0AE
:10030000F5CF133041F4E9E9F0E0C8E1DCEFA8EE05
:10031000B3E004D083CFEBE9F0E0F7CFEF93FF93A6
:10032000AF93BF930E94EA3BFF91EF910E94DA25C1
:10033000A02DB12DFF91EF910E94F13B089504E5AE
:100340000093FE060E94E0380E94EA3B0E94973824
:1003500000E00093FE060090FF0609E0000E009208
:10036000FF0608950E94B13A06E10093FE06ECE212
:10037000F4E20E942D3901E00093030700E00093AE
:10038000FE0601E10093FF0600270F93E4E6F4E088
:100390000E94243900E00093FE060090FF0609E069
:1003A000000E0092FF060F910395033071F70E9433
:1003B00008390E94603A0E94E33B0130E1F70E9455
:1003C000DF3B0895526F6C6C204761696E00506985
:1003D000746368204761696E00004D6978696E67D3
:1003E0000000486F6D6520506F7320526F6C6C0079
:1003F000486F6D6520506F7320506974636800000A
:100400005F007A095F097A125F127A1B5F1B7F24F3
:100410005F247F2D4E6F6E650000446966660000A4
:1004200014041A044F757470757420747970652003
:1004300069732073657420746F0045534320666FA1
:1004400072204D3720616E642F6F72204D382E0060
:10045000436865636B204D697865722045646974F3
:100460006F722E0024043A04500400E0009340050B
:10047000009341050093420530919F064091A006EC
:100480005091A1066091400570914105809142050F
:1004900058174707360709F011C03091A50640915B
:1004A000A6065091A7066091400570914105809184
:1004B000420558174707360709F408950091470782
:1004C000002369F000E00093550500935605009362
:1004D0005705009358050093590500935A0500915C
:1004E0003407023029F50091B106009355050091BB
:1004F000B206009356050091B3060093570500918C
:10050000B406009358050091B50600935905009173
:10051000B60600935A0500E00093AB060093AC06C4
:100520000093AD060093AE060093AF060093B006AD
:1005300003E00093400508EE0093410500E00093BE
:100540004205A5E5B5E0C5E5D5E0E0E4F5E00E94AB
:10055000283CA8E5B5E0C8E5D5E0E0E4F5E00E9478
:10056000283C00E00093400502E00093410500E8CC
:10057000009342051091550520915605309157057D
:100580004091400550914105609142050E94443CD4
:100590007093A8068093A9062092AA061091580588
:1005A0002091590530915A054091400550914105DF
:1005B000609142050E94443C7093A2068093A3067A
:1005C0002092A40600913407013041F510918D0668
:1005D00020918E0630918F0640919F065091A00683
:1005E0006091A1060E94443C7093AB068093AC06D8
:1005F0002092AD06109190062091910630919206BE
:100600004091A5065091A6066091A7060E94443C21
:100610007093AE068093AF062092B0060091450716
:1006200000230AF078C00091AB06009340050091CA
:10063000AC06009341050091AD0600934205309150
:10064000AB064091AC065091AD066091AE0670913C
:10065000AF068091B006581B470B360B3093AB06A4
:100660004093AC065093AD06AEEAB6E0CEEAD6E0D3
:10067000E0E4F5E00E94283C0091A20600934005CA
:100680000091A306009341050091A4060093420542
:100690003091A2064091A3065091A4066091A8064D
:1006A0007091A9068091AA06581B470B360B309310
:1006B000A2064093A3065093A406A8EAB6E0C8EAAF
:1006C000D6E0E0E4F5E00E94283C09E00093400514
:1006D00004EC0093410500E000934205A2EAB6E075
:1006E000C2EAD6E0E0E4F5E00E94283C3091A8069A
:1006F0004091A9065091AA0660914005709141056C
:1007000080914205581B470B360B3093A806409347
:10071000A9065093AA06ACE0B6E0CBEAD6E0E2EA3E
:10072000F6E00E94283CAFE0B6E0CEEAD6E0E8EA88
:10073000F6E00E94283C00910C0600933C060091D4
:100740000D0600933D0600910E0600933E060091B3
:100750000F0600933F06009110060093400600919B
:1007600011060093410608950091C0060093C40647
:100770000091C1060093C5060091C2060093C6060B
:100780000091C3060093C70608952090C0063090DC
:10079000C1064090C2065090C3066090C00670909B
:1007A000C1068090C2069090C3060E94B53C10938B
:1007B000E4062093E5063093E6064093E706509161
:1007C000E4066091E5067091E6068091E70601E097
:1007D0000E94213D5093E4066093E5067093E6067F
:1007E0008093E70601E00093E80600E00093E90645
:1007F00000E00093EA0600E00093EB061091E806A3
:100800002091E9063091EA064091EB065091E4060A
:100810006091E5067091E6068091E706481B370B6C
:10082000260B150B1093C8062093C9063093CA06F1
:100830004093CB060895B093C006A093C106D09311
:10084000C206C093C30603E00093E40607E00093EA
:10085000E5060EEA0093E60600E00093E706209026
:10086000C0063090C1064090C2065090C30660900A
:10087000E4067090E5068090E6069090E7060E94F8
:10088000B53C1093C0062093C1063093C206409336
:10089000C3060895CD2FDA2FAB2FBB2312F4BFEF81
:1008A0000895BB27089560DF70DF2090DC0630904C
:1008B000DD064090DE065090DF066090C80670901E
:1008C000C9068090CA069090CB060E94B53C109352
:1008D000F4062093F5063093F6064093F706209031
:1008E000E0063090E1064090E2065090E30660900A
:1008F000C4067090C5068090C6069090C7060E94F8
:10090000B53C1093E4062093E5063093E606409349
:10091000E7061091F4062091F5063091F606409115
:10092000F7065091E4066091E5067091E606809125
:10093000E706481B370B260B150B1093F406209384
:10094000F5063093F6064093F7062090DC063090CB
:10095000DD064090DE065090DF066090C406709081
:10096000C5068090C6069090C7060E94B53C1093BD
:10097000F8062093F9063093FA064093FB06209080
:10098000E0063090E1064090E2065090E306609069
:10099000C8067090C9068090CA069090CB060E9447
:1009A000B53C1093E4062093E5063093E6064093A9
:1009B000E7061091F8062091F9063091FA06409169
:1009C000FB065091E4066091E5067091E606809181
:1009D000E706480F371F261F151F1093F8062093B0
:1009E000F9063093FA064093FB060895B09173051B
:1009F000A0917405D09175054DDF1DDF0091D006E3
:100A00000093DC060091D1060093DD060091D2062A
:100A10000093DE060091D3060093DF060091D40612
:100A20000093E0060091D5060093E1060091D606FA
:100A30000093E2060091D7060093E30634DF0091AD
:100A4000F4060093D0060091F5060093D1060091BC
:100A5000F6060093D2060091F7060093D3060091A4
:100A6000F8060093D4060091F9060093D50600918C
:100A7000FA060093D6060091FB060093D706B091C4
:100A80007005A0917105D091720504DFD4DE00914C
:100A9000CC060093DC060091CD060093DD060091A4
:100AA000CE060093DE060091CF060093DF0600918C
:100AB000D4060093E0060091D5060093E10600916C
:100AC000D6060093E2060091D7060093E306EBDE1C
:100AD0000091F4060093CC060091F5060093CD0634
:100AE0000091F6060093CE060091F7060093CF061C
:100AF0000091F8060093D4060091F9060093D506FC
:100B00000091FA060093D6060091FB060093D706E3
:100B1000B0916405A0916505D0916605BBDE8BDEC2
:100B20000091CC060093DC060091CD060093DD0613
:100B30000091CE060093DE060091CF060093DF06FB
:100B40000091D0060093E0060091D1060093E106E3
:100B50000091D2060093E2060091D3060093E306CB
:100B6000A2DE0091F4060093CC060091F5060093F6
:100B7000CD060091F6060093CE060091F70600938D
:100B8000CF060091F8060093D0060091F906009375
:100B9000D1060091FA060093D2060091FB0600935D
:100BA000D30608952090CC063090CD064090CE0616
:100BB0005090CF066090CC067090CD068090CE0607
:100BC0009090CF060E94B53C1093E4062093E50672
:100BD0003093E6064093E7062090D0063090D10689
:100BE0004090D2065090D3066090D0067090D10607
:100BF0008090D2069090D3060E94B53C1093E806F0
:100C00002093E9063093EA064093EB061091E40640
:100C10002091E5063091E6064091E7065091E806FE
:100C20006091E9067091EA068091EB06480F371F44
:100C3000261F151F1093E4062093E5063093E60661
:100C40004093E7062090D4063090D5064090D60613
:100C50005090D7066090D4067090D5068090D60646
:100C60009090D7060E94B53C1093E8062093E906C1
:100C70003093EA064093EB061091E4062091E506D6
:100C80003091E6064091E7065091E8066091E9064A
:100C90007091EA068091EB06480F371F261F151F3B
:100CA0001093D8062093D9063093DA064093DB06DA
:100CB00008950091CC060093F0060091CD060093B4
:100CC000F1060091CE060093F2060091CF06009344
:100CD000F3062AD00091930600938D0600919406A6
:100CE00000938E060091950600938F060091D00622
:100CF0000093F0060091D1060093F1060091D20610
:100D00000093F2060091D3060093F3060DD00091F4
:100D1000930600939006009194060093910600912B
:100D200095060093920608950AE50093E80600E010
:100D30000093E90600E00093EA0600E00093EB066A
:100D40002090F0063090F1064090F2065090F306A5
:100D50006090E8067090E9068090EA069090EB06B5
:100D60000E94B53C1093E4062093E5063093E60616
:100D70004093E706B091E406A091E506D091E6061F
:100D8000C091E70687DDB0939306A0939406D093B5
:100D90009506089500E001B90AE004B90FEF07B91C
:100DA00002EF0AB90FEF00937E0005EF05B90DE0E1
:100DB0000BB900E00093800002E00093810000E0A6
:100DC000009382000091C000007819F00091C600E5
:100DD000F9CF02E00093C00000270093C50008E1AE
:100DE0000093C40000E10093C1000EE20093C20032
:100DF0000091C10000680093C1005D9A5C9A5E9802
:100E00002B9A299AA4EFB1E00E94BB3B2B9829981A
:100E10005E9AA4E6B0E00E94BB3B08950E94B13AFE
:100E200006E10093FE06EEE7FEE00E942D3901E0A8
:100E30000093030700E00093FE0601E10093FF0624
:100E4000E6E8FEE00E942D3900E00093FE060090E7
:100E5000FF0609E0000E0092FF06ECE9FEE00E94AA
:100E60002D3908E20093FF060E94D8380E94FA3814
:100E70000E94603A0E94E33B0830E1F70895483D44
:100E80004546404443004B4B322E302076312E36BF
:100E90002B2B20532E42757320523300464153535F
:100EA000542026204641535354657374206D6F645B
:100EB0006500EEECFEE00E94DA3A013009F0089598
:100EC0000027E0E0F0E00E941C3C0C943F005265DB
:100ED00073657420616C6C2073657474696E6773DC
:100EE0002E0000E000934005009341050093420569
:100EF00030917206409173065091740660914005DE
:100F0000709141058091420558174707360759F0FF
:100F10003091720640917306415030403093720612
:100F20004093730603C0002700933E0700914307D8
:100F300000236AF4009131070A95009331070023DA
:100F400031F4002700934307AFEAA09331070090E4
:100F500025071090270701200092360700913607D9
:100F60000023D2F500912F070023B2F130916F06D4
:100F7000409170064150304030936F0640937006A8
:100F800000E0009340050093410500934205309135
:100F90006F06409170065091710660914005709106
:100FA000410580914205581747073607ACF403E026
:100FB00000936F0600E20093700600E00093710654
:100FC0000FEF00933E0700E00093720604E10093E8
:100FD000730600E000937406009025071090260722
:100FE0000124009236070091360700233AF400E00E
:100FF00000938406009385060093860600E0009324
:10100000400500E00093410501E000934205A4E89B
:10101000B6E0C4E8D6E0E0E4F5E00E94283C0DE745
:101020000093400500E00093410500E00093420575
:101030003091840640918506509186066091400566
:10104000709141058091420558174707360764F0B3
:1010500000914005009384060091410500938506A8
:10106000009142050093860600912F07002322F08D
:1010700000912E07002372F400913007002319F12C
:101080000A950093300700E00093870600938806D6
:10109000009389060AE0009340050CEF0093410598
:1010A00000E80093420530918406409185065091F6
:1010B0008606609140057091410580914205581760
:1010C00047073607B4F130918706409188064150B2
:1010D0003040309387064093880600E00093400537
:1010E00000934105009342053091870640918806A0
:1010F00050918906609140057091410580914205AB
:10110000581747073607ACF407E00093870600ED51
:101110000093880600E0009389060FEF00933E07D6
:1011200001E00093720600E90093730600E000936B
:10113000740600903E0710903D0701280092360784
:10114000009036071090430701280092360700915F
:101150003607002312F029980895299A08950F93CD
:10116000EF93FF93E1E9F0E00E94143CFF91EF91CF
:10117000002312F00F910895CF93299AC2E30E94A1
:10118000C03B2998CF910F910895402F2A2F3B2FD4
:101190000E94923A01E00093020704E000930307E3
:1011A000203049F00AE30093FE0600E00093FF06BA
:1011B00000E00E943339022F0B5F041749F00AE365
:1011C0000093FE0602E30093FF0601E00E9433391C
:1011D00001E00093030708E00093FF0615E0FE011D
:1011E00004E1029FE00DF11D00E00093FE06A4E182
:1011F00005910E943339AA95D9F70090FF0608E0BF
:10120000000E0092FF061A9579F708E0039F002D63
:10121000095F0093FF06075F0093010700E000935A
:10122000FE060FE70093000700E0009302070E940C
:101230004D3800E00093FE0609E30093FF06E4EC5E
:10124000F2E10E942D390E94603AAEE10E94CE3B4D
:10125000003021F00970D1F7AA95C1F70E94E43B54
:10126000083019F4AA27889429C0043061F430307A
:1012700019F03A950C946109203019F02A950C94D4
:1012800061090C946109023071F4343019F033951E
:101290000C946109042F0550201719F023950C9424
:1012A00061090C946109013061F40E94923A0E9434
:1012B000603A0E94DF3BA22FA30F0894C22FD32FC6
:1012C000089566CF4241434B2020555020202044B2
:1012D0004F574E20454E544552003091880540915D
:1012E000890550918A0560918E0570918F058091D6
:1012F000900558174707360764F400918805009356
:101300008E050091890500938F0500918A05009351
:101310009005309188054091890550918A0560912A
:101320008B0570918C0580918D05581B470B360BF2
:101330003093A3054093A4055093A5056091A305A0
:101340007091A4058091A50508E00E94353C60934A
:10135000A3057093A4058093A505ABE8B5E0CBE8A1
:10136000D5E0E3EAF5E00E94283C30915706409131
:1013700058065091590660918B0570918C058091AB
:101380008D05581B470B360B3093A3054093A405DE
:101390005093A5050AF44FC06091A3057091A40570
:1013A0008091A50502E00E94353C6093A3057093EF
:1013B000A4058093A50500E00093400500E100939B
:1013C000410500E0009342053091A3054091A4053A
:1013D0005091A505609140057091410580914205AD
:1013E00058174707360764F0009140050093A3059E
:1013F000009141050093A405009142050093A505C5
:10140000A6E6B6E0C6E6D6E0E3EAF5E00E94283CB0
:10141000B0916606A0916706D0916806AA235AF09B
:1014200000913C07002351F00A9500933C070FEF11
:1014300000933D07089504E600933C0700270093BE
:101440003D07089500E00093420601E00093430643
:1014500008E30093440610915706209158063091F6
:1014600059064091420650914306609144060E94FD
:10147000443C709340058093410520924205309191
:101480004005409141055091420560918805709159
:10149000890580918A055817470736072CF4009173
:1014A0003F07086000933F07089500912507002338
:1014B00072F130918A0640918B0641503040309352
:1014C0008A0640938B0600E0009340050093410597
:1014D0000093420530918A0640918B0650918C060C
:1014E000609140057091410580914205581747076A
:1014F000360784F50FEF00932B0701E000938A066F
:1015000000E900938B0600E000938C0623C0009155
:101510003F070023F9F000912907002311F0B2F0F2
:101520000FC008E22B9AE0912A07EA95E0932A0778
:10153000EE2371F4E0913F07E77FE0933F0708C097
:101540000A9509F005C004EC2B9802C0039549F3F5
:101550000093290700913207A09133070A1709F475
:1015600023C000933307AA231AF0AFEFA0934307D9
:10157000AA27A0932C07A0932D070023A9F00230DF
:1015800081F40FEF00932C07009148060093450665
:10159000009149060093460600914A0600934706CB
:1015A00003C0AFEFA0932D0700913D07002322F069
:1015B00000912507002312F02B98089500913F0712
:1015C000002309F42B9A08950E94B13A0EE2009389
:1015D000FE06EAE6F6E10E942D3900E00093FE06E1
:1015E0000AE10093FF0601E000930307EEE6F6E14F
:1015F0000E942D39BB27A0914607DD270E9497380E
:1016000000E00093FE0609E30093FF06EEE7F6E133
:101610000E942D390E94603A0E94E33B083039F461
:10162000E0E7F0E00E94F83BA093460708950430FD
:1016300041F4009146070E32BCF40395009346072F
:10164000C3CF023041F40091460709316CF00A958E
:1016500000934607B9CF013039F4A0914607E0E77F
:10166000F0E00E94FC3B0895AFCF413B3C004C436F
:101670004420636F6E74726173743A2000004241BB
:10168000434B20205550202020444F574E202053BC
:101690004156450004E200934607E0E7F0E00E946F
:1016A0001C3C089510919C0620919D0630919E0649
:1016B0004091510650915206609153060E94443C5D
:1016C0007093400580934105209242050091540695
:1016D000009342060091550600934306009156067A
:1016E00000934406309140054091410550914205D8
:1016F000609142067091430680914406581747074F
:10170000360764F0009142060093400500914306BD
:101710000093410500914406009342056091420602
:101720007091430680914406552744273327581B60
:10173000470B360B309342064093430650934406C2
:10174000309140054091410550914205609142061B
:10175000709143068091440658174707360764F492
:101760000091420600934005009143060093410515
:10177000009144060093420530914C0540914D057F
:1017800050914E0560914005709141058091420550
:10179000581B470B360B30934C0540934D05509327
:1017A0004E050895C8E7D8E1A0910707B091060754
:1017B00004E10E94C508C0930707D093060708F00C
:1017C0000895E4E6F8E10E94DA3A013009F0EACF40
:1017D0000E94A432299AE6EBFAE108E10A9FE00DA3
:1017E000F11DDF017096C7E6D7E018E00591099377
:1017F0001A95E1F7FD01C4E0D0E03327A591B5913A
:10180000EF93FF93FD0116E0A7E6B7E0A30F0027D3
:10181000B01F4C91BF91AF912591042F007809F032
:101820002195042F087009F02FEF022FEF93FF93FB
:10183000FE010E941C3C2196FF91EF91440F1A95E6
:1018400059F72296FD0133953830C4F20FEFA02FDF
:10185000EEE9F0E00E94FC3B29980E946C320E9465
:10186000DE0EA0CF4C6F6164206D6F746F72206CC0
:1018700061796F75742E000053696E676C65436FF4
:101880007074657220314D203453202053696E6787
:101890006C65436F7074657220324D203253202086
:1018A0004475616C436F7074657220494920202033
:1018B00020202020547269436F707465722049495A
:1018C000202020202020202051756164726F436FFA
:1018D000707465722078206D6F6465205175616445
:1018E000726F436F70746572202B206D6F6465207A
:1018F000562D5461696C202020202020202020209B
:1019000020202020562D5461696C2048756E746526
:101910007220202020202020593420202020202028
:1019200020202020202020202020202048657861B1
:10193000436F7074657220202078206D6F6465207D
:1019400048657861436F707465722020202B206D8C
:101950006F64652048362020202020202020202071
:10196000202020202020202056362020202020202B
:101970002020202020202020202020205936202018
:101980002020202020202020202020202020202057
:101990004F63746F436F7074657220202078206DE0
:1019A0006F6465204F63746F436F7074657220209D
:1019B000202B206D6F6465204838202020202020B7
:1019C00020202020202020202020202056382020C9
:1019D0002020202020202020202020202020202007
:1019E0005838202020202020202020202078206D02
:1019F0006F646520583820202020202020202020BF
:101A0000202B206D6F6465200000000000000000A6
:101A100000643200000064003200000064640000D2
:101A2000000064643200006400003200006400645E
:101A300032006400000000036400006400036400DE
:101A40006400000364006464000364265C640003B3
:101A5000642A47640003643257640003643D1864D9
:101A6000000364470064000364471864000364478C
:101A7000470000036447476400036451186400038F
:101A8000645732000003645732640003645C2664C8
:101A90000003646400000003646400640003646481
:101AA0004764000378005A640003646464280003F8
:101AB0005F0064640003321A2C1A201A2C1A201AB0
:101AC000081A081A081A0000004020000000381AFE
:101AD000381A261A141A081A081A081A081A0010AE
:101AE000000000000000921A921A1A1A1A1A081A14
:101AF000081A1A1A1A1A0140002000000020801A41
:101B0000801A3E1A0E1A081A081A0E1A081A4001EC
:101B1000200000001000741A741A741A741A081A3B
:101B2000081A081A081A4010207000000000441A11
:101B3000981A441A981A081A081A081A081A00104B
:101B40002050000000006E1A6E1AA41AA41A081A77
:101B5000081A081A081A4001203000000000AA1ACA
:101B6000AA1AB01AB01A081A081A081A081A500045
:101B7000203000000000741A741A441A441A081A1B
:101B8000081A081A081A4010203000000000561ADF
:101B9000981A561A561A981A561A081A081A00103D
:101BA000207040500000441A861A861A441A861A79
:101BB000861A081A081A0010203060500000741AA3
:101BC000621A741A741A621A741A081A081A00101F
:101BD0002070405000009E1A621A501A501A621A61
:101BE0009E1A081A081A0010207040500000861A29
:101BF000861A861A861A441A441A081A081A405075
:101C00000010203000004A1A8C1A8C1A4A1A4A1AFC
:101C10008C1A8C1A4A1A0010203060704050441AF6
:101C2000741A981A741A441A741A981A741A0010AA
:101C3000003020704050741A681A681A741A741AA6
:101C4000681A681A741A00102030607040509E1A8A
:101C50007A1A5C1A501A501A5C1A7A1A9E1A0010D4
:101C6000203060704050741A741A741A741A741AFE
:101C7000741A741A741A4050001020306070441A9C
:101C8000441A981A981A441A441A981A981A001062
:101C90000010203040500E94A33A0027EBE7F0E00C
:101CA0000F93EF93FF93EAE8FDE10E94243904E5E6
:101CB0000093FE060E94E038FF91EF910E94EA3BFC
:101CC0000E94973800E00093FE060090FF0609E0AE
:101CD000000E0092FF060F910395053009F70E9450
:101CE000EC38E4E9FDE104E0019FE00DF11D0E9404
:101CF0005F380E94603A0E94E33B083009F408957F
:101D0000043021F41A950AF414E0C5CF023029F406
:101D10001395153009F410E0BECF0130F1F4EBE774
:101D2000F0E002E0019FE00DF11DEF93FF930E94B0
:101D3000EA3BE8EAFDE104E0019FE00DF11DC591F9
:101D4000D59105901590E02DF12D0E94DA25A02D5A
:101D5000B12DFF91EF910E94F13B9DCF4143432074
:101D60005472696D20526F6C6C0041434320547271
:101D7000696D2050697463680000534C204D697888
:101D8000696E6720526174650000FA7602775C1D07
:101D90006A1D7A1D5F0079095F0979125F12791B4C
:101DA0005F1B79245F24792D0000840300008403E5
:101DB0007CFC84037CFC840305003200EEE9F0E047
:101DC0000E94143C00231AF00E94942708950E9458
:101DD000C91F44240E94A33AEEE4F1E20E942D3987
:101DE000442081F4E6E5F1E20E942D390FEF602EE8
:101DF00008E0802E55240E94330F53948A94882043
:101E0000D1F709C0542C5A94A42DBB270E949738AF
:101E100066240E94330F01E00093030701E0009362
:101E2000020700E00093FE0609E30093FF06E2E6E6
:101E3000F1E20E942D390E94603A0E94E33B083093
:101E400009F40895043031F4439409E0401609F48C
:101E50004424C0CF023031F44A94442012F408E004
:101E6000402EB8CFB7CFE0E0F5E008E0059DE00DEB
:101E7000F11D01E0009302070FEF702EDD27A18115
:101E8000BB27AA2312F4DFEFBFEFB093F405A093B2
:101E9000F505D093F60500E0009340050093410559
:101EA000009342053091F4054091F5055091F605F7
:101EB0006091400570914105809142055817470790
:101EC000360709F0772400E00093400500E0009316
:101ED000410500E4009342051091F4052091F505B9
:101EE0003091F605409140055091410560914205C1
:101EF0000E94443C7093F4058093F5052092F6050A
:101F000000E00093400500E60093410500E00093E7
:101F10004205EF93FF93A4EFB5E0C4EFD5E0E0E412
:101F2000F5E00E94283CFF91EF91B091F405A0915B
:101F3000F505D091F605A093FE06DD27A281BB270B
:101F4000AA2312F4DFEFBFEFB093F405A093F505D9
:101F5000D093F60500E000934005009341050093FF
:101F600042053091F4054091F5055091F6056091D8
:101F70004005709141058091420558174707360783
:101F800009F077240FEF009340050FEF0093410510
:101F900000EC009342051091F4052091F505309175
:101FA000F6054091400550914105609142050E941F
:101FB000443C7093F4058093F5052092F60500E00B
:101FC0000093400500E20093410500E000934205C4
:101FD000EF93FF93A4EFB5E0C4EFD5E0E0E4F5E0C4
:101FE0000E94283CFF91EF91B091F405A091F50576
:101FF000D091F605A093FF06DD27A081BB27AA2379
:1020000012F4DFEFBFEFB093F405A093F505D09382
:10201000F60500E00093400500934105009342055A
:102020003091F4054091F5055091F6056091400519
:10203000709141058091420558174707360709F00E
:102040007724A381AA2309F07724772072F46620ED
:102050000AF4089502E40093FE060BE10093FF06E4
:10206000E6E4F1E20E942D390895A581A0FD0DC09E
:10207000662052F002E40093FE060BE10093FF0697
:10208000EAE5F1E20E942D39089500E60093000789
:1020900000E2009301070E94B0390091FE0604504F
:1020A0000093FE060091FF0607500093FF0604E030
:1020B0000093030702E0A381AA230AF003E00E9431
:1020C00033390091FE060E500093FE060090FF0685
:1020D00005E0000E0092FF0600E00093030700E019
:1020E00000930207052D0E94333966200AF42AC0A6
:1020F00001E00093030701E00093020706E000936C
:10210000FF060027EF93FF930F9300E00093FE0676
:102110000090FF0609E0000E0092FF06EAE8F1E2F7
:102120000F910F930E9424390F910395033061F7AB
:10213000FF91EF91A381AA231AF00E94E73802C011
:102140000E94E5380895556E757365642E004D6FD5
:10215000746F723A2000414C4C00536572766F2EBA
:1021600000004241434B20204E4558540000446932
:1021700072656374696F6E007365656E2066726F59
:102180006D0061626F76653A00006E2178218221D0
:102190000FEF009339070E94A33A03E10093FE0674
:1021A000ECEEF3E20E942D390091390700236AF02A
:1021B00000E00093FE0609E30093FF06ECEFF3E274
:1021C0000E942D390E94603A3DC000E00093FE0657
:1021D00004E10093FF06E2E0F4E20E942D3900E002
:1021E0000093FE060DE10093FF06E8E1F4E20E9491
:1021F0002D390E94603A00E000931C0700E0009334
:102200001D0701E000931F0708E000931E070FEF72
:102210000093250700E000936C0601E000936D0633
:1022200000E000936E062B9A06E006BB03E10093E4
:10223000400508E80093410500E0009342050027AF
:10224000009327070E944430009140050093FA054F
:10225000009141050093FB05009142050093FC05A8
:10226000009140050093FD05009141050093FE0596
:10227000009142050093FF05009140050093000680
:10228000009141050093010600914205009302066A
:102290000091400500930306009141050093040658
:1022A0000091420500930506009140050093060643
:1022B000009141050093070600914205009308062E
:1022C00000914005009309060091410500930A061C
:1022D0000091420500930B060091400500930C0607
:1022E0000091410500930D060091420500930E06F2
:1022F0000091400500930F060091410500931006E0
:1023000000914205009311060E94A63003B100958A
:1023100002950F700F930091390700236AF40F9113
:102320000023B9F003E10093400508E8009341055C
:1023300000E00093420586CF0F910830B9F000E02D
:102340000093400504E60093410500E00093420538
:1023500079CF00E00093400504E60093410500E0DA
:102360000093420500270093390715CF2B980E9450
:10237000AF080895AA27E0EAF0E00E94FC3B089528
:10238000E6E8F4E20E94DA3A013009F008950E948A
:10239000B13A06E10093FE06ECE2F4E20E942D3928
:1023A00001E00093030700E00093FE0601E10093C3
:1023B000FF0600270F93EAE9F4E20E94243900E0C7
:1023C0000093FE060090FF0609E0000E0092FF0653
:1023D0000F910395043071F70E94603AAFEFE0EA85
:1023E000F0E00E94FC3B0E94E33BFDCF45534320BD
:1023F00043414C4942524154494F4E00455849547B
:10240000000052656C6561736520627574746F6E4F
:1024100020746F20736574004C4F57207468726F7E
:1024200074746C65206C6576656C2E00493A454382
:1024300040433F004553432063616C69627261749D
:10244000696F6E2077696C6C00006265206176614F
:10245000696C61626C65206F6E20746865006E65E2
:1024600078742073746172742D7570206F6E6C793E
:102470002E0052454D4F56452050524F5053204646
:10248000495253542100446F204553432063616CEB
:102490006962726174696F6E2E0034244A245E246E
:1024A0007224E0E0F0E00E94F83BA931A1F40E9420
:1024B000F83BA33081F40E94F83BA33761F40E94FB
:1024C000F83BA23C41F4EFE9F0E00E94143C002309
:1024D0000AF088D00895E4E0F0E0A0E0B0E010E475
:1024E0000E94FC3B1A95E1F7A4E4B0E0CEE4D6E20A
:1024F00018E1FE010491FD010E941C3C11962196F9
:102500001A95B9F7A1E7B0E0C6E6D6E21AE0FE01F7
:102510000491FD010E941C3C119621961A95B9F771
:10252000ACE3B0E0EBE7F0E00E94F13BA4E1B0E007
:102530000E94F13BA0E0B0E00E94F13B0E94F13B21
:10254000AAE0B0E00E94F13B0E94F13BA0E0B0E0C5
:102550000E94F13BAEE1B0E00E94F13BA0E0B0E0B0
:102560000E94F13BA2E3B0E00E94F13BAFEF0E947A
:10257000FC3B0E94FC3B0E94FC3B0E94FC3BA0E019
:10258000B0E00E94FC3B0E94F13B0E94F13B0E94A4
:10259000FC3B0E94F13B0E94F13BAA270E94FC3BBE
:1025A0000E94FC3B0E94FC3B0E94BA1173D8A2E03F
:1025B000E1EAF0E00E94FC3BE0E0F0E0A9E10E94EB
:1025C000FC3BA3E00E94FC3BA3E70E94FC3BA2EC87
:1025D0000E94FC3B15E00E94AF08C0E00E94C03B97
:1025E0001A95C9F70E94B13A00E10093FE06E0E7B0
:1025F000F6E20E942D3901E00093030700E000930A
:10260000FE0601E10093FF0600270F93E4ECF6E2DB
:102610000E94243900E00093FE060090FF0609E0C6
:10262000000E0092FF060F910395043071F70E948F
:1026300008390E94603A0E94E33B0130E1F70FEF56
:10264000EFE9F0E00E941C3C0E94DF3B089532005D
:1026500064001900140032006400190014003200F4
:10266000140032000A001E001E0032005A006400EE
:10267000453D4240433C3D450000594F5520555390
:10268000452054484953204649524D574152450030
:10269000415420594F5552204F574E205249534BC9
:1026A0002100526561642074686520696E737472DC
:1026B000756374696F6E73006361726566756C6CC7
:1026C000792E00007A269026A226B8260E94B13ADA
:1026D00006E10093FE0603E40E94333904E40E94FD
:1026E00033390AE30093FE06EAE3F7E20E942D394C
:1026F00001E00093030700E00093FE0601E1009370
:10270000FF0600270F93ECE7F7E20E94243900E070
:102710000093FE060090FF0609E0000E0092FF06FF
:102720000F910395033071F70E94FA380E94603AC6
:102730000E94E33B0830E1F708953C3A473A000035
:10274000506C6561736520737570706C7920532EC1
:10275000427573006461746120746F207468652031
:102760007468726F74746C650000696E70757420A3
:10277000636F6E6E6563746F722E0000402754277E
:102780006A2700270093160700931B0700931A0778
:102790000093170700913F070F7000933F070895BC
:1027A000009166070E3154F00EE100936607002792
:1027B000009318070FEF00932F071BC0033009F099
:1027C000089500911A070395043659F400911B07E8
:1027D000A0911607A01714F4009316070027009382
:1027E0001B0700931A07A0911307B0911807BB238A
:1027F00031F400913F07006100933F070895009175
:102800003F070F7E00933F070A2F017000931407C4
:102810000A950095B0912E0700932E070B2719F00B
:1028200002E300933007A6950A2F01700093150765
:10283000A6950A2F017029F000911B0703950093BC
:102840001B07A695A17051F0A093170700913F07B1
:10285000006200933F070FEF00932F0708950E9437
:10286000A33A00270F93EEE0FCE20E94243900E037
:102870000093FE060090FF0609E0000E0092FF069E
:102880000F910395063071F70E9416390E94603A45
:102890000E94E33B0130E1F7A5E30E94B13A0AE36D
:1028A0000093FE0606E10093FF060A2F0E943339CB
:1028B0000E94603AD4E6C4E60E94C03BDA95D9F79C
:1028C000AA95AF3209F0E9CF0E94A33A09E100933B
:1028D000FE0609E10093FF06EAE1FCE20E942D39C1
:1028E0000E94603AC0E00E94C03BE0E100E000933B
:1028F0007F05009380050093810500938205009376
:102900008305009384050093850500938605009355
:1029100087050E94FE37EF93AFE7B5E0CFE7D5E03C
:10292000E6E7F5E00E94283CA2E8B5E0C2E8D5E081
:10293000E9E7F5E00E94283CA5E8B5E0C5E8D5E068
:10294000ECE7F5E00E94283CEF91C4E60E94C03B12
:10295000EA9509F0DECF60917F0570918005809146
:10296000810504E00E94353C60937F0570938005EB
:102970008093810560918205709183058091840523
:1029800004E00E94353C6093820570938305809338
:10299000840560918505709186058091870504E026
:1029A0000E94353C6093850570938605809387056A
:1029B000D8E2C0E00E94C03BDA95D9F70E94923A73
:1029C0000FEF0093350700E00093FE060AE0009346
:1029D000FF06ECECFFE60E942D39B0917F05A09137
:1029E0008005D09181050E94CC3700E00093FE065F
:1029F000E4EDFFE60E942D39B0918205A091830598
:102A0000D09184050E94CC3700E00093FE06ECEDE7
:102A1000FFE60E942D39B0918505A0918605D091E1
:102A200087050E94CC370E9416390E94603A0091B7
:102A3000350700230AF5EDE5F0E0B0917F05A091A0
:102A40008005D09181050E940A3CB0918205A09139
:102A50008305D09184050E940A3CB0918505A09120
:102A60008605D09187050E940A3CEDE9F0E00FEF62
:102A7000002F0E941C3C0AC0EDE9F0E000270E94F4
:102A80001C3C00913F07016000933F070E94E33B1D
:102A90000130E1F70E94923A00E00093FE0609E15E
:102AA0000093FF06009135070170E4E5FCE20E9407
:102AB00024390E9416390E94603A0E94E33B01309B
:102AC000E1F70895E0E100E00093670500936805F1
:102AD0000093690500936A0500936B0500936C05EC
:102AE00000936D0500936E0500936F050E94FE37FD
:102AF000EF93A7E6B5E0C7E6D5E0EEE5F5E00E9486
:102B0000283CAAE6B5E0CAE6D5E0E1E6F5E00E9499
:102B1000283CADE6B5E0CDE6D5E0E4E6F5E00E9480
:102B2000283CEF91C4E60E94C03BEA9509F0DECF55
:102B300060916705709168058091690504E00E94C5
:102B4000353C6093670570936805809369056091D3
:102B50006A0570916B0580916C0504E00E94353C1C
:102B600060936A0570936B0580936C0560916D05A9
:102B700070916E0580916F0504E00E94353C609372
:102B80006D0570936E0580936F050FEF00934407FA
:102B90000895506C61636520746865206169726393
:102BA00072616674206F6E0061206C6576656C20C2
:102BB0007375726661636520616E6400707265731F
:102BC0007320434F4E54494E55452E00546865209E
:102BD00046432077696C6C207468656E2077616964
:102BE000740061206665772073656320746F206CC4
:102BF000657420746865000061697263726166744F
:102C000020736574746C6520646F776E2E00922B50
:102C1000A82BBC2BCC2BE22BF82B43616C69627286
:102C20006174696E672E2E2E000043616C696272BA
:102C30006174696F6E206661696C65642E00436122
:102C40006C6962726174696F6E2073756363656528
:102C5000646564002A2C3E2C0E94A33A00270F933F
:102C6000ECE8FDE20E94243900E00093FE060090AB
:102C7000FF0609E0000E0092FF060F910395053054
:102C800071F701E00093FF06EFE8F0E04AD0E0E9D9
:102C9000F0E047D0E1E9F0E00E949116E2E9F0E0CF
:102CA0000E949116E3E9F0E00E9491160E94EC3830
:102CB000E6E9FDE204E0019FE00DF11D0E945F38AE
:102CC0000E94603A0E94E33B083019F40E94E91F19
:102CD0000895043029F41A950CF0BECF14E0BCCF4F
:102CE000023031F41395153009F0B6CF1127B4CF67
:102CF0000130B1F40E94A432EFE8F0E001E0019F5E
:102D0000E00DF11D0E94F83B0FEFA027EFE8F0E087
:102D100001E0019FE00DF11D0E94FC3B0E946C321E
:102D20009BCF0AE50093FE060E94E0380E94F83B24
:102D30000A2F0170E0E5F7E70E9424390090FF06B2
:102D400009E0000E0092FF0608954C696E6B205258
:102D50006F6C6C205069746368004175746F204417
:102D6000697361726D00427574746F6E204265659F
:102D7000700041726D696E67204265657073000076
:102D80005175696574204553437300004A2D5A2DCF
:102D9000662D722D802D64007A0964097A126412FE
:102DA0007A1B641B7A2464247A2D0E94A33A00279C
:102DB000E5E8F0E00F93EF93FF93EAECFEE20E9468
:102DC0002439FF91EF910E94EA3B0E94973800E07E
:102DD0000093FE060090FF0609E0000E0092FF0639
:102DE0000F910395053031F70E94EC38E4EDFEE2D7
:102DF00004E0019FE00DF11D0E945F380E94603ADF
:102E00000E94E33B083009F40895043021F41A9538
:102E10000AF414E0CACF023029F41395153009F4EE
:102E200010E0C3CF0130F1F4E5E8F0E002E0019FEB
:102E3000E00DF11DEF93FF930E94EA3BE8EEFEE206
:102E400004E0019FE00DF11DC591D591059015900D
:102E5000E02DF12D0E94DA25A02DB12DFF91EF91EB
:102E60000E94F13BA2CF4D696E696D756D2054686B
:102E7000726F74746C653A20000048656967687405
:102E80002044616D70656E696E673A200000486588
:102E90006967687420442E204C696D6974203A205B
:102EA0000000416C61726D20312F313020766F6CE3
:102EB00074733A200000536572766F2046696C7413
:102EC0006572202020203A200000662E7A2E8E2E59
:102ED000A22EB62E6B007F096B097F126B127F1B2F
:102EE0006B1B7F246B247F2D000014000000F40175
:102EF00000001E0000008403000064000E94A33A4A
:102F00000027E1E7F0E00F93EF93FF93EEECFFE291
:102F10000E942439FF91EF910E94EA3B06E300935F
:102F2000FE060E94E0380E949738A091FE0600E05D
:102F30000093FE060090FF0609E0000E0092FF06D7
:102F40000F9103950530F9F6A093FE060091FF0658
:102F500009500093FF0605E20E9433390E94EC38C5
:102F6000E8EDFFE204E0019FE00DF11D0E945F38F3
:102F70000E94603A0E94E33B083009F4089504304F
:102F800021F41A950AF414E0B9CF023029F413950C
:102F9000153009F410E0B2CF0130C1F4E1E7F0E000
:102FA00002E0019FE00DF11D0E94EA3BC0E0D0E08D
:102FB000E4EFF1E00E94DA25A02DB12DE1E7F0E089
:102FC00002E0019FE00DF11D0E94F13B97CFCA7610
:102FD000D276DC76E4769E7641005C0941095C128B
:102FE00041125C1B411B5C2441245C2D0FEF0093BC
:102FF00042070E94B13A009125070023BAF402E289
:103000000093FE0606E10093FF06ECE2F2E30E9465
:103010002D39ECE3F2E30E945F380DE20093FF06E6
:1030200001E0009303070E94D8387EC006E20093B7
:10303000FE06E6E2F2E30E942D3906E60093FE0664
:1030400009E30093FF0601E000930307E0E2F2E3E7
:103050000E942D3900E00093FE0601E10093FF0677
:10306000EAE6F6E744D10E942D3900913F07077F39
:10307000A0912707A0950A2BD1F4009147070023C0
:1030800009F1E2E3F2E30E942D3900914707013094
:1030900049F4A0912007AA2329F0E2ECF6E70E9468
:1030A0002D3910C0E4E5F7E70E9424390BC00091E8
:1030B0004007039500934007017021F0E0E4F2E33C
:1030C0000E945F3800E00093FE060BE10093FF06CC
:1030D000E4E4F2E30E942D3900913207E8E6F2E3DE
:1030E0000E94243904E20093FF06EEE6F2E3009129
:1030F00088050093420600918905009343060091DC
:103100008A050093440616D0E8E7F2E300918E05A5
:103110000093420600918F050093430600919005AD
:10312000009344060E949A180E94603A0027009378
:103130004207089500E00093FE060E942D3900E04A
:103140000093400506E00093410500EE0093420520
:10315000109142062091430630914406409140056B
:1031600050914105609142050E94443C7093400596
:103170008093410520924205609140057091410580
:103180008091420508E00E94353C609340057093B1
:10319000410580934205B0914005A0914105D09131
:1031A00042050E9497380EE20E943339AD2FBB27AB
:1031B000B0934005A0934105D093420500E00093F1
:1031C000420600E0009343060AE000934406109193
:1031D00040052091410530914205409142065091B1
:1031E0004306609144060E94443C709340058093DE
:1031F000410520924205B0914005A0914105D09132
:103200004205AA300CF0A9E00E94973806E50E941A
:1032100033390090FF0609E0000E0092FF06089582
:103220004D454E550000463A3E3D00003A45423D70
:103230003C002E2054756E696E67200000137F28B5
:1032400000107F194D6F64652020203A2000414313
:10325000524F0000534C204D4958494E47004E4FA5
:10326000524D414C20534C004E3254325E3242613A
:1032700074746572793A20004C6F67676564203A10
:103280002000414343206E6F742063616C69627259
:10329000617465642E0053616E697479206368659A
:1032A000636B206661696C65642E00004E6F206D53
:1032B0006F746F72206C61796F75742100004368C0
:1032C00065636B207468726F74746C65206C6576CE
:1032D000656C2E004E6F20532E42757320696E7000
:1032E000757421004641494C5341464521000091E7
:1032F0003F07077F002339F400912707002312F0CE
:10330000EEEBF2E3089500913F07047019F0ECEA48
:10331000F2E3089500913F07017019F0E2E8F2E34B
:10332000089500913F07027019F0E6E9F2E308956D
:1033300000913F07007119F0E4EDF2E30895E4EE27
:10334000F2E30895009027071090410701200092B2
:1033500036070090360710902507012000923607A7
:1033600000913607002342F000E0009381060093AD
:1033700082060093830639C030918106409182060F
:1033800001E0400F0027301F3093810640938206F2
:103390000FE10093400500E40093410500E0009335
:1033A00042053091810640918206509183066091DA
:1033B000400570914105809142055817470736072F
:1033C000A1F400E000938106009382060093830637
:1033D0000027009325070FEF00932B070FEF0093B3
:1033E0002F0701E00093300708950091270700237D
:1033F00092F50EEF009340050CE00093410500E0CC
:103400000093420530914F05409150055091510570
:10341000609140057091410580914205581747071A
:103420003607ECF001E00093400504EF00934105FE
:1034300000E00093420530914F05409150055091B6
:1034400051056091400570914105809142055817E2
:103450004707360724F400E00093280708950091F9
:103460002807039500932807009128070F3F09F0CC
:103470004DC0B0914F05A0915005D0915105BB238F
:10348000D2F400913F07077F002309F008950FEF62
:103490000093250701E0009372060CE20093730687
:1034A00000E0009374060E9462150E94041E0AE068
:1034B00000932A070CC000270093250700E0009323
:1034C000720606E90093730600E000937406002775
:1034D00000932F07E2E9F0E00E94F83BAA231AF4D8
:1034E0000FEF00933E070FEF00932B0703E00093CD
:1034F0006F0600E20093700600E00093710600E0A2
:10350000009381060093820600938306089541D5B7
:10351000E4E4F0E0E3D3009140050093A6050091B8
:1035200041050093A705009142050093A80500916D
:1035300040050093CA05009141050093CB05009119
:1035400042050093CC05CAD3D3D300914005009324
:10355000AF05009141050093B0050091420500932D
:10356000B105BCD3009140050093D30500914105FE
:103570000093D405009142050093D50564D30091D2
:1035800040050093B805009141050093B9050091ED
:1035900042050093BA05A2D3ABD300914005009336
:1035A000C105009141050093C205009142050093B9
:1035B000C30594D3009140050093A90500914105EE
:1035C0000093AA05009142050093AB0500914005C8
:1035D0000093CD05009141050093CE050091420571
:1035E0000093CF057BD384D3009140050093B205AF
:1035F000009141050093B305009142050093B40585
:103600006DD3009140050093D605009141050093CC
:10361000D705009142050093D80515D300914005C8
:103620000093BB05009141050093BC050091420544
:103630000093BD0553D35CD3009140050093C405AE
:10364000009141050093C505009142050093C60510
:1036500045D3009140050093AC05009141050093CE
:10366000AD05009142050093AE0500914005009321
:10367000D005009141050093D105009142050093CA
:10368000D2052CD335D3009140050093B5050091A8
:1036900041050093B605009142050093B7051ED37E
:1036A000009140050093D905009141050093DA058A
:1036B000009142050093DB05C6D2009140050093BE
:1036C000BE05009141050093BF050091420500939E
:1036D000C00504D30DD3009140050093C7050091A8
:1036E00041050093C805009142050093C9055DD4CA
:1036F00009E00093400504EC0093410500E00093CD
:10370000420500E000933807EF93FF9330914005A6
:103710004091410550914205E2E1F6E060913807A1
:1037200003E0609FE00DF11D319341935193FF91B0
:10373000EF910091380703950093380700913807FF
:10374000083011F7EBE7F0E0C9D200914005009393
:1037500045060091410500934606009142050093FD
:1037600047060091400500934806009141050093EB
:1037700049060091420500934A06B0D200E000934A
:1037800042060AE00093430600E0009344061091CD
:1037900040052091410530914205409142065091EB
:1037A0004306609144060E94443C70934E06809309
:1037B0004F062092500692D20091400500937B065E
:1037C0000091410500937C060091420500937D061F
:1037D00060914005709141058091420503E00E948F
:1037E000353C6093400570934105809342050091FC
:1037F00040050093750600914105009376060091FF
:103800004205009377066AD20091400500937E0638
:103810000091410500937F060091420500938006C8
:1038200060914005709141058091420503E00E943E
:10383000353C6093400570934105809342050091AB
:1038400040050093780600914105009379060091A8
:10385000420500937A0642D206D2009140050093B9
:103860004B060091410500934C06009142050093E0
:103870004D06E5E8F0E032D200E00093420602E3B4
:103880000093430600E00093440610914005209108
:1038900041053091420540914206509143066091A6
:1038A00044060E94443C7093E2058093E305209215
:1038B000E40514D2009140050093510600914105A2
:1038C00000935206009142050093530607D210D28E
:1038D0000091400500935406009141050093550660
:1038E0000091420500935606F9D100E0009342068C
:1038F00003E00093430609EB009344061091400552
:103900002091410530914205409142065091430675
:10391000609144060E94443C709357068093580679
:1039200020925906DBD100E00093420604E60093A2
:10393000430600E00093440630914206409143065E
:103940005091440660914005709141058091420577
:10395000581B470B360B30936C0640936D06509303
:103960006E0660916C0670916D0680916E0607E0A0
:103970000E94353C60936C0670936D0680936E06D2
:10398000E1E7F0E0ABD15FD1009140050093E505A0
:10399000009141050093E605009142050093E7057B
:1039A0009DD151D1009140050093E805009141055A
:1039B0000093E905009142050093EA058FD143D1B8
:1039C000009140050093EB05009141050093EC0543
:1039D000009142050093ED0581D135D1009140055C
:1039E0000093EE05009141050093EF05009142051B
:1039F0000093F00573D137D1009140050093F10594
:103A0000009141050093F205009142050093F305F2
:103A1000E4E9F0E063D1009140050093B70600911E
:103A200041050093B806009142050093B9060BD1F9
:103A30000091400500939F06009141050093A00668
:103A4000009142050093A10649D1009140050093E1
:103A5000BA06009141050093BB0600914205009310
:103A6000BC06F1D0009140050093A50600914105E8
:103A70000093A606009142050093A7060E94F83B1A
:103A8000A09345072BD1009140050093B10600910A
:103A900041050093B206009142050093B3061ED182
:103AA000009140050093B406009141050093B506CE
:103AB000009142050093B606EDE5F0E00E94003C5F
:103AC000B0937F05A0938005D09381050E94003CB0
:103AD000B0938205A0938305D09384050E94003C97
:103AE000B0938505A0938605D093870572D20E9476
:103AF000CE25E0E9F0E00E94143C009341070FEF6F
:103B00000093330701E000931F0705E000931E07B1
:103B10000FEF00932B070027009342070093250720
:103B20000093260700932C0700932E0700932F077E
:103B300000933E0700933D0700934307009344071B
:103B40000093810600938206009383060093720619
:103B5000009373060093740600936F06009370063B
:103B600000937106009384060093850600938606F1
:103B700000938706009388060093890600938A06BF
:103B800000938B0600938C060093AB060093AC0663
:103B90000093AD060093AE060093AF060093B00607
:103BA00000938D0600938E0600938F060093900677
:103BB000009391060093920627D003E000938B05B3
:103BC0000FEF00938C0500E000938D0500913F07F7
:103BD000007F00933F07EEE9F0E00E94143C0023D1
:103BE0002AF000913F07046000933F07EDE9F0E001
:103BF0000E94143C002332F000913F0701600093C3
:103C00003F070895B1D0089500E00093CC060093DB
:103C1000CD060093CE060093CF0600E00093D006B9
:103C20000093D1060093D2060093D30601E00093DF
:103C3000D40600E00093D50600E00093D60600E02D
:103C40000093D706089560914005709141058091D9
:103C5000420504E00E94353C6093400570934105A5
:103C600080934205089500E00093420600E000932F
:103C7000430602E50093440610914005209141055A
:103C800030914205409142065091430660914406AE
:103C90000E94443C70934005809341052092420568
:103CA00000E00093420600E00093430608E0009322
:103CB0004406109140052091410530914205409104
:103CC000420650914306609144060E94443C709322
:103CD0004005809341052092420508950E94EA3BE9
:103CE000DD27B0934005A0934105D0934205089588
:103CF00000E00093420600E80093430600E00093D2
:103D000044061091400520914105309142054091B3
:103D1000420650914306609144060E94443C7093D1
:103D200040058093410520924205089500E00093EC
:103D3000420602E30093430600E00093440610911C
:103D40004005209141053091420540914206509135
:103D50004306609144060E94443C70934005809362
:103D600041052092420508950E94A33A00E0009385
:103D7000FE060FE00093FF06B091E205A091E30577
:103D8000D091E405C0E0D0E0E9EEF3E00E94BF1F6F
:103D900008F4C9C0B0915106A0915206D0915306C3
:103DA000C0E0D0E0E5EFF1E00E94BF1F08F4BBC027
:103DB000B0915406A0915506D0915606C0E0D0E0CF
:103DC000E1E0FFE00E94BF1F08F4ADC0B0916705BD
:103DD000A0916805D0916905C0E9D1E0EAEDF2E073
:103DE0000E94BF1F08F4A3C0B0916A05A0916B05A3
:103DF000D0916C05C0E9D1E0EAEDF2E00E94BF1F6E
:103E000008F495C0B0916D05A0916E05D0916F0535
:103E1000C0E9D1E0EAEDF2E00E94BF1F08F487C0DC
:103E2000B0917F05A0918005D0918105C2ECD1E0D1
:103E3000E2E5F3E00E94BF1F08F479C0B09182056B
:103E4000A0918305D0918405C2ECD1E0E2E5F3E0D6
:103E50000E94BF1F08F46BC0B0918505A091860534
:103E6000D0918705C2ECD1E0E2E5F3E00E94BF1FEC
:103E700008F45DC00E94FE370E94FE37B0915E05D7
:103E8000A0915F05D0916005C4E6D0E0E4E8F3E0DE
:103E90000E94BF1F08F44FC0B0916105A091620558
:103EA000D0916305C4E6D0E0E4E8F3E00E94BF1FD0
:103EB00008F441C0B0916405A0916505D0916605F4
:103EC000C4E6D0E0E4E8F3E00E94BF1F08F433C08A
:103ED000B0917605A0917705D0917805C4E6D0E041
:103EE000E4E8F3E00E94BF1F08F425C0B091790513
:103EF000A0917A05D0917B05C4E6D0E0E4E8F3E038
:103F00000E94BF1F08F417C0B0917C05A0917D05E9
:103F1000D0917E05C4E6D0E0E4E8F3E00E94BF1F44
:103F200008F409C008950027D9E05AD007C002E07C
:103F3000D9E056D003C004E0D9E052D000913F0749
:103F4000026000933F0708E20093FE0601E0009341
:103F5000FF0606E0D7E244D00E9416390E94603A7C
:103F6000299AD7E2C0E00E94C03BDA95D9F7299898
:103F70000E94E33B0130E1F70E94DF3B0895AC175C
:103F8000BD072CF0AE17BF0714F488940895089469
:103F90000895C0E4A0E0B5E0E4E0F0E00E94143C45
:103FA0000D933196CA95D1F70895C8E0E0E0F5E0A9
:103FB0000581889401FD0894A795889400FD0894D4
:103FC000B7953896CA95A1F7A0931C07B0931D0723
:103FD0000895EFE8F0E00E94143C00932007089554
:103FE000C2E0CF930F93DF93E0E9F0E40E9424391D
:103FF00000E00093FE060091FF06DF910D0F009395
:10400000FF060F910395CF91CA9559F708954F6E0A
:1040100065206F72206D6F72652073657474696EB0
:1040200067730000617265206F7574206F66206C85
:10403000696D6974732E0000436865636B20796F46
:1040400075722073657474696E67732121005365FE
:104050006E736F722063616C6962726174696F6EF6
:10406000000064617461206F7574206F66206C6954
:104070006D6974732E0053656E736F722072617771
:104080002064617461005741524E494E472100003F
:104090000E4024404E4062407640244086403840E6
:1040A000112722270E94A33AE4E9F1E40E942D3966
:1040B000022FE6EAF1E40E94243900E00093FE06B4
:1040C0000AE00093FF0600270F93EEE9F1E40E9457
:1040D00024390AE20093FE060E94E0380F910F9304
:1040E000302F64D00E94973800E00093FE060090C5
:1040F000FF0609E0000E0092FF060F9103950430C1
:104100001CF30E94EC38E0E8F1E404E0019FE00DCC
:10411000F11D0E945F380E94603A0E94E33B083024
:1041200009F40895043021F41A950AF414E0BACF82
:10413000023029F41395153009F410E0B3CF0130A3
:10414000F1F4103029F42395233009F42227AACF63
:10415000312F3A952BD0C0E0D0E0E0E0FDE70E949F
:10416000DA25A02DB12D2BD0223049F00091200767
:1041700000232AF42F9301E0202721D02F9192CF02
:104180003400670934094F1234124F1B341B4F247B
:1041900034244F2D417869732020203A2000FA768C
:1041A00002770A771277CA76D276DC7611D00E942F
:1041B000143CA02F31960E94143CB02F089508D0D3
:1041C0000A2F0E941C3C31960B2F0E941C3C089524
:1041D000E4E4F0E0022F000F000F000FE00F0027D3
:1041E000F01F032F000FE00F0027F01F0895D6D116
:1041F000D5D40E94DB3400916607033041F0C9E159
:104200000E94C03B0091180700230AF495C000915A
:104210004707002311F40E9439361091550520916B
:104220005605309157054091BD065091BE066091EC
:10423000BF060E94443C7093DC058093DD0520920C
:10424000DE05109158052091590530915A0540918D
:10425000BD065091BE066091BF060E94443C70931B
:10426000DF058093E0052092E105D3D20E94A33AB6
:10427000EEE8F3E40E942D3900914707E4E5F7E703
:104280000E94243900E00093FE060AE00093FF0636
:1042900000914707E6E2F4E40E942439B091DC057E
:1042A000A091DD05D091DE050E94973800E00093D3
:1042B000FE0603E10093FF0600914707E4E3F4E400
:1042C0000E942439B091DF05A091E005D091E1056D
:1042D0000E94973800E00093FE060CE10093FF0671
:1042E000ECE9F3E40E942D3900914807E2E6F7E794
:1042F0000E94243900914707013071F40091200792
:10430000002352F400E00093FE0609E20093FF064A
:10431000EAEAF3E40E942D3900E00093FE0609E387
:104320000093FF06EEE2F6E70E942D39E0ECF3E49D
:104330000E945F380E94603A0E94CE3B083009F428
:104340000895043021F40E94AF08E5D052CF023026
:1043500039F49FD10E94AF08A091470757D149CFA8
:10436000013009F046CF00914707039507300CF064
:104370000027023029F4A0912007AA230AF403950C
:10438000009347070E94AF080E94DF3B32CF54756D
:104390006E696E67204D6F64653A2000496E7075D6
:1043A000742072617465203A20004C696E6B6564FC
:1043B000207769746820656C657661746F722E0071
:1043C0004C007F094368616E6E656C203620203A90
:1043D00020004368616E6E656C203720203A200013
:1043E00050204761696E2F43682E363A20004920DD
:1043F0004761696E2F43682E373A2000522047618B
:10440000696E2F43682E373A200050205472696D30
:104410002F43682E363A200052205472696D2F4384
:10442000682E373A2000C443E043E043E043E043D2
:104430000A44E043D243EE43EE43EE43D2431844F2
:10444000FC43463A483D3C0043444700506C65619C
:1044500073652063656E74657220796F7572205480
:10446000580074756E696E6720636F6E74726F6C3E
:1044700073206E6F772E0000412054756E696E6751
:10448000204D6F6465206D757374206265007365DF
:104490006C65637465642066697273742E004C44A5
:1044A000624478448E4453455420494E505554201C
:1044B00052415445000053656C65637420696E7009
:1044C0007574207261746520666F7200616C6C2077
:1044D00074756E696E67206D6F6465732E205573F9
:1044E00065004C4F5720666F722066696E652D74AB
:1044F000756E696E672E00004241434B20204C4F81
:1045000057204D454449554D204849474800A64449
:10451000B644CC44E2440E94A33A06E10093FE066E
:104520000027EEE0F5E40F930E94243900E00093A9
:10453000FE060090FF0609E0000E0092FF060F91B4
:10454000002329F40DE00093FF0601E0EACF039574
:10455000043039F700E00093FE0609E30093FF06FC
:10456000E8EFF4E40E942D390E94603A0E94E33B98
:10457000077089F0043011F4A1E008C0023011F492
:10458000A2E004C0013009F0C6CFA3E0E1EAF0E008
:104590000E94FC3B03D00E94DF3B0895E1EAF0E07B
:1045A0000E94F83BA370AA2309F4A2E0A13051F4C1
:1045B00000E00093400500E00093410506E200930F
:1045C000420515C0A23051F400E00093400500E020
:1045D0000093410503E70093420509C000E0009302
:1045E000400500E00093410500EC00934205A093D4
:1045F0004807009140050093BD06009141050093D6
:10460000BE06009142050093BF0608950E94B13A8C
:104610000AE00093FE06AA2341F4E8E4F4E40E94D1
:104620002D390AE30093FE0603C002E20093FE0662
:10463000E2E4F4E40E942D3901E000930307B2E0C4
:1046400000E00093FE0601E10093FF060027AA2385
:1046500009F402E0BF930F93EEE9F4E40E942439D9
:1046600000E00093FE060090FF0609E0000E0092B5
:10467000FF060F910395BF91BA9561F70E94083923
:104680000E94603A0E94E33B0130E1F70E94DF3B69
:10469000089500914707002309F40895B091DC05BF
:1046A000A091DD05D091DE050130E9F4B093CA0593
:1046B000A093CB05D093CC050027CC2795D000271D
:1046C000C2E0B091DF05A091E005D091E105B09383
:1046D000D305A093D405D093D50586D000912007AB
:1046E00000231AF008950230F9F401E0CC27B091CC
:1046F000DC05A091DD05D091DE05B093CD05A0933A
:10470000CE05D093CF0570D001E0C2E0B091DF05B7
:10471000A091E005D091E105B093D605A093D7050F
:10472000D093D80561D008950330C9F4B093D00573
:10473000A093D105D093D20502E0CC2755D002E05A
:10474000C2E0B091DF05A091E005D091E105B09302
:10475000D905A093DA05D093DB0546D0089504303F
:1047600059F4B0934806A0934906D0934A06EBE764
:10477000F0E00E94F13B08950530D9F4B0937E0635
:10478000A0937F06D0938006E1E8F0E00E94F13B21
:10479000B091DF05A091E005D091E105B0937B06D3
:1047A000A0937C06D0937D06EFE7F0E00E94F13BFA
:1047B0000895B093BA06A093BB06D093BC06E6E971
:1047C000F0E00E94F13BB091DF05A091E005D091AF
:1047D000E105B093B706A093B806D093B906E4E913
:1047E000F0E00E94F13B0895E4E4F0E0000F000FD8
:1047F000000FE00F0027F01F0C2F000FE00F002725
:10480000F01F0A2F0E941C3C31960B2F0E941C3C6B
:10481000089500914707002309F408950E9439364E
:104820001091550520915605309157054091BD06D0
:104830005091BE066091BF060E94443C709355059E
:1048400080935605209257051091580520915905DF
:1048500030915A054091BD065091BE066091BF0649
:104860000E94443C709358058093590520925A0544
:10487000009147070130C1F50091CA050093420637
:104880000091CB05009343060091CC0500934406AC
:104890000091D305009340050091D4050093410594
:1048A0000091D505009342054CD10E94231E009132
:1048B000DC050093A6050091DD050093A705009196
:1048C000DE050093A805009140050093B80500910E
:1048D00041050093B905009142050093BA05009186
:1048E00020070023F2F008950230A1F50091CD05D4
:1048F000009342060091CE05009343060091CF0538
:10490000009344060091D605009340050091D70519
:10491000009341050091D8050093420512D10E94F1
:10492000231E0091DC050093A9050091DD0500938D
:10493000AA050091DE050093AB05009140050093A8
:10494000BB05009141050093BC0500914205009311
:10495000BD0508950330A1F50091D00500934206EE
:104960000091D105009343060091D20500934406BF
:104970000091D905009340050091DA0500934105A7
:104980000091DB0500934205DCD00E94231E0091BC
:10499000DC050093AC050091DD050093AD050091A9
:1049A000DE050093AE05009140050093BE05009121
:1049B00041050093BF05009142050093C00508958D
:1049C000043009F50091480600934206009149061B
:1049D0000093430600914A0600934406B2D000E0DB
:1049E0000093DF050093E0050093E1050091DC05ED
:1049F000009345060091DD05009346060091DE0513
:104A0000009347060895053009F054C0AFEDB5E0B6
:104A1000CBE7D6E0E8E5F5E00E94283C30917E0641
:104A200040917F0650918006609155057091560522
:104A300080915705581B470B360B3093DC0540938C
:104A4000DD055093DE050091DC05009378060091AA
:104A5000DD05009379060091DE0500937A0600914A
:104A6000DF05009375060091E0050093760600913E
:104A7000E105009377066091780670917906809140
:104A80007A0603E00E94353C6093780670937906BD
:104A900080937A066091750670917606809177060C
:104AA00003E00E94353C6093750670937606809310
:104AB00077060895AFEDB5E0C7EBD6E0E8E5F5E0A1
:104AC0000E94283CACEDB5E0CAEBD6E0E5E5F5E0A8
:104AD0000E94283C0091DC050093A5060091DD05AD
:104AE0000093A6060091DE050093A7060091DF055E
:104AF00000939F060091E0050093A0060091E10558
:104B00000093A1066091A5067091A6068091A70664
:104B100004E00E94353C6093A5067093A60680933E
:104B2000A70660919F067091A0068091A10604E0FF
:104B30000E94353C60939F067093A0068093A10667
:104B40000895ACEDB5E0C2E4D6E0E5E5F5E00E94FD
:104B5000283C3CF400E00093DC050093DD05009365
:104B6000DE05AFEDB5E0C0E4D5E0E8E5F5E00E9494
:104B7000283C3CF400E00093DF050093E00500933F
:104B8000E1050091DF05009340050091E0050093E9
:104B900041050091E1050093420508950091470702
:104BA000023039F40091200700231AF401E0009349
:104BB000470708952F923F924F925F926F927F9294
:104BC0008F921F932F933F934F935F936F937F9396
:104BD0008F939F93AF93BF93CF93DF93EF93FF9305
:104BE00011E002E00093020701E00093030700E0F8
:104BF0000093FE0608E30093FF060FE7009300070B
:104C000000E4009301070E944D3801E00093020781
:104C100000E00093FE0609E30093FF06EF93FF9385
:104C2000E0E4FDE40E942D39FF91EF910EE1009345
:104C3000FE0603E10093FF0602E6009300070AE286
:104C40000093010702E0009302070E944D380EE135
:104C50000093FE0603E10093FF0602E600930007BF
:104C60000AE20093010701E0009302070E947038F6
:104C70000FE10093FE0604E10093FF0601E60093B6
:104C8000000709E2009301070E94703802E20093D6
:104C9000FE0608E10093FF0603E0009303070E946D
:104CA00097380E94603A2EE10E94CE3B003011F00E
:104CB0002A95D1F7003009F411E00E94CE3B003074
:104CC000C9F30E94AF08083039F4A0E0B0E0AC1797
:104CD000BD070CF4DE01AACF043061F4A11B00274C
:104CE000B00BAC17BD070CF4DE0113951F3F08F0A5
:104CF0001FEF9CCF023041F4A10F0027B01FAE1769
:104D0000BF070CF0DF01F1CF0130C9F40A2E1B2ED2
:104D1000FF91EF91DF91CF91BF91AF919F918F91D3
:104D20007F916F915F914F913F912F911F918F9044
:104D30007F906F905F904F903F902F90089576CF27
:104D4000434C522020444F574E20202055502020C5
:104D500020444F4E4500EEE9F0E00E94143C002351
:104D600012F0E2D0089510E022270E94A33A06E64E
:104D70000093FE06E0ECFEE40E942D39A22FA395DD
:104D8000BB270E94973800E00093FE0601E00093E5
:104D9000FF0600270F93E4EEFEE40E9424390F91F2
:104DA0000F93302FF4D007D100E30093FE060E944A
:104DB000E0380E94973800E00093FE060090FF065E
:104DC00009E0000E0092FF060F910395053014F3E1
:104DD00000E00093FE06E4ECFEE40E942D3935E08D
:104DE000D6D00F930170EEEEFEE40E94243908E461
:104DF0000093FE06EAECFEE40E942D390F91069521
:104E00000170E2EFFEE40E9424390E94EC38E0EAEF
:104E1000FEE404E0019FE00DF11D0E945F380E9456
:104E2000603A0E94E33B083009F40895043019F415
:104E30001A9517709ACF023019F41395177095CF01
:104E4000013069F5103019F4239527708ECF113099
:104E500078F0163068F4312F3A9599D0ACD0C1E88B
:104E6000DFEFEFE7F0E00E94DA25002D93D07DCF51
:104E7000163061F40E94A43235E089D0A1E00A27FF
:104E800000FD026087D00E946C326FCF173039F47A
:104E900035E07DD0A2E00A2700FD02607BD065CF1F
:104EA00078007F093A0056093A0956123A12561B01
:104EB0003A1B56243A24562D1D2D3D36662D7E363E
:104EC00043683A00547970653A00526174653A005B
:104ED000536572766F004553430048696768000068
:104EE0004C6F7700E476CA76D276DC76F276D04ED6
:104EF000D64EE04EDA4E434400003A3B3B3D464638
:104F0000000041204D6F746F72204C61796F757491
:104F1000206D757374006265206C6F616465642038
:104F200066697273742E00000E94B13A0AE0009321
:104F3000FE06E6EFFEE40E942D390090FE060CE02E
:104F4000000E0092FE06EAEFFEE40E942D3901E019
:104F50000093030700E00093FE0601E10093FF06C3
:104F6000E2E0FFE40E942D3900E00093FE060AE132
:104F70000093FF06E6E1FFE40E942D390E94083904
:104F80000E94603A0E94E33B0130E1F7089507D0A8
:104F90000C94143C0F9303D00F910C941C3CE4E050
:104FA000F0E0022F000F000F000FE00F0027F01FAE
:104FB000E30FF01F0895A02FBB27AA230AF4BFEF29
:104FC000089500E00093F70502E30093F80500E080
:104FD0000093F905E0E0F5E0D6D00091F4050093E8
:104FE0002A060091F50500932B060091F605009323
:104FF0002C06009140050093FA05009141050093AD
:10500000FB05009142050093FC05E8E0F5E0BBD00C
:105010000091F40500932D060091F50500932E06EE
:105020000091F60500932F06009140050093FD05C1
:10503000009141050093FE05009142050093FF0594
:10504000E0E1F5E0A0D00091F40500933006009176
:10505000F505009331060091F605009332060091A4
:105060004005009300060091410500930106009160
:10507000420500930206E8E1F5E085D00091F405D1
:10508000009333060091F505009334060091F60570
:1050900000933506009140050093030600914105F9
:1050A000009304060091420500930506E0E2F5E056
:1050B0006AD00091F405009336060091F50500933F
:1050C00037060091F60500933806009140050093DD
:1050D00006060091410500930706009142050093E2
:1050E0000806E8E2F5E04FD00091F4050093390698
:1050F0000091F50500933A060091F60500933B06F2
:1051000000914005009309060091410500930A06AD
:105110000091420500930B06E0E3F5E034D00091E6
:10512000F40500933C060091F50500933D060091BF
:10513000F60500933E060091400500930C06009191
:10514000410500930D060091420500930E06E8E329
:10515000F5E019D00091F40500933F060091F505A4
:10516000009340060091F60500934106009140052A
:1051700000930F060091410500931006009142052F
:10518000009311060895DD27A481BB27AA2312F4FA
:10519000DFEFBFEFB093F405A093F505D093F605CC
:1051A0001091F4052091F5053091F6054091F70531
:1051B0005091F8056091F9050E94443C7093F40504
:1051C0008093F5052092F605B091F405A091F505C0
:1051D000D091F605008130914C0540914D055091DC
:1051E0004E050E948A3C01813091910540919205C3
:1051F000509193050E948A3C028130919405409120
:105200009505509196050E948A3C0381309197053F
:1052100040919805509199050E948A3CB0934005B1
:10522000A0934105D0934205089500912D070023D6
:105230000AF0BDC000E000934005009341050093D3
:1052400042050091460500934206009147050093F0
:105250004306009148050093440630914206409170
:10526000430650914406609140057091410580913C
:10527000420558174707360794F46091420670912B
:10528000430680914406552744273327581B470B74
:10529000360B3093420640934306509344063091B8
:1052A000490540914A0550914B0560914005709128
:1052B0004105809142055817470736076CF0009169
:1052C00049050093400500914A050093410500916E
:1052D0004B05009342051EC000914905009340050F
:1052E00000914A050093410500914B05009342054A
:1052F00060914005709141058091420555274427F2
:105300003327581B470B360B30934005409341051C
:105310005093420530914206409143065091440615
:1053200060914005709141058091420558174707EB
:10533000360764F400914005009342060091410550
:1053400000934306009142050093440610914206E3
:10535000209143063091440640914B0650914C06F3
:1053600060914D060E94443C709340058093410536
:1053700020924205309148064091490650914A06D4
:10538000609140057091410580914205581B470B83
:10539000360B3093450640934606509347063CF43F
:1053A00000E00093450600934606009347060E94DE
:1053B000FE3730915E0540915F0550916005609128
:1053C00067057091680580916905581B470B360B7E
:1053D00030935E0540935F05509360053091610501
:1053E000409162055091630560916A0570916B056B
:1053F00080916C05581B470B360B30936105409329
:1054000062055093630530916405409165055091A4
:10541000660560916D0570916E0580916F05581B52
:10542000470B360B30936405409365055093660532
:1054300030917605409177055091780560917F0510
:105440007091800580918105581B470B360B309376
:105450007605409377055093780530917905409112
:105460007A0550917B05609182057091830580914A
:105470008405581B470B360B3093790540937A050A
:1054800050937B0530917C0540917D0550917E05C0
:10549000609185057091860580918705581B470BA3
:1054A000360B30937C0540937D0550937E05A6E72F
:1054B000B5E0C6E7D5E0E8E7F6E00E94283CA9E7BA
:1054C000B5E0C9E7D5E0E5E7F6E00E94283C00E05A
:1054D0000093420600E00093430607E00093440671
:1054E0003091760540917705509178056091960648
:1054F0007091970680919806581B470B360B309396
:10550000A3054093A4055093A5051091A3052091F0
:10551000A4053091A5054091420650914306609143
:1055200044060E94443C7093A3058093A4052092F6
:10553000A505A6E9B6E0C6E9D6E0E3EAF5E00E94F3
:10554000283C3091790540917A0550917B05609116
:10555000990670919A0680919B06581B470B360B53
:105560003093A3054093A4055093A5051091A3057E
:105570002091A4053091A505409142065091430623
:10558000609144060E94443C7093A3058093A40557
:105590002092A505A9E9B6E0C9E9D6E0E3EAF5E07D
:1055A0000E94283C30917C0540917D0550917E05FC
:1055B00060919C0670919D0680919E06581B470B3A
:1055C000360B3093A3054093A4055093A505109185
:1055D000A3052091A4053091A50540914206509164
:1055E0004306609144060E94443C7093A305809357
:1055F000A4052092A505ACE9B6E0CCE9D6E0E3EA43
:10560000F5E00E94283C00E00093400500E0009394
:10561000410503EB009342051091990620919A06EB
:1056200030919B06409140055091410560914205A3
:105630000E94443C70935A0680935B0620925C065D
:10564000109196062091970630919806409140055A
:1056500050914105609142050E94443C70935D0663
:1056600080935E0620925F0600915E0500937005B0
:1056700000915F050093710500916005009372052C
:105680000091610500937305009162050093740514
:10569000009163050093750500E00093400504E167
:1056A0000093410500E00093420530915D06409172
:1056B0005E0650915F0660914005709141058091B2
:1056C00042055817470736070CF0DAC030915A06E2
:1056D00040915B0650915C066091400570914105D8
:1056E000809142055817470736070CF0C9C06091F2
:1056F0004005709141058091420555274427332785
:10570000581B470B360B309340054093410550938F
:10571000420530915D0640915E0650915F066091B2
:10572000400570914105809142055817470736079B
:105730000CF4A6C030915A0640915B0650915C066D
:1057400060914005709141058091420558174707C7
:1057500036070CF495C000E0009340050CE300937D
:10576000410500E00093420530919C0640919D0662
:1057700050919E06609140057091410580914205CF
:105780005817470736070CF07BC0609140057091B1
:10579000410580914205552744273327581B470B65
:1057A000360B3093400540934105509342053091AC
:1057B0009C0640919D0650919E0660914005709117
:1057C0004105809142055817470736070CF458C029
:1057D00030918D0640918E0650918F0660915A0649
:1057E00070915B0680915C06581B470B360B30931B
:1057F00040054093410550934205609140057091EA
:1058000041058091420502E00E94353C60934005CD
:105810007093410580934205A0E7B5E0C0E7D5E06D
:10582000E0E4F5E00E94283C30919006409191061A
:105830005091920660915D0670915E0680915F06C0
:10584000581B470B360B309340054093410550934E
:10585000420560914005709141058091420502E04A
:105860000E94353C6093400570934105809342054A
:10587000A3E7B5E0C3E7D5E0E0E4F5E00E94283C0B
:105880000E94F6040E94D2050E9459060091270743
:1058900000239AF400E000939A0500939B0500937F
:1058A0009C0500939D0500939E0500939F05009322
:1058B000A0050093A1050093A20560914605709193
:1058C00047058091480504E00E94353C60934605F9
:1058D00070934705809348056091490570914A058A
:1058E00080914B0504E00E94353C6093490570931C
:1058F0004A0580934B0560914F057091500580914A
:10590000510504E00E94353C60934F0570935005AB
:105910008093510510914605209147053091480527
:105920004091E5055091E6056091E7050E94443CF1
:1059300070934605809347052092480510914905CC
:1059400020914A0530914B054091E8055091E905B9
:105950006091EA050E94443C7093490580934A0592
:1059600020924B0510914F05209150053091510523
:105970004091EB055091EC056091ED050E94443C8F
:1059800070934F05809350052092510510914C055E
:1059900020914D0530914E054091EE055091EF0557
:1059A0006091F0050E94443C70934C0580934D0536
:1059B00020924E0500912C0700236AF100912D07DB
:1059C00000230AF03EC11091460520914705309111
:1059D00048054091F1055091F2056091F3050E9450
:1059E000443C709391058093920520929305109109
:1059F000490520914A0530914B054091F1055091A0
:105A0000F2056091F3050E94443C709394058093E5
:105A10009505209296056091460570914705809105
:105A20004805552744273327581B470B360B30931F
:105A3000460540934705509348056091460570918F
:105A400047058091480501E00E94353C609346057A
:105A5000709347058093480530918D0640918E06DE
:105A600050918F06609146057091470580914805D9
:105A7000581B470B360B3093A3054093A405509356
:105A8000A5056091A3057091A4058091A50504E08A
:105A90000E94353C6093A3057093A4058093A505EF
:105AA0001091A3052091A4053091A50540914506CC
:105AB00050914606609147060E94443C70936306ED
:105AC000809364062092650600914E06009360065E
:105AD00000914F0600936106009150060093620604
